:040000000200413287
:01000B0032C2
:0100130032BA
:01001B0032B2
:03002300020F1DAC
:01002B0032A2
:01003300329A
:03003B000201C5FA
:05009A00C23002003E2F
:03003E00022BDFB3
:20009F0075FA0075EA0090021174A8F07461A3F090021374FAF0E4A3F075DA4975DB49D2DF
:2000BF00DE2243C110B21DA21D92879000C2E014F0E070199000C2E4F090F32D9324FF92A9
:2000DF001890F006E493FF24FF920792A2900210E0FFE06012EF14900210F0E070099002AA
:2000FF0010E4F090020FF0900216E0FFE06009302106EF14900216F0900217E0FFE06009D9
:20011F00302506EF14900217F0900218E0FFE06009302906EF14900218F0900218E07002FF
:20013F00D22B900227E0FFE06006EF14900227F0900229E0FFE06006EF14900229F09002F9
:20015F0019E0600E90021BE0FFE06006EF1490021BF020A0139000BDE014F0E0700AD2A0D7
:20017F009000BD740AF0D206052EE52E24C45035D21B752E00E52A6006D52B03752A00056E
:20019F002FE52F24C4501E752F00D21C0530E53024E85011753000900215E0FFE06006EFFE
:2001BF0014900215F022C028C0E0C0F0C082C083C007C006C005C004C003C002C001C0007A
:2001DF00C0D075D00843C11010D8030202F9900211E0FEA3E0FF8EEA8FFA90021174A82E36
:2001FF00F074613FA3F0301E0930B5069002167402F0301E0330B504C2318002D231A23174
:20021F00922120200330B504C2318002D231A231921E201F0A202103201E04C2318002D2CF
:20023F0031A231921FA2B5922030220930B3069002177406F030220330B304C2318002D207
:20025F0031A231922520240330B304C2318002D231A231922220230A202503202204C231C9
:20027F008002D231A2319223A2B3922430260930B4069002187402F030260330B404C231BA
:20029F008002D231A231922920280330B404C2318002D231A231922620270A202903202613
:2002BF0004C2318002D231A2319227A2B4922890023BE014F0E0700AD23090023B740AF0BF
:2002DF00B22A90023CE014F0E0700F90023C7428F075D0001200C175D00810D9030204055C
:2002FF00900213E0FEA3E0FF8EEB8FFB90021374FA2EF0E43FA3F03015030204059001F11B
:20031F00E0FF04F0EF700ED216C2A1A2A192A3A20792A2C21530B63990020DE07024301491
:20033F002190020EE0FF24FD5018BF070050139001F2E0FF04F0EF24F3F582E43401F583E8
:20035F00E4F090020DE02401F090020EE4F00203E690020EE0706430144690020DE0FF2437
:20037F00FD503DBF0700503820191F9001F2E0FF30E0171FEF3395E0FEEF24F3FFEE3401C9
:20039F00FE8F828E83E07002D2199001F2E0FF04F0EF24F3F582E43401F5837401F0801B7D
:2003BF0090020DE0FF24E350129001F17401F0301609D2149001F2E4F0C21990020EE02445
:2003DF0001F090020DE4F030140C9001F2E0FFBF1804D21580109001F2E0FF24E750079042
:2003FF0001F2E4F0C214D0D0D000D001D002D003D004D005D006D007D083D082D0F0D0E0F0
:20041F00D0283285823585833685F0377C007B0090F008E493FAC3EB9A40030204EF753850
:20043F000179008B19751A0090000AC004C003C001124AA1A882AA83D001D003D0048906B3
:20045F007F00EE28F8EF3AFAE82409F582EA34F0F583E493FFE92535FAE43536FDAE378A4D
:20047F00828D838EF0124B34FAEFB502028005753800800609B9090040A9E538604C8B1941
:20049F00751A0090000AC004C003124AA1AE82AF83D003D00474092EFAE43FFDEA2409FAB1
:2004BF00ED34F0FD8A828D83E493601E74092EFEE43FFFEE2409F582EF34F0F583E493900F
:2004DF00000CF08C07EF04F582220B8B0402042F7582002285823A85833B85F03C90F0083D
:2004FF00E493F53D7B00C3EB953D502E8B19751A0090000AC003124AA1E5828583F0D003FC
:20051F002409F9E435F0FAE92409F9EA34F0FA89828A83E49360030B80CCEBFAB53D0474E4
:20053F00018001E4FB600874EC253D5002C322C003C002124442D002D00379008A19751A6D
:20055F000090000AC003C002C001124AA185823E85833FD001D002D0037409253EF8E435AC
:20057F003FFF89057E00ED28F8EE3FFFE824C3F8EF3400FFE9253AFCE4353BFDAE3C8C8263
:20059F008D838EF0124B3488828F83F009B9090040AA7412253EFEE4353FFFEE24C3F582D2
:2005BF00EF3400F583E539F0EB6008AC3D0C9000CBECF01244DAD322AF82C007124442D06F
:2005DF0007EF702AFDFE74092DFBE43EFCEB24C3F582EC3400F583E4F00DBD00010EC3ED70
:2005FF0094C8EE940040DF9000CBE4F080599000CBE0FEC39F40507D007E008F037C00EBB8
:20061F0024FFF519EC34FFF51A90000AC007C006C005124AA1E5828583F0D005D006D00792
:20063F002409FBE435F0FCED2BFBEE3CFCEB24C3F582EC3400F583E4F00DBD00010EC3EDF7
:20065F00940AEE940040B40244DAAF82C00712448ED0078F40AD407E000DBD00010E9001F0
:20067F00EFE0FCFA7B00C3ED9AEE64808BF063F08095F040030207227E008E037D00A94049
:20069F007A00740229F519E43AF51A900003C006C005C003C002C001124AA1A882AF83D05A
:2006BF0001D002D003D005D006E82BF8EF3DFFE824C3F8EF3400FF740329F519E43AF51AD0
:2006DF00900003C007C006C005C003C000124AA1A982AA83D000D003D005D006D007E92B05
:2006FF00FBEA3DFDEB24C3F582ED3400F583E0FD88828F83F00EBE030050030206990540E9
:20071F00020674EC604F7F008F057E009001EFE0FC7B0074012CF519E43BF51A900003C00B
:20073F0007C006C005124AA1AB82AC83D005D006D007EB2DFDEC3EFEED24C3F582EE340083
:20075F00F583E4F00FBF030040BE9001EFE0FF1F9001EFEFF00245187F007E0090F008E4BA
:20077F0093FDC3EE9D40030208218E19751A0090000AC007C006124AA1E5828583F0D0067F
:20079F00D0072409FCE435F0FDEC2409F582ED34F0F583E493FDBD6D028003BD4D5E900000
:2007BF00017430F0754100AC410CEC3395E0FBEC2401FCEB3400FB8F19751A0090000AC08F
:2007DF0007C004C003124AA1A982AA83D003D004D007A8417D00E829F9ED3AFAE92409F5FD
:2007FF0082EA34F0F583E4938C828B83F0054174F7254150B290000BE4F0D3220E8E07022D
:20081F00077BC322AD82AE83AFF0AC43900228ECF08542F0ECA4FB900229740A2BF0C22C4A
:20083F008D828E838FF0C007C006C005C0041245C3D004D005D006D007AB42302C0302081E
:20085F00F8900229E070030208F8302E030208F843C110C230758280C007C006C005C0047B
:20087F00C0031246CD8544828545838546F012475175574175584E75598085305A852F5BE0
:20089F00852E5CA21D923A7582C012483CD003D004D005D006D007102B028002C3229002F3
:2008BF0027E06003302F94C22F8B021BEA602A900227ECF0900228ECF08D828E838FF0C025
:2008DF0007C006C005C004C0031245C3D003D004D005D006D00702085A75828012473290A7
:2008FF00022AE4F0A22C2290001CE0602090001FE0701A75444B75454E754680754203754E
:20091F004301904E4975F080120823C32290000BE4F0904E5C75F0801245C390000175F0A8
:20093F00001245C390022A7409F075446975454E75468075420575433D904E6675F0800214
:20095F000823AD82AE83AFF0904E7775F080C007C006C0051245C3D005D006D0078D828E89
:20097F00838FF01245C375447E75454E75468075420175433C904E7B75F080020823AF827A
:20099F00BF0A00500A8F0674302EF582024574BF640050398F057E0075190A8E1A8D828EE1
:2009BF0083C006C005124B86AB8274302BF582124574D005D00675190A751A008D828E83F7
:2009DF00124B50AD8274302DF5820245747E007519648E1A8F828E83C007C006124B86ACC3
:2009FF008274302CF582124574D006D00775190A751A008F828E83C007C006124B86751950
:200A1F000A751A00124B50AC8274302CF582124574D006D00775190A751A008F828E831229
:200A3F004B50AE8274302EF58202457490001CE4F01209064001227F0090F008E493FEC385
:200A5F00EF9E4003020B278F19751A0090000AC007124AA1E5828583F0D0072409FDE43565
:200A7F00F0FEED2409FDEE34F0FE8D828E83E4937003020B238F06EE04F582C00712099D8B
:200A9F0075822E124574758230124574D0077E008F19751A0090000AC007C006124AA1ACF9
:200ABF0082AD83D0068E027B00EA2CFAEB3DFBEA2409F582EB34F0F583E493F582C006C0C8
:200ADF0005C004124574D004D005D006D0070EBE090040BC75822CC007C005C004124574FE
:200AFF00D004D00574092CFCE43DFDEC2409F582ED34F0F583E493F58212457475820D1283
:200B1F004574D0070F020A5875448F75454E754680754232754301904E4975F0800208234D
:200B3F00AD82AE83AFF07544C275454B75468075420F754301904EA075F080C007C006C0AD
:200B5F000512082390001CE4F0120906D005D006D007400122904EA475F080C007C006C0FA
:200B7F00051245C3D005D006D00790F006E49360067BAB7C4E80047BAE7C4E7A808B828C58
:200B9F00838AF0C007C006C0051245C3D005D006D0078D828E838FF0C007C006C005124503
:200BBF00C3D005D006D0070DBD00010E8D828E838FF0124B34FDBD2A09904E4975F08002CD
:200BDF0045C375448F75454E754680754278754301904E4975F080020823AF82752C00BFB1
:200BFF00A100500FEF241CF582E43400F5830FE4F080EC2290001CE4F0120906400122909B
:200C1F004BD375F0801245C37544B275454E754680754232754301904E4975F0800208230F
:200C3F007544C275454B75468075420F754301904EA075F0801208235034758200120BF92A
:200C5F00752C0090022A740AF07544CD75454E75468075420F754301904EC375F0801208C2
:200C7F00235009900020E0FF900225F0D322C3227544E375454E75468075421975430290D0
:200C9F004ED875F0801208234001227544FC75454E75468075420F754301904EF175F0805F
:200CBF0012082340012290022A740CF075441875454F75468075420A75433C904F0D75F02E
:200CDF00801208234001229003E8124613758200120BF9752C0090022A7402F075443375BE
:200CFF00454F75468075420F754301904F2975F08012082340012290001FE024D075F00A08
:200D1F00A4FF900020E02F24D0F534900022E024D075F00AA4FF900023E02F24D0F533902F
:200D3F000025E024D075F00AA4FF900026E02F24D0F532900028E024D075F00AA4FF90007B
:200D5F0029E02F24D0F53090002BE024D075F00AA4FF90002CE02F24D0F52F90002EE024DD
:200D7F00D075F00AA4FF90002FE02F24D0F52E853319751A00900017124AA1751909751A63
:200D9F0000124B86AE82AF83AC327D00EC2EFEED3FFFE53324FD5013740355347D004DB437
:200DBF0001009232E433FC7D0080047C027D00EC2EFEED3FFFAC347D00EC2EFEED3FFF8CD1
:200DDF00828D83A3A3A37519048D1AC007C006124B86AC82AD83D006D007EC2EFEED3FFF82
:200DFF008E828F83A3751907751A00124ABEE58204F531C3E53494189232402AE534249CB1
:200E1F0092324022C3E533940192324019E53324F392324011C3E532940192324008E5322A
:200E3F0024E092325004C2328002D232A23292032275444C75454F75468075420F754301AA
:200E5F00904F4175F08002082375446875454F75468075420F754301904F5D75F080120822
:200E7F00234003020F1B75448C75454F75468075420F754301904F7975F0801208234003FC
:200E9F00020F1B7544AA75454F75468075420F754301904F9D75F080120823505F90022AD8
:200EBF00740EF0758200120BF9752C007544C375454F75468075420F754301904FBB75F0B5
:200EDF00801208235034900226E4F07F00EF241CF582E43400F583E0FEBE2C02801CEF24F8
:200EFF001CF582E43400F5830FE024D0FE900226E0FD75F00AA42EF080D3D322C322C028F4
:200F1F00C0E0C0F0C082C083C007C006C005C004C003C002C001C000C0D075D01020980321
:200F3F0002213A43C110900228E0900227F090022BE0242CF582E43402F583E599F09002E8
:200F5F002BE0FF242CF582E43402F583E0FEBE4E0280030210A38F147D00740C2CF582E4C4
:200F7F003DF58375190D8D1AC017C016C015C01475D000124B5075D010AA82AB83D014D0B0
:200F9F0015D016D017EA242CF582EB3402F583E0FBBB490280030210A3740B2CF582E43DAA
:200FBF00F58375190D751A00C017C016C015C01475D000124B5075D010AA82AB83D014D0C5
:200FDF0015D016D017EA242CF582EB3402F583E0FBBB200280030210A3740A2CF582E43D94
:200FFF00F58375190D751A00C017C016C015C01475D000124B5075D010AA82AB83D014D085
:20101F0015D016D017EA242CF582EB3402F583E0FBBB547074092CF582E43DF58375190DD7
:20103F00751A00C017C016C015C01475D000124B5075D010AA82AB83D014D015D016D01775
:20105F00EA242CF582EB3402F583E0FBBB4F3574082CF582E43DF58375190D751A00C01754
:20107F00C01675D000124B5075D010AC82AD83D016D017EC242CF582ED3402F583E0FDBD21
:20109F004E02D22E90022AE0FD24F05003022126ED240A83F582ED241483F583E473952651
:2010BF00CE3A26122626FF752BBF3B26DDB81321121C211E21211F1F121211211020AC2CB2
:2010DF00052CEC241CF582E43400F583E599F07420B5993490022BE0FC7B00740C2CF582D2
:2010FF00E43BF58375190D8B1A75D000124B5075D010AB82AC83EB242CF582EC3402F5830B
:20111F00E0FCBC3A03752C00742CB59902800302212690022AE4F0F52C0221267456B5996C
:20113F006E8F137C00740C2BF582E43CF58375190D8C1AC017C014C01375D000124B507524
:20115F00D010A982AA83D013D014D017E9242CF582EA3402F583E0FABA4534740B2BF58214
:20117F00E43CF58375190D751A00C01775D000124B5075D010AB82AC83D017EB242CF5827B
:20119F00EC3402F583E0FCBC4705D22C0221267452B5990280030221268F137C00740C2BC0
:2011BF00F582E43CF58375190D8C1AC014C01375D000124B5075D010A982AA83D013D014B3
:2011DF00E9242CF582EA3402F583E0FABA4F028003022126740B2BF582E43CF58375190DA3
:2011FF00751A0075D000124B5075D010AB82AC83EB242CF582EC3402F583E0FCBC520280E6
:20121F0003022126900227E4F0022126AC2C052CEC241CF582E43400F583E599F07422B598
:20123F00993490022BE0FC7B00740C2CF582E43BF58375190D8B1A75D000124B5075D0106D
:20125F00AB82AC83EB242CF582EC3402F583E0FCBC2003752C00742CB599028003022126AF
:20127F0090022BE0FC7B00740C2CF582E43BF58375190D8B1A75D000124B5075D010AB82CD
:20129F00AC83EB242CF582EC3402F583E0FCBC2202800302212690022AE4F0F52C02212632
:2012BF007431B599028003022126D22C022126AC2C052CEC241CF582E43400F583E599F05D
:2012DF00744BB5996790022BE0FB7C00740C2BF582E43CF58375190D8C1AC014C01375D080
:2012FF0000124B5075D010A982AA83D013D014E9242CF582EA3402F583E0FABA4C2E740BD9
:20131F002BF582E43CF58375190D751A0075D000124B5075D010AB82AC83EB242CF582EC09
:20133F003402F583E0FCBC4303752C00740DB59902800302212690022BE0FC7B00740C2C04
:20135F00F582E43BF58375190D8B1A75D000124B5075D010AB82AC83EB242CF582EC3402A9
:20137F00F583E0FCBC2202800302212690022AE4F0F52C022126743EB59912904E4975F0B6
:20139F008075D0001245C375D010022126BE470280030214868F137C00740C2BF582E43C2B
:2013BF00F58375190D8C1AC017C016C015C014C01375D000124B5075D010A982AA83D013AA
:2013DF00D014D015D016D017E9242CF582EA3402F583E0FABA4E028003021486740B2BF56E
:2013FF0082E43CF58375190D751A00C017C016C015C014C01375D000124B5075D010A982EF
:20141F00AA83D013D014D015D016D017E9242CF582EA3402F583E0FABA494C740A2BF58276
:20143F00E43CF58375190D751A00C017C016C01575D000124B5075D010AB82AC83D015D0F1
:20145F0016D017EB242CF582EC3402F583E0FCBC521575DB00904FCA75F08075D0001245AB
:20147F00C375D010022126E4BE3A0104FC70030216518F127B00740C2AF582E43BF58375EA
:20149F00190D8B1AC017C016C015C014C013C01275D000124B5075D010A882A983D012D018
:2014BF0013D014D015D016D017E8242CF582E93402F583E0F9B952028048740C2AF582E46B
:2014DF003BF58375190D751A00C017C016C015C014C013C01275D000124B5075D010A882A4
:2014FF00A983D012D013D014D015D016D017E8242CF582E93402F583E0F9B94602800302A1
:20151F001651740B2AF582E43BF58375190D751A00C017C016C015C014C013C01275D00024
:20153F00124B5075D010A882A983D012D013D014D015D016D017E8242CF582E93402F58393
:20155F00E0F9B942028003021651740A2AF582E43BF58375190D751A00C017C016C015C088
:20157F0014C013C01275D000124B5075D010A882A983D012D013D014D015D016D017E8248F
:20159F002CF582E93402F583E0F9B95002800302165174092AF582E43BF58375190D751A43
:2015BF0000C017C016C015C014C013C01275D000124B5075D010A882A983D012D013D014CB
:2015DF00D015D016D017E8242CF582E93402F583E0F9B9435D74082AF582E43BF583751980
:2015FF000D751A00C017C016C015C01475D000124B5075D010AA82AB83D014D015D016D0BA
:20161F0017EA242CF582EB3402F583E0FBBB2B229000BBE0FB24F650099000BB740BF00212
:20163F002126D20290022A7408F0C212752900022126EC70030217A18F137C00740C2BF5B6
:20165F0082E43CF58375190D8C1AC017C016C015C014C01375D000124B5075D010A982AACB
:20167F0083D013D014D015D016D017E9242CF582EA3402F583E0FABA490280030217A17477
:20169F000B2BF582E43CF58375190D751A00C017C016C015C014C01375D000124B5075D05C
:2016BF0010A982AA83D013D014D015D016D017E9242CF582EA3402F583E0FABA5402800375
:2016DF000217A1740A2BF582E43CF58375190D751A00C017C016C015C014C01375D00012CF
:2016FF004B5075D010A982AA83D013D014D015D016D017E9242CF582EA3402F583E0FABA2E
:20171F004D0280030217A174092BF582E43CF58375190D751A00C017C016C015C014C01314
:20173F0075D000124B5075D010A982AA83D013D014D015D016D017E9242CF582EA3402F5AD
:20175F0083E0FABA433C74082BF582E43CF58375190D751A00C017C016C01575D000124BD0
:20177F005075D010AB82AC83D015D016D017EB242CF582EC3402F583E0FCBC2B05D210029F
:20179F002126E4BE200104FC70030219508F127B00740C2AF582E43BF58375190D8B1AC06E
:2017BF0017C016C015C014C013C01275D000124B5075D010A882A983D012D013D014D015A4
:2017DF00D016D017E8242CF582E93402F583E0F9B93A028003021950740B2AF582E43BF5E7
:2017FF008375190D751A00C017C016C015C014C013C01275D000124B5075D010A882A98385
:20181F00D012D013D014D015D016D017E8242CF582E93402F583E0F9B94C0280030219503A
:20183F00740A2AF582E43BF58375190D751A00C017C016C015C014C013C01275D000124B0C
:20185F005075D010A882A983D012D013D014D015D016D017E8242CF582E93402F583E0F9F4
:20187F00B94702800302195074092AF582E43BF58375190D751A00C017C016C015C014C064
:20189F0013C01275D000124B5075D010A882A983D012D013D014D015D016D017E8242CF51F
:2018BF0082E93402F583E0F9B94D02800302195074082AF582E43BF58375190D751A00C083
:2018DF0017C016C015C014C013C01275D000124B5075D010A882A983D012D013D014D01583
:2018FF00D016D017E8242CF582E93402F583E0F9B9433E74072AF582E43BF58375190D75E0
:20191F001A00C017C016C015C01475D000124B5075D010AA82AB83D014D015D016D017EA17
:20193F00242CF582EB3402F583E0FBBB2B03021AE4EC7003021B318F137C00740C2BF58277
:20195F00E43CF58375190D8C1AC017C016C015C014C01375D000124B5075D010A982AA83C7
:20197F00D013D014D015D016D017E9242CF582EA3402F583E0FABA3A028003021B31740B67
:20199F002BF582E43CF58375190D751A00C017C016C015C014C01375D000124B5075D01054
:2019BF00A982AA83D013D014D015D016D017E9242CF582EA3402F583E0FABA500280030284
:2019DF001B31740A2BF582E43CF58375190D751A00C017C016C015C014C01375D000124BEF
:2019FF005075D010A982AA83D013D014D015D016D017E9242CF582EA3402F583E0FABA492D
:201A1F00028003021B3174092BF582E43CF58375190D751A00C017C016C015C014C0137555
:201A3F00D000124B5075D010A982AA83D013D014D015D016D017E9242CF582EA3402F5839C
:201A5F00E0FABA4C028003021B3174082BF582E43CF58375190D751A00C017C016C015C092
:201A7F0014C01375D000124B5075D010A982AA83D013D014D015D016D017E9242CF582EAAE
:201A9F003402F583E0FABA43028003021B3174072BF582E43CF58375190D751A00C017C059
:201ABF0016C01575D000124B5075D010AB82AC83D015D016D017EB242CF582EC3402F5837B
:201ADF00E0FCBC2B4D8F137C0074092BF582E43CF58375190D8C1A75D000124B5075D0107A
:201AFF00AB82AC83EB242CF582EC3402F583E0FCBC4C03D38001C392084006300E030221DD
:201B1F0026C20CC209C20AC20B90022A7403F0022126BE4B028003021BC28F137C00740CD7
:201B3F002BF582E43CF58375190D8C1AC017C016C01575D000124B5075D010AB82AC83D016
:201B5F0015D016D017EB242CF582EC3402F583E0FCBC4F4FBD0203752C00A22DB3922CC29D
:201B7F002D300223AC2C7D001CBCFF011DEC241CFCED3400FD8C828D83E0240AFB8C828D72
:201B9F0083F0C212752C00E52C7003022126752C00904F9D75F08075D0001245C375D010BB
:201BBF00022126BE540280030221268F147D00740C2CF582E43DF58375190D8D1AC015C02A
:201BDF001475D000124B5075D010AA82AB83D014D015EA242CF582EB3402F583E0FBBB4F39
:201BFF00028003022126740B2CF582E43DF58375190D751A0075D000124B5075D010AC829E
:201C1F00AD83EC242CF582ED3402F583E0FDBD4E028003022126D22D022126200C03021DDB
:201C3F001DE52C704D740DB599028003022126300807D201752B02052A200812900219E055
:201C5F00FDBD020A90021AE0FDBD02004004C2338002D233A233920F20080630090B200F80
:201C7F000890022AE4F002212690022A7405F0022126740AB52C607422B5995B90000174F3
:201C9F0030F090000BE4F090000275F00075D00012042275D010E582FDB401009209ED60CC
:201CBF000A90000CE0FCBC4D028004C2338002D233A233920BED600F90000CE0FDBD6D0205
:201CDF008009BD4D028004C2338002D233A233920A752C0002212674F6252C400EE52C24B7
:201CFF0001F582E43400F583E599F0E52C24F55008752C00D209022126052C022126300856
:201D1F003CBE30398F147D00740C2CF582E43DF58375190D8D1AC017C01675D000124B5084
:201D3F0075D010AC82AD83D016D017EC242CF582ED3402F583E0FDBD2203021DF8BE3402EC
:201D5F008003021DFD8F147D00740C2CF582E43DF58375190D8D1AC015C01475D000124B5C
:201D7F005075D010AA82AB83D014D015EA242CF582EB3402F583E0FBBB3863740B2CF582DF
:201D9F00E43DF58375190D751A00C015C01475D000124B5075D010AA82AB83D014D015EA64
:201DBF00242CF582EB3402F583E0FBBB2B30740A2CF582E43DF58375190D751A0075D0008A
:201DDF00124B5075D010AC82AD83EC242CF582ED3402F583E0FDBD2205D20C752C01740D74
:201DFF00B59902800302212690022AE4F075DB49022126300D43743BB599028021740DB5E0
:201E1F009902801A7460252C4014AD2C052CED241CF582E43400F583E599F0022126E52CEF
:201E3F00241CF582E43400F583E4F0F52CC20D90022AE4F0D20E022126300B03021F5A30D6
:201E5F000F03021F5ABE2C028003021F568F147D00740C2CF582E43DF58375190D8D1AC012
:201E7F0015C01475D000124B5075D010AA82AB83D014D015EA242CF582EB3402F583E0FBCB
:201E9F0090F003E493FAEBB512028003021F56740B2CF582E43DF58375190D751A00C015C7
:201EBF00C01475D000124B5075D010AA82AB83D014D015EA242CF582EB3402F583E0FB9010
:201EDF00F002E493FAEBB5126E740A2CF582E43DF58375190D751A00C015C01475D000127C
:201EFF004B5075D010AA82AB83D014D015EA242CF582EB3402F583E0FB90F001E493FAEBAE
:201F1F00B5123474092CF582E43DF58375190D751A0075D000124B5075D010AC82AD83EC33
:201F3F00242CF582ED3402F583E0FD90F000E493FCEDB514028004C2338002D233A2339231
:201F5F000D740DB599028003022126752C0190022AE4F0022126743EB5990A90022AE4F0A3
:201F7F00D22C022126BE520280030221268F157E00740C2DF582E43EF58375190D8E1AC03A
:201F9F0016C01575D000124B5075D010AB82AC83D015D016EB242CF582EC3402F583E0FCA1
:201FBF00BC52028003022126740B2DF582E43EF58375190D751A0075D000124B5075D010F8
:201FDF00AD82AE83ED242CF582EE3402F583E0FEBE45028003022126900227E4F0022126AD
:201FFF007422B599028003022089D2127E00740C2FF582E43EF58375190D8E1A75D00012F2
:20201F004B5075D010AE82AF83EE242CF582EF3402F583E0FFBF2C21AE2C7F001EBEFF01DD
:20203F001FEE241CFEEF3400FF8E828F83E02411FD8E828F83F0022126AE2C7F001EBEFF51
:20205F00011FEE241CFEEF3400FF8E828F83E0241BFD8E828F83F09000BBE0FF0F9000BB1F
:20207F00EFF090022AE4F0022126E59924D0400302212620120FE52975F00AA4FFE599FEAE
:20209F002F24D0F529AF2C052CEF241CF582E43400F583E599F0022126AF2C052CEF241CAC
:2020BF00F582E43400F583E599F07422B5993690022BE0FF7E00740C2FF582E43EF5837523
:2020DF00190D8E1A75D000124B5075D010AE82AF83EE242CF582EF3402F583E0FFBF2C0549
:2020FF00852D2C80227422B5991DAE2C7F001EBEFF011FEE241CF582EF3400F583E4F0F5E3
:20211F002C90022AF0D22C90022BE02401F0E0FF24F3500590022BE4F0C298D0D0D000D0A2
:20213F0001D002D003D004D005D006D007D083D082D0F0D0E0D02832C2117F00EF241CFDC7
:20215F00E43400FE0F8D828E83E0600543C11080EBBFA000500FEF241CF582E43400F58363
:20217F000FE4F080EC90001CE0FFBF3F02800890001DE0FEBE3F06200903020C13BF4203FF
:20219F00022813BF43030228ADBF44030223EBBF4703022896BF4B03022284BF4C0302263D
:2021BF000ABF500302236BBF52030222F1BF53028050BF55030227A0BF58030223F7BF6210
:2021DF0003022813BF63030228ADBF64030223EBBF6703022896BF6B03022284BF6C030280
:2021FF00260ABF700302236BBF72030222F1BF7302800FBF75030227A0BF78030223F7026A
:20221F002AB090F006E49330E006200A03022AB990F006E49330E00D1244429000C9E05461
:20223F0002F01244DAD215D2A2C207900064124613C2A2A2A2921590F004E493600C904F45
:20225F00D375F080120B3F022AB97544E275454F754680754203754301904E4975F08012F6
:20227F000823022AB9200A03022AB990001DE0FFBF50028003BF7038124442900020E0FF6F
:20229F00BF4E028003BF6E129000C9E04402F0904FF275F080120B3F80109000C9E05401AF
:2022BF00F090500175F080120B3F1244DA022AB91244429000C9E04401F01244DAD2A2D25C
:2022DF000790000BE4F090500E75F080120B3F022AB9200A03022AB990001EE0FF90002006
:2022FF00E0FEEFB50658BF72028003BF5250300B4D90501D75F080120B3F7582001205D71D
:20231F0090020012442A75180090032C12440F1244429000C67430F09000C5F09000C4F0D0
:20233F009000C3F09000C9E4F09000C8F09000CAF09000C704F01244DAC213022AB9905067
:20235F003475F080120B3FC2A0022AB9200A03022AB9900020E0FFBF30004064EF24C64055
:20237F005F900021E0FFBF30004055EF24C64050900022E0FFBF30004046EF24C640419072
:20239F000023E0FFBF30004037EF24C64032124442900020E09000C3F0900021E09000C41B
:2023BF00F0900022E09000C5F0900023E09000C6F01244DA90504775F080120B3F022AB9E1
:2023DF0090505E75F080120B3F022AB9200A03022AB9120A4B022AB990001DE0FFBF6F0260
:2023FF008008BF4F02800302258E200A03022AB9900020E0FEBE30005003022582EE24C68C
:20241F005003022582900021E0FDBD30004005ED24C65006ED6003022582900022E0FCBC71
:20243F0030004005EC24C65006EC6003022582BE30057B000224E7ED70098E02EA24D0FB9A
:20245F000224E7EC70138E02EA24D075F00AA4FA8D01E92A24D0FB806FC0068D017A00E930
:20247F0024D0F519EA34FFF51A90000AC006C005C004124AA1A982AA83D004D005D0068CC6
:20249F00007E00E829F9EE3AFAE924D0F9EA34FFFAC374329974808AF063F08095F0D006E8
:2024BF005011EE24FE500C90505E75F080120B3F022AB9EE24D075F064A4FEED24D075F039
:2024DF000AA42EFE2C24D0FBEB700302257190F008E493FEC39B407A8B057E00ED24FFF5CA
:2024FF0019EE34FFF51A90000AC006C005C003124AA1E5828583F0D003D005D0062409FA8B
:20251F00E435F0FCEA2409F582EC34F0F583E493FCBC4D028030ED24FFF519EE34FFF51A05
:20253F0090000AC003124AA1E5828583F0D0032409FDE435F0FEED2409F582EE34F0F583A4
:20255F00E493FEBE6D0C90507175F080120B3F022AB98B821205D790509275F080120B3F8B
:20257F00022AB990505E75F080120B3F022AB9BF75028003BF556830070C9050AA75F0800C
:20259F00120B3F022AB9D21590F005E4936010D2A3900064124613C2A3A2A39215800ED203
:2025BF00A1900064124613C2A1A2A1921590000BE4F090F00493600C9050BE75F080120B1D
:2025DF003F022AB97544E275454F754680754203754301904E4975F080120823022AB990A8
:2025FF0050CE75F080120B3F022AB990001DE0FFBF75028008BF55028003022724200A031B
:20261F00022AB9900020E0FEBE30005003022718EE24C65003022718900021E0FEBE3000BD
:20263F005003022718EE24C65003022718900022E0FEBE30005003022718EE24C65003023C
:20265F002718900023E0FEBE30005003022718EE24C65003022718900024E0FEBE300050CD
:20267F0003022718EE24C65003022718900025E0FEBE30005003022718EE24C65003022722
:20269F0018900026E0FEBE3000406EEE24C64069900027E0FEBE3000405FEE24C6405A902E
:2026BF000028E0FEBE30004050EE24C6404B900029E0FEBE30004041EE24C6403C90002A00
:2026DF00E4F090002BE0FEBE6D067D6D7E0080047D757E008D3990002175F0001204F350AC
:2026FF000C9050E175F080120B3F022AB99050FA75F080120B3F022AB990510A75F08012E6
:20271F000B3F022AB9BF65028003BF456830070C9050AA75F080120B3F022AB9D21590F0FC
:20273F0005E4936010D2A1900064124613C2A1A2A19215800ED2A3900064124613C2A3A206
:20275F00A3921590000BE4F090F00493600C90511E75F080120B3F022AB97544E275454F55
:20277F00754680754203754301904E4975F080120823022AB99050CE75F080120B3F022A43
:20279F00B9200A03022AB9900020E0FFBF42028012BF6202800D900021E0FEBE6E0280033B
:2027BF00BE4E1A1244429000CA740AF01244DAD2C290512B75F080120B3F022AB9BF540269
:2027DF00800DBF74028008BE66028003BE46191244429000CAE4F01244DAC2C290513475C6
:2027FF00F080120B3F022AB99050CE75F080120B3F022AB9200A03022AB990001FE0FF6035
:20281F000690001EE0700C90513D75F080120B3F022AB9BF42028012BF6202800D90002050
:20283F00E0FEBE6E028003BE4E181244429000C77401F01244DA90515175F080120B3F02CD
:20285F002AB9BF5402800DBF74028008BE66028003BE461790515E75F080120B3F1244423B
:20287F009000C7E4F01244DA022AB99050CE75F080120B3F022AB9200A03022AB990000B78
:20289F00E4F090000175F000120961022AB990001DE0FFBF67028008BF47028003022AA556
:2028BF00200A03022AB990001FE0FFBF30005003022A9AEF24C65003022A9A900020E0FED1
:2028DF00BE30005003022A9AEE24C65003022A9A900021E0FDBD30005003022A9AED24C676
:2028FF005003022A9A900022E0FCBC30005003022A9AEC24C65003022A9A900023E0FBBBD5
:20291F0030005003022A9AEB24C65003022A9A900024E0FABA30005003022A9AEA24C650AC
:20293F0003022A9A900025E0F9B930005003022A9AE924C65003022A9A900026E0F8B830BD
:20295F00005003022A9AE824C65003022A9A900027E0F547C394305003022A9AE54724C6CB
:20297F005003022A9A900028E0F548C394305003022A9AE54824C65003022A9AEF24D07522
:20299F00F00AA42E24D0FFED24D075F00AA42C24D0FEEB24D075F00AA42A24D0FDE924D05D
:2029BF0075F00AA42824D0FCE54724D075F00AA4254824D0FBEF24E84019EE24C44014BD03
:2029DF000100400FED24E0400ABC01004005EC24F3500C90516B75F080120B3F022AB98FEB
:2029FF00308E2F752E008D328C338B34853319751A00900017124AA1751909751A00124B64
:202A1F0086AE82AF83AC327D00EC2EFEED3FFFE53324FD5013740355347D004DB401009264
:202A3F0034E433FC7D0080047C027D00EC2EFEED3FFFAC347D00EC2EFEED3FFF8C828D8333
:202A5F00A3A3A37519048D1AC007C006124B86AC82AD83D006D007EC2EFEED3FFF8E828FD8
:202A7F0083A3751907751A00124ABEE58204F53190517D75F080120B3F801F90516B75F053
:202A9F0080120B3F80149050CE75F080120B3F800990505E75F080120B3F43C1107F00EF2E
:202ABF00241CFDE43400FE8D828E83E0600FEF241CF582E43400F5830FE4F080E222900206
:202ADF001CE0FF90F000E4937D0024D0FEED34FFFD7C00EFB5065DECB5055990021DE0FF49
:202AFF0090F001E4937D0024D0FEED34FFFD7C00EFB50640ECB5053C90021EE0FF90F002DA
:202B1F00E4937D0024D0FEED34FFFD7C00EFB50623ECB5051F90021FE0FF90F003E4937D7E
:202B3F000024D0FEED34FFFD7C00EFB50606ECB505028004C2358002D235A23522AF8290D5
:202B5F00F008E4937003F582227E0090F008E493FDC3EE9D50668F047D008E027B00EA2C2C
:202B7F00FCEB3DFD90F008E493FB8B19751A008C828D83C007C006124B50AC828C19751A2E
:202B9F000090000AC004124AA1E5828583F0D004D006D0072409FBE435F0FDEB2409F5821E
:202BBF00ED34F0F583E493FD600FBD4D02800ABD6D028005EC04F582220E808F7582002284
:202BDF007593007594FF7592007591007595007596FF75B20075B10075B30275B41C75CAAA
:202BFF000075C90075C00075B0FF75A00075B881759700D2AF9000C2741EF0752A009000CC
:202C1F00BD740AF09000BE7402F09000BFF09000C0F09000C1F0900218F0900216F0900232
:202C3F00177406F0900219E4F0C22E900210E4F090020FF090021504F0D2361244429000B3
:202C5F00C7E024FE50069000C77401F09000C9E024FC50059000C9E4F09000C8E024FE50F5
:202C7F00059000C8E4F09000CAE024F550059000CAE4F09000CBE024EB50059000CBE4F060
:202C9F009000C3E0FFBF30004032EF24C6402D9000C4E0FFBF30004023EF24C6401E9000F0
:202CBF00C5E0FFBF30004014EF24C6400F9000C6E0FFBF30004005EF24C650129000C67478
:202CDF0030F09000C5F09000C4F09000C3F01244DA90F007E49324FF92C212448E9001EFE0
:202CFF00E0249C50059001EFE4F09001F0E024FE50059001F0E4F01245189013881246133A
:202D1F0012455C12009F1247BB202E0E120C3F5009120C8F120E50120E6890021B743CF018
:202D3F009000017430F090000BE4F01207779213C23730130990518B75F080120B3F101C8D
:202D5F00028003120C8F301B2590F007E493601EC21B90F007E493FFBF0102C2C21244427E
:202D7F009000CAE0FF1F9000CAEFF01244DA90021BE07033900219E0602D90021AE4F0901B
:202D9F000219F0900019F090021FF090021EF090021DF090021CF0900223F0900222F09019
:202DBF000221F0900220F010100280217544C275454B75468075420F754301904EA075F05F
:202DDF008012082390519A75F0801245C3200E03022EB8200F03022EB8C20EC20F9002191E
:202DFF00E0FFBF02028003022EA090021AE0FFBF02004003022EA090001CE0FFBF6C028028
:202E1F0003BF4C0F90001DE0FFBF7502801FBF5502801A90001CE0FFBF73028003BF5361B0
:202E3F0090001DE0FFBF61028003BF415490000BE4F07F00EF240DFDE43400FEEF2401F5C4
:202E5F0082E43400F583E0FC8D828E83F00FBF0B0040E130131290021AE060067E757F00A2
:202E7F00800A7E6D7F0080047E4D7F00900018EEF0A20992009000197401F090021B743C43
:202E9F00F07544A975455175468075420F754301904F9D75F080120823300E29900219E06C
:202EBF0070231221577544A975455175468075420F754301904F9D75F080120823C20E75CC
:202EDF008253124574900215E0700DE5307009E52F24FA500375C760900219E0FF24F94099
:202EFF001CEF2F2F902F0773022F1C023052023189023946023B410234FD02376A1030026D
:202F1F00803A7582801246CD904BC275F0801247517557BA75585175598085305A852F5B00
:202F3F00852E5CA21D923A7582C712483C85345D85335E85325F7582C01249ED90F006E4D9
:202F5F009320E165900216E0705FC21F90021B743CF090021AE4F03013499002197401F0B8
:202F7F007582801247327582801246CD9051BB75F08012475190021CE02430F58212466B4D
:202F9F0090021DE02430F58212466B90021EE02430F58212466B90021FE02430F582124623
:202FBF006B80069002197402F0102702803E303712D215D2A2900064124613C2A2A2A2928C
:202FDF00158027D21590F005E4936010D2A1900064124613C2A1A2A19215800ED2A3900011
:202FFF0064124613C2A3A2A39215B237102303023BCC303712D215D2A2900064124613C275
:20301F00A2A2A292158027D21590F005E4936010D2A3900064124613C2A3A2A39215800E57
:20303F00D2A1900064124613C2A1A2A19215B237023BCC90021AE02404F553758280124695
:20305F0040101F030230E690021AE02401F0E0FFBF047490021AE4F0122ADD502690021956
:20307F007402F0900224E4F090021FF090021EF090021DF090021CF012472C75828012476E
:20309F00328044900224E02401F0E0FF24FB5020900219E4F01244429000C9E04402F0126A
:2030BF0044DA12077750099051C075F080120B3F7582881246CD75825812466B900224E0BC
:2030DF002430F58212466B102702805090021AE0241CFFE43402FE8F828E83E0FD7C008D4F
:2030FF00828C83A375190A8C1AC007C006124B50AC82D006D0078F828E83ECF090021AE0A0
:20311F002484F5821246CD90021AE0241CF582E43402F583E02430F58212466B1023028054
:20313F001590021AE0FFE06008EF1490021AF08005900219E4F0103003023BCC7557BA759E
:20315F00585175598085305A852F5B852E5CA21D923A7582C712483C85345D85335E85326A
:20317F005F7582C01249ED023BCC900019E0700302328D7582801246CD900019E0FFBF0128
:20319F00067ECF7F5180047EE07F517D808E828F838DF01247517582C01246CD90000D7507
:2031BF00F0001247519051F175F080124751900019E0FFBF01028003023261301F64C223FB
:2031DF00C21F90021B743CF030000F900018E0F53990000E75F0001204F37F00EF2401FD11
:2031FF00E43400FEEF240DF582E43400F583E08D828E83F00FBF0B0040E230130B9051F861
:20321F0075F080120B3F800990520875F080120B3FD2139000197402F07582C01247320262
:20323F003BCC102303023BCC90021B743CF0900019E4F07582801247327582C01247320219
:20325F003BCC201F09202306202703023BCCC227C223C21F90021B743CF0900019E4F07576
:20327F0082801247327582C0124732023BCC7557BA75585175598085305A852F5B852E5C38
:20329F00A21D923A7582C712483C85345D85335E85325F7582C01249ED7582801246CD90C3
:2032BF00021AE0FF24F9406EEF2F9032CD73800C8024802D8036803F804880513013067E57
:2032DF00147F5280047E257F527D808E828F838DF0124751804090523775F08012475180C4
:2032FF003590524875F080124751802A90525975F080124751801F90526A75F080124751D3
:20331F00801490527B75F080124751800990528C75F080124751101F02801FC22390021A27
:20333F00E0FF7E008F828E83A37519078E1A124B50AE82AF8390021AEEF010270280189015
:20335F00021AE0FFBF0200500890021B743CF0800690021A7406F020230302349C90021A8D
:20337F00E0FF24FE400302349CC2237582801247327582801246CD90021AE0FFBF020280C7
:20339F0013BF03028025BF04028030BF050302346002349C9002197405F0758200122B5C4A
:2033BF00E58290001AF0D23002349C9002197406F090001BE4F0D23002349C90021974038F
:2033DF00F09051BB75F08012475190021CE02430F58212466B90021DE02430F58212466B7A
:2033FF0090021EE02430F58212466B90021FE02430F58212466B75822012466B758220126E
:20341F00466B75822012466B900220E02430F58212466B900221E02430F58212466B90022F
:20343F0022E02430F58212466B900223E02430F58212466B75822012466B90021AE4F080E0
:20345F003C9002197404F090F005E49390021AF090529D75F08012475190021AE060067EE8
:20347F00A57F5280047EA87F527D808E828F838DF01247519052AB75F08012475190021731
:20349F00E06003023BCC90021AE0FFBF02004003023BCCC22312077750099052AE75F080E6
:2034BF00120B3F7582001205D790020012442A75180090032C12440F1244429000C6743057
:2034DF00F09000C5F09000C4F09000C3F01244DAC21390021AE4F0900219F0023BCC900058
:2034FF0019E070030235A47582801246CD900019E0FFBF01067EE97F5280047EFA7F527DFA
:20351F00808E828F838DF01247517582C01246CD90000D75F00012475190530B75F0801256
:20353F004751900019E0FFBF01028003023BCC301F33C223C21F90021B743CF090001AE0DF
:20355F00F5821205D7900019E4F0758200122B5CE58290001AF07582801247327582C0120E
:20357F004732023BCC102303023BCC90021B743CF0900019E4F07582801247327582C012D6
:20359F004732023BCC1030030236AE7582801246CD90001AE0701B90531475F0801247512A
:2035BF007582C01246CD90532575F0801247510236AE90533675F08012475190001AE0FF62
:2035DF007E0075190A8E1A8F828E83124B86AE8274302EF58212466B90001AE0FF7E007551
:2035FF00190A8E1A8F828E83124B50AE8274302EF58212466B75822012466B90001AE07EF4
:20361F000024FFF519EE34FFF51A90000A124AA1E5828583F02409FEE435F0FFEE2409F5F1
:20363F0082EF34F0F583E493F58212466B90533B75F0801247517582C01246CD75823012EB
:20365F00466B7F0090001AE07D0024FFF519ED34FFF51A90000AC007124AA1AD82AE83D026
:20367F00078F037C00EB2DFDEC3EFEED2409F582EE34F0F583E493F582C00712466BD0076F
:20369F000FBF090040BE9051F175F080124751102302801790021B743CF090001AE0F582BB
:2036BF00122B5CE58290001AF0D23020270302375190001AE0607BC22790021B743CF09050
:2036DF00000D7430F0754900AE490EEE3395E0FDEE240DFEED3400FD90001AE07B0024FF71
:2036FF00F519EB34FFF51A90000AC006C005124AA1AB82AC83D005D006AA497F00EA2BFBC5
:20371F00EF3CFCEB2409F582EC34F0F583E4938E828D83F0054974F7254950AC900017E417
:20373F00F090001904F07582801247327582C0124732101F03023BCC9002197402F09002BB
:20375F001AF0758280124732023BCC900019E070030238007582801246CD900019E0FFBF1C
:20377F0001067E4A7F5380047E5B7F537D808E828F838DF01247517582C01246CD90536CE9
:20379F0075F080124751900019E0FFBF01028003023BCC301F2BC223C21F90021B743CF018
:2037BF0090001BE0F582120669900019E4F090001BF07582801247327582C0124732023BCE
:2037DF00CC102303023BCC90021B743CF0900019E4F07582801247327582C0124732023B74
:2037FF00CC1030030238CD7582801246CD90F32CE493701B90537D75F0801247517582C0A1
:20381F001246CD90532575F0801247510238CD90538F75F08012475190001BE0FF7E008F2E
:20383F00828E83A375190A8E1A124B86AE8274302EF58212466B90001BE0FF7E008F828E2D
:20385F0083A375190A8E1A124B50AE8274302EF58212466B75822F12466B90F32CE493FFEC
:20387F007E0075190A8E1A8F828E83124B86AE8274302EF58212466B90F32CE493FF7E0087
:20389F0075190A8E1A8F828E83124B50AE8274302EF58212466B90530B75F08012475175CC
:2038BF0082C01246CD90539775F08012475130233890F32CE4936031C22390021B743CF005
:2038DF0090001BE0FF7E000FBF00010E90F32CE493FD8D19751A008F828E83124B50AE828D
:2038FF00AF8390001BEEF0D23030272190F32CE493601AC22790021B743CF0900019740180
:20391F00F07582801247327582C0124732101F03023BCC9002197402F090021A04F0758271
:20393F0080124732023BCC101F030239DE90021AE02401F0E0FFBF0426122ADD40139002A2
:20395F001AE4F07582881246CD75825812466B806E7582881246CD75822012466B8060BF99
:20397F00085D9002197402F090021A23F0124442900220E024309000C3F0900221E024304B
:20399F009000C4F0900222E024309000C5F0900223E024309000C6F01244DA90021FE4F0B3
:2039BF0090021EF090021DF090021CF0900223F0900222F0900221F0900220F012472C10E8
:2039DF002703023AAF90021AE0FF2484FE7D007519048D1A8F828D83C006124B86AD82D003
:2039FF0006ED75F003A42EF5821246CD90021AE0FFBF04005044EF241CFDE43402FE8D82AA
:203A1F008E83E0FC7B008C828B83A375190A8B1AC006C005124B50AB82D005D0068D828E76
:203A3F0083EBF090021AE0241CF582E43402F583E02430F58212466B80561F1F1F1FEF3352
:203A5F0095E0FEEF2420FFEE3402FE8F828E83E0FD7C008D828C83A375190A8C1AC007C07F
:203A7F0006124B50AC82D006D0078F828E83ECF090021AE0FF1F1F1F1FEF3395E0FEEF24EC
:203A9F0020F582EE3402F583E02430F58212466B102302802F9002197402F090021A23F0B2
:203ABF0090021FE4F090021EF090021DF090021CF0900223F0900222F0900221F0900220E7
:203ADF00F012472C90021AE0FF2404FE7D007519048D1A8F828D83C006124B86AD82D0061C
:203AFF00ED75F003A42EF553758280124640103003023BCC7557BA75585175598085305ADC
:203B1F00852F5B852E5CA21D923A7582C712483C85345D85335E85325F7582C01249ED0246
:203B3F003BCC102702802B90021AE0FF7401C39FF07582871246CD90021AE060067EA57FF2
:203B5F005280047EA87F527D808E828F838DF0124751101F02801A12444290021AE09000B4
:203B7F00C8F01244DA9002197402F090021A7405F0102302800C90021A7405F09002197423
:203B9F0002F07557BA75585175598085305A852F5B852E5CA21D923A7582C712483C85345D
:203BBF005D85335E85325F7582C01249ED2015030242CE7F009001F3E0035480FE9001F4D7
:203BDF00E0030354C02EFE9001F5E0C42354E02EFE9001F6E0C454F02EF54A9001F7E0C4EB
:203BFF000354F8FE9001F8E025E025E02EFE9001F9E025E02EFE9001FAE02EAD4A2DF54A23
:203C1F009001FBE0035480FE9001FCE0030354C02EFE9001FDE0C42354E02EFE9001FEE06D
:203C3F00C454F02EF54B9001FFE0C40354F8FE900200E025E025E02EFE900201E025E02E20
:203C5F00FE900202E02EAD4B2DF54B30193A900203E0C40354F8FE900204E025E025E02E89
:203C7F00FE900205E025E02EFE900206E0FD2EF54C900208E0FE8E4E900209E0FE8E4F9061
:203C9F00020AE0FE8E508018754C00900209E0FE8E4E900205E0FE8E4F900203E0FE8E50EC
:203CBF00900207E0FE8E4D758250C007124574A219E4332430F58212457475822D12457463
:203CDF00854A82124589854B82124589854C8212458975822D124574AE4D74302EF58212EA
:203CFF004574AE4E74302EF582124574AE4F74302EF582124574AE5074302EF582124574B9
:203D1F0075822D1245749001F2E0FE7D0075190A8D1A8E828D83124B86AD8274302DF582FE
:203D3F001245749001F2E0FE7D0075190A8D1A8E828D83124B50AD8274302DF5821245746D
:203D5F0075822D124574D0077E00EF6003023EF290F32CE493FD7C0074022DFDE43CFC8E93
:203D7F00027B00C3EA9DEB64808CF063F08095F04003023EF2BE02004003023E348A198BA0
:203D9F001A900003C007C006124AA1AC82AD83D006D0078C0274F22DFB8A828B83E49370A5
:203DBF002574012CFAE43D24F2FB8A828B83E493701474022CFCE43D24F2FD8C828D83E409
:203DDF00937003023EEE8E19751A00900003C007C006124AA1AC82AD83D006D0078C8274B0
:203DFF00F22DF583E493FBBBFF2B74012CFAE43DFB8A8274F22BF583E493FBBBFF17740231
:203E1F002CFCE43DFD8C8274F22DF583E493FDBDFF03023EEEAD4A8E037C008B198C1A90E5
:203E3F000003C006C005C004C003124AA1858251858352D003D004D005D00685518274F28F
:203E5F002552F583E493FAEDB5022E74012551FAE43552FD8A8274F22DF583E493FDB54B39
:203E7F001874022551FAE43552FD8A8274F22DF583E493FDB54C028004C2398002D239A281
:203E9F0039E433FF6049BE020050068E0574022DFF75190A751A008B828C83C007C006C030
:203EBF0004C003124B86AA8274302AF582124574D003D00475190A751A008B828C83124BB6
:203EDF0050AC8274302CF582124574D006D0070E023D6975822DC007124574D0078F06743A
:203EFF00302EF582C00712457475822D124574D007900219E0FEBE02028003024060EF60B7
:203F1F000302405B20131B12448E9000C3E54AF09000C4E54BF09000C5E54CF012451802E3
:203F3F00405B90021AE0FDE0600302402B90F32CE493249E50129053A875F080124751909A
:203F5F0007D012461302405B12448E9001EFE0FC8C19751A00900003124AA1E5828583F000
:203F7F002406FBE435F0FCEB24C3F582EC3400F583E54AF09001EFE0FC8C19751A009000D8
:203F9F0003124AA1E5828583F02407FBE435F0FCEB24C3F582EC3400F583E54BF09001EFF7
:203FBF00E0FC8C19751A00900003124AA1E5828583F02408FBE435F0FCEB24C3F582EC344E
:203FDF0000F583E54CF09001EFE0FC0C9001EFECF01245187582801247327582801246CD58
:203FFF009053B975F0801247519005DC124613758280124732120777504290F004E493601C
:20401F003B9053CA75F080120B3F8030BD012D12448E9000C6E54AF09000C7E54BF090005D
:20403F00C8E54CF0124518120777501090F004E49360099053D975F080120B3FC21602429C
:20405F00CABE06028003024158900019E060030242CA90F32CE49370030242CA90001BE067
:20407F00FE90F32CE493FDC3EE9D40030242CAAD4A8E047E0074022CF519E43EF51A9000E9
:20409F0003C006C005C004124AA1AA82AB83D004D005D0068A8274F22BF583E493FBEDB5B0
:2040BF000368AD4B74022CF519E43EF51A900003C006C005C004124AA1E5828583F0D0048B
:2040DF00D005D0062401FAE435F0FB8A8274F22BF583E493FBEDB50331AD4C74022CF519ED
:2040FF00E43EF51A900003C005124AA1E5828583F0D0052402FCE435F0FE8C8274F22EF527
:20411F0083E493FEEDB506028004C2388002D2387582C01246CD3038067DF37E5380047D48
:20413F00047E547C808D828E838CF01247519003E8124613D2300242CAEF70030242CAE4FE
:20415F00BF020104FF60511023028031758200C0071205D790020012442A75180090032CDA
:20417F0012440F1244429000C67430F09000C5F09000C4F09000C3F01244DAD0071007024D
:20419F008016C007120777D007500D90541575F080C007120B3FD00730181BE54F6003020B
:2041BF004271C218C00712448E9001F0E4F0124518D007024271E54D7015D218C00712449A
:2041DF008E9001F07401F0124518D007024271300703024271E54FB401009239E43324FF74
:2041FF0092A210360280089000C2E0FE243CF090F005E493602FE54E700330A204C239809A
:20421F0002D239A239E43324FF92A1E550700620A10330A204C2398002D239A239E4332447
:20423F00FF92A3802DE54E700330A204C2398002D239A239E43324FF92A3E550700620A3C2
:20425F000330A204C2398002D239A239E43324FF92A1E54D700D90020FE02401F0900210AF
:20427F00740AF030074590020FE0FE24E24007EF6039E54E70351244429000C9E4F01244EE
:20429F00DAC207C2A290F005E493600CD2A1900064124613C2A1800AD2A3900064124613FD
:2042BF00C2A3900210E4F090020FF0C214C2151001030243D51008030243D2900219E0FFDC
:2042DF00BF02028008BF030280030243897544C275454B75468075420F754301904EA07532
:2042FF00F08012082390000BE4F030092430131290021AE060067D757E00800A7D6D7E007D
:20431F0080047D4D7E008D3990000275F0001204F37E00EE240DFCE43400FDEE2401F582B4
:20433F00E43400F583E08C828D83F00EBE0B0040E29000197402F030130B9051F875F080CC
:20435F00120B3F800990520875F080120B3F301315120777501090F004E49360099054336B
:20437F0075F080120B3FD2138049200946EF704330070B90544475F080120B3F8035D215D7
:20439F0090F005E4936010D2A1900064124613C2A1A2A19215800ED2A3900064124613C24F
:1C43BF00A3A2A3921590000BE4F090545375F080120B3F75DB4943C110022D5D33
:204BC2002043432D312E31312020202020202020004D612050696E204D61632044696E6876
:204BE200203A20303030300A436163206C656E6820636875207669657420484F4120686188
:204C020079207468756F6E67206465752064756F630A312E4C656E6820626174207468698F
:204C220065742062690A707070702C626174202D2076692064753A20303030302C626174BF
:204C42000A322E4C656E68207461742074686965742062690A707070702C746174202D2023
:204C620076692064753A20303030302C7461740A332E4C656E68206B69656D20747261208C
:204C82007472616E6720746861692074686965742062690A707070702C6B74202D207669E6
:204CA2002064753A20303030302C6B740A342E4C656E68207468617920646F69206D6120A1
:204CC20070696E3A20707070702C70696E2C787878780A7669206475203A20303030302CAA
:204CE20070696E2C31323334200A5468617920646F69206D612070696E207475203030304B
:204D020030202D3E20313233340A352E4C656E682072657365742073696D2D67736D0A705E
:204D22007070702C72732D2076692064753A20303030302C72730A362E4C656E68206C69D6
:204D42006574206B652064616E682062610A707070702C64622D2076692064753A2030304F
:204D620030302C64620A372E4C656E6820786F612064616E682062613A20707070702C7825
:204D82006F612C7878780A76643A20303030302C786F612C31352020786F6120736F20649B
:204DA20069656E2074686F6169207468752031350A76643A20303030302C786F612C30209B
:204DC2002020786F6120746F616E20626F2064616E682062610A382E4C656E68206C75757B
:204DE2002064616E682062613A20707070702C6C75752C787878787878787878780A7664B7
:204E02003A20303030302C6C75752C303931323334353637380A6C757520736F2064696507
:204E22006E2074686F616920303931323334353637382076616F2064616E6820626100207C
:204E4200204343412020001A00544B3C31303030204B2042414F43414F0041542B434D47AC
:204E6200533D2200220D0020202053454E44494E4720202000415444003B0D0020202020E6
:204E820043414C4C494E4720202020200044414E47204755492042414F2043414F004154DD
:204EA2000D00204B484F413D004F4E004F464600204755492048554F4E472044414E202012
:204EC2000041542B4353504E3F0D002054454E204D414E47200041542B43545A553D310DA5
:204EE2000020424154204C41592047494F200041542B434F50533D320D002020204E4741ED
:204F020054204D414E47202020200041542B434F50533D300D002020202054494D204D41F1
:204F22004E47202020200041542B43434C4B3F0D00204C41592047494F20475053200041C1
:204F4200542B434C49503D310D00202053454E44494E4720434C495020200041542B434D0D
:204F620047463D310D00202053454E44494E4720434D474620200041542B434E4D493D310D
:204F82002C312C302C302C310D00202053454E44494E4720434E4D4920200041542B434D71
:204FA20047443D312C340D0020205448494554204C415020544E20200041542B4353510D18
:204FC2000020534F4E47200041542B434855500D000D44756E67206375612063756F6E0092
:204FE20020205441542042414F2043414F2020000D4B686F612062616E207068696D000DA5
:205002004D6F2062616E207068696D000D4B686F61206375612063756F6E000D4B686F695D
:205022002074616F206C6169207468696574206269000D72657365742067736D207361758B
:2050420020313073000D446F69206D612070696E207468616E6820636F6E67000D4C656EB6
:2050620068206B686F6E6720686F70206C65000D4B686F6E672074686520786F6120736F68
:20508200204D61737465722071756120534D53000D586F612064616E6820626120746861D8
:2050A2006E6820636F6E67000D4375612063756F6E2064616E67206B686F61000D58756F90
:2050C2006E67206375612063756F6E000D4C656E68204B686F6E6720486F70204C65000DFB
:2050E2007468656D2064616E68206261207468616E6820636F6E67000D42616E6720736FE1
:2051020020646120646179000D536F206474206B686F6E6720686F70204C65000D4D6F202B
:205122006375612063756F6E000D42617420555053000D54617420555053000D42616F2096
:2051420063616F207468616E6820636F6E67000D4261742062616F2063616F000D54617421
:205162002062616F2063616F000D47696F206B686F6E6720686F70206C65000D4461206398
:2051820068696E682067696F000D42444B204B686F6920446F6E670041542B434D474C3DB6
:2051A20022414C4C220D00202044454C4554494E4720534D532020000050494E3A000D5363
:2051C20061692070696E2035206C616E004C555520534F3F204D3A4F4B20423A580044413B
:2051E200204C555520534F3A20202020202000202020202020000D4C7575207468616E68A5
:2052020020636F6E67000D4C7575204D6173746572004348494E483A202020202020202052
:205222002020004D41535445523A20202020202020202020005048553A20202020202020DF
:2052420020202020200020202020584F4120534F20202020202000202020584F41205245C3
:205262004D4F54452020200020202020444F49202050494E2020202000202048554F4E47D3
:2052820020204D4F544F52202000202020202020455849542020202020200048554F4E47C0
:2052A2003A20005048005452004149000D43414E482042414F3A207468696574206269202E
:2052C2007675612052455345542028786F6120736F2B72656D6F7465292062616E67206E25
:2052E20075742062616D00584F4120534F204E41593F204D3A4F4B00444120584F41205341
:205302004F2020202020202000202020202020202000284B484F4E4720434F20534F292000
:205322002020004D3A74686F617420202020202020202000534F2023002020423A74696581
:2053420070202B3A786F6100584F412052454D4F5445204E41593F2000444120584F412026
:2053620052454D4F5445202020004D3A4F4B20423A48757920202020202000284B484F4EF4
:205382004720434F2052454D4F5445290052454D4F54452000423A74696570202B3A786F77
:2053A2006120202020002048455420424F204E484F20484F43200020444120484F43205228
:2053C200454D4F54452120000D72656D6F746520646320686F63000D6D6F64756C65206221
:2053E200616F20646F6E672064756F6320686F63004F4B202D2044554E472052454D4F5412
:20540200450058202D204B4841432052454D4F544520000D72656D6F7465206B68616E20E2
:205422006361702064756F632073752064756E67000D4454206D6F692064756F63206C75BF
:1D54420075000D4375612064616E67206B686F61000D4D6F20637561206C656E00B4
:025470001428FE
:2043DB0075C70075C50075C60075C38075C40043C11022AE82AF8375C78375C5018EC48FAD
:2043FB00C375C65A75C6A500AFC2C0071243DBD0078F8222AE82AF8375C78375C5028EC449
:20441B008FC38518C275C65A75C6A5000243DBAE82AF8375C78375C5038EC48FC375C65AA4
:20443B0075C6A5000243DB43C1107ED17F00EE4F60141EBEFF011FEE24C3F582EF3400F56F
:20445B008374FFF080E8C3EE94D1EF9400501EEE24C3FCEF3400FD8E8274F02FF5830EBE14
:20447B0000010FE493FB8C828D83F080D990000002442A43C1107ED17F00EE4F60141EBEC9
:20449B00FF011FEE24C3F582EF3400F58374FFF080E8C3EE942EEF9401501EEE24C3FCEF0B
:2044BB003400FD8E8274F22FF5830EBE00010FE493FB8C828D83F080D990020002442A7E5E
:2044DB00007F00C3EE94D1EF9400503075C78375C5028EC48FC3EE24C3F582EF3400F583A3
:2044FB000EBE00010FE0F5C275C65A75C6A500C007C0061243DBD006D00780C7227E007FE9
:20451B0000C3EE942EEF9401503675C78375C5028EC48E0474022FFD8DC3EE24C3F582EFF7
:20453B003400F5830EBE00010FE0F5C275C65A75C6A500C007C0061243DBD006D00780C121
:01455B00223D
:20455C00759850438E40538EFE758BB2758DFFC2ABD28ED2ACD2A022E582FF700122C2990C
:20457C008F9920990543C11080F8C29922E582FFC4540FFE53070FBE0A0050067C307D00F5
:20459C0080047C577D00EC2EF582C007124574D007BF0A0050067D307E0080047D577E0011
:2045BC00ED2FF582024574AD82AE83AFF0C2998D828E838FF0124B34FC60218C99209905A7
:1D45DC0043C11080F8C2998D828E838FF0124B34FCBC1A01220DBD00D60E80D32293
:2045F900AE82AF837C007D00C3EC9EED9F500A43C1100CBC00F20D80EF22AE82AF837C00CA
:204619007D00C3EC9EED9F501D9003E8C007C006C005C0041245F9D004D005D006D0070C7B
:20463900BC00DF0D80DC22AF82E5534FF5821246CD75820D0246CDAF82302A118F821246C9
:20465900CD8554828555838556F00247518F82024732E582FF700122D285EFC4540124FF50
:204679009283EFA2E5E43324FF9282EF2323540124FF9281EF235401FE24FF9280D2840098
:20469900C28400EF540124FF9283EF03540124FF9282EF03035401FE24FF9281EFA2E3E4EB
:2046B90033FF24FF9280D28400C2849000641245F9C28522E582FF700122C285EFC45401E9
:2046D90024FF9283EFA2E5E43324FF9282EF2323540124FF9281EF235401FE24FF9280D299
:2046F9008400C28400EF540124FF9283EF03540124FF9282EF03035401FE24FF9281EFA2CE
:20471900E3E433FF24FF9280D28400C2849000640245F975820C0246CDE582FF600E8F8285
:204739001246CD90545F75F0800247517582011246CD9006400245F9AD82AE83AFF07C00CB
:204759008D828E838FF0124B34FB6055BC10005050BB80005025EB24E050200CEC601C0D64
:20477900BD00010E8B82C007C006C005C00412466BD004D005D006D00780C58D828E838F24
:20479900F0124B34FBA3AD82AE838B82C007C006C005C0041246CDD004D005D006D0078063
:2047B9009F22C286903A981245F975801C00C284900FA01245F9D28400C2849000A012451C
:2047D900F9D28400C2849000A01245F975801400C2849003E81245F9D28400C28400758000
:2047F9001100C2849000281245F975801000C2840075801300C2849000281245F97580109B
:2048190000C2840075801600C2849000281245F975801000C2840075801800C2849003E8C7
:204839000245F9AF82E55A24E8500122E55C240540030248F88F821246CD8557828558834D
:204859008559F012475174F6255A40067D207E00801DAB5A7C0075190A8C1A8B828C8312F3
:204879004B86AB82AC8374302BFBFD3395E0FE8D8212466BAD5A7E0075190A8E1A8D828E51
:2048990083124B50AD8274302DF58212466BE55C24035012303A067D3A7E0080047D207E87
:2048B900008D8212466BAD5B7E0075190A8E1A8D828E83C006C005124B86AB8274302BF5C8
:2048D9008212466BD005D00675190A751A008D828E83124B50AD8274302DF58202466B8F22
:2048F900821246CD8557828558838559F012475174F6255A40067E207F00801DAC5A7D0056
:2049190075190A8D1A8C828D83124B86AC82AD8374302CFCFE3395E0FF8E8212466BAE5A94
:204939007F0075190A8F1A8E828F83124B50AE8274302EF58212466B303A067E3A7F00806C
:20495900047E207F008E8212466BAE5B7F0075190A8F1A8E828F83C007C006124B86AC82C1
:2049790074302CF58212466BD006D00775190A751A008E828F83124B50AE8274302EF582F8
:2049990012466B303A067E3A7F0080047E207F008E8212466BAE5C7F0075190A8F1A8E8246
:2049B9008F83C007C006124B86AC8274302CF58212466BD006D00775190A751A008E828FB1
:2049D90083124B50AE8274302EF58212466B75822002466B1246CDAE5F7F0075190A8F1A96
:2049F9008E828F83C007C006124B86AC8274302CF58212466BD006D00775190A751A008E72
:204A1900828F83124B50AE8274302EF58212466BAE5E7F0075190A8F1A8E828F83C007C08B
:204A390006124B86AC8274302CF58212466BD006D00775190A751A008E828F83124B50AEEB
:204A59008274302EF58212466BAE5D7F0075190A8F1A8E828F83C007C006124B86AC8274B0
:204A7900302CF58212466BD006D00775190A751A008E828F83124B50AE8274302EF5821259
:084A9900466B75822002466B9A
:11545F0020202020202020202020202020202020003C
:06007000E478FFF6D8FD64
:20004E007902E94400601B7A01905470783B75A002E493F2A308B8000205A0D9F4DAF27555
:02006E00A0FFF1
:1D4AA100E5828519F0A4C582C0F0851AF0A4D0F025F0C5838519F0A42583F58322A4
:204ABE00E519451A60467A01E51925E0F519E51A334012F51AE5829519E583951A40030A3D
:204ADE0080E6C3E51A13F51AE51913F519C3E5829519F5F0E583951A4005F58385F082C304
:0D4AFE00E51A13F51AE51913F519DAE1228E
:200076007800E84400600A790175A000E4F309D8FC783AE84402600C7903900001E4F0A349
:04009600D8FCD9FABF
:204B0B007A10E4FBFCE58225E0F582E58333F583EB33FBEC33FCEB9519F5F0EC951A40069C
:094B2B00FCABF0438201DADD224B
:0D00410075815F124BBEE582600302003E38
:1C4B340020F71430F6148883A88220F507E6A88375830022E280F7E49322E02290
:204B5000C2D5E58330E70DD2D5E4C39582F582E49583F583E51A30E70BE4C39519F519E46A
:164B7000951AF51A124ABE30D50BE4C39582F582E49583F583227C
:204B8600C2D5E58330E70DD2D5E4C39582F582E49583F583E51A30E70DB2D5E4C39519F5A8
:184BA60019E4951AF51A124B0B30D50BE4C39582F582E49583F58322F9
:044BBE0075820022DA
:00000001FF
