:040000000200413287
:01000B0032C2
:0100130032BA
:01001B0032B2
:03002300020F1DAC
:01002B0032A2
:01003300329A
:03003B000201C5FA
:05009A00C23102003E2E
:03003E00022BDFB3
:20009F0075FA0075EA0090021674A8F07461A3F090021874FAF0E4A3F075DA4975DB49D2D5
:2000BF00DE2243C110B21EA21E92879000C7E014F0E070199000C7E4F090F32D9324FF929D
:2000DF001990F006E493FF24FF920892A2900215E0FFE06012EF14900215F0E0700990029E
:2000FF0015E4F0900214F090021BE0FFE06009302206EF1490021BF090021CE0FFE06009BF
:20011F00302606EF1490021CF090021DE0FFE06009302A06EF1490021DF090021DE07002E9
:20013F00D22C90022CE0FFE06006EF1490022CF090022EE0FFE06006EF1490022EF09002E4
:20015F001EE0600E900220E0FFE06006EF14900220F020A0139000C2E014F0E0700AD2A0C3
:20017F009000C2740AF0D207052EE52E24C45035D21C752E00E52A6006D52B03752A000567
:20019F002FE52F24C4501E752F00D21D0530E53024E8501175300090021AE0FFE06006EFF8
:2001BF001490021AF022C028C0E0C0F0C082C083C007C006C005C004C003C002C001C00075
:2001DF00C0D075D00843C11010D8030202F9900216E0FEA3E0FF8EEA8FFA90021674A82E2C
:2001FF00F074613FA3F0301F0930B50690021B7402F0301F0330B504C2328002D232A2326A
:20021F00922220210330B504C2328002D232A232921F20200A202203201F04C2328002D2C5
:20023F0032A2329220A2B5922130230930B30690021C7406F030230330B304C2328002D2FB
:20025F0032A232922620250330B304C2328002D232A232922320240A202603202304C232BD
:20027F008002D232A2329224A2B3922530270930B40690021D7402F030270330B404C232AE
:20029F008002D232A232922A20290330B404C2328002D232A232922720280A202A03202708
:2002BF0004C2328002D232A2329228A2B49229900240E014F0E0700AD231900240740AF0AF
:2002DF00B22B900241E014F0E0700F9002417428F075D0001200C175D00810D90302040551
:2002FF00900218E0FEA3E0FF8EEB8FFB90021874FA2EF0E43FA3F03016030204059001F60B
:20031F00E0FF04F0EF700ED217C2A1A2A192A3A20892A2C21630B639900212E07024301588
:20033F0021900213E0FF24FD5018BF070050139001F7E0FF04F0EF24F8F582E43401F583D9
:20035F00E4F0900212E02401F0900213E4F00203E6900213E07064301546900212E0FF2422
:20037F00FD503DBF07005038201A1F9001F7E0FF30E0171FEF3395E0FEEF24F8FFEE3401BE
:20039F00FE8F828E83E07002D21A9001F7E0FF04F0EF24F8F582E43401F5837401F0801B72
:2003BF00900212E0FF24E350129001F67401F0301709D2159001F7E4F0C21A900213E0242E
:2003DF0001F0900212E4F030150C9001F7E0FFBF1804D21680109001F7E0FF24E750079031
:2003FF0001F7E4F0C215D0D0D000D001D002D003D004D005D006D007D083D082D0F0D0E0EA
:20041F00D0283285823585833685F0377C007B0090F008E493FAC3EB9A40030204EF753850
:20043F000179008B19751A0090000AC004C003C001124B12A882AA83D001D003D004890641
:20045F007F00EE28F8EF3AFAE82409F582EA34F0F583E493FFE92535FAE43536FDAE378A4D
:20047F00828D838EF0124BA5FAEFB502028005753800800609B9090040A9E538604C8B19D0
:20049F00751A0090000AC004C003124B12AE82AF83D003D00474092EFAE43FFDEA2409FA3F
:2004BF00ED34F0FD8A828D83E493601E74092EFEE43FFFEE2409F582EF34F0F583E493900F
:2004DF00000CF08C07EF04F582220B8B0402042F7582002285823A85833B85F03C90F0083D
:2004FF00E493F53D7B00C3EB953D502E8B19751A0090000AC003124B12E5828583F0D0038A
:20051F002409F9E435F0FAE92409F9EA34F0FA89828A83E49360030B80CCEBFAB53D0474E4
:20053F00018001E4FB600874EC253D5002C322C003C0021244B3D002D00379008A19751AFC
:20055F000090000AC003C002C001124B1285823E85833FD001D002D0037409253EF8E4353A
:20057F003FFF89057E00ED28F8EE3FFFE824C8F8EF3400FFE9253AFCE4353BFDAE3C8C825E
:20059F008D838EF0124BA588828F83F009B9090040AA7412253EFEE4353FFFEE24C8F5825C
:2005BF00EF3400F583E539F0EB6008AC3D0C9000D0ECF012454BD322AF82C0071244B3D087
:2005DF0007EF702AFDFE74092DFBE43EFCEB24C8F582EC3400F583E4F00DBD00010EC3ED6B
:2005FF0094C8EE940040DF9000D0E4F080599000D0E0FEC39F40507D007E008F037C00EBAE
:20061F0024FFF519EC34FFF51A90000AC007C006C005124B12E5828583F0D005D006D00720
:20063F002409FBE435F0FCED2BFBEE3CFCEB24C8F582EC3400F583E4F00DBD00010EC3EDF2
:20065F00940AEE940040B402454BAF82C0071244FFD0078F40AD407E000DBD00010E90010D
:20067F00F4E0FCFA7B00C3ED9AEE64808BF063F08095F040030207227E008E037D00A94044
:20069F007A00740229F519E43AF51A900003C006C005C003C002C001124B12A882AF83D0E8
:2006BF0001D002D003D005D006E82BF8EF3DFFE824C8F8EF3400FF740329F519E43AF51ACB
:2006DF00900003C007C006C005C003C000124B12A982AA83D000D003D005D006D007E92B93
:2006FF00FBEA3DFDEB24C8F582ED3400F583E0FD88828F83F00EBE030050030206990540E4
:20071F00020674EC604F7F008F057E009001F4E0FC7B0074012CF519E43BF51A900003C006
:20073F0007C006C005124B12AB82AC83D005D006D007EB2DFDEC3EFEED24C8F582EE34000C
:20075F00F583E4F00FBF030040BE9001F4E0FF1F9001F4EFF00245897F007E0090F008E43F
:20077F0093FDC3EE9D40030208218E19751A0090000AC007C006124B12E5828583F0D0060D
:20079F00D0072409FCE435F0FDEC2409F582ED34F0F583E493FDBD6D028003BD4D5E900000
:2007BF00017430F0754100AC410CEC3395E0FBEC2401FCEB3400FB8F19751A0090000AC08F
:2007DF0007C004C003124B12A982AA83D003D004D007A8417D00E829F9ED3AFAE92409F58B
:2007FF0082EA34F0F583E4938C828B83F0054174F7254150B290000BE4F0D3220E8E07022D
:20081F00077BC322AD82AE83AFF0AC4390022DECF08542F0ECA4FB90022E740A2BF0C22D3F
:20083F008D828E838FF0C007C006C005C004124634D004D005D006D007AB42302D030208AB
:20085F00F890022EE070030208F8302F030208F843C110C231758280C007C006C005C00474
:20087F00C00312473E8544828545838546F01247C27557B275584E75598085305A852F5B8C
:20089F00852E5CA21E923B7582C01248ADD003D004D005D006D007102C028002C32290027F
:2008BF002CE06003303094C2308B021BEA602A90022CECF090022DECF08D828E838FF0C014
:2008DF0007C006C005C004C003124634D003D004D005D006D00702085A7582801247A390C4
:2008FF00022FE4F0A22D22900021E06020900024E0701A7544BC75454E75468075420375CD
:20091F004301904EBA75F080120823C32290000BE4F0904ECD75F08012463490000175F054
:20093F000012463490022F7409F07544DA75454E75468075420575433D904ED775F08002BB
:20095F000823AD82AE83AFF0904EE875F080C007C006C005124634D005D006D0078D828EA6
:20097F00838FF01246347544EF75454E75468075420175433C904EEC75F080020823AF8226
:20099F00BF0A00500A8F0674302EF5820245E5BF640050398F057E0075190A8E1A8D828E70
:2009BF0083C006C005124BF7AB8274302BF5821245E5D005D00675190A751A008D828E8315
:2009DF00124BC1AD8274302DF5820245E57E007519648E1A8F828E83C007C006124BF7AC70
:2009FF008274302CF5821245E5D006D00775190A751A008F828E83C007C006124BF775196E
:200A1F000A751A00124BC1AC8274302CF5821245E5D006D00775190A751A008F828E831247
:200A3F004BC1AE8274302EF5820245E5900021E4F01209064001227F0090F008E493FEC39E
:200A5F00EF9E4003020B278F19751A0090000AC007124B12E5828583F0D0072409FDE435F3
:200A7F00F0FEED2409FDEE34F0FE8D828E83E4937003020B238F06EE04F582C00712099D8B
:200A9F0075822E1245E57582301245E5D0077E008F19751A0090000AC007C006124B12ACA5
:200ABF0082AD83D0068E027B00EA2CFAEB3DFBEA2409F582EB34F0F583E493F582C006C0C8
:200ADF0005C0041245E5D004D005D006D0070EBE090040BC75822CC007C005C0041245E51C
:200AFF00D004D00574092CFCE43DFDEC2409F582ED34F0F583E493F5821245E575820D1212
:200B1F0045E5D0070F020A5875440075454F754680754232754301904EBA75F080020823F9
:200B3F00AD82AE83AFF075443375454C75468075420F754301904F1175F080C007C006C0C9
:200B5F0005120823900021E4F0120906D005D006D007400122904F1575F080C007C006C083
:200B7F0005124634D005D006D00790F006E49360067B1C7C4F80047B1F7C4F7A808B828C02
:200B9F00838AF0C007C006C005124634D005D006D0078D828E838FF0C007C006C005124690
:200BBF0034D005D006D0070DBD00010E8D828E838FF0124BA5FDBD2A09904EBA75F080027A
:200BDF00463475440075454F754680754278754301904EBA75F080020823AF82752C00BF5C
:200BFF00A100500FEF2421F582E43400F5830FE4F080EC22900021E4F01209064001229091
:200C1F004C4475F08012463475442375454F754680754232754301904EBA75F08002082348
:200C3F0075443375454C75468075420F754301904F1175F0801208235034758200120BF946
:200C5F00752C0090022F740AF075443E75454F75468075420F754301904F3475F0801208D9
:200C7F00235009900025E0FF90022AF0D322C32275445475454F7546807542197543029054
:200C9F004F4975F08012082340012275446D75454F75468075420F754301904F6275F08009
:200CBF0012082340012290022F740CF075448975454F75468075420A75433C904F7E75F047
:200CDF00801208234001229003E8124684758200120BF9752C0090022F7402F07544A475D7
:200CFF00454F75468075420F754301904F9A75F080120823400122900024E024D075F00A92
:200D1F00A4FF900025E02F24D0F534900027E024D075F00AA4FF900028E02F24D0F5339020
:200D3F00002AE024D075F00AA4FF90002BE02F24D0F53290002DE024D075F00AA4FF90006C
:200D5F002EE02F24D0F530900030E024D075F00AA4FF900031E02F24D0F52F900033E024C9
:200D7F00D075F00AA4FF900034E02F24D0F52E853319751A00900017124B12751909751AEC
:200D9F0000124BF7AE82AF83AC327D00EC2EFEED3FFFE53324FD5013740355347D004DB4C6
:200DBF0001009233E433FC7D0080047C027D00EC2EFEED3FFFAC347D00EC2EFEED3FFF8CD0
:200DDF00828D83A3A3A37519048D1AC007C006124BF7AC82AD83D006D007EC2EFEED3FFF11
:200DFF008E828F83A3751907751A00124B2FE58204F531C3E53494189233402AE534249C3E
:200E1F0092334022C3E533940192334019E53324F392334011C3E532940192334008E53226
:200E3F0024E092335004C2338002D233A2339203227544BD75454F75468075420F75430135
:200E5F00904FB275F0800208237544D975454F75468075420F754301904FCE75F0801208CF
:200E7F00234003020F1B7544FD75454F75468075420F754301904FEA75F08012082340031A
:200E9F00020F1B75441B75455075468075420F75430190500E75F080120823505F90022FEF
:200EBF00740EF0758200120BF9752C0075443475455075468075420F75430190502C75F0D1
:200EDF0080120823503490022BE4F07F00EF2421F582E43400F583E0FEBE2C02801CEF24EE
:200EFF0021F582E43400F5830FE024D0FE90022BE0FD75F00AA42EF080D3D322C322C028EA
:200F1F00C0E0C0F0C082C083C007C006C005C004C003C002C001C000C0D075D01020980321
:200F3F0002213A43C11090022DE090022CF0900230E02431F582E43402F583E599F09002D4
:200F5F0030E0FF2431F582E43402F583E0FEBE4E0280030210A38F147D00740C2CF582E4BA
:200F7F003DF58375190D8D1AC017C016C015C01475D000124BC175D010AA82AB83D014D03F
:200F9F0015D016D017EA2431F582EB3402F583E0FBBB490280030210A3740B2CF582E43DA5
:200FBF00F58375190D751A00C017C016C015C01475D000124BC175D010AA82AB83D014D054
:200FDF0015D016D017EA2431F582EB3402F583E0FBBB200280030210A3740A2CF582E43D8F
:200FFF00F58375190D751A00C017C016C015C01475D000124BC175D010AA82AB83D014D014
:20101F0015D016D017EA2431F582EB3402F583E0FBBB547074092CF582E43DF58375190DD2
:20103F00751A00C017C016C015C01475D000124BC175D010AA82AB83D014D015D016D01704
:20105F00EA2431F582EB3402F583E0FBBB4F3574082CF582E43DF58375190D751A00C0174F
:20107F00C01675D000124BC175D010AC82AD83D016D017EC2431F582ED3402F583E0FDBDAB
:20109F004E02D22F90022FE0FD24F05003022126ED240A83F582ED241483F583E47395264B
:2010BF00CE3A26122626FF752BBF3B26DDB81321121C211E21211F1F121211211020AC2CB2
:2010DF00052CEC2421F582E43400F583E599F07420B59934900230E0FC7B00740C2CF582C8
:2010FF00E43BF58375190D8B1A75D000124BC175D010AB82AC83EB2431F582EC3402F58395
:20111F00E0FCBC3A03752C00742CB59902800302212690022FE4F0F52C0221267456B59967
:20113F006E8F137C00740C2BF582E43CF58375190D8C1AC017C014C01375D000124BC175B3
:20115F00D010A982AA83D013D014D017E92431F582EA3402F583E0FABA4534740B2BF5820F
:20117F00E43CF58375190D751A00C01775D000124BC175D010AB82AC83D017EB2431F58205
:20119F00EC3402F583E0FCBC4705D22D0221267452B5990280030221268F137C00740C2BBF
:2011BF00F582E43CF58375190D8C1AC014C01375D000124BC175D010A982AA83D013D01442
:2011DF00E92431F582EA3402F583E0FABA4F028003022126740B2BF582E43CF58375190D9E
:2011FF00751A0075D000124BC175D010AB82AC83EB2431F582EC3402F583E0FCBC52028070
:20121F000302212690022CE4F0022126AC2C052CEC2421F582E43400F583E599F07422B58E
:20123F009934900230E0FC7B00740C2CF582E43BF58375190D8B1A75D000124BC175D010F7
:20125F00AB82AC83EB2431F582EC3402F583E0FCBC2003752C00742CB599028003022126AA
:20127F00900230E0FC7B00740C2CF582E43BF58375190D8B1A75D000124BC175D010AB8257
:20129F00AC83EB2431F582EC3402F583E0FCBC2202800302212690022FE4F0F52C02212628
:2012BF007431B599028003022126D22D022126AC2C052CEC2421F582E43400F583E599F057
:2012DF00744BB59967900230E0FB7C00740C2BF582E43CF58375190D8C1AC014C01375D07B
:2012FF0000124BC175D010A982AA83D013D014E92431F582EA3402F583E0FABA4C2E740B63
:20131F002BF582E43CF58375190D751A0075D000124BC175D010AB82AC83EB2431F582EC93
:20133F003402F583E0FCBC4303752C00740DB599028003022126900230E0FC7B00740C2CFF
:20135F00F582E43BF58375190D8B1A75D000124BC175D010AB82AC83EB2431F582EC340233
:20137F00F583E0FCBC2202800302212690022FE4F0F52C022126743EB59912904EBA75F040
:20139F008075D00012463475D010022126BE470280030214868F137C00740C2BF582E43CB9
:2013BF00F58375190D8C1AC017C016C015C014C01375D000124BC175D010A982AA83D01339
:2013DF00D014D015D016D017E92431F582EA3402F583E0FABA4E028003021486740B2BF569
:2013FF0082E43CF58375190D751A00C017C016C015C014C01375D000124BC175D010A9827E
:20141F00AA83D013D014D015D016D017E92431F582EA3402F583E0FABA494C740A2BF58271
:20143F00E43CF58375190D751A00C017C016C01575D000124BC175D010AB82AC83D015D080
:20145F0016D017EB2431F582EC3402F583E0FCBC521575DB0090503B75F08075D000124633
:20147F003475D010022126E4BE3A0104FC70030216518F127B00740C2AF582E43BF5837579
:20149F00190D8B1AC017C016C015C014C013C01275D000124BC175D010A882A983D012D0A7
:2014BF0013D014D015D016D017E82431F582E93402F583E0F9B952028048740C2AF582E466
:2014DF003BF58375190D751A00C017C016C015C014C013C01275D000124BC175D010A88233
:2014FF00A983D012D013D014D015D016D017E82431F582E93402F583E0F9B946028003029C
:20151F001651740B2AF582E43BF58375190D751A00C017C016C015C014C013C01275D00024
:20153F00124BC175D010A882A983D012D013D014D015D016D017E82431F582E93402F5831D
:20155F00E0F9B942028003021651740A2AF582E43BF58375190D751A00C017C016C015C088
:20157F0014C013C01275D000124BC175D010A882A983D012D013D014D015D016D017E8241E
:20159F0031F582E93402F583E0F9B95002800302165174092AF582E43BF58375190D751A3E
:2015BF0000C017C016C015C014C013C01275D000124BC175D010A882A983D012D013D0145A
:2015DF00D015D016D017E82431F582E93402F583E0F9B9435D74082AF582E43BF58375197B
:2015FF000D751A00C017C016C015C01475D000124BC175D010AA82AB83D014D015D016D049
:20161F0017EA2431F582EB3402F583E0FBBB2B229000C0E0FB24F650099000C0740BF00203
:20163F002126D20290022F7408F0C213752900022126EC70030217A18F137C00740C2BF5B0
:20165F0082E43CF58375190D8C1AC017C016C015C014C01375D000124BC175D010A982AA5A
:20167F0083D013D014D015D016D017E92431F582EA3402F583E0FABA490280030217A17472
:20169F000B2BF582E43CF58375190D751A00C017C016C015C014C01375D000124BC175D0EB
:2016BF0010A982AA83D013D014D015D016D017E92431F582EA3402F583E0FABA5402800370
:2016DF000217A1740A2BF582E43CF58375190D751A00C017C016C015C014C01375D00012CF
:2016FF004BC175D010A982AA83D013D014D015D016D017E92431F582EA3402F583E0FABAB8
:20171F004D0280030217A174092BF582E43CF58375190D751A00C017C016C015C014C01314
:20173F0075D000124BC175D010A982AA83D013D014D015D016D017E92431F582EA3402F537
:20175F0083E0FABA433C74082BF582E43CF58375190D751A00C017C016C01575D000124BD0
:20177F00C175D010AB82AC83D015D016D017EB2431F582EC3402F583E0FCBC2B05D2110228
:20179F002126E4BE200104FC70030219508F127B00740C2AF582E43BF58375190D8B1AC06E
:2017BF0017C016C015C014C013C01275D000124BC175D010A882A983D012D013D014D01533
:2017DF00D016D017E82431F582E93402F583E0F9B93A028003021950740B2AF582E43BF5E2
:2017FF008375190D751A00C017C016C015C014C013C01275D000124BC175D010A882A98314
:20181F00D012D013D014D015D016D017E82431F582E93402F583E0F9B94C02800302195035
:20183F00740A2AF582E43BF58375190D751A00C017C016C015C014C013C01275D000124B0C
:20185F00C175D010A882A983D012D013D014D015D016D017E82431F582E93402F583E0F97E
:20187F00B94702800302195074092AF582E43BF58375190D751A00C017C016C015C014C064
:20189F0013C01275D000124BC175D010A882A983D012D013D014D015D016D017E82431F5A9
:2018BF0082E93402F583E0F9B94D02800302195074082AF582E43BF58375190D751A00C083
:2018DF0017C016C015C014C013C01275D000124BC175D010A882A983D012D013D014D01512
:2018FF00D016D017E82431F582E93402F583E0F9B9433E74072AF582E43BF58375190D75DB
:20191F001A00C017C016C015C01475D000124BC175D010AA82AB83D014D015D016D017EAA6
:20193F002431F582EB3402F583E0FBBB2B03021AE4EC7003021B318F137C00740C2BF58272
:20195F00E43CF58375190D8C1AC017C016C015C014C01375D000124BC175D010A982AA8356
:20197F00D013D014D015D016D017E92431F582EA3402F583E0FABA3A028003021B31740B62
:20199F002BF582E43CF58375190D751A00C017C016C015C014C01375D000124BC175D010E3
:2019BF00A982AA83D013D014D015D016D017E92431F582EA3402F583E0FABA50028003027F
:2019DF001B31740A2BF582E43CF58375190D751A00C017C016C015C014C01375D000124BEF
:2019FF00C175D010A982AA83D013D014D015D016D017E92431F582EA3402F583E0FABA49B7
:201A1F00028003021B3174092BF582E43CF58375190D751A00C017C016C015C014C0137555
:201A3F00D000124BC175D010A982AA83D013D014D015D016D017E92431F582EA3402F58326
:201A5F00E0FABA4C028003021B3174082BF582E43CF58375190D751A00C017C016C015C092
:201A7F0014C01375D000124BC175D010A982AA83D013D014D015D016D017E92431F582EA38
:201A9F003402F583E0FABA43028003021B3174072BF582E43CF58375190D751A00C017C059
:201ABF0016C01575D000124BC175D010AB82AC83D015D016D017EB2431F582EC3402F58305
:201ADF00E0FCBC2B4D8F137C0074092BF582E43CF58375190D8C1A75D000124BC175D01009
:201AFF00AB82AC83EB2431F582EC3402F583E0FCBC4C03D38001C392094006300F030221D6
:201B1F0026C20DC20AC20BC20C90022F7403F0022126BE4B028003021BC28F137C00740CCE
:201B3F002BF582E43CF58375190D8C1AC017C016C01575D000124BC175D010AB82AC83D0A5
:201B5F0015D016D017EB2431F582EC3402F583E0FCBC4F4FBD0203752C00A22EB3922DC296
:201B7F002E300223AC2C7D001CBCFF011DEC2421FCED3400FD8C828D83E0240AFB8C828D6C
:201B9F0083F0C213752C00E52C7003022126752C0090500E75F08075D00012463475D010D6
:201BBF00022126BE540280030221268F147D00740C2CF582E43DF58375190D8D1AC015C02A
:201BDF001475D000124BC175D010AA82AB83D014D015EA2431F582EB3402F583E0FBBB4FC3
:201BFF00028003022126740B2CF582E43DF58375190D751A0075D000124BC175D010AC822D
:201C1F00AD83EC2431F582ED3402F583E0FDBD4E028003022126D22E022126200D03021DD4
:201C3F001DE52C704D740DB599028003022126300907D201752B02052A20091290021EE04E
:201C5F00FDBD020A90021FE0FDBD02004004C2348002D234A2349210200906300A0B201074
:201C7F000890022FE4F002212690022F7405F0022126740AB52C607422B5995B90000174E9
:201C9F0030F090000BE4F090000275F00075D00012042275D010E582FDB40100920AED60CB
:201CBF000A90000CE0FCBC4D028004C2348002D234A234920CED600F90000CE0FDBD6D0201
:201CDF008009BD4D028004C2348002D234A234920B752C0002212674F6252C400EE52C24B3
:201CFF0001F582E43400F583E599F0E52C24F55008752C00D20A022126052C022126300954
:201D1F003CBE30398F147D00740C2CF582E43DF58375190D8D1AC017C01675D000124BC113
:201D3F0075D010AC82AD83D016D017EC2431F582ED3402F583E0FDBD2203021DF8BE3402E7
:201D5F008003021DFD8F147D00740C2CF582E43DF58375190D8D1AC015C01475D000124B5C
:201D7F00C175D010AA82AB83D014D015EA2431F582EB3402F583E0FBBB3863740B2CF58269
:201D9F00E43DF58375190D751A00C015C01475D000124BC175D010AA82AB83D014D015EAF3
:201DBF002431F582EB3402F583E0FBBB2B30740A2CF582E43DF58375190D751A0075D00085
:201DDF00124BC175D010AC82AD83EC2431F582ED3402F583E0FDBD2205D20D752C01740DFD
:201DFF00B59902800302212690022FE4F075DB49022126300E43743BB599028021740DB5DA
:201E1F009902801A7460252C4014AD2C052CED2421F582E43400F583E599F0022126E52CEA
:201E3F002421F582E43400F583E4F0F52CC20E90022FE4F0D20F022126300C03021F5A30C9
:201E5F001003021F5ABE2C028003021F568F147D00740C2CF582E43DF58375190D8D1AC011
:201E7F0015C01475D000124BC175D010AA82AB83D014D015EA2431F582EB3402F583E0FB55
:201E9F0090F003E493FAEBB512028003021F56740B2CF582E43DF58375190D751A00C015C7
:201EBF00C01475D000124BC175D010AA82AB83D014D015EA2431F582EB3402F583E0FB909A
:201EDF00F002E493FAEBB5126E740A2CF582E43DF58375190D751A00C015C01475D000127C
:201EFF004BC175D010AA82AB83D014D015EA2431F582EB3402F583E0FB90F001E493FAEB38
:201F1F00B5123474092CF582E43DF58375190D751A0075D000124BC175D010AC82AD83ECC2
:201F3F002431F582ED3402F583E0FD90F000E493FCEDB514028004C2348002D234A2349229
:201F5F000E740DB599028003022126752C0190022FE4F0022126743EB5990A90022FE4F098
:201F7F00D22D022126BE520280030221268F157E00740C2DF582E43EF58375190D8E1AC039
:201F9F0016C01575D000124BC175D010AB82AC83D015D016EB2431F582EC3402F583E0FC2B
:201FBF00BC52028003022126740B2DF582E43EF58375190D751A0075D000124BC175D01087
:201FDF00AD82AE83ED2431F582EE3402F583E0FEBE4502800302212690022CE4F0022126A3
:201FFF007422B599028003022089D2137E00740C2FF582E43EF58375190D8E1A75D00012F1
:20201F004BC175D010AE82AF83EE2431F582EF3402F583E0FFBF2C21AE2C7F001EBEFF0167
:20203F001FEE2421FEEF3400FF8E828F83E02411FD8E828F83F0022126AE2C7F001EBEFF4C
:20205F00011FEE2421FEEF3400FF8E828F83E0241BFD8E828F83F09000C0E0FF0F9000C010
:20207F00EFF090022FE4F0022126E59924D0400302212620130FE52975F00AA4FFE599FEA8
:20209F002F24D0F529AF2C052CEF2421F582E43400F583E599F0022126AF2C052CEF2421A2
:2020BF00F582E43400F583E599F07422B59936900230E0FF7E00740C2FF582E43EF583751E
:2020DF00190D8E1A75D000124BC175D010AE82AF83EE2431F582EF3402F583E0FFBF2C05D3
:2020FF00852D2C80227422B5991DAE2C7F001EBEFF011FEE2421F582EF3400F583E4F0F5DE
:20211F002C90022FF0D22D900230E02401F0E0FF24F35005900230E4F0C298D0D0D000D092
:20213F0001D002D003D004D005D006D007D083D082D0F0D0E0D02832C2127F00EF2421FDC1
:20215F00E43400FE0F8D828E83E0600543C11080EBBFA000500FEF2421F582E43400F5835E
:20217F000FE4F080EC900021E0FFBF3F028008900022E0FEBE3F06200A03020C13BF4203F4
:20219F00022813BF43030228ADBF44030223EBBF4703022896BF4B03022284BF4C0302263D
:2021BF000ABF500302236BBF52030222F1BF53028050BF55030227A0BF58030223F7BF6210
:2021DF0003022813BF63030228ADBF64030223EBBF6703022896BF6B03022284BF6C030280
:2021FF00260ABF700302236BBF72030222F1BF7302800FBF75030227A0BF78030223F7026A
:20221F002AB090F006E49330E006200B03022AB990F006E49330E00D1244B39000CEE054EA
:20223F0002F012454BD216D2A2C208900064124684C2A2A2A2921690F004E493600C90505E
:20225F004475F080120B3F022AB9754453754550754680754203754301904EBA75F08012A2
:20227F000823022AB9200B03022AB9900022E0FFBF50028003BF70381244B3900025E0FFF3
:20229F00BF4E028003BF6E129000CEE04402F090506375F080120B3F80109000CEE0540133
:2022BF00F090507275F080120B3F12454B022AB91244B39000CEE04401F012454BD2A2D291
:2022DF000890000BE4F090507F75F080120B3F022AB9200B03022AB9900023E0FF90002589
:2022FF00E0FEEFB50658BF72028003BF5250300C4D90508E75F080120B3F7582001205D7AB
:20231F0090020012449B75180090032C1244801244B39000CB7430F09000CAF09000C9F06E
:20233F009000C8F09000CEE4F09000CDF09000CFF09000CC04F012454BC214022AB99050DB
:20235F00A575F080120B3FC2A0022AB9200B03022AB9900025E0FFBF30004064EF24C640DE
:20237F005F900026E0FFBF30004055EF24C64050900027E0FFBF30004046EF24C640419068
:20239F000028E0FFBF30004037EF24C640321244B3900025E09000C8F0900026E09000C991
:2023BF00F0900027E09000CAF0900028E09000CBF012454B9050B875F080120B3F022AB9EA
:2023DF009050CF75F080120B3F022AB9200B03022AB9120A4B022AB9900022E0FFBF6F02E9
:2023FF008008BF4F02800302258E200B03022AB9900025E0FEBE30005003022582EE24C686
:20241F005003022582900026E0FDBD30004005ED24C65006ED6003022582900027E0FCBC67
:20243F0030004005EC24C65006EC6003022582BE30057B000224E7ED70098E02EA24D0FB9A
:20245F000224E7EC70138E02EA24D075F00AA4FA8D01E92A24D0FB806FC0068D017A00E930
:20247F0024D0F519EA34FFF51A90000AC006C005C004124B12A982AA83D004D005D0068C54
:20249F00007E00E829F9EE3AFAE924D0F9EA34FFFAC374329974808AF063F08095F0D006E8
:2024BF005011EE24FE500C9050CF75F080120B3F022AB9EE24D075F064A4FEED24D075F0C8
:2024DF000AA42EFE2C24D0FBEB700302257190F008E493FEC39B407A8B057E00ED24FFF5CA
:2024FF0019EE34FFF51A90000AC006C005C003124B12E5828583F0D003D005D0062409FA19
:20251F00E435F0FCEA2409F582EC34F0F583E493FCBC4D028030ED24FFF519EE34FFF51A05
:20253F0090000AC003124B12E5828583F0D0032409FDE435F0FEED2409F582EE34F0F58332
:20255F00E493FEBE6D0C9050E275F080120B3F022AB98B821205D790510375F080120B3FA8
:20257F00022AB99050CF75F080120B3F022AB9BF75028003BF556830080C90511B75F08028
:20259F00120B3F022AB9D21690F005E4936010D2A3900064124684C2A3A2A39216800ED290
:2025BF00A1900064124684C2A1A2A1921690000BE4F090F00493600C90512F75F080120B39
:2025DF003F022AB9754453754550754680754203754301904EBA75F080120823022AB990C5
:2025FF00513F75F080120B3F022AB9900022E0FFBF75028008BF55028003022724200B03A3
:20261F00022AB9900025E0FEBE30005003022718EE24C65003022718900026E0FEBE3000B3
:20263F005003022718EE24C65003022718900027E0FEBE30005003022718EE24C650030237
:20265F002718900028E0FEBE30005003022718EE24C65003022718900029E0FEBE300050C3
:20267F0003022718EE24C6500302271890002AE0FEBE30005003022718EE24C6500302271D
:20269F001890002BE0FEBE3000406EEE24C6406990002CE0FEBE3000405FEE24C6405A9024
:2026BF00002DE0FEBE30004050EE24C6404B90002EE0FEBE30004041EE24C6403C90002FF1
:2026DF00E4F0900030E0FEBE6D067D6D7E0080047D757E008D3990002675F0001204F350A2
:2026FF000C90515275F080120B3F022AB990516B75F080120B3F022AB990517B75F0801291
:20271F000B3F022AB9BF65028003BF456830080C90511B75F080120B3F022AB9D21690F088
:20273F0005E4936010D2A1900064124684C2A1A2A19216800ED2A3900064124684C2A3A223
:20275F00A3921690000BE4F090F00493600C90518F75F080120B3F022AB975445375455071
:20277F00754680754203754301904EBA75F080120823022AB990513F75F080120B3F022A60
:20279F00B9200B03022AB9900025E0FFBF42028012BF6202800D900026E0FEBE6E02800330
:2027BF00BE4E1A1244B39000CF740AF012454BD2C290519C75F080120B3F022AB9BF540210
:2027DF00800DBF74028008BE66028003BE46191244B39000CFE4F012454BC2C29051A5756D
:2027FF00F080120B3F022AB990513F75F080120B3F022AB9200B03022AB9900024E0FF60BD
:20281F0006900023E0700C9051AE75F080120B3F022AB9BF42028012BF6202800D900025D5
:20283F00E0FEBE6E028003BE4E181244B39000CC7401F012454B9051C275F080120B3F0274
:20285F002AB9BF5402800DBF74028008BE66028003BE46179051CF75F080120B3F1244B359
:20287F009000CCE4F012454B022AB990513F75F080120B3F022AB9200B03022AB990000B8E
:20289F00E4F090000175F000120961022AB9900022E0FFBF67028008BF47028003022AA551
:2028BF00200B03022AB9900024E0FFBF30005003022A9AEF24C65003022A9A900025E0FEC6
:2028DF00BE30005003022A9AEE24C65003022A9A900026E0FDBD30005003022A9AED24C671
:2028FF005003022A9A900027E0FCBC30005003022A9AEC24C65003022A9A900028E0FBBBCB
:20291F0030005003022A9AEB24C65003022A9A900029E0FABA30005003022A9AEA24C650A7
:20293F0003022A9A90002AE0F9B930005003022A9AE924C65003022A9A90002BE0F8B830B3
:20295F00005003022A9AE824C65003022A9A90002CE0F547C394305003022A9AE54724C6C6
:20297F005003022A9A90002DE0F548C394305003022A9AE54824C65003022A9AEF24D0751D
:20299F00F00AA42E24D0FFED24D075F00AA42C24D0FEEB24D075F00AA42A24D0FDE924D05D
:2029BF0075F00AA42824D0FCE54724D075F00AA4254824D0FBEF24E84019EE24C44014BD03
:2029DF000100400FED24E0400ABC01004005EC24F3500C9051DC75F080120B3F022AB98F7A
:2029FF00308E2F752E008D328C338B34853319751A00900017124B12751909751A00124BF2
:202A1F00F7AE82AF83AC327D00EC2EFEED3FFFE53324FD5013740355347D004DB4010092F3
:202A3F0035E433FC7D0080047C027D00EC2EFEED3FFFAC347D00EC2EFEED3FFF8C828D8332
:202A5F00A3A3A37519048D1AC007C006124BF7AC82AD83D006D007EC2EFEED3FFF8E828F67
:202A7F0083A3751907751A00124B2FE58204F5319051EE75F080120B3F801F9051DC75F0FF
:202A9F0080120B3F801490513F75F080120B3F80099050CF75F080120B3F43C1107F00EF4B
:202ABF002421FDE43400FE8D828E83E0600FEF2421F582E43400F5830FE4F080E2229002FC
:202ADF0021E0FF90F000E4937D0024D0FEED34FFFD7C00EFB5065DECB50559900222E0FF3F
:202AFF0090F001E4937D0024D0FEED34FFFD7C00EFB50640ECB5053C900223E0FF90F002D5
:202B1F00E4937D0024D0FEED34FFFD7C00EFB50623ECB5051F900224E0FF90F003E4937D79
:202B3F000024D0FEED34FFFD7C00EFB50606ECB505028004C2368002D236A23622AF8290D2
:202B5F00F008E4937003F582227E0090F008E493FDC3EE9D50668F047D008E027B00EA2C2C
:202B7F00FCEB3DFD90F008E493FB8B19751A008C828D83C007C006124BC1AC828C19751ABD
:202B9F000090000AC004124B12E5828583F0D004D006D0072409FBE435F0FDEB2409F582AC
:202BBF00ED34F0F583E493FD600FBD4D02800ABD6D028005EC04F582220E808F7582002284
:202BDF007593007594FF7592007591007595007596FF75B20075B10075B30275B41C75CAAA
:202BFF000075C90075C00075B0FF75A00075B881759700D2AF9000C7741EF0752A009000C7
:202C1F00C2740AF09000C37402F09000C4F09000C5F09000C6F090021DF090021BF090020F
:202C3F001C7406F090021EE4F0C22F900215E4F0900214F090021A04F0D2371244B3900027
:202C5F00CCE024FE50069000CC7401F09000CEE024FC50059000CEE4F09000CDE024FE50DC
:202C7F00059000CDE4F09000CFE024F550059000CFE4F09000D0E024EB50059000D0E4F047
:202C9F009000C8E0FFBF30004032EF24C6402D9000C9E0FFBF30004023EF24C6401E9000E6
:202CBF00CAE0FFBF30004014EF24C6400F9000CBE0FFBF30004005EF24C650129000CB7469
:202CDF0030F09000CAF09000C9F09000C8F012454B90F007E49324FF92C21244FF9001F4E9
:202CFF00E0249C50059001F4E4F09001F5E024FE50059001F5E4F012458990138812468449
:202D1F001245CD12009F12482C202F0E120C3F5009120C8F120E50120E68900220743CF02F
:202D3F009000017430F090000BE4F01207779214C2383014099051FC75F080120B3F101D18
:202D5F00028003120C8F301C2590F007E493601EC21C90F007E493FFBF0102C2C21244B30B
:202D7F009000CFE0FF1F9000CFEFF012454B900220E0703390021EE0602D90021FE4F09090
:202D9F00021EF0900019F0900224F0900223F0900222F0900221F0900228F0900227F090F6
:202DBF000226F0900225F0101102802175443375454C75468075420F754301904F1175F070
:202DDF008012082390520B75F080124634200F03022EB8201003022EB8C20FC21090021E31
:202DFF00E0FFBF02028003022EA090021FE0FFBF02004003022EA0900021E0FFBF6C02801E
:202E1F0003BF4C0F900022E0FFBF7502801FBF5502801A900021E0FFBF73028003BF5361A6
:202E3F00900022E0FFBF61028003BF415490000BE4F07F00EF240DFDE43400FEEF2401F5BF
:202E5F0082E43400F583E0FC8D828E83F00FBF0B0040E130141290021FE060067E757F009C
:202E7F00800A7E6D7F0080047E4D7F00900018EEF0A20A92009000197401F0900220743C3D
:202E9F00F075441A75455275468075420F75430190500E75F080120823300F2990021EE082
:202EBF00702312215775441A75455275468075420F75430190500E75F080120823C20F75E7
:202EDF0082531245E590021AE0700DE5307009E52F24FA500375C76090021EE0FF24F9401E
:202EFF001CEF2F2F902F0773022F1C023052023189023946023B410234FD02376A1031026C
:202F1F00803A75828012473E904C3375F0801247C275572B75585275598085305A852F5B39
:202F3F00852E5CA21E923B7582C71248AD85345D85335E85325F7582C0124A5E90F006E4F4
:202F5F009320E16590021BE0705FC220900220743CF090021FE4F030144990021E7401F0A2
:202F7F007582801247A375828012473E90522C75F0801247C2900221E02430F5821246DC11
:202F9F00900222E02430F5821246DC900223E02430F5821246DC900224E02430F582124632
:202FBF00DC800690021E7402F0102802803E303812D216D2A2900064124684C2A2A2A292A2
:202FDF00168027D21690F005E4936010D2A1900064124684C2A1A2A19216800ED2A390009D
:202FFF0064124684C2A3A2A39216B238102403023BCC303812D216D2A2900064124684C28E
:20301F00A2A2A292168027D21690F005E4936010D2A3900064124684C2A3A2A39216800EE3
:20303F00D2A1900064124684C2A1A2A19216B238023BCC90021FE02404F55375828012461D
:20305F00B11020030230E690021FE02401F0E0FFBF047490021FE4F0122ADD502690021ED5
:20307F007402F0900229E4F0900224F0900223F0900222F0900221F012479D7582801247E4
:20309F00A38044900229E02401F0E0FF24FB502090021EE4F01244B39000CEE04402F01279
:2030BF00454B120777500990523175F080120B3F75828812473E7582581246DC900229E0F0
:2030DF002430F5821246DC102802805090021FE02421FFE43402FE8F828E83E0FD7C008DD3
:2030FF00828C83A375190A8C1AC007C006124BC1AC82D006D0078F828E83ECF090021FE02A
:20311F002484F58212473E90021FE02421F582E43402F583E02430F5821246DC1024028066
:20313F001590021FE0FFE06008EF1490021FF0800590021EE4F0103103023BCC75572B751D
:20315F00585275598085305A852F5B852E5CA21E923B7582C71248AD85345D85335E8532F6
:20317F005F7582C0124A5E023BCC900019E0700302328D75828012473E900019E0FFBF0144
:20319F00067E407F5280047E517F527D808E828F838DF01247C27582C012473E90000D7540
:2031BF00F0001247C290526275F0801247C2900019E0FFBF01028003023261302064C224A5
:2031DF00C220900220743CF030000F900018E0F53990000E75F0001204F37F00EF2401FD0B
:2031FF00E43400FEEF240DF582E43400F583E08D828E83F00FBF0B0040E230140B905269EE
:20321F0075F080120B3F800990527975F080120B3FD2149000197402F07582C01247A3027F
:20323F003BCC102403023BCC900220743CF0900019E4F07582801247A37582C01247A30231
:20325F003BCC202009202406202803023BCCC228C224C220900220743CF0900019E4F0756B
:20327F0082801247A37582C01247A3023BCC75572B75585275598085305A852F5B852E5CE4
:20329F00A21E923B7582C71248AD85345D85335E85325F7582C0124A5E75828012473E906C
:2032BF00021FE0FF24F9406EEF2F9032CD73800C8024802D8036803F804880513014067E51
:2032DF00857F5280047E967F527D808E828F838DF01247C280409052A875F0801247C2808F
:2032FF00359052B975F0801247C2802A9052CA75F0801247C2801F9052DB75F0801247C22D
:20331F0080149052EC75F0801247C280099052FD75F0801247C2102002801FC22490021F5C
:20333F00E0FF7E008F828E83A37519078E1A124BC1AE82AF8390021FEEF01028028018909E
:20335F00021FE0FFBF02005008900220743CF0800690021F7406F020240302349C90021F78
:20337F00E0FF24FE400302349CC2247582801247A375828012473E90021FE0FFBF020280DE
:20339F0013BF03028025BF04028030BF050302346002349C90021E7405F0758200122B5C45
:2033BF00E58290001FF0D23102349C90021E7406F0900020E4F0D23102349C90021E740379
:2033DF00F090522C75F0801247C2900221E02430F5821246DC900222E02430F5821246DCAB
:2033FF00900223E02430F5821246DC900224E02430F5821246DC7582201246DC7582201211
:20341F0046DC7582201246DC900225E02430F5821246DC900226E02430F5821246DC900261
:20343F0027E02430F5821246DC900228E02430F5821246DC7582201246DC90021FE4F0807E
:20345F003C90021E7404F090F005E49390021FF090530E75F0801247C290021FE060067EF6
:20347F00167F5380047E197F537D808E828F838DF01247C290531C75F0801247C290021CF4
:20349F00E06003023BCC90021FE0FFBF02004003023BCCC224120777500990531F75F0806E
:2034BF00120B3F7582001205D790020012449B75180090032C1244801244B39000CB7430FF
:2034DF00F09000CAF09000C9F09000C8F012454BC21490021FE4F090021EF0023BCC9000CC
:2034FF0019E070030235A475828012473E900019E0FFBF01067E5A7F5380047E6B7F537DA4
:20351F00808E828F838DF01247C27582C012473E90000D75F0001247C290537C75F0801291
:20353F0047C2900019E0FFBF01028003023BCC302033C224C220900220743CF090001FE061
:20355F00F5821205D7900019E4F0758200122B5CE58290001FF07582801247A37582C01298
:20357F0047A3023BCC102403023BCC900220743CF0900019E4F07582801247A37582C012EE
:20359F0047A3023BCC1031030236AE75828012473E90001FE0701B90538575F0801247C25F
:2035BF007582C012473E90539675F0801247C20236AE9053A775F0801247C290001FE0FF27
:2035DF007E0075190A8E1A8F828E83124BF7AE8274302EF5821246DC90001FE0FF7E00756A
:2035FF00190A8E1A8F828E83124BC1AE8274302EF5821246DC7582201246DC90001FE07E9C
:20361F000024FFF519EE34FFF51A90000A124B12E5828583F02409FEE435F0FFEE2409F57F
:20363F0082EF34F0F583E493F5821246DC9053AC75F0801247C27582C012473E7582301226
:20365F0046DC7F0090001FE07D0024FFF519ED34FFF51A90000AC007124B12AD82AE83D03E
:20367F00078F037C00EB2DFDEC3EFEED2409F582EE34F0F583E493F582C0071246DCD007FE
:20369F000FBF090040BE90526275F0801247C21024028017900220743CF090001FE0F582CD
:2036BF00122B5CE58290001FF0D23120280302375190001FE0607BC228900220743CF0903E
:2036DF00000D7430F0754900AE490EEE3395E0FDEE240DFEED3400FD90001FE07B0024FF6C
:2036FF00F519EB34FFF51A90000AC006C005124B12AB82AC83D005D006AA497F00EA2BFB53
:20371F00EF3CFCEB2409F582EC34F0F583E4938E828D83F0054974F7254950AC900017E417
:20373F00F090001904F07582801247A37582C01247A3102003023BCC90021E7402F09002D3
:20375F001FF07582801247A3023BCC900019E0700302380075828012473E900019E0FFBF34
:20377F0001067EBB7F5380047ECC7F537D808E828F838DF01247C27582C012473E9053DDB3
:20379F0075F0801247C2900019E0FFBF01028003023BCC30202BC224C220900220743CF09F
:2037BF00900020E0F582120669900019E4F0900020F07582801247A37582C01247A3023BE2
:2037DF00CC102403023BCC900220743CF0900019E4F07582801247A37582C01247A3023B8C
:2037FF00CC1031030238CD75828012473E90F32CE493701B9053EE75F0801247C27582C04C
:20381F0012473E90539675F0801247C20238CD90540075F0801247C2900020E0FF7E008FF2
:20383F00828E83A375190A8E1A124BF7AE8274302EF5821246DC900020E0FF7E008F828E46
:20385F0083A375190A8E1A124BC1AE8274302EF5821246DC75822F1246DC90F32CE493FF99
:20387F007E0075190A8E1A8F828E83124BF7AE8274302EF5821246DC90F32CE493FF7E00A5
:20389F0075190A8E1A8F828E83124BC1AE8274302EF5821246DC90537C75F0801247C27508
:2038BF0082C012473E90540875F0801247C230243890F32CE4936031C224900220743CF0A9
:2038DF00900020E0FF7E000FBF00010E90F32CE493FD8D19751A008F828E83124BC1AE8217
:2038FF00AF83900020EEF0D23130282190F32CE493601AC228900220743CF0900019740173
:20391F00F07582801247A37582C01247A3102003023BCC90021E7402F090021F04F0758284
:20393F00801247A3023BCC1020030239DE90021FE02401F0E0FFBF0426122ADD401390022B
:20395F001FE4F075828812473E7582581246DC806E75828812473E7582201246DC8060BFCE
:20397F00085D90021E7402F090021F23F01244B3900225E024309000C8F0900226E02430C1
:20399F009000C9F0900227E024309000CAF0900228E024309000CBF012454B900224E4F023
:2039BF00900223F0900222F0900221F0900228F0900227F0900226F0900225F012479D1054
:2039DF002803023AAF90021FE0FF2484FE7D007519048D1A8F828D83C006124BF7AD82D08C
:2039FF0006ED75F003A42EF58212473E90021FE0FFBF04005044EF2421FDE43402FE8D822E
:203A1F008E83E0FC7B008C828B83A375190A8B1AC006C005124BC1AB82D005D0068D828E05
:203A3F0083EBF090021FE02421F582E43402F583E02430F5821246DC80561F1F1F1FEF33D7
:203A5F0095E0FEEF2425FFEE3402FE8F828E83E0FD7C008D828C83A375190A8C1AC007C07A
:203A7F0006124BC1AC82D006D0078F828E83ECF090021FE0FF1F1F1F1FEF3395E0FEEF2476
:203A9F0025F582EE3402F583E02430F5821246DC102402802F90021E7402F090021F23F031
:203ABF00900224E4F0900223F0900222F0900221F0900228F0900227F0900226F0900225BF
:203ADF00F012479D90021FE0FF2404FE7D007519048D1A8F828D83C006124BF7AD82D00635
:203AFF00ED75F003A42EF5537582801246B1103103023BCC75572B75585275598085305AF8
:203B1F00852F5B852E5CA21E923B7582C71248AD85345D85335E85325F7582C0124A5E0261
:203B3F003BCC102802802B90021FE0FF7401C39FF075828712473E90021FE060067E167F04
:203B5F005380047E197F537D808E828F838DF01247C2102002801A1244B390021FE0900059
:203B7F00CDF012454B90021E7402F090021F7405F0102402800C90021F7405F090021E7497
:203B9F0002F075572B75585275598085305A852F5B852E5CA21E923B7582C71248AD853478
:203BBF005D85335E85325F7582C0124A5E20160302433F7F009001F8E0035480FE9001F9E8
:203BDF00E0030354C02EFE9001FAE0C42354E02EFE9001FBE0C454F02EF54A9001FCE0C4DC
:203BFF000354F8FE9001FDE025E025E02EFE9001FEE025E02EFE9001FFE02EAD4A2DF54A14
:203C1F00900200E0035480FE900201E0030354C02EFE900202E0C42354E02EFE900203E055
:203C3F00C454F02EF54B900204E0C40354F8FE900205E025E025E02EFE900206E025E02E10
:203C5F00FE900207E02EAD4B2DF54B301A3A900208E0C40354F8FE900209E025E025E02E79
:203C7F00FE90020AE025E02EFE90020BE0FD2EF54C90020DE0FE8E4E90020EE0FE8E4F904D
:203C9F00020FE0FE8E508018754C0090020EE0FE8E4E90020AE0FE8E4F900208E0FE8E50D8
:203CBF0090020CE0FE8E4D90001AE0FEB54A2890001BE0FEB54B2090001CE0FEB54C189003
:203CDF00001DE0FEBEFF00500690001DEE04F090001E7404F0802E90001EE0FEE06008EEA2
:203CFF001490001EF0801E90001D7401F090001AE54AF090001BE54BF090001CE54CF09052
:203D1F00001E7404F090001DE0FEBE0200923AB39204758250C0071245E5A21AE43324302D
:203D3F00F5821245E575822D1245E5854A821245FA854B821245FA854C821245FA75822D44
:203D5F001245E5AE4D74302EF5821245E5AE4E74302EF5821245E5AE4F74302EF58212456A
:203D7F00E5AE5074302EF5821245E575822D1245E59001F7E0FE7D0075190A8D1A8E828D9D
:203D9F0083124BF7AD8274302DF5821245E59001F7E0FE7D0075190A8D1A8E828D83124BDB
:203DBF00C1AD8274302DF5821245E575822D1245E5D0077E00EF6003023F5D90F32CE493A5
:203DDF00FD7C0074022DFDE43CFC8E027B00C3EA9DEB64808CF063F08095F04003023F5DB6
:203DFF00BE02004003023E9F8A198B1A900003C007C006124B12AC82AD83D006D0078C0252
:203E1F0074F22DFB8A828B83E493702574012CFAE43D24F2FB8A828B83E493701474022C4B
:203E3F00FCE43D24F2FD8C828D83E4937003023F598E19751A00900003C007C006124B12CC
:203E5F00AC82AD83D006D0078C8274F22DF583E493FBBBFF2B74012CFAE43DFB8A8274F29F
:203E7F002BF583E493FBBBFF1774022CFCE43DFD8C8274F22DF583E493FDBDFF03023F599B
:203E9F00AD4A8E037C008B198C1A900003C006C005C004C003124B12858251858352D0031C
:203EBF00D004D005D00685518274F22552F583E493FAEDB5022E74012551FAE43552FD8A9D
:203EDF008274F22DF583E493FDB54B1874022551FAE43552FD8A8274F22DF583E493FDB51C
:203EFF004C028004C23A8002D23AA23AE433FF6049BE020050068E0574022DFF75190A7554
:203F1F001A008B828C83C007C006C004C003124BF7AA8274302AF5821245E5D003D004751B
:203F3F00190A751A008B828C83124BC1AC8274302CF5821245E5D006D0070E023DD4758200
:203F5F002DC0071245E5D0078F0674302EF582C0071245E575822D1245E5D00790021EE093
:203F7F00FEBE020280030240D1EF60030240CC2004030240CC20141B1244FF9000C8E54A0C
:203F9F00F09000C9E54BF09000CAE54CF01245890240CC90021FE0FDE0600302409C90F3FE
:203FBF002CE493249E501290541975F0801247C29007D01246840240CC1244FF9001F4E013
:203FDF00FC8C19751A00900003124B12E5828583F02406FBE435F0FCEB24C8F582EC340099
:203FFF00F583E54AF09001F4E0FC8C19751A00900003124B12E5828583F02407FBE435F0E6
:20401F00FCEB24C8F582EC3400F583E54BF09001F4E0FC8C19751A00900003124B12E58281
:20403F008583F02408FBE435F0FCEB24C8F582EC3400F583E54CF09001F4E0FC0C9001F444
:20405F00ECF01245897582801247A375828012473E90542A75F0801247C29005DC124684A9
:20407F007582801247A3120777504290F004E493603B90543B75F080120B3F8030BD012DFB
:20409F001244FF9000CBE54AF09000CCE54BF09000CDE54CF0124589120777501090F004E4
:2040BF00E493600990544A75F080120B3FC21702433BBE060280030241C9900019E06003F8
:2040DF0002433B90F32CE493700302433B900020E0FE90F32CE493FDC3EE9D400302433B66
:2040FF00AD4A8E047E0074022CF519E43EF51A900003C006C005C004124B12AA82AB83D03E
:20411F0004D005D0068A8274F22BF583E493FBEDB50368AD4B74022CF519E43EF51A9000D4
:20413F0003C006C005C004124B12E5828583F0D004D005D0062401FAE435F0FB8A8274F22C
:20415F002BF583E493FBEDB50331AD4C74022CF519E43EF51A900003C005124B12E58285C8
:20417F0083F0D0052402FCE435F0FE8C8274F22EF583E493FEEDB506028004C2398002D2A3
:20419F00397582C012473E3039067D647E5480047D757E547C808D828E838CF01247C290CC
:2041BF0003E8124684D23102433BEF700302433BE4BF020104FF605110240280317582007C
:2041DF00C0071205D790020012449B75180090032C1244801244B39000CB7430F09000CA14
:2041FF00F09000C9F09000C8F012454BD0071008028016C007120777D007500D905486758C
:20421F00F080C007120B3FD00730191BE54F60030242E2C219C0071244FF9001F5E4F01291
:20423F004589D0070242E2E54D7015D219C0071244FF9001F57401F0124589D0070242E20E
:20425F003008030242E2E54FB40100923AE43324FF92A210370280089000C7E0FE243CF065
:20427F0090F005E493602FE54E700330A204C23A8002D23AA23AE43324FF92A1E55070069A
:20429F0020A10330A204C23A8002D23AA23AE43324FF92A3802DE54E700330A204C23A80EB
:2042BF0002D23AA23AE43324FF92A3E550700620A30330A204C23A8002D23AA23AE433249E
:2042DF00FF92A1E54D700D900214E02401F0900215740AF0300845900214E0FE24E24007E0
:2042FF00EF6039E54E70351244B39000CEE4F012454BC208C2A290F005E493600CD2A190C9
:20431F000064124684C2A1800AD2A3900064124684C2A3900215E4F0900214F0C215C216E7
:20433F0010010302444610090302444390021EE0FFBF02028008BF030280030243FA754400
:20435F003375454C75468075420F754301904F1175F08012082390000BE4F0300A24301428
:20437F001290021FE060067D757E00800A7D6D7E0080047D4D7E008D3990000275F0001218
:20439F0004F37E00EE240DFCE43400FDEE2401F582E43400F583E08C828D83F00EBE0B007A
:2043BF0040E29000197402F030140B90526975F080120B3F800990527975F080120B3F307D
:2043DF001415120777501090F004E49360099054A475F080120B3FD2148049200A46EF70FA
:2043FF004330080B9054B575F080120B3F8035D21690F005E4936010D2A1900064124684F2
:20441F00C2A1A2A19216800ED2A3900064124684C2A3A2A3921690000BE4F09054C475F08E
:0D443F0080120B3F75DB4943C110022D5D5B
:204C33002043432D312E31302020202020202020004D612050696E204D61632044696E6805
:204C5300203A20303030300A436163206C656E6820636875207669657420484F4120686116
:204C730079207468756F6E67206465752064756F630A312E4C656E6820626174207468691E
:204C930065742062690A707070702C626174202D2076692064753A20303030302C6261744E
:204CB3000A322E4C656E68207461742074686965742062690A707070702C746174202D20B2
:204CD30076692064753A20303030302C7461740A332E4C656E68206B69656D20747261201B
:204CF3007472616E6720746861692074686965742062690A707070702C6B74202D20766975
:204D13002064753A20303030302C6B740A342E4C656E68207468617920646F69206D61202F
:204D330070696E3A20707070702C70696E2C787878780A7669206475203A20303030302C38
:204D530070696E2C31323334200A5468617920646F69206D612070696E20747520303030D9
:204D730030202D3E20313233340A352E4C656E682072657365742073696D2D67736D0A70ED
:204D93007070702C72732D2076692064753A20303030302C72730A362E4C656E68206C6965
:204DB3006574206B652064616E682062610A707070702C64622D2076692064753A203030DE
:204DD30030302C64620A372E4C656E6820786F612064616E682062613A20707070702C78B4
:204DF3006F612C7878780A76643A20303030302C786F612C31352020786F6120736F20642A
:204E130069656E2074686F6169207468752031350A76643A20303030302C786F612C302029
:204E33002020786F6120746F616E20626F2064616E682062610A382E4C656E68206C757509
:204E53002064616E682062613A20707070702C6C75752C787878787878787878780A766445
:204E73003A20303030302C6C75752C303931323334353637380A6C757520736F2064696596
:204E93006E2074686F616920303931323334353637382076616F2064616E6820626100200B
:204EB300204343412020001A00544B3C31303030204B2042414F43414F0041542B434D473B
:204ED300533D2200220D0020202053454E44494E4720202000415444003B0D002020202075
:204EF30043414C4C494E4720202020200044414E47204755492042414F2043414F0041546C
:204F13000D00204B484F413D004F4E004F464600204755492048554F4E472044414E2020A0
:204F33000041542B4353504E3F0D002054454E204D414E47200041542B43545A553D310D33
:204F53000020424154204C41592047494F200041542B434F50533D320D002020204E47417B
:204F730054204D414E47202020200041542B434F50533D300D002020202054494D204D4180
:204F93004E47202020200041542B43434C4B3F0D00204C41592047494F2047505320004150
:204FB300542B434C49503D310D00202053454E44494E4720434C495020200041542B434D9C
:204FD30047463D310D00202053454E44494E4720434D474620200041542B434E4D493D319C
:204FF3002C312C302C302C310D00202053454E44494E4720434E4D4920200041542B434D00
:2050130047443D312C340D0020205448494554204C415020544E20200041542B4353510DA6
:205033000020534F4E47200041542B434855500D000D44756E67206375612063756F6E0020
:2050530020205441542042414F2043414F2020000D4B686F612062616E207068696D000D33
:205073004D6F2062616E207068696D000D4B686F61206375612063756F6E000D4B686F69EC
:205093002074616F206C6169207468696574206269000D72657365742067736D207361751A
:2050B30020313073000D446F69206D612070696E207468616E6820636F6E67000D4C656E45
:2050D30068206B686F6E6720686F70206C65000D4B686F6E672074686520786F6120736FF7
:2050F300204D61737465722071756120534D53000D586F612064616E682062612074686167
:205113006E6820636F6E67000D4375612063756F6E2064616E67206B686F61000D58756F1E
:205133006E67206375612063756F6E000D4C656E68204B686F6E6720486F70204C65000D89
:205153007468656D2064616E68206261207468616E6820636F6E67000D42616E6720736F6F
:2051730020646120646179000D536F206474206B686F6E6720686F70204C65000D4D6F20BA
:205193006375612063756F6E000D42617420555053000D54617420555053000D42616F2025
:2051B30063616F207468616E6820636F6E67000D4261742062616F2063616F000D546174B0
:2051D3002062616F2063616F000D47696F206B686F6E6720686F70206C65000D4461206327
:2051F30068696E682067696F000D42444B204B686F6920446F6E670041542B434D474C3D45
:2052130022414C4C220D00202044454C4554494E4720534D532020000050494E3A000D53F1
:2052330061692070696E2035206C616E004C555520534F3F204D3A4F4B20423A58004441C9
:20525300204C555520534F3A20202020202000202020202020000D4C7575207468616E6833
:2052730020636F6E67000D4C7575204D6173746572004348494E483A2020202020202020E1
:205293002020004D41535445523A20202020202020202020005048553A202020202020206E
:2052B30020202020200020202020584F4120534F20202020202000202020584F4120524552
:2052D3004D4F54452020200020202020444F49202050494E2020202000202048554F4E4762
:2052F30020204D4F544F52202000202020202020455849542020202020200048554F4E474F
:205313003A20005048005452004149000D43414E482042414F3A20746869657420626920BC
:205333007675612052455345542028786F6120736F2B72656D6F7465292062616E67206EB3
:2053530075742062616D00584F4120534F204E41593F204D3A4F4B00444120584F412053CF
:205373004F2020202020202000202020202020202000284B484F4E4720434F20534F29208F
:205393002020004D3A74686F617420202020202020202000534F2023002020423A74696510
:2053B30070202B3A786F6100584F412052454D4F5445204E41593F2000444120584F4120B5
:2053D30052454D4F5445202020004D3A4F4B20423A48757920202020202000284B484F4E83
:2053F3004720434F2052454D4F5445290052454D4F54452000423A74696570202B3A786F06
:205413006120202020002048455420424F204E484F20484F43200020444120484F432052B6
:20543300454D4F54452120000D72656D6F746520646320686F63000D6D6F64756C652062AF
:20545300616F20646F6E672064756F6320686F63004F4B202D2044554E472052454D4F54A0
:20547300450058202D204B4841432052454D4F544520000D72656D6F7465206B68616E2071
:205493006361702064756F632073752064756E67000D4454206D6F692064756F63206C754E
:1D54B30075000D4375612064616E67206B686F61000D4D6F20637561206C656E0043
:0254E10014288D
:20444C0075C70075C50075C60075C38075C40043C11022AE82AF8375C78375C5018EC48F3B
:20446C00C375C65A75C6A500AFC2C00712444CD0078F8222AE82AF8375C78375C5028EC465
:20448C008FC38518C275C65A75C6A50002444CAE82AF8375C78375C5038EC48FC375C65AC1
:2044AC0075C6A50002444C43C1107ED17F00EE4F60141EBEFF011FEE24C8F582EF3400F587
:2044CC008374FFF080E8C3EE94D1EF9400501EEE24C8FCEF3400FD8E8274F02FF5830EBE9E
:2044EC0000010FE493FB8C828D83F080D990000002449B43C1107ED17F00EE4F60141EBEE7
:20450C00FF011FEE24C8F582EF3400F58374FFF080E8C3EE942EEF9401501EEE24C8FCEF8F
:20452C003400FD8E8274F22FF5830EBE00010FE493FB8C828D83F080D990020002449B7E7B
:20454C00007F00C3EE94D1EF9400503075C78375C5028EC48FC3EE24C8F582EF3400F5832C
:20456C000EBE00010FE0F5C275C65A75C6A500C007C00612444CD006D00780C7227E007F05
:20458C0000C3EE942EEF9401503675C78375C5028EC48E0474022FFD8DC3EE24C8F582EF81
:2045AC003400F5830EBE00010FE0F5C275C65A75C6A500C007C00612444CD006D00780C13E
:0145CC0022CC
:2045CD00759850438E40538EFE758BB2758DFFC2ABD28ED2ACD2A022E582FF700122C2999B
:2045ED008F9920990543C11080F8C29922E582FFC4540FFE53070FBE0A0050067C307D0084
:20460D0080047C577D00EC2EF582C0071245E5D007BF0A0050067D307E0080047D577E002E
:20462D00ED2FF5820245E5AD82AE83AFF0C2998D828E838FF0124BA5FC60218C9920990553
:1D464D0043C11080F8C2998D828E838FF0124BA5FCBC1A01220DBD00D60E80D322B0
:20466A00AE82AF837C007D00C3EC9EED9F500A43C1100CBC00F20D80EF22AE82AF837C0058
:20468A007D00C3EC9EED9F501D9003E8C007C006C005C00412466AD004D005D006D0070C98
:2046AA00BC00DF0D80DC22AF82E5534FF58212473E75820D02473EAF82302B118F82124772
:2046CA003E8554828555838556F00247C28F820247A3E582FF700122D285EFC4540124FF8C
:2046EA009283EFA2E5E43324FF9282EF2323540124FF9281EF235401FE24FF9280D2840027
:20470A00C28400EF540124FF9283EF03540124FF9282EF03035401FE24FF9281EFA2E3E479
:20472A0033FF24FF9280D28400C28490006412466AC28522E582FF700122C285EFC4540105
:20474A0024FF9283EFA2E5E43324FF9282EF2323540124FF9281EF235401FE24FF9280D227
:20476A008400C28400EF540124FF9283EF03540124FF9282EF03035401FE24FF9281EFA25C
:20478A00E3E433FF24FF9280D28400C28490006402466A75820C02473EE582FF600E8F8230
:2047AA0012473E9054D075F0800247C275820112473E90064002466AAD82AE83AFF07C0022
:2047CA008D828E838FF0124BA5FB6055BC10005050BB80005025EB24E050200CEC601C0D82
:2047EA00BD00010E8B82C007C006C005C0041246DCD004D005D006D00780C58D828E838F42
:20480A00F0124BA5FBA3AD82AE838B82C007C006C005C00412473ED004D005D006D007800E
:20482A009F22C286903A9812466A75801C00C284900FA012466AD28400C2849000A01246C5
:20484A006AD28400C2849000A012466A75801400C2849003E812466AD28400C28400758039
:20486A001100C28490002812466A75801000C2840075801300C28490002812466A75801045
:20488A0000C2840075801600C28490002812466A75801000C2840075801800C2849003E8E4
:2048AA0002466AAF82E55A24E8500122E55C240540030249698F8212473E85578285588386
:2048CA008559F01247C274F6255A40067D207E00801DAB5A7C0075190A8C1A8B828C831211
:2048EA004BF7AB82AC8374302BFBFD3395E0FE8D821246DCAD5A7E0075190A8E1A8D828EFE
:20490A0083124BC1AD8274302DF5821246DCE55C24035012303B067D3A7E0080047D207E32
:20492A00008D821246DCAD5B7E0075190A8E1A8D828E83C006C005124BF7AB8274302BF574
:20494A00821246DCD005D00675190A751A008D828E83124BC1AD8274302DF5820246DC8F5D
:20496A008212473E8557828558838559F01247C274F6255A40067E207F00801DAC5A7D0001
:20498A0075190A8D1A8C828D83124BF7AC82AD8374302CFCFE3395E0FF8E821246DCAE5A41
:2049AA007F0075190A8F1A8E828F83124BC1AE8274302EF5821246DC303B067E3A7F008018
:2049CA00047E207F008E821246DCAE5B7F0075190A8F1A8E828F83C007C006124BF7AC826E
:2049EA0074302CF5821246DCD006D00775190A751A008E828F83124BC1AE8274302EF582A5
:204A0A001246DC303B067E3A7F0080047E207F008E821246DCAE5C7F0075190A8F1A8E82F1
:204A2A008F83C007C006124BF7AC8274302CF5821246DCD006D00775190A751A008E828F5D
:204A4A0083124BC1AE8274302EF5821246DC7582200246DC12473EAE5F7F0075190A8F1A5F
:204A6A008E828F83C007C006124BF7AC8274302CF5821246DCD006D00775190A751A008E1E
:204A8A00828F83124BC1AE8274302EF5821246DCAE5E7F0075190A8F1A8E828F83C007C038
:204AAA0006124BF7AC8274302CF5821246DCD006D00775190A751A008E828F83124BC1AE27
:204ACA008274302EF5821246DCAE5D7F0075190A8F1A8E828F83C007C006124BF7AC82745D
:204AEA00302CF5821246DCD006D00775190A751A008E828F83124BC1AE8274302EF5821206
:084B0A0046DC7582200246DC46
:1154D0002020202020202020202020202020202000CB
:06007000E478FFF6D8FD64
:20004E007902E94400601B7A019054E1784075A002E493F2A308B8000205A0D9F4DAF275DF
:02006E00A0FFF1
:1D4B1200E5828519F0A4C582C0F0851AF0A4D0F025F0C5838519F0A42583F5832232
:204B2F00E519451A60467A01E51925E0F519E51A334012F51AE5829519E583951A40030ACB
:204B4F0080E6C3E51A13F51AE51913F519C3E5829519F5F0E583951A4005F58385F082C392
:0D4B6F00E51A13F51AE51913F519DAE1221C
:200076007800E84400600A790175A000E4F309D8FC783FE84402600C7903900001E4F0A344
:04009600D8FCD9FABF
:204B7C007A10E4FBFCE58225E0F582E58333F583EB33FBEC33FCEB9519F5F0EC951A40062B
:094B9C00FCABF0438201DADD22DA
:0D00410075815F124C2FE582600302003EC6
:1C4BA50020F71430F6148883A88220F507E6A88375830022E280F7E49322E0221F
:204BC100C2D5E58330E70DD2D5E4C39582F582E49583F583E51A30E70BE4C39519F519E4F9
:164BE100951AF51A124B2F30D50BE4C39582F582E49583F5832299
:204BF700C2D5E58330E70DD2D5E4C39582F582E49583F583E51A30E70DB2D5E4C39519F537
:184C170019E4951AF51A124B7C30D50BE4C39582F582E49583F5832216
:044C2F007582002268
:00000001FF
