:040000000200413287
:01000B0032C2
:0100130032BA
:01001B0032B2
:030023000211B80F
:01002B0032A2
:01003300329A
:03003B000201C5FA
:05009A00C23102003E2E
:03003E000235CCBC
:20009F0075FA0075EA0090021174A8F07461A3F090021374FAF0E4A3F075DA4975DB49D2DF
:2000BF00DE2243C110B21EA21E92879000C2E014F0E070199000C2E4F090F32D9324FF92A7
:2000DF001990F006E493FF24FF920892A2900210E0FFE06012EF14900210F0E070099002A8
:2000FF0010E4F090020FF0900216E0FFE06009302206EF14900216F0900217E0FFE06009D8
:20011F00302606EF14900217F0900218E0FFE06009302A06EF14900218F0900218E07002FD
:20013F00D22C900227E0FFE06006EF14900227F0900229E0FFE06006EF14900229F09002F8
:20015F0019E0600E90021BE0FFE06006EF1490021BF020A0139000BDE014F0E0700AD2A0D7
:20017F009000BD740AF0D207052EE52E24C45035D21C752E00E52A6006D52B03752A00056C
:20019F002FE52F24C4501E752F00D21D0530E53024E85011753000900215E0FFE06006EFFD
:2001BF0014900215F022C028C0E0C0F0C082C083C007C006C005C004C003C002C001C0007A
:2001DF00C0D075D00843C11010D8030202F9900211E0FEA3E0FF8EEA8FFA90021174A82E36
:2001FF00F074613FA3F0301F0930B5069002167402F0301F0330B504C2328002D232A2326F
:20021F00922220210330B504C2328002D232A232921F20200A202203201F04C2328002D2C5
:20023F0032A2329220A2B5922130230930B3069002177406F030230330B304C2328002D200
:20025F0032A232922620250330B304C2328002D232A232922320240A202603202304C232BD
:20027F008002D232A2329224A2B3922530270930B4069002187402F030270330B404C232B3
:20029F008002D232A232922A20290330B404C2328002D232A232922720280A202A03202708
:2002BF0004C2328002D232A2329228A2B4922990023BE014F0E0700AD23190023B740AF0B9
:2002DF00B22B90023CE014F0E0700F90023C7428F075D0001200C175D00810D9030204055B
:2002FF00900213E0FEA3E0FF8EEB8FFB90021374FA2EF0E43FA3F03016030204059001F11A
:20031F00E0FF04F0EF700ED217C2A1A2A192A3A20892A2C21630B63990020DE0702430158D
:20033F002190020EE0FF24FD5018BF070050139001F2E0FF04F0EF24F3F582E43401F583E8
:20035F00E4F090020DE02401F090020EE4F00203E690020EE0706430154690020DE0FF2436
:20037F00FD503DBF07005038201A1F9001F2E0FF30E0171FEF3395E0FEEF24F3FFEE3401C8
:20039F00FE8F828E83E07002D21A9001F2E0FF04F0EF24F3F582E43401F5837401F0801B7C
:2003BF0090020DE0FF24E350129001F17401F0301709D2159001F2E4F0C21A90020EE02442
:2003DF0001F090020DE4F030150C9001F2E0FFBF1804D21680109001F2E0FF24E750079040
:2003FF0001F2E4F0C215D0D0D000D001D002D003D004D005D006D007D083D082D0F0D0E0EF
:20041F00D0283285823585833685F0377C007B0090F008E493FAC3EB9A40030204EF753850
:20043F000179008B19751A0090000AC004C003C001124DF2A882AA83D001D003D00489065F
:20045F007F00EE28F8EF3AFAE82409F582EA34F0F583E493FFE92535FAE43536FDAE378A4D
:20047F00828D838EF0124E85FAEFB502028005753800800609B9090040A9E538604C8B19ED
:20049F00751A0090000AC004C003124DF2AE82AF83D003D00474092EFAE43FFDEA2409FA5D
:2004BF00ED34F0FD8A828D83E493601E74092EFEE43FFFEE2409F582EF34F0F583E493900F
:2004DF00000CF08C07EF04F582220B8B0402042F7582002285823A85833B85F03C90F0083D
:2004FF00E493F53D7B00C3EB953D502E8B19751A0090000AC003124DF2E5828583F0D003A8
:20051F002409F9E435F0FAE92409F9EA34F0FA89828A83E49360030B80CCEBFAB53D0474E4
:20053F00018001E4FB600874EC253D5002C322C003C002124759D002D00379008A19751A53
:20055F000090000AC003C002C001124DF285823E85833FD001D002D0037409253EF8E43558
:20057F003FFF89057E00ED28F8EE3FFFE824C3F8EF3400FFE9253AFCE4353BFDAE3C8C8263
:20059F008D838EF0124E8588828F83F009B9090040AA7412253EFEE4353FFFEE24C3F5827E
:2005BF00EF3400F583E539F0EB6008AC3D0C9000CBECF01247F1D322AF82C007124759D03B
:2005DF0007EF702AFDFE74092DFBE43EFCEB24C3F582EC3400F583E4F00DBD00010EC3ED70
:2005FF0094C8EE940040DF9000CBE4F080599000CBE0FEC39F40507D007E008F037C00EBB8
:20061F0024FFF519EC34FFF51A90000AC007C006C005124DF2E5828583F0D005D006D0073E
:20063F002409FBE435F0FCED2BFBEE3CFCEB24C3F582EC3400F583E4F00DBD00010EC3EDF7
:20065F00940AEE940040B40247F1AF82C0071247A5D0078F40AD407E000DBD00010E9001BC
:20067F00EFE0FCFA7B00C3ED9AEE64808BF063F08095F040030207227E008E037D00A94049
:20069F007A00740229F519E43AF51A900003C006C005C003C002C001124DF2A882AF83D006
:2006BF0001D002D003D005D006E82BF8EF3DFFE824C3F8EF3400FF740329F519E43AF51AD0
:2006DF00900003C007C006C005C003C000124DF2A982AA83D000D003D005D006D007E92BB1
:2006FF00FBEA3DFDEB24C3F582ED3400F583E0FD88828F83F00EBE030050030206990540E9
:20071F00020674EC604F7F008F057E009001EFE0FC7B0074012CF519E43BF51A900003C00B
:20073F0007C006C005124DF2AB82AC83D005D006D007EB2DFDEC3EFEED24C3F582EE34002F
:20075F00F583E4F00FBF030040BE9001EFE0FF1F9001EFEFF002482F7F007E0090F008E4A0
:20077F0093FDC3EE9D40030208218E19751A0090000AC007C006124DF2E5828583F0D0062B
:20079F00D0072409FCE435F0FDEC2409F582ED34F0F583E493FDBD6D028003BD4D5E900000
:2007BF00017430F0754100AC410CEC3395E0FBEC2401FCEB3400FB8F19751A0090000AC08F
:2007DF0007C004C003124DF2A982AA83D003D004D007A8417D00E829F9ED3AFAE92409F5A9
:2007FF0082EA34F0F583E4938C828B83F0054174F7254150B290000BE4F0D3220E8E07022D
:20081F00077BC322AD82AE83AFF0AC43900228ECF08542F0ECA4FB900229740A2BF0C22D49
:20083F008D828E838FF0C007C006C005C0041248DAD004D005D006D007AB42302D03020803
:20085F00F8900229E070030208F8302F030208F843C110C231758280C007C006C005C00479
:20087F00C003124A1E8544828545838546F0124AA2755E92755F51756080853061852F62C0
:20089F00852E63A21E923B7582C0124B8DD003D004D005D006D007102C028002C322900295
:2008BF0027E06003303094C2308B021BEA602A900227ECF0900228ECF08D828E838FF0C023
:2008DF0007C006C005C004C0031248DAD003D004D005D006D00702085A758280124A839039
:2008FF00022AE4F0A22D2290001CE0602090001FE0701A75449C75455175468075420375F9
:20091F00430190519A75F080120823C32290000BE4F09051AD75F0801248DA90000175F0E6
:20093F00001248DA90022A7409F07544BA75455175468075420575433D9051B775F0800252
:20095F000823AD82AE83AFF09051C875F080C007C006C0051248DAD005D006D0078D828E1B
:20097F00838FF01248DA7544CF75455175468075420175433C9051CC75F080020823AF82B8
:20099F00BF0A00500A8F0674302EF58202488BBF640050398F057E0075190A8E1A8D828EC7
:2009BF0083C006C005124ED7AB8274302BF58212488BD005D00675190A751A008D828E8389
:2009DF00124EA1AD8274302DF58202488B7E007519648E1A8F828E83C007C006124ED7AC01
:2009FF008274302CF58212488BD006D00775190A751A008F828E83C007C006124ED77519E2
:200A1F000A751A00124EA1AC8274302CF58212488BD006D00775190A751A008F828E8312BB
:200A3F004EA1AE8274302EF58202488B90001CE4F01209064001227F0090F008E493FEC317
:200A5F00EF9E4003020B278F19751A0090000AC007124DF2E5828583F0D0072409FDE43511
:200A7F00F0FEED2409FDEE34F0FE8D828E83E4937003020B238F06EE04F582C00712099D8B
:200A9F0075822E12488B75823012488BD0077E008F19751A0090000AC007C006124DF2AC71
:200ABF0082AD83D0068E027B00EA2CFAEB3DFBEA2409F582EB34F0F583E493F582C006C0C8
:200ADF0005C00412488BD004D005D006D0070EBE090040BC75822CC007C005C00412488BCA
:200AFF00D004D00574092CFCE43DFDEC2409F582ED34F0F583E493F58212488B75820D1269
:200B1F00488BD0070F020A587544E075455175468075423275430190519A75F0800208238B
:200B3F00AD82AE83AFF075441375454F75468075420F7543019051F175F080C007C006C004
:200B5F000512082390001CE4F0120906D005D006D0074001229051F575F080C007C006C0A6
:200B7F00051248DAD005D006D00790F006E49360067BFC7C5180047BFF7C517A808B828C96
:200B9F00838AF0C007C006C0051248DAD005D006D0078D828E838FF0C007C006C0051248E6
:200BBF00DAD005D006D0070DBD00010E8D828E838FF0124E85FDBD2A0990519A75F080020E
:200BDF0048DA7544E075455175468075427875430190519A75F080020823858248858349E0
:200BFF0085F04A758280124A83758280124A1E3033067B037C5280047B147C527A808B8233
:200C1F008C838AF0124AA27582C0124A1EE547700B90522575F080124AA2804F74FFB5472E
:200C3F000B90522975F080124AA2803F758223124982AB477C0075190A8C1A8B828C83C05E
:200C5F0004C003124ED7A982743029F582124982D003D00475190A751A008B828C83124EE1
:200C7F00A1AB8274302BF58212498275822012498290522D75F080124AA2854882854983DE
:200C9F00854AF0124E85F5821249E474012548FAE43549FBAC4A8A828B838CF0124E85F53C
:200CBF0082C004C003C0021249E474022548F54BE43549F54C854A4D854B82854C83854DB1
:200CDF00F0124E85F5821249E490523175F080124AA290070812492A758280124A83758203
:200CFF00C0124A83D002D003D00430330122C004C003C002120777D002D003D00440012282
:200D1F0090F004E49370012275441375454F75468075420F7543019051F175F080C004C05C
:200D3F0003C00212082390001CE4F0120906D002D003D0044001229051F575F080C004C0D6
:200D5F0003C0021248DAD002D003D00490F006E493600678FC7951800478FF79517F808815
:200D7F008289838FF0C004C003C0021248DA90523575F0801248DAD002D003D004E5477085
:200D9F001890524575F080C004C003C0021248DAD002D003D004020E3774FFB5471790526B
:200DBF004E75F080C004C003C0021248DAD002D003D0048063758223C004C003C00212484B
:200DDF008BD002D003D004AE477F0075190A8F1A8E828F83C007C006C004C003C002124EE3
:200DFF00D7A982743029F58212488BD002D003D004D006D00775190A751A008E828F83C07A
:200E1F0004C003C002124EA1AE8274302EF58212488BD002D003D00490525775F080C00470
:200E3F00C003C0021248DA854882854983854AF0124E85F5821248A0D002D003D0048A82A0
:200E5F008B838CF0124E85F5821248A0854B82854C83854DF0124E85F5821248A07544E03C
:200E7F0075455175468075427875430190519A75F080020823AF82752C00BFA100500FEF18
:200E9F00241CF582E43400F5830FE4F080EC2290001CE4F0120906400122904F2475F0808F
:200EBF001248DA75445C75455275468075423275430190519A75F0800208237544137545CE
:200EDF004F75468075420F7543019051F175F0801208235034758200120E94752C00900294
:200EFF002A740AF075447775455275468075420F75430190526D75F08012082350099000EB
:200F1F0020E0FF900225F0D322C32275448D75455275468075421975430290528275F080D2
:200F3F001208234001227544A675455275468075420F75430190529B75F0801208234001ED
:200F5F002290022A740CF07544C275455275468075420A75433C9052B775F08012082340B2
:200F7F0001229003E812492A758200120E94752C0090022A7402F07544DD754552754680E4
:200F9F0075420F7543019052D375F08012082340012290001FE024D075F00AA4FF90002034
:200FBF00E02F24D0F534900022E024D075F00AA4FF900023E02F24D0F533900025E024D0E7
:200FDF0075F00AA4FF900026E02F24D0F532900028E024D075F00AA4FF900029E02F24D0A6
:200FFF00F53090002BE024D075F00AA4FF90002CE02F24D0F52F90002EE024D075F00AA484
:20101F00FF90002FE02F24D0F52E853319751A00900017124DF2751909751A00124ED7AE6A
:20103F0082AF83AC327D00EC2EFEED3FFFE53324FD5013740355347D004DB401009234E47A
:20105F0033FC7D0080047C027D00EC2EFEED3FFFAC347D00EC2EFEED3FFF8C828D83A3A3FF
:20107F00A37519048D1AC007C006124ED7AC82AD83D006D007EC2EFEED3FFF8E828F83A39E
:20109F00751907751A00124E0FE58204F531C3E53494189234402AE534249C92344022C391
:2010BF00E533940192344019E53324F392344011C3E532940192344008E53224E092345051
:2010DF0004C2348002D234A2349203227544F675455275468075420F7543019052EB75F03B
:2010FF008002082375441275455375468075420F75430190530775F0801208234003021130
:20111F00B675443675455375468075420F75430190532375F08012082340030211B6754457
:20113F005475455375468075420F75430190534775F080120823505F90022A740EF0758255
:20115F0000120E94752C0075446D75455375468075420F75430190536575F0801208235074
:20117F0034900226E4F07F00EF241CF582E43400F583E0FEBE2C02801CEF241CF582E434B7
:20119F0000F5830FE024D0FE900226E0FD75F00AA42EF080D3D322C322C028C0E0C0F0C0EC
:2011BF0082C083C007C006C005C004C003C002C001C000C0D075D0102098030223D543C191
:2011DF0010900228E0900227F090022BE0242CF582E43402F583E599F090022BE0FF242C4D
:2011FF00F582E43402F583E0FEBE4E02800302133E8F147D00740C2CF582E43DF58375199B
:20121F000D8D1AC017C016C015C01475D000124EA175D010AA82AB83D014D015D016D0171A
:20123F00EA242CF582EB3402F583E0FBBB4902800302133E740B2CF582E43DF58375190D38
:20125F00751A00C017C016C015C01475D000124EA175D010AA82AB83D014D015D016D017FF
:20127F00EA242CF582EB3402F583E0FBBB2002800302133E740A2CF582E43DF58375190D22
:20129F00751A00C017C016C015C01475D000124EA175D010AA82AB83D014D015D016D017BF
:2012BF00EA242CF582EB3402F583E0FBBB547074092CF582E43DF58375190D751A00C017B1
:2012DF00C016C015C01475D000124EA175D010AA82AB83D014D015D016D017EA242CF58234
:2012FF00EB3402F583E0FBBB4F3574082CF582E43DF58375190D751A00C017C01675D00048
:20131F00124EA175D010AC82AD83D016D017EC242CF582ED3402F583E0FDBD4E02D22F9064
:20133F00022AE0FD24F050030223C1ED240A83F582ED241483F583E47330C169D5C1ADC14E
:20135F00C19A10C65AD6C178531623151E232023232222141513231323AC2C052CEC241C7E
:20137F00F582E43400F583E599F07420B5993490022BE0FC7B00740C2CF582E43BF5837580
:20139F00190D8B1A75D000124EA175D010AB82AC83EB242CF582EC3402F583E0FCBC3A034B
:2013BF00752C00742CB5990280030223C190022AE4F0F52C0223C17456B5996E8F137C00D9
:2013DF00740C2BF582E43CF58375190D8C1AC017C014C01375D000124EA175D010A982AA05
:2013FF0083D013D014D017E9242CF582EA3402F583E0FABA4534740B2BF582E43CF583751A
:20141F00190D751A00C01775D000124EA175D010AB82AC83D017EB242CF582EC3402F583F7
:20143F00E0FCBC4705D22D0223C17452B5990280030223C18F137C00740C2BF582E43CF5F0
:20145F008375190D8C1AC014C01375D000124EA175D010A982AA83D013D014E9242CF58298
:20147F00EA3402F583E0FABA4F0280030223C1740B2BF582E43CF58375190D751A0075D03F
:20149F0000124EA175D010AB82AC83EB242CF582EC3402F583E0FCBC520280030223C1904A
:2014BF000227E4F00223C1AC2C052CEC241CF582E43400F583E599F07422B5993490022BAB
:2014DF00E0FC7B00740C2CF582E43BF58375190D8B1A75D000124EA175D010AB82AC83EBBA
:2014FF00242CF582EC3402F583E0FCBC2003752C00742CB5990280030223C190022BE0FC1E
:20151F007B00740C2CF582E43BF58375190D8B1A75D000124EA175D010AB82AC83EB242C05
:20153F00F582EC3402F583E0FCBC220280030223C190022AE4F0F52C0223C17431B59902CA
:20155F0080030223C1D22D0223C1AC2C052CEC241CF582E43400F583E599F0744BB5996700
:20157F0090022BE0FB7C00740C2BF582E43CF58375190D8C1AC014C01375D000124EA175DB
:20159F00D010A982AA83D013D014E9242CF582EA3402F583E0FABA4C2E740B2BF582E43C96
:2015BF00F58375190D751A0075D000124EA175D010AB82AC83EB242CF582EC3402F583E047
:2015DF00FCBC4303752C00740DB5990280030223C190022BE0FC7B00740C2CF582E43BF5C8
:2015FF008375190D8B1A75D000124EA175D010AB82AC83EB242CF582EC3402F583E0FCBC2E
:20161F00220280030223C190022AE4F0F52C0223C1743EB5991290519A75F08075D00012BE
:20163F0048DA75D0100223C1BE470280030217218F137C00740C2BF582E43CF58375190DF7
:20165F008C1AC017C016C015C014C01375D000124EA175D010A982AA83D013D014D015D02D
:20167F0016D017E9242CF582EA3402F583E0FABA4E028003021721740B2BF582E43CF583AC
:20169F0075190D751A00C017C016C015C014C01375D000124EA175D010A982AA83D013D032
:2016BF0014D015D016D017E9242CF582EA3402F583E0FABA494C740A2BF582E43CF58375A7
:2016DF00190D751A00C017C016C01575D000124EA175D010AB82AC83D015D016D017EB24FC
:2016FF002CF582EC3402F583E0FCBC521575DB0090537475F08075D0001248DA75D0100233
:20171F0023C1E4BE3A0104FC70030218EC8F127B00740C2AF582E43BF58375190D8B1AC09C
:20173F0017C016C015C014C013C01275D000124EA175D010A882A983D012D013D014D015D0
:20175F00D016D017E8242CF582E93402F583E0F9B952028048740C2AF582E43BF583751963
:20177F000D751A00C017C016C015C014C013C01275D000124EA175D010A882A983D012D010
:20179F0013D014D015D016D017E8242CF582E93402F583E0F9B9460280030218EC740B2A2F
:2017BF00F582E43BF58375190D751A00C017C016C015C014C013C01275D000124EA175D04C
:2017DF0010A882A983D012D013D014D015D016D017E8242CF582E93402F583E0F9B942020D
:2017FF0080030218EC740A2AF582E43BF58375190D751A00C017C016C015C014C013C01266
:20181F0075D000124EA175D010A882A983D012D013D014D015D016D017E8242CF582E93491
:20183F0002F583E0F9B9500280030218EC74092AF582E43BF58375190D751A00C017C01616
:20185F00C015C014C013C01275D000124EA175D010A882A983D012D013D014D015D016D0E6
:20187F0017E8242CF582E93402F583E0F9B9435D74082AF582E43BF58375190D751A00C01C
:20189F0017C016C015C01475D000124EA175D010AA82AB83D014D015D016D017EA242CF5D9
:2018BF0082EB3402F583E0FBBB2B229000BBE0FB24F650099000BB740BF00223C1D202906E
:2018DF00022A7408F0C2137529000223C1EC7003021A3C8F137C00740C2BF582E43CF58369
:2018FF0075190D8C1AC017C016C015C014C01375D000124EA175D010A982AA83D013D014A5
:20191F00D015D016D017E9242CF582EA3402F583E0FABA49028003021A3C740B2BF582E4EF
:20193F003CF58375190D751A00C017C016C015C014C01375D000124EA175D010A982AA838E
:20195F00D013D014D015D016D017E9242CF582EA3402F583E0FABA54028003021A3C740A64
:20197F002BF582E43CF58375190D751A00C017C016C015C014C01375D000124EA175D01020
:20199F00A982AA83D013D014D015D016D017E9242CF582EA3402F583E0FABA4D02800302A7
:2019BF001A3C74092BF582E43CF58375190D751A00C017C016C015C014C01375D000124E03
:2019DF00A175D010A982AA83D013D014D015D016D017E9242CF582EA3402F583E0FABA4302
:2019FF003C74082BF582E43CF58375190D751A00C017C016C01575D000124EA175D010ABE4
:201A1F0082AC83D015D016D017EB242CF582EC3402F583E0FCBC2B05D2110223C1E4BE20A5
:201A3F000104FC7003021BEB8F127B00740C2AF582E43BF58375190D8B1AC017C016C01575
:201A5F00C014C013C01275D000124EA175D010A882A983D012D013D014D015D016D017E8BA
:201A7F00242CF582E93402F583E0F9B93A028003021BEB740B2AF582E43BF58375190D75C9
:201A9F001A00C017C016C015C014C013C01275D000124EA175D010A882A983D012D013D08C
:201ABF0014D015D016D017E8242CF582E93402F583E0F9B94C028003021BEB740A2AF58271
:201ADF00E43BF58375190D751A00C017C016C015C014C013C01275D000124EA175D010A8E8
:201AFF0082A983D012D013D014D015D016D017E8242CF582E93402F583E0F9B9470280031A
:201B1F00021BEB74092AF582E43BF58375190D751A00C017C016C015C014C013C01275D07F
:201B3F0000124EA175D010A882A983D012D013D014D015D016D017E8242CF582E93402F5BC
:201B5F0083E0F9B94D028003021BEB74082AF582E43BF58375190D751A00C017C016C01517
:201B7F00C014C013C01275D000124EA175D010A882A983D012D013D014D015D016D017E899
:201B9F00242CF582E93402F583E0F9B9433E74072AF582E43BF58375190D751A00C017C041
:201BBF0016C015C01475D000124EA175D010AA82AB83D014D015D016D017EA242CF582EB20
:201BDF003402F583E0FBBB2B03021D7FEC7003021DCC8F137C00740C2BF582E43CF583753F
:201BFF00190D8C1AC017C016C015C014C01375D000124EA175D010A982AA83D013D014D047
:201C1F0015D016D017E9242CF582EA3402F583E0FABA3A028003021DCC740B2BF582E43CFC
:201C3F00F58375190D751A00C017C016C015C014C01375D000124EA175D010A982AA83D0F7
:201C5F0013D014D015D016D017E9242CF582EA3402F583E0FABA50028003021DCC740A2B77
:201C7F00F582E43CF58375190D751A00C017C016C015C014C01375D000124EA175D010A99F
:201C9F0082AA83D013D014D015D016D017E9242CF582EA3402F583E0FABA49028003021D34
:201CBF00CC74092BF582E43CF58375190D751A00C017C016C015C014C01375D000124EA1E9
:201CDF0075D010A982AA83D013D014D015D016D017E9242CF582EA3402F583E0FABA4C0295
:201CFF008003021DCC74082BF582E43CF58375190D751A00C017C016C015C014C01375D009
:201D1F0000124EA175D010A982AA83D013D014D015D016D017E9242CF582EA3402F583E055
:201D3F00FABA43028003021DCC74072BF582E43CF58375190D751A00C017C016C01575D077
:201D5F0000124EA175D010AB82AC83D015D016D017EB242CF582EC3402F583E0FCBC2B4DA4
:201D7F008F137C0074092BF582E43CF58375190D8C1A75D000124EA175D010AB82AC83EB4C
:201D9F00242CF582EC3402F583E0FCBC4C03D38001C392094006300F030223C1C20DC20A21
:201DBF00C20BC20C90022A7403F00223C1BE4B028003021E5D8F137C00740C2BF582E43CF5
:201DDF00F58375190D8C1AC017C016C01575D000124EA175D010AB82AC83D015D016D01700
:201DFF00EB242CF582EC3402F583E0FCBC4F4FBD0203752C00A22EB3922DC22E300223ACAC
:201E1F002C7D001CBCFF011DEC241CFCED3400FD8C828D83E0240AFB8C828D83F0C2137540
:201E3F002C00E52C70030223C1752C0090534775F08075D0001248DA75D0100223C1BE5477
:201E5F000280030223C18F147D00740C2CF582E43DF58375190D8D1AC015C01475D00012DA
:201E7F004EA175D010AA82AB83D014D015EA242CF582EB3402F583E0FBBB4F028003022303
:201E9F00C1740B2CF582E43DF58375190D751A0075D000124EA175D010AC82AD83EC242C48
:201EBF00F582ED3402F583E0FDBD4E0280030223C1D22E0223C1200D03021FB8E52C704DE1
:201EDF00740DB5990280030223C1300907D201752B02052A200912900219E0FDBD020A90A9
:201EFF00021AE0FDBD02004004C2358002D235A2359210200906300A0B20100890022AE482
:201F1F00F00223C190022A7405F00223C1740AB52C607422B5995B9000017430F090000B03
:201F3F00E4F090000275F00075D00012042275D010E582FDB40100920AED600A90000CE05D
:201F5F00FCBC4D028004C2358002D235A235920CED600F90000CE0FDBD6D028009BD4D024C
:201F7F008004C2358002D235A235920B752C000223C174F6252C400EE52C2401F582E43475
:201F9F0000F583E599F0E52C24F55008752C00D20A0223C1052C0223C130093CBE30398F15
:201FBF00147D00740C2CF582E43DF58375190D8D1AC017C01675D000124EA175D010AC82FD
:201FDF00AD83D016D017EC242CF582ED3402F583E0FDBD2203022093BE34028003022098F2
:201FFF008F147D00740C2CF582E43DF58375190D8D1AC015C01475D000124EA175D010AAB6
:20201F0082AB83D014D015EA242CF582EB3402F583E0FBBB3863740B2CF582E43DF583757D
:20203F00190D751A00C015C01475D000124EA175D010AA82AB83D014D015EA242CF582EBC9
:20205F003402F583E0FBBB2B30740A2CF582E43DF58375190D751A0075D000124EA175D053
:20207F0010AC82AD83EC242CF582ED3402F583E0FDBD2205D20D752C01740DB599028003EF
:20209F000223C190022AE4F075DB490223C1300E43743BB599028021740DB59902801A742C
:2020BF0060252C4014AD2C052CED241CF582E43400F583E599F00223C1E52C241CF582E4BE
:2020DF003400F583E4F0F52CC20E90022AE4F0D20F0223C1300C030221F53010030221F567
:2020FF00BE2C0280030221F18F147D00740C2CF582E43DF58375190D8D1AC015C01475D032
:20211F0000124EA175D010AA82AB83D014D015EA242CF582EB3402F583E0FB90F003E49308
:20213F00FAEBB5120280030221F1740B2CF582E43DF58375190D751A00C015C01475D00068
:20215F00124EA175D010AA82AB83D014D015EA242CF582EB3402F583E0FB90F002E493FACF
:20217F00EBB5126E740A2CF582E43DF58375190D751A00C015C01475D000124EA175D010F8
:20219F00AA82AB83D014D015EA242CF582EB3402F583E0FB90F001E493FAEBB51234740983
:2021BF002CF582E43DF58375190D751A0075D000124EA175D010AC82AD83EC242CF582ED01
:2021DF003402F583E0FD90F000E493FCEDB514028004C2358002D235A235920E740DB59960
:2021FF000280030223C1752C0190022AE4F00223C1743EB5990A90022AE4F0D22D0223C1BE
:20221F00BE520280030223C18F157E00740C2DF582E43EF58375190D8E1AC016C01575D011
:20223F0000124EA175D010AB82AC83D015D016EB242CF582EC3402F583E0FCBC5202800347
:20225F000223C1740B2DF582E43EF58375190D751A0075D000124EA175D010AD82AE83EDAA
:20227F00242CF582EE3402F583E0FEBE450280030223C1900227E4F00223C17422B5990237
:20229F008003022324D2137E00740C2FF582E43EF58375190D8E1A75D000124EA175D01052
:2022BF00AE82AF83EE242CF582EF3402F583E0FFBF2C21AE2C7F001EBEFF011FEE241CFEE0
:2022DF00EF3400FF8E828F83E02411FD8E828F83F00223C1AE2C7F001EBEFF011FEE241C0F
:2022FF00FEEF3400FF8E828F83E0241BFD8E828F83F09000BBE0FF0F9000BBEFF090022A30
:20231F00E4F00223C1E59924D040030223C120130FE52975F00AA4FFE599FE2F24D0F5292A
:20233F00AF2C052CEF241CF582E43400F583E599F00223C1AF2C052CEF241CF582E434001E
:20235F00F583E599F07422B5993690022BE0FF7E00740C2FF582E43EF58375190D8E1A75CC
:20237F00D000124EA175D010AE82AF83EE242CF582EF3402F583E0FFBF2C05852D2C802215
:20239F007422B5991DAE2C7F001EBEFF011FEE241CF582EF3400F583E4F0F52C90022AF0E8
:2023BF00D22D90022BE02401F0E0FF24F3500590022BE4F0C298D0D0D000D001D002D00331
:2023DF00D004D005D006D007D083D082D0F0D0E0D02832C2127F00EF241CFDE43400FE0FA5
:2023FF008D828E83E0600543C11080EBBFA000500FEF241CF582E43400F5830FE4F080EC97
:20241F0090001CE0FFBF3F02800890001DE0FEBE3F06200A03020EAEBF4203022AD0BF430F
:20243F0003022B6ABF4403022686BF4703022B53BF4B0302251FBF4C030228A5BF50030262
:20245F002606BF520302258CBF53028050BF5503022A5DBF5803022692BF6203022AD0BF33
:20247F006303022B6ABF6403022686BF6703022B53BF6B0302251FBF6C030228A5BF700321
:20249F00022606BF720302258CBF7302800FBF7503022A5DBF7803022692022D6D90F0066F
:2024BF00E49330E006200B03022D7690F006E49330E00D1247599000C9E05402F01247F108
:2024DF00D216D2A2C20890006412492AC2A2A2A2921690F004E493600C90537D75F0801230
:2024FF000B3F022D7675448C75455375468075420375430190519A75F080120823022D768C
:20251F00200B03022D7690001DE0FFBF50028003BF7038124759900020E0FFBF4E0280036F
:20253F00BF6E129000C9E04402F090539C75F080120B3F80109000C9E05401F09053AB75FD
:20255F00F080120B3F1247F1022D761247599000C9E04401F01247F1D2A2D20890000BE46A
:20257F00F09053B875F080120B3F022D76200B03022D7690001EE0FF900020E0FEEFB50633
:20259F0058BF72028003BF5250300C4D9053C775F080120B3F7582001205D7900200124769
:2025BF004175180090032C1247261247599000C67430F09000C5F09000C4F09000C3F090F8
:2025DF0000C9E4F09000C8F09000CAF09000C704F01247F1C214022D769053DE75F08012E5
:2025FF000B3FC2A0022D76200B03022D76900020E0FFBF30004064EF24C6405F900021E06D
:20261F00FFBF30004055EF24C64050900022E0FFBF30004046EF24C64041900023E0FFBFFE
:20263F0030004037EF24C64032124759900020E09000C3F0900021E09000C4F0900022E09D
:20265F009000C5F0900023E09000C6F01247F19053F175F080120B3F022D7690540875F0E8
:20267F0080120B3F022D76200B03022D76120A4B022D7690001DE0FFBF6F028008BF4F0287
:20269F008003022829200B03022D76900020E0FEBE3000500302281DEE24C6500302281DEA
:2026BF00900021E0FDBD30004005ED24C65006ED600302281D900022E0FCBC30004005ECCC
:2026DF0024C65006EC600302281DBE30057B00022782ED70098E02EA24D0FB022782EC7016
:2026FF00138E02EA24D075F00AA4FA8D01E92A24D0FB806FC0068D017A00E924D0F519EA0B
:20271F0034FFF51A90000AC006C005C004124DF2A982AA83D004D005D0068C007E00E8292C
:20273F00F9EE3AFAE924D0F9EA34FFFAC374329974808AF063F08095F0D0065011EE24FE63
:20275F00500C90540875F080120B3F022D76EE24D075F064A4FEED24D075F00AA42EFE2C93
:20277F0024D0FBEB700302280C90F008E493FEC39B407A8B057E00ED24FFF519EE34FFF560
:20279F001A90000AC006C005C003124DF2E5828583F0D003D005D0062409FAE435F0FCEAD4
:2027BF002409F582EC34F0F583E493FCBC4D028030ED24FFF519EE34FFF51A90000AC003F5
:2027DF00124DF2E5828583F0D0032409FDE435F0FEED2409F582EE34F0F583E493FEBE6D6B
:2027FF000C90541B75F080120B3F022D768B821205D790543C75F080120B3F022D769054E4
:20281F000875F080120B3F022D76BF75028003BF556830080C90545475F080120B3F022D8A
:20283F0076D21690F005E4936010D2A390006412492AC2A3A2A39216800ED2A19000641268
:20285F00492AC2A1A2A1921690000BE4F090F00493600C90546875F080120B3F022D7675FF
:20287F00448C75455375468075420375430190519A75F080120823022D7690547875F0802B
:20289F00120B3F022D7690001DE0FFBF75028008BF550280030229E1200B03022D769000C6
:2028BF0020E0FEBE300050030229D5EE24C650030229D5900021E0FEBE300050030229D5BF
:2028DF00EE24C650030229D5900022E0FEBE300050030229D5EE24C650030229D5900023FF
:2028FF00E0FEBE300050030229D5EE24C650030229D5900024E0FEBE300050030229D5EEAE
:20291F0024C650030229D5900025E0FEBE300050030229D5EE24C650030229D5900026E0C6
:20293F00FEBE300050030229D5EE24C650030229D5900027E0FEBE300050030229D5EE2426
:20295F00C64073900028E0FEBE30004069EE24C64064900029E0FEBE3000405AEE24C640FF
:20297F005590002AE4F090002175F000120422E582600C90548B75F080120B3F022D76904F
:20299F00002BE0FEBE6D067D6D7E0080047D757E008D3990002175F0001204F3500C90545D
:2029BF00A775F080120B3F022D769054C075F080120B3F022D769054D075F080120B3F02EA
:2029DF002D76BF65028003BF456830080C90545475F080120B3F022D76D21690F005E493DA
:2029FF006010D2A190006412492AC2A1A2A19216800ED2A390006412492AC2A3A2A3921640
:202A1F0090000BE4F090F00493600C9054E475F080120B3F022D7675448C7545537546806A
:202A3F0075420375430190519A75F080120823022D7690547875F080120B3F022D76200B55
:202A5F0003022D76900020E0FFBF42028012BF6202800D900021E0FEBE6E028003BE4E1A75
:202A7F001247599000CA740AF01247F1D2C29054F175F080120B3F022D76BF5402800DBFC3
:202A9F0074028008BE66028003BE46191247599000CAE4F01247F1C2C29054FA75F08012D0
:202ABF000B3F022D7690547875F080120B3F022D76200B03022D7690001FE0FF600690006F
:202ADF001EE0700C90550375F080120B3F022D76BF42028012BF6202800D900020E0FEBEFE
:202AFF006E028003BE4E181247599000C77401F01247F190551775F080120B3F022D76BF47
:202B1F005402800DBF74028008BE66028003BE461790552475F080120B3F1247599000C7DF
:202B3F00E4F01247F1022D7690547875F080120B3F022D76200B03022D7690000BE4F0909F
:202B5F00000175F000120961022D7690001DE0FFBF67028008BF47028003022D62200B0349
:202B7F00022D7690001FE0FFBF30005003022D57EF24C65003022D57900020E0FEBE30000D
:202B9F005003022D57EE24C65003022D57900021E0FDBD30005003022D57ED24C65003020C
:202BBF002D57900022E0FCBC30005003022D57EC24C65003022D57900023E0FBBB300050A7
:202BDF0003022D57EB24C65003022D57900024E0FABA30005003022D57EA24C65003022DF8
:202BFF0057900025E0F9B930005003022D57E924C65003022D57900026E0F8B8300050039A
:202C1F00022D57E824C65003022D57900027E0F54EC394305003022D57E54E24C6500302B8
:202C3F002D57900028E0F54FC394305003022D57E54F24C65003022D57EF24D075F00AA4C8
:202C5F002E24D0FFED24D075F00AA42C24D0FEEB24D075F00AA42A24D0FDE924D075F00AC9
:202C7F00A42824D0FCE54E24D075F00AA4254F24D0FBEF24E84019EE24C44014BD01004060
:202C9F000FED24E0400ABC01004005EC24F3500C90553175F080120B3F022D768F308E2FF2
:202CBF00752E008D328C338B34853319751A00900017124DF2751909751A00124ED7AE8230
:202CDF00AF83AC327D00EC2EFEED3FFFE53324FD5013740355347D004DB401009236E4330B
:202CFF00FC7D0080047C027D00EC2EFEED3FFFAC347D00EC2EFEED3FFF8C828D83A3A3A3D3
:202D1F007519048D1AC007C006124ED7AC82AD83D006D007EC2EFEED3FFF8E828F83A3750F
:202D3F001907751A00124E0FE58204F53190554375F080120B3F801F90553175F080120BA5
:202D5F003F801490547875F080120B3F800990540875F080120B3F43C1107F00EF241CFD6F
:202D7F00E43400FE8D828E83E0600FEF241CF582E43400F5830FE4F080E22290021CE0FF85
:202D9F0090F000E4937D0024D0FEED34FFFD7C00EFB5065DECB5055990021DE0FF90F00100
:202DBF00E4937D0024D0FEED34FFFD7C00EFB50640ECB5053C90021EE0FF90F002E4937DA4
:202DDF000024D0FEED34FFFD7C00EFB50623ECB5051F90021FE0FF90F003E4937D0024D0BC
:202DFF00FEED34FFFD7C00EFB50606ECB505028004C2378002D237A23722AF8290F008E425
:202E1F00937003F582227E0090F008E493FDC3EE9D50668F047D008E027B00EA2CFCEB3D21
:202E3F00FD90F008E493FB8B19751A008C828D83C007C006124EA1AC828C19751A009000AB
:202E5F000AC004124DF2E5828583F0D004D006D0072409FBE435F0FDEB2409F582ED34F086
:202E7F00F583E493FD600FBD4D02800ABD6D028005EC04F582220E808F758200222016019B
:202E9F00227557007E009001F3E0035480FD9001F4E0030354C02DFD9001F5E0C42354E045
:202EBF002DFD9001F6E0C454F02DF5509001F7E0C40354F8FD9001F8E025E025E02DFD9043
:202EDF0001F9E025E02DFD9001FAE02DAC502CF5509001FBE0035480FD9001FCE0030354BE
:202EFF00C02DFD9001FDE0C42354E02DFD9001FEE0C454F02DF5519001FFE0C40354F8FDAC
:202F1F00900200E025E025E02DFD900201E025E02DFD900202E02DAC512CF551301A3A9026
:202F3F000203E0C40354F8FD900204E025E025E02DFD900205E025E02DFD900206E0FC2D8C
:202F5F00F552900208E0FD8D54900209E0FD8D5590020AE0FD8D568018755200900209E023
:202F7F00FD8D54900205E0FD8D55900203E0FD8D56900207E0FD8D53758250C00612488B61
:202F9F00A21AE4332430F58212488B75822D12488B8550821248A08551821248A08552828A
:202FBF001248A075822D12488BAD5374302DF58212488BAD5474302DF58212488BAD55741E
:202FDF00302DF58212488BAD5674302DF58212488B75822D12488B9001F2E0FD7C00751976
:202FFF000A8C1A8D828C83124ED7AC8274302CF58212488B9001F2E0FD7C0075190A8C1A39
:20301F008D828C83124EA1AC8274302CF58212488B75822D12488BD0067D00E5576003021B
:20303F0031D690F32CE493FC7B0074022CFCE43BFB8D58755900C3E5589CE55964808BF029
:20305F0063F08095F040030231D6BD0200400302310B85581985591A900003C006C005124F
:20307F004DF2AB82AC83D005D0068B0274F22CFF8A828F83E493702574012BFAE43C24F2D3
:20309F00FF8A828F83E493701474022BFBE43C24F2FC8B828C83E49370030231D28D197505
:2030BF001A00900003C006C005124DF2AC82AF83D005D0068C8274F22FF583E493FBBBFF16
:2030DF002B74012CFAE43FFB8A8274F22BF583E493FBBBFF1774022CFCE43FFF8C8274F261
:2030FF002FF583E493FFBFFF030231D2AF508D037C008B198C1A900003C007C006C005C0D4
:20311F0004C003124DF2858258858359D003D004D005D006D00785588274F22559F583E4F0
:20313F0093FAEFB5022E74012558FAE43559FF8A8274F22FF583E493FFB551187402255812
:20315F00FAE43559FF8A8274F22FF583E493FFB552028004C2398002D239A239E433F55703
:20317F006051BD020050098D0774022FF55780058D07EF14FE75190A751A008B828C83C0C5
:20319F0006C005C004C003124ED7AA8274302AF58212488BD003D00475190A751A008B8256
:2031BF008C83124EA1AC8274302CF58212488BD005D0060D02303A75822DC00612488BAFE4
:2031DF005774302FF58212488B75822D12488BD006900219E0FFBF02028003023357E557D3
:2031FF0060030233272014291247A59000C3E550F09000C4E551F09000C5E552F012482F9F
:20321F00754700C23390005075F040120BF902335290021AE0FDE060030232F590F32CE434
:20323F0093249E501290555175F080124AA29007D012492A0233521247A59001EFE0FC8C46
:20325F0019751A00900003124DF2E5828583F02406FBE435F0FCEB24C3F582EC3400F58359
:20327F00E550F09001EFE0FC8C19751A00900003124DF2E5828583F02407FBE435F0FCEB21
:20329F0024C3F582EC3400F583E551F09001EFE0FC8C19751A00900003124DF2E582858310
:2032BF00F02408FBE435F0FCEB24C3F582EC3400F583E552F09001EFE0FC0C9001EFECF007
:2032DF0012482F9001EFE0F547C23390005075F040120BF9805DBD015A1247A59000C6E5EC
:2032FF0050F09000C7E551F09000C8E552F012482F120777503D90F004E4936036905562F5
:20331F0075F080120B3F802B7402B557067C007D0080137403B557067AFF7B0080048E02FD
:20333F007B008A048B058C47D23390005075F040120BF9C2170235C7BF0602800302344FBC
:20335F00900019E060030235C790F32CE49370030235C790001BE0FF90F32CE493FEC3EF6D
:20337F009E40030235C7AE508F057F0074022DF519E43FF51A900003C007C006C005124D17
:20339F00F2AB82AC83D005D006D0078B8274F22CF583E493FCEEB50468AE5174022DF519F5
:2033BF00E43FF51A900003C007C006C005124DF2E5828583F0D005D006D0072401FBE4356C
:2033DF00F0FC8B8274F22CF583E493FCEEB50431AE5274022DF519E43FF51A900003C00644
:2033FF00124DF2E5828583F0D0062402FDE435F0FF8D8274F22FF583E493FFEEB50702803F
:20341F0004C2388002D2387582C0124A1E3038067E7C7F5580047E8D7F557D808E828F8314
:20343F008DF0124AA29003E812492AD2310235C7E55770030235C77402B5570474018001C8
:20345F00E4FF60511024028031758200C0071205D790020012474175180090032C1247262F
:20347F001247599000C67430F09000C5F09000C4F09000C3F01247F1D0071008028016C034
:20349F0007120777D007500D90559E75F080C007120B3FD00730191BE555600302356EC278
:2034BF0019C0071247A59001F0E4F012482FD00702356EE5537015D219C0071247A59001B7
:2034DF00F07401F012482FD00702356E30080302356EE555B401009239E43324FF92A2105B
:2034FF00040280089000C2E0FE243CF090F005E493602FE554700330A204C2398002D2390A
:20351F00A239E43324FF92A1E556700620A10330A204C2398002D239A239E43324FF92A327
:20353F00802DE554700330A204C2398002D239A239E43324FF92A3E556700620A30330A222
:20355F0004C2398002D239A239E43324FF92A1E553700D90020FE02401F0900210740AF01D
:20357F0030084590020FE0FE24E24007EF6039E55470351247599000C9E4F01247F1C2088A
:20359F00C2A290F005E493600CD2A190006412492AC2A1800AD2A390006412492AC2A39084
:2035BF000210E4F090020FF0C215C216227593007594FF7592007591007595007596FF75FE
:2035DF00B20075B10075B30275B41C75CA0075C90075C00075B0FF75A00075B881759700E0
:2035FF00D2AF9000C2741EF0752A009000BD740AF09000BE7402F09000BFF09000C0F0903A
:20361F0000C1F0900218F0900216F09002177406F0900219E4F0C22F900210E4F090020F0E
:20363F00F090021504F0D2041247599000C7E024FE50069000C77401F09000C9E024FC5044
:20365F00059000C9E4F09000C8E024FE50059000C8E4F09000CAE024F550059000CAE4F068
:20367F009000CBE024EB50059000CBE4F09000C3E0FFBF30004032EF24C6402D9000C4E050
:20369F00FFBF30004023EF24C6401E9000C5E0FFBF30004014EF24C6400F9000C6E0FFBFF0
:2036BF0030004005EF24C650129000C67430F09000C5F09000C4F09000C3F01247F190F0BB
:2036DF0007E49324FF92C21247A59001EFE0249C50059001EFE4F09001F0E024FE500590A7
:2036FF0001F0E4F012482F90138812492A12487312009F124B0C202F0E120EDA5009120FF5
:20371F002A1210EB12110390021B743CF09000017430F090000BE4F01207779214C23A30EA
:20373F0014099055BC75F080120B3F101D028003120F2A301C2590F007E493601EC21C9013
:20375F00F007E493FFBF0102C2C21247599000CAE0FF1F9000CAEFF01247F190021BE0700D
:20377F0033900219E0602D90021AE4F0900219F0900019F090021FF090021EF090021DF04B
:20379F0090021CF0900223F0900222F0900221F0900220F0101102802175441375454F75D0
:2037BF00468075420F7543019051F175F0801208239055CB75F0801248DA200F030238A5D7
:2037DF002010030238A5C20FC210900219E0FFBF0202800302388D90021AE0FFBF020040F2
:2037FF000302388D90001CE0FFBF6C028003BF4C0F90001DE0FFBF7502801FBF5502801A7A
:20381F0090001CE0FFBF73028003BF536190001DE0FFBF61028003BF415490000BE4F07F61
:20383F0000EF240DFDE43400FEEF2401F582E43400F583E0FC8D828E83F00FBF0B0040E135
:20385F0030141290021AE060067E757F00800A7E6D7F0080047E4D7F00900018EEF0A20A9B
:20387F0092009000197401F090021B743CF07544DA75455575468075420F754301905347B6
:20389F0075F080120823300F29900219E070231223F27544DA75455575468075420F7543DF
:2038BF000190534775F080120823C20F75825312488B900215E0700DE5307009E52F24FAD8
:2038DF00500375C760900219E0FF24F9401CEF2F2F9038F473023909023A3F023B760243A4
:2038FF005C024557023F12024180103102803A758280124A1E904F1375F080124AA2755E03
:20391F00EB755F55756080853061852F62852E63A21E923B7582C7124B8D8534648533656E
:20393F008532667582C0124D3E90F006E49320E165900216E0705FC22090021B743CF0907E
:20395F00021AE4F03014499002197401F0758280124A83758280124A1E9055EC75F08012AC
:20397F004AA290021CE02430F58212498290021DE02430F58212498290021EE02430F58274
:20399F0012498290021FE02430F58212498280069002197402F0102802803E303A12D216FF
:2039BF00D2A290006412492AC2A2A2A292168027D21690F005E4936010D2A19000641249EE
:2039DF002AC2A1A2A19216800ED2A390006412492AC2A3A2A39216B23A1024030245E23006
:2039FF003A12D216D2A290006412492AC2A2A2A292168027D21690F005E4936010D2A39037
:203A1F00006412492AC2A3A2A39216800ED2A190006412492AC2A1A2A19216B23A0245E26F
:203A3F0090021AE02404F55A758280124957102003023AD390021AE02401F0E0FFBF047442
:203A5F0090021AE4F0122D9A50269002197402F0900224E4F090021FF090021EF090021DED
:203A7F00F090021CF0124A7D758280124A838044900224E02401F0E0FF24FB5020900219E2
:203A9F00E4F01247599000C9E04402F01247F112077750099055F175F080120B3F75828849
:203ABF00124A1E758258124982900224E02430F582124982102802805090021AE0241CFF2E
:203ADF00E43402FE8F828E83E0FD7C008D828C83A375190A8C1AC007C006124EA1AC82D0A9
:203AFF0006D0078F828E83ECF090021AE02484F582124A1E90021AE0241CF582E43402F555
:203B1F0083E02430F582124982102402801590021AE0FFE06008EF1490021AF08005900227
:203B3F0019E4F01031030245E2755EEB755F55756080853061852F62852E63A21E923B758C
:203B5F0082C7124B8D8534648533658532667582C0124D3E0245E2900019E07003023C7A8B
:203B7F00758280124A1E900019E0FFBF01067E007F5680047E117F567D808E828F838DF010
:203B9F00124AA27582C0124A1E90000D75F000124AA290562275F080124AA2900019E0FF64
:203BBF00BF01028003023C4E302064C224C22090021B743CF030000F900018E0F5399000C7
:203BDF000E75F0001204F37F00EF2401FDE43400FEEF240DF582E43400F583E08D828E837D
:203BFF00F00FBF0B0040E230140B90562975F080120B3F800990563975F080120B3FD2144D
:203C1F009000197402F07582C0124A830245E21024030245E290021B743CF0900019E4F08D
:203C3F00758280124A837582C0124A830245E22020092024062028030245E2C228C224C2B7
:203C5F002090021B743CF0900019E4F0758280124A837582C0124A830245E2755EEB755FB4
:203C7F0055756080853061852F62852E63A21E923B7582C7124B8D853464853365853266AD
:203C9F007582C0124D3E758280124A1E90021AE0FF24F9406EEF2F903CBA73800C802480A3
:203CBF002D8036803F804880513014067E457F5680047E567F567D808E828F838DF0124AA3
:203CDF00A2804090566875F080124AA2803590567975F080124AA2802A90568A75F080122A
:203CFF004AA2801F90569B75F080124AA280149056AC75F080124AA280099056BD75F0809C
:203D1F00124AA2102002801FC22490021AE0FF7E008F828E83A37519078E1A124EA1AE8293
:203D3F00AF8390021AEEF0102802802C90021AE0FFBF0200500890021B743CF0801ABF0672
:203D5F001190021AE4F0900219F0758280124A83800690021A7406F0202403023EB190025C
:203D7F001AE0FF24FE4003023EB1C224758280124A83758280124A1E90021AE0FF24F950B0
:203D9F0003023EB1EF2F2F903DAA73023EB1023EB1023DC8023DDF023DEF023E7590021A43
:203DBF00E4F0900219F0023EB19002197405F0758200122E19E58290001AF0D231023EB12B
:203DDF009002197406F090001BE4F0D231023EB19002197403F09055EC75F080124AA290E6
:203DFF00021CE02430F58212498290021DE02430F58212498290021EE02430F5821249828F
:203E1F0090021FE02430F582124982758220124982758220124982758220124982900220BC
:203E3F00E02430F582124982900221E02430F582124982900222E02430F5821249829002D2
:203E5F0023E02430F58212498275822012498290021AE4F0803C9002197404F090F005E4EC
:203E7F009390021AF09056CE75F080124AA290021AE060067ED67F5680047ED97F567D8095
:203E9F008E828F838DF0124AA29056DC75F080124AA2900217E060030245E290021AE0FF21
:203EBF00BF020040030245E2C22412077750099056DF75F080120B3F7582001205D790026A
:203EDF000012474175180090032C1247261247599000C67430F09000C5F09000C4F09000A9
:203EFF00C3F01247F1C21490021AE4F0900219F00245E2900019E07003023FB9758280120D
:203F1F004A1E900019E0FFBF01067E1A7F5780047E2B7F577D808E828F838DF0124AA2754C
:203F3F0082C0124A1E90000D75F000124AA290573C75F080124AA2900019E0FFBF010280D6
:203F5F00030245E2302033C224C22090021B743CF090001AE0F5821205D7900019E4F0759D
:203F7F008200122E19E58290001AF0758280124A837582C0124A830245E21024030245E2D1
:203F9F0090021B743CF0900019E4F0758280124A837582C0124A830245E21031030240C3DA
:203FBF00758280124A1E90001AE0701B90574575F080124AA27582C0124A1E90575675F0FA
:203FDF0080124AA20240C390576775F080124AA290001AE0FF7E0075190A8E1A8F828E83A5
:203FFF00124ED7AE8274302EF58212498290001AE0FF7E0075190A8E1A8F828E83124EA1AB
:20401F00AE8274302EF58212498275822012498290001AE07E0024FFF519EE34FFF51A903E
:20403F00000A124DF2E5828583F02409FEE435F0FFEE2409F582EF34F0F583E493F5821257
:20405F00498290576C75F080124AA27582C0124A1E7582301249827F0090001AE07D002461
:20407F00FFF519ED34FFF51A90000AC007124DF2AD82AE83D0078F037C00EB2DFDEC3EFEB1
:20409F00ED2409F582EE34F0F583E493F582C007124982D0070FBF090040BE90562275F03B
:2040BF0080124AA2102402801790021B743CF090001AE0F582122E19E58290001AF0D231EB
:2040DF0020280302416790001AE0607CC22890021B743CF090000D7430F07F008F060EEEEE
:2040FF003395E0FDEE240DFEED3400FD90001AE07B0024FFF519EB34FFF51A90000AC007FD
:20411F00C006C005124DF2AB82AC83D005D006D0078F017A00E92BFBEA3CFCEB2409F582FC
:20413F00EC34F0F583E4938E828D83F00FBF090040AA900017E4F090001904F075828012EF
:20415F004A837582C0124A831020030245E29002197402F090021AF0758280124A83024537
:20417F00E2900019E07003024216758280124A1E900019E0FFBF01067E7B7F5780047E8C4C
:20419F007F577D808E828F838DF0124AA27582C0124A1E90579D75F080124AA2900019E06F
:2041BF00FFBF010280030245E230202BC224C22090021B743CF090001BE0F58212066990D0
:2041DF000019E4F090001BF0758280124A837582C0124A830245E21024030245E290021B16
:2041FF00743CF0900019E4F0758280124A837582C0124A830245E21031030242E37582808C
:20421F00124A1E90F32CE493701B9057AE75F080124AA27582C0124A1E90575675F0801277
:20423F004AA20242E39057C075F080124AA290001BE0FF7E008F828E83A375190A8E1A12A3
:20425F004ED7AE8274302EF58212498290001BE0FF7E008F828E83A375190A8E1A124EA1B6
:20427F00AE8274302EF58212498275822F12498290F32CE493FF7E0075190A8E1A8F828E44
:20429F0083124ED7AE8274302EF58212498290F32CE493FF7E0075190A8E1A8F828E8312D8
:2042BF004EA1AE8274302EF58212498290573C75F080124AA27582C0124A1E9057C875F04F
:2042DF0080124AA230243890F32CE4936031C22490021B743CF090001BE0FF7E000FBF00F5
:2042FF00010E90F32CE493FD8D19751A008F828E83124EA1AE82AF8390001BEEF0D23130F7
:20431F00282190F32CE493601AC22890021B743CF09000197401F0758280124A837582C043
:20433F00124A831020030245E29002197402F090021A04F0758280124A830245E2102003C0
:20435F000243F490021AE02401F0E0FFBF0426122D9A401390021AE4F0758288124A1E7582
:20437F008258124982806E758288124A1E7582201249828060BF085D9002197402F09002E5
:20439F001A23F0124759900220E024309000C3F0900221E024309000C4F0900222E02430E3
:2043BF009000C5F0900223E024309000C6F01247F190021FE4F090021EF090021DF09002CA
:2043DF001CF0900223F0900222F0900221F0900220F0124A7D1028030244C590021AE0FF7A
:2043FF002484FE7D007519048D1A8F828D83C006124ED7AD82D006ED75F003A42EF582126F
:20441F004A1E90021AE0FFBF04005044EF241CFDE43402FE8D828E83E0FC7B008C828B835C
:20443F00A375190A8B1AC006C005124EA1AB82D005D0068D828E83EBF090021AE0241CF55D
:20445F0082E43402F583E02430F58212498280561F1F1F1FEF3395E0FEEF2420FFEE340264
:20447F00FE8F828E83E0FD7C008D828C83A375190A8C1AC007C006124EA1AC82D006D0073C
:20449F008F828E83ECF090021AE0FF1F1F1F1FEF3395E0FEEF2420F582EE3402F583E02419
:2044BF0030F582124982102402802F9002197402F090021A23F090021FE4F090021EF090EF
:2044DF00021DF090021CF0900223F0900222F0900221F0900220F0124A7D90021AE0FF24FA
:2044FF0004FE7D007519048D1A8F828D83C006124ED7AD82D006ED75F003A42EF55A758255
:20451F00801249571031030245E2755EEB755F55756080853061852F62852E63A21E923BD2
:20453F007582C7124B8D8534648533658532667582C0124D3E0245E2102802802B90021A4F
:20455F00E0FF7401C39FF0758287124A1E90021AE060067ED67F5680047ED97F567D808E48
:20457F00828F838DF0124AA2102002801A12475990021AE09000C8F01247F1900219740250
:20459F00F090021A7405F0102402800C90021A7405F09002197402F0755EEB755F55756053
:2045BF0080853061852F62852E63A21E923B7582C7124B8D8534648533658532667582C0D7
:2045DF00124D3E122E9C1001030246EC1009030246E9900219E0FFBF02028008BF03028095
:2045FF00030246A075441375454F75468075420F7543019051F175F08012082390000BE4AF
:20461F00F0300A2430141290021AE060067D757E00800A7D6D7E0080047D4D7E008D399061
:20463F00000275F0001204F37E00EE240DFCE43400FDEE2401F582E43400F583E08C828DA8
:20465F0083F00EBE0B0040E29000197402F030140B90562975F080120B3F80099056397504
:20467F00F080120B3F301415120777501090F004E49360099057D975F080120B3FD214803B
:20469F0049200A46EF704330080B9057EA75F080120B3F8035D21690F005E4936010D2A1CF
:2046BF0090006412492AC2A1A2A19216800ED2A390006412492AC2A3A2A3921690000BE4C7
:1346DF00F09057F975F080120B3F75DB4943C11002374A87
:204F13002043432D312E31362020202020202020004D612050696E204D61632044696E681C
:204F3300203A20303030300A436163206C656E6820636875207669657420484F4120686133
:204F530079207468756F6E67206465752064756F630A312E4C656E6820626174207468693B
:204F730065742062690A707070702C626174202D2076692064753A20303030302C6261746B
:204F93000A322E4C656E68207461742074686965742062690A707070702C746174202D20CF
:204FB30076692064753A20303030302C7461740A332E4C656E68206B69656D207472612038
:204FD3007472616E6720746861692074686965742062690A707070702C6B74202D20766992
:204FF3002064753A20303030302C6B740A342E4C656E68207468617920646F69206D61204D
:2050130070696E3A20707070702C70696E2C787878780A7669206475203A20303030302C55
:2050330070696E2C31323334200A5468617920646F69206D612070696E20747520303030F6
:2050530030202D3E20313233340A352E4C656E682072657365742073696D2D67736D0A700A
:205073007070702C72732D2076692064753A20303030302C72730A362E4C656E68206C6982
:205093006574206B652064616E682062610A707070702C64622D2076692064753A203030FB
:2050B30030302C64620A372E4C656E6820786F612064616E682062613A20707070702C78D1
:2050D3006F612C7878780A76643A20303030302C786F612C31352020786F6120736F206447
:2050F30069656E2074686F6169207468752031350A76643A20303030302C786F612C302047
:205113002020786F6120746F616E20626F2064616E682062610A382E4C656E68206C757526
:205133002064616E682062613A20707070702C6C75752C787878787878787878780A766462
:205153003A20303030302C6C75752C303931323334353637380A6C757520736F20646965B3
:205173006E2074686F616920303931323334353637382076616F2064616E68206261002028
:20519300204343412020001A00544B3C31303030204B2042414F43414F0041542B434D4758
:2051B300533D2200220D0020202053454E44494E4720202000415444003B0D002020202092
:2051D30043414C4C494E4720202020200044414E47204755492042414F2043414F00415489
:2051F3000D00204B484F413D004F4E004F4646002052454D4F544520444120434F212020F3
:205213000020444120484F432052454D4F54452120004B432000424420004D413A00202053
:2052330020000D72656D6F746520646320686F6320004B48414E204341500042414F2044F5
:205253004F4E4700204D413A00204755492048554F4E472044414E20200041542B435350F0
:205273004E3F0D002054454E204D414E47200041542B43545A553D310D0020424154204C33
:2052930041592047494F200041542B434F50533D320D002020204E474154204D414E4720E4
:2052B3002020200041542B434F50533D300D002020202054494D204D414E472020202000DF
:2052D30041542B43434C4B3F0D00204C41592047494F20475053200041542B434C49503D3E
:2052F300310D00202053454E44494E4720434C495020200041542B434D47463D310D002015
:205313002053454E44494E4720434D474620200041542B434E4D493D312C312C302C302C3F
:20533300310D00202053454E44494E4720434E4D4920200041542B434D47443D312C340D97
:205353000020205448494554204C415020544E20200041542B4353510D0020534F4E472052
:205373000041542B434855500D000D44756E67206375612063756F6E0020205441542042C9
:20539300414F2043414F2020000D4B686F612062616E207068696D000D4D6F2062616E204E
:2053B3007068696D000D4B686F61206375612063756F6E000D4B686F692074616F206C6185
:2053D30069207468696574206269000D72657365742067736D2073617520313073000D44E3
:2053F3006F69206D612070696E207468616E6820636F6E67000D4C656E68206B686F6E67A8
:2054130020686F70206C65000D4B686F6E672074686520786F6120736F204D6173746572C6
:205433002071756120534D53000D586F612064616E68206261207468616E6820636F6E6712
:20545300000D4375612063756F6E2064616E67206B686F61000D58756F6E6720637561202A
:2054730063756F6E000D4C656E68204B686F6E6720486F70204C65000D536F206E6179204A
:20549300646120636F2074726F6E672064616E68206261000D7468656D2064616E68206262
:2054B30061207468616E6820636F6E67000D42616E6720736F20646120646179000D536FE5
:2054D300206474206B686F6E6720686F70204C65000D4D6F206375612063756F6E000D420C
:2054F300617420555053000D54617420555053000D42616F2063616F207468616E68206336
:205513006F6E67000D4261742062616F2063616F000D5461742062616F2063616F000D473C
:20553300696F206B686F6E6720686F70206C65000D4461206368696E682067696F0020484E
:20555300455420424F204E484F20484F4320000D6D6F64756C652062616F20646F6E672002
:2055730064756F6320686F63004F4B202D2044554E472052454D4F54450058202D204B489A
:2055930041432052454D4F544520000D72656D6F7465206B68616E206361702064756F63EE
:2055B3002073752064756E67000D42444B204B686F6920446F6E670041542B434D474C3DB1
:2055D30022414C4C220D00202044454C4554494E4720534D532020000050494E3A000D532E
:2055F30061692070696E2035206C616E004C555520534F3F204D3A4F4B20423A5800444106
:20561300204C555520534F3A20202020202000202020202020000D4C7575207468616E686F
:2056330020636F6E67000D4C7575204D6173746572004348494E483A20202020202020201D
:205653002020004D41535445523A20202020202020202020005048553A20202020202020AA
:2056730020202020200020202020584F4120534F20202020202000202020584F412052458E
:205693004D4F54452020200020202020444F49202050494E2020202000202048554F4E479E
:2056B30020204D4F544F52202000202020202020455849542020202020200048554F4E478B
:2056D3003A20005048005452004149000D43414E482042414F3A20746869657420626920F9
:2056F3007675612052455345542028786F6120736F2B72656D6F7465292062616E67206EF0
:2057130075742062616D00584F4120534F204E41593F204D3A4F4B00444120584F4120530B
:205733004F2020202020202000202020202020202000284B484F4E4720434F20534F2920CB
:205753002020004D3A74686F617420202020202020202000534F2023002020423A7469654C
:2057730070202B3A786F6100584F412052454D4F5445204E41593F2000444120584F4120F1
:2057930052454D4F5445202020004D3A4F4B20423A48757920202020202000284B484F4EBF
:2057B3004720434F2052454D4F5445290052454D4F54452000423A74696570202B3A786F42
:2057D3006120202020000D4454206D6F692064756F63206C7575000D4375612064616E67AA
:1257F300206B686F61000D4D6F20637561206C656E0060
:02581600142854
:2046F20075C70075C50075C60075C38075C40043C11022AE82AF8375C78375C5018EC48F93
:20471200C375C65A75C6A500AFC2C0071246F2D0078F8222AE82AF8375C78375C5028EC414
:204732008FC38518C275C65A75C6A5000246F2AE82AF8375C78375C5038EC48FC375C65A70
:2047520075C6A5000246F243C1107ED17F00EE4F60141EBEFF011FEE24C3F582EF3400F53B
:204772008374FFF080E8C3EE94D1EF9400501EEE24C3FCEF3400FD8E8274F02FF5830EBEFA
:2047920000010FE493FB8C828D83F080D990000002474143C1107ED17F00EE4F60141EBE95
:2047B200FF011FEE24C3F582EF3400F58374FFF080E8C3EE942EEF9401501EEE24C3FCEFF1
:2047D2003400FD8E8274F22FF5830EBE00010FE493FB8C828D83F080D99002000247417E2A
:2047F200007F00C3EE94D1EF9400503075C78375C5028EC48FC3EE24C3F582EF3400F58389
:204812000EBE00010FE0F5C275C65A75C6A500C007C0061246F2D006D00780C7227E007FB4
:2048320000C3EE942EEF9401503675C78375C5028EC48E0474022FFD8DC3EE24C3F582EFDD
:204852003400F5830EBE00010FE0F5C275C65A75C6A500C007C0061246F2D006D00780C1ED
:014872002223
:20487300759850438E40538EFE758BB2758DFFC2ABD28ED2ACD2A022E582FF700122C299F2
:204893008F9920990543C11080F8C29922E582FFC4540FFE53070FBE0A0050067C307D00DB
:2048B30080047C577D00EC2EF582C00712488BD007BF0A0050067D307E0080047D577E00DD
:2048D300ED2FF58202488BAD82AE83AFF0C2998D828E838FF0124E85FC60218C992099051F
:1D48F30043C11080F8C2998D828E838FF0124E85FCBC1A01220DBD00D60E80D32225
:20491000AE82AF837C007D00C3EC9EED9F500A43C1100CBC00F20D80EF22AE82AF837C00AF
:204930007D00C3EC9EED9F501D9003E8C007C006C005C004124910D004D005D006D0070C46
:20495000BC00DF0D80DC22AF82E55A4FF582124A1E75820D024A1EAF82302B118F82124AF9
:204970001E855B82855C83855DF0024AA28F82024A83E582FF700122D285EFC4540124FF28
:204990009283EFA2E5E43324FF9282EF2323540124FF9281EF235401FE24FF9280D284007E
:2049B000C28400EF540124FF9283EF03540124FF9282EF03035401FE24FF9281EFA2E3E4D1
:2049D00033FF24FF9280D28400C284900064124910C28522E582FFC4540FFE53070FBE0A40
:2049F0000050067C307D0080047C577D00EC2EF582C007124982D007BF0A0050067D307EFE
:204A10000080047D577E00ED2FF582024982E582FF700122C285EFC4540124FF9283EFA23F
:204A3000E5E43324FF9282EF2323540124FF9281EF235401FE24FF9280D28400C28400EF4E
:204A5000540124FF9283EF03540124FF9282EF03035401FE24FF9281EFA2E3E433FF24FF10
:204A70009280D28400C28490006402491075820C024A1EE582FF600E8F82124A1E90580570
:204A900075F080024AA2758201124A1E900640024910AD82AE83AFF07C008D828E838FF076
:204AB000124E85FB6055BC10005050BB80005025EB24E050200CEC601C0DBD00010E8B827C
:204AD000C007C006C005C004124982D004D005D006D00780C58D828E838FF0124E85FBA316
:204AF000AD82AE838B82C007C006C005C004124A1ED004D005D006D007809F22C286903A00
:204B10009812491075801C00C284900FA0124910D28400C2849000A0124910D28400C284AE
:204B30009000A012491075801400C2849003E8124910D28400C2840075801100C28490001D
:204B50002812491075801000C2840075801300C28490002812491075801000C284007580B6
:204B70001600C28490002812491075801000C2840075801800C2849003E8024910AF82E51C
:204B90006124E8500122E56324054003024C498F82124A1E855E82855F838560F0124AA2B0
:204BB00074F6256140067D207E00801DAB617C0075190A8C1A8B828C83124ED7AB82AC8382
:204BD00074302BFBFD3395E0FE8D82124982AD617E0075190A8E1A8D828E83124EA1AD8250
:204BF00074302DF582124982E56324035012303B067D3A7E0080047D207E008D821249827E
:204C1000AD627E0075190A8E1A8D828E83C006C005124ED7AB8274302BF582124982D005B0
:204C3000D00675190A751A008D828E83124EA1AD8274302DF5820249828F82124A1E855E94
:204C500082855F838560F0124AA274F6256140067E207F00801DAC617D0075190A8D1A8C43
:204C7000828D83124ED7AC82AD8374302CFCFE3395E0FF8E82124982AE617F0075190A8FEA
:204C90001A8E828F83124EA1AE8274302EF582124982303B067E3A7F0080047E207F008E9A
:204CB00082124982AE627F0075190A8F1A8E828F83C007C006124ED7AC8274302CF5821248
:204CD0004982D006D00775190A751A008E828F83124EA1AE8274302EF582124982303B063B
:204CF0007E3A7F0080047E207F008E82124982AE637F0075190A8F1A8E828F83C007C0065F
:204D1000124ED7AC8274302CF582124982D006D00775190A751A008E828F83124EA1AE82D3
:204D300074302EF582124982758220024982124A1EAE667F0075190A8F1A8E828F83C00722
:204D5000C006124ED7AC8274302CF582124982D006D00775190A751A008E828F83124EA1FD
:204D7000AE8274302EF582124982AE657F0075190A8F1A8E828F83C007C006124ED7AC82E6
:204D900074302CF582124982D006D00775190A751A008E828F83124EA1AE8274302EF5826F
:204DB000124982AE647F0075190A8F1A8E828F83C007C006124ED7AC8274302CF58212497E
:204DD00082D006D00775190A751A008E828F83124EA1AE8274302EF58212498275822002DB
:024DF0004982F6
:11580500202020202020202020202020202020200092
:06007000E478FFF6D8FD64
:20004E007902E94400601B7A01905816783B75A002E493F2A308B8000205A0D9F4DAF275AB
:02006E00A0FFF1
:1D4DF200E5828519F0A4C582C0F0851AF0A4D0F025F0C5838519F0A42583F5832250
:204E0F00E519451A60467A01E51925E0F519E51A334012F51AE5829519E583951A40030AE8
:204E2F0080E6C3E51A13F51AE51913F519C3E5829519F5F0E583951A4005F58385F082C3AF
:0D4E4F00E51A13F51AE51913F519DAE12239
:200076007800E84400600A790175A000E4F309D8FC783AE84402600C7903900001E4F0A349
:04009600D8FCD9FABF
:204E5C007A10E4FBFCE58225E0F582E58333F583EB33FBEC33FCEB9519F5F0EC951A400648
:094E7C00FCABF0438201DADD22F7
:0D004100758166124F0FE582600302003EDC
:1C4E850020F71430F6148883A88220F507E6A88375830022E280F7E49322E0223C
:204EA100C2D5E58330E70DD2D5E4C39582F582E49583F583E51A30E70BE4C39519F519E416
:164EC100951AF51A124E0F30D50BE4C39582F582E49583F58322D3
:204ED700C2D5E58330E70DD2D5E4C39582F582E49583F583E51A30E70DB2D5E4C39519F554
:184EF70019E4951AF51A124E5C30D50BE4C39582F582E49583F5832251
:044F0F007582002285
:00000001FF
