:20009F0075C70075C50075C60075C38075C40043C11022AE82AF8375C78375C5018EC48F2C
:2000BF00C375C65A75C6A500AFC2C00712009FD0078F8222AE82AF8375C78375C5028EC447
:2000DF008FC38518C275C65A75C6A50002009FAE82AF8375C78375C5038EC48FC375C65AA3
:2000FF0075C6A50002009F43C1107F04EF60101FEF24B2F582E43400F58374FFF080EDBFF0
:20011F0004005018EF24B2FDE43400FE8F827583F00FE493FC8D828E83F080E390000002FC
:20013F0000EE7F00BF0400502975C78375C5028FC475C300EF24B2F582E43400F5830FE0B6
:13015F00F5C275C65A75C6A500C00712009FD00780D2229E
:20017200759850438E40538EFE758BCC758DFFC2ABD28ED2ACD2A022E582FF700122C29920
:200192008F9920990543C11080F8C29922AD82AE83AFF0C2998D828E838FF0123140FC6086
:2001B200218C9920990543C11080F8C2998D828E838FF0123140FCBC1A01220DBD00D60E7D
:0301D20080D322B5
:2001D500AE82AF837C007D00C3EC9EED9F500A43C1100CBC00F20D80EF22AE82AF837C0032
:2001F5007D00C3EC9EED9F501D9003E8C007C006C005C0041201D5D004D005D006D0070C4C
:20021500BC00DF0D80DC22AF82E5264FF5821202A975820D0202A9AF82301D118F8212027F
:20023500A98527828528838529F002032D8F8202030EE582FF700122D285EFC4540124FF33
:200255009283EFA2E5E43324FF9282EF2323540124FF9281EF235401FE24FF9280D2840000
:20027500C28400EF540124FF9283EF03540124FF9282EF03035401FE24FF9281EFA2E3E453
:2002950033FF24FF9280D28400C2849000641201D5C28522E582FF700122C285EFC45401B9
:2002B50024FF9283EFA2E5E43324FF9282EF2323540124FF9281EF235401FE24FF9280D201
:2002D5008400C28400EF540124FF9283EF03540124FF9282EF03035401FE24FF9281EFA236
:2002F500E3E433FF24FF9280D28400C2849000640201D575820C0202A9E582FF600E8F82BE
:200315001202A99031CE75F08002032D7582011202A99006400201D5AD82AE83AFF07C0087
:200335008D828E838FF0123140FB6055BC10005050BB80005025EB24E050200CEC601C0DDA
:20035500BD00010E8B82C007C006C005C004120247D004D005D006D00780C58D828E838FF4
:20037500F0123140FBA3AD82AE838B82C007C006C005C0041202A9D004D005D006D0078041
:200395009F22C286903A981201D575801C00C284900FA01201D5D28400C2849000A0120198
:2003B500D5D28400C2849000A01201D575801400C2849003E81201D5D28400C2840075805C
:2003D5001100C2849000281201D575801000C2840075801300C2849000281201D5758010D3
:2003F50000C2840075801600C2849000281201D575801000C2840075801800C2849003E898
:200415000201D5AF82E52D24E8500122E52F240540030204D48F821202A9852A82852B83A1
:20043500852CF012032D74F6252D40067D207E00801DAB2D7C0075190A8C1A8B828C83124A
:200455003192AB82AC8374302BFBFD3395E0FE8D82120247AD2D7E0075190A8E1A8D828E5C
:200475008312315CAD8274302DF582120247E52F240350123000067D3A7E0080047D207ECC
:20049500008D82120247AD2E7E0075190A8E1A8D828E83C006C005123192AB8274302BF5D3
:2004B50082120247D005D00675190A751A008D828E8312315CAD8274302DF5820202478F68
:2004D500821202A9852A82852B83852CF012032D74F6252D40067E207F00801DAC2D7D006F
:2004F50075190A8D1A8C828D83123192AC82AD8374302CFCFE3395E0FF8E82120247AE2DA0
:200515007F0075190A8F1A8E828F8312315CAE8274302EF5821202473000067E3A7F008084
:20053500047E207F008E82120247AE2E7F0075190A8F1A8E828F83C007C006123192AC82CC
:2005550074302CF582120247D006D00775190A751A008E828F8312315CAE8274302EF582D6
:200575001202473000067E3A7F0080047E207F008E82120247AE2F7F0075190A8F1A8E82E5
:200595008F83C007C006123192AC8274302CF582120247D006D00775190A751A008E828F8F
:2005B5008312315CAE8274302EF5821202477582200202471202A9AE327F0075190A8F1A71
:2005D5008E828F83C007C006123192AC8274302CF582120247D006D00775190A751A008E50
:2005F500828F8312315CAE8274302EF582120247AE317F0075190A8F1A8E828F83C007C097
:2006150006123192AC8274302CF582120247D006D00775190A751A008E828F8312315CAED7
:200635008274302EF582120247AE307F0075190A8F1A8E828F83C007C006123192AC8274BB
:20065500302CF582120247D006D00775190A751A008E828F8312315CAE8274302EF5821237
:080675000247758220020247D2
:1131CE002020202020202020202020202020202000F0
:040000000200413287
:01000B0032C2
:0100130032BA
:01001B0032B2
:030023000212586E
:01002B0032A2
:01003300329A
:03003B0002071C9D
:05009A00C22102003E3E
:03003E00022DB8D8
:20067D0075FA0075EA009000B674A8F07461A3F075DA49D2DE2243C110B210A2109287903A
:20069D0000BFE0FFE06006EF149000BFF09000C1E0FFE06006EF149000C1F09000BCE060D1
:2006BD000E9000BDE0FFE06006EF149000BDF020A0139000ADE014F0E0700AD2A09000AD60
:2006DD00740AF0D2050537E53724C45031753700E5346006D535037534000538E53824C4D4
:2006FD00501C7538000539E53924E850117539009000B8E0FFE06006EF149000B8F022C0C3
:20071D0025C0E0C0F0C082C083C007C006C005C004C003C002C001C000C0D075D00843C1C5
:20073D001010D8030208599000B6E0FEA3E0FF8EEA8FFA9000B674A82EF074613FA3F03040
:20075D00110930B5069000B97402F030110330B5047F0080027F01EF24FF921420130330FC
:20077D00B5047F0080027F01EF24FF921120120A2014032011047F0080027F01EF24FF92A0
:20079D0012A2B5921330150930B3069000BA7402F030150330B3047F0080027F01EF24FF85
:2007BD00921820170330B3047F0080027F01EF24FF921520160A2018032015047F00800262
:2007DD007F01EF24FF9216A2B3921730190930B4069000BB7402F030190330B4047F0080A4
:2007FD00027F01EF24FF921C201B0330B4047F0080027F01EF24FF9219201A0A201C032093
:20081D0019047F0080027F01EF24FF921AA2B4921B9000D3E014F0E0700AD2219000D374F1
:20083D000AF0B21D9000D4E014F0E0700F9000D47428F075D00012069375D008D0D0D0008E
:20085D00D001D002D003D004D005D006D007D083D082D0F0D0E0D02532858242858343855A
:20087D00F044AC3E9000C0ECF0853DF0ECA4FB9000C1740A2BF0C21E8542828543838544AD
:20089D00F0C00412019FD00474022542F9E43543FAAB4474072542F545E43543F54685446A
:2008BD004774082542F548E43543F54985444AA83D301E030209B59000C1E070030209B5AD
:2008DD003020030209B543C110758280C004C003C002C001C0001202A9853F8285408385C3
:2008FD0041F012032D752A5C752B34752C8085392D85382E85372FA21092007582C01204A6
:20091D0018D000D001D002D003D0049000BFE070A0880718EF70030209B59000BFECF090C5
:20093D0000C0ECF089828A838BF0123140FFBF2B448545828546838547F0123140FFBF3FE5
:20095D00028032854882854983854AF0123140FFBF3F02802090346475F080C004C003C0F1
:20097D0002C001C00012019FD000D001D002D003D0040208CE8542828543838544F0C00422
:20099D00C003C002C001C00012019FD000D001D002D003D0040208CE75828012030E900066
:2009BD00C2E4F0A21E2290000CE0602090000FE0701A753F6A754034754180753D03753EF8
:2009DD000190346875F080120876C32290000BE4F090347B75F08012019F90000175F00038
:2009FD0012019F9000C27409F0753F88754034754180753D05753E3D90348575F08002082F
:200A1D00769000BEE0FFBF50028027BF6602803CBF6E028051BF7466753FAA7540347541E5
:200A3D0080753D03753E1E90349675F080120876804C753FAA754034754180753D03753E13
:200A5D001E9034BB75F0801208768032753FAA754034754180753D03753E1E9034CF75F0BA
:200A7D00801208768018753FAA754034754180753D03753E1E9034E175F080120876D3229F
:200A9D0090000CE4F0C20D9000C27407F0753FAA754034754180753D03753E1E9034E17520
:200ABD00F0801208769000C2E4F090000CE024FF227F0A9034F575F080C00712019FD007BB
:200ADD00BFA100400122EF240CF582E43400F583E0FE24AB500E8E05ED24DBF58212018A72
:200AFD007FA18045EE24B550198E05ED24E5F582C00712018A9034F575F08012019FD00739
:200B1D008027EE24BF50198E05ED24EFF582C00712018A9034F775F08012019FD0078009B7
:200B3D008E82C00712018AD0078F060FEE240CF582E43400F583E4F0020ADDAD82AE83AFB8
:200B5D00F09034F975F080C007C006C00512019FD005D006D0078D828E838FF0C007C00634
:200B7D00C00512019F90350475F08012019FD005D006D0078D828E838FF012019F854B825C
:200B9D0012018A753F0C754035754180753D0F753E0190348575F080120876D322E582FF2D
:200BBD007003020C9890351F75F080C00712019FD007BF0A00500D8F0674302EF5821201CF
:200BDD008A020C80BF6400503B8F057E0075190A8E1A8D828E83C006C005123192AB8274BF
:200BFD00302BF58212018AD005D00675190A751A008D828E8312315CAD8274302DF582124F
:200C1D00018A805F7E007519648E1A8F828E83C007C006123192AC8274302CF58212018A9F
:200C3D00D006D00775190A751A008F828E83C007C00612319275190A751A0012315CAC824B
:200C5D0074302CF58212018AD006D00775190A751A008F828E8312315CAE8274302EF58285
:200C7D0012018A753F28754035754180753D01753E1F9034F575F0800208767F01BF0A00D2
:200C9D00503690351F75F080C00712019FD0078F0674302EF582C00712018A753F287540C5
:200CBD0035754180753D0F753E019034F575F080120876D0070F80C5BF6400506590351F22
:200CDD0075F080C00712019FD0078F057E0075190A8E1A8D828E83C007C006C00512319229
:200CFD00AB8274302BF58212018AD005D00675190A751A008D828E8312315CAD8274302D36
:200D1D00F58212018A753F39754035754180753D0F753E019034F575F080120876D0070F0C
:200D3D008096BFFB0040012290351F75F080C00712019FD0078F057E007519648E1A8D828F
:200D5D008E83C007C006C005123192AB8274302BF58212018AD005D00675190A751A008DCF
:200D7D00828E83C006C00512319275190A751A0012315CAB8274302BF58212018AD005D0E8
:200D9D000675190A751A008D828E8312315CAD8274302DF58212018A753F4A754035754198
:200DBD0080753D0F753E019034F575F080120876D0070F020D3F753FDF754031754180759B
:200DDD003D0F753E0190355B75F0801208767533009000AB740BF09000ABE024F540012278
:200DFD0074052533500122120A9D9000ABE4F075360AE5337003020ECE90355F75F0801291
:200E1D00019F0533749C25334036AE337F0075190A8F1A8E828F83123192AE8274302EF570
:200E3D008212018AAE337F0075190A8F1A8E828F8312315CAE8274302EF58212018A805727
:200E5D00AE337F007519648F1A8E828F83123192AE8274302EF58212018AAE337F0075197F
:200E7D000A8F1A8E828F8312319275190A751A0012315CAE8274302EF58212018AAE337F6F
:200E9D000075190A8F1A8E828F8312315CAE8274302EF58212018A753F6E754035754180DB
:200EBD00753D01753E1F90356875F0801208768018753F6E754035754180753D01753E1F8F
:200EDD0090357F75F0801208761209C3400122120ACE753F8E754035754180753D32753E18
:200EFD000190346875F080120876020DF485824C85834D85F04E753FDF75403175418075A1
:200F1D003D0F753E0190355B75F0801208767401254CFAE4354DFBAC4E8A828B838CF0123C
:200F3D003140F9B92A028011C004C003C002120A9DD002D003D004800590000CE4F0C00480
:200F5D00C003C0021209C3D002D003D00440012290359F75F080C004C003C00212019FD021
:200F7D0002D003D00430A30678A77935800478AA79357F80888289838FF0C004C003C002D4
:200F9D0012019FD002D003D0048A828B838CF0123140FABA2A02803890000CE06032903585
:200FBD00AE75F08012019F90000C75F00012019F900010E070099035B975F08012019F907E
:200FDD000010E4F090000FF090000EF090000DF0854C82854D83854EF012019F7401254C63
:200FFD00FDE4354DFEAF4E8D828E838FF0123140FDBD2A0990346875F08002019F753F8E72
:20101D00754035754180753D32753E0190346875F080020876AF82753600BFA100500FEFE0
:20103D00240CF582E43400F5830FE4F080EC2290000CE4F01209C34001229031EE75F080A6
:20105D0012019F753FD3754035754180753D32753E0190346875F080020876753FDF7540A9
:20107D0031754180753D0F753E0190355B75F08012087650327582001210327536009000DA
:20109D00C2740AF0753FEE754035754180753D0F753E019035E475F08012087650099000C5
:2010BD0010E0FF9000BEF022753F04754036754180753D0F753E019035F975F08012087643
:2010DD00400122753F1D754036754180753D0F753E0190361275F0801208764001229000E9
:2010FD00C2740CF0753F34754036754180753D0A753E3C90362975F08012087640012275B1
:20111D0082001210327536009000C27402F0753F49754036754180753D0F753E0190363FE1
:20113D0075F08012087640012290000FE024D075F00AA4FF900010E02F24D0F53C900012BF
:20115D00E024D075F00AA4FF900013E02F24D0F53B900015E024D075F00AA4FF900016E0A5
:20117D002F24D0F53A900018E024D075F00AA4FF900019E02F24D0F53990001BE024D075A4
:20119D00F00AA4FF90001CE02F24D0F53890001EE024D075F00AA4FF90001FE02F24D0F57E
:2011BD003722753F62754036754180753D0F753E0190365775F080120876502B75820012F7
:2011DD0010327536009000C2740BF0753F7E754036754180753D0F753E0190367375F0805E
:2011FD001208765002D322C322753F99754036754180753D0F753E0190368E75F0801208E0
:20121D00765036753FBD754036754180753D0F753E019036AA75F080120876501C753FE2C7
:20123D00754036754180753D0F753E019036CE75F0801208765002D322C322C025C0E0C081
:20125D00F0C082C083C007C006C005C004C003C002C001C000C0D075D01020980302299085
:20127D0043C1109000C0E09000BFF09000C3E024C4F582E43400F583E599F09000C3E0FF0C
:20129D0024C4F582E43400F583E0FEBE4E0280030213DE8F147D00740C2CF582E43DF58304
:2012BD0075190D8D1AC017C016C015C01475D00012315C75D010AA82AB83D014D015D01637
:2012DD00D017EA24C4F582EB3400F583E0FBBB490280030213DE740B2CF582E43DF58375A3
:2012FD00190D751A00C017C016C015C01475D00012315C75D010AA82AB83D014D015D01684
:20131D00D017EA24C4F582EB3400F583E0FBBB200280030213DE740A2CF582E43DF583758C
:20133D00190D751A00C017C016C015C01475D00012315C75D010AA82AB83D014D015D01643
:20135D00D017EA24C4F582EB3400F583E0FBBB547074092CF582E43DF58375190D751A006C
:20137D00C017C016C015C01475D00012315C75D010AA82AB83D014D015D016D017EA24C4FF
:20139D00F582EB3400F583E0FBBB4F3574082CF582E43DF58375190D751A00C017C0167504
:2013BD00D00012315C75D010AC82AD83D016D017EC24C4F582ED3400F583E0FDBD4E02D281
:2013DD00209000C2E0FD24F3500302297CED240A83F582ED241183F583E4736C7CA5527CAC
:2013FD008E7C70CBE60296121629151F2921292328221515147454B5996E8F137C00740C48
:20141D002BF582E43CF58375190D8C1AC017C014C01375D00012315C75D010A982AA83D055
:20143D0013D014D017E924C4F582EA3400F583E0FABA5334740B2BF582E43CF58375190D64
:20145D00751A00C01775D00012315C75D010AB82AC83D017EB24C4F582EC3400F583E0FCCF
:20147D00BC4405D21E02297C7452B59902800302297C8F137C00740C2BF582E43CF5837526
:20149D00190D8C1AC014C01375D00012315C75D010A982AA83D013D014E924C4F582EA34FE
:2014BD0000F583E0FABA4F02800302297C740B2BF582E43CF58375190D751A0075D000124E
:2014DD00315C75D010AB82AC83EB24C4F582EC3400F583E0FCBC5202800302297C9000BF6A
:2014FD00E4F002297CAC360536EC240CF582E43400F583E599F07422B599349000C3E0FC5F
:20151D007B00740C2CF582E43BF58375190D8B1A75D00012315C75D010AB82AC83EB24C4D1
:20153D00F582EC3400F583E0FCBC2003753600742CB59902800302297C9000C3E0FC7B0055
:20155D00740C2CF582E43BF58375190D8B1A75D00012315C75D010AB82AC83EB24C4F58295
:20157D00EC3400F583E0FCBC2202800302297C9000C2E4F0F53602297C7431B59902800360
:20159D0002297CD21E02297CAC360536EC240CF582E43400F583E599F0744BB5996790003E
:2015BD00C3E0FB7C00740C2BF582E43CF58375190D8C1AC014C01375D00012315C75D01019
:2015DD00A982AA83D013D014E924C4F582EA3400F583E0FABA4C2E740B2BF582E43CF5832A
:2015FD0075190D751A0075D00012315C75D010AB82AC83EB24C4F582EC3400F583E0FCBC95
:20161D004303753600740DB59902800302297C9000C3E0FC7B00740C2CF582E43BF58375E8
:20163D00190D8B1A75D00012315C75D010AB82AC83EB24C4F582EC3400F583E0FCBC22028F
:20165D00800302297C9000C2E4F0F53602297C743EB5991290346875F08075D00012019F31
:20167D0075D01002297C7452B59902800302170E8F137C00740C2BF582E43CF58375190D1E
:20169D008C1AC017C016C015C014C01375D00012315C75D010A982AA83D013D014D015D051
:2016BD0016D017E924C4F582EA3400F583E0FABA4F3F740B2BF582E43CF58375190D751A2D
:2016DD0000C017C016C01575D00012315C75D010AB82AC83D015D016D017EB24C4F582ECEE
:2016FD003400F583E0FCBC52089000BFE4F002297CBE470280030217E58F137C00740C2B14
:20171D00F582E43CF58375190D8C1AC017C016C015C014C01375D00012315C75D010A982CF
:20173D00AA83D013D014D015D016D017E924C4F582EA3400F583E0FABA4E0280030217E5A3
:20175D00740B2BF582E43CF58375190D751A00C017C016C015C014C01375D00012315C7507
:20177D00D010A982AA83D013D014D015D016D017E924C4F582EA3400F583E0FABA49497423
:20179D000A2BF582E43CF58375190D751A00C017C016C01575D00012315C75D010AB82AC2A
:2017BD0083D015D016D017EB24C4F582EC3400F583E0FCBC52129036F375F08075D0001204
:2017DD00019F75D01002297CE4BE3A0104FC700302196B8F127B00740C2AF582E43BF583A6
:2017FD0075190D8B1AC017C016C015C014C013C01275D00012315C75D010A882A983D01220
:20181D00D013D014D015D016D017E824C4F582E93400F583E0F9B95202800302196B740BE8
:20183D002AF582E43BF58375190D751A00C017C016C015C014C013C01275D00012315C75D5
:20185D00D010A882A983D012D013D014D015D016D017E824C4F582E93400F583E0F9B9422A
:20187D0002800302196B740A2AF582E43BF58375190D751A00C017C016C015C014C013C077
:20189D001275D00012315C75D010A882A983D012D013D014D015D016D017E824C4F582E9FF
:2018BD003400F583E0F9B95002800302196B74092AF582E43BF58375190D751A00C017C0FC
:2018DD0016C015C014C013C01275D00012315C75D010A882A983D012D013D014D015D01684
:2018FD00D017E824C4F582E93400F583E0F9B9435D74082AF582E43BF58375190D751A00F8
:20191D00C017C016C015C01475D00012315C75D010AA82AB83D014D015D016D017EA24C459
:20193D00F582EB3400F583E0FBBB2B229000ABE0FB24F650099000AB740BF002297CD202EB
:20195D009000C27408F0C20F75330002297CEC7003021ABB8F137C00740C2BF582E43CF501
:20197D008375190D8C1AC017C016C015C014C01375D00012315C75D010A982AA83D013D019
:20199D0014D015D016D017E924C4F582EA3400F583E0FABA49028003021ABB740B2BF5822C
:2019BD00E43CF58375190D751A00C017C016C015C014C01375D00012315C75D010A982AA11
:2019DD0083D013D014D015D016D017E924C4F582EA3400F583E0FABA54028003021ABB7458
:2019FD000A2BF582E43CF58375190D751A00C017C016C015C014C01375D00012315C75D00A
:201A1D0010A982AA83D013D014D015D016D017E924C4F582EA3400F583E0FABA4D02800384
:201A3D00021ABB74092BF582E43CF58375190D751A00C017C016C015C014C01375D0001251
:201A5D00315C75D010A982AA83D013D014D015D016D017E924C4F582EA3400F583E0FABA44
:201A7D00433C74082BF582E43CF58375190D751A00C017C016C01575D00012315C75D0102F
:201A9D00AB82AC83D015D016D017EB24C4F582EC3400F583E0FCBC2B05D20C02297CE4BE4A
:201ABD00200104FC7003021C6A8F127B00740C2AF582E43BF58375190D8B1AC017C016C06C
:201ADD0015C014C013C01275D00012315C75D010A882A983D012D013D014D015D016D01771
:201AFD00E824C4F582E93400F583E0F9B93A028003021C6A740B2AF582E43BF58375190DC2
:201B1D00751A00C017C016C015C014C013C01275D00012315C75D010A882A983D012D013CA
:201B3D00D014D015D016D017E824C4F582E93400F583E0F9B94C028003021C6A740A2AF58E
:201B5D0082E43BF58375190D751A00C017C016C015C014C013C01275D00012315C75D010F1
:201B7D00A882A983D012D013D014D015D016D017E824C4F582E93400F583E0F9B947028060
:201B9D0003021C6A74092AF582E43BF58375190D751A00C017C016C015C014C013C012754E
:201BBD00D00012315C75D010A882A983D012D013D014D015D016D017E824C4F582E934002F
:201BDD00F583E0F9B94D028003021C6A74082AF582E43BF58375190D751A00C017C016C039
:201BFD0015C014C013C01275D00012315C75D010A882A983D012D013D014D015D016D01750
:201C1D00E824C4F582E93400F583E0F9B9433E74072AF582E43BF58375190D751A00C01704
:201C3D00C016C015C01475D00012315C75D010AA82AB83D014D015D016D017EA24C4F58296
:201C5D00EB3400F583E0FBBB2B03021DFEEC7003021E498F137C00740C2BF582E43CF5834F
:201C7D0075190D8C1AC017C016C015C014C01375D00012315C75D010A982AA83D013D01485
:201C9D00D015D016D017E924C4F582EA3400F583E0FABA3A028003021E49740B2BF582E4D6
:201CBD003CF58375190D751A00C017C016C015C014C01375D00012315C75D010A982AA836F
:201CDD00D013D014D015D016D017E924C4F582EA3400F583E0FABA50028003021E49740A40
:201CFD002BF582E43CF58375190D751A00C017C016C015C014C01375D00012315C75D01001
:201D1D00A982AA83D013D014D015D016D017E924C4F582EA3400F583E0FABA490280030293
:201D3D001E4974092BF582E43CF58375190D751A00C017C016C015C014C01375D00012318D
:201D5D005C75D010A982AA83D013D014D015D016D017E924C4F582EA3400F583E0FABA4C26
:201D7D00028003021E4974082BF582E43CF58375190D751A00C017C016C015C014C01375DA
:201D9D00D00012315C75D010A982AA83D013D014D015D016D017E924C4F582EA3400F583B3
:201DBD00E0FABA43028003021E4974072BF582E43CF58375190D751A00C017C016C015756B
:201DDD00D00012315C75D010AB82AC83D015D016D017EB24C4F582EC3400F583E0FCBC2B6F
:201DFD004B8F137C0074092BF582E43CF58375190D8C1A75D00012315C75D010AB82AC83D0
:201E1D00EB24C4F582EC3400F583E0FCBC4C03D38001C392064006300B0302297CC209C275
:201E3D0007C2089000C27403F002297CBE4B028003021EDA8F137C00740C2BF582E43CF577
:201E5D008375190D8C1AC017C016C01575D00012315C75D010AB82AC83D015D016D017EBED
:201E7D0024C4F582EC3400F583E0FCBC4F4FBD0203753600A21FB3921EC21F300223AC366F
:201E9D007D001CBCFF011DEC240CFCED3400FD8C828D83E0240AFB8C828D83F0C20F7536CC
:201EBD0000E536700302297C7536009036CE75F08075D00012019F75D01002297CBE5402A5
:201EDD00800302297C8F147D00740C2CF582E43DF58375190D8D1AC015C01475D00012316C
:201EFD005C75D010AA82AB83D014D015EA24C4F582EB3400F583E0FBBB4F02800302297C00
:201F1D00740B2CF582E43DF58375190D751A0075D00012315C75D010AC82AD83EC24C4F55F
:201F3D0082ED3400F583E0FDBD4E02800302297CD21F02297C20090302209CE5367068746C
:201F5D000DB59902800302297C30063D8F147D0074092CF582E43DF58375190D8D1A75D00A
:201F7D000012315C75D010AC82AD83EC24C4F582ED3400F583E0FDBD2203D38001C392079F
:201F9D00BD6D03D38001C39208D2013007089000C2E4F002297C30060575350205349000B7
:201FBD00C27405F002297C740DB536028003022075BE22030220758F147D00740C2CF582ED
:201FDD00E43DF58375190D8D1AC015C01475D00012315C75D010AA82AB83D014D015EA24F6
:201FFD00C4F582EB3400F583E0FBBB226B740B2CF582E43DF58375190D751A00C015C01441
:20201D0075D00012315C75D010AA82AB83D014D015EA24C4F582EB3400F583E0FBBB2C386D
:20203D00740A2CF582E43DF58375190D751A0075D00012315C75D010AC82AD83EC24C4F53F
:20205D0082ED3400F583E0FDBD220D746DB59902D20875360002297C74F62536400EE536F4
:20207D002401F582E43400F583E599F0E53624F35008753600D20702297C053602297C30E2
:20209D00063CBE30398F147D00740C2CF582E43DF58375190D8D1AC017C01675D000123167
:2020BD005C75D010AC82AD83D016D017EC24C4F582ED3400F583E0FDBD2203022177BE34F8
:2020DD0002800302217C8F147D00740C2CF582E43DF58375190D8D1AC015C01475D00012A1
:2020FD00315C75D010AA82AB83D014D015EA24C4F582EB3400F583E0FBBB3863740B2CF50D
:20211D0082E43DF58375190D751A00C015C01475D00012315C75D010AA82AB83D014D01558
:20213D00EA24C4F582EB3400F583E0FBBB2B30740A2CF582E43DF58375190D751A0075D088
:20215D000012315C75D010AC82AD83EC24C4F582ED3400F583E0FDBD2205D2097536017470
:20217D000DB59902800302297C9000C2E4F002297C300A43743BB599028021740DB5990200
:20219D00801A746025364014AD360536ED240CF582E43400F583E599F002297CE536240C63
:2021BD00F582E43400F583E4F0F536C20A9000C2E4F0D20B02297CBE2C0280030222C68F9E
:2021DD00147D00740C2CF582E43DF58375190D8D1AC015C01475D00012315C75D010AA8245
:2021FD00AB83D014D015EA24C4F582EB3400F583E0FB90F003E493FAEBB5120280030222C1
:20221D00C6740B2CF582E43DF58375190D751A00C015C01475D00012315C75D010AA82AB3D
:20223D0083D014D015EA24C4F582EB3400F583E0FB90F002E493FAEBB5126E740A2CF58246
:20225D00E43DF58375190D751A00C015C01475D00012315C75D010AA82AB83D014D015EAAF
:20227D0024C4F582EB3400F583E0FB90F001E493FAEBB5123474092CF582E43DF583751951
:20229D000D751A0075D00012315C75D010AC82AD83EC24C4F582ED3400F583E0FD90F000AD
:2022BD00E493FCEDB5140280047D0080027D01ED24FF920A740DB59902800302297C753683
:2022DD00019000C2E4F002297C743EB5990A9000C2E4F0D21E02297CBE5202800302297C10
:2022FD008F147D00740C2CF582E43DF58375190D8D1AC015C01475D00012315C75D010AA17
:20231D0082AB83D014D015EA24C4F582EB3400F583E0FBBB5202800302297C740B2CF58211
:20233D00E43DF58375190D751A0075D00012315C75D010AC82AD83EC24C4F582ED3400F5C5
:20235D0083E0FDBD4502800302297C9000BFE4F002297C300D5B9000BEE0FDBD50028003B3
:20237D00BD66057420B5990FBD74028003BD6E297464B59902802274602536401C742EB571
:20239D00990302297CAD360536ED240CF582E43400F583E599F002297CC20DC20FE53624A7
:2023BD000CF582E43400F583E4F0F536D21E02297C9000BEE0FDBD5002800302252BBE3D4D
:2023DD0002800302252B8F137C00740C2BF582E43CF58375190D8C1AC017C016C015C0149A
:2023FD00C01375D00012315C75D010A982AA83D013D014D015D016D017E924C4F582EA347D
:20241D0000F583E0FABA6802800302252B740B2BF582E43CF58375190D751A00C017C016C4
:20243D00C015C014C01375D00012315C75D010A982AA83D013D014D015D016D017E924C428
:20245D00F582EA3400F583E0FABA6E02800302252B740A2BF582E43CF58375190D751A0097
:20247D00C017C016C015C014C01375D00012315C75D010A982AA83D013D014D015D016D023
:20249D0017E924C4F582EA3400F583E0FABA6902800302252B74092BF582E43CF583751911
:2024BD000D751A00C017C016C015C014C01375D00012315C75D010A982AA83D013D014D012
:2024DD0015D016D017E924C4F582EA3400F583E0FABA683A74082BF582E43CF58375190D98
:2024FD00751A00C017C016C01575D00012315C75D010AB82AC83D015D016D017EB24C4F59F
:20251D0082EC3400F583E0FCBC63030228C6BD74028003022683BE200280030226838F1385
:20253D007C00740C2BF582E43CF58375190D8C1AC017C016C015C014C01375D00012315CFA
:20255D0075D010A982AA83D013D014D015D016D017E924C4F582EA3400F583E0FABA3A028A
:20257D008003022683740B2BF582E43CF58375190D751A00C017C016C015C014C01375D0BF
:20259D000012315C75D010A982AA83D013D014D015D016D017E924C4F582EA3400F583E09B
:2025BD00FABA47028003022683740A2BF582E43CF58375190D751A00C017C016C015C0149B
:2025DD00C01375D00012315C75D010A982AA83D013D014D015D016D017E924C4F582EA349B
:2025FD0000F583E0FABA4B02800302268374092BF582E43CF58375190D751A00C017C016A9
:20261D00C015C014C01375D00012315C75D010A982AA83D013D014D015D016D017E924C446
:20263D00F582EA3400F583E0FABA543A74082BF582E43CF58375190D751A00C017C016C001
:20265D001575D00012315C75D010AB82AC83D015D016D017EB24C4F582EC3400F583E0FC43
:20267D00BC20030228C6BD660280030227DBBE3A0280030227DB8F137C00740C2BF582E41D
:20269D003CF58375190D8C1AC017C016C015C014C01375D00012315C75D010A982AA83D09E
:2026BD0013D014D015D016D017E924C4F582EA3400F583E0FABA430280030227DB740B2B6C
:2026DD00F582E43CF58375190D751A00C017C016C015C014C01375D00012315C75D010A999
:2026FD0082AA83D013D014D015D016D017E924C4F582EA3400F583E0FABA4B02800302272A
:20271D00DB740A2BF582E43CF58375190D751A00C017C016C015C014C01375D00012315CD2
:20273D0075D010A982AA83D013D014D015D016D017E924C4F582EA3400F583E0FABA54028E
:20275D0080030227DB74092BF582E43CF58375190D751A00C017C016C015C014C01375D086
:20277D000012315C75D010A982AA83D013D014D015D016D017E924C4F582EA3400F583E0B9
:20279D00FABA203A74082BF582E43CF58375190D751A00C017C016C01575D00012315C7553
:2027BD00D010AB82AC83D015D016D017EB24C4F582EC3400F583E0FCBC2E030228C6BD6E48
:2027DD0002800302297CBE2002800302297C8F157E00740C2DF582E43EF58375190D8E1A83
:2027FD00C016C01575D00012315C75D010AB82AC83D015D016EB24C4F582EC3400F583E0EF
:20281D00FCBC3A02800302297C740B2DF582E43EF58375190D751A00C016C01575D0001294
:20283D00315C75D010AB82AC83D015D016EB24C4F582EC3400F583E0FCBC43028003022905
:20285D007C740A2DF582E43EF58375190D751A00C016C01575D00012315C75D010AB82AC3C
:20287D0083D015D016EB24C4F582EC3400F583E0FCBC4B02800302297C74092DF582E43EB9
:20289D00F58375190D751A0075D00012315C75D010AD82AE83ED24C4F582EE3400F583E01A
:2028BD00FEBE5402800302297CD20D02297C7422B599028003022953D20F7E00740C2FF54F
:2028DD0082E43EF58375190D8E1A75D00012315C75D010AE82AF83EE24C4F582EF3400F57C
:2028FD0083E0FFBF2C20AE367F001EBEFF011FEE240CFEEF3400FF8E828F83E02411FD8EF0
:20291D00828F83F08059AE367F001EBEFF011FEE240CFEEF3400FF8E828F83E0241BFD8ED5
:20293D00828F83F09000ABE0FF0F9000ABEFF09000C2E4F08029E59924D05023200F0FE5DC
:20295D003375F00AA4FFE599FE2F24D0F533AF360536EF240CF582E43400F583E599F0900A
:20297D0000C3E02401F0E0FF24F350059000C3E4F0C298D0D0D000D001D002D003D004D02C
:20299D0005D006D007D083D082D0F0D0E0D02532C20E7F00EF240CFDE43400FE0F8D828EFF
:2029BD0083E0600543C11080EBBFA000500FEF240CF582E43400F5830FE4F080EC90000CE4
:2029DD00E0FFBF3F02800890000DE0FEBE3F0620070302104CBF4403022B10BF4B02805B43
:2029FD00BF4C03022C52BF5003022A74BF52028058BF5302802FBF5803022B1CBF64030241
:202A1D002B10BF6B028034BF6C03022C52BF70028045BF72028032BF73028009BF780302FC
:202A3D002B1C022D8BD2A29000641201EFC2A29036F875F080120F0A022D94D2A2903707D7
:202A5D0075F080120F0A022D9490371675F080120F0AC2A0022D94200803022D94900010E6
:202A7D00E0FFBF30005003022B04EF24C65003022B04900011E0FFBF30005003022B04EFA8
:202A9D0024C65003022B04900012E0FFBF30004056EF24C64051900013E0FFBF3000404743
:202ABD00EF24C640429000001200EE900010E0F5189000001200D3900011E0F518900001ED
:202ADD001200D3900012E0F5189000021200D3900013E0F5189000031200D390372875F092
:202AFD0080120F0A022D9490373F75F080120F0A022D94200803022D94120DD3022D94903F
:202B1D00000DE0FFBF6F028008BF4F028003022C2F200803022D94900010E0FEBE3000505A
:202B3D0003022C23EE24C65003022C23900011E0FDBD30004005ED24C65006ED6003022C4D
:202B5D0023900012E0FCBC30004005EC24C65006EC6003022C23BE3009758200120BBA02F3
:202B7D002C17ED700D8E03EB24D0F582120BBA022C17EC70178E03EB24D075F00AA4FB8D0A
:202B9D0002EA2B24D0F582120BBA806E8D027B00EA24D0F519EB34FFF51A90000AC006C08E
:202BBD0005C0041230ADAA82AB83D004D005D0068C007900E82AFAE93BFBEA24D0FAEB3440
:202BDD00FFFBC374329A74808BF063F08095F05011EE24FE500C90373F75F080120F0A022F
:202BFD002D94EE24D075F064A4FEED24D075F00AA42E2C24D0F582120BBA90375275F0801C
:202C1D00120F0A022D9490373F75F080120F0A022D94BF75028008BF55028003022D94D2E4
:202C3D00A19000641201EFC2A190376A75F080120F0A022D9490000DE0FFBF75028008BF80
:202C5D0055028003022D6E200803022D94900010E0FEBE30005003022D63EE24C650030274
:202C7D002D63900011E0FEBE30005003022D63EE24C65003022D63900012E0FEBE300050DA
:202C9D0003022D63EE24C65003022D63900013E0FEBE30005003022D63EE24C65003022D17
:202CBD0063900014E0FEBE30005003022D63EE24C65003022D63900015E0FEBE30005003BE
:202CDD00022D63EE24C65003022D63900016E0FEBE30005003022D63EE24C65003022D6374
:202CFD00900017E0FEBE30005003022D63EE24C64054900018E0FEBE3000404AEE24C640DD
:202D1D0045900019E0FEBE3000403BEE24C6403690001AE4F090001BE0FEE4BE6D01047088
:202D3D000BBE74010470057C75FD80048E047D008C4B90001075F000120B5890377A75F047
:202D5D0080120F0A803190379375F080120F0A8026BF65028003BF451ED2A39000641201A3
:202D7D00EFC2A39037A775F080120F0A800990373F75F080120F0A43C1107F00EF240CFD16
:202D9D00E43400FE8D828E83E0600FEF240CF582E43400F5830FE4F080E2227593007594F3
:202DBD00FF7592007591007595007596FF75B20075B10075B30275B41C75CA0075C9007528
:202DDD00C00075B0FF75A00075B881759700D2AF7534009000AD740AF09000AE7406F09016
:202DFD0000AF7402F09000B0F09000B1F09000BBF09000BAF09000B9F09000BCE4F0C22090
:202E1D001201069000B2E0FFBF30004032EF24C6402D9000B3E0FFBF30004023EF24C64027
:202E3D001E9000B4E0FFBF30004014EF24C6400F9000B5E0FFBF30004005EF24C6501290A6
:202E5D0000B57430F09000B4F09000B3F09000B2F012014112017212067D120397121078BF
:202E7D002020091210C51211BF1212069000BD743CF075C1659000017430F090000BE4F0DD
:202E9D009000BDE0700B9000BCE060059000BCE4F0100C028021753FDF75403175418075D9
:202EBD003D0F753E0190355B75F0801208769037B475F08012019F300B1D1229AD753FC397
:202EDD00754037754180753D0F753E019036CE75F080120876C20B10120280279000BCE071
:202EFD00FF7E008F828E83A37519048E1A12315CAE829000BCEEF09000BD743CF0758280DC
:202F1D0012030E101602801E758200120BBA1201069000B57430F09000B4F09000B3F090F4
:202F3D0000B2F012014110050280061211BF121206101A02801D120A9D7582841202A9908B
:202F5D00000C75F00012032D201A0543C11080F8120A1E102103022FFD7582801202A99076
:202F7D0000BCE0FFBF010B9037D275F08012032D8034BF020B9037D775F08012032D802623
:202F9D00BF030B9037DC75F08012032D801830A3067EE17F3780047EE67F377D808E828FBD
:202FBD00838DF012032D75828F1202A99000BEE0F582120247752AEB752B37752C8085392F
:202FDD002D85382E85372FA21092007582C7120418853C30853B31853A327582C01205C937
:202FFD001001030230A71006030230939000BCE0700302307F753FDF754031754180753D38
:20301D000F753E0190355B75F08012087690000BE4F030072A9000BCE0FFBF01067D6D7E12
:20303D00008011BF02067C757F0080047C747F008C058F068D4B90000175F000120B5875DA
:20305D003F6E754035754180753D0F753E019037EC75F0801208769037FA75F080120F0A18
:20307D008014200711D2A39000641201EF90381275F080120F0A90000BE4F0758284120214
:10309D00A990000175F00012032D43C110022E9D61
:2031DF002043554143554F4E20302E312E38004D612050696E204D61632044696E68203A6A
:2031FF0020303030300A436163206C656E6820636875207669657420484F41206861792046
:20321F007468756F6E67206465752064756F630A312E4C656E68206261742074686965744C
:20323F002062690A707070702C626174202D2076692064753A20303030302C6261740A3259
:20325F002E4C656E68207461742074686965742062690A707070702C746174202D2076697D
:20327F002064753A20303030302C7461740A332E4C656E68206B69656D2074726120747282
:20329F00616E6720746861692074686965742062690A707070702C6B74202D207669206445
:2032BF00753A20303030302C6B740A342E4C656E68207468617920646F69206D6120706949
:2032DF006E3A20707070702C70696E2C787878780A7669206475203A20303030302C7069A7
:2032FF006E2C31323334200A5468617920646F69206D612070696E207475203030303020D1
:20331F002D3E20313233340A352E4C656E682072657365742073696D2D67736D0A707070CB
:20333F00702C72732D2076692064753A20303030302C72730A362E4C656E68206C696574DA
:20335F00206B652064616E682062610A707070702C64622D2076692064753A2030303030C5
:20337F002C64620A372E4C656E6820786F612064616E682062613A20707070702C786F61B2
:20339F002C7878780A76643A20303030302C786F612C31352020786F6120736F206469659A
:2033BF006E2074686F6169207468752031350A76643A20303030302C786F612C3020202026
:2033DF00786F6120746F616E20626F2064616E682062610A382E4C656E68206C7575206434
:2033FF00616E682062613A20707070702C6C75752C787878787878787878780A76643A20DE
:20341F00303030302C6C75752C303931323334353637380A6C757520736F206469656E20D0
:20343F0074686F616920303931323334353637382076616F2064616E682062610020205493
:20345F004D41202000412F0D001A00544B3C31303030204B2042414F43414F0041542B4319
:20347F004D47533D2200220D0020202053454E44494E472020200041542B435553443D3193
:20349F002C222A38383823222C0D0020204B49454D2054524120544B2020200041542B43E0
:2034BF005553443D312C222A31313023222C0D0041542B435553443D312C222A3023222C95
:2034DF000D0041542B435553443D312C222A31303123222C0D000D002C0041542B4350420D
:2034FF00573D2C2200222C3132392C220020202053454E44494E472043504257202020007F
:20351F0041542B435042573D002020202044454C4554494E47202020200020202E2E4445F2
:20353F004C4554494E472E2E2020002E2E2E2E44454C4554494E472E2E2E2E0041540D00AF
:20355F0041542B435042523D002C3235300D00202053454E44494E47204350425220200089
:20357F0041542B435042523D312C3235300D0044414E47204755492042414F2043414F0003
:20359F002052454C41593D004F4E004F4646000D544B204368696E683D000D546169206B11
:2035BF00686F616E20636F6E2064756F6920313030303000204755492048554F4E472044FA
:2035DF00414E20200041542B4353504E3F0D002054454E204D414E47200041542B434C54B0
:2035FF00533D310D0020424154204C41592047494F200041542B434F50533D320D00204EE3
:20361F00474154204D414E47200041542B434F50533D300D00204C4159204D414E47200074
:20363F0041542B43434C4B3F0D00204C41592047494F20475053200041542B434C49503DEE
:20365F00310D00202053454E44494E4720434C495020200041542B4343414C523F0D0020AC
:20367F005448494554204C415020474F49200041542B434D47463D310D00202053454E44CF
:20369F00494E4720434D474620200041542B434E4D493D312C312C302C302C310D0020209C
:2036BF0053454E44494E4720434E4D4920200041542B434D4744413D2244454C20414C4C13
:2036DF00220D0020205448494554204C415020544E2020004154480D000D44756E672063D7
:2036FF0075612063756F6E000D4B686F61206375612063756F6E000D726573657420677318
:20371F006D20736175313073000D446F69206D612070696E207468616E6820636F6E670068
:20373F000D4C656E68206B686F6E6720686F70206C65000D586F612064616E682062612054
:20375F007468616E6820636F6E67000D58756F6E67206375612063756F6E000D7468656D69
:20377F002064616E68206261207468616E6820636F6E67000D536F206474206B686F6E6794
:20379F0020686F70206C65000D4D6F206375612063756F6E0041542B434D474C3D22414CEC
:2037BF004C220D002044454C4554494E4720534D5320004348493A005048553A0054414DB9
:2037DF003A004F4E203A004F46463A000041542B435042523D312C39390D000D4C75752021
:2037FF0064616E68206261207468616E6820636F6E67000D4D6F20637561206C656E00149D
:01381F002880
:06007000E478FFF6D8FD64
:20004E007902E94400601B7A0190381E78D375A000E493F2A308B8000205A0D9F4DAF2752D
:02006E00A0FFF1
:1D30AD00E5828519F0A4C582C0F0851AF0A4D0F025F0C5838519F0A42583F58322B2
:2030CA00E519451A60467A01E51925E0F519E51A334012F51AE5829519E583951A40030A4B
:2030EA0080E6C3E51A13F51AE51913F519C3E5829519F5F0E583951A4005F58385F082C312
:0D310A00E51A13F51AE51913F519DAE1229B
:200076007800E84400600A790175A000E4F309D8FC78D2E84400600C7901900001E4F0A3B5
:04009600D8FCD9FABF
:203117007A10E4FBFCE58225E0F582E58333F583EB33FBEC33FCEB9519F5F0EC951A4006AA
:09313700FCABF0438201DADD2259
:0D00410075814E1231CAE582600302003E57
:1C31400020F71430F6148883A88220F507E6A88375830022E280F7E49322E0229E
:20315C00C2D5E58330E70DD2D5E4C39582F582E49583F583E51A30E70BE4C39519F519E478
:16317C00951AF51A1230CA30D50BE4C39582F582E49583F5832298
:20319200C2D5E58330E70DD2D5E4C39582F582E49583F583E51A30E70DB2D5E4C39519F5B6
:1831B20019E4951AF51A12311730D50BE4C39582F582E49583F5832215
:0431CA0075820022E8
:00000001FF
