:2000A10075C70075C50075C60075C38075C40043C11022AE82AF8375C78375C5018EC48F2A
:2000C100C375C65A75C6A500AFC2C0071200A1D0078F8222AE82AF8375C78375C5028EC443
:2000E1008FC38518C275C65A75C6A5000200A1AE82AF8375C78375C5038EC48FC375C65A9F
:2001010075C6A5000200A143C1107E987F01EE4F60141EBEFF011FEE24B2F582EF3400F5B2
:200121008374FFF080E8C3EE9498EF9401501EEE24B2FCEF3400FD8E8274F02FF5830EBEDA
:2001410000010FE493FB8C828D83F080D99000000200F043C1107E987F01EE4F60141EBEFC
:20016100FF011FEE24B2F582EF3400F58374FFF080E8C3EE942DEF9401501EEE24B2FCEFAB
:200181003400FD8E8274F22FF5830EBE00010FE493FB8C828D83F080D99002000200F07E59
:2001A100007F00C3EE9498EF9401503075C78375C5028EC48FC3EE24B2F582EF3400F58369
:2001C1000EBE00010FE0F5C275C65A75C6A500C007C0061200A1D006D00780C7227E007FE3
:2001E10000C3EE942DEF9401503675C78375C5028EC48E0474022FFD8DC3EE24B2F582EF87
:200201003400F5830EBE00010FE0F5C275C65A75C6A500C007C0061200A1D006D00780C11B
:0102210022BA
:20022200759850438E40538EFE758BE6758DFFC2ABD28ED2ACD2A022E582FF700122C29955
:200242008F9920990543C11080F8C29922E582FFC4540FFE53070FBE0A0050067C307D0072
:2002620080047C577D00EC2EF582C00712023AD007BF0A0050067D307E0080047D577E000B
:20028200ED2FF58202023AAD82AE83AFF0C2998D828E838FF01246B7FC60218C9920990523
:1D02A20043C11080F8C2998D828E838FF01246B7FCBC1A01220DBD00D60E80D32292
:2002BF00AE82AF837C007D00C3EC9EED9F500A43C1100CBC00F20D80EF22AE82AF837C0047
:2002DF007D00C3EC9EED9F501D9003E8C007C006C005C0041202BFD004D005D006D0070C76
:2002FF00BC00DF0D80DC22AF82E5274FF58212039375820D020393AF823023118F821203B7
:20031F0093852882852983852AF00204178F820203F8E582FF700122D285EFC4540124FF86
:20033F009283EFA2E5E43324FF9282EF2323540124FF9281EF235401FE24FF9280D2840015
:20035F00C28400EF540124FF9283EF03540124FF9282EF03035401FE24FF9281EFA2E3E468
:20037F0033FF24FF9280D28400C2849000641202BFC28522E582FF700122C285EFC45401E3
:20039F0024FF9283EFA2E5E43324FF9282EF2323540124FF9281EF235401FE24FF9280D216
:2003BF008400C28400EF540124FF9283EF03540124FF9282EF03035401FE24FF9281EFA24B
:2003DF00E3E433FF24FF9280D28400C2849000640202BF75820C020393E582FF600E8F82FD
:2003FF0012039390474575F0800204177582011203939006400202BFAD82AE83AFF07C0064
:20041F008D828E838FF01246B7FB6055BC10005050BB80005025EB24E050200CEC601C0D63
:20043F00BD00010E8B82C007C006C005C004120331D004D005D006D00780C58D828E838F1E
:20045F00F01246B7FBA3AD82AE838B82C007C006C005C004120393D004D005D006D00780DF
:20047F009F22C286903A981202BF75801C00C284900FA01202BFD28400C2849000A01202D6
:20049F00BFD28400C2849000A01202BF75801400C2849003E81202BFD28400C284007580B1
:2004BF001100C2849000281202BF75801000C2840075801300C2849000281202BF75801012
:2004DF0000C2840075801600C2849000281202BF75801000C2840075801800C2849003E8C2
:2004FF000202BFAF82E52E24E8500122E530240540030205BE8F82120393852B82852C83F2
:20051F00852DF012041774F6252E40067D207E00801DAB2E7C0075190A8C1A8B828C831271
:20053F004709AB82AC8374302BFBFD3395E0FE8D82120331AD2E7E0075190A8E1A8D828EF8
:20055F00831246D3AD8274302DF582120331E530240350123000067D3A7E0080047D207E69
:20057F00008D82120331AD2F7E0075190A8E1A8D828E83C006C005124709AB8274302BF56F
:20059F0082120331D005D00675190A751A008D828E831246D3AD8274302DF5820203318F1B
:2005BF0082120393852B82852C83852DF012041774F6252E40067E207F00801DAC2E7D00A9
:2005DF0075190A8D1A8C828D83124709AC82AD8374302CFCFE3395E0FF8E82120331AE2E3C
:2005FF007F0075190A8F1A8E828F831246D3AE8274302EF5821203313000067E3A7F008023
:20061F00047E207F008E82120331AE2F7F0075190A8F1A8E828F83C007C006124709AC8268
:20063F0074302CF582120331D006D00775190A751A008E828F831246D3AE8274302EF58274
:20065F001203313000067E3A7F0080047E207F008E82120331AE307F0075190A8F1A8E8223
:20067F008F83C007C006124709AC8274302CF582120331D006D00775190A751A008E828F2C
:20069F00831246D3AE8274302EF582120331758220020331120393AE337F0075190A8F1A38
:2006BF008E828F83C007C006124709AC8274302CF582120331D006D00775190A751A008EED
:2006DF00828F831246D3AE8274302EF582120331AE327F0075190A8F1A8E828F83C007C034
:2006FF0006124709AC8274302CF582120331D006D00775190A751A008E828F831246D3AEE9
:20071F008274302EF582120331AE317F0075190A8F1A8E828F83C007C006124709AC827457
:20073F00302CF582120331D006D00775190A751A008E828F831246D3AE8274302EF58212D5
:08075F00033175822002033111
:11474500202020202020202020202020202020200063
:040000000200413287
:01000B0032C2
:0100130032BA
:01001B0032B2
:03002300021D8635
:01002B0032A2
:01003300329A
:03003B0002084B6D
:07009A00D206C22902003E5C
:03003E00023EF18E
:2007670075FA0075EA0090026774A8F07461A3F09002697419F0E4A3F075DA4975DB49D245
:20078700DE2243C110B21690026CE0FFE06009301A06EF1490026CF090026DE0FFE06009E8
:2007A700301E06EF1490026DF090026EE0FFE06009302206EF1490026EF090026EE0700227
:2007C700D224900273E0FFE06006EF14900273F0900275E0FFE06006EF14900275F0900242
:2007E7006FE0600E900270E0FFE06006EF14900270F020A0139000ADE014F0E0700AD2A059
:200807009000AD740AF0D2050539E53924C45033D215753900E5356006D5360375350005B6
:200827003AE53A24C4501C753A00053BE53B24E85011753B0090026BE0FFE06006EF149023
:20084700026BF022C026C0E0C0F0C082C083C007C006C005C004C003C002C001C000C0D0AB
:2008670075D00843C11010D803020988900267E0FEA3E0FF8EEA8FFA90026774A82EF07491
:20088700613FA3F030170930B50690026C7402F030170330B5047F0080027F01EF24FF9227
:2008A7001A20190330B5047F0080027F01EF24FF921720180A201A032017047F0080027F7C
:2008C70001EF24FF9218A2B59219301B0930B30690026D7406F0301B0330B3047F00800276
:2008E7007F01EF24FF921E201D0330B3047F0080027F01EF24FF921B201C0A201E03201B86
:20090700047F0080027F01EF24FF921CA2B3921D301F0930B40690026E7402F0301F03305D
:20092700B4047F0080027F01EF24FF922220210330B4047F0080027F01EF24FF921F202001
:200947000A202203201F047F0080027F01EF24FF9220A2B49221900287E014F0E0700AD287
:2009670029900287740AF0B223900288E014F0E0700F9002887428F075D00012078975D0BC
:200987000810D903020AAC900269E0FEA3E0FF8EEB8FFB900269744A2EF074013FA3F030F8
:2009A7001203020AAC30B666900265E0705130112D900266E0FF24FD5024BF0500501F90E2
:2009C700024AE0FF04F0EF244BF582E43402F583E4F075823075D00012023A75D00890021D
:2009E70066E0FF24CD5018D21375824275D00012023A75D008C2A1A2A192A3A20692A2900D
:200A07000265E02401F0900266E4F0020A9C900266E06003020A90301130900265E0FF24BD
:200A2700FD5027BF0500502290024AE0FF04F0EF244BF582E43402F5837401F075823175ED
:200A4700D00012023A75D008803F900265E0FF24E35036BF2200503130111890024AE0FF8C
:200A6700BF1810D21275825075D00012023A75D0088016301313D21190024AE4F0758253B4
:200A870075D00012023A75D008900266E02401F0900265E4F090024AE0FF24E75007900208
:200AA7004AE4F0C211D0D0D000D001D002D003D004D005D006D007D083D082D0F0D0E0D01D
:200AC700263285824485834585F046AC40900274ECF0853FF0ECA4FB900275740A2BF0C2F5
:200AE700258544828545838546F0C004120289D00474022544F9E43545FAAB46740725443D
:200B0700F547E43545F54885464974082544F54AE43545F54B85464CA83F302503020C14A9
:200B2700900275E07003020C14302703020C1443C110758280C004C003C002C001C000124F
:200B470003938541828542838543F0120417752BD3752C49752D80853B2E853A2F85393038
:200B6700A21692007582C0120502D000D001D002D003D0041024028002C322900273E06058
:200B870003302896C228880718EF7003020C14900273ECF0900274ECF089828A838BF012E0
:200BA70046B7FFBF2B448547828548838549F01246B7FFBF3F028032854A82854B83854C73
:200BC700F01246B7FFBF3F0280209049DB75F080C004C003C002C001C000120289D000D0D0
:200BE70001D002D003D004020B218544828545838546F0C004C003C002C001C0001202898C
:200C0700D000D001D002D003D004020B217582801203F8900276E4F0A2252290000CE06060
:200C27002090000FE0701A7541E1754249754380753F037540019049DF75F080120AC9C303
:200C47002290000BE4F09049F275F08012028990000175F0001202899002767409F07541F1
:200C6700FF754249754380753F0575403D9049FC75F080020AC9C20E900276740DF0900221
:200C870071E0FFBF50028027BF6602803CBF6E028051BF746675412175424A754380753F05
:200CA7000375401E904A0D75F080120AC9804C75412175424A754380753F0375401E904A66
:200CC7003375F080120AC9803275412175424A754380753F0375401E904A4775F080120AA2
:200CE700C9801875412175424A754380753F0375401E904A0D75F080120AC9D32290000CB0
:200D0700E4F0C20E9002767407F075415975424A754380753F0375401E904A0D75F0801205
:200D27000AC9900276E4F090000CE024FF227F0A904A6A75F080C007120289D007BFA100EF
:200D4700400122EF240CF582E43400F583E0FE24AB500E8E05ED24DBF58212023A7FA18014
:200D670045EE24B550198E05ED24E5F582C00712023A904A6A75F080120289D0078027EEB0
:200D870024BF50198E05ED24EFF582C00712023A904A6C75F080120289D00780098E82C0E9
:200DA7000712023AD0078F060FEE240CF582E43400F583E4F0020D44AD82AE83AFF0904A37
:200DC7006E75F080C007C006C005120289D005D006D0078D828E838FF0C007C006C0051245
:200DE7000289904A7975F080120289854D8212023AD005D006D0078D828E838FF01202892C
:200E0700854D8212023A75418175424A754380753F0F7540019049FC75F080120AC9D322AC
:200E2700E582FF7003020F05904A9475F080C007120289D007BF0A00500D8F0674302EF5AC
:200E47008212023A020EEDBF6400503B8F057E0075190A8E1A8D828E83C006C005124709B1
:200E6700AB8274302BF58212023AD005D00675190A751A008D828E831246D3AD8274302D8D
:200E8700F58212023A805F7E007519648E1A8F828E83C007C006124709AC8274302CF58209
:200EA70012023AD006D00775190A751A008F828E83C007C00612470975190A751A00124679
:200EC700D3AC8274302CF58212023AD006D00775190A751A008F828E831246D3AE82743080
:200EE7002EF58212023A75419D75424A754380753F0175401F904A6A75F080020AC97F0165
:200F0700BF0A005036904A9475F080C007120289D0078F0674302EF582C00712023A754144
:200F27009D75424A754380753F0F754001904A6A75F080120AC9D0070F80C5BF640050654A
:200F4700904A9475F080C007120289D0078F057E0075190A8E1A8D828E83C007C006C00538
:200F6700124709AB8274302BF58212023AD005D00675190A751A008D828E831246D3AD82FB
:200F870074302DF58212023A7541AE75424A754380753F0F754001904A6A75F080120AC990
:200FA700D0070F8096BFFB00400122904A9475F080C007120289D0078F057E007519648EF1
:200FC7001A8D828E83C007C006C005124709AB8274302BF58212023AD005D00675190A75A3
:200FE7001A008D828E83C006C00512470975190A751A001246D3AB8274302BF58212023AB0
:20100700D005D00675190A751A008D828E831246D3AD8274302DF58212023A7541BF7542BB
:201027004A754380753F0F754001904A6A75F080120AC9D0070F020FAC754156754247757E
:201047004380753F0F754001904AD075F080120AC97534009000AB740BF09000ABE024F552
:2010670040012274052534500122120D049000ABE4F075370AE534700302113B904AD475DC
:20108700F0801202890534749C25344036AE347F0075190A8F1A8E828F83124709AE82745A
:2010A700302EF58212023AAE347F0075190A8F1A8E828F831246D3AE8274302EF58212028A
:2010C7003A8057AE347F007519648F1A8E828F83124709AE8274302EF58212023AAE347F50
:2010E7000075190A8F1A8E828F8312470975190A751A001246D3AE8274302EF58212023A0B
:20110700AE347F0075190A8F1A8E828F831246D3AE8274302EF58212023A7541E375424A78
:20112700754380753F0175401F904ADD75F080120AC980187541E375424A754380753F0147
:2011470075401F904AF475F080120AC9120C22400122120D3575410375424B754380753F7E
:20116700327540019049DF75F080120AC902106190F007E493703690F00CE493FF2405506C
:201187002C90000CE4F0120C22400122904B1475F08012028975410375424B754380753FF1
:2011A700327540019049DF75F080020AC990F007E493FF1FE4937D0025E0FEED33FDEE2E82
:2011C700FEED33FDEE2408F582ED34F0F583E493FEBEFF00500A90F007E493FD7E0080044A
:2011E7007D007E007E0074632DF582E43EF5837519648E1AC0071246D3AD82D007EDF55294
:2012070060067C0A7E00802390F007E493FB7A0075190A8A1A8B828A83C007124709AA829C
:20122700AB83D0070AEAFC3395E0FE8C5175410375424B754380753F327540019049DF7573
:20124700F080C007120AC9D007740AB5510474018001E4FE754E00EFB552012274F6254E7B
:201267005001228F507900EFB55203021415B90A0040030214158900E875F00BA404F8883E
:20128700388837900276740FF0904AD475F080C007C006C001120289D001D006D0078F004A
:2012A7007A00E828F8EA33FAE828F8EA33FAE82408F582EA34F0F583E493FABA0A005019C0
:2012C7008A00743028F582C007C006C00112023AD001D006D0070213A3BA6400504B8A0025
:2012E7007C0075190A8C1A88828C83C007C006C004C001C000124709AB8274302BF582125B
:20130700023AD000D001D00475190A751A0088828C83C0011246D3AC8274302CF582120260
:201327003AD001D006D00780737D007519648D1A8A828D83C007C006C005C002C00112479B
:2013470009AB8274302BF58212023AD001D002D00575190A751A008A828D83C005C002C0BA
:201367000112470975190A751A001246D3AB8274302BF58212023AD001D002D00575190AE0
:20138700751A008A828D83C0011246D3AC8274302CF58212023AD001D006D0077541E37560
:2013A700424A754380753F0175401F904A6A75F080C007C006C001120AC9D0018919751A7B
:2013C7000090000BC001124624E5828583F0D001D006D007240BFCE435F0FDEC240CF5828D
:2013E700ED3400F583E4F08F047D0074632CF582E43DF5837519648D1AC006C0011246D30B
:20140700AC82AD83D001D0068C070902126EAF5090000CE4F0C007C006120C22D006D007B9
:20142700400122754F00EFB5520302191D74F6254F500302191DE54E75F00AA4254F04FC2A
:20144700BC0A0050158C0374302BF582C007C00612023AD006D007021510BC640050438C97
:20146700027B0075190A8B1A8A828B83C007C006C003C002124709A882743028F58212029C
:201487003AD002D00375190A751A008A828B831246D3AA8274302AF58212023AD006D0078E
:2014A70080677B007519648B1A8C828B83C007C006C004C003124709A982743029F5821219
:2014C700023AD003D00475190A751A008C828B83C004C00312470975190A751A001246D3A4
:2014E700A982743029F58212023AD003D00475190A751A008C828B831246D3AB8274302B17
:20150700F58212023AD006D00775822EC007C00612023A854F19751A0090000B124624AB14
:2015270082AC83D006D007EB240CFBEC3400FC0BBB00010C7A008B828C838AF0C007C006A4
:20154700120289D006D0078F037C00EB2BFBEC33FCEB2BFBEC33FC0BBB00010CEB2408F5F5
:2015670082EC34F0F583E493FC23235403FC24FC4058EC2C90157F73800680178028803969
:20158700904B2875F080C007C006120289D006D0078037904B2C75F080C007C006120289B8
:2015A700D006D0078024904B3075F080C007C006120289D006D0078011904B3475F080C0C7
:2015C70007C006120289D006D007C0068F53755400E5532553F555E55433F556E555255517
:2015E700F555E55633F55674022555F8E43556FDE82408F582ED34F0F583E493C423541FA8
:20160700FC7E0075190A8E1A8C828E83C005C000124709AC82AE83D000D00574302CF582B8
:20162700C006C005C00012023AD000D005D006E82408F582ED34F0F583E493C423541FFEAC
:201647007C0075190A8C1A8E828C83C005C0001246D3AC82AE83D000D00574302CF582C0EF
:2016670006C005C00012023A75822F12023AD000D005D00674012555FCE43556FEEC24082B
:20168700F582EE34F0F583E493FA7B00740F5AF58275830075190A8B1AC006C005C004C0BE
:2016A70000124709AA8274302AF58212023AD000D004D005D006EC2408F582EE34F0F5839A
:2016C700E493FB7A00740F5BF58275830075190A8A1AC006C005C004C0001246D3AA8274B4
:2016E700302AF58212023A75822F12023AD000D004D005D006EC2408F582EE34F0F583E404
:2017070093FB530330E4CBC4540F6BCB540FCB6BCB30E30244F0FA74142BF582E43AF5833B
:2017270075190A751A00C006C005C004C000124709AA8274302AF58212023AD000D004D0D7
:2017470005D006EC2408F582EE34F0F583E493FE530630E4CEC4540F6ECE540FCE6ECE30DE
:20176700E30244F0FC74142EF582E43CF58375190A751A00C005C0001246D3AC82AE83D082
:2017870000D00574302CF582C006C005C00012023A75822C12023AD000D005D006E824088D
:2017A700F582ED34F0F583E493FE5306077C00EE2EF557EC33F558E5572557F557E5583389
:2017C700F55874032555FAE43556FBEA2408F582EB34F0F583E493232354037E002557F549
:2017E70082EE3558F58375190A8E1AC005C003C002C000124709AC82AE83D000D002D003ED
:20180700D00574302CF582C006C005C003C002C00012023AD000D002D003D005D006E8245B
:2018270008F582ED34F0F583E493FE5306077D00EE2EFEED33FDEE2EFEED33FDEA2408F5CE
:2018470082EB34F0F583E493232354037C002EF582EC3DF58375190A8C1AC003C002124687
:20186700D3AD82AE83D002D00374302DF582C006C003C00212023A75823A12023AD002D087
:2018870003D006EA2408F582EB34F0F583E493FE7D00743F5EF58275830075190A8D1AC0E3
:2018A70003C002124709AD82AE83D002D00374302DF582C006C003C00212023AD002D0036F
:2018C700D006EA2408F582EB34F0F583E493FE7D00743F5EF58275830075190A8D1A12460E
:2018E700D3AD82AE8374302DF582C00612023A75820D12023AD00674632553F582E43554F7
:20190700F583751964751A001246D3AD828D07054FD00602142D904B3875F080C007C006E7
:20192700120289D006D0077409B54E13904B3F75F080C007C006120289D006D0078012ABB0
:201947004E74312BF582C007C00612023AD006D00775822FC007C00612023AD006D007EEC7
:201967006013904B3F75F080C007C006120289D006D0078012AC5174302CF582C007C006B4
:2019870012023AD006D00775410375424B754380753F327540019049DF75F080C007C0068C
:2019A700120AC9D006D007054E02125E85825985835A85F05B90F004E49370187541427547
:2019C700424B754380753F037540019049DF75F080020AC9754156754247754380753F0F57
:2019E700754001904AD075F080120AC974012559FAE4355AFBAC5B8A828B838CF01246B7AF
:201A0700F9B92A028011C004C003C002120D04D002D003D004800590000CE4F0C004C003EF
:201A2700C002120C22D002D003D004400122904B5275F080C004C003C002120289D002D027
:201A470003D00430A306785A794B8004785D794B7F80888289838FF0C004C003C00212022B
:201A670089D002D003D0048A828B838CF01246B7FABA2A02803890000CE06032904B617561
:201A8700F08012028990000C75F000120289900010E07009904B6C75F08012028990001032
:201AA700E4F090000FF090000EF090000DF0855982855A83855BF012028974012559FDE49E
:201AC700355AFEAF5B8D828E838FF01246B7FDBD2A099049DF75F080020289754103754233
:201AE7004B754380753F327540019049DF75F080020AC9AF82753700BFA100500FEF240C93
:201B0700F582E43400F5830FE4F080EC2290000CE4F0120C2240012290476575F0801202FE
:201B27008975418675424B754380753F327540019049DF75F080020AC97541567542477512
:201B47004380753F0F754001904AD075F080120AC95034758200121AFA7537009002767405
:201B67000AF07541A175424B754380753F0F754001904B9775F080120AC95009900010E045
:201B8700FF900271F0D322C3227541B775424B754380753F0F754001904BAC75F080120ACA
:201BA700C94001227541D075424B754380753F0F754001904BC575F080120AC9400122905C
:201BC7000276740CF07541EC75424B754380753F0A75403C904BE175F080120AC9400122A2
:201BE700758200121AFA7537009002767402F075410775424C754380753F0F754001904B5B
:201C0700FD75F080120AC940012290000FE024D075F00AA4FF900010E02F24D0F53E9000A8
:201C270012E024D075F00AA4FF900013E02F24D0F53D900015E024D075F00AA4FF9000169C
:201C4700E02F24D0F53C900018E024D075F00AA4FF900019E02F24D0F53B90001BE024D060
:201C670075F00AA4FF90001CE02F24D0F53A90001EE024D075F00AA4FF90001FE02F24D027
:201C8700F5392275412075424C754380753F0F754001904C1575F080120AC9502B75820036
:201CA700121AFA753700900276740BF075413C75424C754380753F0F754001904C3175F0BC
:201CC70080120AC95002D322C32275415775424C754380753F0F754001904C4C75F080128C
:201CE7000AC94003021D8475417B75424C754380753F0F754001904C6875F080120AC940F1
:201D070003021D847541A075424C754380753F0F754001904C8C75F080120AC9505F900299
:201D270076740EF0758200121AFA7537007541B975424C754380753F0F754001904CB175C6
:201D4700F080120AC95034900272E4F07F00EF240CF582E43400F583E0FEBE2C02801CEFD1
:201D6700240CF582E43400F5830FE024D0FE900272E0FD75F00AA42EF080D3D322C322C045
:201D870026C0E0C0F0C082C083C007C006C005C004C003C002C001C000C0D075D010209888
:201DA700030237C643C110900274E0900273F0900277E02478F582E43402F583E599F0909F
:201DC7000277E0FF2478F582E43402F583E0FEBE4E028003021F0C8F147D00740C2CF58220
:201DE700E43DF58375190D8D1AC017C016C015C01475D0001246D375D010AA82AB83D014A8
:201E0700D015D016D017EA2478F582EB3402F583E0FBBB49028003021F0C740B2CF582E4DC
:201E27003DF58375190D751A00C017C016C015C01475D0001246D375D010AA82AB83D01463
:201E4700D015D016D017EA2478F582EB3402F583E0FBBB20028003021F0C740A2CF582E4C6
:201E67003DF58375190D751A00C017C016C015C01475D0001246D375D010AA82AB83D01423
:201E8700D015D016D017EA2478F582EB3402F583E0FBBB547074092CF582E43DF583751952
:201EA7000D751A00C017C016C015C01475D0001246D375D010AA82AB83D014D015D016D08B
:201EC70017EA2478F582EB3402F583E0FBBB4F3574082CF582E43DF58375190D751A00C092
:201EE70017C01675D0001246D375D010AC82AD83D016D017EC2478F582ED3402F583E0FD87
:201F0700BD4E02D227900276E0FD24F050030237B2ED240A83F582ED241483F583E473FEF3
:201F2700B2379EB2DAB2BC8B329428A41746442137212A372C372E362E20211F341F37ACF6
:201F4700370537EC240CF582E43400F583E599F07420B59934900277E0FC7B00740C2CF55F
:201F670082E43BF58375190D8B1A75D0001246D375D010AB82AC83EB2478F582EC3402F5CB
:201F870083E0FCBC3A03753700742CB5990280030237B2900276E4F0F5370237B27454B568
:201FA700996E8F137C00740C2BF582E43CF58375190D8C1AC017C014C01375D0001246D30C
:201FC70075D010A982AA83D013D014D017E92478F582EA3402F583E0FABA5334740B2BF551
:201FE70082E43CF58375190D751A00C01775D0001246D375D010AB82AC83D017EB2478F53B
:2020070082EC3402F583E0FCBC4405D2250237B27452B5990280030237B28F137C00740CB8
:202027002BF582E43CF58375190D8C1AC014C01375D0001246D375D010A982AA83D013D0A7
:2020470014E92478F582EA3402F583E0FABA4F0280030237B2740B2BF582E43CF583751937
:202067000D751A0075D0001246D375D010AB82AC83EB2478F582EC3402F583E0FCBC520218
:2020870080030237B2900273E4F00237B2AC370537EC240CF582E43400F583E599F07422C1
:2020A700B59934900277E0FC7B00740C2CF582E43BF58375190D8B1A75D0001246D375D088
:2020C70010AB82AC83EB2478F582EC3402F583E0FCBC2003753700742CB5990280030237E2
:2020E700B2900277E0FC7B00740C2CF582E43BF58375190D8B1A75D0001246D375D010AB5D
:2021070082AC83EB2478F582EC3402F583E0FCBC220280030237B2900276E4F0F537023704
:20212700B27431B5990280030237B2D2250237B2AC370537EC240CF582E43400F583E599E1
:20214700F0744BB59967900277E0FB7C00740C2BF582E43CF58375190D8C1AC014C013759D
:20216700D0001246D375D010A982AA83D013D014E92478F582EA3402F583E0FABA4C2E74D3
:202187000B2BF582E43CF58375190D751A0075D0001246D375D010AB82AC83EB2478F582AA
:2021A700EC3402F583E0FCBC4303753700740DB5990280030237B2900277E0FC7B00740CD5
:2021C7002CF582E43BF58375190D8B1A75D0001246D375D010AB82AC83EB2478F582EC343F
:2021E70002F583E0FCBC220280030237B2900276E4F0F5370237B2743EB599129049DF7502
:20220700F08075D00012028975D0100237B2BE470280030222EC8F137C00740C2BF582E467
:202227003CF58375190D8C1AC017C016C015C014C01375D0001246D375D010A982AA83D08C
:2022470013D014D015D016D017E92478F582EA3402F583E0FABA4E0280030222EC740B2B19
:20226700F582E43CF58375190D751A00C017C016C015C014C01375D0001246D375D010A987
:2022870082AA83D013D014D015D016D017E92478F582EA3402F583E0FABA4949740A2BF5B7
:2022A70082E43CF58375190D751A00C017C016C01575D0001246D375D010AB82AC83D0154B
:2022C700D016D017EB2478F582EC3402F583E0FCBC5212904CC075F08075D00012028975BE
:2022E700D0100237B2E4BE3A0104FC70030224B78F127B00740C2AF582E43BF58375190D70
:202307008B1AC017C016C015C014C013C01275D0001246D375D010A882A983D012D013D066
:2023270014D015D016D017E82478F582E93402F583E0F9B952028048740C2AF582E43BF55B
:202347008375190D751A00C017C016C015C014C013C01275D0001246D375D010A882A983B3
:20236700D012D013D014D015D016D017E82478F582E93402F583E0F9B9460280030224B72F
:20238700740B2AF582E43BF58375190D751A00C017C016C015C014C013C01275D0001246BD
:2023A700D375D010A882A983D012D013D014D015D016D017E82478F582E93402F583E0F9D2
:2023C700B9420280030224B7740A2AF582E43BF58375190D751A00C017C016C015C014C0A3
:2023E70013C01275D0001246D375D010A882A983D012D013D014D015D016D017E82478F502
:2024070082E93402F583E0F9B9500280030224B774092AF582E43BF58375190D751A00C0B9
:2024270017C016C015C014C013C01275D0001246D375D010A882A983D012D013D014D015B1
:20244700D016D017E82478F582E93402F583E0F9B9435D74082AF582E43BF58375190D7520
:202467001A00C017C016C015C01475D0001246D375D010AA82AB83D014D015D016D017EA46
:202487002478F582EB3402F583E0FBBB2B229000ABE0FB24F650099000AB740BF00237B288
:2024A700D2029002767408F0C2107534000237B2EC70030226078F137C00740C2BF582E4B5
:2024C7003CF58375190D8C1AC017C016C015C014C01375D0001246D375D010A982AA83D0EA
:2024E70013D014D015D016D017E92478F582EA3402F583E0FABA49028003022607740B2B5D
:20250700F582E43CF58375190D751A00C017C016C015C014C01375D0001246D375D010A9E4
:2025270082AA83D013D014D015D016D017E92478F582EA3402F583E0FABA54028003022643
:2025470007740A2BF582E43CF58375190D751A00C017C016C015C014C01375D0001246D3F2
:2025670075D010A982AA83D013D014D015D016D017E92478F582EA3402F583E0FABA4D02B7
:20258700800302260774092BF582E43CF58375190D751A00C017C016C015C014C01375D033
:2025A700001246D375D010A982AA83D013D014D015D016D017E92478F582EA3402F583E04F
:2025C700FABA433C74082BF582E43CF58375190D751A00C017C016C01575D0001246D3757A
:2025E700D010AB82AC83D015D016D017EB2478F582EC3402F583E0FCBC2B05D20D0237B2BC
:20260700E4BE200104FC70030227B68F127B00740C2AF582E43BF58375190D8B1AC017C0F3
:2026270016C015C014C013C01275D0001246D375D010A882A983D012D013D014D015D016A0
:20264700D017E82478F582E93402F583E0F9B93A0280030227B6740B2AF582E43BF583759E
:20266700190D751A00C017C016C015C014C013C01275D0001246D375D010A882A983D012A6
:20268700D013D014D015D016D017E82478F582E93402F583E0F9B94C0280030227B6740A68
:2026A7002AF582E43BF58375190D751A00C017C016C015C014C013C01275D0001246D375D1
:2026C700D010A882A983D012D013D014D015D016D017E82478F582E93402F583E0F9B947F7
:2026E7000280030227B674092AF582E43BF58375190D751A00C017C016C015C014C013C0A7
:202707001275D0001246D375D010A882A983D012D013D014D015D016D017E82478F582E946
:202727003402F583E0F9B94D0280030227B674082AF582E43BF58375190D751A00C017C02C
:2027470016C015C014C013C01275D0001246D375D010A882A983D012D013D014D015D0167F
:20276700D017E82478F582E93402F583E0F9B9433E74072AF582E43BF58375190D751A00E9
:20278700C017C016C015C01475D0001246D375D010AA82AB83D014D015D016D017EA2478A1
:2027A700F582EB3402F583E0FBBB2B0302294AEC70030229958F137C00740C2BF582E43C4A
:2027C700F58375190D8C1AC017C016C015C014C01375D0001246D375D010A982AA83D01310
:2027E700D014D015D016D017E92478F582EA3402F583E0FABA3A028003022995740B2BF5F6
:2028070082E43CF58375190D751A00C017C016C015C014C01375D0001246D375D010A98254
:20282700AA83D013D014D015D016D017E92478F582EA3402F583E0FABA500280030229952E
:20284700740A2BF582E43CF58375190D751A00C017C016C015C014C01375D0001246D37581
:20286700D010A982AA83D013D014D015D016D017E92478F582EA3402F583E0FABA490280AD
:202887000302299574092BF582E43CF58375190D751A00C017C016C015C014C01375D0001F
:2028A7001246D375D010A982AA83D013D014D015D016D017E92478F582EA3402F583E0FA52
:2028C700BA4C02800302299574082BF582E43CF58375190D751A00C017C016C015C014C0B0
:2028E7001375D0001246D375D010A982AA83D013D014D015D016D017E92478F582EA34020C
:20290700F583E0FABA4302800302299574072BF582E43CF58375190D751A00C017C016C0D0
:202927001575D0001246D375D010AB82AC83D015D016D017EB2478F582EC3402F583E0FC34
:20294700BC2B4B8F137C0074092BF582E43CF58375190D8C1A75D0001246D375D010AB8236
:20296700AC83EB2478F582EC3402F583E0FCBC4C03D38001C392074006300C030237B2C2C0
:202987000AC208C2099002767403F00237B2BE4B028003022A268F137C00740C2BF582E433
:2029A7003CF58375190D8C1AC017C016C01575D0001246D375D010AB82AC83D015D016D0DD
:2029C70017EB2478F582EC3402F583E0FCBC4F4FBD0203753700A226B39225C2263002232E
:2029E700AC377D001CBCFF011DEC240CFCED3400FD8C828D83E0240AFB8C828D83F0C2103E
:202A0700753700E53770030237B2753700904C8C75F08075D00012028975D0100237B2BEB0
:202A2700540280030237B28F147D00740C2CF582E43DF58375190D8D1AC015C01475D000BF
:202A47001246D375D010AA82AB83D014D015EA2478F582EB3402F583E0FBBB4F02800302CA
:202A670037B2740B2CF582E43DF58375190D751A0075D0001246D375D010AC82AD83EC244E
:202A870078F582ED3402F583E0FDBD4E0280030237B2D2260237B2200A03022BE8E537709C
:202AA70068740DB5990280030237B230073D8F147D0074092CF582E43DF58375190D8D1AD9
:202AC70075D0001246D375D010AC82AD83EC2478F582ED3402F583E0FDBD2203D38001C35C
:202AE7009208BD6D03D38001C39209D201300808900276E4F00237B2300705753602053559
:202B07009002767405F00237B2740DB537028003022BC1BE2203022BC18F147D00740C2CD5
:202B2700F582E43DF58375190D8D1AC015C01475D0001246D375D010AA82AB83D014D015AB
:202B4700EA2478F582EB3402F583E0FBBB226B740B2CF582E43DF58375190D751A00C015FB
:202B6700C01475D0001246D375D010AA82AB83D014D015EA2478F582EB3402F583E0FBBB66
:202B87002C38740A2CF582E43DF58375190D751A0075D0001246D375D010AC82AD83EC24B3
:202BA70078F582ED3402F583E0FDBD220D746DB59902D2097537000237B274F62537400E04
:202BC700E5372401F582E43400F583E599F0E53724F35008753700D2080237B205370237C7
:202BE700B230073CBE30398F147D00740C2CF582E43DF58375190D8D1AC017C01675D00072
:202C07001246D375D010AC82AD83D016D017EC2478F582ED3402F583E0FDBD2203022CC3B8
:202C2700BE34028003022CC88F147D00740C2CF582E43DF58375190D8D1AC015C01475D014
:202C4700001246D375D010AA82AB83D014D015EA2478F582EB3402F583E0FBBB3863740B84
:202C67002CF582E43DF58375190D751A00C015C01475D0001246D375D010AA82AB83D0143B
:202C8700D015EA2478F582EB3402F583E0FBBB2B30740A2CF582E43DF58375190D751A00DD
:202CA70075D0001246D375D010AC82AD83EC2478F582ED3402F583E0FDBD2205D20A753707
:202CC70001740DB5990280030237B2900276E4F00237B2300B43743BB599028021740DB592
:202CE7009902801A746025374014AD370537ED240CF582E43400F583E599F00237B2E5375B
:202D0700240CF582E43400F583E4F0F537C20B900276E4F0D20C0237B2BE2C028003022E64
:202D2700128F147D00740C2CF582E43DF58375190D8D1AC015C01475D0001246D375D010EE
:202D4700AA82AB83D014D015EA2478F582EB3402F583E0FB90F003E493FAEBB512028003AD
:202D6700022E12740B2CF582E43DF58375190D751A00C015C01475D0001246D375D010AA0D
:202D870082AB83D014D015EA2478F582EB3402F583E0FB90F002E493FAEBB5126E740A2C85
:202DA700F582E43DF58375190D751A00C015C01475D0001246D375D010AA82AB83D014D056
:202DC70015EA2478F582EB3402F583E0FB90F001E493FAEBB5123474092CF582E43DF583D5
:202DE70075190D751A0075D0001246D375D010AC82AD83EC2478F582ED3402F583E0FD9078
:202E0700F000E493FCEDB5140280047D0080027D01ED24FF920B740DB5990280030237B2A3
:202E2700753701900276E4F00237B2743EB5990A900276E4F0D2250237B2BE5202800302B8
:202E470037B28F147D00740C2CF582E43DF58375190D8D1AC015C01475D0001246D375D006
:202E670010AA82AB83D014D015EA2478F582EB3402F583E0FBBB520280030237B2740B2C7F
:202E8700F582E43DF58375190D751A0075D0001246D375D010AC82AD83EC2478F582ED34AE
:202EA70002F583E0FDBD450280030237B2900273E4F00237B2300E5B900271E0FDBD5002F6
:202EC7008003BD66057420B5990FBD74028003BD6E297464B59902802274602537401C747B
:202EE7002EB599030237B2AD370537ED240CF582E43400F583E599F00237B2C20EC210E53D
:202F070037240CF582E43400F583E4F0F537D2250237B2900271E0FDBD500280030230773F
:202F2700BE3D0280030230778F137C00740C2BF582E43CF58375190D8C1AC017C016C015C6
:202F4700C014C01375D0001246D375D010A982AA83D013D014D015D016D017E92478F58231
:202F6700EA3402F583E0FABA68028003023077740B2BF582E43CF58375190D751A00C017CE
:202F8700C016C015C014C01375D0001246D375D010A982AA83D013D014D015D016D017E959
:202FA7002478F582EA3402F583E0FABA6E028003023077740A2BF582E43CF58375190D7567
:202FC7001A00C017C016C015C014C01375D0001246D375D010A982AA83D013D014D015D00E
:202FE70016D017E92478F582EA3402F583E0FABA6902800302307774092BF582E43CF58357
:2030070075190D751A00C017C016C015C014C01375D0001246D375D010A982AA83D013D086
:2030270014D015D016D017E92478F582EA3402F583E0FABA683A74082BF582E43CF58375CE
:20304700190D751A00C017C016C01575D0001246D375D010AB82AC83D015D016D017EB2450
:2030670078F582EC3402F583E0FCBC6303023412BD740280030231CFBE200280030231CF5D
:203087008F137C00740C2BF582E43CF58375190D8C1AC017C016C015C014C01375D0001290
:2030A70046D375D010A982AA83D013D014D015D016D017E92478F582EA3402F583E0FABAA2
:2030C7003A0280030231CF740B2BF582E43CF58375190D751A00C017C016C015C014C0131C
:2030E70075D0001246D375D010A982AA83D013D014D015D016D017E92478F582EA3402F522
:2031070083E0FABA470280030231CF740A2BF582E43CF58375190D751A00C017C016C0155F
:20312700C014C01375D0001246D375D010A982AA83D013D014D015D016D017E92478F5824F
:20314700EA3402F583E0FABA4B0280030231CF74092BF582E43CF58375190D751A00C017B2
:20316700C016C015C014C01375D0001246D375D010A982AA83D013D014D015D016D017E977
:203187002478F582EA3402F583E0FABA543A74082BF582E43CF58375190D751A00C017C0E4
:2031A70016C01575D0001246D375D010AB82AC83D015D016D017EB2478F582EC3402F583B2
:2031C700E0FCBC2003023412BD66028003023327BE3A0280030233278F137C00740C2BF54A
:2031E70082E43CF58375190D8C1AC017C016C015C014C01375D0001246D375D010A982AAAA
:2032070083D013D014D015D016D017E92478F582EA3402F583E0FABA4302800302332774EB
:203227000B2BF582E43CF58375190D751A00C017C016C015C014C01375D0001246D375D03A
:2032470010A982AA83D013D014D015D016D017E92478F582EA3402F583E0FABA4B0280038E
:20326700023327740A2BF582E43CF58375190D751A00C017C016C015C014C01375D0001289
:2032870046D375D010A982AA83D013D014D015D016D017E92478F582EA3402F583E0FABAC0
:2032A7005402800302332774092BF582E43CF58375190D751A00C017C016C015C014C013C8
:2032C70075D0001246D375D010A982AA83D013D014D015D016D017E92478F582EA3402F540
:2032E70083E0FABA203A74082BF582E43CF58375190D751A00C017C016C01575D000124657
:20330700D375D010AB82AC83D015D016D017EB2478F582EC3402F583E0FCBC2E03023412C7
:20332700BD6E0280030237B2BE200280030237B28F147D00740C2CF582E43DF58375190D26
:203347008D1AC015C01475D0001246D375D010AA82AB83D014D015EA2478F582EB3402F51B
:2033670083E0FBBB3A0280030237B2740B2CF582E43DF58375190D751A00C015C01475D0B0
:20338700001246D375D010AA82AB83D014D015EA2478F582EB3402F583E0FBBB430280038F
:2033A7000237B2740A2CF582E43DF58375190D751A00C015C01475D0001246D375D010AA1F
:2033C70082AB83D014D015EA2478F582EB3402F583E0FBBB4B0280030237B274092CF58266
:2033E700E43DF58375190D751A0075D0001246D375D010AC82AD83EC2478F582ED3402F5C9
:2034070083E0FDBD540280030237B2D20E0237B2200E03023499900271E0FDBD5002800387
:20342700BD6E05740AB59912BD66057422B5990ABD7432742EB59902802B74F62537402536
:2034470074F72537401AAD3705370DED3395E0FCED2401F582EC3400F583E599F00237B20C
:2034670005370237B2C20EC21074F625374018D225AD370DED3395E0FCED2401F582EC343C
:2034870000F583E4F08005900273E4F07537000237B2900271E0FDBD5040BE3A3D8F137C64
:2034A70000740C2BF582E43CF58375190D8C1AC017C016C01575D0001246D375D010AB8296
:2034C700AC83D015D016D017EB2478F582EC3402F583E0FCBC2903023560BD6E3FBE303C7D
:2034E7008F137C00740C2BF582E43CF58375190D8C1AC017C016C01575D0001246D375D075
:2035070010AB82AC83D015D016D017EB2478F582EC3402F583E0FCBC2002803DBD660280D2
:2035270003BD743ABE34378F157E00740C2DF582E43EF58375190D8E1AC01775D000124656
:20354700D375D010AD82AE83D017ED2478F582EE3402F583E0FEBE3805D20E0237B274350C
:20356700B5990280030236118F157E00740C2DF582E43EF58375190D8E1AC017C016C01583
:2035870075D0001246D375D010AB82AC83D015D016D017EB2478F582EC3402F583E0FCBC21
:2035A7003168740B2DF582E43EF58375190D751A00C017C016C01575D0001246D375D0103D
:2035C700AB82AC83D015D016D017EB2478F582EC3402F583E0FCBC2031740A2DF582E43E11
:2035E700F58375190D751A00C01775D0001246D375D010AD82AE83D017ED2478F582EE341D
:2036070002F583E0FEBE2C0280757452B5990280030237B28F157E00740C2DF582E43EF589
:203627008375190D8E1AC016C01575D0001246D375D010AB82AC83D015D016EB2478F58228
:20364700EC3402F583E0FCBC520280030237B2740B2DF582E43EF58375190D751A0075D043
:20366700001246D375D010AD82AE83ED2478F582EE3402F583E0FEBE450280030237B2D2A4
:20368700280237B27422B599028003023715D2107E00740C2FF582E43EF58375190D8E1AF6
:2036A70075D0001246D375D010AE82AF83EE2478F582EF3402F583E0FFBF2C21AE377F00EF
:2036C7001EBEFF011FEE240CFEEF3400FF8E828F83E02411FD8E828F83F00237B2AE377F15
:2036E700001EBEFF011FEE240CFEEF3400FF8E828F83E0241BFD8E828F83F09000ABE0FF20
:203707000F9000ABEFF0900276E4F00237B2E59924D040030237B220100FE53475F00AA4A7
:20372700FFE599FE2F24D0F534AF370537EF240CF582E43400F583E599F00237B2AF37052F
:2037470037EF240CF582E43400F583E599F07422B59936900277E0FF7E00740C2FF582E40D
:203767003EF58375190D8E1A75D0001246D375D010AE82AF83EE2478F582EF3402F583E0A4
:20378700FFBF2C0585383780227422B5991DAE377F001EBEFF011FEE240CF582EF3400F590
:2037A70083E4F0F537900276F0D225900277E02401F0E0FF24F35005900277E4F0C298D040
:2037C700D0D000D001D002D003D004D005D006D007D083D082D0F0D0E0D02632AD82AE83D9
:2037E700AFF07C00754156754247754380753F0F754001904AD075F080C007C006C005C04B
:2038070004120AC9904CC575F080120289D004D005D006D0073009067A6D7B0080047A752B
:203827007B008A82C007C006C005C00412023AD004D005D006D007740A2DF9E43EFA8F03EE
:2038470089828A838BF0E41246098D828E838FF0C004120289D0043009067E6D7F00800488
:203867007E757F008E82C00412023A9000AB7409F07537007541CF75424C754380753F0FD6
:203887007540029049FC75F080120AC9D0047F00EF240CF582E43400F583E0FEBE3A00502C
:2038A7001B8C05ED75F00AA4FDEF240CF582E43400F5830FE0FB2D24D0FC80D4EC75F00A7C
:2038C700A42E24BFFFC007120108D0079000B9E07D0025E0FEED33FDEE2EFEED33FD7408FB
:2038E7002EFBE43DFCEB24B2F582EC3400F583EFF0E55C255C25E0FFAB3E7C00EB24ECFBAB
:20390700EC34FFFCC3EB9403EC64809480500BE53E24ECFB3395E0FC80047B037C00EB2F97
:20392700FF74092EFBE43DFCEB24B2F582EC3400F583EFC454F0253DF0740A2EFCE43DFFDD
:20394700EC24B2F582EF3400F583E53CC40354F8FFE53B0303543F2FF0740B2EFEE43DFDB8
:20396700EE24B2F582ED3400F583E53B5403030354C0253AF09000B9E0FFBF63079000B9F2
:20398700E4F080060F9000B9EFF00201A0C20F7F00EF240CFDE43400FE0F8D828E83E060FB
:2039A7000543C11080EBBFA000500FEF240CF582E43400F5830FE4F080EC90000CE0FFBF0F
:2039C7003F02800890000DE0FEBE3F06200803021B14BF4203023E63BF4403023B52BF48FA
:2039E700028065BF4B03023A90BF4C03023CA5BF5003023ACFBF5203023AC1BF53028054F9
:203A0700BF5503023DF7BF5803023B5EBF6203023E63BF6403023B52BF6802802BBF6B0221
:203A27008067BF6C03023CA5BF7003023ACFBF7203023AC1BF7302801BBF7503023DF7BF1E
:203A47007803023B5E023EC4200903023ECD121177023ECD90F005E4936006200903023E97
:203A6700CD90F005E493600B1201089000B7E4F01201A0D2A29000641202D9C2A2904CE0AD
:203A870075F0801219B3023ECD200903023ECD1201089000B77401F01201A0D2A290000B8D
:203AA700E4F0755C0390000175F0001237E3904CEF75F0801219B3023ECD904CFE75F080DB
:203AC7001219B3C2A0023ECD200903023ECD900010E0FFBF30005003023B46EF24C6405F9D
:203AE700900011E0FFBF30004055EF24C64050900012E0FFBF30004046EF24C64041900072
:203B070013E0FFBF30004037EF24C64032120108900010E09000B2F0900011E09000B3F07A
:203B2700900012E09000B4F0900013E09000B5F01201A0904D1075F0801219B3023ECD9010
:203B47004D2775F0801219B3023ECD200903023ECD121040023ECD90000DE0FFBF6F028046
:203B670008BF4F028003023C71200903023ECD900010E0FEBE30005003023C65EE24C65031
:203B870003023C65900011E0FDBD30004005ED24C65006ED6003023C65900012E0FCBC303E
:203BA700004005EC24C65006EC6003023C65BE3009758200120E27023C59ED700D8E03EBE9
:203BC70024D0F582120E27023C59EC70178E03EB24D075F00AA4FB8D02EA2B24D0F5821283
:203BE7000E27806E8D027B00EA24D0F519EB34FFF51A90000AC006C005C004124624AA82E7
:203C0700AB83D004D005D0068C007900E82AFAE93BFBEA24D0FAEB34FFFBC374329A7480D8
:203C27008BF063F08095F05011EE24FE500C904D2775F0801219B3023ECDEE24D075F0645E
:203C4700A4FEED24D075F00AA42E2C24D0F582120E27904D3A75F0801219B3023ECD904DF7
:203C67002775F0801219B3023ECDBF75028008BF55028003023ECDD2A19000641202D9C2CC
:203C8700A190000BE4F0755C0290000175F0001237E3904D5275F0801219B3023ECD900089
:203CA7000DE0FFBF75028008BF55028003023DC3200903023ECD900010E0FEBE30005003C0
:203CC700023DB7EE24C65003023DB7900011E0FEBE30005003023DB7EE24C65003023DB7EF
:203CE700900012E0FEBE30005003023DB7EE24C65003023DB7900013E0FEBE300050030221
:203D07003DB7EE24C65003023DB7900014E0FEBE30005003023DB7EE24C65003023DB7901D
:203D27000015E0FEBE30005003023DB7EE24C65003023DB7900016E0FEBE30005003023D2D
:203D4700B7EE24C65003023DB7900017E0FEBE30005003023DB7EE24C64055900018E0FED5
:203D6700BE3000404BEE24C64046900019E0FEBE3000403CEE24C6403790001AE4F0900017
:203D87001BE0FEE4BE6D0104700BBE74010470057C75FD80048E047D008C4D90001075F089
:203DA70000120DBF904D6275F0801219B3023ECD904D7B75F0801219B3023ECDBF65028041
:203DC70008BF45028003023ECDD2A39000641202D9C2A390000BE4F0755C0190000175F04C
:203DE700001237E3904D8F75F0801219B3023ECD200903023ECD900010E0FFBF4202801207
:203E0700BF6202800D900011E0FEBE6E028003BE4E1A1201089000B8740AF01201A0D2C27D
:203E2700904D9C75F0801219B3023ECDBF54028012BF7402800DBE66028008BE4602800392
:203E4700023ECD1201089000B8E4F01201A0C2C2904DA575F0801219B3023ECD2009030260
:203E67003ECD90000FE0FFBF42028012BF6202800D900010E0FEBE6E028003BE4E17120108
:203E8700089000B67401F01201A0904DAE75F0801219B38031BF5402800DBF74028008BE99
:203EA70066028003BE461F904DBB75F0801219B31201089000B6E4F01201A08009904D271D
:203EC70075F0801219B343C1107F00EF240CFDE43400FE8D828E83E0600FEF240CF582E46A
:203EE7003400F5830FE4F080E2227593007594FF7592007591007595007596FF75B20075DB
:203F0700B10075B30275B41C75CA0075C90075C00075B0FF75A00075B881759700D2AF75DF
:203F270035009000AD740AF09000AE7406F09000AF7402F09000B0F09000B1F090026EF0FC
:203F470090026CF090026D7406F090026FE4F0C2271201089000B9E0249C50059000B9E4BF
:203F6700F09000B6E024FE50059000B6E4F09000B7E024FE50059000B7E4F09000B8E0248E
:203F8700F550059000B8E4F09000B2E0FFBF30004032EF24C6402D9000B3E0FFBF3000409B
:203FA70023EF24C6401E9000B4E0FFBF30004014EF24C6400F9000B5E0FFBF30004005EFCB
:203FC70024C650129000B57430F09000B4F09000B3F09000B2F01201A01201549001DEE0B3
:203FE700249C50059001DEE4F01201DEC20690F005E49324FF92A290F006E49324FF92C2E2
:20400700120222120767120481900270743CF075C1659000017430F090000BE4F0D2133066
:20402700152590F006E493601EC21590F006E493FFBF0102C2C21201089000B8E0FF1F90BA
:2040470000B8EFF01201A0900270E0700B90026FE0600590026FE4F0100D028021754156CB
:20406700754247754380753F0F754001904AD075F080120AC9904DC875F080120289300CB3
:204087001D1239947541D775424D754380753F0F754001904C8C75F080120AC9C20C900249
:2040A7006FE0701A90026CE07014C21890026F7401F0900270743CF07582801203F89002C6
:2040C7006FE0FFE0602710180280227E008F828E83A37519048E1A1246D3AE8290026FEE91
:2040E700F0900270743CF07582801203F890026DE07020C21C9002001200F0120108900017
:20410700B57430F09000B4F09000B3F09000B2F01201A01005028006121C8A121CD120127D
:204127000302440E7F008F5F8F5E8F5D7E008E047D007519088D1A8C828D83C007C0061254
:204147004709AC82D006EC245DF9E727FDEE244BFBE43402FC8B828C83E02DF78B828C83E9
:20416700E02430F582C00612023AD006D0070EBE140040BA855D82C00712024F855E8212ED
:20418700024F855F8212024F90F32CE4932430F58212023AD0077E00EF600302425490F3FD
:2041A7002CE493FDC3EE9D4003024254AD5D8E19751A00900003C006C005124624AB82AC7C
:2041C70083D005D0068B8274F22CF583E493FAEDB5022A74012BFAE43CFD8A8274F22DF509
:2041E70083E493FDB55E1674022BFBE43CFC8B8274F22CF583E493FDB55F0280047D0080BE
:20420700027D018D07EF60418E047D0075190A8D1A8C828D83C007C006C005C0041247090F
:20422700AA8274302AF58212023AD004D00575190A751A008C828D831246D3AC8274302CA1
:20424700F58212023AD006D0070E02419F201403024375EF600302436E1201549001DEE049
:20426700FE8E19751A00900003124624AD82AE83ED24B2F582EE3400F583E55DF09001DE1F
:20428700E0FE8E19751A00900003124624E5828583F02401FDE435F0FEED24B2F582EE3410
:2042A70000F583E55EF09001DEE0FE8E19751A00900003124624E5828583F02402FDE4351F
:2042C700F0FEED24B2F582EE3400F583E55FF09001DEE0FE0E9001DEEEF01201DE75822031
:2042E70012023A90F32CE493FE8E19751A00900003124624E5828583F024FDFDE5F034FF7B
:20430700FE8D8274F22EF583E493F58212024F90F32CE493FE8E19751A00900003124624C3
:20432700E5828583F024FEFDE5F034FFFE8D8274F22EF583E493F58212024F90F32CE49360
:20434700FE8E19751A00900003124624E5828583F024FFFDE5F034FFFE8D8274F22EF58373
:20436700E493F58212024FC213C21402440AEF700302440A75822412023A90025FE02430AA
:20438700F58212023A900260E02430F58212023A900261E02430F58212023A900262E02482
:2043A70030F58212023A30060F900261E0FF24FF92A2A2A29206804B900261E0600A90021D
:2043C7005FE060047F0080027F01EF24FF92A290025FE0B401009206900260E0700330A237
:2043E700047F0080027F01EF24FF92A3900262E0700620A30330A2047F0080027F01EF2470
:20440700FF92A1C211C21210200280297582801203F875828012039390F32CE493FF249C59
:204427005011904DE675F0801204179007D01202D98002B21410290302454A75828012034A
:20444700F875828E120393900272E0FF7E0075190A8E1A8F828E83124709AE8274302EF514
:2044670082120331900272E0FF7E0075190A8E1A8F828E831246D3AE8274302EF5821203F1
:2044870031758280120393301447904DF775F08012041790F32CE493FF7E0075190A8E1A71
:2044A7008F828E83124709AE8274302EF58212033190F32CE493FF7E0075190A8E1A8F82BE
:2044C7008E831246D3AE8274302EF582120331804790026FE0FFBF010B904E0675F080128D
:2044E70004178034BF020B904E0D75F0801204178026BF030B904E1475F08012041780180E
:2045070030A3067E1B7F4E80047E207F4E7D808E828F838DF0120417752B25752C4E752D47
:2045270080853B2E853A2F853930A21692007582C7120502853E31853D32853C337582C076
:204547001206B31001030246031007030245EF90026FE0606D754156754247754380753F36
:204567000F754001904AD075F080120AC990000BE4F030082A90026FE0FFBF01067D6D7E1C
:20458700008011BF02067C757F0080047C747F008C058F068D4D90000175F000120DBF7510
:2045A70041E375424A754380753F0F754001904E2675F080120AC9904E3475F0801219B37B
:2045C7008026200823D2A39000641202D9C2A390000BE4F0F55C90000175F0001237E390B6
:2045E7004E4C75F0801219B390000BE4F075828412039390000175F00012041743C110028C
:0246070040264B
:204756002043554143554F4E20302E332E30004D612050696E204D61632044696E68203AE3
:2047760020303030300A436163206C656E6820636875207669657420484F412068617920B9
:204796007468756F6E67206465752064756F630A312E4C656E6820626174207468696574C0
:2047B6002062690A707070702C626174202D2076692064753A20303030302C6261740A32CD
:2047D6002E4C656E68207461742074686965742062690A707070702C746174202D207669F1
:2047F6002064753A20303030302C7461740A332E4C656E68206B69656D20747261207472F6
:20481600616E6720746861692074686965742062690A707070702C6B74202D2076692064B8
:20483600753A20303030302C6B740A342E4C656E68207468617920646F69206D61207069BC
:204856006E3A20707070702C70696E2C787878780A7669206475203A20303030302C70691A
:204876006E2C31323334200A5468617920646F69206D612070696E20747520303030302044
:204896002D3E20313233340A352E4C656E682072657365742073696D2D67736D0A7070703F
:2048B600702C72732D2076692064753A20303030302C72730A362E4C656E68206C6965744E
:2048D600206B652064616E682062610A707070702C64622D2076692064753A203030303039
:2048F6002C64620A372E4C656E6820786F612064616E682062613A20707070702C786F6126
:204916002C7878780A76643A20303030302C786F612C31352020786F6120736F206469650D
:204936006E2074686F6169207468752031350A76643A20303030302C786F612C3020202099
:20495600786F6120746F616E20626F2064616E682062610A382E4C656E68206C75752064A7
:20497600616E682062613A20707070702C6C75752C787878787878787878780A76643A2051
:20499600303030302C6C75752C303931323334353637380A6C757520736F206469656E2044
:2049B60074686F616920303931323334353637382076616F2064616E682062610020205407
:2049D6004D41202000412F0D001A00544B3C31303030204B2042414F43414F0041542B438D
:2049F6004D47533D2200220D0020202053454E44494E472020200041542B435553443D3107
:204A16002C222A31303123222C0D0020204B49454D20545241205344542020200041542B60
:204A3600435553443D312C222A31313023222C0D0041542B435553443D312C222A302322F1
:204A56002C0D0020204B49454D2054524120544B202020000D002C0041542B435042573D19
:204A76002C2200222C3132392C220020202053454E44494E472043504257202020004154F1
:204A96002B435042573D002020202044454C4554494E47202020200020202E2E44454C456A
:204AB60054494E472E2E2020002E2E2E2E44454C4554494E472E2E2E2E0041540D0041541F
:204AD6002B435042523D002C3235300D00202053454E44494E4720435042522020004154FD
:204AF6002B435042523D312C3235300D0044414E47204755492042414F2043414F00434881
:204B1600554120434F204C494348205355204E414F002C6C2C002C4C2C002C582C002C4BA2
:204B36002C005472616E67200031300020205441542042414F2043414F2020002052454C65
:204B560041593D004F4E004F4646000D544B204368696E683D000D546169206B686F616EA1
:204B760020636F6E2064756F6920313030303000204755492048554F4E472044414E202004
:204B96000041542B4353504E3F0D002054454E204D414E47200041542B434C54533D310DE4
:204BB6000020424154204C41592047494F200041542B434F50533D320D002020204E47411C
:204BD60054204D414E47202020200041542B434F50533D300D002020202054494D204D4121
:204BF6004E47202020200041542B43434C4B3F0D00204C41592047494F20475053200041F1
:204C1600542B434C49503D310D00202053454E44494E4720434C495020200041542B434346
:204C3600414C523F0D00205448494554204C415020474F49200041542B434D47463D310D21
:204C560000202053454E44494E4720434D474620200041542B434E4D493D312C312C302C3F
:204C7600302C310D00202053454E44494E4720434E4D4920200041542B434D4744413D223A
:204C960044454C20414C4C220D0020205448494554204C415020544E20200041542B4353EE
:204CB600510D0020534F4E4720004154480D0041542B435042463D220020534156494E47FD
:204CD60020484953544F525920000D44756E67206375612063756F6E000D4B686F61206370
:204CF60075612063756F6E000D72657365742067736D20736175313073000D446F69206D69
:204D1600612070696E207468616E6820636F6E67000D4C656E68206B686F6E6720686F7089
:204D3600206C65000D586F612064616E68206261207468616E6820636F6E67000D58756F56
:204D56006E67206375612063756F6E000D7468656D2064616E68206261207468616E68208E
:204D7600636F6E67000D536F206474206B686F6E6720686F70206C65000D4D6F20637561FE
:204D96002063756F6E000D42617420555053000D54617420555053000D4261742062616F28
:204DB6002063616F000D5461742062616F2063616F0041542B434D474C3D22414C4C220D65
:204DD600002044454C4554494E4720534D5320002048455420424F204E484F20484F43204D
:204DF6000042414D20484F432052454D4F5445004348494E483A0050485520203A00544147
:204E16004D20203A004F4E203A004F46463A000041542B435042523D312C39390D000D4C50
:204E360075752064616E68206261207468616E6820636F6E67000D4D6F20637561206C65C7
:064E56006E00142850C399
:06007000E478FFF6D8FD64
:20004E007904E94400601B7A01904E58788775A002E493F2A308B8000205A0D9F4DAF27525
:02006E00A0FFF1
:1B46090020F71130F6138883A88220F509F6A8837583002280FEF280F5F022B0
:1D462400E5828519F0A4C582C0F0851AF0A4D0F025F0C5838519F0A42583F5832225
:20464100E519451A60467A01E51925E0F519E51A334012F51AE5829519E583951A40030ABE
:2046610080E6C3E51A13F51AE51913F519C3E5829519F5F0E583951A4005F58385F082C385
:0D468100E51A13F51AE51913F519DAE1220F
:200076007800E84400600A790175A000E4F309D8FC7886E84402600C7903900001E4F0A3FD
:04009600D8FCD9FABF
:20468E007A10E4FBFCE58225E0F582E58333F583EB33FBEC33FCEB9519F5F0EC951A40061E
:0946AE00FCABF0438201DADD22CD
:0D00410075815F124741E582600302003EB9
:1C46B70020F71430F6148883A88220F507E6A88375830022E280F7E49322E02212
:2046D300C2D5E58330E70DD2D5E4C39582F582E49583F583E51A30E70BE4C39519F519E4EC
:1646F300951AF51A12464130D50BE4C39582F582E49583F583227F
:20470900C2D5E58330E70DD2D5E4C39582F582E49583F583E51A30E70DB2D5E4C39519F529
:1847290019E4951AF51A12468E30D50BE4C39582F582E49583F58322FC
:04474100758200225B
:00000001FF
