:20009F0075C70075C50075C60075C38075C40043C11022AE82AF8375C78375C5018EC48F2C
:2000BF00C375C65A75C6A500AFC2C00712009FD0078F8222AE82AF8375C78375C5028EC447
:2000DF008FC38518C275C65A75C6A50002009FAE82AF8375C78375C5038EC48FC375C65AA3
:2000FF0075C6A50002009F43C1107F04EF60101FEF24B2F582E43400F58374FFF080EDBFF0
:20011F0004005018EF24B2FDE43400FE8F827583F00FE493FC8D828E83F080E390000002FC
:20013F0000EE7F00BF0400502975C78375C5028FC475C300EF24B2F582E43400F5830FE0B6
:13015F00F5C275C65A75C6A500C00712009FD00780D2229E
:20017200759850438E40538EFE758BCC758DFFC2ABD28ED2ACD2A022E582FF700122C29920
:200192008F9920990543C11080F8C29922AD82AE83AFF0C2998D828E838FF012266FFC6062
:2001B200218C9920990543C11080F8C2998D828E838FF012266FFCBC1A01220DBD00D60E59
:0301D20080D322B5
:2001D500AE82AF837C007D00C3EC9EED9F500A43C1100CBC00F20D80EF22AE82AF837C0032
:2001F5007D00C3EC9EED9F501D9003E8C007C006C005C0041201D5D004D005D006D0070C4C
:20021500BC00DF0D80DC22AF82E5264FF5821202A575820D0202A5AF82301D118F82120287
:20023500A58527828528838529F00203258F82020306AF82D285EFC4540124FF9283EFA269
:20025500E5E43324FF9282EF2323540124FF9281EF235401FE24FF9280D28400C28400EF71
:20027500540124FF9283EF03540124FF9282EF03035401FE24FF9281EFA2E3E433FF24FF33
:200295009280D28400C2849000641201D5C28522AF82C285EFC4540124FF9283EFA2E5E444
:2002B5003324FF9282EF2323540124FF9281EF235401FE24FF9280D28400C28400EF540185
:2002D50024FF9283EF03540124FF9282EF03035401FE24FF9281EFA2E3E433FF24FF928016
:2002F500D28400C2849000640201D575820C0202A5E582FF600E8F821202A59026FD75F01F
:20031500800203257582011202A59006400201D5AD82AE83AFF07C008D828E838FF012266D
:200335006FFB6055BC10005050BB80005025EB24E050200CEC601C0DBD00010E8B82C007ED
:20035500C006C005C004120247D004D005D006D00780C58D828E838FF012266FFBA3AD8230
:20037500AE838B82C007C006C005C0041202A5D004D005D006D007809F22C286903A981208
:2003950001D575801C00C284900FA01201D5D28400C2849000A01201D5D28400C284900014
:2003B500A01201D575801400C2849003E81201D5D28400C2840075801100C284900028123C
:2003D50001D575801000C2840075801300C2849000281201D575801000C2840075801600A3
:2003F500C2849000281201D575801000C2840075801800C2849003E80201D5AF82E52D24AA
:20041500E8500122E52F240540030204CC8F821202A5852A82852B83852CF012032574F6A7
:20043500252D40067D207E00801DAB2D7C0075190A8C1A8B828C831226C1AB82AC837430B0
:200455002BFBFD3395E0FE8D82120247AD2D7E0075190A8E1A8D828E8312268BAD82743006
:200475002DF582120247E52F240350123000067D3A7E0080047D207E008D82120247AD2E7C
:200495007E0075190A8E1A8D828E83C006C0051226C1AB8274302BF582120247D005D0066C
:2004B50075190A751A008D828E8312268BAD8274302DF5820202478F821202A5852A8285DB
:2004D5002B83852CF012032574F6252D40067E207F00801DAC2D7D0075190A8D1A8C828D92
:2004F500831226C1AC82AD8374302CFCFE3395E0FF8E82120247AE2D7F0075190A8F1A8E08
:20051500828F8312268BAE8274302EF5821202473000067E3A7F0080047E207F008E82126B
:200535000247AE2E7F0075190A8F1A8E828F83C007C0061226C1AC8274302CF58212024749
:20055500D006D00775190A751A008E828F8312268BAE8274302EF5821202473000067E3A0B
:200575007F0080047E207F008E82120247AE2F7F0075190A8F1A8E828F83C007C006122657
:20059500C1AC8274302CF582120247D006D00775190A751A008E828F8312268BAE82743028
:0C05B5002EF582120247758220020247D8
:1126FD002020202020202020202020202020202000CC
:040000000200413287
:01000B0032C2
:0100130032BA
:01001B0032B2
:03002300020FA227
:01002B0032A2
:01003300329A
:03003B000206605A
:05009A00C22002003E3F
:03003E0002230793
:2005C10075FA0075EA009000B674A8F07461A3F075DA49D2DE2243C110B210A210928790F7
:2005E10000BEE0FFE06006EF149000BEF09000C0E0FFE06006EF149000C0F09000BCE06092
:200601000E9000BDE0FFE06006EF149000BDF020A0139000ADE014F0E0700AD2A09000AD1C
:20062100740AF0D2050534E53424C45031753400E5316006D532037531000535E53524C4A8
:20064100501C7535000536E53624E850117536009000B8E0FFE06006EF149000B8F022C08B
:2006610025C0E0C0F0C082C083C007C006C005C004C003C002C001C000C0D075D00843C182
:200681001010D80302079D9000B6E0FEA3E0FF8EEA8FFA9000B674A82EF074613FA3F030BA
:2006A100110930B5069000B97402F030110330B5047F0080027F01EF24FF921420130330B9
:2006C100B5047F0080027F01EF24FF921120120A2014032011047F0080027F01EF24FF925D
:2006E10012A2B5921330150930B3069000BA7402F030150330B3047F0080027F01EF24FF42
:20070100921820170330B3047F0080027F01EF24FF921520160A2018032015047F0080021E
:200721007F01EF24FF9216A2B3921730190930B4069000BB7402F030190330B4047F008060
:20074100027F01EF24FF921C201B0330B4047F0080027F01EF24FF9219201A0A201C03204F
:2007610019047F0080027F01EF24FF921AA2B4921B9000D2E014F0E0700AD2209000D274B1
:200781000AF0B21D9000D3E014F0E0700F9000D37428F075D0001205D775D008D0D0D0000A
:2007A100D001D002D003D004D005D006D007D083D082D0F0D0E0D0253285823C85833D8523
:2007C100F03EAC389000BFECF08537F0ECA4FB9000C0740A2BF0C21E853C82853D83853E90
:2007E100F0C00412019FD0047403253CF9E4353DFAAB3EA837301E030208BE9000C0E0701C
:20080100030208BE43C110758280C004C003C002C001C0001202A5853982853A83853BF0CC
:20082100120325752A8C752B29752C8085362D85352E85342FA21092007582C0120410D0BF
:2008410000D001D002D003D0049000BEE070A6880718EF60689000BEECF09000BFECF089CD
:20086100828A838BF012266F7010853C82853D83853EF012266FFFBF0D2090299475F08047
:20088100C004C003C002C001C00012019FD000D001D002D003D0040207F6853C82853D833A
:2008A100853EF0C004C003C002C001C00012019FD000D001D002D003D0040207F675828078
:2008C1001203069000C1E4F0A21E2290000CE0602090000FE0701A75399A753A29753B80A0
:2008E10075370375380190299875F0801207BAC32290000BE4F09029AB75F08012019F90B2
:20090100000175F00012019F9000C17409F07539B8753A29753B8075370575383D9029B589
:2009210075F0800207BA90000CE4F0C20D9000C17407F07539DA753A29753B80753703755F
:20094100381E9029C675F0801207BA9000C1E4F090000CE024FF227F0A9029EB75F080C051
:200961000712019FD007BFA100400122EF240CF582E43400F583E0FE24AB500E8E05ED244E
:20098100DBF58212018A7FA18045EE24B550198E05ED24E5F582C00712018A9029EB75F0E5
:2009A1008012019FD0078027EE24BF50198E05ED24EFF582C00712018A9029ED75F0801241
:2009C100019FD00780098E82C00712018AD0078F060FEE240CF582E43400F583E4F0020923
:2009E10067AD82AE83AFF09029EF75F080C007C006C00512019FD005D006D0078D828E835D
:200A01008FF0C007C006C00512019F9029FA75F08012019FD005D006D0078D828E838FF0E7
:200A210012019F853F8212018A753902753A2A753B8075370F7538019029B575F080120792
:200A4100BAD322E582FF7003020B22902A1575F080C00712019FD007BF0A00500D8F0674AB
:200A6100302EF58212018A020B0ABF6400503B8F057E0075190A8E1A8D828E83C006C00541
:200A81001226C1AB8274302BF58212018AD005D00675190A751A008D828E8312268BAD8268
:200AA10074302DF58212018A805F7E007519648E1A8F828E83C007C0061226C1AC827430DF
:200AC1002CF58212018AD006D00775190A751A008F828E83C007C0061226C175190A751A32
:200AE1000012268BAC8274302CF58212018AD006D00775190A751A008F828E8312268BAEB9
:200B01008274302EF58212018A75391E753A2A753B8075370175381F9029EB75F08002078C
:200B2100BA7F01BF0A005036902A1575F080C00712019FD0078F0674302EF582C00712016F
:200B41008A75391E753A2A753B8075370F7538019029EB75F0801207BAD0070F80C5BF6422
:200B6100005065902A1575F080C00712019FD0078F057E0075190A8E1A8D828E83C007C0C2
:200B810006C0051226C1AB8274302BF58212018AD005D00675190A751A008D828E83122656
:200BA1008BAD8274302DF58212018A75392F753A2A753B8075370F7538019029EB75F080BD
:200BC1001207BAD0070F8096BFFB00400122902A1575F080C00712019FD0078F057E00759D
:200BE10019648E1A8D828E83C007C006C0051226C1AB8274302BF58212018AD005D0067534
:200C0100190A751A008D828E83C006C0051226C175190A751A0012268BAB8274302BF58220
:200C210012018AD005D00675190A751A008D828E8312268BAD8274302DF58212018A75399F
:200C410040753A2A753B8075370F7538019029EB75F0801207BAD0070F020BC975390E7598
:200C61003A27753B8075370F753801902A5175F0801207BA7530009000AB740BF09000AB2C
:200C8100E024F5400122740525305001221209279000ABE4F075330AE5307003020D589034
:200CA1002A5575F08012019F0530749C25304036AE307F0075190A8F1A8E828F831226C154
:200CC100AE8274302EF58212018AAE307F0075190A8F1A8E828F8312268BAE8274302EF583
:200CE1008212018A8057AE307F007519648F1A8E828F831226C1AE8274302EF58212018AD4
:200D0100AE307F0075190A8F1A8E828F831226C175190A751A0012268BAE8274302EF582B6
:200D210012018AAE307F0075190A8F1A8E828F8312268BAE8274302EF58212018A7539646A
:200D4100753A2A753B8075370175381F902A5E75F0801207BA8018753964753A2A753B808D
:200D610075370175381F902A7575F0801207BA1208CC400122120958753984753A2A753B9B
:200D81008075373275380190299875F0801207BA020C7E85824085834185F04275390E7539
:200DA1003A27753B8075370F753801902A5175F0801207BA74012540FAE43541FBAC428AD4
:200DC100828B838CF012266FF9B92A028011C004C003C002120927D002D003D004800590D7
:200DE100000CE4F0C004C003C0021208CCD002D003D004400122902A9575F080C004C0034C
:200E0100C00212019FD002D003D00430A306789D792A800478A0792A7F80888289838FF080
:200E2100C004C003C00212019FD002D003D0048A828B838CF012266FFABA2A0280389000D8
:200E41000CE06032902AA475F08012019F90000C75F00012019F900010E07009902AAF7594
:200E6100F08012019F900010E4F090000FF090000EF090000DF08540828541838542F012D8
:200E8100019F74012540FDE43541FEAF428D828E838FF012266FFDBD2A0990299875F08028
:200EA10002019F753984753A2A753B8075373275380190299875F0800207BA90000CE4F05F
:200EC1001208CC40012290271E75F08012019F7539C9753A2A753B80753732753801902997
:200EE1009875F0800207BA75390E753A27753B8075370F753801902A5175F0801207BA5073
:200F0100327539E4753A2A753B8075370F753801902ADA75F0801207BA5018753900753A89
:200F21002B753B8075370F753801902AF575F0800207BA2275390E753A27753B8075370FF6
:200F4100753801902A5175F0801207BA40012275391C753A2B753B8075370F753802902BC3
:200F61001175F0801207BA5036753940753A2B753B8075370F753801902B2D75F0801207DA
:200F8100BA501C753965753A2B753B8075370F753801902B5175F0801207BA5002D322C3D6
:200FA10022C025C0E0C0F0C082C083C007C006C005C004C003C002C001C000C0D075D01053
:200FC100209803021EAF43C1109000BFE09000BEF09000C2E0FF24C3F582E43400F583E501
:200FE10099F09000C1E0FF24F65003021E9BEF240A83F582EF240E83F583E473119B9B0E30
:201001009B739B75E5DB101E1E181E1A1E1C1D1B743EB5991290299875F08075D000120143
:201021009F75D010021E9B9000C2E0FF24C3F582E43400F583E0FEBE470280030211038FD4
:20104100147D00740C2CF582E43DF58375190D8D1AC017C016C015C01475D00012268B752D
:20106100D010AA82AB83D014D015D016D017EA24C3F582EB3400F583E0FBBB4E0280030255
:201081001103740B2CF582E43DF58375190D751A00C017C016C015C01475D00012268B7583
:2010A100D010AA82AB83D014D015D016D017EA24C3F582EB3400F583E0FBBB4945740A2CB2
:2010C100F582E43DF58375190D751A00C017C01675D00012268B75D010AC82AD83D016D0B7
:2010E10017EC24C3F582ED3400F583E0FDBD5212902B7775F08075D00012019F75D0100292
:201101001E9BE4BE3A0104FD70030212758F137C00740C2BF582E43CF58375190D8C1AC062
:2011210017C016C015C014C01375D00012268B75D010A982AA83D013D014D015D016D01717
:20114100E924C3F582EA3400F583E0FABA52028003021275740B2BF582E43CF58375190D69
:20116100751A00C017C016C015C014C01375D00012268B75D010A982AA83D013D014D01555
:20118100D016D017E924C3F582EA3400F583E0FABA42028003021275740A2BF582E43CF58B
:2011A1008375190D751A00C017C016C015C014C01375D00012268B75D010A982AA83D013C0
:2011C100D014D015D016D017E924C3F582EA3400F583E0FABA5002800302127574092BF50C
:2011E10082E43CF58375190D751A00C017C016C015C014C01375D00012268B75D010A982F9
:20120100AA83D013D014D015D016D017E924C3F582EA3400F583E0FABA435974082BF582FC
:20122100E43CF58375190D751A00C017C016C01575D00012268B75D010AB82AC83D015D0FB
:2012410016D017EB24C3F582EC3400F583E0FCBC2B229000ABE0FC24F650099000AB740B86
:20126100F0021E9BD2029000C17408F0C20F753000021E9BED70030213B18F147D00740C3A
:201281002CF582E43DF58375190D8D1AC017C016C015C01475D00012268B75D010AA82AB45
:2012A10083D014D015D016D017EA24C3F582EB3400F583E0FBBB490280030213B1740B2C60
:2012C100F582E43DF58375190D751A00C017C016C015C01475D00012268B75D010AA82AB49
:2012E10083D014D015D016D017EA24C3F582EB3400F583E0FBBB540280030213B1740A2C16
:20130100F582E43DF58375190D751A00C017C016C015C01475D00012268B75D010AA82AB08
:2013210083D014D015D016D017EA24C3F582EB3400F583E0FBBB4D0280030213B174092CDD
:20134100F582E43DF58375190D751A00C017C016C015C01475D00012268B75D010AA82ABC8
:2013610083D014D015D016D017EA24C3F582EB3400F583E0FBBB433874082CF582E43DF52E
:201381008375190D751A00C017C01675D00012268B75D010AC82AD83D016D017EC24C3F5A2
:2013A10082ED3400F583E0FDBD2B05D20C021E9BE4BE200104FD70030215488F137C007486
:2013C1000C2BF582E43CF58375190D8C1AC017C016C015C014C01375D00012268B75D010FF
:2013E100A982AA83D013D014D015D016D017E924C3F582EA3400F583E0FABA3A02800302E9
:201401001548740B2BF582E43CF58375190D751A00C017C016C015C014C01375D0001226E5
:201421008B75D010A982AA83D013D014D015D016D017E924C3F582EA3400F583E0FABA4C3D
:20144100028003021548740A2BF582E43CF58375190D751A00C017C016C015C014C0137527
:20146100D00012268B75D010A982AA83D013D014D015D016D017E924C3F582EA3400F583D5
:20148100E0FABA4702800302154874092BF582E43CF58375190D751A00C017C016C015C069
:2014A10014C01375D00012268B75D010A982AA83D013D014D015D016D017E924C3F582EAE5
:2014C1003400F583E0FABA4D02800302154874082BF582E43CF58375190D751A00C017C023
:2014E10016C015C014C01375D00012268B75D010A982AA83D013D014D015D016D017E9241E
:20150100C3F582EA3400F583E0FABA433A74072BF582E43CF58375190D751A00C017C0165D
:20152100C01575D00012268B75D010AB82AC83D015D016D017EB24C3F582EC3400F583E0A9
:20154100FCBC2B030216C4ED700302170F8F147D00740C2CF582E43DF58375190D8D1AC062
:2015610017C016C015C01475D00012268B75D010AA82AB83D014D015D016D017EA24C3F5C1
:2015810082EB3400F583E0FBBB3A02800302170F740B2CF582E43DF58375190D751A00C00F
:2015A10017C016C015C01475D00012268B75D010AA82AB83D014D015D016D017EA24C3F581
:2015C10082EB3400F583E0FBBB5002800302170F740A2CF582E43DF58375190D751A00C0BA
:2015E10017C016C015C01475D00012268B75D010AA82AB83D014D015D016D017EA24C3F541
:2016010082EB3400F583E0FBBB4902800302170F74092CF582E43DF58375190D751A00C081
:2016210017C016C015C01475D00012268B75D010AA82AB83D014D015D016D017EA24C3F500
:2016410082EB3400F583E0FBBB4C02800302170F74082CF582E43DF58375190D751A00C03F
:2016610017C016C015C01475D00012268B75D010AA82AB83D014D015D016D017EA24C3F5C0
:2016810082EB3400F583E0FBBB4302800302170F74072CF582E43DF58375190D751A00C009
:2016A10017C01675D00012268B75D010AC82AD83D016D017EC24C3F582ED3400F583E0FDF4
:2016C100BD2B4B8F147D0074092CF582E43DF58375190D8D1A75D00012268B75D010AC8230
:2016E100AD83EC24C3F582ED3400F583E0FDBD4C03D38001C392064006300B03021E9BC23D
:2017010009C207C2089000C17403F0021E9BBE4B0280030217968F147D00740C2CF582E455
:201721003DF58375190D8D1AC017C01675D00012268B75D010AC82AD83D016D017EC24C3A9
:20174100F582ED3400F583E0FDBD4F49A21FB3921EC21F300223AC337D001CBCFF011DECAF
:20176100240CFCED3400FD8C828D83E0240AFB8C828D83F0C20F753300E5337003021E9B2A
:20178100753300902B5175F08075D00012019F75D010021E9BBE54028003021E9B8F167F32
:2017A10000740C2EF582E43FF58375190D8F1AC017C01675D00012268B75D010AC82AD83BC
:2017C100D016D017EC24C3F582ED3400F583E0FDBD4F028003021E9B740B2EF582E43FF5F3
:2017E1008375190D751A0075D00012268B75D010AE82AF83EE24C3F582EF3400F583E0FFB6
:20180100BF4E028003021E9BD21F021E9B20090302196BE533706B740DB599028003021EB5
:201821009B3006409000C2E0FF7E0074092FF582E43EF58375190D8E1A75D00012268B756A
:20184100D010AE82AF83EE24C3F582EF3400F583E0FFBF2203D38001C39207BF6D03D38069
:2018610001C39208D2013007089000C1E4F0021E9B30060575320205319000C17405F00241
:201881001E9B740DB5330280030219449000C2E0FF24C3F582E43400F583E0FEBE2203025F
:2018A10019448F167F00740C2EF582E43FF58375190D8F1AC017C01675D00012268B75D0A8
:2018C10010AC82AD83D016D017EC24C3F582ED3400F583E0FDBD226B740B2EF582E43FF586
:2018E1008375190D751A00C017C01675D00012268B75D010AC82AD83D016D017EC24C3F53D
:2019010082ED3400F583E0FDBD2C38740A2EF582E43FF58375190D751A0075D00012268BBD
:2019210075D010AE82AF83EE24C3F582EF3400F583E0FFBF220D746DB59902D20875330088
:20194100021E9B74F62533400EE5332401F582E43400F583E599F0E53324F35008753300DA
:20196100D207021E9B0533021E9B3006429000C2E0FF24C3F582E43400F583E0FEBE302F4D
:201981007E00740C2FF582E43EF58375190D8E1A75D00012268B75D010AE82AF83EE24C331
:2019A100F582EF3400F583E0FFBF2203021A5C9000C2E0FF24C3F582E43400F583E0FEBE1E
:2019C10034028003021A618F167F00740C2EF582E43FF58375190D8F1AC017C01675D000B6
:2019E10012268B75D010AC82AD83D016D017EC24C3F582ED3400F583E0FDBD3863740B2EDE
:201A0100F582E43FF58375190D751A00C017C01675D00012268B75D010AC82AD83D016D06B
:201A210017EC24C3F582ED3400F583E0FDBD2B30740A2EF582E43FF58375190D751A007559
:201A4100D00012268B75D010AE82AF83EE24C3F582EF3400F583E0FFBF2205D2097533010B
:201A6100740DB599028003021E9B9000C1E4F0021E9B300A43743BB599028021740DB5998A
:201A810002801A746025334014AF330533EF240CF582E43400F583E599F0021E9BE5332484
:201AA1000CF582E43400F583E4F0F533C20A9000C1E4F0D20B021E9B9000C2E0FF24C3F580
:201AC10082E43400F583E0FEBE2C028003021BBB8F167F00740C2EF582E43FF58375190D4F
:201AE1008F1AC017C01675D00012268B75D010AC82AD83D016D017EC24C3F582ED3400F5A7
:201B010083E0FD90F003E493FCEDB514028003021BBB740B2EF582E43FF58375190D751A72
:201B210000C017C01675D00012268B75D010AC82AD83D016D017EC24C3F582ED3400F5838C
:201B4100E0FD90F002E493FCEDB5146E740A2EF582E43FF58375190D751A00C017C0167584
:201B6100D00012268B75D010AC82AD83D016D017EC24C3F582ED3400F583E0FD90F001E42C
:201B810093FCEDB5143474092EF582E43FF58375190D751A0075D00012268B75D010AE8257
:201BA100AF83EE24C3F582EF3400F583E0FF90F000E493FEEFB5160280047F0080027F0176
:201BC100EF24FF920A740DB599028003021E9B7533019000C1E4F0021E9B743EB5990A9024
:201BE10000C1E4F0D21E021E9B9000C2E0FF24C3F582E43400F583E0FEBE52028003021EF2
:201C01009B8F167F00740C2EF582E43FF58375190D8F1AC017C01675D00012268B75D010F6
:201C2100AC82AD83D016D017EC24C3F582ED3400F583E0FDBD52028003021E9B740B2EF5C7
:201C410082E43FF58375190D751A0075D00012268B75D010AE82AF83EE24C3F582EF34000E
:201C6100F583E0FFBF45028003021E9B9000BEE4F0021E9B300D3D7420B59902801A74601F
:201C810025334014AF330533EF240CF582E43400F583E599F0021E9BC20DC20FE533240C46
:201CA100F582E43400F583E4F0F5339000C1F0D21E021E9B9000C2E0FF24C3F582E434008D
:201CC100F583E0FEBE3D028003021E9B8F167F00740C2EF582E43FF58375190D8F1AC01773
:201CE100C01675D00012268B75D010AC82AD83D016D017EC24C3F582ED3400F583E0FDBD08
:201D010068028003021E9B740B2EF582E43FF58375190D751A00C017C01675D00012268B7C
:201D210075D010AC82AD83D016D017EC24C3F582ED3400F583E0FDBD6E028003021E9B7483
:201D41000A2EF582E43FF58375190D751A00C017C01675D00012268B75D010AC82AD83D0D6
:201D610016D017EC24C3F582ED3400F583E0FDBD69028003021E9B74092EF582E43FF58382
:201D810075190D751A00C017C01675D00012268B75D010AC82AD83D016D017EC24C3F58299
:201DA100ED3400F583E0FDBD68028003021E9B74082EF582E43FF58375190D751A0075D01C
:201DC1000012268B75D010AE82AF83EE24C3F582EF3400F583E0FFBF63028003021E9BD28E
:201DE1000D021E9B7422B599028003021E72D20F9000C2E0FF7E00740C2FF582E43EF583CF
:201E010075190D8E1A75D00012268B75D010AE82AF83EE24C3F582EF3400F583E0FFBF2C0E
:201E210020AE337F001EBEFF011FEE240CFEEF3400FF8E828F83E02411FD8E828F83F08022
:201E410059AE337F001EBEFF011FEE240CFEEF3400FF8E828F83E0241BFD8E828F83F090AF
:201E610000ABE0FF0F9000ABEFF09000C1E4F08029E59924D05023200F0FE53075F00AA495
:201E8100FFE599FE2F24D0F530AF330533EF240CF582E43400F583E599F09000C2E0240179
:201EA100F0E0FF24F350059000C2E4F0C298D0D0D000D001D002D003D004D005D006D0072A
:201EC100D083D082D0F0D0E0D02532C20E7F00EF240CFDE43400FE0F8D828E83E06005438D
:201EE100C11080EBBFA000500FEF240CF582E43400F5830FE4F080EC90000CE0FFBF3F02F7
:201F0100800890000DE0FEBE3F06200703020EBCBF440302202FBF4B02805BBF4C03022155
:201F210071BF5003021F93BF52028058BF5302802FBF580302203BBF640302202FBF6B02A1
:201F41008034BF6C03022171BF70028045BF72028032BF73028009BF780302203B0222DADD
:201F6100D2A29000641201EFC2A2902B7C75F080120D940222E3D2A2902B8B75F080120DFE
:201F8100940222E3902B9A75F080120D94C2A00222E32008030222E3900010E0FFBF3000AF
:201FA1005003022023EF24C65003022023900011E0FFBF30005003022023EF24C6500302E2
:201FC1002023900012E0FFBF30004056EF24C64051900013E0FFBF30004047EF24C64042FA
:201FE1009000001200EE900010E0F5189000001200D3900011E0F5189000011200D39000BA
:2020010012E0F5189000021200D3900013E0F5189000031200D3902BAC75F080120D940240
:2020210022E3902BC375F080120D940222E32008030222E3120C5D0222E390000DE0FFBF8E
:202041006F028008BF4F02800302214E2008030222E3900010E0FEBE30005003022142EE3E
:2020610024C65003022142900011E0FDBD30004005ED24C65006ED6003022142900012E0A9
:20208100FCBC30004005EC24C65006EC6003022142BE3009758200120A44022136ED700D21
:2020A1008E03EB24D0F582120A44022136EC70178E03EB24D075F00AA4FB8D02EA2B24D0F6
:2020C100F582120A44806E8D027B00EA24D0F519EB34FFF51A90000AC006C005C0041225F7
:2020E100DCAA82AB83D004D005D0068C007900E82AFAE93BFBEA24D0FAEB34FFFBC37432A0
:202101009A74808BF063F08095F05011EE24FE500C902BC375F080120D940222E3EE24D091
:2021210075F064A4FEED24D075F00AA42E2C24D0F582120A44902BD675F080120D940222CD
:20214100E3902BC375F080120D940222E3BF75028008BF550280030222E3D2A190006412A7
:2021610001EFC2A1902BEE75F080120D940222E390000DE0FFBF75028008BF5502800302EE
:20218100228E2008030222E3900010E0FEBE30005003022283EE24C6500302228390001183
:2021A100E0FEBE30005003022283EE24C65003022283900012E0FEBE30005003022283EE30
:2021C10024C65003022283900013E0FEBE30005003022283EE24C65003022283900014E05B
:2021E100FEBE30005003022283EE24C65003022283900015E0FEBE30005003022283EE24A9
:20220100C65003022283900016E0FEBE30005003022283EE24C65003022283900017E0FE3A
:20222100BE30005003022283EE24C64055900018E0FEBE3000404BEE24C64046900019E062
:20224100FEBE3000403CEE24C6403790001AE4F090001BE0FEE4BE6D0104700BBE740104F9
:2022610070057C75FD80048E047D008C3F90001075F0001209E2902BFE75F080120D940247
:2022810022E3902C1775F080120D948055BF65028003BF454DD2A39000641201EFC2A3909E
:2022A1002C2B75F08012019F90000BE4F090000175F00012019F753939753A2C753B8075B1
:2022C100370F753802902C3575F0801207BA902C4875F080120D948009902BC375F08012C5
:2022E1000D9443C1107F00EF240CFDE43400FE8D828E83E0600FEF240CF582E43400F583E2
:202301000FE4F080E2227593007594FF7592007591007595007596FF75B20075B10075B3AF
:202321000275B41C75CA0075C90075C00075B0FF75A00075B881759700D2AF7531009000F9
:20234100AD740AF09000AE7406F09000AF7402F09000B0F09000B1F09000BBF09000BAF03E
:202361009000B9F09000BCE4F01201069000B2E0FFBF30004032EF24C6402D9000B3E0FF00
:20238100BF30004023EF24C6401E9000B4E0FFBF30004014EF24C6400F9000B5E0FFBF3012
:2023A100004005EF24C650129000B57430F09000B4F09000B3F09000B2F012014112017251
:2023C1001205C112038F120EE8120F359000BD743CF075C1659000017430F090000BE4F006
:2023E1009000BDE0700B9000BCE060059000BCE4F0100C02802175390E753A27753B80758D
:20240100370F753801902A5175F0801207BA902C5575F08012019F300B1D121ECC75396BEF
:20242100753A2C753B8075370F753801902B5175F0801207BAC20B10120280279000BCE09F
:20244100FF7E008F828E83A37519048E1A12268BAE829000BCEEF09000BD743CF07582807E
:20246100120306101602801E758200120A441201069000B57430F09000B4F09000B3F0903A
:2024810000B2F01201411005028006120EE8120F35101A0280267F00BF0300501F0F75390B
:2024A1009E753A2C753B8075370F753801902C7A75F080C0071207BAD00780DC10200302EC
:2024C100252C7582801202A59000BCE0FFBF010B902CAF75F0801203258034BF020B902CBE
:2024E100B475F0801203258026BF030B902CB975F080120325801830A3067EBE7F2C800425
:202501007EC37F2C7D808E828F838DF0120325752A8C752B29752C8085362D85352E85345A
:202521002FA21092007582C01204101001030225D61006030225C29000BCE070030225AEC3
:2025410075390E753A27753B8075370F753801902A5175F0801207BA90000BE4F030072ABC
:202561009000BCE0FFBF01067D6D7E008011BF02067C757F0080047C747F008C058F068D93
:202581003F90000175F0001209E2753964753A2A753B8075370F753801902CC875F0801209
:2025A10007BA902CD675F080120D948014200711D2A39000641201EF902CEE75F080120D4A
:1B25C1009490000BE4F07582841202A590000175F00012032543C1100223E17E
:20270E002043554143554F4E20302E312E3854004D612050696E204D61632044696E68202B
:20272E003A20303030300A436163206C656E6820636875207669657420484F412068617907
:20274E00207468756F6E67206465752064756F630A312E4C656E682062617420746869657C
:20276E00742062690A707070702C626174202D2076692064753A20303030302C6261740AF3
:20278E00322E4C656E68207461742074686965742062690A707070702C746174202D207690
:2027AE00692064753A20303030302C7461740A332E4C656E68206B69656D20747261207467
:2027CE0072616E6720746861692074686965742062690A707070702C6B74202D2076692013
:2027EE0064753A20303030302C6B740A342E4C656E68207468617920646F69206D6120702A
:20280E00696E3A20707070702C70696E2C787878780A7669206475203A20303030302C7082
:20282E00696E2C31323334200A5468617920646F69206D612070696E207475203030303063
:20284E00202D3E20313233340A352E4C656E682072657365742073696D2D67736D0A7070F7
:20286E0070702C72732D2076692064753A20303030302C72730A362E4C656E68206C6965BA
:20288E0074206B652064616E682062610A707070702C64622D2076692064753A203030305D
:2028AE00302C64620A372E4C656E6820786F612064616E682062613A20707070702C786FBF
:2028CE00612C7878780A76643A20303030302C786F612C31352020786F6120736F2064697A
:2028EE00656E2074686F6169207468752031350A76643A20303030302C786F612C302020BD
:20290E0020786F6120746F616E20626F2064616E682062610A382E4C656E68206C75752053
:20292E0064616E682062613A20707070702C6C75752C787878787878787878780A76643A75
:20294E0020303030302C6C75752C303931323334353637380A6C757520736F206469656EAC
:20296E002074686F616920303931323334353637382076616F2064616E68206261002020A3
:20298E00544D41202000412F0D001A00544B3C31303030204B2042414F43414F0041542BE4
:2029AE00434D47533D2200220D0020202053454E44494E472020200041542B435553443D5D
:2029CE00312C222A31303123222C0D0020204B49454D2054524120544B202020000D002C6B
:2029EE000041542B435042573D2C2200222C3132392C220020202053454E44494E4720434F
:202A0E005042572020200041542B435042573D002020202044454C4554494E4720202020EA
:202A2E000020202E2E44454C4554494E472E2E2020002E2E2E2E44454C4554494E472E2EA4
:202A4E002E2E0041540D0041542B435042523D002C3235300D00202053454E44494E47200E
:202A6E004350425220200041542B435042523D312C3235300D0044414E472047554920423B
:202A8E00414F2043414F002052454C41593D004F4E004F4646000D544B204368696E683D60
:202AAE00000D546169206B686F616E20636F6E2064756F6920313030303000204755492045
:202ACE0048554F4E472044414E20200041542B4950523D300D00202053454E44494E4720A7
:202AEE004950522020200041542B434C49503D310D00202053454E44494E4720434C49508A
:202B0E0020200041542B434D47463D310D00202053454E44494E4720434D47462020004109
:202B2E00542B434E4D493D312C312C302C302C310D00202053454E44494E4720434E4D4965
:202B4E0020200041542B434D4744413D2244454C20414C4C220D00202053454E44494E4767
:202B6E0020434D4744412020004154480D000D44756E67206375612063756F6E000D4B6818
:202B8E006F61206375612063756F6E000D72657365742067736D20736175313073000D4404
:202BAE006F69206D612070696E207468616E6820636F6E67000D4C656E68206B686F6E6715
:202BCE0020686F70206C65000D586F612064616E68206261207468616E6820636F6E6700C2
:202BEE000D58756F6E67206375612063756F6E000D7468656D2064616E6820626120746826
:202C0E00616E6820636F6E67000D536F206474206B686F6E6720686F70206C650041542B92
:202C2E00435042463D22006D220D00205341564520484953544F525920000D4D6F206375EE
:202C4E00612063756F6E0041542B434D474C3D2252454320554E52454144220D002044455D
:202C6E004C4554494E4720534D53200041542B435042573D2C2230383239323234303431D9
:202C8E00222C3132392C226D6173746572220D00202053454E44494E47204350425720205F
:202CAE00004348493A005048553A0054414D3A004F4E203A004F46463A0041542B43504214
:202CCE00523D312C39390D000D4C75752064616E68206261207468616E6820636F6E6700A0
:0E2CEE000D4D6F20637561206C656E0014281B
:06007000E478FFF6D8FD64
:20004E007902E94400601B7A01902CFA78D275A000E493F2A308B8000205A0D9F4DAF2755E
:02006E00A0FFF1
:1D25DC00E5828519F0A4C582C0F0851AF0A4D0F025F0C5838519F0A42583F583228E
:2025F900E519451A60467A01E51925E0F519E51A334012F51AE5829519E583951A40030A27
:2026190080E6C3E51A13F51AE51913F519C3E5829519F5F0E583951A4005F58385F082C3ED
:0D263900E51A13F51AE51913F519DAE12277
:200076007800E84400600A790175A000E4F309D8FC78D1E84400600C7901900001E4F0A3B6
:04009600D8FCD9FABF
:202646007A10E4FBFCE58225E0F582E58333F583EB33FBEC33FCEB9519F5F0EC951A400686
:09266600FCABF0438201DADD2235
:0D0041007581421226F9E582600302003E3F
:1C266F0020F71430F6148883A88220F507E6A88375830022E280F7E49322E0227A
:20268B00C2D5E58330E70DD2D5E4C39582F582E49583F583E51A30E70BE4C39519F519E454
:1626AB00951AF51A1225F930D50BE4C39582F582E49583F5832250
:2026C100C2D5E58330E70DD2D5E4C39582F582E49583F583E51A30E70DB2D5E4C39519F592
:1826E10019E4951AF51A12264630D50BE4C39582F582E49583F58322CD
:0426F90075820022C4
:00000001FF
