:20009F0075C70075C50075C60075C38075C40043C11022AE82AF8375C78375C5018EC48F2C
:2000BF00C375C65A75C6A500AFC2C00712009FD0078F8222AE82AF8375C78375C5028EC447
:2000DF008FC38518C275C65A75C6A50002009FAE82AF8375C78375C5038EC48FC375C65AA3
:2000FF0075C6A50002009F43C1107ED17F00EE4F60141EBEFF011FEE24C1F582EF3400F570
:20011F008374FFF080E8C3EE94D1EF9400501EEE24C1FCEF3400FD8E8274F02FF5830EBE95
:20013F0000010FE493FB8C828D83F080D99000000200EE43C1107ED17F00EE4F60141EBEC8
:20015F00FF011FEE24C1F582EF3400F58374FFF080E8C3EE942EEF9401501EEE24C1FCEF8E
:20017F003400FD8E8274F22FF5830EBE00010FE493FB8C828D83F080D99002000200EE7E5D
:20019F00007F00C3EE94D1EF9400503075C78375C5028EC48FC3EE24C1F582EF3400F58324
:2001BF000EBE00010FE0F5C275C65A75C6A500C007C00612009FD006D00780C7227E007FE7
:2001DF0000C3EE942EEF9401503675C78375C5028EC48E0474022FFD8DC3EE24C1F582EF79
:2001FF003400F5830EBE00010FE0F5C275C65A75C6A500C007C00612009FD006D00780C120
:01021F0022BC
:20022000759850438E40538EFE758BB2758DFFC2ABD28ED2ACD2A022E582FF700122C2998B
:200240008F9920990543C11080F8C29922E582FFC4540FFE53070FBE0A0050067C307D0074
:2002600080047C577D00EC2EF582C007120238D007BF0A0050067D307E0080047D577E000F
:20028000ED2FF582020238AD82AE83AFF0C2998D828E838FF0124348FC60218C9920990599
:1D02A00043C11080F8C2998D828E838FF0124348FCBC1A01220DBD00D60E80D32206
:2002BD00AE82AF837C007D00C3EC9EED9F500A43C1100CBC00F20D80EF22AE82AF837C0049
:2002DD007D00C3EC9EED9F501D9003E8C007C006C005C0041202BDD004D005D006D0070C7A
:2002FD00BC00DF0D80DC22AF82E5294FF58212039175820D020391AF82302A118F821203B4
:20031D0091852A82852B83852CF00204158F820203F6E582FF700122D285EFC4540124FF88
:20033D009283EFA2E5E43324FF9282EF2323540124FF9281EF235401FE24FF9280D2840017
:20035D00C28400EF540124FF9283EF03540124FF9282EF03035401FE24FF9281EFA2E3E46A
:20037D0033FF24FF9280D28400C2849000641202BDC28522E582FF700122C285EFC45401E7
:20039D0024FF9283EFA2E5E43324FF9282EF2323540124FF9281EF235401FE24FF9280D218
:2003BD008400C28400EF540124FF9283EF03540124FF9282EF03035401FE24FF9281EFA24D
:2003DD00E3E433FF24FF9280D28400C2849000640202BD75820C020391E582FF600E8F8203
:2003FD001203919043D675F0800204157582011203919006400202BDAD82AE83AFF07C00E1
:20041D008D828E838FF0124348FB6055BC10005050BB80005025EB24E050200CEC601C0DD7
:20043D00BD00010E8B82C007C006C005C00412032FD004D005D006D00780C58D828E838F22
:20045D00F0124348FBA3AD82AE838B82C007C006C005C004120391D004D005D006D0078055
:20047D009F22C286903A981202BD75801C00C284900FA01202BDD28400C2849000A01202DC
:20049D00BDD28400C2849000A01202BD75801400C2849003E81202BDD28400C284007580B9
:2004BD001100C2849000281202BD75801000C2840075801300C2849000281202BD75801018
:2004DD0000C2840075801600C2849000281202BD75801000C2840075801800C2849003E8C6
:2004FD000202BDAF82E53024E8500122E532240540030205BC8F82120391852D82852E83F2
:20051D00852FF012041574F6253040067D207E00801DAB307C0075190A8C1A8B828C83126F
:20053D00439AAB82AC8374302BFBFD3395E0FE8D8212032FAD307E0075190A8E1A8D828E6D
:20055D0083124364AD8274302DF58212032FE532240350123000067D3A7E0080047D207EDD
:20057D00008D8212032FAD317E0075190A8E1A8D828E83C006C00512439AAB8274302BF5E4
:20059D008212032FD005D00675190A751A008D828E83124364AD8274302DF58202032F8F93
:2005BD0082120391852D82852E83852FF012041574F6253040067E207F00801DAC307D00A5
:2005DD0075190A8D1A8C828D8312439AAC82AD8374302CFCFE3395E0FF8E8212032FAE30B1
:2005FD007F0075190A8F1A8E828F83124364AE8274302EF58212032F3000067E3A7F008099
:20061D00047E207F008E8212032FAE317F0075190A8F1A8E828F83C007C00612439AAC82DD
:20063D0074302CF58212032FD006D00775190A751A008E828F83124364AE8274302EF582EA
:20065D0012032F3000067E3A7F0080047E207F008E8212032FAE327F0075190A8F1A8E8227
:20067D008F83C007C00612439AAC8274302CF58212032FD006D00775190A751A008E828FA3
:20069D0083124364AE8274302EF58212032F75822002032F120391AE357F0075190A8F1AB0
:2006BD008E828F83C007C00612439AAC8274302CF58212032FD006D00775190A751A008E64
:2006DD00828F83124364AE8274302EF58212032FAE347F0075190A8F1A8E828F83C007C0A8
:2006FD000612439AAC8274302CF58212032FD006D00775190A751A008E828F83124364AED2
:20071D008274302EF58212032FAE337F0075190A8F1A8E828F83C007C00612439AAC8274CC
:20073D00302CF58212032FD006D00775190A751A008E828F83124364AE8274302EF582124B
:08075D00032F75822002032F17
:1143D6002020202020202020202020202020202000D6
:040000000200413287
:01000B0032C2
:0100130032BA
:01001B0032B2
:030023000214982C
:01002B0032A2
:01003300329A
:03003B0002088B2D
:05009A00C23002003E2F
:03003E000230533A
:2007650075FA0075EA0090020F74A8F07461A3F090021174FAF0E4A3F075DA4975DB49D216
:20078500DE2243C110B21DA21D92879000C0E014F0E070199000C0E4F090F32D9324FF92E0
:2007A5001890F006E493FF24FF920792A290020EE0FFE06012EF1490020EF0E070099002E1
:2007C5000EE4F090020DF0900214E0FFE06009302106EF14900214F0900215E0FFE0600916
:2007E500302506EF14900215F0900216E0FFE06009302906EF14900216F0900216E070023B
:20080500D22B900225E0FFE06006EF14900225F0900227E0FFE06006EF14900227F0900234
:2008250017E0600E900219E0FFE06006EF14900219F020A0139000BBE014F0E0700AD2A012
:200845009000BB740AF0D206053BE53B24C45035D21B753B00E5376006D538037537000555
:200865003CE53C24C4501E753C00D21C053DE53D24E85011753D00900213E0FFE06006EFE5
:2008850014900213F022C028C0E0C0F0C082C083C007C006C005C004C003C002C001C000AF
:2008A500C0D075D00843C11010D8030209BF90020FE0FEA3E0FF8EEA8FFA90020F74A82EA0
:2008C500F074613FA3F0301E0930B5069002147402F0301E0330B504C2318002D231A231A9
:2008E500922120200330B504C2318002D231A231921E201F0A202103201E04C2318002D203
:2009050031A231921FA2B5922030220930B3069002157406F030220330B304C2318002D23C
:2009250031A231922520240330B304C2318002D231A231922220230A202503202204C231FC
:200945008002D231A2319223A2B3922430260930B4069002167402F030260330B404C231EF
:200965008002D231A231922920280330B404C2318002D231A231922620270A202903202646
:2009850004C2318002D231A2319227A2B49228900239E014F0E0700AD230900239740AF0F6
:2009A500B22A90023AE014F0E0700F90023A7428F075D00012078775D00810D903020ACBFA
:2009C500900211E0FEA3E0FF8EEB8FFB90021174FA2EF0E43FA3F0301503020ACB9001EF88
:2009E500E0FF04F0EF700ED216C2A1A2A192A3A20792A2C21530B63990020BE070243014C7
:200A05002190020CE0FF24FD5018BF070050139001F0E0FF04F0EF24F1F582E43401F58321
:200A2500E4F090020BE02401F090020CE4F0020AAC90020CE0706430144690020BE0FF24A5
:200A4500FD503DBF0700503820191F9001F0E0FF30E0171FEF3395E0FEEF24F1FFEE340100
:200A6500FE8F828E83E07002D2199001F0E0FF04F0EF24F1F582E43401F5837401F0801BB4
:200A850090020BE0FF24E350129001EF7401F0301609D2149001F0E4F0C21990020CE02480
:200AA50001F090020BE4F030140C9001F0E0FFBF1804D21580109001F0E0FF24E75007907B
:200AC50001F0E4F0C214D0D0D000D001D002D003D004D005D006D007D083D082D0F0D0E025
:200AE500D0283285824285834385F0447C007B0090F008E493FAC3EB9A4003020BB5754583
:200B05000179008B19751A0090000AC004C003C0011242B5A882AA83D001D003D0048906DA
:200B25007F00EE28F8EF3AFAE82409F582EA34F0F583E493FFE92542FAE43543FDAE448A59
:200B4500828D838EF0124348FAEFB502028005754500800609B9090040A9E545604C8B194E
:200B6500751A0090000AC004C0031242B5AE82AF83D003D00474092EFAE43FFDEA2409FAD8
:200B8500ED34F0FD8A828D83E493601E74092EFEE43FFFEE2409F582EF34F0F583E4939042
:200BA500000CF08C07EF04F582220B8B04020AF57582002285824785834885F04990F0087D
:200BC500E493F54A7B00C3EB954A502E8B19751A0090000AC0031242B5E5828583F0D00309
:200BE5002409F9E435F0FAE92409F9EA34F0FA89828A83E49360030B80CCEBFAB54A04740B
:200C0500018001E4FB600874EC254A5002C322C003C002120106D002D00379008A19751A12
:200C25000090000AC003C002C0011242B585824B85834CD001D002D0037409254BF8E435AC
:200C45004CFF89057E00ED28F8EE3FFFE824C1F8EF3400FFE92547FCE43548FDAE498C8264
:200C65008D838EF012434888828F83F009B9090040AA7412254BFEE4354CFFEE24C1F582E1
:200C8500EF3400F583E546F0EB6008AC4A0C9000C9ECF012019ED322AF82C007120106D088
:200CA50007EF702AFDFE74092DFBE43EFCEB24C1F582EC3400F583E4F00DBD00010EC3EDA5
:200CC50094C8EE940040DF9000C9E4F080599000C9E0FEC39F40507D007E008F037C00EBEF
:200CE50024FFF519EC34FFF51A90000AC007C006C0051242B5E5828583F0D005D006D007BA
:200D05002409FBE435F0FCED2BFBEE3CFCEB24C1F582EC3400F583E4F00DBD00010EC3ED2C
:200D2500940AEE940040B402019E7F007E0090F008E493FDC3EE9D4003020DD98E19751A51
:200D45000090000AC007C0061242B5E5828583F0D006D0072409FCE435F0FDEC2409F58293
:200D6500ED34F0F583E493FDBD6D028003BD4D5E9000017430F0754D00AC4D0CEC3395E0DA
:200D8500FBEC2401FCEB3400FB8F19751A0090000AC007C004C0031242B5A982AA83D003D9
:200DA500D004D007A84D7D00E829F9ED3AFAE92409F582EA34F0F583E4938C828B83F0054B
:200DC5004D74F7254D50B290000BE4F0D3220E8E07020D33C322AD82AE83AFF0AC4F900228
:200DE50026ECF0854EF0ECA4FB900227740A2BF0C22C8D828E838FF0C007C006C005C004A9
:200E0500120287D004D005D006D007AB4E302C03020EB0900227E07003020EB0302E030295
:200E25000EB043C110C230758280C007C006C005C004C0031203918550828551838552F07C
:200E4500120415752D64752E46752F80853D30853C31853B32A21D92007582C0120500D08A
:200E650003D004D005D006D007102B028002C322900225E06003302F94C22F8B021BEA60A0
:200E85002A900225ECF0900226ECF08D828E838FF0C007C006C005C004C003120287D00316
:200EA500D004D005D006D007020E127582801203F6900228E4F0A22C2290001AE06020901B
:200EC500001DE0701A75506E755146755280754E03754F0190466C75F080120DDBC32290DF
:200EE500000BE4F090467F75F08012028790000175F0001202879002287409F075508C75BB
:200F05005146755280754E05754F3D90468975F080020DDBAD82AE83AFF090469A75F080A3
:200F2500C007C006C005120287D005D006D0078D828E838FF01202877550A17551467552CA
:200F450080754E01754F3C90469E75F080020DDBAF82BF0A00500A8F0674302EF5820202CF
:200F650038BF640050398F057E0075190A8E1A8D828E83C006C00512439AAB8274302BF5AB
:200F850082120238D005D00675190A751A008D828E83124364AD8274302DF5820202387EA2
:200FA500007519648E1A8F828E83C007C00612439AAC8274302CF582120238D006D0077511
:200FC500190A751A008F828E83C007C00612439A75190A751A00124364AC8274302CF58267
:200FE500120238D006D00775190A751A008F828E83124364AE8274302EF5820202389000AC
:201005001AE4F0120EBE4001227F0090F008E493FEC3EF9E40030210DF8F19751A009000D5
:201025000AC0071242B5E5828583F0D0072409FDE435F0FEED2409FDEE34F0FE8D828E8323
:20104500E49370030210DB8F06EE04F582C007120F5575822E120238758230120238D007BE
:201065007E008F19751A0090000AC007C0061242B5AC82AD83D0068E027B00EA2CFAEB3D0F
:20108500FBEA2409F582EB34F0F583E493F582C006C005C004120238D004D005D006D0075C
:2010A5000EBE090040BC75822CC007C005C004120238D004D00574092CFCE43DFDEC240916
:2010C500F582ED34F0F583E493F58212023875820D120238D0070F0210107550B2755146F6
:2010E500755280754E32754F0190466C75F080020DDBAD82AE83AFF07550E775514375525E
:2011050080754E0F754F019046C375F080C007C006C005120DDB90001AE4F0120EBED005B8
:20112500D006D0074001229046C775F080C007C006C005120287D005D006D00790F006E43F
:201145009360067BCE7C4680047BD17C467A808B828C838AF0C007C006C005120287D005A2
:20116500D006D0078D828E838FF0C007C006C005120287D005D006D0070DBD00010E8D82C7
:201185008E838FF0124348FDBD2A0990466C75F0800202877550B2755146755280754E7879
:2011A500754F0190466C75F080020DDBAF82753900BFA100500FEF241AF582E43400F58382
:2011C5000FE4F080EC2290001AE4F0120EBE4001229043F675F0801202877550D5755146EB
:2011E500755280754E32754F0190466C75F080020DDB7550E7755143755280754E0F754F46
:20120500019046C375F080120DDB50347582001211B1753900900228740AF07550F07551B0
:2012250046755280754E0F754F019046E675F080120DDB500990001EE0FF900223F0D3226A
:20124500C322755006755147755280754E19754F029046FB75F080120DDB40012275501FEC
:20126500755147755280754E0F754F0190471475F080120DDB400122900228740CF0755062
:201285003B755147755280754E0A754F3C90473075F080120DDB4001229003E81202D775C9
:2012A50082001211B17539009002287402F0755056755147755280754E0F754F0190474CDC
:2012C50075F080120DDB40012290001DE024D075F00AA4FF90001EE02F24D0F5419000209D
:2012E500E024D075F00AA4FF900021E02F24D0F540900023E024D075F00AA4FF900024E0ED
:201305002F24D0F53F900026E024D075F00AA4FF900027E02F24D0F53D900029E024D075E7
:20132500F00AA4FF90002AE02F24D0F53C90002CE024D075F00AA4FF90002DE02F24D0F5C6
:201345003B854019751A009000171242B5751909751A0012439AAE82AF83AC3F7D00EC2E37
:20136500FEED3FFFE54024FD5013740355417D004DB401009232E433FC7D0080047C027D37
:2013850000EC2EFEED3FFFAC417D00EC2EFEED3FFF8C828D83A3A3A37519048D1AC007C091
:2013A5000612439AAC82AD83D006D007EC2EFEED3FFF8E828F83A3751907751A001242D2D6
:2013C500E58204F53E2275506F755147755280754E0F754F0190476475F080020DDB75505A
:2013E5008B755147755280754E0F754F0190478075F080120DDB40030214967550AF755113
:2014050047755280754E0F754F0190479C75F080120DDB40030214967550CD7551477552FB
:2014250080754E0F754F019047C075F080120DDB505F900228740EF07582001211B17539C6
:20144500007550E6755147755280754E0F754F019047DE75F080120DDB5034900224E4F04F
:201465007F00EF241AF582E43400F583E0FEBE2C02801CEF241AF582E43400F5830FE02407
:20148500D0FE900224E0FD75F00AA42EF080D3D322C322C028C0E0C0F0C082C083C007C044
:2014A50006C005C004C003C002C001C000C0D075D0102098030226B543C110900226E090D9
:2014C5000225F0900229E0242AF582E43402F583E599F0900229E0FF242AF582E43402F522
:2014E50083E0FEBE4E02800302161E8F147D00740C2CF582E43DF58375190D8D1AC017C00A
:2015050016C015C01475D00012436475D010AA82AB83D014D015D016D017EA242AF582EB2A
:201525003402F583E0FBBB4902800302161E740B2CF582E43DF58375190D751A00C017C0E2
:2015450016C015C01475D00012436475D010AA82AB83D014D015D016D017EA242AF582EBEA
:201565003402F583E0FBBB2002800302161E740A2CF582E43DF58375190D751A00C017C0CC
:2015850016C015C01475D00012436475D010AA82AB83D014D015D016D017EA242AF582EBAA
:2015A5003402F583E0FBBB547074092CF582E43DF58375190D751A00C017C016C015C014E5
:2015C50075D00012436475D010AA82AB83D014D015D016D017EA242AF582EB3402F583E09B
:2015E500FBBB4F3574082CF582E43DF58375190D751A00C017C01675D00012436475D010CA
:20160500AC82AD83D016D017EC242AF582ED3402F583E0FDBD4E02D22E900228E0FD24F0B9
:2016250050030226A1ED240A83F582ED241483F583E47310A149B5A18DA1A17AF0A63AB6DE
:20164500A1583319261821262326262524171816261626AC390539EC241AF582E43400F58B
:2016650083E599F07420B59934900229E0FC7B00740C2CF582E43BF58375190D8B1A75D00D
:201685000012436475D010AB82AC83EB242AF582EC3402F583E0FCBC3A03753900742CB5B9
:2016A500990280030226A1900228E4F0F5390226A17456B5996E8F137C00740C2BF582E40F
:2016C5003CF58375190D8C1AC017C014C01375D00012436475D010A982AA83D013D014D050
:2016E50017E9242AF582EA3402F583E0FABA4534740B2BF582E43CF58375190D751A00C0D8
:201705001775D00012436475D010AB82AC83D017EB242AF582EC3402F583E0FCBC4705D217
:201725002C0226A17452B5990280030226A18F137C00740C2BF582E43CF58375190D8C1A34
:20174500C014C01375D00012436475D010A982AA83D013D014E9242AF582EA3402F583E045
:20176500FABA4F0280030226A1740B2BF582E43CF58375190D751A0075D00012436475D0ED
:2017850010AB82AC83EB242AF582EC3402F583E0FCBC520280030226A1900225E4F00226A3
:2017A500A1AC390539EC241AF582E43400F583E599F07422B59934900229E0FC7B00740C17
:2017C5002CF582E43BF58375190D8B1A75D00012436475D010AB82AC83EB242AF582EC340B
:2017E50002F583E0FCBC2003753900742CB5990280030226A1900229E0FC7B00740C2CF512
:2018050082E43BF58375190D8B1A75D00012436475D010AB82AC83EB242AF582EC3402F5F4
:2018250083E0FCBC220280030226A1900228E4F0F5390226A17431B5990280030226A1D280
:201845002C0226A1AC390539EC241AF582E43400F583E599F0744BB59967900229E0FB7C46
:2018650000740C2BF582E43CF58375190D8C1AC014C01375D00012436475D010A982AA8316
:20188500D013D014E9242AF582EA3402F583E0FABA4C2E740B2BF582E43CF58375190D755F
:2018A5001A0075D00012436475D010AB82AC83EB242AF582EC3402F583E0FCBC4303753984
:2018C50000740DB5990280030226A1900229E0FC7B00740C2CF582E43BF58375190D8B1ADA
:2018E50075D00012436475D010AB82AC83EB242AF582EC3402F583E0FCBC22028003022683
:20190500A1900228E4F0F5390226A1743EB5991290466C75F08075D00012028775D010022C
:2019250026A1BE47028003021A018F137C00740C2BF582E43CF58375190D8C1AC017C0166E
:20194500C015C014C01375D00012436475D010A982AA83D013D014D015D016D017E9242AAB
:20196500F582EA3402F583E0FABA4E028003021A01740B2BF582E43CF58375190D751A00EC
:20198500C017C016C015C014C01375D00012436475D010A982AA83D013D014D015D016D00C
:2019A50017E9242AF582EA3402F583E0FABA494C740A2BF582E43CF58375190D751A00C0FA
:2019C50017C016C01575D00012436475D010AB82AC83D015D016D017EB242AF582EC34020D
:2019E500F583E0FCBC521575DB009047ED75F08075D00012028775D0100226A1E4BE3A0197
:201A050004FC7003021BCC8F127B00740C2AF582E43BF58375190D8B1AC017C016C015C00F
:201A250014C013C01275D00012436475D010A882A983D012D013D014D015D016D017E824D8
:201A45002AF582E93402F583E0F9B952028048740C2AF582E43BF58375190D751A00C017E2
:201A6500C016C015C014C013C01275D00012436475D010A882A983D012D013D014D015D036
:201A850016D017E8242AF582E93402F583E0F9B946028003021BCC740B2AF582E43BF58303
:201AA50075190D751A00C017C016C015C014C013C01275D00012436475D010A882A983D083
:201AC50012D013D014D015D016D017E8242AF582E93402F583E0F9B942028003021BCC747C
:201AE5000A2AF582E43BF58375190D751A00C017C016C015C014C013C01275D0001243647C
:201B050075D010A882A983D012D013D014D015D016D017E8242AF582E93402F583E0F9B9E4
:201B250050028003021BCC74092AF582E43BF58375190D751A00C017C016C015C014C013DA
:201B4500C01275D00012436475D010A882A983D012D013D014D015D016D017E8242AF582FD
:201B6500E93402F583E0F9B9435D74082AF582E43BF58375190D751A00C017C016C015C077
:201B85001475D00012436475D010AA82AB83D014D015D016D017EA242AF582EB3402F583A1
:201BA500E0FBBB2B229000B9E0FB24F650099000B9740BF00226A1D2039002287408F0C268
:201BC500127536000226A1EC7003021D1C8F137C00740C2BF582E43CF58375190D8C1AC007
:201BE50017C016C015C014C01375D00012436475D010A982AA83D013D014D015D016D01753
:201C0500E9242AF582EA3402F583E0FABA49028003021D1C740B2BF582E43CF58375190D88
:201C2500751A00C017C016C015C014C01375D00012436475D010A982AA83D013D014D01590
:201C4500D016D017E9242AF582EA3402F583E0FABA54028003021D1C740A2BF582E43CF58F
:201C65008375190D751A00C017C016C015C014C01375D00012436475D010A982AA83D013FB
:201C8500D014D015D016D017E9242AF582EA3402F583E0FABA4D028003021D1C74092BF525
:201CA50082E43CF58375190D751A00C017C016C015C014C01375D00012436475D010A98234
:201CC500AA83D013D014D015D016D017E9242AF582EA3402F583E0FABA433C74082BF582E2
:201CE500E43CF58375190D751A00C017C016C01575D00012436475D010AB82AC83D015D037
:201D050016D017EB242AF582EC3402F583E0FCBC2B05D2100226A1E4BE200104FC700302CC
:201D25001ECB8F127B00740C2AF582E43BF58375190D8B1AC017C016C015C014C013C012A6
:201D450075D00012436475D010A882A983D012D013D014D015D016D017E8242AF582E934B0
:201D650002F583E0F9B93A028003021ECB740B2AF582E43BF58375190D751A00C017C0161A
:201D8500C015C014C013C01275D00012436475D010A882A983D012D013D014D015D016D003
:201DA50017E8242AF582E93402F583E0F9B94C028003021ECB740A2AF582E43BF583751931
:201DC5000D751A00C017C016C015C014C013C01275D00012436475D010A882A983D012D00C
:201DE50013D014D015D016D017E8242AF582E93402F583E0F9B947028003021ECB74092A01
:201E0500F582E43BF58375190D751A00C017C016C015C014C013C01275D00012436475D047
:201E250010A882A983D012D013D014D015D016D017E8242AF582E93402F583E0F9B94D02B7
:201E45008003021ECB74082AF582E43BF58375190D751A00C017C016C015C014C013C01236
:201E650075D00012436475D010A882A983D012D013D014D015D016D017E8242AF582E9348F
:201E850002F583E0F9B9433E74072AF582E43BF58375190D751A00C017C016C015C0147508
:201EA500D00012436475D010AA82AB83D014D015D016D017EA242AF582EB3402F583E0FB2C
:201EC500BB2B0302205FEC70030220AC8F137C00740C2BF582E43CF58375190D8C1AC01776
:201EE500C016C015C014C01375D00012436475D010A982AA83D013D014D015D016D017E97E
:201F0500242AF582EA3402F583E0FABA3A0280030220AC740B2BF582E43CF58375190D7575
:201F25001A00C017C016C015C014C01375D00012436475D010A982AA83D013D014D015D032
:201F450016D017E9242AF582EA3402F583E0FABA500280030220AC740A2BF582E43CF5834A
:201F650075190D751A00C017C016C015C014C01375D00012436475D010A982AA83D013D0AB
:201F850014D015D016D017E9242AF582EA3402F583E0FABA490280030220AC74092BF582E1
:201FA500E43CF58375190D751A00C017C016C015C014C01375D00012436475D010A982AA09
:201FC50083D013D014D015D016D017E9242AF582EA3402F583E0FABA4C0280030220AC7413
:201FE500082BF582E43CF58375190D751A00C017C016C015C014C01375D00012436475D004
:2020050010A982AA83D013D014D015D016D017E9242AF582EA3402F583E0FABA4302800338
:202025000220AC74072BF582E43CF58375190D751A00C017C016C01575D00012436475D029
:2020450010AB82AC83D015D016D017EB242AF582EC3402F583E0FCBC2B4D8F137C00740968
:202065002BF582E43CF58375190D8C1A75D00012436475D010AB82AC83EB242AF582EC3461
:2020850002F583E0FCBC4C03D38001C392084006300E030226A1C20CC209C20AC20B900215
:2020A500287403F00226A1BE4B02800302213D8F137C00740C2BF582E43CF58375190D8CD6
:2020C5001AC017C016C01575D00012436475D010AB82AC83D015D016D017EB242AF582EC62
:2020E5003402F583E0FCBC4F4FBD0203753900A22DB3922CC22D300323AC397D001CBCFFC9
:20210500011DEC241AFCED3400FD8C828D83E0240AFB8C828D83F0C212753900E539700310
:202125000226A17539009047C075F08075D00012028775D0100226A1BE540280030226A149
:202145008F147D00740C2CF582E43DF58375190D8D1AC015C01475D00012436475D010AAB6
:2021650082AB83D014D015EA242AF582EB3402F583E0FBBB4F0280030226A1740B2CF58244
:20218500E43DF58375190D751A0075D00012436475D010AC82AD83EC242AF582ED3402F5FD
:2021A50083E0FDBD4E0280030226A1D22D0226A1200C03022298E539704D740DB599028082
:2021C500030226A1300807D2027538020537200812900217E0FDBD020A900218E0FDBD0261
:2021E500004004C2338002D233A233920F20080630090B200F08900228E4F00226A1900212
:20220500287405F00226A1740AB539607422B5995B9000017430F090000BE4F090000275B9
:20222500F00075D000120AE875D010E582FDB401009209ED600A90000CE0FCBC4D028004F9
:20224500C2338002D233A233920BED600F90000CE0FDBD6D028009BD4D028004C2338002FA
:20226500D233A233920A7539000226A174F62539400EE5392401F582E43400F583E599F09E
:20228500E53924F55008753900D2090226A105390226A130083CBE30398F147D00740C2CEA
:2022A500F582E43DF58375190D8D1AC017C01675D00012436475D010AC82AD83D016D0179C
:2022C500EC242AF582ED3402F583E0FDBD2203022373BE340280030223788F147D00740CA2
:2022E5002CF582E43DF58375190D8D1AC015C01475D00012436475D010AA82AB83D014D051
:2023050015EA242AF582EB3402F583E0FBBB3863740B2CF582E43DF58375190D751A00C085
:2023250015C01475D00012436475D010AA82AB83D014D015EA242AF582EB3402F583E0FB16
:20234500BB2B30740A2CF582E43DF58375190D751A0075D00012436475D010AC82AD83ECE1
:20236500242AF582ED3402F583E0FDBD2205D20C753901740DB5990280030226A1900228D3
:20238500E4F075DB490226A1300D43743BB599028021740DB59902801A746025394014AD44
:2023A500390539ED241AF582E43400F583E599F00226A1E539241AF582E43400F583E4F001
:2023C500F539C20D900228E4F0D20E0226A1300B030224D5300F030224D5BE2C02800302DD
:2023E50024D18F147D00740C2CF582E43DF58375190D8D1AC015C01475D00012436475D0D9
:2024050010AA82AB83D014D015EA242AF582EB3402F583E0FB90F003E493FAEBB512028039
:20242500030224D1740B2CF582E43DF58375190D751A00C015C01475D00012436475D010BC
:20244500AA82AB83D014D015EA242AF582EB3402F583E0FB90F002E493FAEBB5126E740AA0
:202465002CF582E43DF58375190D751A00C015C01475D00012436475D010AA82AB83D014B7
:20248500D015EA242AF582EB3402F583E0FB90F001E493FAEBB5123474092CF582E43DF521
:2024A5008375190D751A0075D00012436475D010AC82AD83EC242AF582ED3402F583E0FD90
:2024C50090F000E493FCEDB514028004C2338002D233A233920D740DB5990280030226A1BB
:2024E500753901900228E4F00226A1743EB5990A900228E4F0D22C0226A1BE5202800302DB
:2025050026A18F157E00740C2DF582E43EF58375190D8E1AC016C01575D00012436475D0DE
:2025250010AB82AC83D015D016EB242AF582EC3402F583E0FCBC520280030226A1740B2D31
:20254500F582E43EF58375190D751A0075D00012436475D010AD82AE83ED242AF582EE34B4
:2025650002F583E0FEBE450280030226A1900225E4F00226A17422B599028003022604D2F2
:20258500127E00740C2FF582E43EF58375190D8E1A75D00012436475D010AE82AF83EE24DC
:2025A5002AF582EF3402F583E0FFBF2C21AE397F001EBEFF011FEE241AFEEF3400FF8E8230
:2025C5008F83E02411FD8E828F83F00226A1AE397F001EBEFF011FEE241AFEEF3400FF8EBC
:2025E500828F83E0241BFD8E828F83F09000B9E0FF0F9000B9EFF0900228E4F00226A1E579
:202605009924D040030226A120120FE53675F00AA4FFE599FE2F24D0F536AF390539EF24AB
:202625001AF582E43400F583E599F00226A1AF390539EF241AF582E43400F583E599F07401
:2026450022B59936900229E0FF7E00740C2FF582E43EF58375190D8E1A75D0001243647541
:20266500D010AE82AF83EE242AF582EF3402F583E0FFBF2C05853A3980227422B5991DAEAB
:20268500397F001EBEFF011FEE241AF582EF3400F583E4F0F539900228F0D22C900229E0FF
:2026A5002401F0E0FF24F35005900229E4F0C298D0D0D000D001D002D003D004D005D00667
:2026C500D007D083D082D0F0D0E0D02832C2117F00EF241AFDE43400FE0F8D828E83E060DE
:2026E5000543C11080EBBFA000500FEF241AF582E43400F5830FE4F080EC90001AE0FFBFC8
:202705003F02800890001BE0FEBE3F062009030211CBBF4203022D0ABF4303022DA4BF443D
:2027250003022966BF4703022D8DBF4B030227FFBF4C03022B01BF50030228E6BF52030292
:20274500286CBF53028050BF5503022C97BF5803022972BF6203022D0ABF6303022DA4BF55
:202765006403022966BF6703022D8DBF6B030227FFBF6C03022B01BF70030228E6BF720350
:2027850002286CBF7302800FBF7503022C97BF7803022972022FA790F006E49330E00620FD
:2027A5000A03022FB090F006E49330E00D1201069000C7E05402F012019ED215D2A2C207A1
:2027C5009000641202D7C2A2A2A2921590F004E493600C9047F675F0801210F7022FB0753E
:2027E5005005755148755280754E03754F0190466C75F080120DDB022FB0200A03022FB08F
:2028050090001BE0FFBF50028003BF703812010690001EE0FFBF4E028003BF6E129000C760
:20282500E04402F090481575F0801210F780109000C7E05401F090482475F0801210F7127A
:20284500019E022FB01201069000C7E04401F012019ED2A2D20790000BE4F090483175F093
:20286500801210F7022FB0200A03022FB090001CE0FF90001EE0FEEFB50658BF72028003FC
:20288500BF5250300B4D90484075F0801210F7758200120C9D9002001200EE7518009003D0
:2028A5002C1200D31201069000C47430F09000C3F09000C2F09000C1F09000C7E4F0900080
:2028C500C6F09000C8F09000C504F012019EC213022FB090485775F0801210F7C2A0022F85
:2028E500B0200A03022FB090001EE0FFBF30004064EF24C6405F90001FE0FFBF300040556B
:20290500EF24C64050900020E0FFBF30004046EF24C64041900021E0FFBF30004037EF24E2
:20292500C6403212010690001EE09000C1F090001FE09000C2F0900020E09000C3F090003E
:2029450021E09000C4F012019E90486A75F0801210F7022FB090488175F0801210F7022FD3
:20296500B0200A03022FB0121003022FB090001BE0FFBF6F028008BF4F028003022A8520E8
:202985000A03022FB090001EE0FEBE30005003022A79EE24C65003022A7990001FE0FDBDB9
:2029A50030004005ED24C65006ED6003022A79900020E0FCBC30004005EC24C65006EC6046
:2029C50003022A79BE3009758200120C9D022A6DED700D8E03EB24D0F582120C9D022A6D63
:2029E500EC70178E03EB24D075F00AA4FB8D02EA2B24D0F582120C9D806E8D027B00EA2411
:202A0500D0F519EB34FFF51A90000AC006C005C0041242B5AA82AB83D004D005D0068C004F
:202A25007900E82AFAE93BFBEA24D0FAEB34FFFBC374329A74808BF063F08095F05011EEE3
:202A450024FE500C90488175F0801210F7022FB0EE24D075F064A4FEED24D075F00AA42E4C
:202A65002C24D0F582120C9D90489475F0801210F7022FB090488175F0801210F7022FB07C
:202A8500BF75028003BF556830070C9048AC75F0801210F7022FB0D21590F005E493601003
:202AA500D2A39000641202D7C2A3A2A39215800ED2A19000641202D7C2A1A2A192159000AF
:202AC5000BE4F090F00493600C9048C075F0801210F7022FB0755005755148755280754E36
:202AE50003754F0190466C75F080120DDB022FB09048D075F0801210F7022FB090001BE0F5
:202B0500FFBF75028008BF55028003022C1B200A03022FB090001EE0FEBE30005003022C08
:202B25000FEE24C65003022C0F90001FE0FEBE30005003022C0FEE24C65003022C0F900016
:202B450020E0FEBE30005003022C0FEE24C65003022C0F900021E0FEBE30005003022C0F7F
:202B6500EE24C65003022C0F900022E0FEBE30005003022C0FEE24C65003022C0F900023BF
:202B8500E0FEBE30005003022C0FEE24C65003022C0F900024E0FEBE3000406EEE24C64026
:202BA50069900025E0FEBE3000405FEE24C6405A900026E0FEBE30004050EE24C6404B9010
:202BC5000027E0FEBE30004041EE24C6403C900028E4F0900029E0FEBE6D067D6D7E0080EC
:202BE500047D757E008D4690001F75F000120BB9500C9048E375F0801210F7022FB09048D1
:202C0500FC75F0801210F7022FB090490C75F0801210F7022FB0BF65028003BF45683007C4
:202C25000C9048AC75F0801210F7022FB0D21590F005E4936010D2A19000641202D7C2A118
:202C4500A2A19215800ED2A39000641202D7C2A3A2A3921590000BE4F090F00493600C90D0
:202C6500492075F0801210F7022FB0755005755148755280754E03754F0190466C75F08036
:202C8500120DDB022FB09048D075F0801210F7022FB0200A03022FB090001EE0FFBF42022F
:202CA5008012BF6202800D90001FE0FEBE6E028003BE4E1A1201069000C8740AF012019ED9
:202CC500D2C290492D75F0801210F7022FB0BF5402800DBF74028008BE66028003BE461951
:202CE5001201069000C8E4F012019EC2C290493675F0801210F7022FB09048D075F08012C8
:202D050010F7022FB0200A03022FB090001DE0FF600690001CE0700C90493F75F08012109F
:202D2500F7022FB0BF42028012BF6202800D90001EE0FEBE6E028003BE4E18120106900067
:202D4500C57401F012019E90495375F0801210F7022FB0BF5402800DBF74028008BE660203
:202D65008003BE461790496075F0801210F71201069000C5E4F012019E022FB09048D07588
:202D8500F0801210F7022FB0200A03022FB090000BE4F090000175F000120F19022FB090A6
:202DA500001BE0FFBF67028008BF47028003022F9C200A03022FB090001DE0FFBF30005033
:202DC50003022F91EF24C65003022F9190001EE0FEBE30005003022F91EE24C65003022F50
:202DE5009190001FE0FDBD30005003022F91ED24C65003022F91900020E0FCBC30005003F8
:202E0500022F91EC24C65003022F91900021E0FBBB30005003022F91EB24C65003022F918A
:202E2500900022E0FABA30005003022F91EA24C65003022F91900023E0F9B930005003024F
:202E45002F91E924C65003022F91900024E0F8B830005003022F91E824C65003022F9190C5
:202E65000025E0F553C394305003022F91E55324C65003022F91900026E0F554C394305077
:202E850003022F91E55424C65003022F91EF24D075F00AA42E24D0FFED24D075F00AA42CF9
:202EA50024D0FEEB24D075F00AA42A24D0FDE924D075F00AA42824D0FCE55324D075F00A6B
:202EC500A4255424D0FBEF24E84019EE24C44014BD0100400FED24E0400ABC01004005EC2D
:202EE50024F3500C90496D75F0801210F7022FB08F3D8E3C753B008D3F8C408B41854019AD
:202F0500751A009000171242B5751909751A0012439AAE82AF83AC3F7D00EC2EFEED3FFF4B
:202F2500E54024FD5013740355417D004DB401009234E433FC7D0080047C027D00EC2EFE6A
:202F4500ED3FFFAC417D00EC2EFEED3FFF8C828D83A3A3A37519048D1AC007C00612439AD8
:202F6500AC82AD83D006D007EC2EFEED3FFF8E828F83A3751907751A001242D2E58204F58F
:202F85003E90497F75F0801210F7801F90496D75F0801210F780149048D075F0801210F77B
:202FA500800990488175F0801210F743C1107F00EF241AFDE43400FE8D828E83E0600FEFFB
:202FC500241AF582E43400F5830FE4F080E22290021AE0FF90F000E4937D0024D0FEED342E
:202FE500FFFD7C00EFB5065DECB5055990021BE0FF90F001E4937D0024D0FEED34FFFD7CC2
:2030050000EFB50640ECB5053C90021CE0FF90F002E4937D0024D0FEED34FFFD7C00EFB5AD
:203025000623ECB5051F90021DE0FF90F003E4937D0024D0FEED34FFFD7C00EFB50606EC71
:20304500B505028004C2358002D235A235227593007594FF7592007591007595007596FF81
:2030650075B20075B10075B30275B41C75CA0075C90075C00075B0FF75A00075B8817597EA
:2030850000D2AF9000C0741EF07537009000BB740AF09000BC7402F09000BDF09000BEF046
:2030A5009000BFF0900216F0900214F09002157406F0900217E4F0C22E90020EE4F090021A
:2030C5000DF090021304F0D2361201069000C5E024FE50069000C57401F09000C7E024FC76
:2030E50050059000C7E4F09000C6E024FE50059000C6E4F09000C8E024F550059000C8E492
:20310500F09000C9E024EB50059000C9E4F09000C1E0FFBF30004032EF24C6402D9000C2C7
:20312500E0FFBF30004023EF24C6401E9000C3E0FFBF30004014EF24C6400F9000C4E0FF52
:20314500BF30004005EF24C650129000C47430F09000C3F09000C2F09000C1F012019E900C
:20316500F007E49324FF92C21201529001EDE0249C50059001EDE4F09001EEE024FE500565
:203185009001EEE4F01201DC9013881202D712022012076512047F202E0E1211F7500912AA
:2031A50012471213CB1213E3900219743CF09000017430F090000BE4F0120D2F9213C237EE
:2031C50030130990498D75F0801210F7101C028003121247301B2590F007E493601EC21B55
:2031E50090F007E493FFBF0102C2C21201069000C8E0FF1F9000C8EFF012019E900219E0A5
:203205007033900217E0602D900218E4F0900217F0900019F090021DF090021CF090021B56
:20322500F090021AF0900221F0900220F090021FF090021EF010100280217550E7755143FF
:20324500755280754E0F754F019046C375F080120DDB90499C75F080120287200E030233B8
:203265002C200F0302332CC20EC20F900217E0FFBF02028003023314900218E0FFBF020088
:20328500400302331490001AE0FFBF6C028003BF4C0F90001BE0FFBF7502801FBF55028055
:2032A5001A90001AE0FFBF73028003BF536190001BE0FFBF61028003BF415490000BE4F04A
:2032C5007F00EF240DFDE43400FEEF2401F582E43400F583E0FC8D828E83F00FBF0B004017
:2032E500E1301312900218E060067E757F00800A7E6D7F0080047E4D7F00900018EEF0A247
:203305000992019000197401F0900219743CF07550AB755149755280754E0F754F0190477F
:20332500C075F080120DDB300E29900217E070231226D27550AB755149755280754E0F754F
:203345004F019047C075F080120DDBC20E758253120238900213E0700DE53D7009E53C245A
:20336500FA500375C760900217E0FF24FB4016EF2F2F90337B7302338A0234C00235F7027F
:20338500391C023B15103002803A7582801203919043E775F080120415752DBC752E4975DF
:2033A5002F80853D30853C31853B32A21D92007582C7120500854133854034853F3575827B
:2033C500C01206B190F006E49320E165900214E0705FC21F900219743CF0900218E4F030CD
:2033E50013499002177401F07582801203F67582801203919049BD75F08012041590021A6D
:20340500E02430F58212032F90021BE02430F58212032F90021CE02430F58212032F9002ED
:203425001DE02430F58212032F80069002177402F0102702803E303712D215D2A290006427
:203445001202D7C2A2A2A292158027D21590F005E4936010D2A19000641202D7C2A1A2A13B
:203465009215800ED2A39000641202D7C2A3A2A39215B237102303023B9E303712D215D241
:20348500A29000641202D7C2A2A2A292158027D21590F005E4936010D2A39000641202D709
:2034A500C2A3A2A39215800ED2A19000641202D7C2A1A2A19215B237023B9E900218E02417
:2034C50004F529758280120304101F03023554900218E02401F0E0FFBF0474900218E4F045
:2034E500122FD450269002177402F0900222E4F090021DF090021CF090021BF090021AF02F
:203505001203F07582801203F68044900222E02401F0E0FF24FB5020900217E4F0120106AE
:203525009000C7E04402F012019E120D2F50099049C275F0801210F775828812039175820C
:203545005812032F900222E02430F58212032F1027028050900218E0241AFFE43402FE8FB0
:20356500828E83E0FD7C008D828C83A375190A8C1AC007C006124364AC82D006D0078F8229
:203585008E83ECF0900218E02484F582120391900218E0241AF582E43402F583E02430F5F0
:2035A5008212032F1023028015900218E0FFE06008EF14900218F08005900217E4F01030C6
:2035C50003023B9E752DBC752E49752F80853D30853C31853B32A21D92007582C71205009E
:2035E500854133854034853F357582C01206B1023B9E900019E070030236FB7582801203C5
:2036050091900019E0FFBF01067ED17F4980047EE27F497D808E828F838DF0120415758245
:20362500C012039190000D75F0001204159049F375F080120415900019E0FFBF0102800349
:203645000236CF301F64C223C21F900219743CF030010F900018E0F54690000E75F0001282
:203665000BB97F00EF2401FDE43400FEEF240DF582E43400F583E08D828E83F00FBF0B00EB
:2036850040E230130B9049FA75F0801210F78009904A0A75F0801210F7D213900019740275
:2036A500F07582C01203F6023B9E102303023B9E900219743CF0900019E4F0758280120313
:2036C500F67582C01203F6023B9E201F09202306202703023B9EC227C223C21F90021974CE
:2036E5003CF0900019E4F07582801203F67582C01203F6023B9E752DBC752E49752F80850A
:203705003D30853C31853B32A21D92007582C7120500854133854034853F357582C0120673
:20372500B1758280120391900218E0FF24FB4054EF2F90373B738008802080298032803BA9
:203745003013067E167F4A80047E277F4A7D808E828F838DF0120415802A904A3975F08063
:20376500120415801F904A4A75F0801204158014904A5B75F0801204158009904A6C75F039
:2037850080120415101F02801FC223900218E0FF7E008F828E83A37519058E1A124364AE56
:2037A50082AF83900218EEF01027028018900218E0FFBF02005008900219743CF0800690F4
:2037C50002187404F02023030238C9900218E0FF24FE40030238C9C2237E008F828E83A300
:2037E5007519058E1A124364AE82900217EEF07582801203F6758280120391900218E0FFF1
:20380500BF02028009BF03030238930238C99049BD75F08012041590021AE02430F58212B3
:20382500032F90021BE02430F58212032F90021CE02430F58212032F90021DE02430F582BE
:2038450012032F75822012032F75822012032F75822012032F90021EE02430F58212032F6F
:2038650090021FE02430F58212032F900220E02430F58212032F900221E02430F58212038F
:203885002F75822012032F900218E4F0803690F005E493900218F0904A7D75F08012041568
:2038A500900218E060067E857F4A80047E887F4A7D808E828F838DF0120415904A8B75F063
:2038C50080120415900215E06003023B9E900218E0FFBF02004003023B9EC223758200121D
:2038E5000C9D9002001200EE75180090032C1200D31201069000C47430F09000C3F0900083
:20390500C2F09000C1F012019EC213900218E4F0900217F0023B9E101F030239B39002186D
:20392500E02401F0E0FFBF0426122FD44013900218E4F075828812039175825812032F80A7
:203945006D75828812039175822012032F805FBF085C9002187402F0900217F01201069021
:20396500021EE024309000C1F090021FE024309000C2F0900220E024309000C3F0900221AA
:20398500E024309000C4F012019E90021DE4F090021CF090021BF090021AF0900221F0906C
:2039A5000220F090021FF090021EF01203F0102703023A84900218E0FF2484FE7D00751976
:2039C500048D1A8F828D83C00612439AAD82D006ED75F003A42EF582120391900218E0FF8F
:2039E500BF04005044EF241AFDE43402FE8D828E83E0FC7B008C828B83A375190A8B1AC0F6
:203A050006C005124364AB82D005D0068D828E83EBF0900218E0241AF582E43402F583E099
:203A25002430F58212032F80561F1F1F1FEF3395E0FEEF241EFFEE3402FE8F828E83E0FD3A
:203A45007C008D828C83A375190A8C1AC007C006124364AC82D006D0078F828E83ECF09037
:203A65000218E0FF1F1F1F1FEF3395E0FEEF241EF582EE3402F583E02430F58212032F10F4
:203A85002302802E9002187402F0900217F090021DE4F090021CF090021BF090021AF090BB
:203AA5000221F0900220F090021FF090021EF01203F0900218E0FF2404FE7D007519048DBB
:203AC5001A8F828D83C00612439AAD82D006ED75F003A42EF52975828012030410300302D2
:203AE5003B9E752DBC752E49752F80853D30853C31853B32A21D92007582C71205008541B8
:203B050033854034853F357582C01206B1023B9E102702802B900218E0FF7401C39FF07577
:203B25008287120391900218E060067E857F4A80047E887F4A7D808E828F838DF0120415FB
:203B4500101F028019120106900218E09000C6F012019E9002177402F090021804F010231C
:203B650002800B9002187403F090021714F0752DBC752E49752F80853D30853C31853B32B1
:203B8500A21D92007582C7120500854133854034853F357582C01206B12015030241A87FED
:203BA500009001F1E0035480FE9001F2E0030354C02EFE9001F3E0C42354E02EFE9001F4F0
:203BC500E0C454F02EF5559001F5E0C40354F8FE9001F6E025E025E02EFE9001F7E025E0FF
:203BE5002EFE9001F8E02EAD552DF5559001F9E0035480FE9001FAE0030354C02EFE900103
:203C0500FBE0C42354E02EFE9001FCE0C454F02EF5569001FDE0C40354F8FE9001FEE0257C
:203C2500E025E02EFE9001FFE025E02EFE900200E02EAD562DF55630193A900201E0C403F5
:203C450054F8FE900202E025E025E02EFE900203E025E02EFE900204E0FD2EF55790020640
:203C6500E0FE8E59900207E0FE8E5A900208E0FE8E5B8018755700900207E0FE8E59900266
:203C850003E0FE8E5A900201E0FE8E5B900205E0FE8E58758250C007120238A219E4332451
:203CA50030F58212023875822D12023885558212024D85568212024D85578212024D75826B
:203CC5002D120238AE5874302EF582120238AE5974302EF582120238AE5A74302EF58212CC
:203CE5000238AE5B74302EF58212023875822D1202389001F0E0FE7D0075190A8D1A8E824C
:203D05008D8312439AAD8274302DF5821202389001F0E0FE7D0075190A8D1A8E828D83128F
:203D25004364AD8274302DF58212023875822D120238D0077E00EF6003023EC490F32CE466
:203D450093FD7C0074022DFDE43CFC8E027B00C3EA9DEB64808CF063F08095F04003023E1B
:203D6500C4BE02004003023E068A198B1A900003C007C0061242B5AC82AD83D006D0078C29
:203D85000274F22DFB8A828B83E493702574012CFAE43D24F2FB8A828B83E4937014740210
:203DA5002CFCE43D24F2FD8C828D83E4937003023EC08E19751A00900003C007C0061242F0
:203DC500B5AC82AD83D006D0078C8274F22DF583E493FBBBFF2B74012CFAE43DFB8A827477
:203DE500F22BF583E493FBBBFF1774022CFCE43DFD8C8274F22DF583E493FDBDFF03023E9E
:203E0500C0AD558E037C008B198C1A900003C006C005C004C0031242B585825C85835DD03E
:203E250003D004D005D006855C8274F2255DF583E493FAEDB5022E7401255CFAE4355DFD92
:203E45008A8274F22DF583E493FDB556187402255CFAE4355DFD8A8274F22DF583E493FDC0
:203E6500B557028004C2388002D238A238E433FF6049BE020050068E0574022DFF75190AA9
:203E8500751A008B828C83C007C006C004C00312439AAA8274302AF582120238D003D0040B
:203EA50075190A751A008B828C83124364AC8274302CF582120238D006D0070E023D3B7596
:203EC500822DC007120238D0078F0674302EF582C00712023875822D120238D00790021763
:203EE500E0FEBE02028003024032EF600302402D20131B1201529000C1E555F09000C2E500
:203F050056F09000C3E557F01201DC02402D900218E0FEE06003023FFD90F32CE493249E88
:203F25005012904A8E75F0801204159007D01202D702402D1201529001EDE0FD8D19751AEC
:203F4500009000031242B5E5828583F02406FCE435F0FDEC24C1F582ED3400F583E555F02A
:203F65009001EDE0FD8D19751A009000031242B5E5828583F02407FCE435F0FDEC24C1F5BE
:203F850082ED3400F583E556F09001EDE0FD8D19751A009000031242B5E5828583F024081F
:203FA500FCE435F0FDEC24C1F582ED3400F583E557F09001EDE0FD0D9001EDEDF01201DC3B
:203FC5007582801203F6758280120391904A9F75F0801204159005DC1202D77582801203CC
:203FE500F6120D2F504290F004E493603B904AB075F0801210F78030BE012D120152900037
:20400500C4E555F09000C5E556F09000C6E557F01201DC120D2F501090F004E4936009901A
:204025004ABF75F0801210F7C2160241A4EF70030241A4E4BF020104FF605110230280312C
:20404500758200C007120C9D9002001200EE75180090032C1200D31201069000C47430F01E
:204065009000C3F09000C2F09000C1F012019ED0071007028016C007120D2FD007500D9065
:204085004AD975F080C0071210F7D00730181BE55A600302414BC218C0071201529001EE44
:2040A500E4F01201DCD00702414BE5587015D218C0071201529001EE7401F01201DCD00751
:2040C50002414B30070302414BE55AB401009238E43324FF92A210360280089000C0E0FE5B
:2040E500243CF090F005E493602FE559700330A204C2388002D238A238E43324FF92A1E5A7
:204105005B700620A10330A204C2388002D238A238E43324FF92A3802DE559700330A2042C
:20412500C2388002D238A238E43324FF92A3E55B700620A30330A204C2388002D238A238F9
:20414500E43324FF92A1E558700D90020DE02401F090020E740AF030074590020DE0FE2474
:20416500E24007EF6039E55970351201069000C7E4F012019EC207C2A290F005E493600C1C
:20418500D2A19000641202D7C2A1800AD2A39000641202D7C2A390020EE4F090020DF0C25D
:2041A50014C2151002030242AF1008030242AC900217E0FFBF02028008BF0302800302429E
:2041C500637550E7755143755280754E0F754F019046C375F080120DDB90000BE4F03009C4
:2041E50024301312900218E060067D757E00800A7D6D7E0080047D4D7E008D469000027549
:20420500F000120BB97E00EE240DFCE43400FDEE2401F582E43400F583E08C828D83F00E0F
:20422500BE0B0040E29000197402F030130B9049FA75F0801210F78009904A0A75F08012FC
:2042450010F7301315120D2F501090F004E4936009904AF775F0801210F7D2138049200942
:2042650046EF704330070B904B0875F0801210F78035D21590F005E4936010D2A1900064BF
:204285001202D7C2A1A2A19215800ED2A39000641202D7C2A3A2A3921590000BE4F0904B64
:1042A5001775F0801210F775DB4943C1100231D143
:2043E70041372D312E377420524620464958004D612050696E204D61632044696E68203A25
:2044070020303030300A436163206C656E6820636875207669657420484F4120686179202B
:204427007468756F6E67206465752064756F630A312E4C656E682062617420746869657432
:204447002062690A707070702C626174202D2076692064753A20303030302C6261740A323F
:204467002E4C656E68207461742074686965742062690A707070702C746174202D20766963
:204487002064753A20303030302C7461740A332E4C656E68206B69656D2074726120747268
:2044A700616E6720746861692074686965742062690A707070702C6B74202D20766920642B
:2044C700753A20303030302C6B740A342E4C656E68207468617920646F69206D612070692F
:2044E7006E3A20707070702C70696E2C787878780A7669206475203A20303030302C70698D
:204507006E2C31323334200A5468617920646F69206D612070696E207475203030303020B6
:204527002D3E20313233340A352E4C656E682072657365742073696D2D67736D0A707070B1
:20454700702C72732D2076692064753A20303030302C72730A362E4C656E68206C696574C0
:20456700206B652064616E682062610A707070702C64622D2076692064753A2030303030AB
:204587002C64620A372E4C656E6820786F612064616E682062613A20707070702C786F6198
:2045A7002C7878780A76643A20303030302C786F612C31352020786F6120736F2064696580
:2045C7006E2074686F6169207468752031350A76643A20303030302C786F612C302020200C
:2045E700786F6120746F616E20626F2064616E682062610A382E4C656E68206C757520641A
:20460700616E682062613A20707070702C6C75752C787878787878787878780A76643A20C3
:20462700303030302C6C75752C303931323334353637380A6C757520736F206469656E20B6
:2046470074686F616920303931323334353637382076616F2064616E68206261002020438A
:2046670043412020001A00544B3C31303030204B2042414F43414F0041542B434D47533D62
:204687002200220D0020202053454E44494E4720202000415444003B0D00202020204341D5
:2046A7004C4C494E4720202020200044414E47204755492042414F2043414F0041540D0037
:2046C700204B484F413D004F4E004F464600204755492048554F4E472044414E20200041C1
:2046E700542B4353504E3F0D002054454E204D414E47200041542B43545A553D310D0020A9
:20470700424154204C41592047494F200041542B434F50533D320D002020204E474154207B
:204727004D414E47202020200041542B434F50533D300D002020202054494D204D414E47B3
:20474700202020200041542B43434C4B3F0D00204C41592047494F20475053200041542BBA
:20476700434C49503D310D00202053454E44494E4720434C495020200041542B434D4746E2
:204787003D310D00202053454E44494E4720434D474620200041542B434E4D493D312C3120
:2047A7002C302C302C310D00202053454E44494E4720434E4D4920200041542B434D474426
:2047C7003D312C340D0020205448494554204C415020544E20200041542B4353510D002066
:2047E700534F4E47200041542B434855500D000D44756E67206375612063756F6E00202055
:204807005441542042414F2043414F2020000D4B686F612062616E207068696D000D4D6F0B
:204827002062616E207068696D000D4B686F61206375612063756F6E000D4B686F69207468
:20484700616F206C6169207468696574206269000D72657365742067736D207361752031B1
:204867003073000D446F69206D612070696E207468616E6820636F6E67000D4C656E682062
:204887006B686F6E6720686F70206C65000D586F612064616E68206261207468616E68207C
:2048A700636F6E67000D4375612063756F6E2064616E67206B686F61000D58756F6E672094
:2048C7006375612063756F6E000D4C656E68204B686F6E6720486F70204C65000D746865B2
:2048E7006D2064616E68206261207468616E6820636F6E67000D42616E6720736F20646140
:2049070020646179000D536F206474206B686F6E6720686F70204C65000D4D6F20637561DA
:204927002063756F6E000D42617420555053000D54617420555053000D42616F2063616F9F
:20494700207468616E6820636F6E67000D4261742062616F2063616F000D54617420626174
:204967006F2063616F000D47696F206B686F6E6720686F70206C65000D4461206368696E3F
:20498700682067696F000D42444B204B686F6920446F6E670041542B434D474C3D22414C49
:2049A7004C220D00202044454C4554494E4720534D532020000050494E3A000D536169202B
:2049C70070696E2035206C616E004C555520534F3F204D3A4F4B20423A58004441204C5567
:2049E7005520534F3A20202020202000202020202020000D4C7575207468616E6820636F77
:204A07006E67000D4C7575204D6173746572004348494E483A202020202020202020200007
:204A27004D41535445523A20202020202020202020005048553A20202020202020202020C2
:204A470020200020202020444F49202050494E2020202000202048554F4E4720204D4F541B
:204A67004F52202000202020202020455849542020202020200048554F4E473A2000504821
:204A8700005452004149002048455420424F204E484F20484F43200020444120484F43204F
:204AA70052454D4F54452120000D72656D6F746520646320686F63000D6D6F64756C652055
:204AC70062616F20646F6E672064756F6320686F63000D72656D6F7465206B68616E2063D2
:204AE70061702064756F632073752064756E67000D4454206D6F692064756F63206C7575F2
:1E4B0700000D4375612064616E67206B686F61000D4D6F20637561206C656E00142830
:06007000E478FFF6D8FD64
:20004E007902E94400601B7A01904B23783975A002E493F2A308B8000205A0D9F4DAF275AD
:02006E00A0FFF1
:1D42B500E5828519F0A4C582C0F0851AF0A4D0F025F0C5838519F0A42583F5832298
:2042D200E519451A60467A01E51925E0F519E51A334012F51AE5829519E583951A40030A31
:2042F20080E6C3E51A13F51AE51913F519C3E5829519F5F0E583951A4005F58385F082C3F8
:0D431200E51A13F51AE51913F519DAE12281
:200076007800E84400600A790175A000E4F309D8FC7838E84402600C7903900001E4F0A34B
:04009600D8FCD9FABF
:20431F007A10E4FBFCE58225E0F582E58333F583EB33FBEC33FCEB9519F5F0EC951A400690
:09433F00FCABF0438201DADD223F
:0D00410075815D1243D2E582600302003E2E
:1C43480020F71430F6148883A88220F507E6A88375830022E280F7E49322E02284
:20436400C2D5E58330E70DD2D5E4C39582F582E49583F583E51A30E70BE4C39519F519E45E
:16438400951AF51A1242D230D50BE4C39582F582E49583F5832264
:20439A00C2D5E58330E70DD2D5E4C39582F582E49583F583E51A30E70DB2D5E4C39519F59C
:1843BA0019E4951AF51A12431F30D50BE4C39582F582E49583F58322E1
:0443D20075820022CE
:00000001FF
