:20009F0075C70075C50075C60075C38075C40043C11022AE82AF8375C78375C5018EC48F2C
:2000BF00C375C65A75C6A500AFC2C00712009FD0078F8222AE82AF8375C78375C5028EC447
:2000DF008FC38518C275C65A75C6A50002009FAE82AF8375C78375C5038EC48FC375C65AA3
:2000FF0075C6A50002009F43C1107E997F01EE4F60141EBEFF011FEE24B3F582EF3400F5B5
:20011F008374FFF080E8C3EE9499EF9401501EEE24B3FCEF3400FD8E8274F02FF5830EBEDA
:20013F0000010FE493FB8C828D83F080D99000000200EE43C1107E997F01EE4F60141EBEFF
:20015F00FF011FEE24B3F582EF3400F58374FFF080E8C3EE942EEF9401501EEE24B3FCEFAA
:20017F003400FD8E8274F22FF5830EBE00010FE493FB8C828D83F080D99002000200EE7E5D
:20019F00007F00C3EE9499EF9401503075C78375C5028EC48FC3EE24B3F582EF3400F58369
:2001BF000EBE00010FE0F5C275C65A75C6A500C007C00612009FD006D00780C7227E007FE7
:2001DF0000C3EE942EEF9401503675C78375C5028EC48E0474022FFD8DC3EE24B3F582EF87
:2001FF003400F5830EBE00010FE0F5C275C65A75C6A500C007C00612009FD006D00780C120
:01021F0022BC
:20022000759850438E40538EFE758BCC758DFFC2ABD28ED2ACD2A022E582FF700122C29971
:200240008F9920990543C11080F8C29922E582FFC4540FFE53070FBE0A0050067C307D0074
:2002600080047C577D00EC2EF582C007120238D007BF0A0050067D307E0080047D577E000F
:20028000ED2FF582020238AD82AE83AFF0C2998D828E838FF0125705FC60218C99209905C8
:1D02A00043C11080F8C2998D828E838FF0125705FCBC1A01220DBD00D60E80D32235
:2002BD00AE82AF837C007D00C3EC9EED9F500A43C1100CBC00F20D80EF22AE82AF837C0049
:2002DD007D00C3EC9EED9F501D9003E8C007C006C005C0041202BDD004D005D006D0070C7A
:2002FD00BC00DF0D80DC22AF82E5274FF58212039175820D020391AF823029118F821203B7
:20031D0091852882852983852AF00204158F820203F6E582FF700122D285EFC4540124FF8E
:20033D009283EFA2E5E43324FF9282EF2323540124FF9281EF235401FE24FF9280D2840017
:20035D00C28400EF540124FF9283EF03540124FF9282EF03035401FE24FF9281EFA2E3E46A
:20037D0033FF24FF9280D28400C2849000641202BDC28522E582FF700122C285EFC45401E7
:20039D0024FF9283EFA2E5E43324FF9282EF2323540124FF9281EF235401FE24FF9280D218
:2003BD008400C28400EF540124FF9283EF03540124FF9282EF03035401FE24FF9281EFA24D
:2003DD00E3E433FF24FF9280D28400C2849000640202BD75820C020391E582FF600E8F8203
:2003FD0012039190579375F0800204157582011203919006400202BDAD82AE83AFF07C0010
:20041D008D828E838FF0125705FB6055BC10005050BB80005025EB24E050200CEC601C0D06
:20043D00BD00010E8B82C007C006C005C00412032FD004D005D006D00780C58D828E838F22
:20045D00F0125705FBA3AD82AE838B82C007C006C005C004120391D004D005D006D0078084
:20047D009F22C286903A981202BD75801C00C284900FA01202BDD28400C2849000A01202DC
:20049D00BDD28400C2849000A01202BD75801400C2849003E81202BDD28400C284007580B9
:2004BD001100C2849000281202BD75801000C2840075801300C2849000281202BD75801018
:2004DD0000C2840075801600C2849000281202BD75801000C2840075801800C2849003E8C6
:2004FD000202BDAF82E52E24E8500122E530240540030205BC8F82120391852B82852C83FA
:20051D00852DF012041574F6252E40067D207E00801DAB2E7C0075190A8C1A8B828C831275
:20053D005757AB82AC8374302BFBFD3395E0FE8D8212032FAD2E7E0075190A8E1A8D828E9E
:20055D0083125721AD8274302DF58212032FE530240350123000067D3A7E0080047D207E0E
:20057D00008D8212032FAD2F7E0075190A8E1A8D828E83C006C005125757AB8274302BF515
:20059D008212032FD005D00675190A751A008D828E83125721AD8274302DF58202032F8FC2
:2005BD0082120391852B82852C83852DF012041574F6252E40067E207F00801DAC2E7D00AF
:2005DD0075190A8D1A8C828D83125757AC82AD8374302CFCFE3395E0FF8E8212032FAE2EE2
:2005FD007F0075190A8F1A8E828F83125721AE8274302EF58212032F3000067E3A7F0080C8
:20061D00047E207F008E8212032FAE2F7F0075190A8F1A8E828F83C007C006125757AC820E
:20063D0074302CF58212032FD006D00775190A751A008E828F83125721AE8274302EF58219
:20065D0012032F3000067E3A7F0080047E207F008E8212032FAE307F0075190A8F1A8E8229
:20067D008F83C007C006125757AC8274302CF58212032FD006D00775190A751A008E828FD2
:20069D0083125721AE8274302EF58212032F75822002032F120391AE337F0075190A8F1AE1
:2006BD008E828F83C007C006125757AC8274302CF58212032FD006D00775190A751A008E93
:2006DD00828F83125721AE8274302EF58212032FAE327F0075190A8F1A8E828F83C007C0D9
:2006FD0006125757AC8274302CF58212032FD006D00775190A751A008E828F83125721AE30
:20071D008274302EF58212032FAE317F0075190A8F1A8E828F83C007C006125757AC8274FD
:20073D00302CF58212032FD006D00775190A751A008E828F83125721AE8274302EF582127A
:08075D00032F75822002032F17
:11579300202020202020202020202020202020200005
:040000000200413287
:01000B0032C2
:0100130032BA
:01001B0032B2
:03002300021F1E9B
:01002B0032A2
:01003300329A
:03003B0002088B2D
:05009A00C22F02003E30
:03003E000242BBC0
:2007650075FA0075EA0090026C74A8F07461A3F090026E74FAF0E4A3F075DA4975DB49D25C
:20078500DE2243C110B21CA21C92879000B2E014F0E070199000B2E4F090F32D9324FF92FE
:2007A5001790F006E493FF24FF920692A290026BE0FFE06012EF1490026BF0E07009900229
:2007C5006BE4F090026AF0900271E0FFE06009302006EF14900271F0900272E0FFE0600946
:2007E500302406EF14900272F0900273E0FFE06009302806EF14900273F0900273E07002C9
:20080500D22A900282E0FFE06006EF14900282F0900284E0FFE06006EF14900284F09002C1
:2008250074E0600E900276E0FFE06006EF14900276F020A0139000ADE014F0E0700AD2A009
:200845009000AD740AF0D205053AE53A24C45035D21A753A00E5366006D53703753600056B
:200865003BE53B24C4501E753B00D21B053CE53C24E85011753C00900270E0FFE06006EF8F
:2008850014900270F022C026C0E0C0F0C082C083C007C006C005C004C003C002C001C00054
:2008A500C0D075D00843C11010D8030209C890026CE0FEA3E0FF8EEA8FFA90026C74A82EDD
:2008C500F074613FA3F0301D0930B5069002717402F0301D0330B5047F0080027F01EF2405
:2008E500FF9220201F0330B5047F0080027F01EF24FF921D201E0A202003201D047F00800A
:20090500027F01EF24FF921EA2B5921F30210930B3069002727406F030210330B3047F001B
:2009250080027F01EF24FF922420230330B3047F0080027F01EF24FF922120220A202403E2
:200945002021047F0080027F01EF24FF9222A2B3922330250930B4069002737402F03025F4
:200965000330B4047F0080027F01EF24FF922820270330B4047F0080027F01EF24FF9225BE
:2009850020260A2028032025047F0080027F01EF24FF9226A2B49227900296E014F0E070B8
:2009A5000AD22F900296740AF0B229900297E014F0E0700F9002977428F075D000120787B0
:2009C50075D00810D903020AD990026EE0FEA3E0FF8EEB8FFB90026E74FA2EF0E43FA3F04F
:2009E500301403020AD990024CE0FF04F0EF700CD215C2A1A2A192A3A20692A230B639905D
:200A05000268E07024301321900269E0FF24FD5018BF0700501390024DE0FF04F0EF244EF0
:200A2500F582E43402F583E4F0900268E02401F0900269E4F0020AC9900269E06003020AF7
:200A4500BD30134A900268E0FF24FD5041BF0700503C20182390024DE0FFFD7E00ED30E0D9
:200A6500171FEF3395E0FEEF244EFFEE3402FE8F828E83E07002D21890024DE0FF04F0EF25
:200A8500244EF582E43402F5837401F0802A900268E0FF24E3502190024C7401F030130CE4
:200AA50090024DE0FFBF1804D214800C301509D21390024DE4F0C218900269E02401F090E6
:200AC5000268E4F090024DE0FF24E7500790024DE4F0C213D0D0D000D001D002D003D00471
:200AE500D005D006D007D083D082D0F0D0E0D0263285824685834785F048AC42900283ECEA
:200B0500F08541F0ECA4FB900284740A2BF0C22B8546828547838548F0C004120287D00477
:200B250074022546F9E43547FAAB4874072546F549E43547F54A85484B74082546F54CE4A2
:200B45003547F54D85484EA841302B03020C43900284E07003020C43302D03020C4343C1B0
:200B650010C22F758280C004C003C002C001C0001203918543828544838545F01204157598
:200B85002B21752C5A752D80853C2E853B2F853A30A21C92007582C0120500D000D001D08B
:200BA50002D003D004102A028002C322900282E06003302E94C22E880718EF7003020C4351
:200BC500900282ECF0900283ECF089828A838BF0125705FFBF2B44854982854A83854BF09F
:200BE500125705FFBF3F028032854C82854D83854EF0125705FFBF3F028020905A2975F0E1
:200C050080C004C003C002C001C000120287D000D001D002D003D004020B4E85468285475C
:200C2500838548F0C004C003C002C001C000120287D000D001D002D003D004020B4E75829E
:200C4500801203F6900285E4F0A22B2290000CE0602090000FE0701A75432F75445A754571
:200C650080754103754201905A2D75F080120AF6C32290000BE4F0905A4075F08012028772
:200C850090000175F0001202879002857409F075434D75445A75458075410575423D905A4F
:200CA5004A75F080020AF6C20F900285740DF0900280E0FFBF50028025BF66028038BF6EF2
:200CC50002804BBF746075436F75445A75458075410375421E905A5B75F080020AF67543C9
:200CE5006F75445A75458075410375421E905A8175F080020AF675436F75445A754580756A
:200D0500410375421E905A9575F080020AF675436F75445A75458075410375421E905A5B08
:200D250075F080020AF6C32275380A9000ABE4F07543B675445A75458075410F7542019054
:200D45005AA775F080120AF69000ABE07003020E0E900016E024BF50047F0B800F9000176D
:200D6500E0FE24BF50047F0C80027F0D7E01BE090050378F047D008E027B00EA2CF8EB3DA2
:200D8500F9E8240CF582E93400F583E0F924C64017EA2CFCEB3DFDEC240CF582ED3400F537
:200DA50083E0FDBD30005002C322EE2401FCE43400FD8F027B008E007900E82AFAE93BFB48
:200DC500EA240CF582EB3400F583E0FB8C828D83F00EBE0A00409790000AE0FF9000ABE0BC
:200DE500FEBE01067D257E0080047D1B7E00EFC39D90000AF0FFBF30004005EF24C650023A
:200E0500C32290000BE4F0D322C32290000CE4F0C20F9002857407F07543C775445A754590
:200E25008075410375421E905A5B75F080120AF6900285E4F090000CE024FF22AD82AE8357
:200E4500AFF0905AD875F080C007C006C005120287D005D006D0078D828E838FF01202879E
:200E65007543DF75445A75458075410175423C905ADC75F080020AF67F0A905AF075F080EA
:200E8500C007120287D007BFA100400122EF240CF582E43400F583E0FE24AB500E8E05EDA0
:200EA50024DBF5821202387FA18045EE24B550198E05ED24E5F582C007120238905AF075F4
:200EC500F080120287D0078027EE24BF50198E05ED24EFF582C007120238905AF275F0806C
:200EE500120287D00780098E82C007120238D0078F060FEE240CF582E43400F583E4F00259
:200F05000E8CAD82AE83AFF0905AF475F080C007C006C005120287D005D006D0078D828E64
:200F2500838FF0C007C006C005120287905AFF75F080120287854F82120238D005D006D037
:200F4500078D828E838FF0120287854F8212023875430775445B75458075410F754201908F
:200F65005A4A75F080120AF6D322E582FF700302104D905B1A75F080C007120287D007BFC2
:200F85000A00500D8F0674302EF582120238021035BF6400503B8F057E0075190A8E1A8DE7
:200FA500828E83C006C005125757AB8274302BF582120238D005D00675190A751A008D82AE
:200FC5008E83125721AD8274302DF582120238805F7E007519648E1A8F828E83C007C00608
:200FE500125757AC8274302CF582120238D006D00775190A751A008F828E83C007C00612D6
:20100500575775190A751A00125721AC8274302CF582120238D006D00775190A751A008F48
:20102500828E83125721AE8274302EF58212023875432375445B75458075410175421F9083
:201045005AF075F080020AF67F01BF0A005036905B1A75F080C007120287D0078F0674302F
:201065002EF582C00712023875432375445B75458075410F754201905AF075F080120AF63C
:20108500D0070F80C5BF64005065905B1A75F080C007120287D0078F057E0075190A8E1AD3
:2010A5008D828E83C007C006C005125757AB8274302BF582120238D005D00675190A751A68
:2010C500008D828E83125721AD8274302DF58212023875433475445B75458075410F7542E8
:2010E50001905AF075F080120AF6D0070F8096BFFB00400122905B1A75F080C007120287B4
:20110500D0078F057E007519648E1A8D828E83C007C006C005125757AB8274302BF5821290
:201125000238D005D00675190A751A008D828E83C006C00512575775190A751A0012572182
:20114500AB8274302BF582120238D005D00675190A751A008D828E83125721AD8274302D4F
:20116500F58212023875434575445B75458075410F754201905AF075F080120AF6D0070F28
:201185000210F47543A475445775458075410F754201905B5675F080120AF67535009000AF
:2011A500AB740BF09000ABE024F540012274052535500122120E109000ABE4F075380AE558
:2011C500357003021283905B5A75F0801202870535749C25354036AE357F0075190A8F1A49
:2011E5008E828F83125757AE8274302EF582120238AE357F0075190A8F1A8E828F83125715
:2012050021AE8274302EF5821202388057AE357F007519648F1A8E828F83125757AE827489
:20122500302EF582120238AE357F0075190A8F1A8E828F8312575775190A751A0012572152
:20124500AE8274302EF582120238AE357F0075190A8F1A8E828F83125721AE8274302EF57E
:20126500821202387543B675445A75458075410175421F905B6375F080120AF680187543BE
:20128500B675445A75458075410175421F905AA775F080120AF6120C51400122120E7D754D
:2012A500436975445B754580754132754201905A2D75F080120AF60211A990F008E4937056
:2012C5003690F00DE493FF2405502C90000CE4F0120C51400122905B7A75F080120287758F
:2012E500436975445B754580754132754201905A2D75F080020AF690F008E493FF1FE493BD
:201305007D0025E0FEED33FDEE2EFEED33FDEE2409F582ED34F0F583E493FEBEFF00500A4D
:2013250090F008E493FD7E0080047D007E007E0074632DF582E43EF5837519648E1AC007BB
:20134500125721AD82D007EDF55460067C0A7E00802390F008E493FB7A0075190A8A1A8B7A
:20136500828A83C007125757AA82AB83D0070AEAFC3395E0FE8C53740AB55304740180012C
:20138500E4FE755000EFB554012274F625505001228F527900EFB55403021541B90A004084
:2013A500030215418900E875F00BA404F888398838900285740FF0905B5A75F080C007C090
:2013C50006C001120287D001D006D0078F007A00E828F8EA33FAE828F8EA33FAE82409F5D7
:2013E50082EA34F0F583E493FABA0A0050198A00743028F582C007C006C001120238D0010A
:20140500D006D0070214CFBA6400504B8A007C0075190A8C1A88828C83C007C006C004C00E
:2014250001C000125757AB8274302BF582120238D000D001D00475190A751A0088828C83B2
:20144500C001125721AC8274302CF582120238D001D006D00780737D007519648D1A8A82E8
:201465008D83C007C006C005C002C001125757AB8274302BF582120238D001D002D0057516
:20148500190A751A008A828D83C005C002C00112575775190A751A00125721AB8274302BC4
:2014A500F582120238D001D002D00575190A751A008A828D83C001125721AC8274302CF56B
:2014C50082120238D001D006D0077543B675445A75458075410175421F905AF075F080C0F4
:2014E50007C006C001120AF6D0018919751A0090000BC001125672E5828583F0D001D00609
:20150500D007240BFCE435F0FDEC240CF582ED3400F583E4F08F047D0074632CF582E43D13
:20152500F5837519648D1AC006C001125721AC82AD83D001D0068C070902139AAF529000A3
:201545000CE4F0C007C006120C51D006D007400122755100EFB55403021A4974F625515044
:2015650003021A49E55075F00AA4255104FCBC0A0050158C0374302BF582C007C00612029F
:2015850038D006D00702163CBC640050438C027B0075190A8B1A8A828B83C007C006C003AA
:2015A500C002125757A882743028F582120238D002D00375190A751A008A828B831257217B
:2015C500AA8274302AF582120238D006D00780677B007519648B1A8C828B83C007C006C03A
:2015E50004C003125757A982743029F582120238D003D00475190A751A008C828B83C004F6
:20160500C00312575775190A751A00125721A982743029F582120238D003D00475190A7522
:201625001A008C828B83125721AB8274302BF582120238D006D00775822EC007C0061202B3
:2016450038855119751A0090000B125672AB82AC83D006D007EB240CFBEC3400FC0BBB0059
:20166500010C7A008B828C838AF0C007C006120287D006D0078F037C00EB2BFBEC33FCEB4E
:201685002BFBEC33FC0BBB00010CEB2409F582EC34F0F583E493FC23235403FC24FC405856
:2016A500EC2C9016AB738006801780288039905B8E75F080C007C006120287D006D0078018
:2016C50037905B9275F080C007C006120287D006D0078024905B9675F080C007C0061202EC
:2016E50087D006D0078011905B9A75F080C007C006120287D006D007C0068F55755600E587
:20170500552555F557E55633F558E5572557F557E55833F55874022557F8E43558FDE824C9
:2017250009F582ED34F0F583E493C423541FFC7E0075190A8E1A8C828E83C005C000125703
:2017450057AC82AE83D000D00574302CF582C006C005C000120238D000D005D006E82409BB
:20176500F582ED34F0F583E493C423541FFE7C0075190A8C1A8E828C83C005C000125721AD
:20178500AC82AE83D000D00574302CF582C006C005C00012023875822F120238D000D0054B
:2017A500D00674012557FCE43558FEEC2409F582EE34F0F583E493FA7B00740F5AF5827523
:2017C500830075190A8B1AC006C005C004C000125757AA8274302AF582120238D000D00414
:2017E500D005D006EC2409F582EE34F0F583E493FB7A00740F5BF58275830075190A8A1AAA
:20180500C006C005C004C000125721AA8274302AF58212023875822F120238D000D004D087
:2018250005D006EC2409F582EE34F0F583E493FB530330E4CBC4540F6BCB540FCB6BCB3016
:20184500E30244F0FA74142BF582E43AF58375190A751A00C006C005C004C000125757AA10
:201865008274302AF582120238D000D004D005D006EC2409F582EE34F0F583E493FE530619
:2018850030E4CEC4540F6ECE540FCE6ECE30E30244F0FC74142EF582E43CF58375190A757A
:2018A5001A00C005C000125721AC82AE83D000D00574302CF582C006C005C00012023875A3
:2018C500822C120238D000D005D006E82409F582ED34F0F583E493FE5306077C00EE2EF517
:2018E50059EC33F55AE5592559F559E55A33F55A74032557FAE43558FBEA2409F582EB344B
:20190500F0F583E493232354037E002559F582EE355AF58375190A8E1AC005C003C002C094
:2019250000125757AC82AE83D000D002D003D00574302CF582C006C005C003C002C0001210
:201945000238D000D002D003D005D006E82409F582ED34F0F583E493FE5306077D00EE2EA5
:20196500FEED33FDEE2EFEED33FDEA2409F582EB34F0F583E493232354037C002EF582ECDA
:201985003DF58375190A8C1AC003C002125721AD82AE83D002D00374302DF582C006C0036A
:2019A500C00212023875823A120238D002D003D006EA2409F582EB34F0F583E493FE7D0015
:2019C500743F5EF58275830075190A8D1AC003C002125757AD82AE83D002D00374302DF533
:2019E50082C006C003C002120238D002D003D006EA2409F582EB34F0F583E493FE7D0074D3
:201A05003F5EF58275830075190A8D1A125721AD82AE8374302DF582C00612023875820D2E
:201A2500120238D00674632555F582E43556F583751964751A00125721AD828D070551D0DC
:201A450006021559905B9E75F080C007C006120287D006D0077409B55013905BA575F080BE
:201A6500C007C006120287D006D0078012AB5074312BF582C007C006120238D006D00775BD
:201A8500822FC007C006120238D006D007EE6013905BA575F080C007C006120287D006D066
:201AA500078012AC5374302CF582C007C006120238D006D00775436975445B754580754197
:201AC50032754201905A2D75F080C007C006120AF6D006D007055002138A85825B85835C15
:201AE50085F05D7543A475445775458075410F754201905B5675F080120AF67401255BFAC5
:201B0500E4355CFBAC5D8A828B838CF0125705F9B92A028011C004C003C002120E10D00289
:201B2500D003D004800590000CE4F0C004C003C002120C51D002D003D004400122905BA8DD
:201B450075F080C004C003C002120287D002D003D00490F006E493600678AF795B800478E4
:201B6500B2795B7F80888289838FF0C004C003C002120287D002D003D0048A828B838CF053
:201B8500125705FABA2A02803890000CE06032905BB675F08012028790000C75F0001202F6
:201BA50087900010E07009905BC175F080120287900010E4F090000FF090000EF090000D46
:201BC500F0855B82855C83855DF01202877401255BFDE4355CFEAF5D8D828E838FF0125764
:201BE50005FDBD2A09905A2D75F08002028775436975445B754580754178754201905A2DFB
:201C050075F080020AF6AF82753800BFA100500FEF240CF582E43400F5830FE4F080EC22A4
:201C250090000CE4F0120C514001229057B375F0801202877543DB75445B7545807541327A
:201C4500754201905A2D75F080020AF67543A475445775458075410F754201905B5675F000
:201C650080120AF65034758200121C0B753800900285740AF07543F675445B754580754135
:201C85000F754201905BEC75F080120AF65009900010E0FF900280F0D322C32275430C75BD
:201CA500445C75458075410F754201905C0175F080120AF640012275432575445C75458055
:201CC50075410F754201905C1A75F080120AF6400122900285740CF075434175445C7545D3
:201CE5008075410A75423C905C3675F080120AF6400122758200121C0B75380090028574C8
:201D050002F075435C75445C75458075410F754201905C5275F080120AF640012290000FB5
:201D2500E024D075F00AA4FF900010E02F24D0F540900012E024D075F00AA4FF900013E0D5
:201D45002F24D0F53F900015E024D075F00AA4FF900016E02F24D0F53E900018E024D075CF
:201D6500F00AA4FF900019E02F24D0F53C90001BE024D075F00AA4FF90001CE02F24D0F5AF
:201D85003B90001EE024D075F00AA4FF90001FE02F24D0F53A853F19751A00900017125613
:201DA50072751909751A00125757AE82AF83AC3E7D00EC2EFEED3FFFE53F24FD5015AC4024
:201DC5005304037D00EC4DB40100E433FC3395E0FD80047C027D00EC2EFEED3FFFAC407D56
:201DE50000EC2EFEED3FFF8C828D83A3A3A37519048D1AC007C006125757AC82AD83D006DA
:201E0500D007EC2EFEED3FFF8E828F83A3751907751A0012568FAE82EE04F53D2275437520
:201E250075445C75458075410F754201905C6A75F080120AF6502B758200121C0B7538002C
:201E4500900285740BF075439175445C75458075410F754201905C8675F080120AF6500227
:201E6500D322C3227543AC75445C75458075410F754201905CA175F080120AF64003021F6B
:201E85001C7543D075445C75458075410F754201905CBD75F080120AF64003021F1C7543F5
:201EA500F575445C75458075410F754201905CE175F080120AF6505F900285740EF0758269
:201EC50000121C0B75380075430E75445D75458075410F754201905D0675F080120AF6504A
:201EE50034900281E4F07F00EF240CF582E43400F583E0FEBE2C02801CEF240CF582E43409
:201F050000F5830FE024D0FE900281E0FD75F00AA42EF080D3D322C322C026C0E0C0F0C01F
:201F250082C083C007C006C005C004C003C002C001C000C0D075D01020980302399B43C141
:201F450010900283E0900282F0900286E02487F582E43402F583E599F0900286E0FF2487B7
:201F6500F582E43402F583E0FEBE4E0280030220A48F147D00740C2CF582E43DF5837519B4
:201F85000D8D1AC017C016C015C01475D00012572175D010AA82AB83D014D015D016D0171E
:201FA500EA2487F582EB3402F583E0FBBB490280030220A4740B2CF582E43DF58375190DF7
:201FC500751A00C017C016C015C01475D00012572175D010AA82AB83D014D015D016D01703
:201FE500EA2487F582EB3402F583E0FBBB200280030220A4740A2CF582E43DF58375190DE1
:20200500751A00C017C016C015C01475D00012572175D010AA82AB83D014D015D016D017C2
:20202500EA2487F582EB3402F583E0FBBB547074092CF582E43DF58375190D751A00C017E2
:20204500C016C015C01475D00012572175D010AA82AB83D014D015D016D017EA2487F582DC
:20206500EB3402F583E0FBBB4F3574082CF582E43DF58375190D751A00C017C01675D000D4
:2020850012572175D010AC82AD83D016D017EC2487F582ED3402F583E0FDBD4E02D22D900F
:2020A5000285E0FD24F05003023987ED240A83F582ED241483F583E4739687CF3B87A98724
:2020C5009160072CC03CECDE192339222C392E39303830222221352039AC380538EC240CE6
:2020E500F582E43400F583E599F07420B59934900286E0FC7B00740C2CF582E43BF58375B2
:20210500190D8B1A75D00012572175D010AB82AC83EB2487F582EC3402F583E0FCBC3A03F3
:20212500753800742CB599028003023987900285E4F0F5380239877454B5996E8F137C003C
:20214500740C2BF582E43CF58375190D8C1AC017C014C01375D00012572175D010A982AA08
:2021650083D013D014D017E92487F582EA3402F583E0FABA5334740B2BF582E43CF583753D
:20218500190D751A00C01775D00012572175D010AB82AC83D017EB2487F582EC3402F583A0
:2021A500E0FCBC4405D22B0239877452B5990280030239878F137C00740C2BF582E43CF5CA
:2021C5008375190D8C1AC014C01375D00012572175D010A982AA83D013D014E92487F58241
:2021E500EA3402F583E0FABA4F028003023987740B2BF582E43CF58375190D751A0075D0F0
:202205000012572175D010AB82AC83EB2487F582EC3402F583E0FCBC520280030239879016
:202225000282E4F0023987AC380538EC240CF582E43400F583E599F07422B599349002869D
:20224500E0FC7B00740C2CF582E43BF58375190D8B1A75D00012572175D010AB82AC83EBBD
:202265002487F582EC3402F583E0FCBC2003753800742CB599028003023987900286E0FC0C
:202285007B00740C2CF582E43BF58375190D8B1A75D00012572175D010AB82AC83EB2487AE
:2022A500F582EC3402F583E0FCBC22028003023987900285E4F0F5380239877431B5990238
:2022C5008003023987D22B023987AC380538EC240CF582E43400F583E599F0744BB59967CF
:2022E500900286E0FB7C00740C2BF582E43CF58375190D8C1AC014C01375D0001257217584
:20230500D010A982AA83D013D014E92487F582EA3402F583E0FABA4C2E740B2BF582E43CC7
:20232500F58375190D751A0075D00012572175D010AB82AC83EB2487F582EC3402F583E0EF
:20234500FCBC4303753800740DB599028003023987900286E0FC7B00740C2CF582E43BF511
:202365008375190D8B1A75D00012572175D010AB82AC83EB2487F582EC3402F583E0FCBCD6
:2023850022028003023987900285E4F0F538023987743EB59912905A2D75F08075D0001290
:2023A500028775D010023987BE470280030224878F137C00740C2BF582E43CF58375190DCE
:2023C5008C1AC017C016C015C014C01375D00012572175D010A982AA83D013D014D015D031
:2023E50016D017E92487F582EA3402F583E0FABA4E028003022487740B2BF582E43CF5836B
:2024050075190D751A00C017C016C015C014C01375D00012572175D010A982AA83D013D035
:2024250014D015D016D017E92487F582EA3402F583E0FABA494C740A2BF582E43CF58375D8
:20244500190D751A00C017C016C01575D00012572175D010AB82AC83D015D016D017EB24FF
:2024650087F582EC3402F583E0FCBC521575DB00905D1575F08075D00012028775D0100252
:202485003987E4BE3A0104FC70030226528F127B00740C2AF582E43BF58375190D8B1AC0D9
:2024A50017C016C015C014C013C01275D00012572175D010A882A983D012D013D014D015D4
:2024C500D016D017E82487F582E93402F583E0F9B952028048740C2AF582E43BF583751995
:2024E5000D751A00C017C016C015C014C013C01275D00012572175D010A882A983D012D014
:2025050013D014D015D016D017E82487F582E93402F583E0F9B946028003022652740B2AEC
:20252500F582E43BF58375190D751A00C017C016C015C014C013C01275D00012572175D04F
:2025450010A882A983D012D013D014D015D016D017E82487F582E93402F583E0F9B942023E
:202565008003022652740A2AF582E43BF58375190D751A00C017C016C015C014C013C0127E
:2025850075D00012572175D010A882A983D012D013D014D015D016D017E82487F582E9343A
:2025A50002F583E0F9B95002800302265274092AF582E43BF58375190D751A00C017C0162F
:2025C500C015C014C013C01275D00012572175D010A882A983D012D013D014D015D016D0EA
:2025E50017E82487F582E93402F583E0F9B9435D74082AF582E43BF58375190D751A00C04E
:2026050017C016C015C01475D00012572175D010AA82AB83D014D015D016D017EA2487F581
:2026250082EB3402F583E0FBBB2B229000ABE0FB24F650099000AB740BF0023987D202903E
:2026450002857408F0C211753500023987EC70030227A28F137C00740C2BF582E43CF58341
:2026650075190D8C1AC017C016C015C014C01375D00012572175D010A982AA83D013D014A8
:20268500D015D016D017E92487F582EA3402F583E0FABA490280030227A2740B2BF582E4AE
:2026A5003CF58375190D751A00C017C016C015C014C01375D00012572175D010A982AA8392
:2026C500D013D014D015D016D017E92487F582EA3402F583E0FABA540280030227A2740A23
:2026E5002BF582E43CF58375190D751A00C017C016C015C014C01375D00012572175D01024
:20270500A982AA83D013D014D015D016D017E92487F582EA3402F583E0FABA4D02800302D8
:2027250027A274092BF582E43CF58375190D751A00C017C016C015C014C01375D000125713
:202745002175D010A982AA83D013D014D015D016D017E92487F582EA3402F583E0FABA43B3
:202765003C74082BF582E43CF58375190D751A00C017C016C01575D00012572175D010ABE7
:2027850082AC83D015D016D017EB2487F582EC3402F583E0FCBC2B05D20E023987E4BE20FE
:2027A5000104FC70030229518F127B00740C2AF582E43BF58375190D8B1AC017C016C0158E
:2027C500C014C013C01275D00012572175D010A882A983D012D013D014D015D016D017E8BE
:2027E5002487F582E93402F583E0F9B93A028003022951740B2AF582E43BF58375190D7587
:202805001A00C017C016C015C014C013C01275D00012572175D010A882A983D012D013D08F
:2028250014D015D016D017E82487F582E93402F583E0F9B94C028003022951740A2AF5822E
:20284500E43BF58375190D751A00C017C016C015C014C013C01275D00012572175D010A8EB
:2028650082A983D012D013D014D015D016D017E82487F582E93402F583E0F9B9470280034B
:2028850002295174092AF582E43BF58375190D751A00C017C016C015C014C013C01275D098
:2028A5000012572175D010A882A983D012D013D014D015D016D017E82487F582E93402F565
:2028C50083E0F9B94D02800302295174082AF582E43BF58375190D751A00C017C016C01530
:2028E500C014C013C01275D00012572175D010A882A983D012D013D014D015D016D017E89D
:202905002487F582E93402F583E0F9B9433E74072AF582E43BF58375190D751A00C017C072
:2029250016C015C01475D00012572175D010AA82AB83D014D015D016D017EA2487F582EBC8
:202945003402F583E0FBBB2B03022AE5EC7003022B328F137C00740C2BF582E43CF58375E4
:20296500190D8C1AC017C016C015C014C01375D00012572175D010A982AA83D013D014D04A
:2029850015D016D017E92487F582EA3402F583E0FABA3A028003022B32740B2BF582E43CBA
:2029A500F58375190D751A00C017C016C015C014C01375D00012572175D010A982AA83D0FB
:2029C50013D014D015D016D017E92487F582EA3402F583E0FABA50028003022B32740A2B35
:2029E500F582E43CF58375190D751A00C017C016C015C014C01375D00012572175D010A9A3
:202A050082AA83D013D014D015D016D017E92487F582EA3402F583E0FABA49028003022B57
:202A25003274092BF582E43CF58375190D751A00C017C016C015C014C01375D00012572186
:202A450075D010A982AA83D013D014D015D016D017E92487F582EA3402F583E0FABA4C02C6
:202A65008003022B3274082BF582E43CF58375190D751A00C017C016C015C014C01375D021
:202A85000012572175D010A982AA83D013D014D015D016D017E92487F582EA3402F583E0FE
:202AA500FABA43028003022B3274072BF582E43CF58375190D751A00C017C016C01575D090
:202AC5000012572175D010AB82AC83D015D016D017EB2487F582EC3402F583E0FCBC2B4D4D
:202AE5008F137C0074092BF582E43CF58375190D8C1A75D00012572175D010AB82AC83EB50
:202B05002487F582EC3402F583E0FCBC4C03D38001C392074006300D03023987C20BC2087E
:202B2500C209C20A9002857403F0023987BE4B028003022BC38F137C00740C2BF582E43CDB
:202B4500F58375190D8C1AC017C016C01575D00012572175D010AB82AC83D015D016D01703
:202B6500EB2487F582EC3402F583E0FCBC4F4FBD0203753800A22CB3922BC22C300223ACD7
:202B8500387D001CBCFF011DEC240CFCED3400FD8C828D83E0240AFB8C828D83F0C21175D3
:202BA5003800E5387003023987753800905CE175F08075D00012028775D010023987BE541E
:202BC5000280030239878F147D00740C2CF582E43DF58375190D8D1AC015C01475D000128B
:202BE500572175D010AA82AB83D014D015EA2487F582EB3402F583E0FBBB4F028003023996
:202C050087740B2CF582E43DF58375190D751A0075D00012572175D010AC82AD83EC24872A
:202C2500F582ED3402F583E0FDBD4E028003023987D22C023987200B03022DB4E5386003FD
:202C4500022CCB740DB5990280030239873007528F147D0074092CF582E43DF58375190D63
:202C65008D1A75D00012572175D010AC82AD83EC2487F582ED3402F583E0FDBD2203D3806B
:202C850001C39208BD4D03D38001C3920ABD6D028007200A047D0080027D01ED24FF920908
:202CA500D201300808900285E4F00239879002857405F02007030239877537020536900268
:202CC50085E4F0023987740DB538028003022D8DBE2203022D8D8F147D00740C2CF582E45F
:202CE5003DF58375190D8D1AC015C01475D00012572175D010AA82AB83D014D015EA248753
:202D0500F582EB3402F583E0FBBB22028003022D8D740B2CF582E43DF58375190D751A00C0
:202D2500C015C01475D00012572175D010AA82AB83D014D015EA2487F582EB3402F583E019
:202D4500FBBB2C44740A2CF582E43DF58375190D751A0075D00012572175D010AC82AD83E2
:202D6500EC2487F582ED3402F583E0FDBD2219744DB59902D20A746DB599028003300A02F3
:202D8500D20975380002398774F62538400EE5382401F582E43400F583E599F0E53824F3E4
:202DA5005008753800D208023987053802398730073CBE30398F147D00740C2CF582E43D70
:202DC500F58375190D8D1AC017C01675D00012572175D010AC82AD83D016D017EC2487F5AC
:202DE50082ED3402F583E0FDBD2203022E8FBE34028003022E948F147D00740C2CF582E4D1
:202E05003DF58375190D8D1AC015C01475D00012572175D010AA82AB83D014D015EA248731
:202E2500F582EB3402F583E0FBBB3863740B2CF582E43DF58375190D751A00C015C0147549
:202E4500D00012572175D010AA82AB83D014D015EA2487F582EB3402F583E0FBBB2B307491
:202E65000A2CF582E43DF58375190D751A0075D00012572175D010AC82AD83EC2487F5824D
:202E8500ED3402F583E0FDBD2205D20B753801740DB599028003023987900285E4F075DBF5
:202EA50049023987300C43743BB599028021740DB59902801A746025384014AD380538EDE4
:202EC500240CF582E43400F583E599F0023987E538240CF582E43400F583E4F0F538C20C63
:202EE500900285E4F0D20D023987300A03022FEBBE2C028003022FE78F147D00740C2CF5A0
:202F050082E43DF58375190D8D1AC015C01475D00012572175D010AA82AB83D014D015EA75
:202F25002487F582EB3402F583E0FB90F003E493FAEBB512028003022FE7740B2CF582E4AD
:202F45003DF58375190D751A00C015C01475D00012572175D010AA82AB83D014D015EA248F
:202F650087F582EB3402F583E0FB90F002E493FAEBB5126E740A2CF582E43DF58375190D72
:202F8500751A00C015C01475D00012572175D010AA82AB83D014D015EA2487F582EB340280
:202FA500F583E0FB90F001E493FAEBB5123474092CF582E43DF58375190D751A0075D000B9
:202FC50012572175D010AC82AD83EC2487F582ED3402F583E0FD90F000E493FCEDB514027E
:202FE50080047D0080027D01ED24FF920C740DB599028003023987753801900285E4F0026C
:203005003987743EB5990A900285E4F0D22B023987BE520280030239878F147D00740C2C14
:20302500F582E43DF58375190D8D1AC015C01475D00012572175D010AA82AB83D014D01549
:20304500EA2487F582EB3402F583E0FBBB52028003023987740B2CF582E43DF58375190D41
:20306500751A0075D00012572175D010AC82AD83EC2487F582ED3402F583E0FDBD45028030
:2030850003023987900282E4F0023987300F5B900280E0FDBD50028003BD66057420B59997
:2030A5000FBD74028003BD6E297464B59902802274602538401C742EB59903023987AD3801
:2030C5000538ED240CF582E43400F583E599F0023987C20FC211E538240CF582E43400F5E5
:2030E50083E4F0F538D22B023987900280E0FDBD5002800302324CBE3D02800302324C8FF8
:20310500137C00740C2BF582E43CF58375190D8C1AC017C016C015C014C01375D000125749
:203125002175D010A982AA83D013D014D015D016D017E92487F582EA3402F583E0FABA68A4
:2031450002800302324C740B2BF582E43CF58375190D751A00C017C016C015C014C01375E4
:20316500D00012572175D010A982AA83D013D014D015D016D017E92487F582EA3402F58327
:20318500E0FABA6E02800302324C740A2BF582E43CF58375190D751A00C017C016C015C0FF
:2031A50014C01375D00012572175D010A982AA83D013D014D015D016D017E92487F582EA39
:2031C5003402F583E0FABA6902800302324C74092BF582E43CF58375190D751A00C017C0C2
:2031E50016C015C014C01375D00012572175D010A982AA83D013D014D015D016D017E92436
:2032050087F582EA3402F583E0FABA683A74082BF582E43CF58375190D751A00C017C01650
:20322500C01575D00012572175D010AB82AC83D015D016D017EB2487F582EC3402F583E0FB
:20324500FCBC63030235E7BD740280030233A4BE200280030233A48F137C00740C2BF58222
:20326500E43CF58375190D8C1AC017C016C015C014C01375D00012572175D010A982AA83CB
:20328500D013D014D015D016D017E92487F582EA3402F583E0FABA3A0280030233A4740B62
:2032A5002BF582E43CF58375190D751A00C017C016C015C014C01375D00012572175D01058
:2032C500A982AA83D013D014D015D016D017E92487F582EA3402F583E0FABA470280030213
:2032E50033A4740A2BF582E43CF58375190D751A00C017C016C015C014C01375D000125739
:203305002175D010A982AA83D013D014D015D016D017E92487F582EA3402F583E0FABA4BDF
:203325000280030233A474092BF582E43CF58375190D751A00C017C016C015C014C01375AB
:20334500D00012572175D010A982AA83D013D014D015D016D017E92487F582EA3402F58345
:20336500E0FABA543A74082BF582E43CF58375190D751A00C017C016C01575D000125721F5
:2033850075D010AB82AC83D015D016D017EB2487F582EC3402F583E0FCBC20030235E7BD88
:2033A500660280030234FCBE3A0280030234FC8F137C00740C2BF582E43CF58375190D8C3D
:2033C5001AC017C016C015C014C01375D00012572175D010A982AA83D013D014D015D01697
:2033E500D017E92487F582EA3402F583E0FABA430280030234FC740B2BF582E43CF5837582
:20340500190D751A00C017C016C015C014C01375D00012572175D010A982AA83D013D01486
:20342500D015D016D017E92487F582EA3402F583E0FABA4B0280030234FC740A2BF582E498
:203445003CF58375190D751A00C017C016C015C014C01375D00012572175D010A982AA83E4
:20346500D013D014D015D016D017E92487F582EA3402F583E0FABA540280030234FC74090F
:203485002BF582E43CF58375190D751A00C017C016C015C014C01375D00012572175D01076
:2034A500A982AA83D013D014D015D016D017E92487F582EA3402F583E0FABA203A74082BFE
:2034C500F582E43CF58375190D751A00C017C016C01575D00012572175D010AB82AC83D0DC
:2034E50015D016D017EB2487F582EC3402F583E0FCBC2E030235E7BD6E028003023987BE27
:20350500200280030239878F147D00740C2CF582E43DF58375190D8D1AC015C01475D00033
:2035250012572175D010AA82AB83D014D015EA2487F582EB3402F583E0FBBB3A0280030288
:203545003987740B2CF582E43DF58375190D751A00C015C01475D00012572175D010AA82C8
:20356500AB83D014D015EA2487F582EB3402F583E0FBBB43028003023987740A2CF582E485
:203585003DF58375190D751A00C015C01475D00012572175D010AA82AB83D014D015EA2449
:2035A50087F582EB3402F583E0FBBB4B02800302398774092CF582E43DF58375190D751A64
:2035C5000075D00012572175D010AC82AD83EC2487F582ED3402F583E0FDBD540280030246
:2035E5003987D20F023987200F0302366E900280E0FDBD50028003BD6E05740AB59912BD3F
:2036050066057422B5990ABD7432742EB59902802B74F62538402574F72538401AAD380514
:20362500380DED3395E0FCED2401F582EC3400F583E599F00239870538023987C20FC211BB
:2036450074F625384018D22BAD380DED3395E0FCED2401F582EC3400F583E4F080059002BA
:2036650082E4F0753800023987900280E0FDBD5040BE3A3D8F137C00740C2BF582E43CF5BA
:203685008375190D8C1AC017C016C01575D00012572175D010AB82AC83D015D016D017EBC2
:2036A5002487F582EC3402F583E0FCBC2903023735BD6E3FBE303C8F137C00740C2BF58243
:2036C500E43CF58375190D8C1AC017C016C01575D00012572175D010AB82AC83D015D0163F
:2036E500D017EB2487F582EC3402F583E0FCBC2002803DBD66028003BD743ABE34378F15E0
:203705007E00740C2DF582E43EF58375190D8E1AC01775D00012572175D010AD82AE83D0FA
:2037250017ED2487F582EE3402F583E0FEBE3805D20F0239877435B5990280030237E68F1C
:20374500157E00740C2DF582E43EF58375190D8E1AC017C016C01575D00012572175D0102A
:20376500AB82AC83D015D016D017EB2487F582EC3402F583E0FCBC3168740B2DF582E43E19
:20378500F58375190D751A00C017C016C01575D00012572175D010AB82AC83D015D016D0E5
:2037A50017EB2487F582EC3402F583E0FCBC2031740A2DF582E43EF58375190D751A00C0B7
:2037C5001775D00012572175D010AD82AE83D017ED2487F582EE3402F583E0FEBE2C02806D
:2037E500757452B5990280030239878F157E00740C2DF582E43EF58375190D8E1AC016C03B
:203805001575D00012572175D010AB82AC83D015D016EB2487F582EC3402F583E0FCBC52B2
:20382500028003023987740B2DF582E43EF58375190D751A0075D00012572175D010AD8202
:20384500AE83ED2487F582EE3402F583E0FEBE45028003023987D22E0239877422B59902B7
:2038650080030238EAD2117E00740C2FF582E43EF58375190D8E1A75D00012572175D01014
:20388500AE82AF83EE2487F582EF3402F583E0FFBF2C21AE387F001EBEFF011FEE240CFEAD
:2038A500EF3400FF8E828F83E02411FD8E828F83F0023987AE387F001EBEFF011FEE240C5B
:2038C500FEEF3400FF8E828F83E0241BFD8E828F83F09000ABE0FF0F9000ABEFF090028519
:2038E500E4F0023987E59924D0400302398720110FE53575F00AA4FFE599FE2F24D0F53581
:20390500AF380538EF240CF582E43400F583E599F0023987AF380538EF240CF582E4340056
:20392500F583E599F07422B59936900286E0FF7E00740C2FF582E43EF58375190D8E1A7595
:20394500D00012572175D010AE82AF83EE2487F582EF3402F583E0FFBF2C0585393880223D
:203965007422B5991DAE387F001EBEFF011FEE240CF582EF3400F583E4F0F538900285F0A9
:20398500D22B900286E02401F0E0FF24F35005900286E4F0C298D0D0D000D001D002D003A1
:2039A500D004D005D006D007D083D082D0F0D0E0D02632AD82AE83AFF07C007543A47544DF
:2039C5005775458075410F754201905B5675F080C007C006C005C004120AF6905D1A75F01A
:2039E50080120287D004D005D006D007300A067A4D7B008011300906786D79008004787530
:203A05007900880289038A82C007C006C005C004120238D004D005D006D007740A2DF9E4C6
:203A25003EFA8F0389828A838BF0E41256578D828E838FF0C004120287D004300A067E4DA4
:203A45007F0080113009067B6D7D0080047B757D008B068D078E82C0041202389000AB74C8
:203A650009F075380075432475445D75458075410F754202905A4A75F080120AF6D0047F73
:203A850000EF240CF582E43400F583E0FEBE3A00501B8C05ED75F00AA4FDEF240CF582E4B2
:203AA5003400F5830FE0FB2D24D0FC80D4EC75F00AA42E24BFFFC007120106D0079000BBE9
:203AC500E07D0025E0FEED33FDEE2EFEED33FD74092EFBE43DFCEB24B3F582EC3400F58399
:203AE500EFF0E55E255E25E0FFAB407C00EB24ECFBEC34FFFCC3EB9403EC64809480500B1C
:203B0500E54024ECFB3395E0FC80047B037C00EB2FFF740A2EFBE43DFCEB24B3F582EC3418
:203B250000F583EFC454F0253FF0740B2EFCE43DFFEC24B3F582EF3400F583E53EC40354E1
:203B4500F8FFE53C0303543F2FF0740C2EFEE43DFDEE24B3F582ED3400F583E53C54030376
:203B65000354C0253BF09000BBE0FFBF63079000BBE4F080060F9000BBEFF002019EC21035
:203B85007F00EF240CFDE43400FE0F8D828E83E0600543C11080EBBFA000500FEF240CF5AA
:203BA50082E43400F5830FE4F080EC90000CE0FFBF3F02800890000DE0FEBE3F06200803F3
:203BC500021C25BF42030241FBBF4403023E2FBF470302427BBF4802806CBF4B03023CBA24
:203BE500BF4C03023FDCBF5003023DACBF5203023D33BF5302805BBF5503024188BF580327
:203C0500023E3BBF62030241FBBF6403023E2FBF670302427BBF6802802CBF6B03023CBA4B
:203C2500BF6C03023FDCBF7003023DACBF7203023D33BF7302801BBF7503024188BF780366
:203C4500023E3B02428E2009030242971212BF02429790F006E49330E00620090302429733
:203C650090F006E49330E00D1201069000B9E05402F012019ED214D2A2C2069000641202C2
:203C8500D7C2A2A2A2921490F004E493600C905D3575F080121ADF02429775434475445D94
:203CA500754580754103754201905A2D75F080120AF602429720090302429790000DE0FFE8
:203CC500BF50028003BF7038120106900010E0FFBF4E028003BF6E129000B9E04402F0908C
:203CE5005D5475F080121ADF80109000B9E05401F0905D6375F080121ADF12019E02429754
:203D05001201069000B9E04401F012019ED2A2D20690000BE4F0755E0390000175F00012DD
:203D250039B8905D7075F080121ADF02429720090302429790000EE0FF900010E0FEEFB5BF
:203D45000657BF72028003BF524F300A4C905D7F75F080121ADF758200120F6F90020012DE
:203D650000EE75180090032C1200D31201069000B67430F09000B5F09000B4F09000B3F090
:203D85009000B9E4F09000B8F09000BAF09000B7F012019EC212024297905D9675F080127E
:203DA5001ADFC2A0024297200903024297900010E0FFBF30005003023E23EF24C6405F9095
:203DC5000011E0FFBF30004055EF24C64050900012E0FFBF30004046EF24C640419000130E
:203DE500E0FFBF30004037EF24C64032120106900010E09000B3F0900011E09000B4F0901D
:203E05000012E09000B5F0900013E09000B6F012019E905DA975F080121ADF024297905DBE
:203E2500C075F080121ADF02429720090302429712118802429790000DE0FFBF6F02800831
:203E4500BF4F028003023F4E200903024297900010E0FEBE30005003023F42EE24C65003C7
:203E6500023F42900011E0FDBD30004005ED24C65006ED6003023F42900012E0FCBC3000A0
:203E85004005EC24C65006EC6003023F42BE3009758200120F6F023F36ED700D8E03EB24DB
:203EA500D0F582120F6F023F36EC70178E03EB24D075F00AA4FB8D02EA2B24D0F582120F8E
:203EC5006F806E8D027B00EA24D0F519EB34FFF51A90000AC006C005C004125672AA82ABC3
:203EE50083D004D005D0068C007900E82AFAE93BFBEA24D0FAEB34FFFBC374329A74808B18
:203F0500F063F08095F05011EE24FE500C905DC075F080121ADF024297EE24D075F064A4C0
:203F2500FEED24D075F00AA42E2C24D0F582120F6F905DD375F080121ADF024297905DC0FD
:203F450075F080121ADF024297BF75028008BF55028003023FD030060C905DEB75F0801218
:203F65001ADF024297D21490F005E4936010D2A39000641202D7C2A3A2A39214800ED2A171
:203F85009000641202D7C2A1A2A1921490000BE4F0755E0290000175F0001239B890F00430
:203FA500E493600C905DFF75F080121ADF02429775434475445D7545807541037542019015
:203FC5005A2D75F080120AF6024297905E0F75F080121ADF02429790000DE0FFBF75028089
:203FE50008BF550280030240FA200903024297900010E0FEBE300050030240EEEE24C650C1
:20400500030240EE900011E0FEBE300050030240EEEE24C650030240EE900012E0FEBE30AF
:204025000050030240EEEE24C650030240EE900013E0FEBE300050030240EEEE24C6500380
:204045000240EE900014E0FEBE300050030240EEEE24C650030240EE900015E0FEBE30006C
:2040650050030240EEEE24C650030240EE900016E0FEBE300050030240EEEE24C65003023B
:2040850040EE900017E0FEBE300050030240EEEE24C64055900018E0FEBE3000404BEE2479
:2040A500C64046900019E0FEBE3000403CEE24C6403790001AE4F090001BE0FEE4BE6D0158
:2040C50004700BBE74010470057C75FD80048E047D008C4F90001075F000120F07905E2217
:2040E50075F080121ADF024297905E3B75F080121ADF024297BF65028008BF4502800302C3
:20410500417C30060C905DEB75F080121ADF024297D21490F005E4936010D2A3900064122B
:2041250002D7C2A3A2A39214800ED2A39000641202D7C2A3A2A3921490000BE4F0755E01DC
:2041450090000175F0001239B890F004E493600C905E4F75F080121ADF0242977543447581
:20416500445D754580754103754201905A2D75F080120AF6024297905E0F75F080121ADF18
:20418500024297200903024297900010E0FFBF42028012BF6202800D900011E0FEBE6E02C7
:2041A5008003BE4E1A1201069000BA740AF012019ED2C2905E5C75F080121ADF024297BF67
:2041C5005402800DBF74028008BE66028003BE46191201069000BAE4F012019EC2C2905E1A
:2041E5006575F080121ADF024297905E0F75F080121ADF02429720090302429790000FE03C
:20420500FF600690000EE0700C905E6E75F080121ADF024297BF42028012BF6202800D903E
:204225000010E0FEBE6E028003BE4E171201069000B77401F012019E905E8275F080121AC0
:20424500DF804FBF5402800DBF74028008BE66028003BE4616905E8F75F080121ADF120109
:20426500069000B7E4F012019E8027905E0F75F080121ADF801C30091990000BE4F09000E6
:204285000175F000120E418009905DC075F080121ADF43C1107F00EF240CFDE43400FE8DDA
:2042A500828E83E0600FEF240CF582E43400F5830FE4F080E2227593007594FF75920075FE
:2042C50091007595007596FF75B20075B10075B30275B41C75CA0075C90075C00075B0FFA2
:2042E50075A00075B881759700D2AF9000B2741EF07536009000AD740AF09000AE7402F0AB
:204305009000AFF09000B0F09000B1F0900273F0900271F09002727406F0900274E4F0C216
:204325002D90026BE4F090026AF090027004F07F01C007120106D0079000BBE0249E50051F
:204345009000BBE4F09000B7E024FE50059000B7E4F09000B9E024FC50059000B9E4F09035
:2043650000B8E024FE50059000B8E4F09000BAE024F550059000BAE4F09000B3E0FEBE3048
:20438500004032EE24C6402D9000B4E0FEBE30004023EE24C6401E9000B5E0FEBE30004067
:2043A50014EE24C6400F9000B6E0FEBE30004005EE24C650129000B67430F09000B5F0908D
:2043C50000B4F09000B3F0C00712019E90F007E49324FF92C2120152D0079001DFE0249CC8
:2043E50050059001DFE4F09001E0E024FE50059001E0E4F0C0071201DC9013881202D71234
:20440500022012076512047FD007202D16C007121C51D007500DC007121CA1121E22121E96
:2044250069D007900276743CF09000017430F090000BE4F0C007120D2D9212D0077E0030BF
:204445001211905E9C75F080C007C006121ADFD006D007101B02800BC007C006121CA1D09C
:2044650006D007301A2D90F007E4936026C21A90F007E493FDBD0102C2C2C007C0061201A4
:20448500069000BAE0FD1D9000BAEDF012019ED006D007900276E0702F900274E0602990C2
:2044A5000275E4F0900274F090027AF0900279F0900278F0900277F090027EF090027DF0CD
:2044C50090027CF090027BF0100E0280297543A475445775458075410F754201905B56753A
:2044E500F080C007C006120AF6905EAB75F080120287D006D007300D31900274E0702BC033
:2045050007C006123B837543BA75445E75458075410F754201905CE175F080120AF6C20D26
:20452500758253120238D006D007900270E0700DE53C7009E53B24FA500375C76090027407
:20454500E0FD24FB4016ED2D2D904552730245610246E40248CF024BEC024EB5102F028037
:2045650045758280C007C0061203919057A475F080120415752BCB752C5E752D80853C2E31
:20458500853B2F853A30A21C92007582C7120500854031853F32853E33853D347582C01272
:2045A50006B1D006D00790F006E49320E16D900271E07067C21E900276743CF0900275E4FA
:2045C500F03012519002747401F0758280C007C0061203F6758280120391905ECC75F0801D
:2045E500120415900277E02430F58212032F900278E02430F58212032F900279E02430F566
:204605008212032F90027AE02430F58212032FD006D00780069002747402F0102602805B22
:20462500EE601AD214D2A2900064C007C0061202D7D006D007C2A2A2A292148037D214901F
:20464500F005E4936018D2A1900064C007C0061202D7D006D007C2A1A2A192148016D2A38E
:20466500900064C007C0061202D7D006D007C2A3A2A39214EEB40100E433FE102203024F8E
:2046850061EE601AD214D2A2900064C007C0061202D7D006D007C2A2A2A292148037D214EE
:2046A50090F005E4936018D2A3900064C007C0061202D7D006D007C2A3A2A392148016D23B
:2046C500A1900064C007C0061202D7D006D007C2A1A2A19214EEB40100E433FE024F6190D5
:2046E5000275E02404F527758280C007C006120304D006D007101E03024819900275E024B1
:2047050001F0E0FDBD04028003024819900275E4F0900277E0FD90F000E4937B0024D0FCFA
:20472500EB34FFFB7A00EDB50406EAB5030280030247BD900278E0FD90F001E4937B00248A
:20474500D0FCEB34FFFB7A00EDB5046CEAB50368900279E0FD90F002E4937B0024D0FCEBA2
:2047650034FFFB7A00EDB5044FEAB5034B90027AE0FD90F003E4937B0024D0FCEB34FFFB43
:204785007A00EDB50432EAB5032E9002747402F090027FE4F090027AF0900279F0900278A0
:2047A500F0900277F0C007C0061203F07582801203F6D006D007805C90027FE02401F0E088
:2047C500FD24FB5030900274E4F0C007C0061201069000B9E04402F012019E120D2DD00686
:2047E500D0075011905ED175F080C007C006121ADFD006D007758288C007C006120391756C
:20480500825812032F90027FE02430F58212032FD006D0071026028058900275E02477FD39
:20482500E43402FC8D828C83E0FB7A008B828A83A375190A8A1AC007C006C005C004125772
:2048450021AA82D004D0058D828C83EAF0900275E02484F582120391900275E02477F582C0
:20486500E43402F583E02430F58212032FD006D0071022028015900275E0FDE06008ED140F
:20488500900275F08005900274E4F0102F03024F61752BCB752C5E752D80853C2E853B2F5F
:2048A500853A30A21C92007582C7C007C006120500854031853F32853E33853D347582C0C3
:2048C5001206B1D006D007024F61752BCB752C5E752D80853C2E853B2F853A30A21C920002
:2048E5007582C7C007C006120500854031853F32853E33853D347582C01206B17582801270
:204905000391D006D007900275E0FD24FB407CED2D90491A73800880288039804A805B3054
:2049250012067CE07D5E80047CF17D5E7B808C828D838BF0C007C006120415D006D00780DE
:204945004A905F0375F080C007C006120415D006D0078037905F1475F080C007C00612048A
:2049650015D006D0078024905F2575F080C007C006120415D006D0078011905F3675F080D3
:20498500C007C006120415D006D007101E028027C222900275E0FD7C008D828C83A3751943
:2049A500058C1AC007C006125721AC82AD83D006D007900275ECF0102603024A7290027544
:2049C500E0FDBD02004003024A6CC007C006120E1075828012039190000C75F00012041535
:2049E500D006D0077CC87D002026258C028D031CBCFF011DEA4B601890012CC007C006C00F
:204A050005C0041202D7D004D005D006D00780D8C226C007C006120CAC758284120391903F
:204A2500000BE4F090000175F000120415D006D0077CC87D002026258C028D031CBCFF01A2
:204A45001DEA4B601890012CC007C006C005C0041202D7D004D005D006D00780D890027613
:204A6500743CF0C22680069002757404F0202203024B91900275E0FD24FE4003024B91C2A8
:204A8500227C008D828C83A37519058C1AC007C006125721AC82900274ECF07582801203C6
:204AA500F6758280120391D006D007900275E0FDBD02028009BD0303024B4B024B91905EDC
:204AC500CC75F080C007C006120415900277E02430F58212032F900278E02430F5821203A6
:204AE5002F900279E02430F58212032F90027AE02430F58212032F75822012032F7582201B
:204B050012032F75822012032F90027BE02430F58212032F90027CE02430F58212032F9068
:204B2500027DE02430F58212032F90027EE02430F58212032F75822012032FD006D007906B
:204B45000275E4F0804690F005E493900275F0905F4775F080C007C006120415D006D007CC
:204B6500900275E060067C4F7D5F80047C527D5F7B808C828D838BF0C007C0061204159032
:204B85005F5575F080120415D006D007900272E06003024F61900275E0FDBD0200400302BE
:204BA5004F61C222758200C007C006120F6F9002001200EE75180090032C1200D31201066C
:204BC5009000B67430F09000B5F09000B4F09000B3F012019ED006D007C212900275E4F04D
:204BE500900274F0024F61101E03024D22900275E02401F0E0FDBD04028003024CBB9002AC
:204C050077E0FC90F000E4937A0024D0F568EA34FFF5698C037C00EBB56869ECB569659084
:204C25000278E0FC90F001E4937A0024D0F568EA34FFF5698C037C00EBB56848ECB5694432
:204C4500900279E0FC90F002E4937A0024D0F568EA34FFF5698C037C00EBB56827ECB569E5
:204C65002390027AE0FC90F003E4937A0024D0F568EA34FFF5698C037C00EBB56806ECB52A
:204C85006902801C900275E4F0758288C007C00612039175825812032FD006D007024D22CA
:204CA500758288C007C00612039175822012032FD006D0078067BD08649002757402F09028
:204CC5000274F0C007C00612010690027BE024309000B3F090027CE024309000B4F0900247
:204CE5007DE024309000B5F090027EE024309000B6F012019E90027AE4F0900279F0900231
:204D050078F0900277F090027EF090027DF090027CF090027BF01203F0D006D00710260348
:204D2500024E09900275E0FD2484FC7B007519048B1A8D828B83C007C006C004125757AB02
:204D450082D004EB75F003A42CF582120391D006D007900275E0FDBD0400504AED2477F54F
:204D650068E43402F569856882856983E0FA7C008A828C83A375190A8C1AC007C006125726
:204D850021AB82856882856983EBF0900275E02477F582E43402F583E02430F58212032F8B
:204DA500D006D007805E1D1D1D1DED3395E0FCED247BFDEC3402FC8D828C83E0FB7A008BB9
:204DC500828A83A375190A8A1AC007C006C005C004125721AA82D004D0058D828C83EAF0F3
:204DE500900275E0FD1D1D1D1DED3395E0FCED247BF582EC3402F583E02430F58212032F39
:204E0500D006D00710220280369002757402F0900274F090027AE4F0900279F0900278F0BE
:204E2500900277F090027EF090027DF090027CF090027BF0C007C0061203F0D006D00790AB
:204E45000275E0FD2404FC7B007519048B1A8D828B83C007C006C004125757AB82D004EB09
:204E650075F003A42CF527758280120304D006D007102F03024F61752BCB752C5E752D801C
:204E8500853C2E853B2F853A30A21C92007582C7C007C006120500854031853F32853E33AC
:204EA500853D347582C01206B1D006D007024F61102602803B900275E0FD7401C39DF07507
:204EC5008287C007C006120391D006D007900275E060067C4F7D5F80047C527D5F7B808C3B
:204EE500828D838BF0C007C006120415D006D007101E028021C007C006120106900275E0DD
:204F05009000B8F012019ED006D0079002747402F090027504F0102202800B900275740352
:204F2500F090027414F0752BCB752C5E752D80853C2E853B2F853A30A21C92007582C7C04B
:204F450007C006120500854031853F32853E33853D347582C01206B1D006D007201403022A
:204F6500551575670090024EE0035480FC90024FE0030354C02CFC900250E0C42354E02C47
:204F8500FC900251E0C454F02CF560900252E0C40354F8FC900253E025E025E02CFC900268
:204FA50054E025E02CFC900255E02CAB602BF560900256E0035480FC900257E0030354C08F
:204FC5002CFC900258E0C42354E02CFC900259E0C454F02CF56190025AE0C40354F8FC90D7
:204FE500025BE025E025E02CFC90025CE025E02CFC90025DE02CAB612BF56130183A9002A6
:205005005EE0C40354F8FC90025FE025E025E02CFC900260E025E02CFC900261E0FB2CF54D
:2050250062900263E0FC8C64900264E0FC8C65900265E0FC8C668018756200900264E0FC7F
:205045008C64900260E0FC8C6590025EE0FC8C66900262E0FC8C63758250C007C006120237
:2050650038A218E4332430F58212023875822D12023885608212024D85618212024D856223
:205085008212024D75822D120238AC6374302CF582120238AC6474302CF582120238AC6562
:2050A50074302CF582120238AC6674302CF58212023875822D12023890024DE0FC7B007598
:2050C500190A8B1A8C828B83125757AB8274302BF58212023890024DE0FC7B0075190A8B0F
:2050E5001A8C828B83125721AB8274302BF58212023875822D120238D006D007755F00E556
:205105006760030251F090F32CE493FB7A0074022BFBE43AFA855F68756900C3E5689BE574
:205125006964808AF063F08095F040030251F0AB6085681985691A900003C007C006C003C9
:20514500125672858268858369D003D006D00785688274F22569F583E493FAEBB5022E7480
:20516500012568FAE43569FB8A8274F22BF583E493FBB5611874022568FAE43569FB8A82EA
:2051850074F22BF583E493FBB5620280047B0080027B01EBF567604E74FE255F4007AB5F3D
:2051A50074022BF567AA5F7B0075190A8B1A8A828B83C007C006C003C002125757AC82749E
:2051C500302CF582120238D002D00375190A751A008A828B83125721AC8274302CF58212B4
:2051E5000238D006D007055F02510475822DC007C006120238AD6774302DF58212023875EE
:20520500822D120238D006D007900274E0FDBD0202800302536EE567600302536920122335
:20522500C007C0061201529000B3E560F09000B4E561F09000B5E562F01201DCD006D0076D
:20524500025369900275E0FDE0600302532990F32CE493249E501A905F5875F080C007C0E1
:20526500061204159007D01202D7D006D007025369C007C0061201529001DFE0FC8C1975E3
:205285001A00900003125672E5828583F02406FBE435F0FCEB24B3F582EC3400F583E560E3
:2052A500F09001DFE0FC8C19751A00900003125672E5828583F02407FBE435F0FCEB24B3C0
:2052C500F582EC3400F583E561F09001DFE0FC8C19751A00900003125672E5828583F02414
:2052E50008FBE435F0FCEB24B3F582EC3400F583E562F09001DFE0FC0C9001DFECF01201E2
:20530500DC120D2DD006D007505A90F004E4936053905F6975F080C007C006121ADFD006B0
:20532500D0078040BD013DC007C0061201529000B6E560F09000B7E561F09000B8E562F06D
:205345001201DC120D2DD006D007501890F004E4936011905F7875F080C007C006121ADFA8
:20536500D006D007C215025511E56770030255117402B5670474018001E4FD6066102202AE
:205385008039758200C007C006C005120F6F9002001200EE75180090032C1200D31201069A
:2053A5009000B67430F09000B5F09000B4F09000B3F012019ED005D006D007C206C007C0F0
:2053C50006C005120D2DD005D006D0075015905F9275F080C007C006C005121ADFD005D062
:2053E50006D007301723E56560030254A0C217C007C006C0051201529001E0E4F01201DCFA
:20540500D005D006D0070254A0E563701CD217C007C006C0051201529001E07401F01201B2
:20542500DCD005D006D007807220066FE565B40100E43324FF92A2EF600A7F009000B2E01B
:20544500FC243CF090F005E4936029E564700330A2047C0080027C01EC24FF92A1E566706C
:205465000620A10330A2047C0080027C01EC24FF92A38027E564700330A2047C0080027C15
:2054850001EC24FF92A3E566700620A30330A2047C0080027C01EC24FF92A1E563700D9053
:2054A500026AE02401F090026B740AF030065D90026AE0FC24E24007ED6051E564704DC0FF
:2054C50007C0061201069000B9E4F012019ED006D007C206C2A290F005E4936014D2A190C7
:2054E5000064C007C0061202D7D006D007C2A18012D2A3900064C007C0061202D7D006D0A2
:2055050007C2A390026BE4F090026AF0C213C21410010302565110070302564E900274E04F
:20552500FDBD02028008BD030280030255DA7543A475445775458075410F754201905B5646
:2055450075F080C007C006120AF6D006D00790000BE4F030082C301212900275E060067B26
:20556500757C00800A7B6D7C0080047B4D7C008B4F90000175F000C007C006120F07D00624
:20558500D007301213905FB075F080C007C006121ADFD006D0078011905FC075F080C00725
:2055A500C006121ADFD006D007301225C007C006120D2DD006D007501890F004E4936011A7
:2055C500905FCC75F080C007C006121ADFD006D007D2128074200871ED706E300613905F6D
:2055E500DD75F080C007C006121ADFD006D0078058D21490F005E4936018D2A1900064C046
:2056050007C0061202D7D006D007C2A1A2A192148016D2A3900064C007C0061202D7D00687
:20562500D007C2A3A2A3921490000BE4F0F55E90000175F000C007C0061239B8905FEC75A6
:12564500F080121ADFD006D00775DB4943C110024458E0
:2057A4002043554143554F4E20302E382E35004D612050696E204D61632044696E68203A7B
:2057C40020303030300A436163206C656E6820636875207669657420484F4120686179205B
:2057E4007468756F6E67206465752064756F630A312E4C656E682062617420746869657462
:205804002062690A707070702C626174202D2076692064753A20303030302C6261740A326E
:205824002E4C656E68207461742074686965742062690A707070702C746174202D20766992
:205844002064753A20303030302C7461740A332E4C656E68206B69656D2074726120747297
:20586400616E6720746861692074686965742062690A707070702C6B74202D20766920645A
:20588400753A20303030302C6B740A342E4C656E68207468617920646F69206D612070695E
:2058A4006E3A20707070702C70696E2C787878780A7669206475203A20303030302C7069BC
:2058C4006E2C31323334200A5468617920646F69206D612070696E207475203030303020E6
:2058E4002D3E20313233340A352E4C656E682072657365742073696D2D67736D0A707070E1
:20590400702C72732D2076692064753A20303030302C72730A362E4C656E68206C696574EF
:20592400206B652064616E682062610A707070702C64622D2076692064753A2030303030DA
:205944002C64620A372E4C656E6820786F612064616E682062613A20707070702C786F61C7
:205964002C7878780A76643A20303030302C786F612C31352020786F6120736F20646965AF
:205984006E2074686F6169207468752031350A76643A20303030302C786F612C302020203B
:2059A400786F6120746F616E20626F2064616E682062610A382E4C656E68206C7575206449
:2059C400616E682062613A20707070702C6C75752C787878787878787878780A76643A20F3
:2059E400303030302C6C75752C303931323334353637380A6C757520736F206469656E20E6
:205A040074686F616920303931323334353637382076616F2064616E6820626100202043B9
:205A24004341202000412F0D001A00544B3C31303030204B2042414F43414F0041542B4338
:205A44004D47533D2200220D0020202053454E44494E472020200041542B435553443D31A8
:205A64002C222A31303123222C0D0020204B49454D20545241205344542020200041542B02
:205A8400435553443D312C222A31313023222C0D0041542B435553443D312C222A30232293
:205AA4002C0D0041542B435042523D312C3235300D00202053454E44494E472043504252F5
:205AC40020200020204B49454D2054524120544B20202000415444003B0D00202020204312
:205AE400414C4C494E472020202020000D002C0041542B435042573D2C2200222C313239B1
:205B04002C220020202053454E44494E4720435042572020200041542B435042573D0020D6
:205B240020202044454C4554494E47202020200020202E2E44454C4554494E472E2E2020B1
:205B4400002E2E2E2E44454C4554494E472E2E2E2E0041540D0041542B435042523D002C93
:205B64003235300D0044414E47204755492042414F2043414F004348554120434F204C49F1
:205B84004348205355204E414F002C6C2C002C4C2C002C582C002C4B2C005472616E6720D9
:205BA40000313000204B484F413D004F4E004F4646000D544B204368696E683D000D5461D3
:205BC40069206B686F616E20636F6E2064756F6920313030303000204755492048554F4E86
:205BE400472044414E20200041542B4353504E3F0D002054454E204D414E47200041542BBD
:205C0400434C54533D310D0020424154204C41592047494F200041542B434F50533D320D42
:205C2400002020204E474154204D414E47202020200041542B434F50533D300D0020202044
:205C44002054494D204D414E47202020200041542B43434C4B3F0D00204C41592047494F45
:205C640020475053200041542B434C49503D310D00202053454E44494E4720434C495020E3
:205C8400200041542B4343414C523F0D00205448494554204C415020474F49200041542BF5
:205CA400434D47463D310D00202053454E44494E4720434D474620200041542B434E4D499C
:205CC4003D312C312C302C302C310D00202053454E44494E4720434E4D4920200041542B44
:205CE400434D4744413D2244454C20414C4C220D0020205448494554204C415020544E204B
:205D0400200041542B4353510D0020534F4E4720004154480D0041542B435042463D220010
:205D240020534156494E4720484953544F525920000D44756E67206375612063756F6E003C
:205D440020205441542042414F2043414F2020000D4B686F612062616E207068696D000D35
:205D64004D6F2062616E207068696D000D4B686F61206375612063756F6E000D4B686F69EE
:205D84002074616F206C6169207468696574206269000D72657365742067736D207361751C
:205DA40020313073000D446F69206D612070696E207468616E6820636F6E67000D4C656E47
:205DC40068206B686F6E6720686F70206C65000D586F612064616E68206261207468616E2A
:205DE4006820636F6E67000D4375612063756F6E2064616E67206B686F61000D58756F6E41
:205E040067206375612063756F6E000D4C656E68204B686F6E6720486F70204C65000D74A5
:205E240068656D2064616E68206261207468616E6820636F6E67000D536F206474206B68D2
:205E44006F6E6720686F70204C65000D4D6F206375612063756F6E000D426174205550538F
:205E6400000D54617420555053000D42616F2063616F207468616E6820636F6E67000D4215
:205E840061742062616F2063616F000D5461742062616F2063616F000D42444B204B686F89
:205EA4006920446F6E670041542B434D474C3D22414C4C220D00202044454C4554494E47F7
:205EC40020534D532020000050494E3A000D5361692070696E2035206C616E004348494EE7
:205EE400483A20202020202020202020004D41535445523A20202020202020202020005046
:205F040048553A2020202020202020202020200020202020444F49202050494E2020202023
:205F240000202048554F4E4720204D4F544F52202000202020202020455849542020202011
:205F440020200048554F4E473A20005048005452004149002048455420424F204E484F2083
:205F6400484F4320000D72656D6F746520646320686F63000D6D6F64756C652062616F2044
:205F8400646F6E672064756F6320686F63000D72656D6F7465206B68616E206361702064FD
:205FA400756F632073752064756E67000D4C7575207468616E6820636F6E67000D4C757540
:205FC400204D6173746572000D4454206D6F692064756F63206C7575000D437561206461DB
:165FE4006E67206B686F61000D4D6F20637561206C656E00142852
:06007000E478FFF6D8FD64
:20004E007902E94400601B7A01905FF8789675A002E493F2A308B8000205A0D9F4DAF27567
:02006E00A0FFF1
:1B56570020F71130F6138883A88220F509F6A8837583002280FEF280F5F02252
:1D567200E5828519F0A4C582C0F0851AF0A4D0F025F0C5838519F0A42583F58322C7
:20568F00E519451A60467A01E51925E0F519E51A334012F51AE5829519E583951A40030A60
:2056AF0080E6C3E51A13F51AE51913F519C3E5829519F5F0E583951A4005F58385F082C327
:0D56CF00E51A13F51AE51913F519DAE122B1
:200076007800E84400600A790175A000E4F309D8FC7895E84402600C7903900001E4F0A3EE
:04009600D8FCD9FABF
:2056DC007A10E4FBFCE58225E0F582E58333F583EB33FBEC33FCEB9519F5F0EC951A4006C0
:0956FC00FCABF0438201DADD226F
:0D00410075816912578FE582600302003E51
:1C57050020F71430F6148883A88220F507E6A88375830022E280F7E49322E022B3
:20572100C2D5E58330E70DD2D5E4C39582F582E49583F583E51A30E70BE4C39519F519E48D
:16574100951AF51A12568F30D50BE4C39582F582E49583F58322C2
:20575700C2D5E58330E70DD2D5E4C39582F582E49583F583E51A30E70DB2D5E4C39519F5CB
:1857770019E4951AF51A1256DC30D50BE4C39582F582E49583F5832240
:04578F0075820022FD
:00000001FF
