:20009F0075C70075C50075C60075C38075C40043C11022AE82AF8375C78375C5018EC48F2C
:2000BF00C375C65A75C6A500AFC2C00712009FD0078F8222AE82AF8375C78375C5028EC447
:2000DF008FC38518C275C65A75C6A50002009FAE82AF8375C78375C5038EC48FC375C65AA3
:2000FF0075C6A50002009F43C1107ED17F00EE4F60141EBEFF011FEE24C1F582EF3400F570
:20011F008374FFF080E8C3EE94D1EF9400501EEE24C1FCEF3400FD8E8274F02FF5830EBE95
:20013F0000010FE493FB8C828D83F080D99000000200EE43C1107ED17F00EE4F60141EBEC8
:20015F00FF011FEE24C1F582EF3400F58374FFF080E8C3EE942EEF9401501EEE24C1FCEF8E
:20017F003400FD8E8274F22FF5830EBE00010FE493FB8C828D83F080D99002000200EE7E5D
:20019F00007F00C3EE94D1EF9400503075C78375C5028EC48FC3EE24C1F582EF3400F58324
:2001BF000EBE00010FE0F5C275C65A75C6A500C007C00612009FD006D00780C7227E007FE7
:2001DF0000C3EE942EEF9401503675C78375C5028EC48E0474022FFD8DC3EE24C1F582EF79
:2001FF003400F5830EBE00010FE0F5C275C65A75C6A500C007C00612009FD006D00780C120
:01021F0022BC
:20022000759850438E40538EFE758BB2758DFFC2ABD28ED2ACD2A022E582FF700122C2998B
:200240008F9920990543C11080F8C29922E582FFC4540FFE53070FBE0A0050067C307D0074
:2002600080047C577D00EC2EF582C007120238D007BF0A0050067D307E0080047D577E000F
:20028000ED2FF582020238AD82AE83AFF0C2998D828E838FF0124328FC60218C99209905B9
:1D02A00043C11080F8C2998D828E838FF0124328FCBC1A01220DBD00D60E80D32226
:2002BD00AE82AF837C007D00C3EC9EED9F500A43C1100CBC00F20D80EF22AE82AF837C0049
:2002DD007D00C3EC9EED9F501D9003E8C007C006C005C0041202BDD004D005D006D0070C7A
:2002FD00BC00DF0D80DC22AF82E5294FF58212039175820D020391AF82302A118F821203B4
:20031D0091852A82852B83852CF00204158F820203F6E582FF700122D285EFC4540124FF88
:20033D009283EFA2E5E43324FF9282EF2323540124FF9281EF235401FE24FF9280D2840017
:20035D00C28400EF540124FF9283EF03540124FF9282EF03035401FE24FF9281EFA2E3E46A
:20037D0033FF24FF9280D28400C2849000641202BDC28522E582FF700122C285EFC45401E7
:20039D0024FF9283EFA2E5E43324FF9282EF2323540124FF9281EF235401FE24FF9280D218
:2003BD008400C28400EF540124FF9283EF03540124FF9282EF03035401FE24FF9281EFA24D
:2003DD00E3E433FF24FF9280D28400C2849000640202BD75820C020391E582FF600E8F8203
:2003FD001203919043B675F0800204157582011203919006400202BDAD82AE83AFF07C0001
:20041D008D828E838FF0124328FB6055BC10005050BB80005025EB24E050200CEC601C0DF7
:20043D00BD00010E8B82C007C006C005C00412032FD004D005D006D00780C58D828E838F22
:20045D00F0124328FBA3AD82AE838B82C007C006C005C004120391D004D005D006D0078075
:20047D009F22C286903A981202BD75801C00C284900FA01202BDD28400C2849000A01202DC
:20049D00BDD28400C2849000A01202BD75801400C2849003E81202BDD28400C284007580B9
:2004BD001100C2849000281202BD75801000C2840075801300C2849000281202BD75801018
:2004DD0000C2840075801600C2849000281202BD75801000C2840075801800C2849003E8C6
:2004FD000202BDAF82E53024E8500122E532240540030205BC8F82120391852D82852E83F2
:20051D00852FF012041574F6253040067D207E00801DAB307C0075190A8C1A8B828C83126F
:20053D00437AAB82AC8374302BFBFD3395E0FE8D8212032FAD307E0075190A8E1A8D828E8D
:20055D0083124344AD8274302DF58212032FE532240350123000067D3A7E0080047D207EFD
:20057D00008D8212032FAD317E0075190A8E1A8D828E83C006C00512437AAB8274302BF504
:20059D008212032FD005D00675190A751A008D828E83124344AD8274302DF58202032F8FB3
:2005BD0082120391852D82852E83852FF012041574F6253040067E207F00801DAC307D00A5
:2005DD0075190A8D1A8C828D8312437AAC82AD8374302CFCFE3395E0FF8E8212032FAE30D1
:2005FD007F0075190A8F1A8E828F83124344AE8274302EF58212032F3000067E3A7F0080B9
:20061D00047E207F008E8212032FAE317F0075190A8F1A8E828F83C007C00612437AAC82FD
:20063D0074302CF58212032FD006D00775190A751A008E828F83124344AE8274302EF5820A
:20065D0012032F3000067E3A7F0080047E207F008E8212032FAE327F0075190A8F1A8E8227
:20067D008F83C007C00612437AAC8274302CF58212032FD006D00775190A751A008E828FC3
:20069D0083124344AE8274302EF58212032F75822002032F120391AE357F0075190A8F1AD0
:2006BD008E828F83C007C00612437AAC8274302CF58212032FD006D00775190A751A008E84
:2006DD00828F83124344AE8274302EF58212032FAE347F0075190A8F1A8E828F83C007C0C8
:2006FD000612437AAC8274302CF58212032FD006D00775190A751A008E828F83124344AE12
:20071D008274302EF58212032FAE337F0075190A8F1A8E828F83C007C00612437AAC8274EC
:20073D00302CF58212032FD006D00775190A751A008E828F83124344AE8274302EF582126B
:08075D00032F75822002032F17
:1143B6002020202020202020202020202020202000F6
:040000000200413287
:01000B0032C2
:0100130032BA
:01001B0032B2
:030023000214992B
:01002B0032A2
:01003300329A
:03003B0002088B2D
:05009A00C23002003E2F
:03003E0002305439
:2007650075FA0075EA0090020F74A8F07461A3F090021174FAF0E4A3F075DA4975DB49D216
:20078500DE2243C110B21DA21D92879000C0E014F0E070199000C0E4F090F32D9324FF92E0
:2007A5001890F006E493FF24FF920792A290020EE0FFE06012EF1490020EF0E070099002E1
:2007C5000EE4F090020DF0900214E0FFE06009302106EF14900214F0900215E0FFE0600916
:2007E500302506EF14900215F0900216E0FFE06009302906EF14900216F0900216E070023B
:20080500D22B900225E0FFE06006EF14900225F0900227E0FFE06006EF14900227F0900234
:2008250017E0600E900219E0FFE06006EF14900219F020A0139000BBE014F0E0700AD2A012
:200845009000BB740AF0D206053BE53B24C45035D21B753B00E5376006D538037537000555
:200865003CE53C24C4501E753C00D21C053DE53D24E85011753D00900213E0FFE06006EFE5
:2008850014900213F022C028C0E0C0F0C082C083C007C006C005C004C003C002C001C000AF
:2008A500C0D075D00843C11010D8030209BF90020FE0FEA3E0FF8EEA8FFA90020F74A82EA0
:2008C500F074613FA3F0301E0930B5069002147402F0301E0330B504C2318002D231A231A9
:2008E500922120200330B504C2318002D231A231921E201F0A202103201E04C2318002D203
:2009050031A231921FA2B5922030220930B3069002157406F030220330B304C2318002D23C
:2009250031A231922520240330B304C2318002D231A231922220230A202503202204C231FC
:200945008002D231A2319223A2B3922430260930B4069002167402F030260330B404C231EF
:200965008002D231A231922920280330B404C2318002D231A231922620270A202903202646
:2009850004C2318002D231A2319227A2B49228900239E014F0E0700AD230900239740AF0F6
:2009A500B22A90023AE014F0E0700F90023A7428F075D00012078775D00810D903020ACCF9
:2009C500900211E0FEA3E0FF8EEB8FFB90021174FA2EF0E43FA3F0301503020ACC9001EF87
:2009E500E0FF04F0EF700CD216C2A1A2A192A3A20792A230B63990020BE0702430142190EF
:200A0500020CE0FF24FD5018BF070050139001F0E0FF04F0EF24F1F582E43401F583E4F0FE
:200A250090020BE02401F090020CE4F0020ABC90020CE06003020AB030144690020BE0FF42
:200A450024FD503DBF0700503820191F9001F0E0FF30E0171FEF3395E0FEEF24F1FFEE34DD
:200A650001FE8F828E83E07002D2199001F0E0FF04F0EF24F1F582E43401F5837401F080CE
:200A85002A90020BE0FF24E350219001EF7401F030140C9001F0E0FFBF1804D215800C3020
:200AA5001609D2149001F0E4F0C21990020CE02401F090020BE4F09001F0E0FF24E7500736
:200AC5009001F0E4F0C214D0D0D000D001D002D003D004D005D006D007D083D082D0F0D075
:200AE500E0D0283285824285834385F0447C007B0090F008E493FAC3EB9A4003020BB675E7
:200B0500450179008B19751A0090000AC004C003C001124295A882AA83D001D003D00489BB
:200B2500067F00EE28F8EF3AFAE82409F582EA34F0F583E493FFE92542FAE43543FDAE44DD
:200B45008A828D838EF0124328FAEFB502028005754500800609B9090040A9E545604C8BFD
:200B650019751A0090000AC004C003124295AE82AF83D003D00474092EFAE43FFDEA2409D9
:200B8500FAED34F0FD8A828D83E493601E74092EFEE43FFFEE2409F582EF34F0F583E493D8
:200BA50090000CF08C07EF04F582220B8B04020AF67582002285824785834885F04990F0F4
:200BC50008E493F54A7B00C3EB954A502E8B19751A0090000AC003124295E5828583F0D024
:200BE500032409F9E435F0FAE92409F9EA34F0FA89828A83E49360030B80CCEBFAB54A047C
:200C050074018001E4FB600874EC254A5002C322C003C002120106D002D00379008A1975B8
:200C25001A0090000AC003C002C00112429585824B85834CD001D002D0037409254BF8E4E7
:200C4500354CFF89057E00ED28F8EE3FFFE824C1F8EF3400FFE92547FCE43548FDAE498CB1
:200C6500828D838EF012432888828F83F009B9090040AA7412254BFEE4354CFFEE24C1F501
:200C850082EF3400F583E546F0EB6008AC4A0C9000C9ECF012019ED322AF82C007120106D6
:200CA500D007EF702AFDFE74092DFBE43EFCEB24C1F582EC3400F583E4F00DBD00010EC3C2
:200CC500ED94C8EE940040DF9000C9E4F080599000C9E0FEC39F40507D007E008F037C00ED
:200CE500EB24FFF519EC34FFF51A90000AC007C006C005124295E5828583F0D005D006D0F6
:200D0500072409FBE435F0FCED2BFBEE3CFCEB24C1F582EC3400F583E4F00DBD00010EC312
:200D2500ED940AEE940040B402019E7F007E0090F008E493FDC3EE9D4003020DDA8E19757D
:200D45001A0090000AC007C006124295E5828583F0D006D0072409FCE435F0FDEC2409F51B
:200D650082ED34F0F583E493FDBD6D028003BD4D5E9000017430F0754D00AC4D0CEC339538
:200D8500E0FBEC2401FCEB3400FB8F19751A0090000AC007C004C003124295A982AA83D01C
:200DA50003D004D007A84D7D00E829F9ED3AFAE92409F582EA34F0F583E4938C828B83F04D
:200DC500054D74F7254D50B290000BE4F0D3220E8E07020D34C322AD82AE83AFF0AC4F9024
:200DE5000226ECF0854EF0ECA4FB900227740A2BF0C22C8D828E838FF0C007C006C005C0AB
:200E050004120287D004D005D006D007AB4E302C03020EB1900227E07003020EB1302E0391
:200E2500020EB143C110C230758280C007C006C005C004C003120391855082855183855269
:200E4500F0120415752D45752E46752F80853D30853C31853B32A21D92007582C012050089
:200E6500D003D004D005D006D007102B028002C322900225E06003302F94C22F8B021BEA30
:200E8500602A900225ECF0900226ECF08D828E838FF0C007C006C005C004C003120287D0B9
:200EA50003D004D005D006D007020E137582801203F6900228E4F0A22C2290001AE06020A7
:200EC50090001DE0701A75504F755146755280754E03754F0190464D75F080120DDCC3221C
:200EE50090000BE4F090466075F08012028790000175F0001202879002287409F075506DDE
:200F0500755146755280754E05754F3D90466A75F080020DDCAD82AE83AFF090467B75F0EB
:200F250080C007C006C005120287D005D006D0078D828E838FF012028775508275514675BB
:200F45005280754E01754F3C90467F75F080020DDCAF82BF0A00500A8F0674302EF582029D
:200F65000238BF640050398F057E0075190A8E1A8D828E83C006C00512437AAB8274302BBE
:200F8500F582120238D005D00675190A751A008D828E83124344AD8274302DF5820202384B
:200FA5007E007519648E1A8F828E83C007C00612437AAC8274302CF582120238D006D00728
:200FC50075190A751A008F828E83C007C00612437A75190A751A00124344AC8274302CF5B4
:200FE50082120238D006D00775190A751A008F828E83124344AE8274302EF582020238904A
:20100500001AE4F0120EBF4001227F0090F008E493FEC3EF9E40030210E08F19751A0090D3
:20102500000AC007124295E5828583F0D0072409FDE435F0FEED2409FDEE34F0FE8D828EC6
:2010450083E49370030210DC8F06EE04F582C007120F5675822E120238758230120238D040
:20106500077E008F19751A0090000AC007C006124295AC82AD83D0068E027B00EA2CFAEB65
:201085003DFBEA2409F582EB34F0F583E493F582C006C005C004120238D004D005D006D026
:2010A500070EBE090040BC75822CC007C005C004120238D004D00574092CFCE43DFDEC2418
:2010C50009F582ED34F0F583E493F58212023875820D120238D0070F021011755093755151
:2010E50046755280754E32754F0190464D75F080020DDCAD82AE83AFF07550C775514375A8
:201105005280754E0F754F019046A475F080C007C006C005120DDC90001AE4F0120EBFD088
:2011250005D006D0074001229046A875F080C007C006C005120287D005D006D00790F0063D
:20114500E49360067BAF7C4680047BB27C467A808B828C838AF0C007C006C005120287D001
:2011650005D006D0078D828E838FF0C007C006C005120287D005D006D0070DBD00010E8D44
:20118500828E838FF0124328FDBD2A0990464D75F080020287755093755146755280754ECD
:2011A50078754F0190464D75F080020DDCAF82753900BFA100500FEF241AF582E43400F5AB
:2011C500830FE4F080EC2290001AE4F0120EBF4001229043D775F0801202877550B67551EB
:2011E50046755280754E32754F0190464D75F080020DDC7550C7755143755280754E0F758D
:201205004F019046A475F080120DDC50347582001211B2753900900228740AF07550D175EE
:201225005146755280754E0F754F019046C775F080120DDC500990001EE0FF900223F0D359
:2012450022C3227550E7755146755280754E19754F029046DC75F080120DDC400122755027
:2012650000755147755280754E0F754F019046F575F080120DDC400122900228740CF075D1
:20128500501C755147755280754E0A754F3C90471175F080120DDC4001229003E81202D72B
:2012A5007582001211B27539009002287402F0755037755147755280754E0F754F019047D1
:2012C5002D75F080120DDC40012290001DE024D075F00AA4FF90001EE02F24D0F54190008F
:2012E50020E024D075F00AA4FF900021E02F24D0F540900023E024D075F00AA4FF900024AD
:20130500E02F24D0F53F900026E024D075F00AA4FF900027E02F24D0F53D900029E024D07C
:2013250075F00AA4FF90002AE02F24D0F53C90002CE024D075F00AA4FF90002DE02F24D046
:20134500F53B854019751A00900017124295751909751A0012437AAE82AF83AC3F7D00ECB0
:201365002EFEED3FFFE54024FD5013740355417D004DB401009232E433FC7D0080047C0286
:201385007D00EC2EFEED3FFFAC417D00EC2EFEED3FFF8C828D83A3A3A37519048D1AC007D4
:2013A500C00612437AAC82AD83D006D007EC2EFEED3FFF8E828F83A3751907751A00124208
:2013C500B2E58204F53E22755050755147755280754E0F754F0190474575F080020DDC7535
:2013E500506C755147755280754E0F754F0190476175F080120DDC4003021497755090756F
:201405005147755280754E0F754F0190477D75F080120DDC40030214977550AE7551477538
:201425005280754E0F754F019047A175F080120DDC505F900228740EF07582001211B275CA
:2014450039007550C7755147755280754E0F754F019047BF75F080120DDC5034900224E443
:20146500F07F00EF241AF582E43400F583E0FEBE2C02801CEF241AF582E43400F5830FE03B
:2014850024D0FE900224E0FD75F00AA42EF080D3D322C322C028C0E0C0F0C082C083C007E0
:2014A500C006C005C004C003C002C001C000C0D075D0102098030226B643C110900226E0A8
:2014C500900225F0900229E0242AF582E43402F583E599F0900229E0FF242AF582E4340287
:2014E500F583E0FEBE4E02800302161F8F147D00740C2CF582E43DF58375190D8D1AC017D4
:20150500C016C015C01475D00012434475D010AA82AB83D014D015D016D017EA242AF58275
:20152500EB3402F583E0FBBB4902800302161F740B2CF582E43DF58375190D751A00C017B6
:20154500C016C015C01475D00012434475D010AA82AB83D014D015D016D017EA242AF58235
:20156500EB3402F583E0FBBB2002800302161F740A2CF582E43DF58375190D751A00C017A0
:20158500C016C015C01475D00012434475D010AA82AB83D014D015D016D017EA242AF582F5
:2015A500EB3402F583E0FBBB547074092CF582E43DF58375190D751A00C017C016C015C00E
:2015C5001475D00012434475D010AA82AB83D014D015D016D017EA242AF582EB3402F58387
:2015E500E0FBBB4F3574082CF582E43DF58375190D751A00C017C01675D00012434475D01A
:2016050010AC82AD83D016D017EC242AF582ED3402F583E0FDBD4E02D22E900228E0FD2499
:20162500F050030226A2ED240A83F582ED241483F583E47311A24AB6A28EA2A27BF1A73B97
:20164500B7A2593419261821262326262524171816261626AC390539EC241AF582E43400C6
:20166500F583E599F07420B59934900229E0FC7B00740C2CF582E43BF58375190D8B1A75E8
:20168500D00012434475D010AB82AC83EB242AF582EC3402F583E0FCBC3A03753900742CBE
:2016A500B5990280030226A2900228E4F0F5390226A27456B5996E8F137C00740C2BF5823C
:2016C500E43CF58375190D8C1AC017C014C01375D00012434475D010A982AA83D013D0145C
:2016E500D017E9242AF582EA3402F583E0FABA4534740B2BF582E43CF58375190D751A00C8
:20170500C01775D00012434475D010AB82AC83D017EB242AF582EC3402F583E0FCBC470549
:20172500D22C0226A27452B5990280030226A28F137C00740C2BF582E43CF58375190D8C7A
:201745001AC014C01375D00012434475D010A982AA83D013D014E9242AF582EA3402F5832B
:20176500E0FABA4F0280030226A2740B2BF582E43CF58375190D751A0075D00012434475FC
:20178500D010AB82AC83EB242AF582EC3402F583E0FCBC520280030226A2900225E4F002F8
:2017A50026A2AC390539EC241AF582E43400F583E599F07422B59934900229E0FC7B0074FC
:2017C5000C2CF582E43BF58375190D8B1A75D00012434475D010AB82AC83EB242AF582EC53
:2017E5003402F583E0FCBC2003753900742CB5990280030226A2900229E0FC7B00740C2CD2
:20180500F582E43BF58375190D8B1A75D00012434475D010AB82AC83EB242AF582EC340214
:20182500F583E0FCBC220280030226A2900228E4F0F5390226A27431B5990280030226A25A
:20184500D22C0226A2AC390539EC241AF582E43400F583E599F0744BB59967900229E0FBEF
:201865007C00740C2BF582E43CF58375190D8C1AC014C01375D00012434475D010A982AA3D
:2018850083D013D014E9242AF582EA3402F583E0FABA4C2E740B2BF582E43CF58375190D51
:2018A500751A0075D00012434475D010AB82AC83EB242AF582EC3402F583E0FCBC43037568
:2018C5003900740DB5990280030226A2900229E0FC7B00740C2CF582E43BF58375190D8BBA
:2018E5001A75D00012434475D010AB82AC83EB242AF582EC3402F583E0FCBC2202800302AF
:2019050026A2900228E4F0F5390226A2743EB5991290464D75F08075D00012028775D01025
:201925000226A2BE47028003021A028F137C00740C2BF582E43CF58375190D8C1AC017C080
:2019450016C015C014C01375D00012434475D010A982AA83D013D014D015D016D017E924DF
:201965002AF582EA3402F583E0FABA4E028003021A02740B2BF582E43CF58375190D751AC1
:2019850000C017C016C015C014C01375D00012434475D010A982AA83D013D014D015D016FC
:2019A500D017E9242AF582EA3402F583E0FABA494C740A2BF582E43CF58375190D751A00EA
:2019C500C017C016C01575D00012434475D010AB82AC83D015D016D017EB242AF582EC346F
:2019E50002F583E0FCBC521575DB009047CE75F08075D00012028775D0100226A2E4BE3AB4
:201A05000104FC7003021BCD8F127B00740C2AF582E43BF58375190D8B1AC017C016C015CD
:201A2500C014C013C01275D00012434475D010A882A983D012D013D014D015D016D017E85C
:201A4500242AF582E93402F583E0F9B952028048740C2AF582E43BF58375190D751A00C0D5
:201A650017C016C015C014C013C01275D00012434475D010A882A983D012D013D014D0150F
:201A8500D016D017E8242AF582E93402F583E0F9B946028003021BCD740B2AF582E43BF5B5
:201AA5008375190D751A00C017C016C015C014C013C01275D00012434475D010A882A983F0
:201AC500D012D013D014D015D016D017E8242AF582E93402F583E0F9B942028003021BCD1F
:201AE500740A2AF582E43BF58375190D751A00C017C016C015C014C013C01275D00012436C
:201B05004475D010A882A983D012D013D014D015D016D017E8242AF582E93402F583E0F959
:201B2500B950028003021BCD74092AF582E43BF58375190D751A00C017C016C015C014C033
:201B450013C01275D00012434475D010A882A983D012D013D014D015D016D017E8242AF58C
:201B650082E93402F583E0F9B9435D74082AF582E43BF58375190D751A00C017C016C015B5
:201B8500C01475D00012434475D010AA82AB83D014D015D016D017EA242AF582EB3402F584
:201BA50083E0FBBB2B229000B9E0FB24F650099000B9740BF00226A2D2039002287408F0A6
:201BC500C2127536000226A2EC7003021D1D8F137C00740C2BF582E43CF58375190D8C1A03
:201BE500C017C016C015C014C01375D00012434475D010A982AA83D013D014D015D016D0CA
:201C050017E9242AF582EA3402F583E0FABA49028003021D1D740B2BF582E43CF58375197D
:201C25000D751A00C017C016C015C014C01375D00012434475D010A982AA83D013D014D0B8
:201C450015D016D017E9242AF582EA3402F583E0FABA54028003021D1D740A2BF582E43C6E
:201C6500F58375190D751A00C017C016C015C014C01375D00012434475D010A982AA83D039
:201C850013D014D015D016D017E9242AF582EA3402F583E0FABA4D028003021D1D74092B06
:201CA500F582E43CF58375190D751A00C017C016C015C014C01375D00012434475D010A9E1
:201CC50082AA83D013D014D015D016D017E9242AF582EA3402F583E0FABA433C74082BF5E2
:201CE50082E43CF58375190D751A00C017C016C01575D00012434475D010AB82AC83D015A5
:201D0500D016D017EB242AF582EC3402F583E0FCBC2B05D2100226A2E4BE200104FC7003FD
:201D2500021ECC8F127B00740C2AF582E43BF58375190D8B1AC017C016C015C014C013C0B5
:201D45001275D00012434475D010A882A983D012D013D014D015D016D017E8242AF582E9F2
:201D65003402F583E0F9B93A028003021ECC740B2AF582E43BF58375190D751A00C017C0FB
:201D850016C015C014C013C01275D00012434475D010A882A983D012D013D014D015D016DD
:201DA500D017E8242AF582E93402F583E0F9B94C028003021ECC740A2AF582E43BF5837579
:201DC500190D751A00C017C016C015C014C013C01275D00012434475D010A882A983D012E3
:201DE500D013D014D015D016D017E8242AF582E93402F583E0F9B947028003021ECC74095A
:201E05002AF582E43BF58375190D751A00C017C016C015C014C013C01275D000124344750D
:201E2500D010A882A983D012D013D014D015D016D017E8242AF582E93402F583E0F9B94DE9
:201E4500028003021ECC74082AF582E43BF58375190D751A00C017C016C015C014C013C045
:201E65001275D00012434475D010A882A983D012D013D014D015D016D017E8242AF582E9D1
:201E85003402F583E0F9B9433E74072AF582E43BF58375190D751A00C017C016C015C01449
:201EA50075D00012434475D010AA82AB83D014D015D016D017EA242AF582EB3402F583E0D2
:201EC500FBBB2B03022060EC70030220AD8F137C00740C2BF582E43CF58375190D8C1AC090
:201EE50017C016C015C014C01375D00012434475D010A982AA83D013D014D015D016D01770
:201F0500E9242AF582EA3402F583E0FABA3A0280030220AD740B2BF582E43CF58375190D00
:201F2500751A00C017C016C015C014C01375D00012434475D010A982AA83D013D014D015AD
:201F4500D016D017E9242AF582EA3402F583E0FABA500280030220AD740A2BF582E43CF5FC
:201F65008375190D751A00C017C016C015C014C01375D00012434475D010A982AA83D01318
:201F8500D014D015D016D017E9242AF582EA3402F583E0FABA490280030220AD74092BF592
:201FA50082E43CF58375190D751A00C017C016C015C014C01375D00012434475D010A98251
:201FC500AA83D013D014D015D016D017E9242AF582EA3402F583E0FABA4C0280030220ADDC
:201FE50074082BF582E43CF58375190D751A00C017C016C015C014C01375D0001243447580
:20200500D010A982AA83D013D014D015D016D017E9242AF582EA3402F583E0FABA4302806B
:20202500030220AD74072BF582E43CF58375190D751A00C017C016C01575D0001243447515
:20204500D010AB82AC83D015D016D017EB242AF582EC3402F583E0FCBC2B4D8F137C0074A1
:20206500092BF582E43CF58375190D8C1A75D00012434475D010AB82AC83EB242AF582ECAC
:202085003402F583E0FCBC4C03D38001C392084006300E030226A2C20CC209C20AC20B90E2
:2020A50002287403F00226A2BE4B02800302213E8F137C00740C2BF582E43CF58375190D5E
:2020C5008C1AC017C016C01575D00012434475D010AB82AC83D015D016D017EB242AF582E2
:2020E500EC3402F583E0FCBC4F4FBD0203753900A22DB3922CC22D300323AC397D001CBCDC
:20210500FF011DEC241AFCED3400FD8C828D83E0240AFB8C828D83F0C212753900E5397014
:20212500030226A27539009047A175F08075D00012028775D0100226A2BE54028003022604
:20214500A28F147D00740C2CF582E43DF58375190D8D1AC015C01475D00012434475D010DE
:20216500AA82AB83D014D015EA242AF582EB3402F583E0FBBB4F0280030226A2740B2CF51B
:2021850082E43DF58375190D751A0075D00012434475D010AC82AD83EC242AF582ED340290
:2021A500F583E0FDBD4E0280030226A2D22D0226A2200C03022299E539704D740DB599020A
:2021C50080030226A2300807D2027538020537200812900217E0FDBD020A900218E0FDBDE2
:2021E50002004004C2338002D233A233920F20080630090B200F08900228E4F00226A29011
:2022050002287405F00226A2740AB539607422B5995B9000017430F090000BE4F09000022B
:2022250075F00075D000120AE975D010E582FDB401009209ED600A90000CE0FCBC4D028087
:2022450004C2338002D233A233920BED600F90000CE0FDBD6D028009BD4D028004C23380F8
:2022650002D233A233920A7539000226A274F62539400EE5392401F582E43400F583E5998B
:20228500F0E53924F55008753900D2090226A205390226A230083CBE30398F147D00740C24
:2022A5002CF582E43DF58375190D8D1AC017C01675D00012434475D010AC82AD83D016D0A7
:2022C50017EC242AF582ED3402F583E0FDBD2203022374BE340280030223798F147D007495
:2022E5000C2CF582E43DF58375190D8D1AC015C01475D00012434475D010AA82AB83D01435
:20230500D015EA242AF582EB3402F583E0FBBB3863740B2CF582E43DF58375190D751A0075
:20232500C015C01475D00012434475D010AA82AB83D014D015EA242AF582EB3402F583E071
:20234500FBBB2B30740A2CF582E43DF58375190D751A0075D00012434475D010AC82AD83F2
:20236500EC242AF582ED3402F583E0FDBD2205D20C753901740DB5990280030226A290020E
:2023850028E4F075DB490226A2300D43743BB599028021740DB59902801A746025394014C8
:2023A500AD390539ED241AF582E43400F583E599F00226A2E539241AF582E43400F583E443
:2023C500F0F539C20D900228E4F0D20E0226A2300B030224D6300F030224D6BE2C028003EC
:2023E5000224D28F147D00740C2CF582E43DF58375190D8D1AC015C01475D00012434475C6
:20240500D010AA82AB83D014D015EA242AF582EB3402F583E0FB90F003E493FAEBB51202E9
:2024250080030224D2740B2CF582E43DF58375190D751A00C015C01475D00012434475D06B
:2024450010AA82AB83D014D015EA242AF582EB3402F583E0FB90F002E493FAEBB5126E749A
:202465000A2CF582E43DF58375190D751A00C015C01475D00012434475D010AA82AB83D0E1
:2024850014D015EA242AF582EB3402F583E0FB90F001E493FAEBB5123474092CF582E43D02
:2024A500F58375190D751A0075D00012434475D010AC82AD83EC242AF582ED3402F583E0B8
:2024C500FD90F000E493FCEDB514028004C2338002D233A233920D740DB59902800302265F
:2024E500A2753901900228E4F00226A2743EB5990A900228E4F0D22C0226A2BE5202800339
:202505000226A28F157E00740C2DF582E43EF58375190D8E1AC016C01575D00012434475CB
:20252500D010AB82AC83D015D016EB242AF582EC3402F583E0FCBC520280030226A2740B8D
:202545002DF582E43EF58375190D751A0075D00012434475D010AD82AE83ED242AF582EEDB
:202565003402F583E0FEBE450280030226A2900225E4F00226A27422B5990280030226058D
:20258500D2127E00740C2FF582E43EF58375190D8E1A75D00012434475D010AE82AF83EE4E
:2025A500242AF582EF3402F583E0FFBF2C21AE397F001EBEFF011FEE241AFEEF3400FF8E8E
:2025C500828F83E02411FD8E828F83F00226A2AE397F001EBEFF011FEE241AFEEF3400FFC7
:2025E5008E828F83E0241BFD8E828F83F09000B9E0FF0F9000B9EFF0900228E4F00226A2CF
:20260500E59924D040030226A220120FE53675F00AA4FFE599FE2F24D0F536AF390539EFE9
:20262500241AF582E43400F583E599F00226A2AF390539EF241AF582E43400F583E599F050
:202645007422B59936900229E0FF7E00740C2FF582E43EF58375190D8E1A75D00012434462
:2026650075D010AE82AF83EE242AF582EF3402F583E0FFBF2C05853A3980227422B5991DE4
:20268500AE397F001EBEFF011FEE241AF582EF3400F583E4F0F539900228F0D22C90022931
:2026A500E02401F0E0FF24F35005900229E4F0C298D0D0D000D001D002D003D004D005D08D
:2026C50006D007D083D082D0F0D0E0D02832C2117F00EF241AFDE43400FE0F8D828E83E038
:2026E500600543C11080EBBFA000500FEF241AF582E43400F5830FE4F080EC90001AE0FF27
:20270500BF3F02800890001BE0FEBE3F062009030211CCBF4203022D0BBF4303022DA5BFBF
:202725004403022967BF4703022D8EBF4B03022800BF4C03022B02BF50030228E7BF52034A
:2027450002286DBF53028050BF5503022C98BF5803022973BF6203022D0BBF6303022DA50D
:20276500BF6403022967BF6703022D8EBF6B03022800BF6C03022B02BF70030228E7BF728E
:202785000302286DBF7302800FBF7503022C98BF7803022973022FA890F006E49330E00616
:2027A500200A03022FB190F006E49330E00D1201069000C7E05402F012019ED215D2A2C287
:2027C500079000641202D7C2A2A2A2921590F004E493600C9047D775F0801210F8022FB1C9
:2027E5007550E6755147755280754E03754F0190464D75F080120DDC022FB1200A03022F07
:20280500B190001BE0FFBF50028003BF703812010690001EE0FFBF4E028003BF6E12900076
:20282500C7E04402F09047F675F0801210F880109000C7E05401F090480575F0801210F802
:2028450012019E022FB11201069000C7E04401F012019ED2A2D20790000BE4F0904812758F
:20286500F0801210F8022FB1200A03022FB190001CE0FF90001EE0FEEFB50658BF7202800C
:2028850003BF5250300B4D90482175F0801210F8758200120C9E9002001200EE75180090ED
:2028A500032C1200D31201069000C47430F09000C3F09000C2F09000C1F09000C7E4F0907D
:2028C50000C6F09000C8F09000C504F012019EC213022FB190483875F0801210F8C2A002D1
:2028E5002FB1200A03022FB190001EE0FFBF30004064EF24C6405F90001FE0FFBF3000408F
:2029050055EF24C64050900020E0FFBF30004046EF24C64041900021E0FFBF30004037EFB1
:2029250024C6403212010690001EE09000C1F090001FE09000C2F0900020E09000C3F0901A
:202945000021E09000C4F012019E90484B75F0801210F8022FB190486275F0801210F8023D
:202965002FB1200A03022FB1121004022FB190001BE0FFBF6F028008BF4F028003022A86D4
:20298500200A03022FB190001EE0FEBE30005003022A7AEE24C65003022A7A90001FE0FD53
:2029A500BD30004005ED24C65006ED6003022A7A900020E0FCBC30004005EC24C65006ECE8
:2029C5006003022A7ABE3009758200120C9E022A6EED700D8E03EB24D0F582120C9E022A6C
:2029E5006EEC70178E03EB24D075F00AA4FB8D02EA2B24D0F582120C9E806E8D027B00EAC6
:202A050024D0F519EB34FFF51A90000AC006C005C004124295AA82AB83D004D005D0068C4B
:202A2500007900E82AFAE93BFBEA24D0FAEB34FFFBC374329A74808BF063F08095F05011D1
:202A4500EE24FE500C90486275F0801210F8022FB1EE24D075F064A4FEED24D075F00AA4A9
:202A65002E2C24D0F582120C9E90487575F0801210F8022FB190486275F0801210F8022F38
:202A8500B1BF75028003BF556830070C90488D75F0801210F8022FB1D21590F005E493607F
:202AA50010D2A39000641202D7C2A3A2A39215800ED2A19000641202D7C2A1A2A19215909F
:202AC500000BE4F090F00493600C9048A175F0801210F8022FB17550E675514775528075C1
:202AE5004E03754F0190464D75F080120DDC022FB19048B175F0801210F8022FB190001BC1
:202B0500E0FFBF75028008BF55028003022C1C200A03022FB190001EE0FEBE300050030252
:202B25002C10EE24C65003022C1090001FE0FEBE30005003022C10EE24C65003022C1090E6
:202B45000020E0FEBE30005003022C10EE24C65003022C10900021E0FEBE30005003022C8C
:202B650010EE24C65003022C10900022E0FEBE30005003022C10EE24C65003022C109000CF
:202B850023E0FEBE30005003022C10EE24C65003022C10900024E0FEBE3000406EEE24C641
:202BA5004069900025E0FEBE3000405FEE24C6405A900026E0FEBE30004050EE24C6404B60
:202BC500900027E0FEBE30004041EE24C6403C900028E4F0900029E0FEBE6D067D6D7E00DC
:202BE50080047D757E008D4690001F75F000120BBA500C9048C475F0801210F8022FB190B5
:202C050048DD75F0801210F8022FB19048ED75F0801210F8022FB1BF65028003BF456830BE
:202C2500070C90488D75F0801210F8022FB1D21590F005E4936010D2A19000641202D7C2CF
:202C4500A1A2A19215800ED2A39000641202D7C2A3A2A3921590000BE4F090F00493600CBF
:202C650090490175F0801210F8022FB17550E6755147755280754E03754F0190464D75F082
:202C850080120DDC022FB19048B175F0801210F8022FB1200A03022FB190001EE0FFBF42CB
:202CA500028012BF6202800D90001FE0FEBE6E028003BE4E1A1201069000C8740AF0120175
:202CC5009ED2C290490E75F0801210F8022FB1BF5402800DBF74028008BE66028003BE46E9
:202CE500191201069000C8E4F012019EC2C290491775F0801210F8022FB19048B175F080FD
:202D05001210F8022FB1200A03022FB190001DE0FF600690001CE0700C90492075F08012B9
:202D250010F8022FB1BF42028012BF6202800D90001EE0FEBE6E028003BE4E181201069055
:202D450000C57401F012019E90493475F0801210F8022FB1BF5402800DBF74028008BE6622
:202D6500028003BE461790494175F0801210F81201069000C5E4F012019E022FB19048B137
:202D850075F0801210F8022FB1200A03022FB190000BE4F090000175F000120F1A022FB1BC
:202DA50090001BE0FFBF67028008BF47028003022F9D200A03022FB190001DE0FFBF3000F1
:202DC5005003022F92EF24C65003022F9290001EE0FEBE30005003022F92EE24C65003022C
:202DE5002F9290001FE0FDBD30005003022F92ED24C65003022F92900020E0FCBC300050C9
:202E050003022F92EC24C65003022F92900021E0FBBB30005003022F92EB24C65003022F15
:202E250092900022E0FABA30005003022F92EA24C65003022F92900023E0F9B930005003BD
:202E4500022F92E924C65003022F92900024E0F8B830005003022F92E824C65003022F924F
:202E6500900025E0F553C394305003022F92E55324C65003022F92900026E0F554C3943035
:202E85005003022F92E55424C65003022F92EF24D075F00AA42E24D0FFED24D075F00AA4D3
:202EA5002C24D0FEEB24D075F00AA42A24D0FDE924D075F00AA42824D0FCE55324D075F049
:202EC5000AA4255424D0FBEF24E84019EE24C44014BD0100400FED24E0400ABC010040050F
:202EE500EC24F3500C90494E75F0801210F8022FB18F3D8E3C753B008D3F8C408B418540F7
:202F050019751A00900017124295751909751A0012437AAE82AF83AC3F7D00EC2EFEED3F71
:202F2500FFE54024FD5013740355417D004DB401009234E433FC7D0080047C027D00EC2E69
:202F4500FEED3FFFAC417D00EC2EFEED3FFF8C828D83A3A3A37519048D1AC007C006124374
:202F65007AAC82AD83D006D007EC2EFEED3FFF8E828F83A3751907751A001242B2E582042A
:202F8500F53E90496075F0801210F8801F90494E75F0801210F880149048B175F0801210D8
:202FA500F8800990486275F0801210F843C1107F00EF241AFDE43400FE8D828E83E0600F10
:202FC500EF241AF582E43400F5830FE4F080E22290021AE0FF90F000E4937D0024D0FEED73
:202FE50034FFFD7C00EFB5065DECB5055990021BE0FF90F001E4937D0024D0FEED34FFFD0A
:203005007C00EFB50640ECB5053C90021CE0FF90F002E4937D0024D0FEED34FFFD7C00EFE6
:20302500B50623ECB5051F90021DE0FF90F003E4937D0024D0FEED34FFFD7C00EFB50606A8
:20304500ECB505028004C2358002D235A235227593007594FF759200759100759500759694
:20306500FF75B20075B10075B30275B41C75CA0075C90075C00075B0FF75A00075B8817582
:203085009700D2AF9000C0741EF07537009000BB740AF09000BC7402F09000BDF09000BE9F
:2030A500F09000BFF0900216F0900214F09002157406F0900217E4F0C22E90020EE4F0902C
:2030C500020DF090021304F0D2361201069000C5E024FE50069000C57401F09000C7E02470
:2030E500FC50059000C7E4F09000C6E024FE50059000C6E4F09000C8E024F550059000C87A
:20310500E4F09000C9E024EB50059000C9E4F09000C1E0FFBF30004032EF24C6402D9000A5
:20312500C2E0FFBF30004023EF24C6401E9000C3E0FFBF30004014EF24C6400F9000C4E08F
:20314500FFBF30004005EF24C650129000C47430F09000C3F09000C2F09000C1F012019E9D
:2031650090F007E49324FF92C21201529001EDE0249C50059001EDE4F09001EEE024FE50DA
:20318500059001EEE4F01201DC9013881202D712022012076512047F202E0E1211F85009B6
:2031A5001212481213CC1213E4900219743CF09000017430F090000BE4F0120D309213C20F
:2031C5003730130990496E75F0801210F8101C028003121248301B2590F007E493601EC256
:2031E5001B90F007E493FFBF0102C2C21201069000C8E0FF1F9000C8EFF012019E9002196A
:20320500E07033900217E0602D900218E4F0900217F0900019F090021DF090021CF0900291
:203225001BF090021AF0900221F0900220F090021FF090021EF010100280217550C7755147
:2032450043755280754E0F754F019046A475F080120DDC90497D75F080120287200E0302E5
:20326500332D200F0302332DC20EC20F900217E0FFBF02028003023315900218E0FFBF0252
:2032850000400302331590001AE0FFBF6C028003BF4C0F90001BE0FFBF7502801FBF5502D4
:2032A500801A90001AE0FFBF73028003BF536190001BE0FFBF61028003BF415490000BE4BA
:2032C500F07F00EF240DFDE43400FEEF2401F582E43400F583E0FC8D828E83F00FBF0B0067
:2032E50040E1301312900218E060067E757F00800A7E6D7F0080047E4D7F00900018EEF0A9
:20330500A20992019000197401F0900219743CF075508C755149755280754E0F754F019043
:2033250047A175F080120DDC300E29900217E070231226D375508C755149755280754E0FB9
:20334500754F019047A175F080120DDCC20E758253120238900213E0700DE53D7009E53C27
:2033650024FA500375C760900217E0FF24FB4016EF2F2F90337C7302338B0234C10235F859
:2033850002391D023B16103002803A7582801203919043C775F080120415752D9D752E498F
:2033A500752F80853D30853C31853B32A21D92007582C7120500854133854034853F357588
:2033C50082C01206B190F006E49320E165900214E0705FC21F900219743CF0900218E4F07B
:2033E5003013499002177401F07582801203F675828012039190499E75F080120415900276
:203405001AE02430F58212032F90021BE02430F58212032F90021CE02430F58212032F90D5
:20342500021DE02430F58212032F80069002177402F0102702803E303712D215D2A2900089
:20344500641202D7C2A2A2A292158027D21590F005E4936010D2A19000641202D7C2A1A278
:20346500A19215800ED2A39000641202D7C2A3A2A39215B237102303023B9F303712D21571
:20348500D2A29000641202D7C2A2A2A292158027D21590F005E4936010D2A390006412020E
:2034A500D7C2A3A2A39215800ED2A19000641202D7C2A1A2A19215B237023B9F900218E063
:2034C5002404F529758280120304101F03023555900218E02401F0E0FFBF0474900218E410
:2034E500F0122FD550269002177402F0900222E4F090021DF090021CF090021BF090021A2E
:20350500F01203F07582801203F68044900222E02401F0E0FF24FB5020900217E4F01201C4
:20352500069000C7E04402F012019E120D3050099049A375F0801210F875828812039175A5
:20354500825812032F900222E02430F58212032F1027028050900218E0241AFFE43402FEBD
:203565008F828E83E0FD7C008D828C83A375190A8C1AC007C006124344AC82D006D0078F3C
:20358500828E83ECF0900218E02484F582120391900218E0241AF582E43402F583E0243063
:2035A500F58212032F1023028015900218E0FFE06008EF14900218F08005900217E4F01001
:2035C5003003023B9F752D9D752E49752F80853D30853C31853B32A21D92007582C712058C
:2035E50000854133854034853F357582C01206B1023B9F900019E070030236FC75828012C6
:203605000391900019E0FFBF01067EB27F4980047EC37F497D808E828F838DF01204157502
:2036250082C012039190000D75F0001204159049D475F080120415900019E0FFBF010280E9
:20364500030236D0301F64C223C21F900219743CF030010F900018E0F54690000E75F00090
:20366500120BBA7F00EF2401FDE43400FEEF240DF582E43400F583E08D828E83F00FBF0BD8
:203685000040E230130B9049DB75F0801210F880099049EB75F0801210F8D21390001974B4
:2036A50002F07582C01203F6023B9F102303023B9F900219743CF0900019E4F07582801212
:2036C50003F67582C01203F6023B9F201F09202306202703023B9FC227C223C21F9002193D
:2036E500743CF0900019E4F07582801203F67582C01203F6023B9F752D9D752E49752F8039
:20370500853D30853C31853B32A21D92007582C7120500854133854034853F357582C012F4
:2037250006B1758280120391900218E0FF24FB4054EF2F90373C73800880208029803280DD
:203745003B3013067EF77F4980047E087F4A7D808E828F838DF0120415802A904A1A75F006
:2037650080120415801F904A2B75F0801204158014904A3C75F0801204158009904A4D7506
:20378500F080120415101F02801FC223900218E0FF7E008F828E83A37519058E1A12434434
:2037A500AE82AF83900218EEF01027028018900218E0FFBF02005008900219743CF08006D6
:2037C5009002187404F02023030238CA900218E0FF24FE40030238CAC2237E008F828E8311
:2037E500A37519058E1A124344AE82900217EEF07582801203F6758280120391900218E06D
:20380500FFBF02028009BF03030238940238CA90499E75F08012041590021AE02430F582E3
:2038250012032F90021BE02430F58212032F90021CE02430F58212032F90021DE02430F52E
:203845008212032F75822012032F75822012032F75822012032F90021EE02430F58212031C
:203865002F90021FE02430F58212032F900220E02430F58212032F900221E02430F5821263
:20388500032F75822012032F900218E4F0803690F005E493900218F0904A5E75F080120499
:2038A50015900218E060067E667F4A80047E697F4A7D808E828F838DF0120415904A6C759B
:2038C500F080120415900215E06003023B9F900218E0FFBF02004003023B9FC2237582003D
:2038E500120C9E9002001200EE75180090032C1200D31201069000C47430F09000C3F09070
:2039050000C2F09000C1F012019EC213900218E4F0900217F0023B9F101F030239B4900283
:2039250018E02401F0E0FFBF0426122FD54013900218E4F075828812039175825812032F0E
:20394500806D75828812039175822012032F805FBF085C9002187402F0900217F012010631
:2039650090021EE024309000C1F090021FE024309000C2F0900220E024309000C3F090023B
:2039850021E024309000C4F012019E90021DE4F090021CF090021BF090021AF0900221F0DB
:2039A500900220F090021FF090021EF01203F0102703023A85900218E0FF2484FE7D0075FE
:2039C50019048D1A8F828D83C00612437AAD82D006ED75F003A42EF582120391900218E095
:2039E500FFBF04005044EF241AFDE43402FE8D828E83E0FC7B008C828B83A375190A8B1AB7
:203A0500C006C005124344AB82D005D0068D828E83EBF0900218E0241AF582E43402F583D9
:203A2500E02430F58212032F80561F1F1F1FEF3395E0FEEF241EFFEE3402FE8F828E83E057
:203A4500FD7C008D828C83A375190A8C1AC007C006124344AC82D006D0078F828E83ECF0EA
:203A6500900218E0FF1F1F1F1FEF3395E0FEEF241EF582EE3402F583E02430F58212032F74
:203A8500102302802E9002187402F0900217F090021DE4F090021CF090021BF090021AF03B
:203AA500900221F0900220F090021FF090021EF01203F0900218E0FF2404FE7D00751904B8
:203AC5008D1A8F828D83C00612437AAD82D006ED75F003A42EF52975828012030410300367
:203AE500023B9F752D9D752E49752F80853D30853C31853B32A21D92007582C71205008515
:203B05004133854034853F357582C01206B1023B9F102702802B900218E0FF7401C39FF0AA
:203B2500758287120391900218E060067E667F4A80047E697F4A7D808E828F838DF01204D9
:203B450015101F028019120106900218E09000C6F012019E9002177402F090021804F0102A
:203B65002302800B9002187403F090021714F0752D9D752E49752F80853D30853C31853BDF
:203B850032A21D92007582C7120500854133854034853F357582C01206B12015030241885A
:203BA5007F009001F1E0035480FE9001F2E0030354C02EFE9001F3E0C42354E02EFE900165
:203BC500F4E0C454F02EF5559001F5E0C40354F8FE9001F6E025E025E02EFE9001F7E025EB
:203BE500E02EFE9001F8E02EAD552DF5559001F9E0035480FE9001FAE0030354C02EFE9024
:203C050001FBE0C42354E02EFE9001FCE0C454F02EF5569001FDE0C40354F8FE9001FEE0A0
:203C250025E025E02EFE9001FFE025E02EFE900200E02EAD562DF55630193A900201E0C4D3
:203C45000354F8FE900202E025E025E02EFE900203E025E02EFE900204E0FD2EF557900243
:203C650006E0FE8E59900207E0FE8E5A900208E0FE8E5B8018755700900207E0FE8E599062
:203C85000203E0FE8E5A900201E0FE8E5B900205E0FE8E58758250C007120238A219E43373
:203CA5002430F58212023875822D12023885558212024D85568212024D85578212024D75C9
:203CC500822D120238AE5874302EF582120238AE5974302EF582120238AE5A74302EF5825C
:203CE500120238AE5B74302EF58212023875822D1202389001F0E0FE7D0075190A8D1A8EBC
:203D0500828D8312437AAD8274302DF5821202389001F0E0FE7D0075190A8D1A8E828D833F
:203D2500124344AD8274302DF58212023875822D120238D0077E00EF6003023EC590F32C57
:203D4500E493FD7C0074022DFDE43CFC8E027B00C3EA9DEB64808CF063F08095F040030275
:203D65003EC5BE02004003023E078A198B1A900003C007C006124295AC82AD83D006D00795
:203D85008C0274F22DFB8A828B83E493702574012CFAE43D24F2FB8A828B83E49370147486
:203DA500022CFCE43D24F2FD8C828D83E4937003023EC18E19751A00900003C007C006122F
:203DC5004295AC82AD83D006D0078C8274F22DF583E493FBBBFF2B74012CFAE43DFB8A82C9
:203DE50074F22BF583E493FBBBFF1774022CFCE43DFD8C8274F22DF583E493FDBDFF030268
:203E05003EC1AD558E037C008B198C1A900003C006C005C004C00312429585825C85835DEF
:203E2500D003D004D005D006855C8274F2255DF583E493FAEDB5022E7401255CFAE4355DBF
:203E4500FD8A8274F22DF583E493FDB556187402255CFAE4355DFD8A8274F22DF583E493C0
:203E6500FDB557028004C2388002D238A238E433FF6049BE020050068E0574022DFF7519B6
:203E85000A751A008B828C83C007C006C004C00312437AAA8274302AF582120238D003D025
:203EA5000475190A751A008B828C83124344AC8274302CF582120238D006D0070E023D3C26
:203EC50075822DC007120238D0078F0674302EF582C00712023875822D120238D007900205
:203EE50017E0FEBE02028003024012EF600302400D20131B1201529000C1E555F09000C20E
:203F0500E556F09000C3E557F01201DC02400D900218E0FEE06003023FDD90F32CE4932481
:203F25009E5012904A6F75F0801204159007D01202D702400D1201529001EDE0FD8D1975A7
:203F45001A00900003124295E5828583F02406FCE435F0FDEC24C1F582ED3400F583E55520
:203F6500F09001EDE0FD8D19751A00900003124295E5828583F02407FCE435F0FDEC24C1E3
:203F8500F582ED3400F583E556F09001EDE0FD8D19751A00900003124295E5828583F02452
:203FA50008FCE435F0FDEC24C1F582ED3400F583E557F09001EDE0FD0D9001EDEDF012010F
:203FC500DC120D30504290F004E493603B904A8075F0801210F88030BE012D12015290009F
:203FE500C4E555F09000C5E556F09000C6E557F01201DC120D30501090F004E4936009903A
:204005004A8F75F0801210F8C216024184EF7003024184E4BF020104FF60511023028031BB
:20402500758200C007120C9E9002001200EE75180090032C1200D31201069000C47430F03D
:204045009000C3F09000C2F09000C1F012019ED0071007028016C007120D30D007500D9084
:204065004AA975F080C0071210F8D00730181BE55A600302412BC218C0071201529001EEB3
:20408500E4F01201DCD00702412BE5587015D218C0071201529001EE7401F01201DCD00791
:2040A50002412B30070302412BE55AB401009238E43324FF92A210360280089000C0E0FEBB
:2040C500243CF090F005E493602FE559700330A204C2388002D238A238E43324FF92A1E5C7
:2040E5005B700620A10330A204C2388002D238A238E43324FF92A3802DE559700330A2044D
:20410500C2388002D238A238E43324FF92A3E55B700620A30330A204C2388002D238A23819
:20412500E43324FF92A1E558700D90020DE02401F090020E740AF030074590020DE0FE2494
:20414500E24007EF6039E55970351201069000C7E4F012019EC207C2A290F005E493600C3C
:20416500D2A19000641202D7C2A1800AD2A39000641202D7C2A390020EE4F090020DF0C27D
:2041850014C21510020302428F10080302428C900217E0FFBF02028008BF030280030242FE
:2041A500437550C7755143755280754E0F754F019046A475F080120DDC90000BE4F0300942
:2041C50024301312900218E060067D757E00800A7D6D7E0080047D4D7E008D469000027569
:2041E500F000120BBA7E00EE240DFCE43400FDEE2401F582E43400F583E08C828D83F00E2F
:20420500BE0B0040E29000197402F030130B9049DB75F0801210F880099049EB75F080125A
:2042250010F8301315120D30501090F004E4936009904AC775F0801210F8D213804920098F
:2042450046EF704330070B904AD875F0801210F88035D21590F005E4936010D2A19000640F
:204265001202D7C2A1A2A19215800ED2A39000641202D7C2A3A2A3921590000BE4F0904A85
:10428500E775F0801210F875DB4943C1100231D291
:2043C7002043554143554F4E2041372D312E36004D612050696E204D61632044696E682065
:2043E7003A20303030300A436163206C656E6820636875207669657420484F412068617932
:20440700207468756F6E67206465752064756F630A312E4C656E68206261742074686965A6
:20442700742062690A707070702C626174202D2076692064753A20303030302C6261740A1D
:20444700322E4C656E68207461742074686965742062690A707070702C746174202D2076BA
:20446700692064753A20303030302C7461740A332E4C656E68206B69656D20747261207491
:2044870072616E6720746861692074686965742062690A707070702C6B74202D207669203D
:2044A70064753A20303030302C6B740A342E4C656E68207468617920646F69206D61207054
:2044C700696E3A20707070702C70696E2C787878780A7669206475203A20303030302C70AD
:2044E700696E2C31323334200A5468617920646F69206D612070696E20747520303030308E
:20450700202D3E20313233340A352E4C656E682072657365742073696D2D67736D0A707021
:2045270070702C72732D2076692064753A20303030302C72730A362E4C656E68206C6965E4
:2045470074206B652064616E682062610A707070702C64622D2076692064753A2030303087
:20456700302C64620A372E4C656E6820786F612064616E682062613A20707070702C786FE9
:20458700612C7878780A76643A20303030302C786F612C31352020786F6120736F206469A4
:2045A700656E2074686F6169207468752031350A76643A20303030302C786F612C302020E7
:2045C70020786F6120746F616E20626F2064616E682062610A382E4C656E68206C7575207E
:2045E70064616E682062613A20707070702C6C75752C787878787878787878780A76643AA0
:2046070020303030302C6C75752C303931323334353637380A6C757520736F206469656ED6
:204627002074686F616920303931323334353637382076616F2064616E68206261002020CD
:204647004343412020001A00544B3C31303030204B2042414F43414F0041542B434D47537C
:204667003D2200220D0020202053454E44494E4720202000415444003B0D002020202043F9
:20468700414C4C494E4720202020200044414E47204755492042414F2043414F0041540D16
:2046A70000204B484F413D004F4E004F464600204755492048554F4E472044414E20200022
:2046C70041542B4353504E3F0D002054454E204D414E47200041542B43545A553D310D00A8
:2046E70020424154204C41592047494F200041542B434F50533D320D002020204E4741549C
:20470700204D414E47202020200041542B434F50533D300D002020202054494D204D414EFA
:2047270047202020200041542B43434C4B3F0D00204C41592047494F2047505320004154BE
:204747002B434C49503D310D00202053454E44494E4720434C495020200041542B434D471D
:20476700463D310D00202053454E44494E4720434D474620200041542B434E4D493D312C2B
:20478700312C302C302C310D00202053454E44494E4720434E4D4920200041542B434D4759
:2047A700443D312C340D0020205448494554204C415020544E20200041542B4353510D0062
:2047C70020534F4E47200041542B434855500D000D44756E67206375612063756F6E002075
:2047E700205441542042414F2043414F2020000D4B686F612062616E207068696D000D4D7B
:204807006F2062616E207068696D000D4B686F61206375612063756F6E000D4B686F69208D
:2048270074616F206C6169207468696574206269000D72657365742067736D20736175208E
:20484700313073000D446F69206D612070696E207468616E6820636F6E67000D4C656E6871
:20486700206B686F6E6720686F70206C65000D586F612064616E68206261207468616E689C
:2048870020636F6E67000D4375612063756F6E2064616E67206B686F61000D58756F6E67B4
:2048A700206375612063756F6E000D4C656E68204B686F6E6720486F70204C65000D746817
:2048C700656D2064616E68206261207468616E6820636F6E67000D42616E6720736F20645C
:2048E7006120646179000D536F206474206B686F6E6720686F70204C65000D4D6F206375FB
:20490700612063756F6E000D42617420555053000D54617420555053000D42616F206361CD
:204927006F207468616E6820636F6E67000D4261742062616F2063616F000D546174206286
:20494700616F2063616F000D47696F206B686F6E6720686F70206C65000D4461206368696C
:204967006E682067696F000D42444B204B686F6920446F6E670041542B434D474C3D224147
:204987004C4C220D00202044454C4554494E4720534D532020000050494E3A000D5361691F
:2049A7002070696E2035206C616E004C555520534F3F204D3A4F4B20423A58004441204CBC
:2049C700555520534F3A20202020202000202020202020000D4C7575207468616E682063B1
:2049E7006F6E67000D4C7575204D6173746572004348494E483A20202020202020202020B9
:204A0700004D41535445523A20202020202020202020005048553A20202020202020202002
:204A27002020200020202020444F49202050494E2020202000202048554F4E4720204D4F6F
:204A4700544F52202000202020202020455849542020202020200048554F4E473A20005035
:204A670048005452004149002048455420424F204E484F20484F4320000D72656D6F74654D
:204A870020646320686F63000D6D6F64756C652062616F20646F6E672064756F6320686F5F
:204AA70063000D72656D6F7465206B68616E206361702064756F632073752064756E67003C
:204AC7000D4454206D6F692064756F63206C7575000D4375612064616E67206B686F6100E1
:0E4AE7000D4D6F20637561206C656E00142804
:06007000E478FFF6D8FD64
:20004E007902E94400601B7A01904AF3783975A002E493F2A308B8000205A0D9F4DAF275DE
:02006E00A0FFF1
:1D429500E5828519F0A4C582C0F0851AF0A4D0F025F0C5838519F0A42583F58322B8
:2042B200E519451A60467A01E51925E0F519E51A334012F51AE5829519E583951A40030A51
:2042D20080E6C3E51A13F51AE51913F519C3E5829519F5F0E583951A4005F58385F082C318
:0D42F200E51A13F51AE51913F519DAE122A2
:200076007800E84400600A790175A000E4F309D8FC7838E84402600C7903900001E4F0A34B
:04009600D8FCD9FABF
:2042FF007A10E4FBFCE58225E0F582E58333F583EB33FBEC33FCEB9519F5F0EC951A4006B1
:09431F00FCABF0438201DADD225F
:0D00410075815D1243B2E582600302003E4E
:1C43280020F71430F6148883A88220F507E6A88375830022E280F7E49322E022A4
:20434400C2D5E58330E70DD2D5E4C39582F582E49583F583E51A30E70BE4C39519F519E47E
:16436400951AF51A1242B230D50BE4C39582F582E49583F58322A4
:20437A00C2D5E58330E70DD2D5E4C39582F582E49583F583E51A30E70DB2D5E4C39519F5BC
:18439A0019E4951AF51A1242FF30D50BE4C39582F582E49583F5832222
:0443B20075820022EE
:00000001FF
