:2000A10075C70075C50075C60075C38075C40043C11022AE82AF8375C78375C5018EC48F2A
:2000C100C375C65A75C6A500AFC2C0071200A1D0078F8222AE82AF8375C78375C5028EC443
:2000E1008FC38518C275C65A75C6A5000200A1AE82AF8375C78375C5038EC48FC375C65A9F
:2001010075C6A5000200A143C1107E987F01EE4F60141EBEFF011FEE24B2F582EF3400F5B2
:200121008374FFF080E8C3EE9498EF9401501EEE24B2FCEF3400FD8E8274F02FF5830EBEDA
:2001410000010FE493FB8C828D83F080D99000000200F043C1107E987F01EE4F60141EBEFC
:20016100FF011FEE24B2F582EF3400F58374FFF080E8C3EE942DEF9401501EEE24B2FCEFAB
:200181003400FD8E8274F22FF5830EBE00010FE493FB8C828D83F080D99002000200F07E59
:2001A100007F00C3EE9498EF9401503075C78375C5028EC48FC3EE24B2F582EF3400F58369
:2001C1000EBE00010FE0F5C275C65A75C6A500C007C0061200A1D006D00780C7227E007FE3
:2001E10000C3EE942DEF9401503675C78375C5028EC48E0474022FFD8DC3EE24B2F582EF87
:200201003400F5830EBE00010FE0F5C275C65A75C6A500C007C0061200A1D006D00780C11B
:0102210022BA
:20022200759850438E40538EFE758BE6758DFFC2ABD28ED2ACD2A022E582FF700122C29955
:200242008F9920990543C11080F8C29922E582FFC4540FFE53070FBE0A0050067C307D0072
:2002620080047C577D00EC2EF582C00712023AD007BF0A0050067D307E0080047D577E000B
:20028200ED2FF58202023AAD82AE83AFF0C2998D828E838FF01246E1FC60218C99209905F9
:1D02A20043C11080F8C2998D828E838FF01246E1FCBC1A01220DBD00D60E80D32268
:2002BF00AE82AF837C007D00C3EC9EED9F500A43C1100CBC00F20D80EF22AE82AF837C0047
:2002DF007D00C3EC9EED9F501D9003E8C007C006C005C0041202BFD004D005D006D0070C76
:2002FF00BC00DF0D80DC22AF82E5274FF58212039375820D020393AF823023118F821203B7
:20031F0093852882852983852AF00204178F820203F8E582FF700122D285EFC4540124FF86
:20033F009283EFA2E5E43324FF9282EF2323540124FF9281EF235401FE24FF9280D2840015
:20035F00C28400EF540124FF9283EF03540124FF9282EF03035401FE24FF9281EFA2E3E468
:20037F0033FF24FF9280D28400C2849000641202BFC28522E582FF700122C285EFC45401E3
:20039F0024FF9283EFA2E5E43324FF9282EF2323540124FF9281EF235401FE24FF9280D216
:2003BF008400C28400EF540124FF9283EF03540124FF9282EF03035401FE24FF9281EFA24B
:2003DF00E3E433FF24FF9280D28400C2849000640202BF75820C020393E582FF600E8F82FD
:2003FF0012039390476F75F0800204177582011203939006400202BFAD82AE83AFF07C003A
:20041F008D828E838FF01246E1FB6055BC10005050BB80005025EB24E050200CEC601C0D39
:20043F00BD00010E8B82C007C006C005C004120331D004D005D006D00780C58D828E838F1E
:20045F00F01246E1FBA3AD82AE838B82C007C006C005C004120393D004D005D006D00780B5
:20047F009F22C286903A981202BF75801C00C284900FA01202BFD28400C2849000A01202D6
:20049F00BFD28400C2849000A01202BF75801400C2849003E81202BFD28400C284007580B1
:2004BF001100C2849000281202BF75801000C2840075801300C2849000281202BF75801012
:2004DF0000C2840075801600C2849000281202BF75801000C2840075801800C2849003E8C2
:2004FF000202BFAF82E52E24E8500122E530240540030205BE8F82120393852B82852C83F2
:20051F00852DF012041774F6252E40067D207E00801DAB2E7C0075190A8C1A8B828C831271
:20053F004733AB82AC8374302BFBFD3395E0FE8D82120331AD2E7E0075190A8E1A8D828ECE
:20055F00831246FDAD8274302DF582120331E530240350123000067D3A7E0080047D207E3F
:20057F00008D82120331AD2F7E0075190A8E1A8D828E83C006C005124733AB8274302BF545
:20059F0082120331D005D00675190A751A008D828E831246FDAD8274302DF5820203318FF1
:2005BF0082120393852B82852C83852DF012041774F6252E40067E207F00801DAC2E7D00A9
:2005DF0075190A8D1A8C828D83124733AC82AD8374302CFCFE3395E0FF8E82120331AE2E12
:2005FF007F0075190A8F1A8E828F831246FDAE8274302EF5821203313000067E3A7F0080F9
:20061F00047E207F008E82120331AE2F7F0075190A8F1A8E828F83C007C006124733AC823E
:20063F0074302CF582120331D006D00775190A751A008E828F831246FDAE8274302EF5824A
:20065F001203313000067E3A7F0080047E207F008E82120331AE307F0075190A8F1A8E8223
:20067F008F83C007C006124733AC8274302CF582120331D006D00775190A751A008E828F02
:20069F00831246FDAE8274302EF582120331758220020331120393AE337F0075190A8F1A0E
:2006BF008E828F83C007C006124733AC8274302CF582120331D006D00775190A751A008EC3
:2006DF00828F831246FDAE8274302EF582120331AE327F0075190A8F1A8E828F83C007C00A
:2006FF0006124733AC8274302CF582120331D006D00775190A751A008E828F831246FDAE95
:20071F008274302EF582120331AE317F0075190A8F1A8E828F83C007C006124733AC82742D
:20073F00302CF582120331D006D00775190A751A008E828F831246FDAE8274302EF58212AB
:08075F00033175822002033111
:11476F00202020202020202020202020202020200039
:040000000200413287
:01000B0032C2
:0100130032BA
:01001B0032B2
:03002300021DB407
:01002B0032A2
:01003300329A
:03003B0002084B6D
:07009A00D206C22902003E5C
:03003E00023F1F5F
:2007670075FA0075EA0090026874A8F07461A3F090026A7419F0E4A3F075DA4975DB49D243
:20078700DE2243C110B21690026DE0FFE06009301A06EF1490026DF090026EE0FFE06009E5
:2007A700301E06EF1490026EF090026FE0FFE06009302206EF1490026FF090026FE0700223
:2007C700D224900274E0FFE06006EF14900274F0900276E0FFE06006EF14900276F090023E
:2007E70070E0600E900271E0FFE06006EF14900271F020A0139000ADE014F0E0700AD2A056
:200807009000AD740AF0D2050539E53924C45033D215753900E5356006D5360375350005B6
:200827003AE53A24C4501C753A00053BE53B24E85011753B0090026CE0FFE06006EF149022
:20084700026CF022C026C0E0C0F0C082C083C007C006C005C004C003C002C001C000C0D0AA
:2008670075D00843C11010D803020988900268E0FEA3E0FF8EEA8FFA90026874A82EF0748F
:20088700613FA3F030170930B50690026D7402F030170330B5047F0080027F01EF24FF9226
:2008A7001A20190330B5047F0080027F01EF24FF921720180A201A032017047F0080027F7C
:2008C70001EF24FF9218A2B59219301B0930B30690026E7406F0301B0330B3047F00800275
:2008E7007F01EF24FF921E201D0330B3047F0080027F01EF24FF921B201C0A201E03201B86
:20090700047F0080027F01EF24FF921CA2B3921D301F0930B40690026F7402F0301F03305C
:20092700B4047F0080027F01EF24FF922220210330B4047F0080027F01EF24FF921F202001
:200947000A202203201F047F0080027F01EF24FF9220A2B49221900288E014F0E0700AD286
:2009670029900288740AF0B223900289E014F0E0700F9002897428F075D00012078975D0B9
:200987000810D903020ADA90026AE0FEA3E0FF8EEB8FFB90026A743B2EF074013FA3F030D7
:2009A7001203020ADA90024AE0FF04F0EF701B20130C75826275D00012023A75D008D213AF
:2009C700C2A1A2A192A3A20692A230B669900266E0705430112D900267E0FF24FD5024BFD4
:2009E7000600501F90024BE0FF04F0EF244CF582E43402F583E4F075823075D00012023AD5
:200A070075D008900267E0FF24C3501B20130C75824275D00012023A75D008D213C2A1A216
:200A2700A192A3A20692A2900266E02401F0900267E4F0020ACA900267E06003020ABE3037
:200A47001130900266E0FF24FD5027BF0600502290024BE0FF04F0EF244CF582E43402F513
:200A6700837401F075823175D00012023A75D0088045900266E0FF24E3503CBF26005037E4
:200A870090024A7401F030111890024BE0FFBF1810D21275825075D00012023A75D0088087
:200AA70016301313D21190024BE4F075825375D00012023A75D008900267E02401F0900285
:200AC70066E4F090024BE0FF24E7500790024BE4F0C211D0D0D000D001D002D003D004D0A9
:200AE70005D006D007D083D082D0F0D0E0D0263285824485834585F046AC40900275ECF0DE
:200B0700853FF0ECA4FB900276740A2BF0C2258544828545838546F0C004120289D004740B
:200B2700022544F9E43545FAAB4674072544F547E43545F54885464974082544F54AE435F5
:200B470045F54B85464CA83F302503020C42900276E07003020C42302703020C4243C110FA
:200B6700758280C004C003C002C001C0001203938541828542838543F0120417752BFD75FC
:200B87002C49752D80853B2E853A2F853930A21692007582C0120502D000D001D002D0038D
:200BA700D0041024028002C322900274E06003302896C228880718EF7003020C429002743D
:200BC700ECF0900275ECF089828A838BF01246E1FFBF2B448547828548838549F01246E1C1
:200BE700FFBF3F028032854A82854B83854CF01246E1FFBF3F028020904A0575F080C00478
:200C0700C003C002C001C000120289D000D001D002D003D004020B4F854482854583854651
:200C2700F0C004C003C002C001C000120289D000D001D002D003D004020B4F758280120354
:200C4700F8900277E4F0A2252290000CE0602090000FE0701A75410B75424A754380753F1C
:200C670003754001904A0975F080120AF7C32290000BE4F0904A1C75F0801202899000017C
:200C870075F0001202899002777409F075412975424A754380753F0575403D904A2675F0AD
:200CA70080020AF7C20E900277740DF0900272E0FFBF50028027BF6602803CBF6E028051E2
:200CC700BF746675414B75424A754380753F0375401E904A3775F080120AF7804C75414BDA
:200CE70075424A754380753F0375401E904A5D75F080120AF7803275414B75424A7543800F
:200D0700753F0375401E904A7175F080120AF7801875414B75424A754380753F0375401EA3
:200D2700904A3775F080120AF7D32290000CE4F0C20E9002777407F075418375424A754308
:200D470080753F0375401E904A3775F080120AF7900277E4F090000CE024FF227F0A904A78
:200D67009475F080C007120289D007BFA100400122EF240CF582E43400F583E0FE24AB50D2
:200D87000E8E05ED24DBF58212023A7FA18045EE24B550198E05ED24E5F582C00712023AD0
:200DA700904A9475F080120289D0078027EE24BF50198E05ED24EFF582C00712023A904A8B
:200DC7009675F080120289D00780098E82C00712023AD0078F060FEE240CF582E43400F552
:200DE70083E4F0020D72AD82AE83AFF0904A9875F080C007C006C005120289D005D006D054
:200E0700078D828E838FF0C007C006C005120289904AA375F080120289854D8212023AD0C5
:200E270005D006D0078D828E838FF0120289854D8212023A7541AB75424A754380753F0FBE
:200E4700754001904A2675F080120AF7D322E582FF7003020F33904ABE75F080C007120273
:200E670089D007BF0A00500D8F0674302EF58212023A020F1BBF6400503B8F057E0075193F
:200E87000A8E1A8D828E83C006C005124733AB8274302BF58212023AD005D00675190A75E9
:200EA7001A008D828E831246FDAD8274302DF58212023A805F7E007519648E1A8F828E83BE
:200EC700C007C006124733AC8274302CF58212023AD006D00775190A751A008F828E83C079
:200EE70007C00612473375190A751A001246FDAC8274302CF58212023AD006D00775190A0E
:200F0700751A008F828E831246FDAE8274302EF58212023A7541C775424A754380753F0192
:200F270075401F904A9475F080020AF77F01BF0A005036904ABE75F080C007120289D007F9
:200F47008F0674302EF582C00712023A7541C775424A754380753F0F754001904A9475F095
:200F670080120AF7D0070F80C5BF64005065904ABE75F080C007120289D0078F057E007595
:200F8700190A8E1A8D828E83C007C006C005124733AB8274302BF58212023AD005D00675A0
:200FA700190A751A008D828E831246FDAD8274302DF58212023A7541D875424A7543807502
:200FC7003F0F754001904A9475F080120AF7D0070F8096BFFB00400122904ABE75F080C04A
:200FE70007120289D0078F057E007519648E1A8D828E83C007C006C005124733AB827430F4
:201007002BF58212023AD005D00675190A751A008D828E83C006C00512473375190A751AA9
:20102700001246FDAB8274302BF58212023AD005D00675190A751A008D828E831246FDAD9F
:201047008274302DF58212023A7541E975424A754380753F0F754001904A9475F080120AB1
:20106700F7D0070F020FDA754180754247754380753F0F754001904AFA75F080120AF7757B
:2010870034009000AB740BF09000ABE024F540012274052534500122120D329000ABE4F02F
:2010A70075370AE5347003021169904AFE75F0801202890534749C25344036AE347F007523
:2010C700190A8F1A8E828F83124733AE8274302EF58212023AAE347F0075190A8F1A8E8216
:2010E7008F831246FDAE8274302EF58212023A8057AE347F007519648F1A8E828F8312476D
:2011070033AE8274302EF58212023AAE347F0075190A8F1A8E828F8312473375190A751A57
:20112700001246FDAE8274302EF58212023AAE347F0075190A8F1A8E828F831246FDAE8243
:2011470074302EF58212023A75410D75424B754380753F0175401F904B0775F080120AF791
:20116700801875410D75424B754380753F0175401F904B1E75F080120AF7120C5040012288
:20118700120D6375412D75424B754380753F32754001904A0975F080120AF702108F90F011
:2011A70007E493703690F00CE493FF2405502C90000CE4F0120C50400122904B3E75F0801E
:2011C70012028975412D75424B754380753F32754001904A0975F080020AF790F007E493E9
:2011E700FF1FE4937D0025E0FEED33FDEE2EFEED33FDEE2408F582ED34F0F583E493FEBE32
:20120700FF00500A90F007E493FD7E0080047D007E007E0074632DF582E43EF583751964F1
:201227008E1AC0071246FDAD82D007EDF55260067C0A7E00802390F007E493FB7A0075199B
:201247000A8A1A8B828A83C007124733AA82AB83D0070AEAFC3395E0FE8C5175412D75422E
:201267004B754380753F32754001904A0975F080C007120AF7D007740AB551047401800151
:20128700E4FE754E00EFB552012274F6254E5001228F507900EFB55203021443B90A00408C
:2012A700030214438900E875F00BA404F888388837900277740FF0904AFE75F080C007C00B
:2012C70006C001120289D001D006D0078F007A00E828F8EA33FAE828F8EA33FAE82408F5D5
:2012E70082EA34F0F583E493FABA0A0050198A00743028F582C007C006C00112023AD00107
:20130700D006D0070213D1BA6400504B8A007C0075190A8C1A88828C83C007C006C004C00C
:2013270001C000124733AB8274302BF58212023AD000D001D00475190A751A0088828C83E3
:20134700C0011246FDAC8274302CF58212023AD001D006D00780737D007519648D1A8A821A
:201367008D83C007C006C005C002C001124733AB8274302BF58212023AD001D002D0057547
:20138700190A751A008A828D83C005C002C00112473375190A751A001246FDAB8274302B2C
:2013A700F58212023AD001D002D00575190A751A008A828D83C0011246FDAC8274302CF59D
:2013C7008212023AD001D006D00775410D75424B754380753F0175401F904A9475F080C01F
:2013E70007C006C001120AF7D0018919751A0090000BC00112464EE5828583F0D001D0063B
:20140700D007240BFCE435F0FDEC240CF582ED3400F583E4F08F047D0074632CF582E43D12
:20142700F5837519648D1AC006C0011246FDAC82AD83D001D0068C070902129CAF509000D8
:201447000CE4F0C007C006120C50D006D007400122754F00EFB5520302194B74F6254F5049
:201467000302194BE54E75F00AA4254F04FCBC0A0050158C0374302BF582C007C0061202A1
:201487003AD006D00702153EBC640050438C027B0075190A8B1A8A828B83C007C006C003A6
:2014A700C002124733A882743028F58212023AD002D00375190A751A008A828B831246FDE1
:2014C700AA8274302AF58212023AD006D00780677B007519648B1A8C828B83C007C006C037
:2014E70004C003124733A982743029F58212023AD003D00475190A751A008C828B83C00427
:20150700C00312473375190A751A001246FDA982743029F58212023AD003D00475190A7588
:201527001A008C828B831246FDAB8274302BF58212023AD006D00775822EC007C0061202E5
:201547003A854F19751A0090000B12464EAB82AC83D006D007EB240CFBEC3400FC0BBB008C
:20156700010C7A008B828C838AF0C007C006120289D006D0078F037C00EB2BFBEC33FCEB4B
:201587002BFBEC33FC0BBB00010CEB2408F582EC34F0F583E493FC23235403FC24FC405856
:2015A700EC2C9015AD738006801780288039904B5275F080C007C006120289D006D0078060
:2015C70037904B5675F080C007C006120289D006D0078024904B5A75F080C007C006120281
:2015E70089D006D0078011904B5E75F080C007C006120289D006D007C0068F53755400E5D2
:20160700532553F555E55433F556E5552555F555E55633F55674022555F8E43556FDE824E0
:2016270008F582ED34F0F583E493C423541FFC7E0075190A8E1A8C828E83C005C000124713
:2016470033AC82AE83D000D00574302CF582C006C005C00012023AD000D005D006E82408DD
:20166700F582ED34F0F583E493C423541FFE7C0075190A8C1A8E828C83C005C0001246FDE1
:20168700AC82AE83D000D00574302CF582C006C005C00012023A75822F12023AD000D00546
:2016A700D00674012555FCE43556FEEC2408F582EE34F0F583E493FA7B00740F5AF5827527
:2016C700830075190A8B1AC006C005C004C000124733AA8274302AF58212023AD000D00445
:2016E700D005D006EC2408F582EE34F0F583E493FB7A00740F5BF58275830075190A8A1AAA
:20170700C006C005C004C0001246FDAA8274302AF58212023A75822F12023AD000D004D0B7
:2017270005D006EC2408F582EE34F0F583E493FB530330E4CBC4540F6BCB540FCB6BCB3016
:20174700E30244F0FA74142BF582E43AF58375190A751A00C006C005C004C000124733AA43
:201767008274302AF58212023AD000D004D005D006EC2408F582EE34F0F583E493FE530617
:2017870030E4CEC4540F6ECE540FCE6ECE30E30244F0FC74142EF582E43CF58375190A7579
:2017A7001A00C005C0001246FDAC82AE83D000D00574302CF582C006C005C00012023A75D5
:2017C700822C12023AD000D005D006E82408F582ED34F0F583E493FE5306077C00EE2EF515
:2017E70057EC33F558E5572557F557E55833F55874032555FAE43556FBEA2408F582EB345D
:20180700F0F583E493232354037E002557F582EE3558F58375190A8E1AC005C003C002C097
:2018270000124733AC82AE83D000D002D003D00574302CF582C006C005C003C002C0001243
:20184700023AD000D002D003D005D006E82408F582ED34F0F583E493FE5306077D00EE2EA3
:20186700FEED33FDEE2EFEED33FDEA2408F582EB34F0F583E493232354037C002EF582ECDA
:201887003DF58375190A8C1AC003C0021246FDAD82AE83D002D00374302DF582C006C0039E
:2018A700C00212023A75823A12023AD002D003D006EA2408F582EB34F0F583E493FE7D0011
:2018C700743F5EF58275830075190A8D1AC003C002124733AD82AE83D002D00374302DF566
:2018E70082C006C003C00212023AD002D003D006EA2408F582EB34F0F583E493FE7D0074D1
:201907003F5EF58275830075190A8D1A1246FDAD82AE8374302DF582C00612023A75820D60
:2019270012023AD00674632553F582E43554F583751964751A001246FDAD828D07054FD014
:201947000602145B904B6275F080C007C006120289D006D0077409B54E13904B6975F08054
:20196700C007C006120289D006D0078012AB4E74312BF582C007C00612023AD006D00775BA
:20198700822FC007C00612023AD006D007EE6013904B6975F080C007C006120289D006D0AD
:2019A700078012AC5174302CF582C007C00612023AD006D00775412D75424B754380753FEA
:2019C70032754001904A0975F080C007C006120AF7D006D007054E02128C85825985835A4E
:2019E70085F05B90F004E493701875416C75424B754380753F03754001904A0975F08002FA
:201A07000AF7754180754247754380753F0F754001904AFA75F080120AF774012559FAE43C
:201A2700355AFBAC5B8A828B838CF01246E1F9B92A028011C004C003C002120D32D002D094
:201A470003D004800590000CE4F0C004C003C002120C50D002D003D004400122904B7C7554
:201A6700F080C004C003C002120289D002D003D00430A3067884794B80047887794B7F80B1
:201A8700888289838FF0C004C003C002120289D002D003D0048A828B838CF01246E1FABAC8
:201AA7002A02803890000CE06032904B8B75F08012028990000C75F000120289900010E027
:201AC7007009904B9675F080120289900010E4F090000FF090000EF090000DF08559828590
:201AE7005A83855BF012028974012559FDE4355AFEAF5B8D828E838FF01246E1FDBD2A0965
:201B0700904A0975F08002028975412D75424B754380753F32754001904A0975F080020ADC
:201B2700F7AF82753700BFA100500FEF240CF582E43400F5830FE4F080EC2290000CE4F004
:201B4700120C5040012290478F75F0801202897541B075424B754380753F32754001904AAF
:201B67000975F080020AF7754180754247754380753F0F754001904AFA75F080120AF7506C
:201B870034758200121B28753700900277740AF07541CB75424B754380753F0F75400190D7
:201BA7004BC175F080120AF75009900010E0FF900272F0D322C3227541E175424B754380A3
:201BC700753F0F754001904BD675F080120AF74001227541FA75424B754380753F0F754017
:201BE70001904BEF75F080120AF7400122900277740CF075411675424C754380753F0A7505
:201C0700403C904C0B75F080120AF7400122758200121B287537009002777402F0754131B1
:201C270075424C754380753F0F754001904C2775F080120AF740012290000FE024D075F0B3
:201C47000AA4FF900010E02F24D0F53E900012E024D075F00AA4FF900013E02F24D0F53D9A
:201C6700900015E024D075F00AA4FF900016E02F24D0F53C900018E024D075F00AA4FF90DA
:201C87000019E02F24D0F53B90001BE024D075F00AA4FF90001CE02F24D0F53A90001EE0F4
:201CA70024D075F00AA4FF90001FE02F24D0F5392275414A75424C754380753F0F75400161
:201CC700904C3F75F080120AF7502B758200121B28753700900277740BF075416675424CE0
:201CE700754380753F0F754001904C5B75F080120AF75002D322C32275418175424C7543DF
:201D070080753F0F754001904C7675F080120AF74003021DB27541A575424C754380753F1B
:201D27000F754001904C9275F080120AF74003021DB27541CA75424C754380753F0F75402A
:201D470001904CB675F080120AF7505F900277740EF0758200121B287537007541E375427F
:201D67004C754380753F0F754001904CDB75F080120AF75034900273E4F07F00EF240CF5C0
:201D870082E43400F583E0FEBE2C02801CEF240CF582E43400F5830FE024D0FE900273E0D8
:201DA700FD75F00AA42EF080D3D322C322C026C0E0C0F0C082C083C007C006C005C004C030
:201DC70003C002C001C000C0D075D0102098030237F443C110900275E0900274F0900278EE
:201DE700E02479F582E43402F583E599F0900278E0FF2479F582E43402F583E0FEBE4E026D
:201E07008003021F3A8F147D00740C2CF582E43DF58375190D8D1AC017C016C015C01475F4
:201E2700D0001246FD75D010AA82AB83D014D015D016D017EA2479F582EB3402F583E0FBBF
:201E4700BB49028003021F3A740B2CF582E43DF58375190D751A00C017C016C015C01475E7
:201E6700D0001246FD75D010AA82AB83D014D015D016D017EA2479F582EB3402F583E0FB7F
:201E8700BB20028003021F3A740A2CF582E43DF58375190D751A00C017C016C015C01475D1
:201EA700D0001246FD75D010AA82AB83D014D015D016D017EA2479F582EB3402F583E0FB3F
:201EC700BB547074092CF582E43DF58375190D751A00C017C016C015C01475D0001246FDA9
:201EE70075D010AA82AB83D014D015D016D017EA2479F582EB3402F583E0FBBB4F35740869
:201F07002CF582E43DF58375190D751A00C017C01675D0001246FD75D010AC82AD83D01674
:201F2700D017EC2479F582ED3402F583E0FDBD4E02D227900277E0FD24F050030237E0EDE2
:201F4700240A83F582ED241483F583E4732CE065CCE008E0EAB960C256D245747222372144
:201F67002A372D372E362E20211F341F37AC370537EC240CF582E43400F583E599F07420D5
:201F8700B59934900278E0FC7B00740C2CF582E43BF58375190D8B1A75D0001246FD75D07E
:201FA70010AB82AC83EB2479F582EC3402F583E0FCBC3A03753700742CB5990280030237E8
:201FC700E0900277E4F0F5370237E07454B5996E8F137C00740C2BF582E43CF58375190D01
:201FE7008C1AC017C014C01375D0001246FD75D010A982AA83D013D014D017E92479F582C4
:20200700EA3402F583E0FABA5334740B2BF582E43CF58375190D751A00C01775D0001246AF
:20202700FD75D010AB82AC83D017EB2479F582EC3402F583E0FCBC4405D2250237E07452B4
:20204700B5990280030237E08F137C00740C2BF582E43CF58375190D8C1AC014C01375D088
:20206700001246FD75D010A982AA83D013D014E92479F582EA3402F583E0FABA4F02800393
:202087000237E0740B2BF582E43CF58375190D751A0075D0001246FD75D010AB82AC83EB07
:2020A7002479F582EC3402F583E0FCBC520280030237E0900274E4F00237E0AC370537ECE5
:2020C700240CF582E43400F583E599F07422B59934900278E0FC7B00740C2CF582E43BF5A4
:2020E7008375190D8B1A75D0001246FD75D010AB82AC83EB2479F582EC3402F583E0FCBC9A
:202107002003753700742CB5990280030237E0900278E0FC7B00740C2CF582E43BF58375CD
:20212700190D8B1A75D0001246FD75D010AB82AC83EB2479F582EC3402F583E0FCBC22022D
:2021470080030237E0900277E4F0F5370237E07431B5990280030237E0D2250237E0AC3736
:202167000537EC240CF582E43400F583E599F0744BB59967900278E0FB7C00740C2BF58294
:20218700E43CF58375190D8C1AC014C01375D0001246FD75D010A982AA83D013D014E9249D
:2021A70079F582EA3402F583E0FABA4C2E740B2BF582E43CF58375190D751A0075D0001248
:2021C70046FD75D010AB82AC83EB2479F582EC3402F583E0FCBC4303753700740DB5990210
:2021E70080030237E0900278E0FC7B00740C2CF582E43BF58375190D8B1A75D0001246FD47
:2022070075D010AB82AC83EB2479F582EC3402F583E0FCBC220280030237E0900277E4F038
:20222700F5370237E0743EB59912904A0975F08075D00012028975D0100237E0BE470280A1
:202247000302231A8F137C00740C2BF582E43CF58375190D8C1AC017C016C015C014C013F3
:2022670075D0001246FD75D010A982AA83D013D014D015D016D017E92479F582EA3402F585
:2022870083E0FABA4E02800302231A740B2BF582E43CF58375190D751A00C017C016C015A9
:2022A700C014C01375D0001246FD75D010A982AA83D013D014D015D016D017E92479F582B3
:2022C700EA3402F583E0FABA4949740A2BF582E43CF58375190D751A00C017C016C0157560
:2022E700D0001246FD75D010AB82AC83D015D016D017EB2479F582EC3402F583E0FCBC52CC
:2023070012904CEA75F08075D00012028975D0100237E0E4BE3A0104FC70030224E58F12AD
:202327007B00740C2AF582E43BF58375190D8B1AC017C016C015C014C013C01275D00012D1
:2023470046FD75D010A882A983D012D013D014D015D016D017E82479F582E93402F583E0BA
:20236700F9B952028048740C2AF582E43BF58375190D751A00C017C016C015C014C013C0BD
:202387001275D0001246FD75D010A882A983D012D013D014D015D016D017E82479F582E99F
:2023A7003402F583E0F9B9460280030224E5740B2AF582E43BF58375190D751A00C017C088
:2023C70016C015C014C013C01275D0001246FD75D010A882A983D012D013D014D015D016D9
:2023E700D017E82479F582E93402F583E0F9B9420280030224E5740A2AF582E43BF58375CD
:20240700190D751A00C017C016C015C014C013C01275D0001246FD75D010A882A983D012DE
:20242700D013D014D015D016D017E82479F582E93402F583E0F9B9500280030224E574099A
:202447002AF582E43BF58375190D751A00C017C016C015C014C013C01275D0001246FD7509
:20246700D010A882A983D012D013D014D015D016D017E82479F582E93402F583E0F9B9435C
:202487005D74082AF582E43BF58375190D751A00C017C016C015C01475D0001246FD75D0C5
:2024A70010AA82AB83D014D015D016D017EA2479F582EB3402F583E0FBBB2B229000ABE080
:2024C700FB24F650099000AB740BF00237E0D2029002777408F0C2107534000237E0EC708B
:2024E700030226358F137C00740C2BF582E43CF58375190D8C1AC017C016C015C014C01333
:2025070075D0001246FD75D010A982AA83D013D014D015D016D017E92479F582EA3402F5E2
:2025270083E0FABA49028003022635740B2BF582E43CF58375190D751A00C017C016C015ED
:20254700C014C01375D0001246FD75D010A982AA83D013D014D015D016D017E92479F58210
:20256700EA3402F583E0FABA54028003022635740A2BF582E43CF58375190D751A00C01739
:20258700C016C015C014C01375D0001246FD75D010A982AA83D013D014D015D016D017E939
:2025A7002479F582EA3402F583E0FABA4D02800302263574092BF582E43CF58375190D75DE
:2025C7001A00C017C016C015C014C01375D0001246FD75D010A982AA83D013D014D015D0EE
:2025E70016D017E92479F582EA3402F583E0FABA433C74082BF582E43CF58375190D751A4F
:2026070000C017C016C01575D0001246FD75D010AB82AC83D015D016D017EB2479F582EC49
:202627003402F583E0FCBC2B05D20D0237E0E4BE200104FC70030227E48F127B00740C2A1C
:20264700F582E43BF58375190D8B1AC017C016C015C014C013C01275D0001246FD75D0103B
:20266700A882A983D012D013D014D015D016D017E82479F582E93402F583E0F9B93A0280C1
:20268700030227E4740B2AF582E43BF58375190D751A00C017C016C015C014C013C01275D2
:2026A700D0001246FD75D010A882A983D012D013D014D015D016D017E82479F582E93402CD
:2026C700F583E0F9B94C0280030227E4740A2AF582E43BF58375190D751A00C017C016C0BE
:2026E70015C014C013C01275D0001246FD75D010A882A983D012D013D014D015D016D017A5
:20270700E82479F582E93402F583E0F9B9470280030227E474092AF582E43BF58375190D64
:20272700751A00C017C016C015C014C013C01275D0001246FD75D010A882A983D012D013FE
:20274700D014D015D016D017E82479F582E93402F583E0F9B94D0280030227E474082AF53D
:2027670082E43BF58375190D751A00C017C016C015C014C013C01275D0001246FD75D01025
:20278700A882A983D012D013D014D015D016D017E82479F582E93402F583E0F9B9433E7467
:2027A700072AF582E43BF58375190D751A00C017C016C015C01475D0001246FD75D010AABA
:2027C70082AB83D014D015D016D017EA2479F582EB3402F583E0FBBB2B03022978EC70034F
:2027E7000229C38F137C00740C2BF582E43CF58375190D8C1AC017C016C015C014C013752D
:20280700D0001246FD75D010A982AA83D013D014D015D016D017E92479F582EA3402F583D1
:20282700E0FABA3A0280030229C3740B2BF582E43CF58375190D751A00C017C016C015C02B
:2028470014C01375D0001246FD75D010A982AA83D013D014D015D016D017E92479F582EAE3
:202867003402F583E0FABA500280030229C3740A2BF582E43CF58375190D751A00C017C0D3
:2028870016C015C014C01375D0001246FD75D010A982AA83D013D014D015D016D017E924D2
:2028A70079F582EA3402F583E0FABA490280030229C374092BF582E43CF58375190D751A58
:2028C70000C017C016C015C014C01375D0001246FD75D010A982AA83D013D014D015D016EF
:2028E700D017E92479F582EA3402F583E0FABA4C0280030229C374082BF582E43CF58375D7
:20290700190D751A00C017C016C015C014C01375D0001246FD75D010A982AA83D013D014C4
:20292700D015D016D017E92479F582EA3402F583E0FABA430280030229C374072BF582E4FE
:202947003CF58375190D751A00C017C016C01575D0001246FD75D010AB82AC83D015D016FA
:20296700D017EB2479F582EC3402F583E0FCBC2B4B8F137C0074092BF582E43CF58375195F
:202987000D8C1A75D0001246FD75D010AB82AC83EB2479F582EC3402F583E0FCBC4C03D3DF
:2029A7008001C392074006300C030237E0C20AC208C2099002777403F00237E0BE4B028020
:2029C70003022A548F137C00740C2BF582E43CF58375190D8C1AC017C016C01575D000127B
:2029E70046FD75D010AB82AC83D015D016D017EB2479F582EC3402F583E0FCBC4F4FBD029C
:202A070003753700A226B39225C226300223AC377D001CBCFF011DEC240CFCED3400FD8C7A
:202A2700828D83E0240AFB8C828D83F0C210753700E53770030237E0753700904CB675F01D
:202A47008075D00012028975D0100237E0BE540280030237E08F147D00740C2CF582E43D8B
:202A6700F58375190D8D1AC015C01475D0001246FD75D010AA82AB83D014D015EA2479F55E
:202A870082EB3402F583E0FBBB4F0280030237E0740B2CF582E43DF58375190D751A007537
:202AA700D0001246FD75D010AC82AD83EC2479F582ED3402F583E0FDBD4E0280030237E016
:202AC700D2260237E0200A03022C16E5377068740DB5990280030237E030073D8F147D0078
:202AE70074092CF582E43DF58375190D8D1A75D0001246FD75D010AC82AD83EC2479F58287
:202B0700ED3402F583E0FDBD2203D38001C39208BD6D03D38001C39209D20130080890021F
:202B270077E4F00237E030070575360205359002777405F00237E0740DB537028003022B5D
:202B4700EFBE2203022BEF8F147D00740C2CF582E43DF58375190D8D1AC015C01475D00074
:202B67001246FD75D010AA82AB83D014D015EA2479F582EB3402F583E0FBBB226B740B2C1C
:202B8700F582E43DF58375190D751A00C015C01475D0001246FD75D010AA82AB83D014D04E
:202BA70015EA2479F582EB3402F583E0FBBB2C38740A2CF582E43DF58375190D751A00750F
:202BC700D0001246FD75D010AC82AD83EC2479F582ED3402F583E0FDBD220D746DB5990281
:202BE700D2097537000237E074F62537400EE5372401F582E43400F583E599F0E53724F331
:202C07005008753700D2080237E005370237E030073CBE30398F147D00740C2CF582E43D63
:202C2700F58375190D8D1AC017C01675D0001246FD75D010AC82AD83D016D017EC2479F58E
:202C470082ED3402F583E0FDBD2203022CF1BE34028003022CF68F147D00740C2CF582E4B0
:202C67003DF58375190D8D1AC015C01475D0001246FD75D010AA82AB83D014D015EA247914
:202C8700F582EB3402F583E0FBBB3863740B2CF582E43DF58375190D751A00C015C01475E9
:202CA700D0001246FD75D010AA82AB83D014D015EA2479F582EB3402F583E0FBBB2B307474
:202CC7000A2CF582E43DF58375190D751A0075D0001246FD75D010AC82AD83EC2479F58230
:202CE700ED3402F583E0FDBD2205D20A753701740DB5990280030237E0900277E4F0023765
:202D0700E0300B43743BB599028021740DB59902801A746025374014AD370537ED240CF58D
:202D270082E43400F583E599F00237E0E537240CF582E43400F583E4F0F537C20B900277CA
:202D4700E4F0D20C0237E0BE2C028003022E408F147D00740C2CF582E43DF58375190D8DBE
:202D67001AC015C01475D0001246FD75D010AA82AB83D014D015EA2479F582EB3402F583E0
:202D8700E0FB90F003E493FAEBB512028003022E40740B2CF582E43DF58375190D751A00D1
:202DA700C015C01475D0001246FD75D010AA82AB83D014D015EA2479F582EB3402F583E0DA
:202DC700FB90F002E493FAEBB5126E740A2CF582E43DF58375190D751A00C015C01475D00C
:202DE700001246FD75D010AA82AB83D014D015EA2479F582EB3402F583E0FB90F001E49395
:202E0700FAEBB5123474092CF582E43DF58375190D751A0075D0001246FD75D010AC82AD1E
:202E270083EC2479F582ED3402F583E0FD90F000E493FCEDB5140280047D0080027D01EDF7
:202E470024FF920B740DB5990280030237E0753701900277E4F00237E0743EB5990A9002FF
:202E670077E4F0D2250237E0BE520280030237E08F147D00740C2CF582E43DF58375190DCB
:202E87008D1AC015C01475D0001246FD75D010AA82AB83D014D015EA2479F582EB3402F5B5
:202EA70083E0FBBB520280030237E0740B2CF582E43DF58375190D751A0075D0001246FD83
:202EC70075D010AC82AD83EC2479F582ED3402F583E0FDBD450280030237E0900274E4F046
:202EE7000237E0300E5B900272E0FDBD50028003BD66057420B5990FBD74028003BD6E2983
:202F07007464B59902802274602537401C742EB599030237E0AD370537ED240CF582E4347C
:202F270000F583E599F00237E0C20EC210E537240CF582E43400F583E4F0F537D225023766
:202F4700E0900272E0FDBD500280030230A5BE3D0280030230A58F137C00740C2BF582E4C5
:202F67003CF58375190D8C1AC017C016C015C014C01375D0001246FD75D010A982AA83D015
:202F870013D014D015D016D017E92479F582EA3402F583E0FABA680280030230A5740B2BEA
:202FA700F582E43CF58375190D751A00C017C016C015C014C01375D0001246FD75D010A910
:202FC70082AA83D013D014D015D016D017E92479F582EA3402F583E0FABA6E028003023074
:202FE700A5740A2BF582E43CF58375190D751A00C017C016C015C014C01375D0001246FD80
:2030070075D010A982AA83D013D014D015D016D017E92479F582EA3402F583E0FABA6902EF
:2030270080030230A574092BF582E43CF58375190D751A00C017C016C015C014C01375D0E0
:20304700001246FD75D010A982AA83D013D014D015D016D017E92479F582EA3402F583E079
:20306700FABA683A74082BF582E43CF58375190D751A00C017C016C01575D0001246FD7582
:20308700D010AB82AC83D015D016D017EB2479F582EC3402F583E0FCBC6303023440BD74FD
:2030A7000280030231FDBE200280030231FD8F137C00740C2BF582E43CF58375190D8C1AA8
:2030C700C017C016C015C014C01375D0001246FD75D010A982AA83D013D014D015D016D017
:2030E70017E92479F582EA3402F583E0FABA3A0280030231FD740B2BF582E43CF583751953
:203107000D751A00C017C016C015C014C01375D0001246FD75D010A982AA83D013D014D005
:2031270015D016D017E92479F582EA3402F583E0FABA470280030231FD740A2BF582E43C41
:20314700F58375190D751A00C017C016C015C014C01375D0001246FD75D010A982AA83D086
:2031670013D014D015D016D017E92479F582EA3402F583E0FABA4B0280030231FD74092BCE
:20318700F582E43CF58375190D751A00C017C016C015C014C01375D0001246FD75D010A92E
:2031A70082AA83D013D014D015D016D017E92479F582EA3402F583E0FABA543A74082BF58D
:2031C70082E43CF58375190D751A00C017C016C01575D0001246FD75D010AB82AC83D015F2
:2031E700D016D017EB2479F582EC3402F583E0FCBC2003023440BD66028003023355BE3A07
:203207000280030233558F137C00740C2BF582E43CF58375190D8C1AC017C016C015C01429
:20322700C01375D0001246FD75D010A982AA83D013D014D015D016D017E92479F582EA34D9
:2032470002F583E0FABA43028003023355740B2BF582E43CF58375190D751A00C017C01677
:20326700C015C014C01375D0001246FD75D010A982AA83D013D014D015D016D017E9247985
:20328700F582EA3402F583E0FABA4B028003023355740A2BF582E43CF58375190D751A0048
:2032A700C017C016C015C014C01375D0001246FD75D010A982AA83D013D014D015D016D035
:2032C70017E92479F582EA3402F583E0FABA5402800302335574092BF582E43CF5837519FF
:2032E7000D751A00C017C016C015C014C01375D0001246FD75D010A982AA83D013D014D024
:2033070015D016D017E92479F582EA3402F583E0FABA203A74082BF582E43CF58375190DF0
:20332700751A00C017C016C01575D0001246FD75D010AB82AC83D015D016D017EB2479F5FB
:2033470082EC3402F583E0FCBC2E03023440BD6E0280030237E0BE200280030237E08F1423
:203367007D00740C2CF582E43DF58375190D8D1AC015C01475D0001246FD75D010AA82AB5C
:2033870083D014D015EA2479F582EB3402F583E0FBBB3A0280030237E0740B2CF582E43D92
:2033A700F58375190D751A00C015C01475D0001246FD75D010AA82AB83D014D015EA247922
:2033C700F582EB3402F583E0FBBB430280030237E0740A2CF582E43DF58375190D751A007B
:2033E700C015C01475D0001246FD75D010AA82AB83D014D015EA2479F582EB3402F583E094
:20340700FBBB4B0280030237E074092CF582E43DF58375190D751A0075D0001246FD75D044
:2034270010AC82AD83EC2479F582ED3402F583E0FDBD540280030237E0D20E0237E0200EC9
:20344700030234C7900272E0FDBD50028003BD6E05740AB59912BD66057422B5990ABD749D
:2034670032742EB59902802B74F62537402574F72537401AAD3705370DED3395E0FCED245B
:2034870001F582EC3400F583E599F00237E005370237E0C20EC21074F625374018D225ADD5
:2034A700370DED3395E0FCED2401F582EC3400F583E4F08005900274E4F07537000237E017
:2034C700900272E0FDBD5040BE3A3D8F137C00740C2BF582E43CF58375190D8C1AC017C0D2
:2034E70016C01575D0001246FD75D010AB82AC83D015D016D017EB2479F582EC3402F58344
:20350700E0FCBC290302358EBD6E3FBE303C8F137C00740C2BF582E43CF58375190D8C1A6E
:20352700C017C016C01575D0001246FD75D010AB82AC83D015D016D017EB2479F582EC34E6
:2035470002F583E0FCBC2002803DBD66028003BD743ABE34378F157E00740C2DF582E43ECF
:20356700F58375190D8E1AC01775D0001246FD75D010AD82AE83D017ED2479F582EE340257
:20358700F583E0FEBE3805D20E0237E07435B59902800302363F8F157E00740C2DF582E4BD
:2035A7003EF58375190D8E1AC017C016C01575D0001246FD75D010AB82AC83D015D016D0A3
:2035C70017EB2479F582EC3402F583E0FCBC3168740B2DF582E43EF58375190D751A00C05C
:2035E70017C016C01575D0001246FD75D010AB82AC83D015D016D017EB2479F582EC3402E4
:20360700F583E0FCBC2031740A2DF582E43EF58375190D751A00C01775D0001246FD75D0A6
:2036270010AD82AE83D017ED2479F582EE3402F583E0FEBE2C0280757452B5990280030235
:2036470037E08F157E00740C2DF582E43EF58375190D8E1AC016C01575D0001246FD75D09F
:2036670010AB82AC83D015D016EB2479F582EC3402F583E0FCBC520280030237E0740B2D3F
:20368700F582E43EF58375190D751A0075D0001246FD75D010AD82AE83ED2479F582EE3476
:2036A70002F583E0FEBE450280030237E0D2280237E07422B599028003023743D2107E00B2
:2036C700740C2FF582E43EF58375190D8E1A75D0001246FD75D010AE82AF83EE2479F5828D
:2036E700EF3402F583E0FFBF2C21AE377F001EBEFF011FEE240CFEEF3400FF8E828F83E09C
:203707002411FD8E828F83F00237E0AE377F001EBEFF011FEE240CFEEF3400FF8E828F8386
:20372700E0241BFD8E828F83F09000ABE0FF0F9000ABEFF0900277E4F00237E0E59924D0A9
:2037470040030237E020100FE53475F00AA4FFE599FE2F24D0F534AF370537EF240CF5821C
:20376700E43400F583E599F00237E0AF370537EF240CF582E43400F583E599F07422B59991
:2037870036900278E0FF7E00740C2FF582E43EF58375190D8E1A75D0001246FD75D010AEE5
:2037A70082AF83EE2479F582EF3402F583E0FFBF2C0585383780227422B5991DAE377F00E5
:2037C7001EBEFF011FEE240CF582EF3400F583E4F0F537900277F0D225900278E02401F0C8
:2037E700E0FF24F35005900278E4F0C298D0D0D000D001D002D003D004D005D006D007D033
:2038070083D082D0F0D0E0D02632AD82AE83AFF07C00754180754247754380753F0F7540D5
:2038270001904AFA75F080C007C006C005C004120AF7904CEF75F080120289D004D005D0D8
:2038470006D0073009067A6D7B0080047A757B008A82C007C006C005C00412023AD004D0E1
:2038670005D006D007740A2DF9E43EFA8F0389828A838BF0E41246338D828E838FF0C004D8
:20388700120289D0043009067E6D7F0080047E757F008E82C00412023A9000AB7409F075D2
:2038A70037007541F975424C754380753F0F754002904A2675F080120AF7D0047F00EF2408
:2038C7000CF582E43400F583E0FEBE3A00501B8C05ED75F00AA4FDEF240CF582E43400F55C
:2038E700830FE0FB2D24D0FC80D4EC75F00AA42E24BFFFC007120108D0079000B9E07D0075
:2039070025E0FEED33FDEE2EFEED33FD74082EFBE43DFCEB24B2F582EC3400F583EFF0E5F3
:203927005C255C25E0FFAB3E7C00EB24ECFBEC34FFFCC3EB9403EC64809480500BE53E245E
:20394700ECFB3395E0FC80047B037C00EB2FFF74092EFBE43DFCEB24B2F582EC3400F583AB
:20396700EFC454F0253DF0740A2EFCE43DFFEC24B2F582EF3400F583E53CC40354F8FFE543
:203987003B0303543F2FF0740B2EFEE43DFDEE24B2F582ED3400F583E53B5403030354C0FF
:2039A700253AF09000B9E0FFBF63079000B9E4F080060F9000B9EFF00201A0C20F7F00EFA4
:2039C700240CFDE43400FE0F8D828E83E0600543C11080EBBFA000500FEF240CF582E4343E
:2039E70000F5830FE4F080EC90000CE0FFBF3F02800890000DE0FEBE3F06200803021B42EE
:203A0700BF4203023E91BF4403023B80BF48028065BF4B03023ABEBF4C03023CD3BF5003E1
:203A2700023AFDBF5203023AEFBF53028054BF5503023E25BF5803023B8CBF6203023E91CB
:203A4700BF6403023B80BF6802802BBF6B028067BF6C03023CD3BF7003023AFDBF720302B5
:203A67003AEFBF7302801BBF7503023E25BF7803023B8C023EF2200903023EFB1211A50245
:203A87003EFB90F005E4936006200903023EFB90F005E493600B1201089000B7E4F012016D
:203AA700A0D2A29000641202D9C2A2904D0A75F0801219E1023EFB200903023EFB12010811
:203AC7009000B77401F01201A0D2A290000BE4F0755C0390000175F000123811904D19750D
:203AE700F0801219E1023EFB904D2875F0801219E1C2A0023EFB200903023EFB900010E08E
:203B0700FFBF30005003023B74EF24C6405F900011E0FFBF30004055EF24C6405090001225
:203B2700E0FFBF30004046EF24C64041900013E0FFBF30004037EF24C640321201089000F2
:203B470010E09000B2F0900011E09000B3F0900012E09000B4F0900013E09000B5F0120107
:203B6700A0904D3A75F0801219E1023EFB904D5175F0801219E1023EFB200903023EFB1288
:203B8700106E023EFB90000DE0FFBF6F028008BF4F028003023C9F200903023EFB900010BA
:203BA700E0FEBE30005003023C93EE24C65003023C93900011E0FDBD30004005ED24C6503B
:203BC70006ED6003023C93900012E0FCBC30004005EC24C65006EC6003023C93BE30097550
:203BE7008200120E55023C87ED700D8E03EB24D0F582120E55023C87EC70178E03EB24D094
:203C070075F00AA4FB8D02EA2B24D0F582120E55806E8D027B00EA24D0F519EB34FFF51AFA
:203C270090000AC006C005C00412464EAA82AB83D004D005D0068C007900E82AFAE93BFBE5
:203C4700EA24D0FAEB34FFFBC374329A74808BF063F08095F05011EE24FE500C904D517532
:203C6700F0801219E1023EFBEE24D075F064A4FEED24D075F00AA42E2C24D0F582120E550B
:203C8700904D6475F0801219E1023EFB904D5175F0801219E1023EFBBF75028008BF550282
:203CA7008003023EFBD2A19000641202D9C2A190000BE4F0755C0290000175F000123811F5
:203CC700904D7C75F0801219E1023EFB90000DE0FFBF75028008BF55028003023DF120092C
:203CE70003023EFB900010E0FEBE30005003023DE5EE24C65003023DE5900011E0FEBE30E0
:203D0700005003023DE5EE24C65003023DE5900012E0FEBE30005003023DE5EE24C65003C6
:203D2700023DE5900013E0FEBE30005003023DE5EE24C65003023DE5900014E0FEBE3000B3
:203D47005003023DE5EE24C65003023DE5900015E0FEBE30005003023DE5EE24C650030281
:203D67003DE5900016E0FEBE30005003023DE5EE24C65003023DE5900017E0FEBE3000501F
:203D870003023DE5EE24C64055900018E0FEBE3000404BEE24C64046900019E0FEBE3000B6
:203DA700403CEE24C6403790001AE4F090001BE0FEE4BE6D0104700BBE74010470057C75FE
:203DC700FD80048E047D008C4D90001075F000120DED904D8C75F0801219E1023EFB904DF0
:203DE700A575F0801219E1023EFBBF65028008BF45028003023EFBD2A39000641202D9C261
:203E0700A390000BE4F0755C0190000175F000123811904DB975F0801219E1023EFB20097B
:203E270003023EFB900010E0FFBF42028012BF6202800D900011E0FEBE6E028003BE4E1A23
:203E47001201089000B8740AF01201A0D2C2904DC675F0801219E1023EFBBF54028012BF0E
:203E67007402800DBE66028008BE46028003023EFB1201089000B8E4F01201A0C2C2904D7B
:203E8700CF75F0801219E1023EFB200903023EFB90000FE0FFBF42028012BF6202800D9066
:203EA7000010E0FEBE6E028003BE4E171201089000B67401F01201A0904DD875F0801219FB
:203EC700E18031BF5402800DBF74028008BE66028003BE461F904DE575F0801219E1120158
:203EE700089000B6E4F01201A08009904D5175F0801219E143C1107F00EF240CFDE4340077
:203F0700FE8D828E83E0600FEF240CF582E43400F5830FE4F080E2227593007594FF759289
:203F2700007591007595007596FF75B20075B10075B30275B41C75CA0075C90075C000757D
:203F4700B0FF75A00075B881759700D2AF7535009000AD740AF09000AE7406F09000AF74AB
:203F670002F09000B0F09000B1F090026FF090026DF090026E7406F0900270E4F0C22712CC
:203F870001089000B9E0249C50059000B9E4F09000B6E024FE50059000B6E4F09000B7E0D8
:203FA70024FE50059000B7E4F09000B8E024F550059000B8E4F09000B2E0FFBF3000403234
:203FC700EF24C6402D9000B3E0FFBF30004023EF24C6401E9000B4E0FFBF30004014EF2470
:203FE700C6400F9000B5E0FFBF30004005EF24C650129000B57430F09000B4F09000B3F0D2
:204007009000B2F01201A01201549001DEE0249C50059001DEE4F01201DEC20690F005E484
:204027009324FF92A290F006E49324FF92C2120222120767120481900271743CF075C16590
:204047009000017430F090000BE4F0D21330152590F006E493601EC21590F006E493FFBF69
:204067000102C2C21201089000B8E0FF1F9000B8EFF01201A0900271E0700B900270E060D7
:2040870005900270E4F0100D028021754180754247754380753F0F754001904AFA75F080E0
:2040A700120AF7904DF275F080120289300C1D1239C275410175424E754380753F0F7540C3
:2040C70001904CB675F080120AF7C20C900270E0701A90026DE07014C2189002707401F070
:2040E700900271743CF07582801203F8900270E0FFE0602710180280227E008F828E83A33B
:204107007519048E1A1246FDAE82900270EEF0900271743CF07582801203F890026EE07082
:2041270020C21C9002001200F01201089000B57430F09000B4F09000B3F09000B2F0120146
:20414700A01005028006121CB8121CFF2012030244387F008F5F8F5E8F5D7E008E047D0082
:204167007519088D1A8C828D83C007C006124733AC82D006EC245DF9E727FDEE244CFBE412
:204187003402FC8B828C83E02DF78B828C83E02430F582C00612023AD006D0070EBE14005E
:2041A70040BA855D82C00712024F855E8212024F855F8212024F90F32CE4932430F58212DC
:2041C700023AD0077E00EF600302428290F32CE493FDC3EE9D4003024282AD5D8E19751A75
:2041E70000900003C006C00512464EAB82AC83D005D0068B8274F22CF583E493FAEDB502C1
:204207002A74012BFAE43CFD8A8274F22DF583E493FDB55E1674022BFBE43CFC8B8274F2D7
:204227002CF583E493FDB55F0280047D0080027D018D07EF60418E047D0075190A8D1A8C4A
:20424700828D83C007C006C005C004124733AA8274302AF58212023AD004D00575190A75AE
:204267001A008C828D831246FDAC8274302CF58212023AD006D0070E0241CD2014030243A0
:20428700A3EF600302439C1201549001DEE0FE8E19751A0090000312464EAD82AE83ED24AD
:2042A700B2F582EE3400F583E55DF09001DEE0FE8E19751A0090000312464EE5828583F0E7
:2042C7002401FDE435F0FEED24B2F582EE3400F583E55EF09001DEE0FE8E19751A00900094
:2042E7000312464EE5828583F02402FDE435F0FEED24B2F582EE3400F583E55FF09001DE0E
:20430700E0FE0E9001DEEEF01201DE75822012023A90F32CE493FE8E19751A009000031208
:20432700464EE5828583F024FDFDE5F034FFFE8D8274F22EF583E493F58212024F90F32C44
:20434700E493FE8E19751A0090000312464EE5828583F024FEFDE5F034FFFE8D8274F22E4B
:20436700F583E493F58212024F90F32CE493FE8E19751A0090000312464EE5828583F02457
:20438700FFFDE5F034FFFE8D8274F22EF583E493F58212024FC213C214024434EF7003021F
:2043A700443475822412023A900260E02430F58212023A900261E02430F58212023A9002AC
:2043C70062E02430F58212023A900263E02430F58212023A30060B900262E0FF24FF9206BE
:2043E700804B900262E0600A900260E060047F0080027F01EF24FF92A2900260E0B4010029
:204407009206900261E0700330A2047F0080027F01EF24FF92A3900263E0700620A30330D8
:20442700A2047F0080027F01EF24FF92A1C211C21210200280297582801203F8758280127A
:20444700039390F32CE493FF249C5011904E1075F0801204179007D01202D98002B21410CD
:2044670029030245747582801203F875828E120393900273E0FF7E0075190A8E1A8F828E5C
:2044870083124733AE8274302EF582120331900273E0FF7E0075190A8E1A8F828E8312462B
:2044A700FDAE8274302EF582120331758280120393301447904E2175F08012041790F32CCF
:2044C700E493FF7E0075190A8E1A8F828E83124733AE8274302EF58212033190F32CE4930E
:2044E700FF7E0075190A8E1A8F828E831246FDAE8274302EF5821203318047900270E0FF1A
:20450700BF010B904E3075F0801204178034BF020B904E3775F0801204178026BF030B90FF
:204527004E3E75F080120417801830A3067E457F4E80047E4A7F4E7D808E828F838DF0120E
:204547000417752B4F752C4E752D80853B2E853A2F853930A21692007582C7120502853E8B
:2045670031853D32853C337582C01206B310010302462D100703024619900270E0606D7571
:204587004180754247754380753F0F754001904AFA75F080120AF790000BE4F030082A9077
:2045A7000270E0FFBF01067D6D7E008011BF02067C757F0080047C747F008C058F068D4DBA
:2045C70090000175F000120DED75410D75424B754380753F0F754001904E5075F080120A2D
:2045E700F7904E5E75F0801219E18026200823D2A39000641202D9C2A390000BE4F0F55C24
:2046070090000175F000123811904E7675F0801219E190000BE4F0758284120393900001DA
:0C46270075F00012041743C1100240544B
:204780002043554143554F4E20302E332E30004D612050696E204D61632044696E68203AB9
:2047A00020303030300A436163206C656E6820636875207669657420484F4120686179208F
:2047C0007468756F6E67206465752064756F630A312E4C656E682062617420746869657496
:2047E0002062690A707070702C626174202D2076692064753A20303030302C6261740A32A3
:204800002E4C656E68207461742074686965742062690A707070702C746174202D207669C6
:204820002064753A20303030302C7461740A332E4C656E68206B69656D20747261207472CB
:20484000616E6720746861692074686965742062690A707070702C6B74202D20766920648E
:20486000753A20303030302C6B740A342E4C656E68207468617920646F69206D6120706992
:204880006E3A20707070702C70696E2C787878780A7669206475203A20303030302C7069F0
:2048A0006E2C31323334200A5468617920646F69206D612070696E2074752030303030201A
:2048C0002D3E20313233340A352E4C656E682072657365742073696D2D67736D0A70707015
:2048E000702C72732D2076692064753A20303030302C72730A362E4C656E68206C69657424
:20490000206B652064616E682062610A707070702C64622D2076692064753A20303030300E
:204920002C64620A372E4C656E6820786F612064616E682062613A20707070702C786F61FB
:204940002C7878780A76643A20303030302C786F612C31352020786F6120736F20646965E3
:204960006E2074686F6169207468752031350A76643A20303030302C786F612C302020206F
:20498000786F6120746F616E20626F2064616E682062610A382E4C656E68206C757520647D
:2049A000616E682062613A20707070702C6C75752C787878787878787878780A76643A2027
:2049C000303030302C6C75752C303931323334353637380A6C757520736F206469656E201A
:2049E00074686F616920303931323334353637382076616F2064616E6820626100202054DD
:204A00004D41202000412F0D001A00544B3C31303030204B2042414F43414F0041542B4362
:204A20004D47533D2200220D0020202053454E44494E472020200041542B435553443D31DC
:204A40002C222A31303123222C0D0020204B49454D20545241205344542020200041542B36
:204A6000435553443D312C222A31313023222C0D0041542B435553443D312C222A302322C7
:204A80002C0D0020204B49454D2054524120544B202020000D002C0041542B435042573DEF
:204AA0002C2200222C3132392C220020202053454E44494E472043504257202020004154C7
:204AC0002B435042573D002020202044454C4554494E47202020200020202E2E44454C4540
:204AE00054494E472E2E2020002E2E2E2E44454C4554494E472E2E2E2E0041540D004154F5
:204B00002B435042523D002C3235300D00202053454E44494E4720435042522020004154D2
:204B20002B435042523D312C3235300D0044414E47204755492042414F2043414F00434856
:204B4000554120434F204C494348205355204E414F002C6C2C002C4C2C002C582C002C4B78
:204B60002C005472616E67200031300020205441542042414F2043414F2020002052454C3B
:204B800041593D004F4E004F4646000D544B204368696E683D000D546169206B686F616E77
:204BA00020636F6E2064756F6920313030303000204755492048554F4E472044414E2020DA
:204BC0000041542B4353504E3F0D002054454E204D414E47200041542B434C54533D310DBA
:204BE0000020424154204C41592047494F200041542B434F50533D320D002020204E4741F2
:204C000054204D414E47202020200041542B434F50533D300D002020202054494D204D41F6
:204C20004E47202020200041542B43434C4B3F0D00204C41592047494F20475053200041C6
:204C4000542B434C49503D310D00202053454E44494E4720434C495020200041542B43431C
:204C6000414C523F0D00205448494554204C415020474F49200041542B434D47463D310DF7
:204C800000202053454E44494E4720434D474620200041542B434E4D493D312C312C302C15
:204CA000302C310D00202053454E44494E4720434E4D4920200041542B434D4744413D2210
:204CC00044454C20414C4C220D0020205448494554204C415020544E20200041542B4353C4
:204CE000510D0020534F4E4720004154480D0041542B435042463D220020534156494E47D3
:204D000020484953544F525920000D44756E67206375612063756F6E000D4B686F61206345
:204D200075612063756F6E000D72657365742067736D20736175313073000D446F69206D3E
:204D4000612070696E207468616E6820636F6E67000D4C656E68206B686F6E6720686F705F
:204D6000206C65000D586F612064616E68206261207468616E6820636F6E67000D58756F2C
:204D80006E67206375612063756F6E000D7468656D2064616E68206261207468616E682064
:204DA000636F6E67000D536F206474206B686F6E6720686F70206C65000D4D6F20637561D4
:204DC0002063756F6E000D42617420555053000D54617420555053000D4261742062616FFE
:204DE0002063616F000D5461742062616F2063616F0041542B434D474C3D22414C4C220D3B
:204E0000002044454C4554494E4720534D5320002048455420424F204E484F20484F432022
:204E20000042414D20484F432052454D4F5445004348494E483A0050485520203A0054411C
:204E40004D20203A004F4E203A004F46463A000041542B435042523D312C39390D000D4C26
:204E600075752064616E68206261207468616E6820636F6E67000D4D6F20637561206C659D
:064E80006E00142850C36F
:06007000E478FFF6D8FD64
:20004E007904E94400601B7A01904E82788875A002E493F2A308B8000205A0D9F4DAF275FA
:02006E00A0FFF1
:1B46330020F71130F6138883A88220F509F6A8837583002280FEF280F5F02286
:1D464E00E5828519F0A4C582C0F0851AF0A4D0F025F0C5838519F0A42583F58322FB
:20466B00E519451A60467A01E51925E0F519E51A334012F51AE5829519E583951A40030A94
:20468B0080E6C3E51A13F51AE51913F519C3E5829519F5F0E583951A4005F58385F082C35B
:0D46AB00E51A13F51AE51913F519DAE122E5
:200076007800E84400600A790175A000E4F309D8FC7887E84402600C7903900001E4F0A3FC
:04009600D8FCD9FABF
:2046B8007A10E4FBFCE58225E0F582E58333F583EB33FBEC33FCEB9519F5F0EC951A4006F4
:0946D800FCABF0438201DADD22A3
:0D00410075815F12476BE582600302003E8F
:1C46E10020F71430F6148883A88220F507E6A88375830022E280F7E49322E022E8
:2046FD00C2D5E58330E70DD2D5E4C39582F582E49583F583E51A30E70BE4C39519F519E4C2
:16471D00951AF51A12466B30D50BE4C39582F582E49583F583222A
:20473300C2D5E58330E70DD2D5E4C39582F582E49583F583E51A30E70DB2D5E4C39519F5FF
:1847530019E4951AF51A1246B830D50BE4C39582F582E49583F58322A8
:04476B007582002231
:00000001FF
