:20009F0075C70075C50075C60075C38075C40043C11022AE82AF8375C78375C5018EC48F2C
:2000BF00C375C65A75C6A500AFC2C00712009FD0078F8222AE82AF8375C78375C5028EC447
:2000DF008FC38518C275C65A75C6A50002009FAE82AF8375C78375C5038EC48FC375C65AA3
:2000FF0075C6A50002009F43C1107F04EF60101FEF24BAF582E43400F58374FFF080EDBFE8
:20011F0004005018EF24BAFDE43400FE8F827583F00FE493FC8D828E83F080E390000002F4
:20013F0000EE7F00BF0400502975C78375C5028FC475C300EF24BAF582E43400F5830FE0AE
:13015F00F5C275C65A75C6A500C00712009FD00780D2229E
:20017200759850438E40538EFE758BB2758DFFC2ABD28ED2ACD2A022E582FF700122C2993A
:200192008F9920990543C11080F8C29922AD82AE83AFF0C2998D828E838FF01229ECFC60E2
:2001B200218C9920990543C11080F8C2998D828E838FF01229ECFCBC1A01220DBD00D60ED9
:0301D20080D322B5
:2001D500AE82AF837C007D00C3EC9EED9F500A43C1100CBC00F20D80EF22AE82AF837C0032
:2001F5007D00C3EC9EED9F501D9003E8C007C006C005C0041201D5D004D005D006D0070C4C
:20021500BC00DF0D80DC22AF82E5264FF5821202A575820D0202A5AF82301D118F82120287
:20023500A58527828528838529F00203258F82020306AF82D285EFC4540124FF9283EFA269
:20025500E5E43324FF9282EF2323540124FF9281EF235401FE24FF9280D28400C28400EF71
:20027500540124FF9283EF03540124FF9282EF03035401FE24FF9281EFA2E3E433FF24FF33
:200295009280D28400C2849000641201D5C28522AF82C285EFC4540124FF9283EFA2E5E444
:2002B5003324FF9282EF2323540124FF9281EF235401FE24FF9280D28400C28400EF540185
:2002D50024FF9283EF03540124FF9282EF03035401FE24FF9281EFA2E3E433FF24FF928016
:2002F500D28400C2849000640201D575820C0202A5E582FF600E8F821202A5902A7A75F09E
:20031500800203257582011202A59006400201D5AD82AE83AFF07C008D828E838FF012296A
:20033500ECFB6055BC10005050BB80005025EB24E050200CEC601C0DBD00010E8B82C00770
:20035500C006C005C004120247D004D005D006D00780C58D828E838FF01229ECFBA3AD82B0
:20037500AE838B82C007C006C005C0041202A5D004D005D006D007809F22C286903A981208
:2003950001D575801C00C284900FA01201D5D28400C2849000A01201D5D28400C284900014
:2003B500A01201D575801400C2849003E81201D5D28400C2840075801100C284900028123C
:2003D50001D575801000C2840075801300C2849000281201D575801000C2840075801600A3
:2003F500C2849000281201D575801000C2840075801800C2849003E80201D5AF82E52D24AA
:20041500E8500122E52F240540030204CC8F821202A5852A82852B83852CF012032574F6A7
:20043500252D40067D207E00801DAB2D7C0075190A8C1A8B828C83122A3EAB82AC8374302F
:200455002BFBFD3395E0FE8D82120247AD2D7E0075190A8E1A8D828E83122A08AD82743085
:200475002DF582120247E52F240350123000067D3A7E0080047D207E008D82120247AD2E7C
:200495007E0075190A8E1A8D828E83C006C005122A3EAB8274302BF582120247D005D006EB
:2004B50075190A751A008D828E83122A08AD8274302DF5820202478F821202A5852A82855A
:2004D5002B83852CF012032574F6252D40067E207F00801DAC2D7D0075190A8D1A8C828D92
:2004F50083122A3EAC82AD8374302CFCFE3395E0FF8E82120247AE2D7F0075190A8F1A8E87
:20051500828F83122A08AE8274302EF5821202473000067E3A7F0080047E207F008E8212EA
:200535000247AE2E7F0075190A8F1A8E828F83C007C006122A3EAC8274302CF582120247C8
:20055500D006D00775190A751A008E828F83122A08AE8274302EF5821202473000067E3A8A
:200575007F0080047E207F008E82120247AE2F7F0075190A8F1A8E828F83C007C006122A53
:200595003EAC8274302CF582120247D006D00775190A751A008E828F83122A08AE8274302A
:0C05B5002EF582120247758220020247D8
:112A7A0020202020202020202020202020202020004B
:040000000200413287
:01000B0032C2
:0100130032BA
:01001B0032B2
:03002300021124A3
:01002B0032A2
:01003300329A
:03003B0002067743
:05009A00C22402003E3B
:03003E0002260E89
:2005C10075FA0075EA009000BE74A8F07461A3F075DA49D2DE2243C110B210A2109287304F
:2005E100A4069000B5E014F09000B5E07008C2A49000B57406F09000C6E0FFE06006EF14F7
:200601009000C6F09000C8E0FFE06006EF149000C8F09000C4E0600E9000C5E0FFE06006AF
:20062100EF149000C5F020A0139000ADE014F0E0700AD2A09000AD740AF0D2050534E534DD
:2006410024C45031753400E5316006D532037531000535E53524C4501C7535000536E536B3
:2006610024E850117536009000C0E0FFE06006EF149000C0F022C025C0E0C0F0C082C083CD
:20068100C007C006C005C004C003C002C001C000C0D075D00843C11010D80302083A90008D
:2006A100BEE0FEA3E0FF8EEA8FFA9000BE74A82EF074613FA3F030110930B5069000C174F1
:2006C10002F030110330B5047F0080027F01EF24FF921420130330B5047F0080027F01EF32
:2006E10024FF921120120A2014032011047F0080027F01EF24FF9212A2B5921330150930DA
:20070100B3069000C27402F030150330B3047F0080027F01EF24FF921820170330B3047F5B
:200721000080027F01EF24FF921520160A2018032015047F0080027F01EF24FF9216A2B3B9
:20074100921730190930B4069000C37402F030190330B4047F0080027F01EF24FF921C2065
:200761001B0330B4047F0080027F01EF24FF9219201A0A201C032019047F0080027F01EF04
:2007810024FF921AA2B4921B30B6169000B77450F09000B6E0FFE0601CEF149000B6F08055
:2007A100149000B67450F09000B7E0FFE06006EF149000B7F030B7169000B97450F09000FA
:2007C100B8E0FFE0601CEF149000B8F080149000B87450F09000B9E0FFE06006EF14900059
:2007E100B9F020200E9000B6E070089000B8E07002D22020220E9000B6E070089000B9E0C0
:200801007002D2229000B7E07004C222C2209000DAE014F0E0700AD2249000DA740AF0B2E8
:200821001D9000DBE014F0E0700F9000DB7428F075D0001205D775D008D0D0D000D001D064
:2008410002D003D004D005D006D007D083D082D0F0D0E0D0253285823C85833D85F03EAC49
:20086100389000C7ECF08537F0ECA4FB9000C8740A2BF0C21E853C82853D83853EF0C00405
:2008810012019FD0047402253CF9E4353DFAAB3EA837301E0302095F9000C8E07003020978
:2008A1005F43C110758280C004C003C002C001C0001202A5853982853A83853BF01203255E
:2008C100752A09752B2D752C8085362D85352E85342FA21092007582C0120410D000D00107
:2008E100D002D003D0049000C6E070A6880718EF606C9000C6ECF09000C7ECF089828A8353
:200901008BF01229ECFFBF2B028010853C82853D83853EF01229ECFFBF0D20902D1175F039
:2009210080C004C003C002C001C00012019FD000D001D002D003D004020893853C82853DFE
:2009410083853EF0C004C003C002C001C00012019FD000D001D002D003D004020893758236
:20096100801203069000C9E4F0A21E2290000CE0602090000FE0701A753917753A2D753B76
:2009810080753703753801902D1575F080120857C32290000BE4F0902D2875F08012019F81
:2009A10090000175F00012019F9000C97409F0753935753A2D753B8075370575383D902D81
:2009C1003275F08002085790000CE4F0C20D9000C97407F0753957753A2D753B80753703DB
:2009E10075381E902D4375F0801208579000C9E4F090000CE024FF227F0A902D6875F08054
:200A0100C00712019FD007BFA100400122EF240CF582E43400F583E0FE24AB500E8E05ED11
:200A210024DBF58212018A7FA18045EE24B550198E05ED24E5F582C00712018A902D68758F
:200A4100F08012019FD0078027EE24BF50198E05ED24EFF582C00712018A902D6A75F08041
:200A610012019FD00780098E82C00712018AD0078F060FEE240CF582E43400F583E4F00279
:200A81000A08AD82AE83AFF0902D6C75F080C007C006C00512019FD005D006D0078D828E13
:200AA100838FF012019F902D7775F08012019F853F8212018A75397F753A2D753B807537EE
:200AC1000F753801902D3275F080120857D322E582FF7003020BAE902D9275F080C007127D
:200AE100019FD007BF0A00500D8F0674302EF58212018A020B96BF6400503B8F057E007505
:200B0100190A8E1A8D828E83C006C005122A3EAB8274302BF58212018AD005D00675190A91
:200B2100751A008D828E83122A08AD8274302DF58212018A805F7E007519648E1A8F828E17
:200B410083C007C006122A3EAC8274302CF58212018AD006D00775190A751A008F828E8302
:200B6100C007C006122A3E75190A751A00122A08AC8274302CF58212018AD006D0077519B5
:200B81000A751A008F828E83122A08AE8274302EF58212018A75399B753A2D753B8075373E
:200BA1000175381F902D6875F0800208577F01BF0A005036902D9275F080C00712019FD0B0
:200BC100078F0674302EF582C00712018A75399B753A2D753B8075370F753801902D687573
:200BE100F080120857D0070F80C5BF64005065902D9275F080C00712019FD0078F057E007A
:200C010075190A8E1A8D828E83C007C006C005122A3EAB8274302BF58212018AD005D006EC
:200C210075190A751A008D828E83122A08AD8274302DF58212018A7539AC753A2D753B80AE
:200C410075370F753801902D6875F080120857D0070F8096BFFB00400122902D9275F08062
:200C6100C00712019FD0078F057E007519648E1A8D828E83C007C006C005122A3EAB8274EA
:200C8100302BF58212018AD005D00675190A751A008D828E83C006C005122A3E75190A75E0
:200CA1001A00122A08AB8274302BF58212018AD005D00675190A751A008D828E83122A088F
:200CC100AD8274302DF58212018A7539BD753A2D753B8075370F753801902D6875F0801203
:200CE1000857D0070F020C5575398B753A2A753B8075370F753801902DCE75F080120857BF
:200D01007530009000AB740BF09000ABE024F5400122740525305001221209C89000ABE4A9
:200D2100F075330AE5307003020DE4902DD275F08012019F0530749C25304036AE307F0002
:200D410075190A8F1A8E828F83122A3EAE8274302EF58212018AAE307F0075190A8F1A8E73
:200D6100828F83122A08AE8274302EF58212018A8057AE307F007519648F1A8E828F831281
:200D81002A3EAE8274302EF58212018AAE307F0075190A8F1A8E828F83122A3E75190A758D
:200DA1001A00122A08AE8274302EF58212018AAE307F0075190A8F1A8E828F83122A08AE0C
:200DC1008274302EF58212018A7539E1753A2D753B8075370175381F902DDB75F0801208FF
:200DE1005780187539E1753A2D753B8075370175381F902DF275F08012085712096D400121
:200E0100221209F9753901753A2E753B80753732753801902D1575F080120857020D0AAD65
:200E210082AE83AFF075398B753A2A753B8075370F753801902DCE75F080C007C006C005F2
:200E4100120857D005D006D00774012DFAE43EFB8F048A828B838CF01229ECF9B92A028037
:200E61001DC007C006C005C004C003C0021209C8D002D003D004D005D006D00780059000C6
:200E81000CE4F0C007C006C005C004C003C00212096DD002D003D004D005D006D007400112
:200EA100228A828B838CF01229ECFABA2A02805090000CE0604A902E1275F080C007C0063A
:200EC100C00512019F90000C75F00012019FD005D006D007900010E07015902E1D75F080A0
:200EE100C007C006C00512019FD005D006D007900010E4F090000FF090000EF090000DF04D
:200F01008D828E838FF0C007C006C00512019FD005D006D0070DBD00010E8D828E838FF033
:200F21001229ECFDBD2A09902D1575F08002019F753901753A2E753B80753732753801906B
:200F41002D1575F0800208577F008F057E007519028E1A8D828E83C007122A3EAD82D007D8
:200F6100ED2440F9EF240CF582E43400F583E0F78F0674022EFF24F750D075398B753A2AA4
:200F8100753B8075370F753801902DCE75F0801208571209C812096D400122902E1275F0D3
:200FA1008012019F90000C75F00012019F900010E07009902E1D75F08012019F900010E45C
:200FC100F090000FF090000EF090000DF0E5416045902E3775F08012019F85408212018A3B
:200FE100902E5575F08012019F85418212018A7F02EF2440F9E7602DEF24FB4028902E618B
:2010010075F080C007C00112019FD001878212018AD0070F80DB902E6475F08012019F85BA
:20102100408212018A753901753A2E753B80753732753801902D1575F08002085790000C54
:20104100E4F012096D400122902A9B75F08012019F753983753A2E753B807537327538011A
:20106100902D1575F08002085775398B753A2A753B8075370F753801902DCE75F080120822
:2010810057503275399E753A2E753B8075370F753801902E9475F08012085750187539BA3C
:2010A100753A2E753B8075370F753801902EAF75F0800208572275398B753A2A753B80752D
:2010C100370F753801902DCE75F0801208574001227539D6753A2E753B8075370F753802DC
:2010E100902ECB75F08012085750367539FA753A2E753B8075370F753801902EE775F080E2
:20110100120857501C75391F753A2F753B8075370F753801902F0B75F0801208575002D368
:2011210022C322C025C0E0C0F0C082C083C007C006C005C004C003C002C001C000C0D075CC
:20114100D0102098030220F443C1109000C7E09000C6F09000CAE0FF24CBF582E43400F5A0
:2011610083E599F09000C9E0FF24F550030220E0EF240A83F582EF240F83F583E47395E0D7
:20118100E092E0F7E01F2A858F11202019201B201E201D1F743EB59912902D1575F080754B
:2011A100D00012019F75D0100220E09000CAE0FF24CBF582E43400F583E0FEBE47028003BE
:2011C1000212878F147D00740C2CF582E43DF58375190D8D1AC017C016C015C01475D000BA
:2011E100122A0875D010AA82AB83D014D015D016D017EA24CBF582EB3400F583E0FBBB4E9A
:20120100028003021287740B2CF582E43DF58375190D751A00C017C016C015C01475D0002D
:20122100122A0875D010AA82AB83D014D015D016D017EA24CBF582EB3400F583E0FBBB495E
:2012410045740A2CF582E43DF58375190D751A00C017C01675D000122A0875D010AC82ADFE
:2012610083D016D017EC24CBF582ED3400F583E0FDBD5212902F3175F08075D00012019F68
:2012810075D0100220E0E4BE3A0104FD70030213F98F137C00740C2BF582E43CF583751931
:2012A1000D8C1AC017C016C015C014C01375D000122A0875D010A982AA83D013D014D0156F
:2012C100D016D017E924CBF582EA3400F583E0FABA520280030213F9740B2BF582E43CF5AC
:2012E1008375190D751A00C017C016C015C014C01375D000122A0875D010A982AA83D013FE
:20130100D014D015D016D017E924CBF582EA3400F583E0FABA420280030213F9740A2BF54A
:2013210082E43CF58375190D751A00C017C016C015C014C01375D000122A0875D010A98236
:20134100AA83D013D014D015D016D017E924CBF582EA3400F583E0FABA500280030213F98A
:2013610074092BF582E43CF58375190D751A00C017C016C015C014C01375D000122A087564
:20138100D010A982AA83D013D014D015D016D017E924CBF582EA3400F583E0FABA43597412
:2013A100082BF582E43CF58375190D751A00C017C016C01575D000122A0875D010AB82AC87
:2013C10083D015D016D017EB24CBF582EC3400F583E0FCBC2B229000ABE0FC24F6500990EF
:2013E10000AB740BF00220E0D2029000C97408F0C20F7530000220E0ED70030215358F1470
:201401007D00740C2CF582E43DF58375190D8D1AC017C016C015C01475D000122A0875D02C
:2014210010AA82AB83D014D015D016D017EA24CBF582EB3400F583E0FBBB49028003021549
:2014410035740B2CF582E43DF58375190D751A00C017C016C015C01475D000122A0875D04D
:2014610010AA82AB83D014D015D016D017EA24CBF582EB3400F583E0FBBB540280030215FE
:2014810035740A2CF582E43DF58375190D751A00C017C016C015C01475D000122A0875D00E
:2014A10010AA82AB83D014D015D016D017EA24CBF582EB3400F583E0FBBB4D0280030215C5
:2014C1003574092CF582E43DF58375190D751A00C017C016C015C01475D000122A0875D0CF
:2014E10010AA82AB83D014D015D016D017EA24CBF582EB3400F583E0FBBB433874082CF556
:2015010082E43DF58375190D751A00C017C01675D000122A0875D010AC82AD83D016D017CF
:20152100EC24CBF582ED3400F583E0FDBD2B05D20C0220E0E4BE200104FD70030216CC8F6B
:20154100137C00740C2BF582E43CF58375190D8C1AC017C016C015C014C01375D000122A56
:201561000875D010A982AA83D013D014D015D016D017E924CBF582EA3400F583E0FABA3A89
:201581000280030216CC740B2BF582E43CF58375190D751A00C017C016C015C014C0137560
:2015A100D000122A0875D010A982AA83D013D014D015D016D017E924CBF582EA3400F5830B
:2015C100E0FABA4C0280030216CC740A2BF582E43CF58375190D751A00C017C016C015C09D
:2015E10014C01375D000122A0875D010A982AA83D013D014D015D016D017E924CBF582EA1B
:201601003400F583E0FABA470280030216CC74092BF582E43CF58375190D751A00C017C061
:2016210016C015C014C01375D000122A0875D010A982AA83D013D014D015D016D017E9245B
:20164100CBF582EA3400F583E0FABA4D0280030216CC74082BF582E43CF58375190D751A87
:2016610000C017C016C015C014C01375D000122A0875D010A982AA83D013D014D015D01678
:20168100D017E924CBF582EA3400F583E0FABA433A74072BF582E43CF58375190D751A008D
:2016A100C017C016C01575D000122A0875D010AB82AC83D015D016D017EB24CBF582EC344A
:2016C10000F583E0FCBC2B03021848ED70030218938F147D00740C2CF582E43DF5837519F2
:2016E1000D8D1AC017C016C015C01475D000122A0875D010AA82AB83D014D015D016D01711
:20170100EA24CBF582EB3400F583E0FBBB3A028003021893740B2CF582E43DF58375190D89
:20172100751A00C017C016C015C01475D000122A0875D010AA82AB83D014D015D016D017F5
:20174100EA24CBF582EB3400F583E0FBBB50028003021893740A2CF582E43DF58375190D34
:20176100751A00C017C016C015C01475D000122A0875D010AA82AB83D014D015D016D017B5
:20178100EA24CBF582EB3400F583E0FBBB4902800302189374092CF582E43DF58375190DFC
:2017A100751A00C017C016C015C01475D000122A0875D010AA82AB83D014D015D016D01775
:2017C100EA24CBF582EB3400F583E0FBBB4C02800302189374082CF582E43DF58375190DBA
:2017E100751A00C017C016C015C01475D000122A0875D010AA82AB83D014D015D016D01735
:20180100EA24CBF582EB3400F583E0FBBB4302800302189374072CF582E43DF58375190D83
:20182100751A00C017C01675D000122A0875D010AC82AD83D016D017EC24CBF582ED3400EF
:20184100F583E0FDBD2B4B8F147D0074092CF582E43DF58375190D8D1A75D000122A0875E6
:20186100D010AC82AD83EC24CBF582ED3400F583E0FDBD4C03D38001C392064006300B0322
:201881000220E0C209C207C2089000C97403F00220E0BE4B02800302191A8F147D00740CC2
:2018A1002CF582E43DF58375190D8D1AC017C01675D000122A0875D010AC82AD83D016D00A
:2018C10017EC24CBF582ED3400F583E0FDBD4F49A21FB3921EC21F300223AC337D001CBC45
:2018E100FF011DEC240CFCED3400FD8C828D83E0240AFB8C828D83F0C20F753300E533705E
:20190100030220E0753300902F0B75F08075D00012019F75D0100220E0BE54028003022063
:20192100E08F167F00740C2EF582E43FF58375190D8F1AC017C01675D000122A0875D01013
:20194100AC82AD83D016D017EC24CBF582ED3400F583E0FDBD4F0280030220E0740B2EF55E
:2019610082E43FF58375190D751A0075D000122A0875D010AE82AF83EE24CBF582EF340068
:20198100F583E0FFBF4E0280030220E0D21F0220E0200903021AEFE533706B740DB599026D
:2019A10080030220E03006409000CAE0FF7E0074092FF582E43EF58375190D8E1A75D0002F
:2019C100122A0875D010AE82AF83EE24CBF582EF3400F583E0FFBF2203D38001C39207BFEA
:2019E1006D03D38001C39208D2013007089000C9E4F00220E030060575320205319000C911
:201A01007405F00220E0740DB533028003021AC89000CAE0FF24CBF582E43400F583E0FE7B
:201A2100BE2203021AC88F167F00740C2EF582E43FF58375190D8F1AC017C01675D00012B2
:201A41002A0875D010AC82AD83D016D017EC24CBF582ED3400F583E0FDBD226B740B2EF51F
:201A610082E43FF58375190D751A00C017C01675D000122A0875D010AC82AD83D016D01768
:201A8100EC24CBF582ED3400F583E0FDBD2C38740A2EF582E43FF58375190D751A0075D02F
:201AA10000122A0875D010AE82AF83EE24CBF582EF3400F583E0FFBF220D746DB59902D26B
:201AC100087533000220E074F62533400EE5332401F582E43400F583E599F0E53324F35012
:201AE10008753300D2070220E005330220E03006429000CAE0FF24CBF582E43400F583E099
:201B0100FEBE302F7E00740C2FF582E43EF58375190D8E1A75D000122A0875D010AE82AF6B
:201B210083EE24CBF582EF3400F583E0FFBF2203021BE09000CAE0FF24CBF582E43400F5C6
:201B410083E0FEBE34028003021BE58F167F00740C2EF582E43FF58375190D8F1AC017C0EB
:201B61001675D000122A0875D010AC82AD83D016D017EC24CBF582ED3400F583E0FDBD3888
:201B810063740B2EF582E43FF58375190D751A00C017C01675D000122A0875D010AC82AD92
:201BA10083D016D017EC24CBF582ED3400F583E0FDBD2B30740A2EF582E43FF58375190D9B
:201BC100751A0075D000122A0875D010AE82AF83EE24CBF582EF3400F583E0FFBF2205D2AF
:201BE10009753301740DB5990280030220E09000C9E4F00220E0300A49743BB5990280218A
:201C0100740DB59902801A746025334014AF330533EF240CF582E43400F583E599F0022008
:201C2100E0E533240CF582E43400F583E4F0F533C20A9000C77401F09000C9E4F0D20B02E4
:201C410020E090F000E493FFBF0A0050159000CAE024CBF582E43400F583E0FFBF0D03027F
:201C61001D699000CAE0FF24CBF582E43400F583E0FEBE2C028003021D658F167F00740C39
:201C81002EF582E43FF58375190D8F1AC017C01675D000122A0875D010AC82AD83D016D020
:201CA10017EC24CBF582ED3400F583E0FD90F003E493FCEDB514028003021D65740B2EF5ED
:201CC10082E43FF58375190D751A00C017C01675D000122A0875D010AC82AD83D016D01706
:201CE100EC24CBF582ED3400F583E0FD90F002E493FCEDB5146E740A2EF582E43FF58375CF
:201D0100190D751A00C017C01675D000122A0875D010AC82AD83D016D017EC24CBF582ED18
:201D21003400F583E0FD90F001E493FCEDB5143474092EF582E43FF58375190D751A0075DF
:201D4100D000122A0875D010AE82AF83EE24CBF582EF3400F583E0FF90F000E493FEEFB550
:201D6100160280047F0080027F01EF24FF920A740DB5990280030220E07533019000C9E45B
:201D8100F00220E0743EB5990A9000C9E4F0D21E0220E09000CAE0FF24CBF582E43400F57B
:201DA10083E0FEBE520280030220E08F167F00740C2EF582E43FF58375190D8F1AC017C06B
:201DC1001675D000122A0875D010AC82AD83D016D017EC24CBF582ED3400F583E0FDBD520C
:201DE1000280030220E0740B2EF582E43FF58375190D751A0075D000122A0875D010AE8264
:201E0100AF83EE24CBF582EF3400F583E0FFBF450280030220E09000C6E4F00220E0300DCD
:201E21003D7420B59902801A746025334014AF330533EF240CF582E43400F583E599F002B6
:201E410020E0C20DC20FE533240CF582E43400F583E4F0F5339000C9F0D21E0220E09000CB
:201E6100CAE0FF24CBF582E43400F583E0FEBE3D0280030220E08F167F00740C2EF582E435
:201E81003FF58375190D8F1AC017C01675D000122A0875D010AC82AD83D016D017EC24CBB5
:201EA100F582ED3400F583E0FDBD680280030220E0740B2EF582E43FF58375190D751A009F
:201EC100C017C01675D000122A0875D010AC82AD83D016D017EC24CBF582ED3400F583E080
:201EE100FDBD6E0280030220E0740A2EF582E43FF58375190D751A00C017C01675D0001246
:201F01002A0875D010AC82AD83D016D017EC24CBF582ED3400F583E0FDBD69028003022079
:201F2100E074092EF582E43FF58375190D751A00C017C01675D000122A0875D010AC82AD73
:201F410083D016D017EC24CBF582ED3400F583E0FDBD680280030220E074082EF582E43F78
:201F6100F58375190D751A0075D000122A0875D010AE82AF83EE24CBF582EF3400F583E0AF
:201F8100FFBF630280030220E0D20D0220E0300D4A744EB59902802074F72533401AAF337F
:201FA10005330FEF3395E0FEEF2401F582EE3400F583E599F00220E0C20DC20FAF330FEF2F
:201FC1003395E0FEEF2401F582EE3400F583E4F0F5339000C9F0D21E0220E09000CAE0FFC5
:201FE10024CBF582E43400F583E0FEBE3A0280030220E07E00740C2FF582E43EF5837519C1
:202001000D8E1A75D000122A0875D010AE82AF83EE24CBF582EF3400F583E0FFBF29028092
:20202100030220E0D20D0220E07422B5990280030220B7D20F9000CAE0FF7E00740C2FF53B
:2020410082E43EF58375190D8E1A75D000122A0875D010AE82AF83EE24CBF582EF3400F574
:2020610083E0FFBF2C20AE337F001EBEFF011FEE240CFEEF3400FF8E828F83E02411FD8E97
:20208100828F83F08059AE337F001EBEFF011FEE240CFEEF3400FF8E828F83E0241BFD8E7D
:2020A100828F83F09000ABE0FF0F9000ABEFF09000C9E4F08029E59924D05023200F0FE57A
:2020C1003075F00AA4FFE599FE2F24D0F530AF330533EF240CF582E43400F583E599F090BB
:2020E10000CAE02401F0E0FF24F350059000CAE4F0C298D0D0D000D001D002D003D004D0C3
:2021010005D006D007D083D082D0F0D0E0D02532C20E7F00EF240CFDE43400FE0F8D828EA3
:2021210083E0600543C11080EBBFA000500F0FEF240CF582E43400F583E4F080EC90000C88
:20214100E0FFBF3F02800890000DE0FEBE3F0620070302103EBF30030221D8BF310302211C
:20216100D8BF32028071BF3302806CBF34028067BF44030223CABF4702805CBF4C030224D9
:20218100D7BF5003022283BF52028037BF5303022275BF58030223D6BF64030223CABF67E6
:2021A100028034BF6C030224D7BF7003022283BF7202800FBF7303022275BF78030223D69F
:2021C1000225E12008030225EAD2A4902F3675F080120E200225EA7F00EF240CF582E434EC
:2021E10000F583E0FEBE67028008BE47028003BE3010D2A3900064C0071201EFD007C2A3E3
:20220100804ABE3110D2A2900064C0071201EFD007C2A28037BE3210D2A1900064C0071291
:2022210001EFD007C2A18024BE3310D2C2900064C0071201EFD007C2C28011BE340ED2A718
:20224100900064C0071201EFD007C2A78F0674022EFF900384C0071201EFD007EF240CFD75
:20226100E43400FE8D828E83E060030221DA120F490225EA902F4C75F080120E20C2A002D8
:2022810025EA2008030225EA90F000E493FFBF0A005038900010E0FFBF42028012BF620274
:2022A100800D900011E0FFBF4E028003BF6E1C1201069000BAE024309000BAF01201419080
:2022C1002F5E75F080120E200225EA90F000E493FF24D0504390F000E493FFBF3A00503846
:2022E100900010E0FFBF54028012BF7402800D900011E0FFBF66028003BF461C1201069001
:2023010000BAE024D09000BAF0120141902F7575F080120E200225EA90F000E493FF24D04C
:2023210040030223BE90F000E493FFBF3A0040030223BE900010E0FFBF300050030223BEBD
:20234100EF24C650030223BE900011E0FFBF300050030223BEEF24C650030223BE90001217
:20236100E0FFBF30004056EF24C64051900013E0FFBF30004047EF24C64042900000120099
:20238100EE900010E0F5189000001200D3900011E0F5189000011200D3900012E0F5189029
:2023A10000021200D3900013E0F5189000031200D3902F8C75F080120E200225EA902FA34A
:2023C10075F080120E200225EA2008030225EA120CE90225EA2008030225EA900010E0FFB7
:2023E100BF300050030224CBEF24C650030224CB900011E0FEBE30004005EE24C65006EEBE
:2024010060030224CB900012E0FDBD30004005ED24C65006ED60030224CBBF300975820059
:20242100120AD00224BFEE700D8F04EC24D0F582120AD00224BFED70178F04EC24D075F058
:202441000AA4FC8E03EB2C24D0F582120AD0806E8E037C00EB24D0F519EC34FFF51A90002C
:202461000AC007C006C005122959AB82AC83D005D006D0078D017A00E92BFBEA3CFCEB2445
:20248100D0FBEC34FFFCC374329B74808CF063F08095F05011EF24FE500C902FA375F08074
:2024A100120E200225EAEF24D075F064A4FFEE24D075F00AA42F2D24D0F582120AD0902F14
:2024C100B675F080120E200225EA902FA375F080120E200225EA2008030225EA900010E0BB
:2024E100FFBF300050030225D6EF24C650030225D6900011E0FFBF300050030225D6EF24A2
:20250100C650030225D6900012E0FFBF300050030225D6EF24C650030225D6900013E0FF39
:20252100BF300050030225D6EF24C650030225D6900014E0FFBF300050030225D6EF24C697
:2025410050030225D6900015E0FFBF300050030225D6EF24C650030225D6900016E0FFBFFA
:20256100300050030225D6EF24C650030225D6900017E0FFBF300050030225D6EF24C640D3
:2025810054900018E0FFBF3000404AEF24C64045900019E0FFBF3000403BEF24C6403690B7
:2025A100001AE4F090001BE0FFE4BF6D0104700BBF74010470057D75FE80048F057E008D52
:2025C1003F90001075F000120A83902FCE75F080120E208014902FE775F080120E2080097D
:2025E100902FA375F080120E2043C1107F00EF240CFDE43400FE8D828E83E0600FEF240C00
:20260100F582E43400F5830FE4F080E2227593007594FF7592007591007595007596FF75A5
:20262100B20075B10075B30275B41C75CA0075C90075C00075B0FF75A00075B881759700AD
:20264100D2AFC220C221C222C2239000B77450F09000B6F09000B9F09000B8F07531009092
:2026610000AD740AF09000B57406F09000C37402F09000C2F09000C1F09000C4E4F0120118
:20268100069000BAE0FFBF30005005EF24F64032EF24C6402D9000BBE0FFBF30004023EF9A
:2026A10024C6401E9000BCE0FFBF30004014EF24C6400F9000BDE0FFBF30004005EF24C602
:2026C10050129000BD7430F09000BCF09000BBF09000BAF01201411201721205C112038FB0
:2026E10012106A1210B79000C5743CF075C1659000017430F090000BE4F09000C5E0700BA0
:202701009000C4E060059000C4E4F020210E30200BD221902FFB75F080120E2030210E20FC
:20272100200BC22190300975F080120E2020230E30220BD22390301B75F080120E203023A6
:202741000E20220BC22390303675F080120E20100C02802175398B753A2A753B8075370F61
:20276100753801902DCE75F08012085790305875F08012019F300B1D122111753967753ABA
:2027810030753B8075370F753801902F0B75F080120857C20B10120280279000C4E0FF7E06
:2027A100008F828E83A37519048E1A122A08AE829000C4EEF09000C5743CF07582801203F2
:2027C10006101602801E758200120AD01201069000BD7430F09000BCF09000BBF09000BA8E
:2027E100F0120141100502800612106A1210B7101A02804B9000C9740AF075398A753A30BD
:20280100753B8075370375381E90307675F0801208577582801202A590309B75F0801203FC
:20282100257582841202A590000BE4F090000175F000120325201A0543C11080F8C21A10E8
:2028410024030228AF7582801202A59000C4E0FFBF010B9030A075F0801203258034BF0255
:202861000B9030A575F0801203258026BF030B9030AA75F080120325801830A3067EAF7FAF
:202881003080047EB47F307D808E828F838DF0120325752A09752B2D752C8085362D853594
:2028A1002E85342FA21092007582C012041010010302295310060302293F9000C4E0700324
:2028C10002293175398B753A2A753B8075370F753801902DCE75F08012085790000BE4F0A0
:2028E10030072A9000C4E0FFBF01067D6D7E008011BF02067C757F0080047C747F008C05C9
:202901008F068D3F90000175F000120A837539E1753A2D753B8075370F7538019030B975CE
:20292100F0801208579030C775F080120E20800E20070BD2A49030DF75F080120E20758218
:18294100841202A590000BE4F090000175F00012032543C1100226FB6B
:202A8B00205448414E474D415920302E322E32004D612050696E204D61632044696E6820B9
:202AAB003A20303030300A436163206C656E6820636875207669657420484F412068617987
:202ACB00207468756F6E67206465752064756F630A312E4C656E68206261742074686965FC
:202AEB00742062690A707070702C626174202D2076692064753A20303030302C6261740A73
:202B0B00322E4C656E68207461742074686965742062690A707070702C746174202D20760F
:202B2B00692064753A20303030302C7461740A332E4C656E68206B69656D207472612074E6
:202B4B0072616E6720746861692074686965742062690A707070702C6B74202D2076692092
:202B6B0064753A20303030302C6B740A342E4C656E68207468617920646F69206D612070A9
:202B8B00696E3A20707070702C70696E2C787878780A7669206475203A20303030302C7002
:202BAB00696E2C31323334200A5468617920646F69206D612070696E2074752030303030E3
:202BCB00202D3E20313233340A352E4C656E682072657365742073696D2D67736D0A707077
:202BEB0070702C72732D2076692064753A20303030302C72730A362E4C656E68206C69653A
:202C0B0074206B652064616E682062610A707070702C64622D2076692064753A20303030DC
:202C2B00302C64620A372E4C656E6820786F612064616E682062613A20707070702C786F3E
:202C4B00612C7878780A76643A20303030302C786F612C31352020786F6120736F206469F9
:202C6B00656E2074686F6169207468752031350A76643A20303030302C786F612C3020203C
:202C8B0020786F6120746F616E20626F2064616E682062610A382E4C656E68206C757520D3
:202CAB0064616E682062613A20707070702C6C75752C787878787878787878780A76643AF5
:202CCB0020303030302C6C75752C303931323334353637380A6C757520736F206469656E2C
:202CEB002074686F616920303931323334353637382076616F2064616E6820626100202023
:202D0B00544D41202000412F0D001A00544B3C31303030204B2042414F43414F0041542B63
:202D2B00434D47533D2200220D0020202053454E44494E472020200041542B435553443DDC
:202D4B00312C222A31303123222C0D0020204B49454D2054524120544B202020000D002CEA
:202D6B000041542B435042573D2C2200222C3132392C220020202053454E44494E472043CE
:202D8B005042572020200041542B435042573D002020202044454C4554494E47202020206A
:202DAB000020202E2E44454C4554494E472E2E2020002E2E2E2E44454C4554494E472E2E24
:202DCB002E2E0041540D0041542B435042523D002C3235300D00202053454E44494E47208E
:202DEB004350425220200041542B435042523D312C3235300D0044414E47204755492042BB
:202E0B00414F2043414F000D544B204368696E683D000D546169206B686F616E20636F6E75
:202E2B002064756F69203130303030000D5468616E67206D61792064692063687579656EA6
:202E4B002074752074616E6720002C20746F692074616E6720002C20000D5468616E672087
:202E6B006D61792064692063687579656E20746F692074616E672000204755492048554F00
:202E8B004E472044414E20200041542B4950523D300D00202053454E44494E4720495052E7
:202EAB002020200041542B434C49503D310D00202053454E44494E4720434C495020200074
:202ECB0041542B434D47463D310D00202053454E44494E4720434D474620200041542B43C7
:202EEB004E4D493D312C312C302C302C310D00202053454E44494E4720434E4D4920200027
:202F0B0041542B434D4744413D2244454C20414C4C220D00202053454E44494E4720434D36
:202F2B004744412020004154480D000D64616E67207265736574207468616E67206D61790D
:202F4B00000D72657365742067736D20736175313073000D426174206D612070696E207485
:202F6B0068616E6820636F6E67000D546174206D612070696E207468616E6820636F6E675B
:202F8B00000D446F69206D612070696E207468616E6820636F6E67000D4C656E68206B6827
:202FAB006F6E6720686F70206C65000D586F612064616E68206261207468616E6820636F72
:202FCB006E67000D7468656D2064616E68206261207468616E6820636F6E67000D536F20CF
:202FEB006474206B686F6E6720686F70206C65000D4C6F69206269656E2074616E000D48B8
:20300B006574206C6F69206269656E2074616E000D5468616E67206D61792076616F2063F8
:20302B00686520646F2053544F50000D5468616E67206D61792074686F6174206B686F69EE
:20304B002063686520646F2053544F500041542B434D474C3D22414C4C220D002044454C7D
:20306B004554494E4720534D53200041542B435553443D312C222A31313023222C0D002096
:20308B00204B49454D20545241205344542020005344543A004348493A005048553A0054DF
:2030AB00414D3A004F4E203A004F46463A0041542B435042523D312C39390D000D4C7575EE
:2030CB002064616E68206261207468616E6820636F6E67000D54415420424154203D2043A0
:0A30EB00554F4320474F49001428B9
:06007000E478FFF6D8FD64
:20004E007902E94400601B7A019030F378DA75A000E493F2A308B8000205A0D9F4DAF27559
:02006E00A0FFF1
:1D295900E5828519F0A4C582C0F0851AF0A4D0F025F0C5838519F0A42583F583220D
:20297600E519451A60467A01E51925E0F519E51A334012F51AE5829519E583951A40030AA6
:2029960080E6C3E51A13F51AE51913F519C3E5829519F5F0E583951A4005F58385F082C36D
:0D29B600E51A13F51AE51913F519DAE122F7
:200076007800E84400600A790175A000E4F309D8FC78D9E84400600C7901900001E4F0A3AE
:04009600D8FCD9FABF
:2029C3007A10E4FBFCE58225E0F582E58333F583EB33FBEC33FCEB9519F5F0EC951A400606
:0929E300FCABF0438201DADD22B5
:0D004100758144122A76E582600302003EBC
:1C29EC0020F71430F6148883A88220F507E6A88375830022E280F7E49322E022FA
:202A0800C2D5E58330E70DD2D5E4C39582F582E49583F583E51A30E70BE4C39519F519E4D3
:162A2800951AF51A12297630D50BE4C39582F582E49583F583224E
:202A3E00C2D5E58330E70DD2D5E4C39582F582E49583F583E51A30E70DB2D5E4C39519F511
:182A5E0019E4951AF51A1229C330D50BE4C39582F582E49583F58322CC
:042A76007582002243
:00000001FF
