:20009F0075C70075C50075C60075C38075C40043C11022AE82AF8375C78375C5018EC48F2C
:2000BF00C375C65A75C6A500AFC2C00712009FD0078F8222AE82AF8375C78375C5028EC447
:2000DF008FC38518C275C65A75C6A50002009FAE82AF8375C78375C5038EC48FC375C65AA3
:2000FF0075C6A50002009F43C1107E957F01EE4F60141EBEFF011FEE24B2F582EF3400F5BA
:20011F008374FFF080E8C3EE9495EF9401501EEE24B2FCEF3400FD8E8274F02FF5830EBEDF
:20013F0000010FE493FB8C828D83F080D99000000200EE7E007F00C3EE9495EF940150315B
:20015F0075C78375C5028EC475C300EE24B2F582EF3400F5830EBE00010FE0F5C275C65A1D
:12017F0075C6A500C007C00612009FD006D00780C6223B
:20019100759850438E40538EFE758BCC758DFFC2ABD28ED2ACD2A022E582FF700122C29901
:2001B1008F9920990543C11080F8C29922AD82AE83AFF0C2998D828E838FF0123E16FC6084
:2001D100218C9920990543C11080F8C2998D828E838FF0123E16FCBC1A01220DBD00D60E7B
:0301F10080D32296
:2001F400AE82AF837C007D00C3EC9EED9F500A43C1100CBC00F20D80EF22AE82AF837C0013
:200214007D00C3EC9EED9F501D9003E8C007C006C005C0041201F4D004D005D006D0070C0D
:20023400BC00DF0D80DC22AF82E5264FF5821202C875820D0202C8AF82301D118F82120222
:20025400C88527828528838529F002034C8F8202032DE582FF700122D285EFC4540124FFB7
:200274009283EFA2E5E43324FF9282EF2323540124FF9281EF235401FE24FF9280D28400E1
:20029400C28400EF540124FF9283EF03540124FF9282EF03035401FE24FF9281EFA2E3E434
:2002B40033FF24FF9280D28400C2849000641201F4C28522E582FF700122C285EFC454017B
:2002D40024FF9283EFA2E5E43324FF9282EF2323540124FF9281EF235401FE24FF9280D2E2
:2002F4008400C28400EF540124FF9283EF03540124FF9282EF03035401FE24FF9281EFA217
:20031400E3E433FF24FF9280D28400C2849000640201F475820C0202C8E582FF600E8F8260
:200334001202C8903EA475F08002034C7582011202C89006400201F4AD82AE83AFF07C0009
:200354008D828E838FF0123E16FB6055BC10005050BB80005025EB24E050200CEC601C0DD8
:20037400BD00010E8B82C007C006C005C004120266D004D005D006D00780C58D828E838FB6
:20039400F0123E16FBA3AD82AE838B82C007C006C005C0041202C8D004D005D006D0078020
:2003B4009F22C286903A981201F475801C00C284900FA01201F4D28400C2849000A012013B
:2003D400F4D28400C2849000A01201F475801400C2849003E81201F4D28400C284007580E0
:2003F4001100C2849000281201F475801000C2840075801300C2849000281201F475801076
:2004140000C2840075801600C2849000281201F475801000C2840075801800C2849003E859
:200434000201F4AF82E52D24E8500122E52F240540030204F38F821202C8852A82852B8325
:20045400852CF012034C74F6252D40067D207E00801DAB2D7C0075190A8C1A8B828C83120C
:200474003E68AB82AC8374302BFBFD3395E0FE8D82120266AD2D7E0075190A8E1A8D828E3B
:2004940083123E32AD8274302DF582120266E52F240350123000067D3A7E0080047D207EAB
:2004B400008D82120266AD2E7E0075190A8E1A8D828E83C006C005123E68AB8274302BF5B2
:2004D40082120266D005D00675190A751A008D828E83123E32AD8274302DF5820202668F28
:2004F400821202C8852A82852B83852CF012034C74F6252D40067E207F00801DAC2D7D0012
:2005140075190A8D1A8C828D83123E68AC82AD8374302CFCFE3395E0FF8E82120266AE2D7E
:200534007F0075190A8F1A8E828F83123E32AE8274302EF5821202663000067E3A7F008063
:20055400047E207F008E82120266AE2E7F0075190A8F1A8E828F83C007C006123E68AC82AB
:2005740074302CF582120266D006D00775190A751A008E828F83123E32AE8274302EF582B5
:200594001202663000067E3A7F0080047E207F008E82120266AE2F7F0075190A8F1A8E8288
:2005B4008F83C007C006123E68AC8274302CF582120266D006D00775190A751A008E828F6E
:2005D40083123E32AE8274302EF5821202667582200202661202C8AE327F0075190A8F1A12
:2005F4008E828F83C007C006123E68AC8274302CF582120266D006D00775190A751A008E2F
:20061400828F83123E32AE8274302EF582120266AE317F0075190A8F1A8E828F83C007C075
:2006340006123E68AC8274302CF582120266D006D00775190A751A008E828F83123E32AED3
:200654008274302EF582120266AE307F0075190A8F1A8E828F83C007C006123E68AC82749A
:20067400302CF582120266D006D00775190A751A008E828F83123E32AE8274302EF5821216
:08069400026675822002026675
:113EA40020202020202020202020202020202020000D
:040000000200413287
:01000B0032C2
:0100130032BA
:01001B0032B2
:03002300021A0EB0
:01002B0032A2
:01003300329A
:03003B0002073B7E
:05009A00C22202003E3D
:03003E000239F490
:20069C0075FA0075EA0090024774A8F07461A3F075DA49D2DE2243C110B210A21092879088
:2006BC000251E0FFE06006EF14900251F0900253E0FFE06006EF14900253F090024DE060CF
:2006DC000E90024EE0FFE06006EF1490024EF020A0139000ADE014F0E0700AD2A09000AD1B
:2006FC00740AF0D2050537E53724C45031753700E5346006D535037534000538E53824C4B5
:20071C00501C7538000539E53924E85011753900900249E0FFE06006EF14900249F022C07D
:20073C0025C0E0C0F0C082C083C007C006C005C004C003C002C001C000C0D075D00843C1A6
:20075C001010D803020878900247E0FEA3E0FF8EEA8FFA90024774A82EF074613FA3F030DC
:20077C00110930B50690024A7402F030110330B5047F0080027F01EF24FF9214201303304A
:20079C00B5047F0080027F01EF24FF921120120A2014032011047F0080027F01EF24FF9281
:2007BC0012A2B5921330150930B30690024B7402F030150330B3047F0080027F01EF24FFD3
:2007DC00921820170330B3047F0080027F01EF24FF921520160A2018032015047F00800243
:2007FC007F01EF24FF9216A2B3921730190930B40690024C7402F030190330B4047F0080F2
:20081C00027F01EF24FF921C201B0330B4047F0080027F01EF24FF9219201A0A201C032073
:20083C0019047F0080027F01EF24FF921AA2B4921B900265E014F0E0700AD22290026574A9
:20085C000AF0B21D900266E014F0E0700F9002667428F075D0001206B275D008D0D0D00028
:20087C00D001D002D003D004D005D006D007D083D082D0F0D0E0D02532858242858343853B
:20089C00F044AC3E900252ECF0853DF0ECA4FB900253740A2BF0C21E854282854383854466
:2008BC00F0C0041201BED00474022542F9E43543FAAB4474072542F545E43543F54685442C
:2008DC004774082542F548E43543F54985444AA83D301E030209D9900253E070030209D9B2
:2008FC003020030209D943C110758280C004C003C002C001C0001202C8853F828540838561
:20091C0041F012034C752A32752B41752C8085392D85382E85372FA21092007582C0120484
:20093C0037D000D001D002D003D004900251E0600330219DC221880718EF70030209D990D6
:20095C000251ECF0900252ECF089828A838BF0123E16FFBF2B448545828546838547F012FE
:20097C003E16FFBF3F028032854882854983854AF0123E16FFBF3F02802090413A75F08002
:20099C00C004C003C002C001C0001201BED000D001D002D003D0040208ED854282854383FB
:2009BC008544F0C004C003C002C001C0001201BED000D001D002D003D0040208ED7582803F
:2009DC0012032D900254E4F0A21E2290000CE0602090000FE0701A753F40754041754180F8
:2009FC00753D03753E0190413E75F080120895C32290000BE4F090415175F0801201BE9013
:200A1C00000175F0001201BE9002547409F0753F5E754041754180753D05753E3D90415B1F
:200A3C0075F080020895C20D900254740DF090024FE0FFBF50028027BF6602803CBF6E0266
:200A5C008051BF7466753F80754041754180753D03753E1E90416C75F080120895804C7518
:200A7C003F80754041754180753D03753E1E90419275F0801208958032753F8075404175A1
:200A9C004180753D03753E1E9041A675F0801208958018753F80754041754180753D0375C6
:200ABC003E1E90416C75F080120895D32290000CE4F0C20D9002547407F0753FB875404106
:200ADC00754180753D03753E1E90416C75F080120895900254E4F090000CE024FF227F0A69
:200AFC009041C975F080C0071201BED007BFA100400122EF240CF582E43400F583E0FE2401
:200B1C00AB500E8E05ED24DBF5821201A97FA18045EE24B550198E05ED24E5F582C0071210
:200B3C0001A99041C975F0801201BED0078027EE24BF50198E05ED24EFF582C0071201A95A
:200B5C009041CB75F0801201BED00780098E82C0071201A9D0078F060FEE240CF582E4340C
:200B7C0000F583E4F0020B09AD82AE83AFF09041CD75F080C007C006C0051201BED005D0AD
:200B9C0006D0078D828E838FF0C007C006C0051201BE9041D875F0801201BED005D006D0C0
:200BBC00078D828E838FF01201BE854B821201A9753FE0754041754180753D0F753E0190CF
:200BDC00415B75F080120895D322E582FF7003020CC49041F375F080C0071201BED007BF52
:200BFC000A00500D8F0674302EF5821201A9020CACBF6400503B8F057E0075190A8E1A8D91
:200C1C00828E83C006C005123E68AB8274302BF5821201A9D005D00675190A751A008D82D2
:200C3C008E83123E32AD8274302DF5821201A9805F7E007519648E1A8F828E83C007C0062C
:200C5C00123E68AC8274302CF5821201A9D006D00775190A751A008F828E83C007C00612FA
:200C7C003E6875190A751A00123E32AC8274302CF5821201A9D006D00775190A751A008F75
:200C9C00828E83123E32AE8274302EF5821201A9753FFC754041754180753D01753E1F90FD
:200CBC0041C975F0800208957F01BF0A0050369041F375F080C0071201BED0078F0674306A
:200CDC002EF582C0071201A9753FFC754041754180753D0F753E019041C975F08012089551
:200CFC00D0070F80C5BF640050659041F375F080C0071201BED0078F057E0075190A8E1A6B
:200D1C008D828E83C007C006C005123E68AB8274302BF5821201A9D005D00675190A751A8C
:200D3C00008D828E83123E32AD8274302DF5821201A9753F0D754042754180753D0F753E60
:200D5C00019041C975F080120895D0070F8096BFFB004001229041F375F080C0071201BEEE
:200D7C00D0078F057E007519648E1A8D828E83C007C006C005123E68AB8274302BF5821225
:200D9C0001A9D005D00675190A751A008D828E83C006C005123E6875190A751A00123E32AF
:200DBC00AB8274302BF5821201A9D005D00675190A751A008D828E83123E32AD8274302D74
:200DDC00F5821201A9753F1E754042754180753D0F753E019041C975F080120895D0070F3C
:200DFC00020D6B753FB575403E754180753D0F753E0190422F75F080120895753300900089
:200E1C00AB740BF09000ABE024F540012274052533500122120AC99000ABE4F075360AE533
:200E3C00337003020EFA90423375F0801201BE0533749C25334036AE337F0075190A8F1A74
:200E5C008E828F83123E68AE8274302EF5821201A9AE337F0075190A8F1A8E828F83123E54
:200E7C0032AE8274302EF5821201A98057AE337F007519648F1A8E828F83123E68AE82749F
:200E9C00302EF5821201A9AE337F0075190A8F1A8E828F83123E6875190A751A00123E3281
:200EBC00AE8274302EF5821201A9AE337F0075190A8F1A8E828F83123E32AE8274302EF5A5
:200EDC00821201A9753F42754042754180753D01753E1F90423C75F0801208958018753F22
:200EFC0042754042754180753D01753E1F90425375F0801208951209E7400122120AFA7539
:200F1C003F62754042754180753D32753E0190413E75F080120895020E2090F004E4937011
:200F3C003690F009E493FF2405502C90000CE4F01209E740012290427375F0801201BE7576
:200F5C003F62754042754180753D32753E0190413E75F08012089590F004E493FF7E000FE5
:200F7C00BF00010EEF2FFFEE33FEEF2FFFEE33FEEF2405F582EE34F0F583E493FFBFFF00C2
:200F9C00500F90F004E493FF0FEFFE3395E0FF80047E007F00EE60067D0A7F00802390F03B
:200FBC0004E493FC7B0075190A8B1A8C828B83C006123E68AB82AC83D0060BEBFD3395E07F
:200FDC00FF8D4F740AB54F0474018001E4FF754C0090F004E493FBEEB503012274F6254C60
:200FFC005001228E4E7A0090F004E493F9EEB501030211A2BA0A0040030211A2EA75F00BA6
:20101C00A4F536900254740FF090423375F080C007C006C0021201BED002D006D0078E0075
:20103C007900E828F8E933F9E828F8E933F9E82405F582E934F0F583E493F9B90A00501938
:20105C008900743028F582C007C006C0021201A9D002D006D007021138B96400504B890092
:20107C007B0075190A8B1A88828B83C007C006C003C002C000123E68AC8274302CF5821273
:20109C0001A9D000D002D00375190A751A0088828B83C002123E32AC8274302CF58212010A
:2010BC00A9D002D006D00780737D007519648D1A89828D83C007C006C005C002C001123EA3
:2010DC0068AB8274302BF5821201A9D001D002D00575190A751A0089828D83C005C002C05C
:2010FC0001123E6875190A751A00123E32AB8274302BF5821201A9D001D002D00575190A33
:20111C00751A0089828D83C002123E32AC8274302CF5821201A9D002D006D007753F4275AA
:20113C004042754180753D01753E1F9041C975F080C007C006C002120895D0028A19751AD5
:20115C000090000BC002123D83E5828583F0D002D006240AFCE435F0FDEC240CF582ED3459
:20117C0000F583E4F08E047D008C828D83A3751964F51AC002123E32AC82AD83D002D007EB
:20119C008C060A021003AE4E90000CE4F0C007C0061209E7D006D007400122754D0090F035
:2011BC0004E493FCEEB504030215C774F6254D50030215C7854D19751A0090000BC007C06B
:2011DC0006123D83AB82AC83EB240CFBEC3400FC7A008B828C838AF01201BED006D0078E71
:2011FC00037C00EB2BFBEC33FCEB2BFBEC33FCEB2405F582EC34F0F583E493FC23235403D9
:20121C00FC24FC4058EC2C90122773800680178028803990428775F080C007C0061201BE90
:20123C00D006D007803790428B75F080C007C0061201BED006D007802490428F75F080C037
:20125C0007C0061201BED006D007801190429375F080C007C0061201BED006D007C0078EEC
:20127C0050755100E5502550F552E55133F553E5522552F552E55333F55374022552F8E429
:20129C003553FDE82405F582ED34F0F583E493C423541FFC7F0075190A8F1A8C828F83C02F
:2012BC0005C000123E68AC82AF83D000D00574302CF582C007C005C0001201A9D000D0059C
:2012DC00D007E82405F582ED34F0F583E493C423541FFF7C0075190A8C1A8F828C83C0059B
:2012FC00C000123E32AC82AF83D000D00574302CF582C007C005C0001201A975822F120103
:20131C00A9D000D005D00774012552FCE43553FFEC2405F582EF34F0F583E493FA7B0074C2
:20133C000F5AF58275830075190A8B1AC007C005C004C000123E68AA8274302AF582120130
:20135C00A9D000D004D005D007EC2405F582EF34F0F583E493FB7A00740F5BF58275830028
:20137C0075190A8A1AC007C005C004C000123E32AA8274302AF5821201A975822F1201A974
:20139C00D000D004D005D007EC2405F582EF34F0F583E493FB5303307A008B82EAC4C58256
:2013BC00C4540F6582C582540FC5826582C58230E30244F0F58375190A751A00C007C00570
:2013DC00C004C000123E68AA8274302AF5821201A9D000D004D005D007EC2405F582EF3489
:2013FC00F0F583E493FF5307307C008F82ECC4C582C4540F6582C582540FC5826582C582B8
:20141C0030E30244F0F58375190A751A00C005C000123E32AC82AF83D000D00574302CF5F7
:20143C0082C007C005C0001201A975822C1201A9D000D005D007E82405F582ED34F0F5839A
:20145C00E493FF5307077C00EF2FF554EC33F555E5542554F554E55533F55574032552FAB3
:20147C00E43553FBEA2405F582EB34F0F583E493232354037F005554F582EF5555F583759F
:20149C00190A8F1AC005C003C002C000123E68AC82AF83D000D002D003D00574302CF582B1
:2014BC00C007C005C003C002C0001201A9D000D002D003D005D007E82405F582ED34F0F5D4
:2014DC0083E493FF5307077D00EF2FFFED33FDEF2FFFED33FDEA2405F582EB34F0F583E4B0
:2014FC0093232354037C005FF582EC5DF58375190A8C1AC003C002123E32AD82AF83D00215
:20151C00D00374302DF582C007C003C0021201A975823A1201A9D002D003D007EA2405F51B
:20153C0082EB34F0F583E493FF7D00743F5FF58275830075190A8D1AC003C002123E68ADE9
:20155C0082AF83D002D00374302DF582C007C003C0021201A9D002D003D007EA2405F582C0
:20157C00EB34F0F583E493FF7D00743F5FF58275830075190A8D1A123E32AD82AF8374308E
:20159C002DF582C0071201A975822F1201A9D007855082855183A3751964751A00123E32F9
:2015BC00AD828D06054DD0070211BA90429775F080C007C0061201BED006D0077409B54C80
:2015DC001390429E75F080C007C0061201BED006D0078012AC4C74312CF582C007C006120B
:2015FC0001A9D006D00775822FC007C0061201A9D006D007EF601390429E75F080C007C01E
:20161C00061201BED006D0078012AD4F74302DF582C007C0061201A9D006D007753F6275D3
:20163C004042754180753D32753E0190413E75F080C007C006120895D006D007054C020FFF
:20165C00ED85825685835785F058753FB575403E754180753D0F753E0190422F75F08012F9
:20167C00089574012556FAE43557FBAC588A828B838CF0123E16F9B92A028011C004C00366
:20169C00C002120AC9D002D003D004800590000CE4F0C004C003C0021209E7D002D003D059
:2016BC00044001229042A175F080C004C003C0021201BED002D003D00430A30678A9794207
:2016DC00800478AC79427F80888289838FF0C004C003C0021201BED002D003D0048A828BCD
:2016FC00838CF0123E16FABA2A02803890000CE060329042B075F0801201BE90000C75F08A
:20171C00001201BE900010E070099042BB75F0801201BE900010E4F090000FF090000EF00F
:20173C0090000DF08556828557838558F01201BE74012556FDE43557FEAF588D828E838F95
:20175C00F0123E16FDBD2A0990413E75F0800201BE753F62754042754180753D32753E019A
:20177C0090413E75F080020895AF82753600BFA100500FEF240CF582E43400F5830FE4F016
:20179C0080EC2290000CE4F01209E7400122903EC475F0801201BE753FD5754042754180CC
:2017BC00753D32753E0190413E75F080020895753FB575403E754180753D0F753E01904209
:2017DC002F75F0801208955032758200121785753600900254740AF0753FF07540427541B3
:2017FC0080753D0F753E019042E675F0801208955009900010E0FF90024FF022753F067592
:20181C004043754180753D0F753E019042FB75F080120895400122753F1F754043754180B9
:20183C00753D0F753E0190431475F080120895400122900254740CF0753F3675404375414B
:20185C0080753D0A753E3C90432B75F08012089540012275820012178575360090025474A2
:20187C0002F0753F4B754043754180753D0F753E0190434175F08012089540012290000F0E
:20189C00E024D075F00AA4FF900010E02F24D0F53C900012E024D075F00AA4FF900013E067
:2018BC002F24D0F53B900015E024D075F00AA4FF900016E02F24D0F53A900018E024D07565
:2018DC00F00AA4FF900019E02F24D0F53990001BE024D075F00AA4FF90001CE02F24D0F540
:2018FC003890001EE024D075F00AA4FF90001FE02F24D0F53722753F647540437541807545
:20191C003D0F753E0190435975F080120895502B758200121785753600900254740BF07556
:20193C003F80754043754180753D0F753E0190437575F0801208955002D322C322753F9BD2
:20195C00754043754180753D0F753E0190439075F0801208954003021A0C753FBF754043FB
:20197C00754180753D0F753E019043AC75F0801208954003021A0C753FE47540437541805C
:20199C00753D0F753E019043D075F080120895505F900254740EF075820012178575360028
:2019BC00753FFD754043754180753D0F753E019043F575F0801208955034900250E4F07FA2
:2019DC0000EF240CF582E43400F583E0FEBE2C02801CEF240CF582E43400F5830FE024D056
:2019FC00FE900250E0FD75F00AA42EF080D3D322C322C025C0E0C0F0C082C083C007C00669
:201A1C00C005C004C003C002C001C000C0D075D010AF3620980302341243C110900252E076
:201A3C00900251F0900255E02456F582E43402F583E599F0900255E0FE2456F582E434022F
:201A5C00F583E0FDBD4E028003021BAA8E137C00740C2BF582E43CF58375190D8C1AC017CF
:201A7C00C016C015C014C01375D000123E3275D010A982AA83D013D014D015D016D017E922
:201A9C002456F582EA3402F583E0FABA49028003021BAA740B2BF582E43CF58375190D75AF
:201ABC001A00C017C016C015C014C01375D000123E3275D010A982AA83D013D014D015D0D7
:201ADC0016D017E92456F582EA3402F583E0FABA20028003021BAA740A2BF582E43CF583C3
:201AFC0075190D751A00C017C016C015C014C01375D000123E3275D010A982AA83D013D050
:201B1C0014D015D016D017E92456F582EA3402F583E0FABA547874092BF582E43CF58375E5
:201B3C00190D751A00C017C016C015C014C01375D000123E3275D010A982AA83D013D01470
:201B5C00D015D016D017E92456F582EA3402F583E0FABA4F3974082BF582E43CF5837519E5
:201B7C000D751A00C017C016C01575D000123E3275D010AB82AC83D015D016D017EB24569C
:201B9C00F582EC3402F583E0FCBC4E02D220900254E0FC24F050030233FEEC240A83F582CE
:201BBC00EC241483F583E4739CFED5F4FE30FE12DB8832C6426AE4931E331D263329332B26
:201BDC00322A1D1D1C301B33AB360536EB240CF582E43400F583E599F07420B59934900265
:201BFC0055E0FB7A00740C2BF582E43AF58375190D8A1A75D000123E3275D010AA82AB83B2
:201C1C00EA2456F582EB3402F583E0FBBB3A03753600742CB5990280030233FE900254E446
:201C3C00F0F5360233FE7454B5996E8E127B00740C2AF582E43BF58375190D8B1AC016C00D
:201C5C0013C01275D000123E3275D010A882A983D012D013D016E82456F582E93402F583F6
:201C7C00E0F9B95334740B2AF582E43BF58375190D751A00C01675D000123E3275D010AAB2
:201C9C0082AB83D016EA2456F582EB3402F583E0FBBB4405D21E0233FE7452B59902800383
:201CBC000233FE8E127B00740C2AF582E43BF58375190D8B1AC013C01275D000123E3275E1
:201CDC00D010A882A983D012D013E82456F582E93402F583E0F9B94F0280030233FE740B65
:201CFC002AF582E43BF58375190D751A0075D000123E3275D010AA82AB83EA2456F582EB2A
:201D1C003402F583E0FBBB520280030233FE900251E4F00233FEAB360536EB240CF582E4DD
:201D3C003400F583E599F07422B59934900255E0FB7A00740C2BF582E43AF58375190D8A3C
:201D5C001A75D000123E3275D010AA82AB83EA2456F582EB3402F583E0FBBB2003753600FF
:201D7C00742CB5990280030233FE900255E0FB7A00740C2BF582E43AF58375190D8A1A75F9
:201D9C00D000123E3275D010AA82AB83EA2456F582EB3402F583E0FBBB220280030233FE42
:201DBC00900254E4F0F5360233FE7431B5990280030233FED21E0233FEAB360536EB240CEA
:201DDC00F582E43400F583E599F0744BB59967900255E0FA7B00740C2AF582E43BF5837595
:201DFC00190D8B1AC013C01275D000123E3275D010A882A983D012D013E82456F582E9342A
:201E1C0002F583E0F9B94C2E740B2AF582E43BF58375190D751A0075D000123E3275D01023
:201E3C00AA82AB83EA2456F582EB3402F583E0FBBB4303753600740DB5990280030233FEAA
:201E5C00900255E0FB7A00740C2BF582E43AF58375190D8A1A75D000123E3275D010AA82EB
:201E7C00AB83EA2456F582EB3402F583E0FBBB220280030233FE900254E4F0F5360233FE1C
:201E9C00743EB5991290413E75F08075D0001201BE75D0100233FEBD47028003021F8A8EC0
:201EBC00127B00740C2AF582E43BF58375190D8B1AC016C015C014C013C01275D000123EC8
:201EDC003275D010A882A983D012D013D014D015D016E82456F582E93402F583E0F9B94E45
:201EFC00028003021F8A740B2AF582E43BF58375190D751A00C016C015C014C013C012751C
:201F1C00D000123E3275D010A882A983D012D013D014D015D016E82456F582E93402F583C4
:201F3C00E0F9B94949740A2AF582E43BF58375190D751A00C016C015C01475D000123E323B
:201F5C0075D010AA82AB83D014D015D016EA2456F582EB3402F583E0FBBB5212904404754C
:201F7C00F08075D0001201BE75D0100233FEE4BD3A0104FB7003022110C0138E117A007456
:201F9C000C29F582E43AF58375190D8A1AC016C015C014C012C01175D000123E3275D01066
:201FBC00A882AB83D011D012D014D015D016E82456F582EB3402F583E0FBBB52028005D08A
:201FDC0013022110740B29F582E43AF58375190D751A00C016C015C014C012C01175D00059
:201FFC00123E3275D010A882AB83D011D012D014D015D016E82456F582EB3402F583E0FBD7
:20201C00BB42028005D013022110740A29F582E43AF58375190D751A00C016C015C014C0ED
:20203C0012C01175D000123E3275D010A882AB83D011D012D014D015D016E82456F582EBF7
:20205C003402F583E0FBBB50028005D013022110740929F582E43AF58375190D751A00C096
:20207C0016C015C014C012C01175D000123E3275D010A882AB83D011D012D014D015D016FC
:20209C00E82456F582EB3402F583E0FBBB43028004D013805FD013740829F582E43AF583FC
:2020BC0075190D751A00C016C015C014C01375D000123E3275D010A982AA83D013D014D07D
:2020DC0015D016E92456F582EA3402F583E0FABA2B229000ABE0FA24F650099000AB740B54
:2020FC00F00233FED2029002547408F0C20F7533000233FEEB700302225F8E127B00740C53
:20211C002AF582E43BF58375190D8B1AC016C015C014C013C01275D000123E3275D010A843
:20213C0082A983D012D013D014D015D016E82456F582E93402F583E0F9B94902800302226D
:20215C005F740B2AF582E43BF58375190D751A00C016C015C014C013C01275D000123E3238
:20217C0075D010A882A983D012D013D014D015D016E82456F582E93402F583E0F9B95402CC
:20219C00800302225F740A2AF582E43BF58375190D751A00C016C015C014C013C01275D0D4
:2021BC0000123E3275D010A882A983D012D013D014D015D016E82456F582E93402F583E012
:2021DC00F9B94D028002807B74092AF582E43BF58375190D751A00C016C015C014C013C074
:2021FC001275D000123E3275D010A882A983D012D013D014D015D016E82456F582E93402D3
:20221C00F583E0F9B9433C74082AF582E43BF58375190D751A00C016C015C01475D0001265
:20223C003E3275D010AA82AB83D014D015D016EA2456F582EB3402F583E0FBBB2B05D20C9C
:20225C000233FEE4BD200104FB700302240CC0138E117A00740C29F582E43AF58375190D8C
:20227C008A1AC016C015C014C012C01175D000123E3275D010A882AB83D011D012D014D091
:20229C0015D016E82456F582EB3402F583E0FBBB3A028005D01302240C740B29F582E43A0C
:2022BC00F58375190D751A00C016C015C014C012C01175D000123E3275D010A882AB83D0FA
:2022DC0011D012D014D015D016E82456F582EB3402F583E0FBBB4C028005D01302240C74DC
:2022FC000A29F582E43AF58375190D751A00C016C015C014C012C01175D000123E3275D02A
:20231C0010A882AB83D011D012D014D015D016E82456F582EB3402F583E0FBBB47028005F1
:20233C00D01302240C740929F582E43AF58375190D751A00C016C015C014C012C01175D028
:20235C0000123E3275D010A882AB83D011D012D014D015D016E82456F582EB3402F583E06E
:20237C00FBBB4D028005D01302240C740829F582E43AF58375190D751A00C016C015C01447
:20239C00C012C01175D000123E3275D010A882AB83D011D012D014D015D016E82456F582BF
:2023BC00EB3402F583E0FBBB43028004D0138040D013740729F582E43AF58375190D751AA8
:2023DC0000C016C015C014C01375D000123E3275D010A982AA83D013D014D015D016E9247C
:2023FC0056F582EA3402F583E0FABA2B030225A0EB70030225EB8E127B00740C2AF582E443
:20241C003BF58375190D8B1AC016C015C014C013C01275D000123E3275D010A882A983D047
:20243C0012D013D014D015D016E82456F582E93402F583E0F9B93A0280030225EB740B2A60
:20245C00F582E43BF58375190D751A00C016C015C014C013C01275D000123E3275D010A840
:20247C0082A983D012D013D014D015D016E82456F582E93402F583E0F9B950028003022520
:20249C00EB740A2AF582E43BF58375190D751A00C016C015C014C013C01275D000123E326A
:2024BC0075D010A882A983D012D013D014D015D016E82456F582E93402F583E0F9B9490294
:2024DC0080030225EB74092AF582E43BF58375190D751A00C016C015C014C013C01275D003
:2024FC0000123E3275D010A882A983D012D013D014D015D016E82456F582E93402F583E0CF
:20251C00F9B94C0280030225EB74082AF582E43BF58375190D751A00C016C015C014C013DA
:20253C00C01275D000123E3275D010A882A983D012D013D014D015D016E82456F582E934D1
:20255C0002F583E0F9B9430280030225EB74072AF582E43BF58375190D751A00C016C015F1
:20257C00C01475D000123E3275D010AA82AB83D014D015D016EA2456F582EB3402F583E0F2
:20259C00FBBB2B4B8E127B0074092AF582E43BF58375190D8B1A75D000123E3275D010AA1D
:2025BC0082AB83EA2456F582EB3402F583E0FBBB4C03D38001C392064006300B030233FE90
:2025DC00C209C207C2089002547403F00233FEBD4B02800302267C8E127B00740C2AF58294
:2025FC00E43BF58375190D8B1AC016C015C01475D000123E3275D010AA82AB83D014D0152A
:20261C00D016EA2456F582EB3402F583E0FBBB4F4FBC0203753600A21FB3921EC21F30026D
:20263C0023AB367C001BBBFF011CEB240CFBEC3400FC8B828C83E0240AFA8B828C83F0C2E8
:20265C000F753600E53670030233FE7536009043D075F08075D0001201BE75D0100233FE12
:20267C00BD540280030233FE8E137C00740C2BF582E43CF58375190D8C1AC014C01375D071
:20269C0000123E3275D010A982AA83D013D014E92456F582EA3402F583E0FABA4F0280034E
:2026BC000233FE740B2BF582E43CF58375190D751A0075D000123E3275D010AB82AC83EB85
:2026DC002456F582EC3402F583E0FCBC4E0280030233FED21F0233FE20090302283EE536E2
:2026FC007068740DB5990280030233FE30063D8E137C0074092BF582E43CF58375190D8CF1
:20271C001A75D000123E3275D010AB82AC83EB2456F582EC3402F583E0FCBC2203D3800184
:20273C00C39207BC6D03D38001C39208D201300708900254E4F00233FE3006057535020559
:20275C00349002547405F00233FE740DB536028003022817BD22030228178E137C00740CB5
:20277C002BF582E43CF58375190D8C1AC014C01375D000123E3275D010A982AA83D013D0F4
:20279C0014E92456F582EA3402F583E0FABA226B740B2BF582E43CF58375190D751A00C0D3
:2027BC0014C01375D000123E3275D010A982AA83D013D014E92456F582EA3402F583E0FA8F
:2027DC00BA2C38740A2BF582E43CF58375190D751A0075D000123E3275D010AB82AC83EB7A
:2027FC002456F582EC3402F583E0FCBC220D746DB59902D2087536000233FE74F62536407D
:20281C000EE5362401F582E43400F583E599F0E53624F35008753600D2070233FE0536025B
:20283C0033FE30063CBD30398E137C00740C2BF582E43CF58375190D8C1AC016C01575D0AB
:20285C0000123E3275D010AB82AC83D015D016EB2456F582EC3402F583E0FCBC2203022900
:20287C0019BD3402800302291E8E137C00740C2BF582E43CF58375190D8C1AC014C0137530
:20289C00D000123E3275D010A982AA83D013D014E92456F582EA3402F583E0FABA38637441
:2028BC000B2BF582E43CF58375190D751A00C014C01375D000123E3275D010A982AA83D0A2
:2028DC0013D014E92456F582EA3402F583E0FABA2B30740A2BF582E43CF58375190D751AA2
:2028FC000075D000123E3275D010AB82AC83EB2456F582EC3402F583E0FCBC2205D20975BF
:20291C003601740DB5990280030233FE900254E4F00233FE300A43743BB599028021740D52
:20293C00B59902801A746025364014AC360536EC240CF582E43400F583E599F00233FEE548
:20295C0036240CF582E43400F583E4F0F536C20A900254E4F0D20B0233FEBD2C02800302E9
:20297C002A688E137C00740C2BF582E43CF58375190D8C1AC014C01375D000123E3275D0DE
:20299C0010A982AA83D013D014E92456F582EA3402F583E0FA90F003E493F9EAB51102807B
:2029BC0003022A68740B2BF582E43CF58375190D751A00C014C01375D000123E3275D010BE
:2029DC00A982AA83D013D014E92456F582EA3402F583E0FA90F002E493F9EAB5116E740AE2
:2029FC002BF582E43CF58375190D751A00C014C01375D000123E3275D010A982AA83D01359
:202A1C00D014E92456F582EA3402F583E0FA90F001E493F9EAB5113474092BF582E43CF561
:202A3C008375190D751A0075D000123E3275D010AB82AC83EB2456F582EC3402F583E0FC03
:202A5C0090F000E493FBECB5130280047C0080027C01EC24FF920A740DB59902800302337F
:202A7C00FE753601900254E4F00233FE743EB5990A900254E4F0D21E0233FEBD5202800328
:202A9C000233FE8E137C00740C2BF582E43CF58375190D8C1AC014C01375D000123E3275EC
:202ABC00D010A982AA83D013D014E92456F582EA3402F583E0FABA520280030233FE740B6C
:202ADC002BF582E43CF58375190D751A0075D000123E3275D010AB82AC83EB2456F582EC36
:202AFC003402F583E0FCBC450280030233FE900251E4F00233FE300D5B90024FE0FCBC502C
:202B1C00028003BC66057420B5990FBC74028003BC6E297464B59902802274602536401C9F
:202B3C00742EB599030233FEAC360536EC240CF582E43400F583E599F00233FEC20DC20FD2
:202B5C00E536240CF582E43400F583E4F0F536D21E0233FE90024FE0FCBC50028003022C69
:202B7C00CCBD3D028003022CCC8E127B00740C2AF582E43BF58375190D8B1AC016C015C076
:202B9C0014C013C01275D000123E3275D010A882A983D012D013D014D015D016E82456F523
:202BBC0082E93402F583E0F9B968028003022CCC740B2AF582E43BF58375190D751A00C0C6
:202BDC0016C015C014C013C01275D000123E3275D010A882A983D012D013D014D015D0168F
:202BFC00E82456F582E93402F583E0F9B96E028003022CCC740A2AF582E43BF58375190D79
:202C1C00751A00C016C015C014C013C01275D000123E3275D010A882A983D012D013D014CA
:202C3C00D015D016E82456F582E93402F583E0F9B969028002807974092AF582E43BF58310
:202C5C0075190D751A00C016C015C014C013C01275D000123E3275D010A882A983D012D0E6
:202C7C0013D014D015D016E82456F582E93402F583E0F9B9683A74082AF582E43BF58375A9
:202C9C00190D751A00C016C015C01475D000123E3275D010AA82AB83D014D015D016EA24B1
:202CBC0056F582EB3402F583E0FBBB6303023065BC74028003022E23BD20028003022E2342
:202CDC008E127B00740C2AF582E43BF58375190D8B1AC016C015C014C013C01275D000124A
:202CFC003E3275D010A882A983D012D013D014D015D016E82456F582E93402F583E0F9B927
:202D1C003A028003022E23740B2AF582E43BF58375190D751A00C016C015C014C013C01280
:202D3C0075D000123E3275D010A882A983D012D013D014D015D016E82456F582E93402F5A4
:202D5C0083E0F9B947028003022E23740A2AF582E43BF58375190D751A00C016C015C014C4
:202D7C00C013C01275D000123E3275D010A882A983D012D013D014D015D016E82456F582D3
:202D9C00E93402F583E0F9B94B028002807974092AF582E43BF58375190D751A00C016C0B1
:202DBC0015C014C013C01275D000123E3275D010A882A983D012D013D014D015D016E82477
:202DDC0056F582E93402F583E0F9B9543A74082AF582E43BF58375190D751A00C016C015CA
:202DFC00C01475D000123E3275D010AA82AB83D014D015D016EA2456F582EB3402F583E06A
:202E1C00FBBB2003023065BC66028003022F7ABD3A028003022F7A8E127B00740C2AF58271
:202E3C00E43BF58375190D8B1AC016C015C014C013C01275D000123E3275D010A882A98309
:202E5C00D012D013D014D015D016E82456F582E93402F583E0F9B943028003022F7A740BEE
:202E7C002AF582E43BF58375190D751A00C016C015C014C013C01275D000123E3275D01094
:202E9C00A882A983D012D013D014D015D016E82456F582E93402F583E0F9B94B0280030278
:202EBC002F7A740A2AF582E43BF58375190D751A00C016C015C014C013C01275D000123EB4
:202EDC003275D010A882A983D012D013D014D015D016E82456F582E93402F583E0F9B9542F
:202EFC00028002807974092AF582E43BF58375190D751A00C016C015C014C013C01275D0F1
:202F1C0000123E3275D010A882A983D012D013D014D015D016E82456F582E93402F583E0A4
:202F3C00F9B9203A74082AF582E43BF58375190D751A00C016C015C01475D000123E3275D0
:202F5C00D010AA82AB83D014D015D016EA2456F582EB3402F583E0FBBB2E03023065BC6E70
:202F7C000280030233FEBD200280030233FE8E137C00740C2BF582E43CF58375190D8C1AD0
:202F9C00C014C01375D000123E3275D010A982AA83D013D014E92456F582EA3402F583E0E1
:202FBC00FABA3A0280030233FE740B2BF582E43CF58375190D751A00C014C01375D000126E
:202FDC003E3275D010A982AA83D013D014E92456F582EA3402F583E0FABA430280030233EE
:202FFC00FE740A2BF582E43CF58375190D751A00C014C01375D000123E3275D010A982AA3D
:20301C0083D013D014E92456F582EA3402F583E0FABA4B0280030233FE74092BF582E43C02
:20303C00F58375190D751A0075D000123E3275D010AB82AC83EB2456F582EC3402F583E004
:20305C00FCBC540280030233FED20D0233FE300D7C90024FE0FCBC50028003BC6E05740ACA
:20307C00B59912BC66057422B5990ABC7432742EB59902802B74F62536402574F725364090
:20309C001AAC3605360CEC3395E0FBEC2401F582EB3400F583E599F00233FE05360233FE14
:2030BC00C20DC20F74F625364018D21EAC360CEC3395E0FBEC2401F582EB3400F583E4F0D7
:2030DC008005900251E4F07536000233FE90024FE0FCBC5040BD3A3D8E127B00740C2AF5C3
:2030FC0082E43BF58375190D8B1AC016C015C01475D000123E3275D010AA82AB83D014D0B2
:20311C0015D016EA2456F582EB3402F583E0FBBB29030231B0BC6E3FBD303C8E127B00745E
:20313C000C2AF582E43BF58375190D8B1AC016C015C01475D000123E3275D010AA82AB83FA
:20315C00D014D015D016EA2456F582EB3402F583E0FBBB2002803DBC66028003BC743ABDED
:20317C0034378E147D00740C2CF582E43DF58375190D8D1AC01675D000123E3275D010AC0D
:20319C0082AD83D016EC2456F582ED3402F583E0FDBD3805D20D0233FE7435B5990280039E
:2031BC000232618E147D00740C2CF582E43DF58375190D8D1AC016C015C01475D000123E2D
:2031DC003275D010AA82AB83D014D015D016EA2456F582EB3402F583E0FBBB3168740B2CF5
:2031FC00F582E43DF58375190D751A00C016C015C01475D000123E3275D010AA82AB83D0B4
:20321C0014D015D016EA2456F582EB3402F583E0FBBB2031740A2CF582E43DF58375190D03
:20323C00751A00C01675D000123E3275D010AC82AD83D016EC2456F582ED3402F583E0FD58
:20325C00BD2C0280757452B5990280030233FE8E147D00740C2CF582E43DF58375190D8DA3
:20327C001AC015C01475D000123E3275D010AA82AB83D014D015EA2456F582EB3402F583BC
:20329C00E0FBBB520280030233FE740B2CF582E43DF58375190D751A0075D000123E327551
:2032BC00D010AC82AD83EC2456F582ED3402F583E0FDBD450280030233FED2210233FE740B
:2032DC0022B599028003023365D20F7D00740C2EF582E43DF58375190D8D1A75D000123E50
:2032FC003275D010AD82AE83ED2456F582EE3402F583E0FEBE2C21AD367E001DBDFF011E0F
:20331C00ED240CFDEE3400FE8D828E83E02411FC8D828E83F00233FEAD367E001DBDFF01A8
:20333C001EED240CFDEE3400FE8D828E83E0241BFC8D828E83F09000ABE0FE0E9000ABEE7E
:20335C00F0900254E4F00233FEE59924D040030233FE200F0FE53375F00AA4FEE599FD2E7C
:20337C0024D0F533AE360536EE240CF582E43400F583E599F0806BAE360536EE240CF582C4
:20339C00E43400F583E599F07422B59939900255E0FE7D00740C2EF582E43DF58375190D5B
:2033BC008D1AC01775D000123E3275D010AD82AE83D017ED2456F582EE3402F583E0FEBEFA
:2033DC002C048F36801C7422B59917AE367F001EBEFF011FEE240CF582EF3400F583E4F0E3
:2033FC00D21E900255E02401F0E0FF24F35005900255E4F0C298D0D0D000D001D002D0039F
:20341C00D004D005D006D007D083D082D0F0D0E0D02532AD82AE83AFF07C0090440975F041
:20343C0080C007C006C005C0041201BED004D005D006D007740A2DF9E43EFA8F0389828ACC
:20345C00838BF0E4123D688D828E838FF0C0041201BED0049000AB7409F07536003008061E
:20347C007E137F4480047E177F447D80753F1B7540448D41753D0F753E028E828F838DF058
:20349C00C004120895D0047F00EF240CF582E43400F583E0FEBE3A0050198C06EE75F00AF6
:2034BC00A4FEEF240CF582E43400F5830FE0FD2EFC80D6C0041201069000B6E0FF7E0075C7
:2034DC0019648E1A8F828E83123E32AE82D0047F00EE2EFEEF33FFEE2EFEEF33FF74052E67
:2034FC00FBE43FFDEB24B2F582ED3400F583ECF0E559255925E0FDAB3C7C00EB24ECFBECE5
:20351C0034FFFCC3EB9403EC64809480500BE53C24ECFB3395E0FC80047B037C00EB52054C
:20353C0074062EFBE43FFCEB24B2F582EC3400F583EDC454F0FDE53B5205EDF074072EFCF2
:20355C00E43FFDEC24B2F582ED3400F583E53AC40354F8FDE5390303543FFCED5204ECF05C
:20357C0074082EFEE43FFFEE24B2F582EF3400F583E5395403030354C0FFE5385207EFF0AC
:20359C009000B6E0FFBF63079000B6E4F080060F9000B6EFF0020152C20E7F00EF240CFD2D
:2035BC00E43400FE0F8D828E83E0600543C11080EBBFA000500FEF240CF582E43400F58302
:2035DC000FE4F080EC90000CE0FFBF3F02800890000DE0FEBE3F0620070302179FBF440317
:2035FC00023734BF48028050BF4B028067BF4C03023882BF5003023698BF520302368ABF35
:20361C005302803ABF5803023740BF6403023734BF68028023BF6B02803ABF6C03023882BD
:20363C00BF70028057BF72028044BF7302800FBF78030237400239C7120F360239D0D2A221
:20365C0090006412020EC2A290442C75F08012165D0239D0D2A275590390000175F0001212
:20367C00342F90443B75F08012165D0239D090444A75F08012165DC2A00239D02008030225
:20369C0039D0900010E0FFBF30005003023728EF24C65003023728900011E0FFBF30005097
:2036BC0003023728EF24C65003023728900012E0FFBF30004056EF24C64051900013E0FF0B
:2036DC00BF30004047EF24C640429000001200EE900010E0F5189000001200D3900011E0EA
:2036FC00F5189000011200D3900012E0F5189000021200D3900013E0F5189000031200D31D
:20371C0090445C75F08012165D0239D090447375F08012165D0239D02008030239D0120DD7
:20373C00FF0239D090000DE0FFBF6F028008BF4F0280030238532008030239D0900010E059
:20375C00FEBE30005003023847EE24C65003023847900011E0FDBD30004005ED24C6500604
:20377C00ED6003023847900012E0FCBC30004005EC24C65006EC6003023847BE30097582C3
:20379C0000120BE602383BED700D8E03EB24D0F582120BE602383BEC70178E03EB24D07574
:2037BC00F00AA4FB8D02EA2B24D0F582120BE6806E8D027B00EA24D0F519EB34FFF51A90A1
:2037DC00000AC006C005C004123D83AA82AB83D004D005D0068C007900E82AFAE93BFBEAAF
:2037FC0024D0FAEB34FFFBC374329A74808BF063F08095F05011EE24FE500C90447375F063
:20381C008012165D0239D0EE24D075F064A4FEED24D075F00AA42E2C24D0F582120BE690E3
:20383C00448675F08012165D0239D090447375F08012165D0239D0BF75028008BF5502801D
:20385C00030239D0D2A190006412020EC2A175590290000175F00012342F90449E75F080C0
:20387C0012165D0239D090000DE0FFBF75028008BF5502800302399E2008030239D090002A
:20389C0010E0FEBE30005003023993EE24C65003023993900011E0FEBE3000500302399388
:2038BC00EE24C65003023993900012E0FEBE30005003023993EE24C65003023993900013C8
:2038DC00E0FEBE30005003023993EE24C65003023993900014E0FEBE30005003023993EE67
:2038FC0024C65003023993900015E0FEBE30005003023993EE24C65003023993900016E090
:20391C00FEBE30005003023993EE24C65003023993900017E0FEBE30005003023993EE24DF
:20393C00C64054900018E0FEBE3000404AEE24C64045900019E0FEBE3000403BEE24C640AE
:20395C003690001AE4F090001BE0FEE4BE6D0104700BBE74010470057C75FD80048E047D52
:20397C00008C4B90001075F000120B849044AE75F08012165D803D9044C775F08012165D00
:20399C008032BF65028003BF452AD2A390006412020EC2A375590190000175F00012342F58
:2039BC009044DB75F08012165D800990447375F08012165D43C1107F00EF240CFDE43400D1
:2039DC00FE8D828E83E0600FEF240CF582E43400F5830FE4F080E2227593007594FF7592BA
:2039FC00007591007595007596FF75B20075B10075B30275B41C75CA0075C90075C00075AE
:203A1C00B0FF75A00075B881759700D2AF7534009000AD740AF09000AE7406F09000AF74DC
:203A3C0002F09000B0F09000B1F090024CF090024BF090024AF090024DE4F0C22012010602
:203A5C009000B6E0249C50059000B6E4F09000B2E0FFBF30004032EF24C6402D9000B3E00A
:203A7C00FFBF30004023EF24C6401E9000B4E0FFBF30004014EF24C6400F9000B5E0FFBF31
:203A9C0030004005EF24C650129000B57430F09000B4F09000B3F09000B2F0120152120170
:203ABC009112069C1203B61217CB20200912181812191212195990024E743CF075C16590EF
:203ADC0000017430F090000BE4F090024EE0700B90024DE0600590024DE4F0100C028021F5
:203AFC00753FB575403E754180753D0F753E0190422F75F0801208959044E875F08012015A
:203B1C00BE300B1D1235B4753FF7754044754180753D0F753E019043D075F080120895C230
:203B3C000B101202802790024DE0FF7E008F828E83A37519048E1A123E32AE8290024DEED9
:203B5C00F090024E743CF075828012032D101602801E758200120BE61201069000B574305E
:203B7C00F09000B4F09000B3F09000B2F01201521005028006121912121959101A02803DF4
:203B9C00120AC97582801202C890000C75F00012034C201A0543C11080F8C21A120A4275F5
:203BBC0082841202C890000BE4F090000175F00012034C201A0543C11080F8C21A10220365
:203BDC00023CA67582801202C890024DE0FFBF010B90450675F08012034C8034BF020B90D8
:203BFC00450B75F08012034C8026BF030B90451075F08012034C801830A3067E157F45802D
:203C1C00047E1A7F457D808E828F838DF012034C75828E1202C8900250E0FF7E0075190AF3
:203C3C008E1A8F828E83123E68AE8274302EF582120266900250E0FF7E0075190A8E1A8FE5
:203C5C00828E83123E32AE8274302EF582120266752A1F752B45752C8085392D85382E8521
:203C7C00372FA21092007582C71204377582CF1202C890024FE0F582120266853C30853B6E
:203C9C0031853A327582C01205E8100103023D62100603023D4E90024DE07003023D2875C7
:203CBC003FB575403E754180753D0F753E0190422F75F08012089590000BE4F030072A9061
:203CDC00024DE0FFBF01067D6D7E008011BF02067C757F0080047C747F008C058F068D4BB3
:203CFC0090000175F000120B84753F42754042754180753D0F753E0190452075F080120885
:203D1C009590452E75F08012165D8026200723D2A390006412020EC2A390000BE4F0F559E8
:203D3C0090000175F00012342F90454675F08012165D90000BE4F07582841202C890000120
:0C3D5C0075F00012034C43C110023AE65F
:203EB5002043554143554F4E20302E312E39004D612050696E204D61632044696E68203A86
:203ED50020303030300A436163206C656E6820636875207669657420484F41206861792063
:203EF5007468756F6E67206465752064756F630A312E4C656E68206261742074686965746A
:203F15002062690A707070702C626174202D2076692064753A20303030302C6261740A3276
:203F35002E4C656E68207461742074686965742062690A707070702C746174202D2076699A
:203F55002064753A20303030302C7461740A332E4C656E68206B69656D207472612074729F
:203F7500616E6720746861692074686965742062690A707070702C6B74202D207669206462
:203F9500753A20303030302C6B740A342E4C656E68207468617920646F69206D6120706966
:203FB5006E3A20707070702C70696E2C787878780A7669206475203A20303030302C7069C4
:203FD5006E2C31323334200A5468617920646F69206D612070696E207475203030303020EE
:203FF5002D3E20313233340A352E4C656E682072657365742073696D2D67736D0A707070E9
:20401500702C72732D2076692064753A20303030302C72730A362E4C656E68206C696574F7
:20403500206B652064616E682062610A707070702C64622D2076692064753A2030303030E2
:204055002C64620A372E4C656E6820786F612064616E682062613A20707070702C786F61CF
:204075002C7878780A76643A20303030302C786F612C31352020786F6120736F20646965B7
:204095006E2074686F6169207468752031350A76643A20303030302C786F612C3020202043
:2040B500786F6120746F616E20626F2064616E682062610A382E4C656E68206C7575206451
:2040D500616E682062613A20707070702C6C75752C787878787878787878780A76643A20FB
:2040F500303030302C6C75752C303931323334353637380A6C757520736F206469656E20EE
:2041150074686F616920303931323334353637382076616F2064616E6820626100202054B0
:204135004D41202000412F0D001A00544B3C31303030204B2042414F43414F0041542B4336
:204155004D47533D2200220D0020202053454E44494E472020200041542B435553443D31B0
:204175002C222A31303123222C0D0020204B49454D20545241205344542020200041542B0A
:20419500435553443D312C222A31313023222C0D0041542B435553443D312C222A3023229B
:2041B5002C0D0020204B49454D2054524120544B202020000D002C0041542B435042573DC3
:2041D5002C2200222C3132392C220020202053454E44494E4720435042572020200041549B
:2041F5002B435042573D002020202044454C4554494E47202020200020202E2E44454C4514
:2042150054494E472E2E2020002E2E2E2E44454C4554494E472E2E2E2E0041540D004154C8
:204235002B435042523D002C3235300D00202053454E44494E4720435042522020004154A6
:204255002B435042523D312C3235300D0044414E47204755492042414F2043414F0043482A
:20427500554120434F204C494348205355204E414F002C6C2C002C4C2C002C582C002C4B4C
:204295002C005472616E6720003130002052454C41593D004F4E004F4646000D544B2043FF
:2042B50068696E683D000D546169206B686F616E20636F6E2064756F692031303030300067
:2042D500204755492048554F4E472044414E20200041542B4353504E3F0D002054454E2089
:2042F5004D414E47200041542B434C54533D310D0020424154204C41592047494F20004198
:20431500542B434F50533D320D00204E474154204D414E47200041542B434F50533D300D3C
:2043350000204C4159204D414E47200041542B43434C4B3F0D00204C41592047494F20476A
:204355005053200041542B434C49503D310D00202053454E44494E4720434C495020200052
:2043750041542B4343414C523F0D00205448494554204C415020474F49200041542B434DAD
:2043950047463D310D00202053454E44494E4720434D474620200041542B434E4D493D31E6
:2043B5002C312C302C302C310D00202053454E44494E4720434E4D4920200041542B434D4A
:2043D5004744413D2244454C20414C4C220D0020205448494554204C415020544E202000E3
:2043F50041542B4353510D0020534F4E4720004154480D0041542B435042463D22006D22CA
:204415000D0070220D0020534156494E4720484953544F525920000D44756E67206375618D
:204435002063756F6E000D4B686F61206375612063756F6E000D72657365742067736D201D
:20445500736175313073000D446F69206D612070696E207468616E6820636F6E67000D4C59
:20447500656E68206B686F6E6720686F70206C65000D586F612064616E682062612074688E
:20449500616E6820636F6E67000D58756F6E67206375612063756F6E000D7468656D20647E
:2044B500616E68206261207468616E6820636F6E67000D536F206474206B686F6E6720684D
:2044D5006F70206C65000D4D6F206375612063756F6E0041542B434D474C3D22414C4C22C3
:2044F5000D002044454C4554494E4720534D5320004348493A005048553A0054414D3A00AA
:204515004F4E203A004F46463A000041542B435042523D312C39390D000D4C757520646152
:1F4535006E68206261207468616E6820636F6E67000D4D6F20637561206C656E001428F7
:06007000E478FFF6D8FD64
:20004E007902E94400601B7A01904552786575A002E493F2A308B8000205A0D9F4DAF27558
:02006E00A0FFF1
:1B3D680020F71130F6138883A88220F509F6A8837583002280FEF280F5F0225A
:1D3D8300E5828519F0A4C582C0F0851AF0A4D0F025F0C5838519F0A42583F58322CF
:203DA000E519451A60467A01E51925E0F519E51A334012F51AE5829519E583951A40030A68
:203DC00080E6C3E51A13F51AE51913F519C3E5829519F5F0E583951A4005F58385F082C32F
:0D3DE000E51A13F51AE51913F519DAE122B9
:200076007800E84400600A790175A000E4F309D8FC7864E84402600C7903900001E4F0A31F
:04009600D8FCD9FABF
:203DED007A10E4FBFCE58225E0F582E58333F583EB33FBEC33FCEB9519F5F0EC951A4006C8
:093E0D00FCABF0438201DADD2276
:0D004100758159123EA0E582600302003E69
:1C3E160020F71430F6148883A88220F507E6A88375830022E280F7E49322E022BB
:203E3200C2D5E58330E70DD2D5E4C39582F582E49583F583E51A30E70BE4C39519F519E495
:163E5200951AF51A123DA030D50BE4C39582F582E49583F58322D2
:203E6800C2D5E58330E70DD2D5E4C39582F582E49583F583E51A30E70DB2D5E4C39519F5D3
:183E880019E4951AF51A123DED30D50BE4C39582F582E49583F5832250
:043EA0007582002205
:00000001FF
