:20009F0075C70075C50075C60075C38075C40043C11022AE82AF8375C78375C5018EC48F2C
:2000BF00C375C65A75C6A500AFC2C00712009FD0078F8222AE82AF8375C78375C5028EC447
:2000DF008FC38518C275C65A75C6A50002009FAE82AF8375C78375C5038EC48FC375C65AA3
:2000FF0075C6A50002009F43C1107E957F01EE4F60141EBEFF011FEE24B2F582EF3400F5BA
:20011F008374FFF080E8C3EE9495EF9401501EEE24B2FCEF3400FD8E8274F02FF5830EBEDF
:20013F0000010FE493FB8C828D83F080D99000000200EE7E007F00C3EE9495EF940150315B
:20015F0075C78375C5028EC475C300EE24B2F582EF3400F5830EBE00010FE0F5C275C65A1D
:12017F0075C6A500C007C00612009FD006D00780C6223B
:20019100759850438E40538EFE758BCC758DFFC2ABD28ED2ACD2A022E582FF700122C29901
:2001B1008F9920990543C11080F8C29922AD82AE83AFF0C2998D828E838FF0123682FC6020
:2001D100218C9920990543C11080F8C2998D828E838FF0123682FCBC1A01220DBD00D60E17
:0301F10080D32296
:2001F400AE82AF837C007D00C3EC9EED9F500A43C1100CBC00F20D80EF22AE82AF837C0013
:200214007D00C3EC9EED9F501D9003E8C007C006C005C0041201F4D004D005D006D0070C0D
:20023400BC00DF0D80DC22AF82E5264FF5821202C875820D0202C8AF82301D118F82120222
:20025400C88527828528838529F002034C8F8202032DE582FF700122D285EFC4540124FFB7
:200274009283EFA2E5E43324FF9282EF2323540124FF9281EF235401FE24FF9280D28400E1
:20029400C28400EF540124FF9283EF03540124FF9282EF03035401FE24FF9281EFA2E3E434
:2002B40033FF24FF9280D28400C2849000641201F4C28522E582FF700122C285EFC454017B
:2002D40024FF9283EFA2E5E43324FF9282EF2323540124FF9281EF235401FE24FF9280D2E2
:2002F4008400C28400EF540124FF9283EF03540124FF9282EF03035401FE24FF9281EFA217
:20031400E3E433FF24FF9280D28400C2849000640201F475820C0202C8E582FF600E8F8260
:200334001202C890371075F08002034C7582011202C89006400201F4AD82AE83AFF07C00A4
:200354008D828E838FF0123682FB6055BC10005050BB80005025EB24E050200CEC601C0D74
:20037400BD00010E8B82C007C006C005C004120266D004D005D006D00780C58D828E838FB6
:20039400F0123682FBA3AD82AE838B82C007C006C005C0041202C8D004D005D006D00780BC
:2003B4009F22C286903A981201F475801C00C284900FA01201F4D28400C2849000A012013B
:2003D400F4D28400C2849000A01201F475801400C2849003E81201F4D28400C284007580E0
:2003F4001100C2849000281201F475801000C2840075801300C2849000281201F475801076
:2004140000C2840075801600C2849000281201F475801000C2840075801800C2849003E859
:200434000201F4AF82E52D24E8500122E52F240540030204F38F821202C8852A82852B8325
:20045400852CF012034C74F6252D40067D207E00801DAB2D7C0075190A8C1A8B828C83120C
:2004740036D4AB82AC8374302BFBFD3395E0FE8D82120266AD2D7E0075190A8E1A8D828ED7
:200494008312369EAD8274302DF582120266E52F240350123000067D3A7E0080047D207E47
:2004B400008D82120266AD2E7E0075190A8E1A8D828E83C006C0051236D4AB8274302BF54E
:2004D40082120266D005D00675190A751A008D828E8312369EAD8274302DF5820202668FC4
:2004F400821202C8852A82852B83852CF012034C74F6252D40067E207F00801DAC2D7D0012
:2005140075190A8D1A8C828D831236D4AC82AD8374302CFCFE3395E0FF8E82120266AE2D1A
:200534007F0075190A8F1A8E828F8312369EAE8274302EF5821202663000067E3A7F0080FF
:20055400047E207F008E82120266AE2E7F0075190A8F1A8E828F83C007C0061236D4AC8247
:2005740074302CF582120266D006D00775190A751A008E828F8312369EAE8274302EF58251
:200594001202663000067E3A7F0080047E207F008E82120266AE2F7F0075190A8F1A8E8288
:2005B4008F83C007C0061236D4AC8274302CF582120266D006D00775190A751A008E828F0A
:2005D4008312369EAE8274302EF5821202667582200202661202C8AE327F0075190A8F1AAE
:2005F4008E828F83C007C0061236D4AC8274302CF582120266D006D00775190A751A008ECB
:20061400828F8312369EAE8274302EF582120266AE317F0075190A8F1A8E828F83C007C011
:20063400061236D4AC8274302CF582120266D006D00775190A751A008E828F8312369EAE0B
:200654008274302EF582120266AE307F0075190A8F1A8E828F83C007C0061236D4AC827436
:20067400302CF582120266D006D00775190A751A008E828F8312369EAE8274302EF58212B2
:08069400026675822002026675
:113710002020202020202020202020202020202000A8
:040000000200413287
:01000B0032C2
:0100130032BA
:01001B0032B2
:030023000212E7DF
:01002B0032A2
:01003300329A
:03003B0002073B7E
:05009A00C22202003E3D
:03003E000232602B
:20069C0075FA0075EA0090024774A8F07461A3F075DA49D2DE2243C110B210A21092879088
:2006BC000251E0FFE06006EF14900251F0900253E0FFE06006EF14900253F090024DE060CF
:2006DC000E90024EE0FFE06006EF1490024EF020A0139000ADE014F0E0700AD2A09000AD1B
:2006FC00740AF0D2050537E53724C45031753700E5346006D535037534000538E53824C4B5
:20071C00501C7538000539E53924E85011753900900249E0FFE06006EF14900249F022C07D
:20073C0025C0E0C0F0C082C083C007C006C005C004C003C002C001C000C0D075D00843C1A6
:20075C001010D803020878900247E0FEA3E0FF8EEA8FFA90024774A82EF074613FA3F030DC
:20077C00110930B50690024A7402F030110330B5047F0080027F01EF24FF9214201303304A
:20079C00B5047F0080027F01EF24FF921120120A2014032011047F0080027F01EF24FF9281
:2007BC0012A2B5921330150930B30690024B7402F030150330B3047F0080027F01EF24FFD3
:2007DC00921820170330B3047F0080027F01EF24FF921520160A2018032015047F00800243
:2007FC007F01EF24FF9216A2B3921730190930B40690024C7402F030190330B4047F0080F2
:20081C00027F01EF24FF921C201B0330B4047F0080027F01EF24FF9219201A0A201C032073
:20083C0019047F0080027F01EF24FF921AA2B4921B900265E014F0E0700AD22290026574A9
:20085C000AF0B21D900266E014F0E0700F9002667428F075D0001206B275D008D0D0D00028
:20087C00D001D002D003D004D005D006D007D083D082D0F0D0E0D02532858242858343853B
:20089C00F044AC3E900252ECF0853DF0ECA4FB900253740A2BF0C21E854282854383854466
:2008BC00F0C0041201BED00474022542F9E43543FAAB4474072542F545E43543F54685442C
:2008DC004774082542F548E43543F54985444AA83D301E030209D9900253E070030209D9B2
:2008FC003020030209D943C110758280C004C003C002C001C0001202C8853F828540838561
:20091C0041F012034C752A9E752B39752C8085392D85382E85372FA21092007582C0120420
:20093C0037D000D001D002D003D004900251E0600330219DC221880718EF70030209D990D6
:20095C000251ECF0900252ECF089828A838BF0123682FFBF2B448545828546838547F0129A
:20097C003682FFBF3F028032854882854983854AF0123682FFBF3F0280209039A675F080D6
:20099C00C004C003C002C001C0001201BED000D001D002D003D0040208ED854282854383FB
:2009BC008544F0C004C003C002C001C0001201BED000D001D002D003D0040208ED7582803F
:2009DC0012032D900254E4F0A21E2290000CE0602090000FE0701A753FAC75403975418094
:2009FC00753D03753E019039AA75F080120895C32290000BE4F09039BD75F0801201BE904B
:200A1C00000175F0001201BE9002547409F0753FCA754039754180753D05753E3D9039C757
:200A3C0075F080020895C20D900254740DF090024FE0FFBF50028027BF6602803CBF6E0266
:200A5C008051BF7466753FEC754039754180753D03753E1E9039D875F080120895804C7550
:200A7C003FEC754039754180753D03753E1E9039FE75F0801208958032753FEC7540397575
:200A9C004180753D03753E1E903A1275F0801208958018753FEC754039754180753D0375FD
:200ABC003E1E9039D875F080120895D32290000CE4F0C20D9002547407F0753F2475403A3D
:200ADC00754180753D03753E1E9039D875F080120895900254E4F090000CE024FF227F0A05
:200AFC00903A3575F080C0071201BED007BFA100400122EF240CF582E43400F583E0FE249C
:200B1C00AB500E8E05ED24DBF5821201A97FA18045EE24B550198E05ED24E5F582C0071210
:200B3C0001A9903A3575F0801201BED0078027EE24BF50198E05ED24EFF582C0071201A9F5
:200B5C00903A3775F0801201BED00780098E82C0071201A9D0078F060FEE240CF582E434A7
:200B7C0000F583E4F0020B09AD82AE83AFF0903A3975F080C007C006C0051201BED005D048
:200B9C0006D0078D828E838FF0C007C006C0051201BE903A4475F0801201BED005D006D05B
:200BBC00078D828E838FF01201BE854B821201A9753F4C75403A754180753D0F753E01906A
:200BDC0039C775F080120895D322E582FF7003020CC4903A5F75F080C0071201BED007BF89
:200BFC000A00500D8F0674302EF5821201A9020CACBF6400503B8F057E0075190A8E1A8D91
:200C1C00828E83C006C0051236D4AB8274302BF5821201A9D005D00675190A751A008D826E
:200C3C008E8312369EAD8274302DF5821201A9805F7E007519648E1A8F828E83C007C006C8
:200C5C001236D4AC8274302CF5821201A9D006D00775190A751A008F828E83C007C0061296
:200C7C0036D475190A751A0012369EAC8274302CF5821201A9D006D00775190A751A008FAD
:200C9C00828E8312369EAE8274302EF5821201A9753F6875403A754180753D01753E1F9034
:200CBC003A3575F0800208957F01BF0A005036903A5F75F080C0071201BED0078F067430A0
:200CDC002EF582C0071201A9753F6875403A754180753D0F753E01903A3575F08012089587
:200CFC00D0070F80C5BF64005065903A5F75F080C0071201BED0078F057E0075190A8E1A06
:200D1C008D828E83C007C006C0051236D4AB8274302BF5821201A9D005D00675190A751A28
:200D3C00008D828E8312369EAD8274302DF5821201A9753F7975403A754180753D0F753E98
:200D5C0001903A3575F080120895D0070F8096BFFB00400122903A5F75F080C0071201BE24
:200D7C00D0078F057E007519648E1A8D828E83C007C006C0051236D4AB8274302BF58212C1
:200D9C0001A9D005D00675190A751A008D828E83C006C0051236D475190A751A0012369EE7
:200DBC00AB8274302BF5821201A9D005D00675190A751A008D828E8312369EAD8274302D10
:200DDC00F5821201A9753F8A75403A754180753D0F753E01903A3575F080120895D0070F73
:200DFC00020D6B753F21754037754180753D0F753E01903A9B75F0801208957533009000C0
:200E1C00AB740BF09000ABE024F540012274052533500122120AC99000ABE4F075360AE533
:200E3C00337003020EFA903A9F75F0801201BE0533749C25334036AE337F0075190A8F1A10
:200E5C008E828F831236D4AE8274302EF5821201A9AE337F0075190A8F1A8E828F831236F8
:200E7C009EAE8274302EF5821201A98057AE337F007519648F1A8E828F831236D4AE8274CF
:200E9C00302EF5821201A9AE337F0075190A8F1A8E828F831236D475190A751A0012369EB9
:200EBC00AE8274302EF5821201A9AE337F0075190A8F1A8E828F8312369EAE8274302EF541
:200EDC00821201A9753FAE75403A754180753D01753E1F903AA875F0801208958018753F5A
:200EFC00AE75403A754180753D01753E1F903ABF75F0801208951209E7400122120AFA7571
:200F1C003FCE75403A754180753D32753E019039AA75F080120895020E2085824C85834D0C
:200F3C0085F04E753F21754037754180753D0F753E01903A9B75F0801208957401254CFA8D
:200F5C00E4354DFBAC4E8A828B838CF0123682F9B92A028011C004C003C002120AC9D0024B
:200F7C00D003D004800590000CE4F0C004C003C0021209E7D002D003D004400122903ADFE9
:200F9C0075F080C004C003C0021201BED002D003D00430A30678E7793A800478EA793A7FBA
:200FBC0080888289838FF0C004C003C0021201BED002D003D0048A828B838CF0123682FA13
:200FDC00BA2A02803890000CE06032903AEE75F0801201BE90000C75F0001201BE90001069
:200FFC00E07009903AF975F0801201BE900010E4F090000FF090000EF090000DF0854C8292
:20101C00854D83854EF01201BE7401254CFDE4354DFEAF4E8D828E838FF0123682FDBD2A3A
:20103C00099039AA75F0800201BE753FCE75403A754180753D32753E019039AA75F08002D9
:20105C000895AF82753600BFA100500FEF240CF582E43400F5830FE4F080EC2290000CE425
:20107C00F01209E740012290373075F0801201BE753F1375403B754180753D32753E01903D
:20109C0039AA75F080020895753F21754037754180753D0F753E01903A9B75F08012089568
:2010BC00503275820012105E753600900254740AF0753F2E75403B754180753D0F753E019F
:2010DC00903B2475F0801208955009900010E0FF90024FF022753F4475403B754180753DD6
:2010FC000F753E01903B3975F080120895400122753F5D75403B754180753D0F753E0190DA
:20111C003B5275F080120895400122900254740CF0753F7475403B754180753D0A753E3CE0
:20113C00903B6975F08012089540012275820012105E7536009002547402F0753F89754008
:20115C003B754180753D0F753E01903B7F75F08012089540012290000FE024D075F00AA4C6
:20117C00FF900010E02F24D0F53C900012E024D075F00AA4FF900013E02F24D0F53B900092
:20119C0015E024D075F00AA4FF900016E02F24D0F53A900018E024D075F00AA4FF90001929
:2011BC00E02F24D0F53990001BE024D075F00AA4FF90001CE02F24D0F53890001EE024D0F3
:2011DC0075F00AA4FF90001FE02F24D0F53722753FA275403B754180753D0F753E01903B25
:2011FC009775F080120895502B75820012105E753600900254740BF0753FBE75403B75419E
:20121C0080753D0F753E01903BB375F0801208955002D322C322753FD975403B7541807557
:20123C003D0F753E01903BCE75F08012089540030212E5753FFD75403B754180753D0F751C
:20125C003E01903BEA75F08012089540030212E5753F2275403C754180753D0F753E0190AC
:20127C003C0E75F080120895505F900254740EF075820012105E753600753F3B75403C75F6
:20129C004180753D0F753E01903C3375F0801208955034900250E4F07F00EF240CF582E436
:2012BC003400F583E0FEBE2C02801CEF240CF582E43400F5830FE024D0FE900250E0FD75C5
:2012DC00F00AA42EF080D3D322C322C025C0E0C0F0C082C083C007C006C005C004C003C0B6
:2012FC0002C001C000C0D075D010209803022C6A43C110900252E0900251F0900255E02481
:20131C0056F582E43402F583E599F0900255E0FF2456F582E43402F583E0FEBE4E0280032C
:20133C0002146D8F147D00740C2CF582E43DF58375190D8D1AC017C016C015C01475D00055
:20135C0012369E75D010AA82AB83D014D015D016D017EA2456F582EB3402F583E0FBBB49F3
:20137C0002800302146D740B2CF582E43DF58375190D751A00C017C016C015C01475D000C9
:20139C0012369E75D010AA82AB83D014D015D016D017EA2456F582EB3402F583E0FBBB20DC
:2013BC0002800302146D740A2CF582E43DF58375190D751A00C017C016C015C01475D0008A
:2013DC0012369E75D010AA82AB83D014D015D016D017EA2456F582EB3402F583E0FBBB5468
:2013FC007074092CF582E43DF58375190D751A00C017C016C015C01475D00012369E75D0B8
:20141C0010AA82AB83D014D015D016D017EA2456F582EB3402F583E0FBBB4F3574082CF585
:20143C0082E43DF58375190D751A00C017C01675D00012369E75D010AC82AD83D016D017F3
:20145C00EC2456F582ED3402F583E0FDBD4E02D220900254E0FD24F15003022C56ED240A52
:20147C0083F582ED241383F583E4735D5696B856F456D6A54CF3870331A5172C161F2C2160
:20149C002C232B231516152914AC360536EC240CF582E43400F583E599F07420B5993490C2
:2014BC000255E0FC7B00740C2CF582E43BF58375190D8B1A75D00012369E75D010AB82AC0F
:2014DC0083EB2456F582EC3402F583E0FCBC3A03753600742CB599028003022C569002549A
:2014FC00E4F0F536022C567454B5996E8F137C00740C2BF582E43CF58375190D8C1AC017D9
:20151C00C014C01375D00012369E75D010A982AA83D013D014D017E92456F582EA3402F593
:20153C0083E0FABA5334740B2BF582E43CF58375190D751A00C01775D00012369E75D010B7
:20155C00AB82AC83D017EB2456F582EC3402F583E0FCBC4405D21E022C567452B5990280CB
:20157C0003022C568F137C00740C2BF582E43CF58375190D8C1AC014C01375D00012369EDD
:20159C0075D010A982AA83D013D014E92456F582EA3402F583E0FABA4F028003022C5674E9
:2015BC000B2BF582E43CF58375190D751A0075D00012369E75D010AB82AC83EB2456F582E8
:2015DC00EC3402F583E0FCBC52028003022C56900251E4F0022C56AC360536EC240CF58277
:2015FC00E43400F583E599F07422B59934900255E0FC7B00740C2CF582E43BF58375190D26
:20161C008B1A75D00012369E75D010AB82AC83EB2456F582EC3402F583E0FCBC2003753651
:20163C0000742CB599028003022C56900255E0FC7B00740C2CF582E43BF58375190D8B1A5F
:20165C0075D00012369E75D010AB82AC83EB2456F582EC3402F583E0FCBC22028003022CAF
:20167C0056900254E4F0F536022C567431B599028003022C56D21E022C56AC360536EC24F2
:20169C000CF582E43400F583E599F0744BB59967900255E0FB7C00740C2BF582E43CF58341
:2016BC0075190D8C1AC014C01375D00012369E75D010A982AA83D013D014E92456F582EAC3
:2016DC003402F583E0FABA4C2E740B2BF582E43CF58375190D751A0075D00012369E75D0DF
:2016FC0010AB82AC83EB2456F582EC3402F583E0FCBC4303753600740DB599028003022CE1
:20171C0056900255E0FC7B00740C2CF582E43BF58375190D8B1A75D00012369E75D010ABF4
:20173C0082AC83EB2456F582EC3402F583E0FCBC22028003022C56900254E4F0F536022C90
:20175C0056743EB599129039AA75F08075D0001201BE75D010022C56BE4702800302184BCF
:20177C008F137C00740C2BF582E43CF58375190D8C1AC017C016C015C014C01375D00012B4
:20179C00369E75D010A982AA83D013D014D015D016D017E92456F582EA3402F583E0FABA2D
:2017BC004E02800302184B740B2BF582E43CF58375190D751A00C017C016C015C014C013C9
:2017DC0075D00012369E75D010A982AA83D013D014D015D016D017E92456F582EA3402F5AD
:2017FC0083E0FABA4949740A2BF582E43CF58375190D751A00C017C016C01575D000123633
:20181C009E75D010AB82AC83D015D016D017EB2456F582EC3402F583E0FCBC5212903C422B
:20183C0075F08075D0001201BE75D010022C56E4BE3A0104FC70030219D18F127B00740CE0
:20185C002AF582E43BF58375190D8B1AC017C016C015C014C013C01275D00012369E75D089
:20187C0010A882A983D012D013D014D015D016D017E82456F582E93402F583E0F9B9520235
:20189C0080030219D1740B2AF582E43BF58375190D751A00C017C016C015C014C013C012E1
:2018BC0075D00012369E75D010A882A983D012D013D014D015D016D017E82456F582E934E5
:2018DC0002F583E0F9B9420280030219D1740A2AF582E43BF58375190D751A00C017C016A0
:2018FC00C015C014C013C01275D00012369E75D010A882A983D012D013D014D015D016D064
:20191C0017E82456F582E93402F583E0F9B9500280030219D174092AF582E43BF58375198E
:20193C000D751A00C017C016C015C014C013C01275D00012369E75D010A882A983D012D06C
:20195C0013D014D015D016D017E82456F582E93402F583E0F9B9435D74082AF582E43BF5EF
:20197C008375190D751A00C017C016C015C01475D00012369E75D010AA82AB83D014D015A5
:20199C00D016D017EA2456F582EB3402F583E0FBBB2B229000ABE0FB24F650099000AB74CF
:2019BC000BF0022C56D2029002547408F0C20F753300022C56EC7003021B218F137C00743A
:2019DC000C2BF582E43CF58375190D8C1AC017C016C015C014C01375D00012369E75D010BB
:2019FC00A982AA83D013D014D015D016D017E92456F582EA3402F583E0FABA490280030224
:201A1C001B21740B2BF582E43CF58375190D751A00C017C016C015C014C01375D0001236D5
:201A3C009E75D010A982AA83D013D014D015D016D017E92456F582EA3402F583E0FABA546C
:201A5C00028003021B21740A2BF582E43CF58375190D751A00C017C016C015C014C0137527
:201A7C00D00012369E75D010A982AA83D013D014D015D016D017E92456F582EA3402F583FC
:201A9C00E0FABA4D028003021B2174092BF582E43CF58375190D751A00C017C016C015C063
:201ABC0014C01375D00012369E75D010A982AA83D013D014D015D016D017E92456F582EA0E
:201ADC003402F583E0FABA433C74082BF582E43CF58375190D751A00C017C016C01575D082
:201AFC000012369E75D010AB82AC83D015D016D017EB2456F582EC3402F583E0FCBC2B0543
:201B1C00D20C022C56E4BE200104FC7003021CD08F127B00740C2AF582E43BF58375190DB4
:201B3C008B1AC017C016C015C014C013C01275D00012369E75D010A882A983D012D013D07E
:201B5C0014D015D016D017E82456F582E93402F583E0F9B93A028003021CD0740B2AF582D4
:201B7C00E43BF58375190D751A00C017C016C015C014C013C01275D00012369E75D010A865
:201B9C0082A983D012D013D014D015D016D017E82456F582E93402F583E0F9B94C0280034D
:201BBC00021CD0740A2AF582E43BF58375190D751A00C017C016C015C014C013C01275D0FB
:201BDC000012369E75D010A882A983D012D013D014D015D016D017E82456F582E93402F510
:201BFC0083E0F9B947028003021CD074092AF582E43BF58375190D751A00C017C016C01599
:201C1C00C014C013C01275D00012369E75D010A882A983D012D013D014D015D016D017E816
:201C3C002456F582E93402F583E0F9B94D028003021CD074082AF582E43BF58375190D75EA
:201C5C001A00C017C016C015C014C013C01275D00012369E75D010A882A983D012D013D0E8
:201C7C0014D015D016D017E82456F582E93402F583E0F9B9433E74072AF582E43BF58375D7
:201C9C00190D751A00C017C016C015C01475D00012369E75D010AA82AB83D014D015D01694
:201CBC00D017EA2456F582EB3402F583E0FBBB2B03021E64EC7003021EAF8F137C00740C99
:201CDC002BF582E43CF58375190D8C1AC017C016C015C014C01375D00012369E75D010A91B
:201CFC0082AA83D013D014D015D016D017E92456F582EA3402F583E0FABA3A028003021EBB
:201D1C00AF740B2BF582E43CF58375190D751A00C017C016C015C014C01375D00012369EC1
:201D3C0075D010A982AA83D013D014D015D016D017E92456F582EA3402F583E0FABA500209
:201D5C008003021EAF740A2BF582E43CF58375190D751A00C017C016C015C014C01375D0C5
:201D7C000012369E75D010A982AA83D013D014D015D016D017E92456F582EA3402F583E0E9
:201D9C00FABA49028003021EAF74092BF582E43CF58375190D751A00C017C016C015C0149F
:201DBC00C01375D00012369E75D010A982AA83D013D014D015D016D017E92456F582EA34EB
:201DDC0002F583E0FABA4C028003021EAF74082BF582E43CF58375190D751A00C017C016AC
:201DFC00C015C014C01375D00012369E75D010A982AA83D013D014D015D016D017E9245697
:201E1C00F582EA3402F583E0FABA43028003021EAF74072BF582E43CF58375190D751A008D
:201E3C00C017C016C01575D00012369E75D010AB82AC83D015D016D017EB2456F582EC347A
:201E5C0002F583E0FCBC2B4B8F137C0074092BF582E43CF58375190D8C1A75D00012369E9D
:201E7C0075D010AB82AC83EB2456F582EC3402F583E0FCBC4C03D38001C392064006300B08
:201E9C0003022C56C209C207C2089002547403F0022C56BE4B028003021F408F137C0074EF
:201EBC000C2BF582E43CF58375190D8C1AC017C016C01575D00012369E75D010AB82AC8321
:201EDC00D015D016D017EB2456F582EC3402F583E0FCBC4F4FBD0203753600A21FB3921EF7
:201EFC00C21F300223AC367D001CBCFF011DEC240CFCED3400FD8C828D83E0240AFB8C82D1
:201F1C008D83F0C20F753600E5367003022C56753600903C0E75F08075D0001201BE75D052
:201F3C0010022C56BE54028003022C568F147D00740C2CF582E43DF58375190D8D1AC015E3
:201F5C00C01475D00012369E75D010AA82AB83D014D015EA2456F582EB3402F583E0FBBBE4
:201F7C004F028003022C56740B2CF582E43DF58375190D751A0075D00012369E75D010ACDC
:201F9C0082AD83EC2456F582ED3402F583E0FDBD4E028003022C56D21F022C562009030267
:201FBC002102E5367068740DB599028003022C5630063D8F147D0074092CF582E43DF583CB
:201FDC0075190D8D1A75D00012369E75D010AC82AD83EC2456F582ED3402F583E0FDBD2291
:201FFC0003D38001C39207BD6D03D38001C39208D201300708900254E4F0022C56300605A9
:20201C0075350205349002547405F0022C56740DB5360280030220DBBE22030220DB8F147B
:20203C007D00740C2CF582E43DF58375190D8D1AC015C01475D00012369E75D010AA82AB09
:20205C0083D014D015EA2456F582EB3402F583E0FBBB226B740B2CF582E43DF58375190D2B
:20207C00751A00C015C01475D00012369E75D010AA82AB83D014D015EA2456F582EB34026D
:20209C00F583E0FBBB2C38740A2CF582E43DF58375190D751A0075D00012369E75D010ACA2
:2020BC0082AD83EC2456F582ED3402F583E0FDBD220D746DB59902D208753600022C567463
:2020DC00F62536400EE5362401F582E43400F583E599F0E53624F35008753600D207022C54
:2020FC00560536022C5630063CBE30398F147D00740C2CF582E43DF58375190D8D1AC01721
:20211C00C01675D00012369E75D010AC82AD83D016D017EC2456F582ED3402F583E0FDBD10
:20213C0022030221DDBE340280030221E28F147D00740C2CF582E43DF58375190D8D1AC004
:20215C0015C01475D00012369E75D010AA82AB83D014D015EA2456F582EB3402F583E0FB88
:20217C00BB3863740B2CF582E43DF58375190D751A00C015C01475D00012369E75D010AA35
:20219C0082AB83D014D015EA2456F582EB3402F583E0FBBB2B30740A2CF582E43DF5837516
:2021BC00190D751A0075D00012369E75D010AC82AD83EC2456F582ED3402F583E0FDBD223C
:2021DC0005D209753601740DB599028003022C56900254E4F0022C56300A43743BB59902C5
:2021FC008021740DB59902801A746025364014AD360536ED240CF582E43400F583E599F084
:20221C00022C56E536240CF582E43400F583E4F0F536C20A900254E4F0D20B022C56BE2CFC
:20223C0002800302232C8F147D00740C2CF582E43DF58375190D8D1AC015C01475D000128E
:20225C00369E75D010AA82AB83D014D015EA2456F582EB3402F583E0FB90F003E493FAEBE8
:20227C00B51202800302232C740B2CF582E43DF58375190D751A00C015C01475D00012368A
:20229C009E75D010AA82AB83D014D015EA2456F582EB3402F583E0FB90F002E493FAEBB52A
:2022BC00126E740A2CF582E43DF58375190D751A00C015C01475D00012369E75D010AA8249
:2022DC00AB83D014D015EA2456F582EB3402F583E0FB90F001E493FAEBB5123474092CF526
:2022FC0082E43DF58375190D751A0075D00012369E75D010AC82AD83EC2456F582ED34029F
:20231C00F583E0FD90F000E493FCEDB5140280047D0080027D01ED24FF920A740DB5990223
:20233C008003022C56753601900254E4F0022C56743EB5990A900254E4F0D21E022C56BE9A
:20235C0052028003022C568F147D00740C2CF582E43DF58375190D8D1AC015C01475D000FA
:20237C0012369E75D010AA82AB83D014D015EA2456F582EB3402F583E0FBBB520280030200
:20239C002C56740B2CF582E43DF58375190D751A0075D00012369E75D010AC82AD83EC24CC
:2023BC0056F582ED3402F583E0FDBD45028003022C56900251E4F0022C56300D5B90024FFD
:2023DC00E0FDBD50028003BD66057420B5990FBD74028003BD6E297464B5990280227460B1
:2023FC002536401C742EB59903022C56AD360536ED240CF582E43400F583E599F0022C565F
:20241C00C20DC20FE536240CF582E43400F583E4F0F536D21E022C5690024FE0FDBD50026E
:20243C008003022591BE3D0280030225918F137C00740C2BF582E43CF58375190D8C1AC034
:20245C0017C016C015C014C01375D00012369E75D010A982AA83D013D014D015D016D017A6
:20247C00E92456F582EA3402F583E0FABA68028003022591740B2BF582E43CF58375190D41
:20249C00751A00C017C016C015C014C01375D00012369E75D010A982AA83D013D014D015E4
:2024BC00D016D017E92456F582EA3402F583E0FABA6E028003022591740A2BF582E43CF54D
:2024DC008375190D751A00C017C016C015C014C01375D00012369E75D010A982AA83D0134F
:2024FC00D014D015D016D017E92456F582EA3402F583E0FABA6902800302259174092BF5E1
:20251C0082E43CF58375190D751A00C017C016C015C014C01375D00012369E75D010A98287
:20253C00AA83D013D014D015D016D017E92456F582EA3402F583E0FABA683A74082BF58213
:20255C00E43CF58375190D751A00C017C016C01575D00012369E75D010AB82AC83D015D08A
:20257C0016D017EB2456F582EC3402F583E0FCBC630302292CBD740280030226E9BE2002D0
:20259C0080030226E98F137C00740C2BF582E43CF58375190D8C1AC017C016C015C014C05C
:2025BC001375D00012369E75D010A982AA83D013D014D015D016D017E92456F582EA3402A1
:2025DC00F583E0FABA3A0280030226E9740B2BF582E43CF58375190D751A00C017C016C0B3
:2025FC0015C014C01375D00012369E75D010A982AA83D013D014D015D016D017E92456F55A
:20261C0082EA3402F583E0FABA470280030226E9740A2BF582E43CF58375190D751A00C071
:20263C0017C016C015C014C01375D00012369E75D010A982AA83D013D014D015D016D017C4
:20265C00E92456F582EA3402F583E0FABA4B0280030226E974092BF582E43CF58375190D25
:20267C00751A00C017C016C015C014C01375D00012369E75D010A982AA83D013D014D01502
:20269C00D016D017E92456F582EA3402F583E0FABA543A74082BF582E43CF58375190D75F7
:2026BC001A00C017C016C01575D00012369E75D010AB82AC83D015D016D017EB2456F582F8
:2026DC00EC3402F583E0FCBC200302292CBD66028003022841BE3A0280030228418F137C19
:2026FC0000740C2BF582E43CF58375190D8C1AC017C016C015C014C01375D00012369E75FA
:20271C00D010A982AA83D013D014D015D016D017E92456F582EA3402F583E0FABA43028021
:20273C0003022841740B2BF582E43CF58375190D751A00C017C016C015C014C01375D000BE
:20275C0012369E75D010A982AA83D013D014D015D016D017E92456F582EA3402F583E0FA05
:20277C00BA4B028003022841740A2BF582E43CF58375190D751A00C017C016C015C014C050
:20279C001375D00012369E75D010A982AA83D013D014D015D016D017E92456F582EA3402BF
:2027BC00F583E0FABA5402800302284174092BF582E43CF58375190D751A00C017C016C05F
:2027DC0015C014C01375D00012369E75D010A982AA83D013D014D015D016D017E92456F578
:2027FC0082EA3402F583E0FABA203A74082BF582E43CF58375190D751A00C017C016C01553
:20281C0075D00012369E75D010AB82AC83D015D016D017EB2456F582EC3402F583E0FCBC00
:20283C002E0302292CBD6E028003022C56BE20028003022C568F147D00740C2CF582E43D75
:20285C00F58375190D8D1AC015C01475D00012369E75D010AA82AB83D014D015EA2456F5FD
:20287C0082EB3402F583E0FBBB3A028003022C56740B2CF582E43DF58375190D751A00C0A3
:20289C0015C01475D00012369E75D010AA82AB83D014D015EA2456F582EB3402F583E0FB41
:2028BC00BB43028003022C56740A2CF582E43DF58375190D751A00C015C01475D0001236DB
:2028DC009E75D010AA82AB83D014D015EA2456F582EB3402F583E0FBBB4B028003022C5668
:2028FC0074092CF582E43DF58375190D751A0075D00012369E75D010AC82AD83EC2456F5A0
:20291C0082ED3402F583E0FDBD54028003022C56D20D022C56200D030229B390024FE0FD58
:20293C00BD50028003BD6E05740AB59912BD66057422B5990ABD7432742EB59902802B7451
:20295C00F62536402574F72536401AAD3605360DED3395E0FCED2401F582EC3400F583E5C3
:20297C0099F0022C560536022C56C20DC20F74F625364018D21EAD360DED3395E0FCED2430
:20299C0001F582EC3400F583E4F08005900251E4F0753600022C5690024FE0FDBD5040BE03
:2029BC003A3D8F137C00740C2BF582E43CF58375190D8C1AC017C016C01575D00012369EBE
:2029DC0075D010AB82AC83D015D016D017EB2456F582EC3402F583E0FCBC2903022A7ABDDB
:2029FC006E3FBE303C8F137C00740C2BF582E43CF58375190D8C1AC017C016C01575D00004
:202A1C0012369E75D010AB82AC83D015D016D017EB2456F582EC3402F583E0FCBC200280A1
:202A3C003DBD66028003BD743ABE34378F157E00740C2DF582E43EF58375190D8E1AC01707
:202A5C0075D00012369E75D010AD82AE83D017ED2456F582EE3402F583E0FEBE3805D20D61
:202A7C00022C567435B599028003022B2B8F157E00740C2DF582E43EF58375190D8E1AC0FF
:202A9C0017C016C01575D00012369E75D010AB82AC83D015D016D017EB2456F582EC3402CC
:202ABC00F583E0FCBC3168740B2DF582E43EF58375190D751A00C017C016C01575D0001291
:202ADC00369E75D010AB82AC83D015D016D017EB2456F582EC3402F583E0FCBC2031740AC6
:202AFC002DF582E43EF58375190D751A00C01775D00012369E75D010AD82AE83D017ED24A3
:202B1C0056F582EE3402F583E0FEBE2C0280757452B599028003022C568F157E00740C2D85
:202B3C00F582E43EF58375190D8E1AC016C01575D00012369E75D010AB82AC83D015D016D3
:202B5C00EB2456F582EC3402F583E0FCBC52028003022C56740B2DF582E43EF58375190D98
:202B7C00751A0075D00012369E75D010AD82AE83ED2456F582EE3402F583E0FEBE450280ED
:202B9C0003022C56D221022C567422B599028003022C2DD20F7E00740C2FF582E43EF58338
:202BBC0075190D8E1A75D00012369E75D010AE82AF83EE2456F582EF3402F583E0FFBF2C8E
:202BDC0020AE367F001EBEFF011FEE240CFEEF3400FF8E828F83E02411FD8E828F83F08057
:202BFC0059AE367F001EBEFF011FEE240CFEEF3400FF8E828F83E0241BFD8E828F83F090E4
:202C1C0000ABE0FF0F9000ABEFF0900254E4F08029E59924D05023200F0FE53375F00AA434
:202C3C00FFE599FE2F24D0F533AF360536EF240CF582E43400F583E599F0900255E0240112
:202C5C00F0E0FF24F35005900255E4F0C298D0D0D000D001D002D003D004D005D006D007CC
:202C7C00D083D082D0F0D0E0D02532AD82AE83AFF07C00903C4775F080C007C006C005C077
:202C9C00041201BED004D005D006D007740A2DF9E43EFA8F0389828A838BF0E41235D48D7C
:202CBC00828E838FF0C0041201BED0049000AB7409F07536003008067E517F3C80047E550B
:202CDC007F3C7D80753F5975403C8D41753D0F753E028E828F838DF0C004120895D0047F79
:202CFC0000EF240CF582E43400F583E0FEBE3A0050198C06EE75F00AA4FEEF240CF582E448
:202D1C003400F5830FE0FD2EFC80D6C004120106D0049000B6E07E0025E0FFEE33FEEF2FE9
:202D3C00FFEE33FE74052FFFE43EFEEF24B2F582EE3400F583ECF0E54F254F25E0FFAD3C4B
:202D5C007E00ED24ECFDEE34FFFEC3ED9403EE64809480500BE53C24ECFD3395E0FE8004E0
:202D7C007D037E00ED52079000B6E07D0025E0FEED33FDEE2EFEED33FD74062EFEE43DFD35
:202D9C00EE24B2F582ED3400F583EFC454F0FFE53B5207EFF09000B6E07E0025E0FFEE332C
:202DBC00FEEF2FFFEE33FE74072FFFE43EFEEF24B2F582EE3400F583E53AC40354F8FFE508
:202DDC00390303543FFEEF5206EEF09000B6E07E0025E0FFEE33FEEF2FFFEE33FE74082F34
:202DFC00FFE43EFEEF24B2F582EE3400F583E5395403030354C0FFE5385207EFF09000B699
:202E1C00E0FFBF63079000B6E4F080060F9000B6EFF0020152C20E7F00EF240CFDE43400E2
:202E3C00FE0F8D828E83E0600543C11080EBBFA000500FEF240CF582E43400F5830FE4F0BE
:202E5C0080EC90000CE0FFBF3F02800890000DE0FEBE3F06200703021078BF4403022FA0DE
:202E7C00BF4B02805BBF4C030230EEBF5003022F04BF52028064BF5302802FBF5803022FD5
:202E9C00ACBF6403022FA0BF6B028034BF6C030230EEBF70028051BF7202803EBF7302809E
:202EBC0009BF7803022FAC023233D2A290006412020EC2A2903C6A75F080120F3602323C9F
:202EDC00D2A2754F0390000175F000122C87903C7975F080120F3602323C903C8875F080B6
:202EFC00120F36C2A002323C20080302323C900010E0FFBF30005003022F94EF24C6500340
:202F1C00022F94900011E0FFBF30005003022F94EF24C65003022F94900012E0FFBF3000E8
:202F3C004056EF24C64051900013E0FFBF30004047EF24C640429000001200EE900010E012
:202F5C00F5189000001200D3900011E0F5189000011200D3900012E0F5189000021200D3C9
:202F7C00900013E0F5189000031200D3903C9A75F080120F3602323C903CB175F080120F98
:202F9C003602323C20080302323C120DFF02323C90000DE0FFBF6F028008BF4F028003027D
:202FBC0030BF20080302323C900010E0FEBE300050030230B3EE24C650030230B390001116
:202FDC00E0FDBD30004005ED24C65006ED60030230B3900012E0FCBC30004005EC24C6508F
:202FFC0006EC60030230B3BE3009758200120BE60230A7ED700D8E03EB24D0F582120BE65D
:20301C000230A7EC70178E03EB24D075F00AA4FB8D02EA2B24D0F582120BE6806E8D027BC0
:20303C0000EA24D0F519EB34FFF51A90000AC006C005C0041235EFAA82AB83D004D005D069
:20305C00068C007900E82AFAE93BFBEA24D0FAEB34FFFBC374329A74808BF063F08095F063
:20307C005011EE24FE500C903CB175F080120F3602323CEE24D075F064A4FEED24D075F0AB
:20309C000AA42E2C24D0F582120BE6903CC475F080120F3602323C903CB175F080120F36A9
:2030BC0002323CBF75028008BF5502800302323CD2A190006412020EC2A1754F029000017A
:2030DC0075F000122C87903CDC75F080120F3602323C90000DE0FFBF75028008BF55028086
:2030FC000302320A20080302323C900010E0FEBE300050030231FFEE24C650030231FF90FA
:20311C000011E0FEBE300050030231FFEE24C650030231FF900012E0FEBE300050030231E0
:20313C00FFEE24C650030231FF900013E0FEBE300050030231FFEE24C650030231FF900036
:20315C0014E0FEBE300050030231FFEE24C650030231FF900015E0FEBE300050030231FF9B
:20317C00EE24C650030231FF900016E0FEBE300050030231FFEE24C650030231FF900017DB
:20319C00E0FEBE300050030231FFEE24C64054900018E0FEBE3000404AEE24C6404590006B
:2031BC0019E0FEBE3000403BEE24C6403690001AE4F090001BE0FEE4BE6D0104700BBE747D
:2031DC00010470057C75FD80048E047D008C4B90001075F000120B84903CEC75F080120F9D
:2031FC0036803D903D0575F080120F368032BF65028003BF452AD2A390006412020EC2A339
:20321C00754F0190000175F000122C87903D1975F080120F368009903CB175F080120F36AE
:20323C0043C1107F00EF240CFDE43400FE8D828E83E0600FEF240CF582E43400F5830FE425
:20325C00F080E2227593007594FF7592007591007595007596FF75B20075B10075B30275C1
:20327C00B41C75CA0075C90075C00075B0FF75A00075B881759700D2AF7534009000AD74E2
:20329C000AF09000AE7406F09000AF7402F09000B0F09000B1F090024CF090024BF090023D
:2032BC004AF090024DE4F0C2201201069000B6E0249C50059000B6E4F09000B2E0FFBF30A5
:2032DC00004032EF24C6402D9000B3E0FFBF30004023EF24C6401E9000B4E0FFBF3000401D
:2032FC0014EF24C6400F9000B5E0FFBF30004005EF24C650129000B57430F09000B4F09046
:20331C0000B3F09000B2F012015212019112069C1203B61210A42020091210F11211EB12F2
:20333C00123290024E743CF075C1659000017430F090000BE4F090024EE0700B90024DE084
:20335C00600590024DE4F0100C028021753F21754037754180753D0F753E01903A9B75F044
:20337C0080120895903D2675F0801201BE300B1D122E31753F3575403D754180753D0F7549
:20339C003E01903C0E75F080120895C20B101202802790024DE0FF7E008F828E83A375193D
:2033BC00048E1A12369EAE8290024DEEF090024E743CF075828012032D101602801E75827C
:2033DC0000120BE61201069000B57430F09000B4F09000B3F09000B2F01201521005028047
:2033FC00061211EB121232101A02803D120AC97582801202C890000C75F00012034C201A8A
:20341C000543C11080F8C21A120A427582841202C890000BE4F090000175F00012034C2088
:20343C001A0543C11080F8C21A1022030235127582801202C890024DE0FFBF010B903D447E
:20345C0075F08012034C8034BF020B903D4975F08012034C8026BF030B903D4E75F08012A9
:20347C00034C801830A3067E537F3D80047E587F3D7D808E828F838DF012034C75828E1239
:20349C0002C8900250E0FF7E0075190A8E1A8F828E831236D4AE8274302EF5821202669006
:2034BC000250E0FF7E0075190A8E1A8F828E8312369EAE8274302EF582120266752A5D7595
:2034DC002B3D752C8085392D85382E85372FA21092007582C71204377582CF1202C8900203
:2034FC004FE0F582120266853C30853B31853A327582C01205E81001030235CE10060302D3
:20351C0035BA90024DE07003023594753F21754037754180753D0F753E01903A9B75F080ED
:20353C0012089590000BE4F030072A90024DE0FFBF01067D6D7E008011BF02067C757F003C
:20355C0080047C747F008C058F068D4B90000175F000120B84753FAE75403A754180753D8E
:20357C000F753E01903D5E75F080120895903D6C75F080120F368026200723D2A3900064DF
:20359C0012020EC2A390000BE4F0F54F90000175F000122C87903D8475F080120F369000FD
:1835BC000BE4F07582841202C890000175F00012034C43C110023352CF
:203721002043554143554F4E20302E312E39004D612050696E204D61632044696E68203A21
:2037410020303030300A436163206C656E6820636875207669657420484F412068617920FE
:203761007468756F6E67206465752064756F630A312E4C656E682062617420746869657405
:203781002062690A707070702C626174202D2076692064753A20303030302C6261740A3212
:2037A1002E4C656E68207461742074686965742062690A707070702C746174202D20766936
:2037C1002064753A20303030302C7461740A332E4C656E68206B69656D207472612074723B
:2037E100616E6720746861692074686965742062690A707070702C6B74202D2076692064FE
:20380100753A20303030302C6B740A342E4C656E68207468617920646F69206D6120706901
:203821006E3A20707070702C70696E2C787878780A7669206475203A20303030302C70695F
:203841006E2C31323334200A5468617920646F69206D612070696E20747520303030302089
:203861002D3E20313233340A352E4C656E682072657365742073696D2D67736D0A70707084
:20388100702C72732D2076692064753A20303030302C72730A362E4C656E68206C69657493
:2038A100206B652064616E682062610A707070702C64622D2076692064753A20303030307E
:2038C1002C64620A372E4C656E6820786F612064616E682062613A20707070702C786F616B
:2038E1002C7878780A76643A20303030302C786F612C31352020786F6120736F2064696553
:203901006E2074686F6169207468752031350A76643A20303030302C786F612C30202020DE
:20392100786F6120746F616E20626F2064616E682062610A382E4C656E68206C75752064EC
:20394100616E682062613A20707070702C6C75752C787878787878787878780A76643A2096
:20396100303030302C6C75752C303931323334353637380A6C757520736F206469656E2089
:2039810074686F616920303931323334353637382076616F2064616E68206261002020544C
:2039A1004D41202000412F0D001A00544B3C31303030204B2042414F43414F0041542B43D2
:2039C1004D47533D2200220D0020202053454E44494E472020200041542B435553443D314C
:2039E1002C222A31303123222C0D0020204B49454D20545241205344542020200041542BA6
:203A0100435553443D312C222A31313023222C0D0041542B435553443D312C222A30232236
:203A21002C0D0020204B49454D2054524120544B202020000D002C0041542B435042573D5E
:203A41002C2200222C3132392C220020202053454E44494E47204350425720202000415436
:203A61002B435042573D002020202044454C4554494E47202020200020202E2E44454C45AF
:203A810054494E472E2E2020002E2E2E2E44454C4554494E472E2E2E2E0041540D00415464
:203AA1002B435042523D002C3235300D00202053454E44494E472043504252202000415442
:203AC1002B435042523D312C3235300D0044414E47204755492042414F2043414F002052DF
:203AE100454C41593D004F4E004F4646000D544B204368696E683D000D546169206B686F65
:203B0100616E20636F6E2064756F6920313030303000204755492048554F4E472044414EFA
:203B210020200041542B4353504E3F0D002054454E204D414E47200041542B434C54533D67
:203B4100310D0020424154204C41592047494F200041542B434F50533D320D00204E4741A3
:203B610054204D414E47200041542B434F50533D300D00204C4159204D414E472000415420
:203B81002B43434C4B3F0D00204C41592047494F20475053200041542B434C49503D310DFE
:203BA10000202053454E44494E4720434C495020200041542B4343414C523F0D0020544807
:203BC100494554204C415020474F49200041542B434D47463D310D00202053454E44494E8D
:203BE1004720434D474620200041542B434E4D493D312C312C302C302C310D002020534554
:203C01004E44494E4720434E4D4920200041542B434D4744413D2244454C20414C4C220D34
:203C21000020205448494554204C415020544E20200041542B4353510D0020534F4E47209B
:203C4100004154480D0041542B435042463D22006D220D0070220D0020534156494E4720FC
:203C6100484953544F525920000D44756E67206375612063756F6E000D4B686F61206375A0
:203C8100612063756F6E000D72657365742067736D20736175313073000D446F69206D6102
:203CA1002070696E207468616E6820636F6E67000D4C656E68206B686F6E6720686F702050
:203CC1006C65000D586F612064616E68206261207468616E6820636F6E67000D58756F6E8E
:203CE10067206375612063756F6E000D7468656D2064616E68206261207468616E6820631F
:203D01006F6E67000D536F206474206B686F6E6720686F70206C65000D4D6F2063756120C6
:203D210063756F6E0041542B434D474C3D22414C4C220D002044454C4554494E4720534D57
:203D41005320004348493A005048553A0054414D3A004F4E203A004F46463A000041542BD2
:203D6100435042523D312C39390D000D4C75752064616E68206261207468616E6820636FFC
:113D81006E67000D4D6F20637561206C656E0014289F
:06007000E478FFF6D8FD64
:20004E007902E94400601B7A01903D90786575A002E493F2A308B8000205A0D9F4DAF27522
:02006E00A0FFF1
:1B35D40020F71130F6138883A88220F509F6A8837583002280FEF280F5F022F6
:1D35EF00E5828519F0A4C582C0F0851AF0A4D0F025F0C5838519F0A42583F583226B
:20360C00E519451A60467A01E51925E0F519E51A334012F51AE5829519E583951A40030A03
:20362C0080E6C3E51A13F51AE51913F519C3E5829519F5F0E583951A4005F58385F082C3CA
:0D364C00E51A13F51AE51913F519DAE12254
:200076007800E84400600A790175A000E4F309D8FC7864E84402600C7903900001E4F0A31F
:04009600D8FCD9FABF
:203659007A10E4FBFCE58225E0F582E58333F583EB33FBEC33FCEB9519F5F0EC951A400663
:09367900FCABF0438201DADD2212
:0D00410075814F12370CE582600302003E0E
:1C36820020F71430F6148883A88220F507E6A88375830022E280F7E49322E02257
:20369E00C2D5E58330E70DD2D5E4C39582F582E49583F583E51A30E70BE4C39519F519E431
:1636BE00951AF51A12360C30D50BE4C39582F582E49583F5832209
:2036D400C2D5E58330E70DD2D5E4C39582F582E49583F583E51A30E70DB2D5E4C39519F56F
:1836F40019E4951AF51A12365930D50BE4C39582F582E49583F5832287
:04370C0075820022A0
:00000001FF
