:20009F0075C70075C50075C60075C38075C40043C11022AE82AF8375C78375C5018EC48F2C
:2000BF00C375C65A75C6A500AFC2C00712009FD0078F8222AE82AF8375C78375C5028EC447
:2000DF008FC38518C275C65A75C6A50002009FAE82AF8375C78375C5038EC48FC375C65AA3
:2000FF0075C6A50002009F43C1107ED17F00EE4F60141EBEFF011FEE24C1F582EF3400F570
:20011F008374FFF080E8C3EE94D1EF9400501EEE24C1FCEF3400FD8E8274F02FF5830EBE95
:20013F0000010FE493FB8C828D83F080D99000000200EE43C1107ED17F00EE4F60141EBEC8
:20015F00FF011FEE24C1F582EF3400F58374FFF080E8C3EE942EEF9401501EEE24C1FCEF8E
:20017F003400FD8E8274F22FF5830EBE00010FE493FB8C828D83F080D99002000200EE7E5D
:20019F00007F00C3EE94D1EF9400503075C78375C5028EC48FC3EE24C1F582EF3400F58324
:2001BF000EBE00010FE0F5C275C65A75C6A500C007C00612009FD006D00780C7227E007FE7
:2001DF0000C3EE942EEF9401503675C78375C5028EC48E0474022FFD8DC3EE24C1F582EF79
:2001FF003400F5830EBE00010FE0F5C275C65A75C6A500C007C00612009FD006D00780C120
:01021F0022BC
:20022000759850438E40538EFE758BB2758DFFC2ABD28ED2ACD2A022E582FF700122C2998B
:200240008F9920990543C11080F8C29922E582FFC4540FFE53070FBE0A0050067C307D0074
:2002600080047C577D00EC2EF582C007120238D007BF0A0050067D307E0080047D577E000F
:20028000ED2FF582020238AD82AE83AFF0C2998D828E838FF0123FD9FC60218C992099050C
:1D02A00043C11080F8C2998D828E838FF0123FD9FCBC1A01220DBD00D60E80D32279
:2002BD00AE82AF837C007D00C3EC9EED9F500A43C1100CBC00F20D80EF22AE82AF837C0049
:2002DD007D00C3EC9EED9F501D9003E8C007C006C005C0041202BDD004D005D006D0070C7A
:2002FD00BC00DF0D80DC22AF82E5294FF58212039175820D020391AF82302B118F821203B3
:20031D0091852A82852B83852CF00204158F820203F6E582FF700122D285EFC4540124FF88
:20033D009283EFA2E5E43324FF9282EF2323540124FF9281EF235401FE24FF9280D2840017
:20035D00C28400EF540124FF9283EF03540124FF9282EF03035401FE24FF9281EFA2E3E46A
:20037D0033FF24FF9280D28400C2849000641202BDC28522E582FF700122C285EFC45401E7
:20039D0024FF9283EFA2E5E43324FF9282EF2323540124FF9281EF235401FE24FF9280D218
:2003BD008400C28400EF540124FF9283EF03540124FF9282EF03035401FE24FF9281EFA24D
:2003DD00E3E433FF24FF9280D28400C2849000640202BD75820C020391E582FF600E8F8203
:2003FD0012039190406775F0800204157582011203919006400202BDAD82AE83AFF07C0053
:20041D008D828E838FF0123FD9FB6055BC10005050BB80005025EB24E050200CEC601C0D4A
:20043D00BD00010E8B82C007C006C005C00412032FD004D005D006D00780C58D828E838F22
:20045D00F0123FD9FBA3AD82AE838B82C007C006C005C004120391D004D005D006D00780C8
:20047D009F22C286903A981202BD75801C00C284900FA01202BDD28400C2849000A01202DC
:20049D00BDD28400C2849000A01202BD75801400C2849003E81202BDD28400C284007580B9
:2004BD001100C2849000281202BD75801000C2840075801300C2849000281202BD75801018
:2004DD0000C2840075801600C2849000281202BD75801000C2840075801800C2849003E8C6
:2004FD000202BDAF82E53024E8500122E532240540030205BC8F82120391852D82852E83F2
:20051D00852FF012041574F6253040067D207E00801DAB307C0075190A8C1A8B828C83126F
:20053D00402BAB82AC8374302BFBFD3395E0FE8D8212032FAD307E0075190A8E1A8D828EDF
:20055D0083123FF5AD8274302DF58212032FE532240350123000067D3A7E0080047D207E50
:20057D00008D8212032FAD317E0075190A8E1A8D828E83C006C00512402BAB8274302BF556
:20059D008212032FD005D00675190A751A008D828E83123FF5AD8274302DF58202032F8F06
:2005BD0082120391852D82852E83852FF012041574F6253040067E207F00801DAC307D00A5
:2005DD0075190A8D1A8C828D8312402BAC82AD8374302CFCFE3395E0FF8E8212032FAE3023
:2005FD007F0075190A8F1A8E828F83123FF5AE8274302EF58212032F3000067E3A7F00800C
:20061D00047E207F008E8212032FAE317F0075190A8F1A8E828F83C007C00612402BAC824F
:20063D0074302CF58212032FD006D00775190A751A008E828F83123FF5AE8274302EF5825D
:20065D0012032F3000067E3A7F0080047E207F008E8212032FAE327F0075190A8F1A8E8227
:20067D008F83C007C00612402BAC8274302CF58212032FD006D00775190A751A008E828F15
:20069D0083123FF5AE8274302EF58212032F75822002032F120391AE357F0075190A8F1A23
:2006BD008E828F83C007C00612402BAC8274302CF58212032FD006D00775190A751A008ED6
:2006DD00828F83123FF5AE8274302EF58212032FAE347F0075190A8F1A8E828F83C007C01B
:2006FD000612402BAC8274302CF58212032FD006D00775190A751A008E828F83123FF5AEB7
:20071D008274302EF58212032FAE337F0075190A8F1A8E828F83C007C00612402BAC82743E
:20073D00302CF58212032FD006D00775190A751A008E828F83123FF5AE8274302EF58212BE
:08075D00032F75822002032F17
:11406700202020202020202020202020202020200048
:040000000200413287
:01000B0032C2
:0100130032BA
:01001B0032B2
:030023000214B212
:01002B0032A2
:01003300329A
:03003B000208A414
:05009A00C23102003E2E
:03003E0002306D20
:2007650075FA0075EA0090020F74A8F07461A3F090021174FAF0E4A3F075DA4975DB49D216
:20078500DE2243C110B21EA21E92879000C0E014F0E070199000C0E4F090F32D9324FF92DE
:2007A5001990F006E493FF24FF920892A230A3163004139000BCE014F0E0700AC2A390007F
:2007C500BC740AF0C20490020EE0FFE06012EF1490020EF0E0700990020EE4F090020DF064
:2007E500900214E0FFE06009302206EF14900214F0900215E0FFE06009302606EF14900275
:2008050015F0900216E0FFE06009302A06EF14900216F0900216E07002D22C900225E0FF75
:20082500E06006EF14900225F0900227E0FFE06006EF14900227F0900217E0600E90021997
:20084500E0FFE06006EF14900219F020A0139000BBE014F0E0700AD2A09000BB740AF0D277
:2008650007053BE53B24C45035D21C753B00E5376006D53803753700053CE53C24C4501E0B
:20088500753C00D21D053DE53D24E85011753D00900213E0FFE06006EF14900213F022C0EC
:2008A50028C0E0C0F0C082C083C007C006C005C004C003C002C001C000C0D075D00843C139
:2008C5001010D8030209D890020FE0FEA3E0FF8EEA8FFA90020F74A82EF074613FA3F03081
:2008E5001F0930B5069002147402F0301F0330B504C2328002D232A232922220210330B56E
:2009050004C2328002D232A232921F20200A202203201F04C2328002D232A2329220A2B5A6
:20092500922130230930B3069002157406F030230330B304C2328002D232A2329226202521
:200945000330B304C2328002D232A232922320240A202603202304C2328002D232A23292E7
:2009650024A2B3922530270930B4069002167402F030270330B404C2328002D232A23292C8
:200985002A20290330B404C2328002D232A232922720280A202A03202704C2328002D23289
:2009A500A2329228A2B49229900239E014F0E0700AD231900239740AF0B22B90023AE014B1
:2009C500F0E0700F90023A7428F075D00012078775D00810D903020AE5900211E0FEA3E058
:2009E500FF8EEB8FFB90021174FA2EF0E43FA3F0301603020AE59001EFE0FF04F0EF700C13
:200A0500D217C2A1A2A192A3A20892A230B63990020BE0702430152190020CE0FF24FD50AB
:200A250018BF070050139001F0E0FF04F0EF24F1F582E43401F583E4F090020BE02401F0AA
:200A450090020CE4F0020AD590020CE06003020AC930154690020BE0FF24FD503DBF07000D
:200A65005038201A1F9001F0E0FF30E0171FEF3395E0FEEF24F1FFEE3401FE8F828E83E02F
:200A85007002D21A9001F0E0FF04F0EF24F1F582E43401F5837401F0802A90020BE0FF24E4
:200AA500E350219001EF7401F030150C9001F0E0FFBF1804D216800C301709D2159001F040
:200AC500E4F0C21A90020CE02401F090020BE4F09001F0E0FF24E750079001F0E4F0C2156F
:200AE500D0D0D000D001D002D003D004D005D006D007D083D082D0F0D0E0D028328582422D
:200B050085834385F0447C007B0090F008E493FAC3EB9A4003020BCF75450179008B197528
:200B25001A0090000AC004C003C001123F46A882AA83D001D003D00489067F00EE28F8EF43
:200B45003AFAE82409F582EA34F0F583E493FFE92542FAE43543FDAE448A828D838EF01293
:200B65003FD9FAEFB502028005754500800609B9090040A9E545604C8B19751A0090000A9A
:200B8500C004C003123F46AE82AF83D003D00474092EFAE43FFDEA2409FAED34F0FD8A8239
:200BA5008D83E493601E74092EFEE43FFFEE2409F582EF34F0F583E49390000CF08C07EFBE
:200BC50004F582220B8B04020B0F7582002285824785834885F04990F008E493F54A7B008F
:200BE500C3EB954A502E8B19751A0090000AC003123F46E5828583F0D0032409F9E435F05D
:200C0500FAE92409F9EA34F0FA89828A83E49360030B80CCEBFAB54A0474018001E4FB6058
:200C25000874EC254A5002C322C003C002120106D002D00379008A19751A0090000AC00356
:200C4500C002C001123F4685824B85834CD001D002D0037409254BF8E4354CFF89057E0004
:200C6500ED28F8EE3FFFE824C1F8EF3400FFE92547FCE43548FDAE498C828D838EF0123FBC
:200C8500D988828F83F009B9090040AA7412254BFEE4354CFFEE24C1F582EF3400F583E593
:200CA50046F0EB6008AC4A0C9000C9ECF012019ED322AF82C007120106D007EF702AFDFE5D
:200CC50074092DFBE43EFCEB24C1F582EC3400F583E4F00DBD00010EC3ED94C8EE940040F2
:200CE500DF9000C9E4F080599000C9E0FEC39F40507D007E008F037C00EB24FFF519EC349C
:200D0500FFF51A90000AC007C006C005123F46E5828583F0D005D006D0072409FBE435F02B
:200D2500FCED2BFBEE3CFCEB24C1F582EC3400F583E4F00DBD00010EC3ED940AEE940040DD
:200D4500B402019E7F007E0090F008E493FDC3EE9D4003020DF38E19751A0090000AC00716
:200D6500C006123F46E5828583F0D006D0072409FCE435F0FDEC2409F582ED34F0F583E4D9
:200D850093FDBD6D028003BD4D5E9000017430F0754D00AC4D0CEC3395E0FBEC2401FCEB34
:200DA5003400FB8F19751A0090000AC007C004C003123F46A982AA83D003D004D007A84D7E
:200DC5007D00E829F9ED3AFAE92409F582EA34F0F583E4938C828B83F0054D74F7254D5051
:200DE500B290000BE4F0D3220E8E07020D4DC322AD82AE83AFF0AC4F900226ECF0854EF0A3
:200E0500ECA4FB900227740A2BF0C22D8D828E838FF0C007C006C005C004120287D004D00D
:200E250005D006D007AB4E302D03020ECA900227E07003020ECA302F03020ECA43C110C2D0
:200E450031758280C007C006C005C004C0031203918550828551838552F0120415752DF62C
:200E6500752E42752F80853D30853C31853B32A21E92007582C0120500D003D004D005D022
:200E850006D007102C028002C322900225E06003303094C2308B021BEA602A900225ECF03C
:200EA500900226ECF08D828E838FF0C007C006C005C004C003120287D003D004D005D00634
:200EC500D007020E2C7582801203F6900228E4F0A22D2290001AE0602090001DE0701A7563
:200EE5005000755143755280754E03754F019042FE75F080120DF5C32290000BE4F09043D2
:200F05001175F08012028790000175F0001202879002287409F075501E75514375528075DB
:200F25004E05754F3D90431B75F080020DF5AD82AE83AFF090432C75F080C007C006C0054C
:200F4500120287D005D006D0078D828E838FF0120287755033755143755280754E01754F65
:200F65003C90433075F080020DF5AF82BF0A00500A8F0674302EF582020238BF640050392A
:200F85008F057E0075190A8E1A8D828E83C006C00512402BAB8274302BF582120238D0053E
:200FA500D00675190A751A008D828E83123FF5AD8274302DF5820202387E007519648E1AFE
:200FC5008F828E83C007C00612402BAC8274302CF582120238D006D00775190A751A008FBC
:200FE500828E83C007C00612402B75190A751A00123FF5AC8274302CF582120238D006D07B
:201005000775190A751A008F828E83123FF5AE8274302EF58202023890001AE4F0120ED80A
:201025004001227F0090F008E493FEC3EF9E40030210F98F19751A0090000AC007123F46FF
:20104500E5828583F0D0072409FDE435F0FEED2409FDEE34F0FE8D828E83E49370030210E1
:20106500F58F06EE04F582C007120F6F75822E120238758230120238D0077E008F19751AB1
:201085000090000AC007C006123F46AC82AD83D0068E027B00EA2CFAEB3DFBEA2409F5828D
:2010A500EB34F0F583E493F582C006C005C004120238D004D005D006D0070EBE090040BCF4
:2010C50075822CC007C005C004120238D004D00574092CFCE43DFDEC2409F582ED34F0F54A
:2010E50083E493F58212023875820D120238D0070F02102A755044755143755280754E326E
:20110500754F019042FE75F080020DF5AD82AE83AFF0755078755140755280754E0F754F2D
:201125000190435575F080C007C006C005120DF590001AE4F0120ED8D005D006D0074001FD
:201145002290435975F080C007C006C005120287D005D006D00790F006E49360067B607C2E
:201165004380047B637C437A808B828C838AF0C007C006C005120287D005D006D0078D82F8
:201185008E838FF0C007C006C005120287D005D006D0070DBD00010E8D828E838FF0123F82
:2011A500D9FDBD2A099042FE75F080020287755044755143755280754E78754F019042FEFB
:2011C50075F080020DF5AF82753900BFA100500FEF241AF582E43400F5830FE4F080EC22DE
:2011E50090001AE4F0120ED840012290408875F080120287755067755143755280754E32C8
:20120500754F019042FE75F080020DF5755078755140755280754E0F754F0190435575F09D
:2012250080120DF550347582001211CB753900900228740AF0755082755143755280754E7C
:201245000F754F0190437875F080120DF5500990001EE0FF900223F0D322C322755098753A
:201265005143755280754E19754F0290438D75F080120DF54001227550B17551437552806A
:20128500754E0F754F019043A675F080120DF5400122900228740CF07550CD755143755251
:2012A50080754E0A754F3C9043C275F080120DF54001229003E81202D77582001211CB752B
:2012C50039009002287402F07550E8755143755280754E0F754F019043DE75F080120DF572
:2012E50040012290001DE024D075F00AA4FF90001EE02F24D0F541900020E024D075F00A19
:20130500A4FF900021E02F24D0F540900023E024D075F00AA4FF900024E02F24D0F53F9028
:201325000026E024D075F00AA4FF900027E02F24D0F53D900029E024D075F00AA4FF900081
:201345002AE02F24D0F53C90002CE024D075F00AA4FF90002DE02F24D0F53B854019751A2B
:2013650000900017123F46751909751A0012402BAE82AF83AC3F7D00EC2EFEED3FFFE54055
:2013850024FD5013740355417D004DB401009233E433FC7D0080047C027D00EC2EFEED3F20
:2013A500FFAC417D00EC2EFEED3FFF8C828D83A3A3A37519048D1AC007C00612402BAC8204
:2013C500AD83D006D007EC2EFEED3FFF8E828F83A3751907751A00123F63E58204F53E228B
:2013E500755001755144755280754E0F754F019043F675F080020DF575501D7551447552D5
:2014050080754E0F754F0190441275F080120DF540030214B0755041755144755280754EAE
:201425000F754F0190442E75F080120DF540030214B075505F755144755280754E0F754FC4
:201445000190445275F080120DF5505F900228740EF07582001211CB7539007550787551F6
:2014650044755280754E0F754F0190447075F080120DF55034900224E4F07F00EF241AF559
:2014850082E43400F583E0FEBE2C02801CEF241AF582E43400F5830FE024D0FE900224E024
:2014A500FD75F00AA42EF080D3D322C322C028C0E0C0F0C082C083C007C006C005C004C039
:2014C50003C002C001C000C0D075D0102098030226CF43C110900226E0900225F09002291C
:2014E500E0242AF582E43402F583E599F0900229E0FF242AF582E43402F583E0FEBE4E0265
:2015050080030216388F147D00740C2CF582E43DF58375190D8D1AC017C016C015C014750A
:20152500D000123FF575D010AA82AB83D014D015D016D017EA242AF582EB3402F583E0FB28
:20154500BB49028003021638740B2CF582E43DF58375190D751A00C017C016C015C01475FD
:20156500D000123FF575D010AA82AB83D014D015D016D017EA242AF582EB3402F583E0FBE8
:20158500BB20028003021638740A2CF582E43DF58375190D751A00C017C016C015C01475E7
:2015A500D000123FF575D010AA82AB83D014D015D016D017EA242AF582EB3402F583E0FBA8
:2015C500BB547074092CF582E43DF58375190D751A00C017C016C015C01475D000123FF5C3
:2015E50075D010AA82AB83D014D015D016D017EA242AF582EB3402F583E0FBBB4F357408C3
:201605002CF582E43DF58375190D751A00C017C01675D000123FF575D010AC82AD83D0168E
:20162500D017EC242AF582ED3402F583E0FDBD4E02D22F900228E0FD24F050030226BBEDB9
:20164500240A83F582ED241483F583E4732ABB63CFBBA7BBBB940AC054D0BB724D192618A4
:2016650021262326262525171816261626AC390539EC241AF582E43400F583E599F0742068
:20168500B59934900229E0FC7B00740C2CF582E43BF58375190D8B1A75D000123FF575D0E7
:2016A50010AB82AC83EB242AF582EC3402F583E0FCBC3A03753900742CB599028003022651
:2016C500BB900228E4F0F5390226BB7456B5996E8F137C00740C2BF582E43CF58375190DB2
:2016E5008C1AC017C014C01375D000123FF575D010A982AA83D013D014D017E9242AF5822D
:20170500EA3402F583E0FABA4534740B2BF582E43CF58375190D751A00C01775D000123FCF
:20172500F575D010AB82AC83D017EB242AF582EC3402F583E0FCBC4705D22D0226BB745241
:20174500B5990280030226BB8F137C00740C2BF582E43CF58375190D8C1AC014C01375D0C9
:2017650000123FF575D010A982AA83D013D014E9242AF582EA3402F583E0FABA4F028003FC
:201785000226BB740B2BF582E43CF58375190D751A0075D000123FF575D010AB82AC83EB57
:2017A500242AF582EC3402F583E0FCBC520280030226BB900225E4F00226BBAC390539ECF6
:2017C500241AF582E43400F583E599F07422B59934900229E0FC7B00740C2CF582E43BF5F0
:2017E5008375190D8B1A75D000123FF575D010AB82AC83EB242AF582EC3402F583E0FCBC03
:201805002003753900742CB5990280030226BB900229E0FC7B00740C2CF582E43BF583755B
:20182500190D8B1A75D000123FF575D010AB82AC83EB242AF582EC3402F583E0FCBC220296
:2018450080030226BB900228E4F0F5390226BB7431B5990280030226BBD22D0226BBAC395C
:201865000539EC241AF582E43400F583E599F0744BB59967900229E0FB7C00740C2BF582DE
:20188500E43CF58375190D8C1AC014C01375D000123FF575D010A982AA83D013D014E924B7
:2018A5002AF582EA3402F583E0FABA4C2E740B2BF582E43CF58375190D751A0075D00012A2
:2018C5003FF575D010AB82AC83EB242AF582EC3402F583E0FCBC4303753900740DB5990277
:2018E50080030226BB900229E0FC7B00740C2CF582E43BF58375190D8B1A75D000123FF5E6
:2019050075D010AB82AC83EB242AF582EC3402F583E0FCBC220280030226BB900228E4F017
:20192500F5390226BB743EB599129042FE75F08075D00012028775D0100226BBBE4702802B
:2019450003021A1B8F137C00740C2BF582E43CF58375190D8C1AC017C016C015C014C01306
:2019650075D000123FF575D010A982AA83D013D014D015D016D017E9242AF582EA3402F5EE
:2019850083E0FABA4E028003021A1B740B2BF582E43CF58375190D751A00C017C016C015BC
:2019A500C014C01375D000123FF575D010A982AA83D013D014D015D016D017E9242AF5821C
:2019C500EA3402F583E0FABA494C740A2BF582E43CF58375190D751A00C017C016C0157568
:2019E500D000123FF575D010AB82AC83D015D016D017EB242AF582EC3402F583E0FCBC5235
:201A05001575DB0090447F75F08075D00012028775D0100226BBE4BE3A0104FC7003021B9F
:201A2500E68F127B00740C2AF582E43BF58375190D8B1AC017C016C015C014C013C0127537
:201A4500D000123FF575D010A882A983D012D013D014D015D016D017E8242AF582E9340299
:201A6500F583E0F9B952028048740C2AF582E43BF58375190D751A00C017C016C015C01403
:201A8500C013C01275D000123FF575D010A882A983D012D013D014D015D016D017E8242AD5
:201AA500F582E93402F583E0F9B946028003021BE6740B2AF582E43BF58375190D751A00D2
:201AC500C017C016C015C014C013C01275D000123FF575D010A882A983D012D013D014D057
:201AE50015D016D017E8242AF582E93402F583E0F9B942028003021BE6740A2AF582E43B21
:201B0500F58375190D751A00C017C016C015C014C013C01275D000123FF575D010A882A970
:201B250083D012D013D014D015D016D017E8242AF582E93402F583E0F9B950028003021BFA
:201B4500E674092AF582E43BF58375190D751A00C017C016C015C014C013C01275D0001269
:201B65003FF575D010A882A983D012D013D014D015D016D017E8242AF582E93402F583E002
:201B8500F9B9435D74082AF582E43BF58375190D751A00C017C016C015C01475D000123F24
:201BA500F575D010AA82AB83D014D015D016D017EA242AF582EB3402F583E0FBBB2B22902B
:201BC50000B9E0FB24F650099000B9740BF00226BBD2039002287408F0C2137536000226BB
:201BE500BBEC7003021D368F137C00740C2BF582E43CF58375190D8C1AC017C016C015C016
:201C050014C01375D000123FF575D010A982AA83D013D014D015D016D017E9242AF582EA8F
:201C25003402F583E0FABA49028003021D36740B2BF582E43CF58375190D751A00C017C0C0
:201C450016C015C014C01375D000123FF575D010A982AA83D013D014D015D016D017E9242F
:201C65002AF582EA3402F583E0FABA54028003021D36740A2BF582E43CF58375190D751A82
:201C850000C017C016C015C014C01375D000123FF575D010A982AA83D013D014D015D0164C
:201CA500D017E9242AF582EA3402F583E0FABA4D028003021D3674092BF582E43CF583750B
:201CC500190D751A00C017C016C015C014C01375D000123FF575D010A982AA83D013D01422
:201CE500D015D016D017E9242AF582EA3402F583E0FABA433C74082BF582E43CF583751990
:201D05000D751A00C017C016C01575D000123FF575D010AB82AC83D015D016D017EB242A79
:201D2500F582EC3402F583E0FCBC2B05D2110226BBE4BE200104FC7003021EE58F127B00A8
:201D4500740C2AF582E43BF58375190D8B1AC017C016C015C014C013C01275D000123FF500
:201D650075D010A882A983D012D013D014D015D016D017E8242AF582E93402F583E0F9B982
:201D85003A028003021EE5740B2AF582E43BF58375190D751A00C017C016C015C014C01370
:201DA500C01275D000123FF575D010A882A983D012D013D014D015D016D017E8242AF5820E
:201DC500E93402F583E0F9B94C028003021EE5740A2AF582E43BF58375190D751A00C01748
:201DE500C016C015C014C013C01275D000123FF575D010A882A983D012D013D014D015D026
:201E050016D017E8242AF582E93402F583E0F9B947028003021EE574092AF582E43BF58364
:201E250075190D751A00C017C016C015C014C013C01275D000123FF575D010A882A983D072
:201E450012D013D014D015D016D017E8242AF582E93402F583E0F9B94D028003021EE574D1
:201E6500082AF582E43BF58375190D751A00C017C016C015C014C013C01275D000123FF56D
:201E850075D010A882A983D012D013D014D015D016D017E8242AF582E93402F583E0F9B961
:201EA500433E74072AF582E43BF58375190D751A00C017C016C015C01475D000123FF57569
:201EC500D010AA82AB83D014D015D016D017EA242AF582EB3402F583E0FBBB2B0302207986
:201EE500EC70030220C68F137C00740C2BF582E43CF58375190D8C1AC017C016C015C01427
:201F0500C01375D000123FF575D010A982AA83D013D014D015D016D017E9242AF582EA346C
:201F250002F583E0FABA3A0280030220C6740B2BF582E43CF58375190D751A00C017C01657
:201F4500C015C014C01375D000123FF575D010A982AA83D013D014D015D016D017E9242A18
:201F6500F582EA3402F583E0FABA500280030220C6740A2BF582E43CF58375190D751A001A
:201F8500C017C016C015C014C01375D000123FF575D010A982AA83D013D014D015D016D079
:201FA50017E9242AF582EA3402F583E0FABA490280030220C674092BF582E43CF583751930
:201FC5000D751A00C017C016C015C014C01375D000123FF575D010A982AA83D013D014D068
:201FE50015D016D017E9242AF582EA3402F583E0FABA4C0280030220C674082BF582E43C29
:20200500F58375190D751A00C017C016C015C014C01375D000123FF575D010A982AA83D0E8
:2020250013D014D015D016D017E9242AF582EA3402F583E0FABA430280030220C674072BC2
:20204500F582E43CF58375190D751A00C017C016C01575D000123FF575D010AB82AC83D0B4
:2020650015D016D017EB242AF582EC3402F583E0FCBC2B4D8F137C0074092BF582E43CF5CD
:202085008375190D8C1A75D000123FF575D010AB82AC83EB242AF582EC3402F583E0FCBC59
:2020A5004C03D38001C392094006300F030226BBC20DC20AC20BC20C9002287403F0022630
:2020C500BBBE4B0280030221578F137C00740C2BF582E43CF58375190D8C1AC017C016C0B2
:2020E5001575D000123FF575D010AB82AC83D015D016D017EB242AF582EC3402F583E0FCB2
:20210500BC4F4FBD0203753900A22EB3922DC22E300323AC397D001CBCFF011DEC241AFCEB
:20212500ED3400FD8C828D83E0240AFB8C828D83F0C213753900E53970030226BB753900A2
:2021450090445275F08075D00012028775D0100226BBBE540280030226BB8F147D00740C3D
:202165002CF582E43DF58375190D8D1AC015C01475D000123FF575D010AA82AB83D014D045
:2021850015EA242AF582EB3402F583E0FBBB4F0280030226BB740B2CF582E43DF583751947
:2021A5000D751A0075D000123FF575D010AC82AD83EC242AF582ED3402F583E0FDBD4E020A
:2021C50080030226BBD22E0226BB200D030222B2E539704D740DB5990280030226BB300960
:2021E50007D2027538020537200912900217E0FDBD020A900218E0FDBD02004004C234808A
:2022050002D234A2349210200906300A0B201008900228E4F00226BB9002287405F00226D1
:20222500BB740AB539607422B5995B9000017430F090000BE4F090000275F00075D00012F1
:202245000B0275D010E582FDB40100920AED600A90000CE0FCBC4D028004C2348002D23486
:20226500A234920CED600F90000CE0FDBD6D028009BD4D028004C2348002D234A234920BDA
:202285007539000226BB74F62539400EE5392401F582E43400F583E599F0E53924F550084B
:2022A500753900D20A0226BB05390226BB30093CBE30398F147D00740C2CF582E43DF58313
:2022C50075190D8D1AC017C01675D000123FF575D010AC82AD83D016D017EC242AF582ED61
:2022E5003402F583E0FDBD220302238DBE340280030223928F147D00740C2CF582E43DF533
:202305008375190D8D1AC015C01475D000123FF575D010AA82AB83D014D015EA242AF58298
:20232500EB3402F583E0FBBB3863740B2CF582E43DF58375190D751A00C015C01475D000FB
:20234500123FF575D010AA82AB83D014D015EA242AF582EB3402F583E0FBBB2B30740A2CD7
:20236500F582E43DF58375190D751A0075D000123FF575D010AC82AD83EC242AF582ED340E
:2023850002F583E0FDBD2205D20D753901740DB5990280030226BB900228E4F075DB49020F
:2023A50026BB300E43743BB599028021740DB59902801A746025394014AD390539ED241AD6
:2023C500F582E43400F583E599F00226BBE539241AF582E43400F583E4F0F539C20E9002D9
:2023E50028E4F0D20F0226BB300C030224EF3010030224EFBE2C0280030224EB8F147D00CC
:20240500740C2CF582E43DF58375190D8D1AC015C01475D000123FF575D010AA82AB83D006
:2024250014D015EA242AF582EB3402F583E0FB90F003E493FAEBB5120280030224EB740BC0
:202445002CF582E43DF58375190D751A00C015C01475D000123FF575D010AA82AB83D0144A
:20246500D015EA242AF582EB3402F583E0FB90F002E493FAEBB5126E740A2CF582E43DF505
:202485008375190D751A00C015C01475D000123FF575D010AA82AB83D014D015EA242AF5B1
:2024A50082EB3402F583E0FB90F001E493FAEBB5123474092CF582E43DF58375190D751A66
:2024C5000075D000123FF575D010AC82AD83EC242AF582ED3402F583E0FD90F000E493FC9D
:2024E500EDB514028004C2348002D234A234920E740DB5990280030226BB75390190022807
:20250500E4F00226BB743EB5990A900228E4F0D22D0226BBBE520280030226BB8F157E00EB
:20252500740C2DF582E43EF58375190D8E1AC016C01575D000123FF575D010AB82AC83D0DE
:2025450015D016EB242AF582EC3402F583E0FCBC520280030226BB740B2DF582E43EF58322
:2025650075190D751A0075D000123FF575D010AD82AE83ED242AF582EE3402F583E0FEBE02
:20258500450280030226BB900225E4F00226BB7422B59902800302261ED2137E00740C2F5A
:2025A500F582E43EF58375190D8E1A75D000123FF575D010AE82AF83EE242AF582EF3402A8
:2025C500F583E0FFBF2C21AE397F001EBEFF011FEE241AFEEF3400FF8E828F83E02411FDB2
:2025E5008E828F83F00226BBAE397F001EBEFF011FEE241AFEEF3400FF8E828F83E0241BF3
:20260500FD8E828F83F09000B9E0FF0F9000B9EFF0900228E4F00226BBE59924D04003021F
:2026250026BB20130FE53675F00AA4FFE599FE2F24D0F536AF390539EF241AF582E4340099
:20264500F583E599F00226BBAF390539EF241AF582E43400F583E599F07422B59936900238
:2026650029E0FF7E00740C2FF582E43EF58375190D8E1A75D000123FF575D010AE82AF838A
:20268500EE242AF582EF3402F583E0FFBF2C05853A3980227422B5991DAE397F001EBEFF3A
:2026A500011FEE241AF582EF3400F583E4F0F539900228F0D22D900229E02401F0E0FF2459
:2026C500F35005900229E4F0C298D0D0D000D001D002D003D004D005D006D007D083D082E3
:2026E500D0F0D0E0D02832C2127F00EF241AFDE43400FE0F8D828E83E0600543C11080EBB5
:20270500BFA000500FEF241AF582E43400F5830FE4F080EC90001AE0FFBF3F0280089000D2
:202725001BE0FEBE3F06200A030211E5BF4203022D24BF4303022DBEBF4403022980BF4773
:2027450003022DA7BF4B03022819BF4C03022B1BBF5003022900BF5203022886BF53028060
:2027650050BF5503022CB1BF580302298CBF6203022D24BF6303022DBEBF6403022980BF24
:202785006703022DA7BF6B03022819BF6C03022B1BBF7003022900BF7203022886BF730299
:2027A500800FBF7503022CB1BF780302298C022FC190F006E49330E006200B03022FCA90C0
:2027C500F006E49330E00D1201069000C7E05402F012019ED216D2A2C2089000641202D71E
:2027E500C2A2A2A2921690F004E493600C90448875F080121111022FCA75509775514475D2
:202805005280754E03754F019042FE75F080120DF5022FCA200B03022FCA90001BE0FFBF20
:2028250050028003BF703812010690001EE0FFBF4E028003BF6E129000C7E04402F090449F
:20284500A775F08012111180109000C7E05401F09044B675F08012111112019E022FCA1246
:2028650001069000C7E04401F012019ED2A2D20890000BE4F09044C375F080121111022F91
:20288500CA200B03022FCA90001CE0FF90001EE0FEEFB50658BF72028003BF5250300C4D87
:2028A5009044D275F080121111758200120CB79002001200EE75180090032C1200D31201B2
:2028C500069000C47430F09000C3F09000C2F09000C1F09000C7E4F09000C6F09000C8F086
:2028E5009000C504F012019EC214022FCA9044E975F080121111C2A0022FCA200B03022F76
:20290500CA90001EE0FFBF30004064EF24C6405F90001FE0FFBF30004055EF24C640509045
:202925000020E0FFBF30004046EF24C64041900021E0FFBF30004037EF24C640321201066A
:2029450090001EE09000C1F090001FE09000C2F0900020E09000C3F0900021E09000C4F02A
:2029650012019E9044FC75F080121111022FCA90451375F080121111022FCA200B03022F62
:20298500CA12101D022FCA90001BE0FFBF6F028008BF4F028003022A9F200B03022FCA90D5
:2029A500001EE0FEBE30005003022A93EE24C65003022A9390001FE0FDBD30004005ED245D
:2029C500C65006ED6003022A93900020E0FCBC30004005EC24C65006EC6003022A93BE30E2
:2029E50009758200120CB7022A87ED700D8E03EB24D0F582120CB7022A87EC70178E03EB82
:202A050024D075F00AA4FB8D02EA2B24D0F582120CB7806E8D027B00EA24D0F519EB34FFC9
:202A2500F51A90000AC006C005C004123F46AA82AB83D004D005D0068C007900E82AFAE92F
:202A45003BFBEA24D0FAEB34FFFBC374329A74808BF063F08095F05011EE24FE500C9045DE
:202A65001375F080121111022FCAEE24D075F064A4FEED24D075F00AA42E2C24D0F5821212
:202A85000CB790452675F080121111022FCA90451375F080121111022FCABF75028003BFEB
:202AA500556830080C90453E75F080121111022FCAD21690F005E4936010D2A3900064121A
:202AC50002D7C2A3A2A39216800ED2A19000641202D7C2A1A2A1921690000BE4F090F004A5
:202AE50093600C90455275F080121111022FCA755097755144755280754E03754F0190428D
:202B0500FE75F080120DF5022FCA90456275F080121111022FCA90001BE0FFBF750280082B
:202B2500BF55028003022C35200B03022FCA90001EE0FEBE30005003022C29EE24C650031C
:202B4500022C2990001FE0FEBE30005003022C29EE24C65003022C29900020E0FEBE3000F6
:202B65005003022C29EE24C65003022C29900021E0FEBE30005003022C29EE24C6500302D0
:202B85002C29900022E0FEBE30005003022C29EE24C65003022C29900023E0FEBE30005062
:202BA50003022C29EE24C65003022C29900024E0FEBE3000406EEE24C64069900025E0FEF2
:202BC500BE3000405FEE24C6405A900026E0FEBE30004050EE24C6404B900027E0FEBE30F9
:202BE500004041EE24C6403C900028E4F0900029E0FEBE6D067D6D7E0080047D757E008DBE
:202C05004690001F75F000120BD3500C90457575F080121111022FCA90458E75F080121140
:202C250011022FCA90459E75F080121111022FCABF65028003BF456830080C90453E75F02B
:202C450080121111022FCAD21690F005E4936010D2A19000641202D7C2A1A2A19216800E3E
:202C6500D2A39000641202D7C2A3A2A3921690000BE4F090F00493600C9045B275F0801239
:202C85001111022FCA755097755144755280754E03754F019042FE75F080120DF5022FCA16
:202CA50090456275F080121111022FCA200B03022FCA90001EE0FFBF42028012BF620280D6
:202CC5000D90001FE0FEBE6E028003BE4E1A1201069000C8740AF012019ED2C29045BF7551
:202CE500F080121111022FCABF5402800DBF74028008BE66028003BE46191201069000C89A
:202D0500E4F012019EC2C29045C875F080121111022FCA90456275F080121111022FCA2089
:202D25000B03022FCA90001DE0FF600690001CE0700C9045D175F080121111022FCABF42D0
:202D4500028012BF6202800D90001EE0FEBE6E028003BE4E181201069000C57401F01201E3
:202D65009E9045E575F080121111022FCABF5402800DBF74028008BE66028003BE4617902F
:202D850045F275F0801211111201069000C5E4F012019E022FCA90456275F080121111029E
:202DA5002FCA200B03022FCA90000BE4F090000175F000120F33022FCA90001BE0FFBF6788
:202DC500028008BF47028003022FB6200B03022FCA90001DE0FFBF30005003022FABEF240C
:202DE500C65003022FAB90001EE0FEBE30005003022FABEE24C65003022FAB90001FE0FD9D
:202E0500BD30005003022FABED24C65003022FAB900020E0FCBC30005003022FABEC24C60E
:202E25005003022FAB900021E0FBBB30005003022FABEB24C65003022FAB900022E0FABA6E
:202E450030005003022FABEA24C65003022FAB900023E0F9B930005003022FABE924C65044
:202E650003022FAB900024E0F8B830005003022FABE824C65003022FAB900025E0F553C32A
:202E850094305003022FABE55324C65003022FAB900026E0F554C394305003022FABE5541B
:202EA50024C65003022FABEF24D075F00AA42E24D0FFED24D075F00AA42C24D0FEEB24D0EC
:202EC50075F00AA42A24D0FDE924D075F00AA42824D0FCE55324D075F00AA4255424D0FB10
:202EE500EF24E84019EE24C44014BD0100400FED24E0400ABC01004005EC24F3500C9045D1
:202F0500FF75F080121111022FCA8F3D8E3C753B008D3F8C408B41854019751A00900017DB
:202F2500123F46751909751A0012402BAE82AF83AC3F7D00EC2EFEED3FFFE54024FD50139C
:202F4500740355417D004DB401009235E433FC7D0080047C027D00EC2EFEED3FFFAC417D5D
:202F650000EC2EFEED3FFF8C828D83A3A3A37519048D1AC007C00612402BAC82AD83D0068B
:202F8500D007EC2EFEED3FFF8E828F83A3751907751A00123F63E58204F53E90461175F08B
:202FA50080121111801F9045FF75F080121111801490456275F08012111180099045137502
:202FC500F08012111143C1107F00EF241AFDE43400FE8D828E83E0600FEF241AF582E4344A
:202FE50000F5830FE4F080E22290021AE0FF90F000E4937D0024D0FEED34FFFD7C00EFB5BF
:20300500065DECB5055990021BE0FF90F001E4937D0024D0FEED34FFFD7C00EFB50640ECE7
:20302500B5053C90021CE0FF90F002E4937D0024D0FEED34FFFD7C00EFB50623ECB5051F75
:2030450090021DE0FF90F003E4937D0024D0FEED34FFFD7C00EFB50606ECB505028004C23D
:20306500368002D236A236227593007594FF7592007591007595007596FF75B20075B10013
:2030850075B30275B41C75CA0075C90075C00075B0FF75A00075B881759700D2AF9000C046
:2030A500741EF07537009000BB740AF09000BCF09000BD7402F09000BEF09000BFF0900226
:2030C50016F0900214F09002157406F0900217E4F0C22F90020EE4F090020DF09002130424
:2030E500F0D2379013881202D712076512047F900219743CF0900217E0FF24FB4016EF2F43
:203105002F90310A730231190231720232A90235CE0237C7103102803A75828012039190C0
:20312500407875F080120415752D1F752E46752F80853D30853C31853B32A21E92007582D5
:20314500C7120500854133854034853F357582C01206B1102802800AD2A3C2049000BC7462
:203165000AF0102403023850D204023850900218E02404F529758280120304102003023268
:2031850006900218E02401F0E0FFBF0474900218E4F0122FEE50269002177402F090022289
:2031A500E4F090021DF090021CF090021BF090021AF01203F07582801203F68044900222C1
:2031C500E02401F0E0FF24FB5020900217E4F01201069000C7E04402F012019E120D49501B
:2031E5000990462075F08012111175828812039175825812032F900222E02430F582120386
:203205002F1028028050900218E0241AFFE43402FE8F828E83E0FD7C008D828C83A37519C7
:203225000A8C1AC007C006123FF5AC82D006D0078F828E83ECF0900218E02484F58212036F
:2032450091900218E0241AF582E43402F583E02430F58212032F1024028015900218E0FFC4
:20326500E06008EF14900218F08005900217E4F0103103023850752D1F752E46752F808541
:203285003D30853C31853B32A21E92007582C7120500854133854034853F357582C01206F7
:2032A500B1023850900019E070030233AD758280120391900019E0FFBF01067E2F7F468093
:2032C500047E407F467D808E828F838DF01204157582C012039190000D75F0001204159081
:2032E500465175F080120415900019E0FFBF01028003023381302064C224C2209002197404
:203305003CF030010F900018E0F54690000E75F000120BD37F00EF2401FDE43400FEEF24CD
:203325000DF582E43400F583E08D828E83F00FBF0B0040E230140B90465875F080121111F3
:20334500800990466875F080121111D2149000197402F07582C01203F6023850102403020E
:203365003850900219743CF0900019E4F07582801203F67582C01203F602385020200920C1
:203385002406202803023850C228C224C220900219743CF0900019E4F07582801203F675B8
:2033A50082C01203F6023850752D1F752E46752F80853D30853C31853B32A21E9200758244
:2033C500C7120500854133854034853F357582C01206B1758280120391900218E0FF24FBDA
:2033E5004054EF2F9033ED738008802080298032803B3014067E747F4680047E857F467DEB
:20340500808E828F838DF0120415802A90469775F080120415801F9046A875F08012041509
:2034250080149046B975F08012041580099046CA75F080120415102002801FC224900218BA
:20344500E0FF7E008F828E83A37519058E1A123FF5AE82AF83900218EEF010280280189078
:203465000218E0FFBF02005008900219743CF080069002187404F020240302357B900218AF
:20348500E0FF24FE400302357BC2247E008F828E83A37519058E1A123FF5AE82900217EEC0
:2034A500F07582801203F6758280120391900218E0FFBF02028009BF030302354502357BB0
:2034C5009046DB75F08012041590021AE02430F58212032F90021BE02430F58212032F905F
:2034E500021CE02430F58212032F90021DE02430F58212032F75822012032F758220120395
:203505002F75822012032F90021EE02430F58212032F90021FE02430F58212032F9002202B
:20352500E02430F58212032F900221E02430F58212032F75822012032F900218E4F0803666
:2035450090F005E493900218F09046E075F080120415900218E060067EE87F4680047EEB02
:203565007F467D808E828F838DF01204159046EE75F080120415900215E0600302385090E2
:203585000218E0FFBF02004003023850C224758200120CB79002001200EE75180090032C0F
:2035A5001200D31201069000C47430F09000C3F09000C2F09000C1F012019EC21490021829
:2035C500E4F0900217F0023850102003023665900218E02401F0E0FFBF0426122FEE401336
:2035E500900218E4F075828812039175825812032F806D75828812039175822012032F80A3
:203605005FBF085C9002187402F0900217F012010690021EE024309000C1F090021FE02487
:20362500309000C2F0900220E024309000C3F0900221E024309000C4F012019E90021DE47B
:20364500F090021CF090021BF090021AF0900221F0900220F090021FF090021EF01203F013
:20366500102803023736900218E0FF2484FE7D007519048D1A8F828D83C00612402BAD8223
:20368500D006ED75F003A42EF582120391900218E0FFBF04005044EF241AFDE43402FE8D5C
:2036A500828E83E0FC7B008C828B83A375190A8B1AC006C005123FF5AB82D005D0068D8267
:2036C5008E83EBF0900218E0241AF582E43402F583E02430F58212032F80561F1F1F1FEFF8
:2036E5003395E0FEEF241EFFEE3402FE8F828E83E0FD7C008D828C83A375190A8C1AC0078C
:20370500C006123FF5AC82D006D0078F828E83ECF0900218E0FF1F1F1F1FEF3395E0FEEF36
:20372500241EF582EE3402F583E02430F58212032F102402802E9002187402F0900217F0B3
:2037450090021DE4F090021CF090021BF090021AF0900221F0900220F090021FF090021E74
:20376500F01203F0900218E0FF2404FE7D007519048D1A8F828D83C00612402BAD82D00681
:20378500ED75F003A42EF529758280120304103103023850752D1F752E46752F80853D30C1
:2037A500853C31853B32A21E92007582C7120500854133854034853F357582C01206B1028C
:2037C5003850102802802B900218E0FF7401C39FF0758287120391900218E060067EE87F2E
:2037E5004680047EEB7F467D808E828F838DF01204151020028019120106900218E0900007
:20380500C6F012019E9002177402F090021804F0102402800B9002187403F090021714F010
:20382500752D1F752E46752F80853D30853C31853B32A21E92007582C7120500854133853A
:203845004034853F357582C01206B1201603023E397F009001F1E0035480FE9001F2E003A8
:203865000354C02EFE9001F3E0C42354E02EFE9001F4E0C454F02EF5559001F5E0C40354EF
:20388500F8FE9001F6E025E025E02EFE9001F7E025E02EFE9001F8E02EAD552DF555900156
:2038A500F9E0035480FE9001FAE0030354C02EFE9001FBE0C42354E02EFE9001FCE0C4546C
:2038C500F02EF5569001FDE0C40354F8FE9001FEE025E025E02EFE9001FFE025E02EFE9025
:2038E5000200E02EAD562DF556301A3A900201E0C40354F8FE900202E025E025E02EFE90F6
:203905000203E025E02EFE900204E0FD2EF557900206E0FE8E59900207E0FE8E5A90020849
:20392500E0FE8E5B8018755700900207E0FE8E59900203E0FE8E5A900201E0FE8E5B9002B2
:2039450005E0FE8E58758250C007120238A21AE4332430F58212023875822D12023885550B
:203965008212024D85568212024D85578212024D75822D120238AE5874302EF582120238D7
:20398500AE5974302EF582120238AE5A74302EF582120238AE5B74302EF582120238758254
:2039A5002D1202389001F0E0FE7D0075190A8D1A8E828D8312402BAD8274302DF582120246
:2039C500389001F0E0FE7D0075190A8D1A8E828D83123FF5AD8274302DF58212023875826F
:2039E5002D120238D0077E00EF6003023B7690F32CE493FD7C0074022DFDE43CFC8E027B89
:203A050000C3EA9DEB64808CF063F08095F04003023B76BE02004003023AB88A198B1A90EF
:203A25000003C007C006123F46AC82AD83D006D0078C0274F22DFB8A828B83E49370257499
:203A4500012CFAE43D24F2FB8A828B83E493701474022CFCE43D24F2FD8C828D83E493701C
:203A650003023B728E19751A00900003C007C006123F46AC82AD83D006D0078C8274F22DF6
:203A8500F583E493FBBBFF2B74012CFAE43DFB8A8274F22BF583E493FBBBFF1774022CFCA5
:203AA500E43DFD8C8274F22DF583E493FDBDFF03023B72AD558E037C008B198C1A900003FC
:203AC500C006C005C004C003123F4685825C85835DD003D004D005D006855C8274F2255DD3
:203AE500F583E493FAEDB5022E7401255CFAE4355DFD8A8274F22DF583E493FDB556187481
:203B050002255CFAE4355DFD8A8274F22DF583E493FDB557028004C2388002D238A238E44F
:203B250033FF6049BE020050068E0574022DFF75190A751A008B828C83C007C006C004C006
:203B45000312402BAA8274302AF582120238D003D00475190A751A008B828C83123FF5AC47
:203B65008274302CF582120238D006D0070E0239ED75822DC007120238D0078F0674302ED3
:203B8500F582C00712023875822D120238D007900217E0FEBE02028003023CC3EF6003022E
:203BA5003CBE20141B1201529000C1E555F09000C2E556F09000C3E557F01201DC023CBEF0
:203BC500900218E0FEE06003023C8E90F32CE493249E50129046F175F0801204159007D0C1
:203BE5001202D7023CBE1201529001EDE0FD8D19751A00900003123F46E5828583F0240631
:203C0500FCE435F0FDEC24C1F582ED3400F583E555F09001EDE0FD8D19751A00900003125D
:203C25003F46E5828583F02407FCE435F0FDEC24C1F582ED3400F583E556F09001EDE0FD07
:203C45008D19751A00900003123F46E5828583F02408FCE435F0FDEC24C1F582ED3400F515
:203C650083E557F09001EDE0FD0D9001EDEDF01201DC120D49504290F004E493603B904777
:203C85000275F0801211118030BE012D1201529000C4E555F09000C5E556F09000C6E55773
:203CA500F01201DC120D49501090F004E493600990471175F080121111C217023E35EF7046
:203CC50003023E35E4BF020104FF60511024028031758200C007120CB79002001200EE758C
:203CE500180090032C1200D31201069000C47430F09000C3F09000C2F09000C1F012019E8B
:203D0500D0071008028016C007120D49D007500D90472B75F080C007121111D00730191B97
:203D2500E55A6003023DDCC219C0071201529001EEE4F01201DCD007023DDCE5587015D2F2
:203D450019C0071201529001EE7401F01201DCD007023DDC300803023DDCE55AB401009278
:203D650038E43324FF92A210370280089000C0E0FE243CF090F005E493602FE559700330DD
:203D8500A204C2388002D238A238E43324FF92A1E55B700620A10330A204C2388002D238D5
:203DA500A238E43324FF92A3802DE559700330A204C2388002D238A238E43324FF92A3E5CD
:203DC5005B700620A30330A204C2388002D238A238E43324FF92A1E558700D90020DE02447
:203DE50001F090020E740AF030084590020DE0FE24E24007EF6039E5597035120106900064
:203E0500C7E4F012019EC208C2A290F005E493600CD2A19000641202D7C2A1800AD2A39077
:203E250000641202D7C2A390020EE4F090020DF0C215C216100203023F40100903023F3DE7
:203E4500900217E0FFBF02028008BF03028003023EF4755078755140755280754E0F754FEF
:203E65000190435575F080120DF590000BE4F0300A24301412900218E060067D757E008018
:203E85000A7D6D7E0080047D4D7E008D4690000275F000120BD37E00EE240DFCE43400FD77
:203EA500EE2401F582E43400F583E08C828D83F00EBE0B0040E29000197402F030140B900E
:203EC500465875F080121111800990466875F080121111301415120D49501090F004E4932A
:203EE500600990474975F080121111D2148049200A46EF704330080B90475A75F0801211DE
:203F0500118035D21690F005E4936010D2A19000641202D7C2A1A2A19216800ED2A390004F
:203F2500641202D7C2A3A2A3921690000BE4F090476975F08012111175DB4943C110023034
:013F4500FA81
:204078002043554143554F4E2041372D312E36004D612050696E204D61632044696E6820B7
:204098003A20303030300A436163206C656E6820636875207669657420484F412068617984
:2040B800207468756F6E67206465752064756F630A312E4C656E68206261742074686965F9
:2040D800742062690A707070702C626174202D2076692064753A20303030302C6261740A70
:2040F800322E4C656E68207461742074686965742062690A707070702C746174202D20760D
:20411800692064753A20303030302C7461740A332E4C656E68206B69656D207472612074E3
:2041380072616E6720746861692074686965742062690A707070702C6B74202D207669208F
:2041580064753A20303030302C6B740A342E4C656E68207468617920646F69206D612070A6
:20417800696E3A20707070702C70696E2C787878780A7669206475203A20303030302C70FF
:20419800696E2C31323334200A5468617920646F69206D612070696E2074752030303030E0
:2041B800202D3E20313233340A352E4C656E682072657365742073696D2D67736D0A707074
:2041D80070702C72732D2076692064753A20303030302C72730A362E4C656E68206C696537
:2041F80074206B652064616E682062610A707070702C64622D2076692064753A20303030DA
:20421800302C64620A372E4C656E6820786F612064616E682062613A20707070702C786F3B
:20423800612C7878780A76643A20303030302C786F612C31352020786F6120736F206469F6
:20425800656E2074686F6169207468752031350A76643A20303030302C786F612C30202039
:2042780020786F6120746F616E20626F2064616E682062610A382E4C656E68206C757520D0
:2042980064616E682062613A20707070702C6C75752C787878787878787878780A76643AF2
:2042B80020303030302C6C75752C303931323334353637380A6C757520736F206469656E29
:2042D8002074686F616920303931323334353637382076616F2064616E6820626100202020
:2042F8004343412020001A00544B3C31303030204B2042414F43414F0041542B434D4753CF
:204318003D2200220D0020202053454E44494E4720202000415444003B0D0020202020434B
:20433800414C4C494E4720202020200044414E47204755492042414F2043414F0041540D68
:2043580000204B484F413D004F4E004F464600204755492048554F4E472044414E20200074
:2043780041542B4353504E3F0D002054454E204D414E47200041542B43545A553D310D00FA
:2043980020424154204C41592047494F200041542B434F50533D320D002020204E474154EE
:2043B800204D414E47202020200041542B434F50533D300D002020202054494D204D414E4D
:2043D80047202020200041542B43434C4B3F0D00204C41592047494F204750532000415411
:2043F8002B434C49503D310D00202053454E44494E4720434C495020200041542B434D4770
:20441800463D310D00202053454E44494E4720434D474620200041542B434E4D493D312C7D
:20443800312C302C302C310D00202053454E44494E4720434E4D4920200041542B434D47AB
:20445800443D312C340D0020205448494554204C415020544E20200041542B4353510D00B4
:2044780020534F4E47200041542B434855500D000D44756E67206375612063756F6E0020C7
:20449800205441542042414F2043414F2020000D4B686F612062616E207068696D000D4DCD
:2044B8006F2062616E207068696D000D4B686F61206375612063756F6E000D4B686F6920E0
:2044D80074616F206C6169207468696574206269000D72657365742067736D2073617520E1
:2044F800313073000D446F69206D612070696E207468616E6820636F6E67000D4C656E68C4
:20451800206B686F6E6720686F70206C65000D586F612064616E68206261207468616E68EE
:2045380020636F6E67000D4375612063756F6E2064616E67206B686F61000D58756F6E6706
:20455800206375612063756F6E000D4C656E68204B686F6E6720486F70204C65000D746869
:20457800656D2064616E68206261207468616E6820636F6E67000D42616E6720736F2064AE
:204598006120646179000D536F206474206B686F6E6720686F70204C65000D4D6F2063754D
:2045B800612063756F6E000D42617420555053000D54617420555053000D42616F20636120
:2045D8006F207468616E6820636F6E67000D4261742062616F2063616F000D5461742062D9
:2045F800616F2063616F000D47696F206B686F6E6720686F70206C65000D446120636869BF
:204618006E682067696F00000D5361692070696E2035206C616E004C555520534F3F204DA8
:204638003A4F4B20423A58004441204C555520534F3A202020202020002020202020200083
:204658000D4C7575207468616E6820636F6E67000D4C7575204D6173746572004348494E14
:20467800483A20202020202020202020004D41535445523A202020202020202020200050CA
:2046980048553A2020202020202020202020200020202020444F49202050494E20202020A8
:2046B80000202048554F4E4720204D4F544F52202000202020202020455849542020202096
:2046D80020200050494E3A0048554F4E473A20005048005452004149002048455420424F0C
:2046F800204E484F20484F4320000D72656D6F746520646320686F63000D6D6F64756C6516
:204718002062616F20646F6E672064756F6320686F63000D72656D6F7465206B68616E20C7
:204738006361702064756F632073752064756E67000D4454206D6F692064756F63206C75B6
:1F47580075000D4375612064616E67206B686F61000D4D6F20637561206C656E0014286D
:06007000E478FFF6D8FD64
:20004E007902E94400601B7A01904775783975A002E493F2A308B8000205A0D9F4DAF2755F
:02006E00A0FFF1
:1D3F4600E5828519F0A4C582C0F0851AF0A4D0F025F0C5838519F0A42583F583220A
:203F6300E519451A60467A01E51925E0F519E51A334012F51AE5829519E583951A40030AA3
:203F830080E6C3E51A13F51AE51913F519C3E5829519F5F0E583951A4005F58385F082C36A
:0D3FA300E51A13F51AE51913F519DAE122F4
:200076007800E84400600A790175A000E4F309D8FC7838E84402600C7903900001E4F0A34B
:04009600D8FCD9FABF
:203FB0007A10E4FBFCE58225E0F582E58333F583EB33FBEC33FCEB9519F5F0EC951A400603
:093FD000FCABF0438201DADD22B2
:0D00410075815D124063E582600302003EA0
:1C3FD90020F71430F6148883A88220F507E6A88375830022E280F7E49322E022F7
:203FF500C2D5E58330E70DD2D5E4C39582F582E49583F583E51A30E70BE4C39519F519E4D1
:16401500951AF51A123F6330D50BE4C39582F582E49583F5832248
:20402B00C2D5E58330E70DD2D5E4C39582F582E49583F583E51A30E70DB2D5E4C39519F50E
:18404B0019E4951AF51A123FB030D50BE4C39582F582E49583F58322C6
:044063007582002240
:00000001FF
