:2000A10075C70075C50075C60075C38075C40043C11022AE82AF8375C78375C5018EC48F2A
:2000C100C375C65A75C6A500AFC2C0071200A1D0078F8222AE82AF8375C78375C5028EC443
:2000E1008FC38518C275C65A75C6A5000200A1AE82AF8375C78375C5038EC48FC375C65A9F
:2001010075C6A5000200A143C1107E987F01EE4F60141EBEFF011FEE24B2F582EF3400F5B2
:200121008374FFF080E8C3EE9498EF9401501EEE24B2FCEF3400FD8E8274F02FF5830EBEDA
:2001410000010FE493FB8C828D83F080D99000000200F043C1107E987F01EE4F60141EBEFC
:20016100FF011FEE24B2F582EF3400F58374FFF080E8C3EE942DEF9401501EEE24B2FCEFAB
:200181003400FD8E8274F22FF5830EBE00010FE493FB8C828D83F080D99002000200F07E59
:2001A100007F00C3EE9498EF9401503075C78375C5028EC48FC3EE24B2F582EF3400F58369
:2001C1000EBE00010FE0F5C275C65A75C6A500C007C0061200A1D006D00780C7227E007FE3
:2001E10000C3EE942DEF9401503675C78375C5028EC48E0474022FFD8DC3EE24B2F582EF87
:200201003400F5830EBE00010FE0F5C275C65A75C6A500C007C0061200A1D006D00780C11B
:0102210022BA
:20022200759850438E40538EFE758BCC758DFFC2ABD28ED2ACD2A022E582FF700122C2996F
:200242008F9920990543C11080F8C29922E582FFC4540FFE53070FBE0A0050067C307D0072
:2002620080047C577D00EC2EF582C00712023AD007BF0A0050067D307E0080047D577E000B
:20028200ED2FF58202023AAD82AE83AFF0C2998D828E838FF0124595FC60218C9920990546
:1D02A20043C11080F8C2998D828E838FF0124595FCBC1A01220DBD00D60E80D322B5
:2002BF00AE82AF837C007D00C3EC9EED9F500A43C1100CBC00F20D80EF22AE82AF837C0047
:2002DF007D00C3EC9EED9F501D9003E8C007C006C005C0041202BFD004D005D006D0070C76
:2002FF00BC00DF0D80DC22AF82E5274FF58212039375820D020393AF823023118F821203B7
:20031F0093852882852983852AF00204178F820203F8E582FF700122D285EFC4540124FF86
:20033F009283EFA2E5E43324FF9282EF2323540124FF9281EF235401FE24FF9280D2840015
:20035F00C28400EF540124FF9283EF03540124FF9282EF03035401FE24FF9281EFA2E3E468
:20037F0033FF24FF9280D28400C2849000641202BFC28522E582FF700122C285EFC45401E3
:20039F0024FF9283EFA2E5E43324FF9282EF2323540124FF9281EF235401FE24FF9280D216
:2003BF008400C28400EF540124FF9283EF03540124FF9282EF03035401FE24FF9281EFA24B
:2003DF00E3E433FF24FF9280D28400C2849000640202BF75820C020393E582FF600E8F82FD
:2003FF0012039390462375F0800204177582011203939006400202BFAD82AE83AFF07C0087
:20041F008D828E838FF0124595FB6055BC10005050BB80005025EB24E050200CEC601C0D86
:20043F00BD00010E8B82C007C006C005C004120331D004D005D006D00780C58D828E838F1E
:20045F00F0124595FBA3AD82AE838B82C007C006C005C004120393D004D005D006D0078002
:20047F009F22C286903A981202BF75801C00C284900FA01202BFD28400C2849000A01202D6
:20049F00BFD28400C2849000A01202BF75801400C2849003E81202BFD28400C284007580B1
:2004BF001100C2849000281202BF75801000C2840075801300C2849000281202BF75801012
:2004DF0000C2840075801600C2849000281202BF75801000C2840075801800C2849003E8C2
:2004FF000202BFAF82E52E24E8500122E530240540030205BE8F82120393852B82852C83F2
:20051F00852DF012041774F6252E40067D207E00801DAB2E7C0075190A8C1A8B828C831271
:20053F0045E7AB82AC8374302BFBFD3395E0FE8D82120331AD2E7E0075190A8E1A8D828E1C
:20055F00831245B1AD8274302DF582120331E530240350123000067D3A7E0080047D207E8C
:20057F00008D82120331AD2F7E0075190A8E1A8D828E83C006C0051245E7AB8274302BF593
:20059F0082120331D005D00675190A751A008D828E831245B1AD8274302DF5820203318F3E
:2005BF0082120393852B82852C83852DF012041774F6252E40067E207F00801DAC2E7D00A9
:2005DF0075190A8D1A8C828D831245E7AC82AD8374302CFCFE3395E0FF8E82120331AE2E60
:2005FF007F0075190A8F1A8E828F831245B1AE8274302EF5821203313000067E3A7F008046
:20061F00047E207F008E82120331AE2F7F0075190A8F1A8E828F83C007C0061245E7AC828C
:20063F0074302CF582120331D006D00775190A751A008E828F831245B1AE8274302EF58297
:20065F001203313000067E3A7F0080047E207F008E82120331AE307F0075190A8F1A8E8223
:20067F008F83C007C0061245E7AC8274302CF582120331D006D00775190A751A008E828F50
:20069F00831245B1AE8274302EF582120331758220020331120393AE337F0075190A8F1A5B
:2006BF008E828F83C007C0061245E7AC8274302CF582120331D006D00775190A751A008E11
:2006DF00828F831245B1AE8274302EF582120331AE327F0075190A8F1A8E828F83C007C057
:2006FF00061245E7AC8274302CF582120331D006D00775190A751A008E828F831245B1AE30
:20071F008274302EF582120331AE317F0075190A8F1A8E828F83C007C0061245E7AC82747B
:20073F00302CF582120331D006D00775190A751A008E828F831245B1AE8274302EF58212F8
:08075F00033175822002033111
:11462300202020202020202020202020202020200086
:040000000200413287
:01000B0032C2
:0100130032BA
:01001B0032B2
:03002300021D5E5D
:01002B0032A2
:01003300329A
:03003B0002085068
:07009A00D206C22902003E5C
:03003E00023F1F5F
:2007670075FA0075EA0090026874A8F07461A3F090026A743BF07401A3F075DA4975DB4962
:20078700D2DE2243C110B216A216928790026DE0FFE06009301A06EF1490026DF090026E6A
:2007A700E0FFE06009301E06EF1490026EF090026FE0FFE06009302206EF1490026FF090BE
:2007C700026FE07002D224900274E0FFE06006EF14900274F0900276E0FFE06006EF149075
:2007E7000276F0900270E0600E900271E0FFE06006EF14900271F020A0139000ADE014F028
:20080700E0700AD2A09000AD740AF0D2050539E53924C45033D215753900E5356006D5369C
:2008270003753500053AE53A24C4501C753A00053BE53B24E85011753B0090026CE0FFE069
:200847006006EF1490026CF022C026C0E0C0F0C082C083C007C006C005C004C003C002C002
:2008670001C000C0D075D00843C11010D80302098D900268E0FEA3E0FF8EEA8FFA900268E7
:2008870074A82EF074613FA3F030170930B50690026D7402F030170330B5047F0080027F1D
:2008A70001EF24FF921A20190330B5047F0080027F01EF24FF921720180A201A0320170457
:2008C7007F0080027F01EF24FF9218A2B59219301B0930B30690026E7406F0301B0330B3FA
:2008E700047F0080027F01EF24FF921E201D0330B3047F0080027F01EF24FF921B201C0AFD
:20090700201E03201B047F0080027F01EF24FF921CA2B3921D301F0930B40690026F740252
:20092700F0301F0330B4047F0080027F01EF24FF922220210330B4047F0080027F01EF247F
:20094700FF921F20200A202203201F047F0080027F01EF24FF9220A2B49221900288E014B2
:20096700F0E0700AD229900288740AF0B223900289E014F0E0700F9002897428F075D00084
:2009870012078A75D00810D903020A6490026AE0FEA3E0FF8EEB8FFB90026A743B2EF07468
:2009A700013FA3F0301203020A6490024AE0FF04F0EF700CD213C2A1A2A192A3A20692A2F2
:2009C70030B635900266E07021900267E0FF24FD5018BF0700501390024BE0FF04F0EF243F
:2009E7004CF582E43402F583E4F0900266E02401F0900267E4F08055900267E0704390021A
:200A070066E0FF24FD501BBF0700501690024BE0FE04F0EE244CF582E43402F5837401F057
:200A2700801FEF24E3501A90024A7401F090024BE0FFBF1804D212800830130590024BE463
:200A4700F0900267E02401F0900266E4F090024BE0FF24E7500790024BE4F0C211D0D0D0D3
:200A670000D001D002D003D004D005D006D007D083D082D0F0D0E0D02632858244858345CE
:200A870085F046AC40900275ECF0853FF0ECA4FB900276740A2BF0C22585448285458385E1
:200AA70046F0C004120289D00474022544F9E43545FAAB4674072544F547E43545F5488563
:200AC700464974082544F54AE43545F54B85464CA83F302503020BCC900276E07003020B27
:200AE700CC302703020BCC43C110758280C004C003C002C001C00012039385418285428361
:200B07008543F0120417752BB1752C48752D80853B2E853A2F853930A21692007582C012B0
:200B27000502D000D001D002D003D0041024028002C322900274E06003302896C228880740
:200B470018EF7003020BCC900274ECF0900275ECF089828A838BF0124595FFBF2B448547FE
:200B6700828548838549F0124595FFBF3F028032854A82854B83854CF0124595FFBF3F02F1
:200B870080209048B975F080C004C003C002C001C000120289D000D001D002D003D00402B5
:200BA7000AD98544828545838546F0C004C003C002C001C000120289D000D001D002D0034B
:200BC700D004020AD97582801203F8900277E4F0A2252290000CE0602090000FE0701A7591
:200BE70041BF754248754380753F037540019048BD75F080120A81C32290000BE4F0904807
:200C0700D075F08012028990000175F0001202899002777409F07541DD7542487543807533
:200C27003F0575403D9048DA75F080020A81C20E900277740DF0900272E0FFBF500280276E
:200C4700BF6602803CBF6E028051BF74667541FF754248754380753F0375401E9048EB7563
:200C6700F080120A81804C7541FF754248754380753F0375401E90491175F080120A818032
:200C8700327541FF754248754380753F0375401E90492575F080120A8180187541FF754221
:200CA70048754380753F0375401E9048EB75F080120A81D32290000CE4F0C20E900277742C
:200CC70007F0754137754249754380753F0375401E9048EB75F080120A81900277E4F090B5
:200CE700000CE024FF22AD82AE83AFF090494875F080C007C006C005120289D005D006D04D
:200D0700078D828E838FF012028975414F754249754380753F0175403C90494C75F080029A
:200D27000A817F0A90496075F080C007120289D007BFA100400122EF240CF582E43400F5D9
:200D470083E0FE24AB500E8E05ED24DBF58212023A7FA18045EE24B550198E05ED24E5F527
:200D670082C00712023A90496075F080120289D0078027EE24BF50198E05ED24EFF582C098
:200D87000712023A90496275F080120289D00780098E82C00712023AD0078F060FEE240C1C
:200DA700F582E43400F583E4F0020D38AD82AE83AFF090496475F080C007C006C005120283
:200DC70089D005D006D0078D828E838FF0C007C006C00512028990496F75F0801202898524
:200DE7004D8212023AD005D006D0078D828E838FF0120289854D8212023A75417775424942
:200E0700754380753F0F7540019048DA75F080120A81D322E582FF7003020EF990498A7537
:200E2700F080C007120289D007BF0A00500D8F0674302EF58212023A020EE1BF6400503B0F
:200E47008F057E0075190A8E1A8D828E83C006C0051245E7AB8274302BF58212023AD005BA
:200E6700D00675190A751A008D828E831245B1AD8274302DF58212023A805F7E0075196432
:200E87008E1A8F828E83C007C0061245E7AC8274302CF58212023AD006D00775190A751A1F
:200EA700008F828E83C007C0061245E775190A751A001245B1AC8274302CF58212023AD07C
:200EC70006D00775190A751A008F828E831245B1AE8274302EF58212023A754193754249CD
:200EE700754380753F0175401F90496075F080020A817F01BF0A00503690498A75F080C0A8
:200F070007120289D0078F0674302EF582C00712023A754193754249754380753F0F754063
:200F27000190496075F080120A81D0070F80C5BF6400506590498A75F080C007120289D06F
:200F4700078F057E0075190A8E1A8D828E83C007C006C0051245E7AB8274302BF5821202FA
:200F67003AD005D00675190A751A008D828E831245B1AD8274302DF58212023A7541A475A2
:200F87004249754380753F0F75400190496075F080120A81D0070F8096BFFB0040012290AA
:200FA700498A75F080C007120289D0078F057E007519648E1A8D828E83C007C006C0051207
:200FC70045E7AB8274302BF58212023AD005D00675190A751A008D828E83C006C005124549
:200FE700E775190A751A001245B1AB8274302BF58212023AD005D00675190A751A008D8232
:201007008E831245B1AD8274302DF58212023A7541B5754249754380753F0F7540019049F6
:201027006075F080120A81D0070F020FA0754134754246754380753F0F7540019049C67584
:20104700F080120A817534009000AB740BF09000ABE024F540012274052534500122120C2F
:20106700BC9000ABE4F075370AE534700302112F9049CA75F0801202890534749C25344013
:2010870036AE347F0075190A8F1A8E828F831245E7AE8274302EF58212023AAE347F007574
:2010A700190A8F1A8E828F831245B1AE8274302EF58212023A8057AE347F007519648F1A99
:2010C7008E828F831245E7AE8274302EF58212023AAE347F0075190A8F1A8E828F831245C7
:2010E700E775190A751A001245B1AE8274302EF58212023AAE347F0075190A8F1A8E828FCB
:20110700831245B1AE8274302EF58212023A7541D9754249754380753F0175401F9049D37A
:2011270075F080120A8180187541D9754249754380753F0175401F9049EA75F080120A81F9
:20114700120BDA400122120D297541F9754249754380753F327540019048BD75F080120ACD
:201167008102105590F007E493703690F00CE493FF2405502C90000CE4F0120BDA4001226B
:20118700904A0A75F0801202897541F9754249754380753F327540019048BD75F080020AD9
:2011A7008190F007E493FF1FE4937D0025E0FEED33FDEE2EFEED33FDEE2408F582ED34F09E
:2011C700F583E493FEBEFF00500A90F007E493FD7E0080047D007E007E0074632DF582E42F
:2011E7003EF5837519648E1AC0071245B1AD82D007EDF55260067C0A7E00802390F007E417
:2012070093FB7A0075190A8A1A8B828A83C0071245E7AA82AB83D0070AEAFC3395E0FE8C11
:2012270051740AB5510474018001E4FE754E00EFB552012274F6254E5001228F507900EF83
:20124700B552030213EDB90A0040030213ED8900E875F00BA404F888388837900277740FE7
:20126700F09049CA75F080C007C006C001120289D001D006D0078F007A00E828F8EA33FA5E
:20128700E828F8EA33FAE82408F582EA34F0F583E493FABA0A0050198A00743028F582C0EC
:2012A70007C006C00112023AD001D006D00702137BBA6400504B8A007C0075190A8C1A88B8
:2012C700828C83C007C006C004C001C0001245E7AB8274302BF58212023AD000D001D00430
:2012E70075190A751A0088828C83C0011245B1AC8274302CF58212023AD001D006D007801D
:20130700737D007519648D1A8A828D83C007C006C005C002C0011245E7AB8274302BF5829B
:2013270012023AD001D002D00575190A751A008A828D83C005C002C0011245E775190A750A
:201347001A001245B1AB8274302BF58212023AD001D002D00575190A751A008A828D83C028
:20136700011245B1AC8274302CF58212023AD001D006D0077541D9754249754380753F01A0
:2013870075401F90496075F080C007C006C001120A81D0018919751A0090000BC0011245B4
:2013A70002E5828583F0D001D006D007240BFCE435F0FDEC240CF582ED3400F583E4F08F87
:2013C700047D0074632CF582E43DF5837519648D1AC006C0011245B1AC82AD83D001D00645
:2013E7008C0709021246AF5090000CE4F0C007C006120BDAD006D007400122754F00EFB585
:2014070052030218F574F6254F50030218F5E54E75F00AA4254F04FCBC0A0050158C037439
:20142700302BF582C007C00612023AD006D0070214E8BC640050438C027B0075190A8B1A54
:201447008A828B83C007C006C003C0021245E7A882743028F58212023AD002D00375190A23
:20146700751A008A828B831245B1AA8274302AF58212023AD006D00780677B007519648B69
:201487001A8C828B83C007C006C004C0031245E7A982743029F58212023AD003D0047519CB
:2014A7000A751A008C828B83C004C0031245E775190A751A001245B1A982743029F58212FB
:2014C700023AD003D00475190A751A008C828B831245B1AB8274302BF58212023AD006D070
:2014E7000775822EC007C00612023A854F19751A0090000B124502AB82AC83D006D007EB7A
:20150700240CFBEC3400FC0BBB00010C7A008B828C838AF0C007C006120289D006D0078F34
:20152700037C00EB2BFBEC33FCEB2BFBEC33FC0BBB00010CEB2408F582EC34F0F583E4936D
:20154700FC23235403FC24FC4058EC2C901557738006801780288039904A1E75F080C0078E
:20156700C006120289D006D0078037904A2275F080C007C006120289D006D0078024904A67
:201587002675F080C007C006120289D006D0078011904A2A75F080C007C006120289D006E8
:2015A700D007C0068F53755400E5532553F555E55433F556E5552555F555E55633F5567400
:2015C700022555F8E43556FDE82408F582ED34F0F583E493C423541FFC7E0075190A8E1A85
:2015E7008C828E83C005C0001245E7AC82AE83D000D00574302CF582C006C005C000120258
:201607003AD000D005D006E82408F582ED34F0F583E493C423541FFE7C0075190A8C1A8EE3
:20162700828C83C005C0001245B1AC82AE83D000D00574302CF582C006C005C00012023AA1
:2016470075822F12023AD000D005D00674012555FCE43556FEEC2408F582EE34F0F583E43F
:2016670093FA7B00740F5AF58275830075190A8B1AC006C005C004C0001245E7AA827430B5
:201687002AF58212023AD000D004D005D006EC2408F582EE34F0F583E493FB7A00740F5B22
:2016A700F58275830075190A8A1AC006C005C004C0001245B1AA8274302AF58212023A752D
:2016C700822F12023AD000D004D005D006EC2408F582EE34F0F583E493FB530330E4CBC431
:2016E700540F6BCB540FCB6BCB30E30244F0FA74142BF582E43AF58375190A751A00C006F6
:20170700C005C004C0001245E7AA8274302AF58212023AD000D004D005D006EC2408F5829E
:20172700EE34F0F583E493FE530630E4CEC4540F6ECE540FCE6ECE30E30244F0FC74142E9D
:20174700F582E43CF58375190A751A00C005C0001245B1AC82AE83D000D00574302CF58274
:20176700C006C005C00012023A75822C12023AD000D005D006E82408F582ED34F0F583E4E5
:2017870093FE5306077C00EE2EF557EC33F558E5572557F557E55833F55874032555FAE471
:2017A7003556FBEA2408F582EB34F0F583E493232354037E002557F582EE3558F583751982
:2017C7000A8E1AC005C003C002C0001245E7AC82AE83D000D002D003D00574302CF582C058
:2017E70006C005C003C002C00012023AD000D002D003D005D006E82408F582ED34F0F58350
:20180700E493FE5306077D00EE2EFEED33FDEE2EFEED33FDEA2408F582EB34F0F583E49376
:20182700232354037C002EF582EC3DF58375190A8C1AC003C0021245B1AD82AE83D002D075
:201847000374302DF582C006C003C00212023A75823A12023AD002D003D006EA2408F58216
:20186700EB34F0F583E493FE7D00743F5EF58275830075190A8D1AC003C0021245E7AD8237
:20188700AE83D002D00374302DF582C006C003C00212023AD002D003D006EA2408F582EB97
:2018A70034F0F583E493FE7D00743F5EF58275830075190A8D1A1245B1AD82AE8374302D9B
:2018C700F582C00612023A75820D12023AD00674632553F582E43554F583751964751A0022
:2018E7001245B1AD828D07054FD006021405904A2E75F080C007C006120289D006D0077499
:2019070009B54E13904A3575F080C007C006120289D006D0078012AB4E74312BF582C0073D
:20192700C00612023AD006D00775822FC007C00612023AD006D007EE6013904A3575F080DC
:20194700C007C006120289D006D0078012AC5174302CF582C007C00612023AD006D00775D6
:2019670041F9754249754380753F327540019048BD75F080C007C006120A81D006D00705FC
:201987004E02123685825985835A85F05B90F004E493701875413875424A754380753F03B5
:2019A7007540019048BD75F080020A81754134754246754380753F0F7540019049C675F0C7
:2019C70080120A8174012559FAE4355AFBAC5B8A828B838CF0124595F9B92A028011C004CC
:2019E700C003C002120CBCD002D003D004800590000CE4F0C004C003C002120BDAD002D031
:201A070003D004400122904A4875F080C004C003C002120289D002D003D00430A30678507E
:201A2700794A80047853794A7F80888289838FF0C004C003C002120289D002D003D0048A4D
:201A4700828B838CF0124595FABA2A02803890000CE06032904A5775F08012028990000C92
:201A670075F000120289900010E07009904A6275F080120289900010E4F090000FF0900013
:201A87000EF090000DF0855982855A83855BF012028974012559FDE4355AFEAF5B8D828E7D
:201AA700838FF0124595FDBD2A099048BD75F0800202897541F9754249754380753F3275FB
:201AC70040019048BD75F080020A81AF82753700BFA100500FEF240CF582E43400F5830FE6
:201AE700E4F080EC2290000CE4F0120BDA40012290464375F08012028975417C75424A7570
:201B07004380753F327540019048BD75F080020A81754134754246754380753F0F754001C0
:201B27009049C675F080120A815034758200121AD2753700900277740AF075419775424A93
:201B4700754380753F0F754001904A8D75F080120A815009900010E0FF900272F0D322C360
:201B6700227541AD75424A754380753F0F754001904AA275F080120A814001227541C675D5
:201B8700424A754380753F0F754001904ABB75F080120A81400122900277740CF07541E276
:201BA70075424A754380753F0A75403C904AD775F080120A81400122758200121AD27537FF
:201BC700009002777402F07541FD75424A754380753F0F754001904AF375F080120A81409B
:201BE700012290000FE024D075F00AA4FF900010E02F24D0F53E900012E024D075F00AA4D7
:201C0700FF900013E02F24D0F53D900015E024D075F00AA4FF900016E02F24D0F53C9000F1
:201C270018E024D075F00AA4FF900019E02F24D0F53B90001BE024D075F00AA4FF90001C86
:201C4700E02F24D0F53A90001EE024D075F00AA4FF90001FE02F24D0F53922754116754232
:201C67004B754380753F0F754001904B0B75F080120A81502B758200121AD275370090024B
:201C870077740BF075413275424B754380753F0F754001904B2775F080120A815002D322F1
:201CA700C32275414D75424B754380753F0F754001904B4275F080120A814003021D5C75B0
:201CC700417175424B754380753F0F754001904B5E75F080120A814003021D5C754196755E
:201CE700424B754380753F0F754001904B8275F080120A81505F900277740EF0758200128D
:201D07001AD27537007541AF75424B754380753F0F754001904BA775F080120A81503490F4
:201D27000273E4F07F00EF240CF582E43400F583E0FEBE2C02801CEF240CF582E43400F5A5
:201D4700830FE024D0FE900273E0FD75F00AA42EF080D3D322C322C026C0E0C0F0C082C0A0
:201D670083C007C006C005C004C003C002C001C000C0D075D0102098030237A443C110909C
:201D87000275E0900274F0900278E02479F582E43402F583E599F0900278E0FF2479F582F4
:201DA700E43402F583E0FEBE4E028003021EE48F147D00740C2CF582E43DF58375190D8D13
:201DC7001AC017C016C015C01475D0001245B175D010AA82AB83D014D015D016D017EA24EC
:201DE70079F582EB3402F583E0FBBB49028003021EE4740B2CF582E43DF58375190D751A06
:201E070000C017C016C015C01475D0001245B175D010AA82AB83D014D015D016D017EA24C5
:201E270079F582EB3402F583E0FBBB20028003021EE4740A2CF582E43DF58375190D751AEF
:201E470000C017C016C015C01475D0001245B175D010AA82AB83D014D015D016D017EA2485
:201E670079F582EB3402F583E0FBBB547074092CF582E43DF58375190D751A00C017C016E8
:201E8700C015C01475D0001245B175D010AA82AB83D014D015D016D017EA2479F582EB34E3
:201EA70002F583E0FBBB4F3574082CF582E43DF58375190D751A00C017C01675D00012455C
:201EC700B175D010AC82AD83D016D017EC2479F582ED3402F583E0FDBD4E02D22790027743
:201EE700E0FD24F05003023790ED240A83F582ED241483F583E473D6900F7990B8909A6979
:201F0700106C007CF51E222137212A372C372E362E20211F331F37AC370537EC240CF58223
:201F2700E43400F583E599F07420B59934900278E0FC7B00740C2CF582E43BF58375190DD0
:201F47008B1A75D0001245B175D010AB82AC83EB2479F582EC3402F583E0FCBC3A037537BD
:201F670000742CB599028003023790900277E4F0F5370237907454B5996E8F137C00740C2A
:201F87002BF582E43CF58375190D8C1AC017C014C01375D0001245B175D010A982AA83D077
:201FA70013D014D017E92479F582EA3402F583E0FABA5334740B2BF582E43CF58375190D38
:201FC700751A00C01775D0001245B175D010AB82AC83D017EB2479F582EC3402F583E0FC3A
:201FE700BC4405D2250237907452B5990280030237908F137C00740C2BF582E43CF5837566
:20200700190D8C1AC014C01375D0001245B175D010A982AA83D013D014E92479F582EA346A
:2020270002F583E0FABA4F028003023790740B2BF582E43CF58375190D751A0075D00012B4
:2020470045B175D010AB82AC83EB2479F582EC3402F583E0FCBC52028003023790900274FB
:20206700E4F0023790AC370537EC240CF582E43400F583E599F07422B59934900278E0FC0E
:202087007B00740C2CF582E43BF58375190D8B1A75D0001245B175D010AB82AC83EB24793E
:2020A700F582EC3402F583E0FCBC2003753700742CB599028003023790900278E0FC7B0004
:2020C700740C2CF582E43BF58375190D8B1A75D0001245B175D010AB82AC83EB2479F58202
:2020E700EC3402F583E0FCBC22028003023790900277E4F0F5370237907431B599028003ED
:20210700023790D225023790AC370537EC240CF582E43400F583E599F0744BB59967900279
:2021270078E0FB7C00740C2BF582E43CF58375190D8C1AC014C01375D0001245B175D01085
:20214700A982AA83D013D014E92479F582EA3402F583E0FABA4C2E740B2BF582E43CF583FD
:2021670075190D751A0075D0001245B175D010AB82AC83EB2479F582EC3402F583E0FCBCFF
:202187004303753700740DB599028003023790900278E0FC7B00740C2CF582E43BF5837599
:2021A700190D8B1A75D0001245B175D010AB82AC83EB2479F582EC3402F583E0FCBC2202FA
:2021C7008003023790900277E4F0F537023790743EB599129048BD75F08075D0001202896C
:2021E70075D010023790BE470280030222C78F137C00740C2BF582E43CF58375190D8C1A2C
:20220700C017C016C015C014C01375D0001245B175D010A982AA83D013D014D015D016D032
:2022270017E92479F582EA3402F583E0FABA4E0280030222C7740B2BF582E43CF583751952
:202247000D751A00C017C016C015C014C01375D0001245B175D010A982AA83D013D014D021
:2022670015D016D017E92479F582EA3402F583E0FABA494C740A2BF582E43CF58375190D64
:20228700751A00C017C016C01575D0001245B175D010AB82AC83D015D016D017EB2479F5F9
:2022A70082EC3402F583E0FCBC521575DB00904BB675F08075D00012028975D01002379036
:2022C700E4BE3A0104FC70030224928F127B00740C2AF582E43BF58375190D8B1AC017C044
:2022E70016C015C014C013C01275D0001245B175D010A882A983D012D013D014D015D01607
:20230700D017E82479F582E93402F583E0F9B952028048740C2AF582E43BF58375190D75C6
:202327001A00C017C016C015C014C013C01275D0001245B175D010A882A983D012D013D0F4
:2023470014D015D016D017E82479F582E93402F583E0F9B946028003022492740B2AF582E8
:20236700E43BF58375190D751A00C017C016C015C014C013C01275D0001245B175D010A850
:2023870082A983D012D013D014D015D016D017E82479F582E93402F583E0F9B94202800341
:2023A700022492740A2AF582E43BF58375190D751A00C017C016C015C014C013C01275D03E
:2023C700001245B175D010A882A983D012D013D014D015D016D017E82479F582E93402F5D8
:2023E70083E0F9B95002800302249274092AF582E43BF58375190D751A00C017C016C015D3
:20240700C014C013C01275D0001245B175D010A882A983D012D013D014D015D016D017E801
:202427002479F582E93402F583E0F9B9435D74082AF582E43BF58375190D751A00C017C043
:2024470016C015C01475D0001245B175D010AA82AB83D014D015D016D017EA2479F582EB3B
:202467003402F583E0FBBB2B229000ABE0FB24F650099000AB740BF0023790D202900277EB
:202487007408F0C210753400023790EC70030225E28F137C00740C2BF582E43CF5837519B7
:2024A7000D8C1AC017C016C015C014C01375D0001245B175D010A982AA83D013D014D01593
:2024C700D016D017E92479F582EA3402F583E0FABA490280030225E2740B2BF582E43CF5F2
:2024E7008375190D751A00C017C016C015C014C01375D0001245B175D010A982AA83D01322
:20250700D014D015D016D017E92479F582EA3402F583E0FABA540280030225E2740A2BF575
:2025270082E43CF58375190D751A00C017C016C015C014C01375D0001245B175D010A9825A
:20254700AA83D013D014D015D016D017E92479F582EA3402F583E0FABA4D0280030225E2CA
:2025670074092BF582E43CF58375190D751A00C017C016C015C014C01375D0001245B17588
:20258700D010A982AA83D013D014D015D016D017E92479F582EA3402F583E0FABA433C7467
:2025A700082BF582E43CF58375190D751A00C017C016C01575D0001245B175D010AB82ACAB
:2025C70083D015D016D017EB2479F582EC3402F583E0FCBC2B05D20D023790E4BE200104EF
:2025E700FC70030227918F127B00740C2AF582E43BF58375190D8B1AC017C016C015C01441
:20260700C013C01275D0001245B175D010A882A983D012D013D014D015D016D017E8247936
:20262700F582E93402F583E0F9B93A028003022791740B2AF582E43BF58375190D751A0099
:20264700C017C016C015C014C013C01275D0001245B175D010A882A983D012D013D014D007
:2026670015D016D017E82479F582E93402F583E0F9B94C028003022791740A2AF582E43B83
:20268700F58375190D751A00C017C016C015C014C013C01275D0001245B175D010A882A921
:2026A70083D012D013D014D015D016D017E82479F582E93402F583E0F9B94702800302271B
:2026C7009174092AF582E43BF58375190D751A00C017C016C015C014C013C01275D0001231
:2026E70045B175D010A882A983D012D013D014D015D016D017E82479F582E93402F583E064
:20270700F9B94D02800302279174082AF582E43BF58375190D751A00C017C016C015C01440
:20272700C013C01275D0001245B175D010A882A983D012D013D014D015D016D017E8247915
:20274700F582E93402F583E0F9B9433E74072AF582E43BF58375190D751A00C017C016C007
:2027670015C01475D0001245B175D010AA82AB83D014D015D016D017EA2479F582EB3402B8
:20278700F583E0FBBB2B03022925EC70030229708F137C00740C2BF582E43CF58375190D39
:2027A7008C1AC017C016C015C014C01375D0001245B175D010A982AA83D013D014D015D0CD
:2027C70016D017E92479F582EA3402F583E0FABA3A028003022970740B2BF582E43CF583B9
:2027E70075190D751A00C017C016C015C014C01375D0001245B175D010A982AA83D013D0D2
:2028070014D015D016D017E92479F582EA3402F583E0FABA50028003022970740A2BF58232
:20282700E43CF58375190D751A00C017C016C015C014C01375D0001245B175D010A982AA2F
:2028470083D013D014D015D016D017E92479F582EA3402F583E0FABA49028003022970746F
:20286700092BF582E43CF58375190D751A00C017C016C015C014C01375D0001245B175D029
:2028870010A982AA83D013D014D015D016D017E92479F582EA3402F583E0FABA4C02800356
:2028A70002297074082BF582E43CF58375190D751A00C017C016C015C014C01375D0001216
:2028C70045B175D010A982AA83D013D014D015D016D017E92479F582EA3402F583E0FABAAC
:2028E7004302800302297074072BF582E43CF58375190D751A00C017C016C01575D00012B6
:2029070045B175D010AB82AC83D015D016D017EB2479F582EC3402F583E0FCBC2B4B8F130E
:202927007C0074092BF582E43CF58375190D8C1A75D0001245B175D010AB82AC83EB247996
:20294700F582EC3402F583E0FCBC4C03D38001C392074006300C03023790C20AC208C20919
:202967009002777403F0023790BE4B028003022A018F137C00740C2BF582E43CF5837519F6
:202987000D8C1AC017C016C01575D0001245B175D010AB82AC83D015D016D017EB2479F5CE
:2029A70082EC3402F583E0FCBC4F4FBD0203753700A226B39225C226300223AC377D001C65
:2029C700BCFF011DEC240CFCED3400FD8C828D83E0240AFB8C828D83F0C210753700E53712
:2029E7007003023790753700904B8275F08075D00012028975D010023790BE54028003020D
:202A070037908F147D00740C2CF582E43DF58375190D8D1AC015C01475D0001245B175D08F
:202A270010AA82AB83D014D015EA2479F582EB3402F583E0FBBB4F028003023790740B2CE7
:202A4700F582E43DF58375190D751A0075D0001245B175D010AC82AD83EC2479F582ED3414
:202A670002F583E0FDBD4E028003023790D226023790200A03022BC3E5377068740DB599FE
:202A870002800302379030073D8F147D0074092CF582E43DF58375190D8D1A75D0001245B6
:202AA700B175D010AC82AD83EC2479F582ED3402F583E0FDBD2203D38001C39208BD6D0373
:202AC700D38001C39209D201300808900277E4F002379030070575360205359002777405DF
:202AE700F0023790740DB537028003022B9CBE2203022B9C8F147D00740C2CF582E43DF556
:202B07008375190D8D1AC015C01475D0001245B175D010AA82AB83D014D015EA2479F5827D
:202B2700EB3402F583E0FBBB226B740B2CF582E43DF58375190D751A00C015C01475D000FF
:202B47001245B175D010AA82AB83D014D015EA2479F582EB3402F583E0FBBB2C38740A2CB3
:202B6700F582E43DF58375190D751A0075D0001245B175D010AC82AD83EC2479F582ED34F3
:202B870002F583E0FDBD220D746DB59902D20975370002379074F62537400EE5372401F520
:202BA70082E43400F583E599F0E53724F35008753700D208023790053702379030073CBE7E
:202BC70030398F147D00740C2CF582E43DF58375190D8D1AC017C01675D0001245B175D028
:202BE70010AC82AD83D016D017EC2479F582ED3402F583E0FDBD2203022C9EBE34028003F6
:202C0700022CA38F147D00740C2CF582E43DF58375190D8D1AC015C01475D0001245B17553
:202C2700D010AA82AB83D014D015EA2479F582EB3402F583E0FBBB3863740B2CF582E43D7F
:202C4700F58375190D751A00C015C01475D0001245B175D010AA82AB83D014D015EA2479D6
:202C6700F582EB3402F583E0FBBB2B30740A2CF582E43DF58375190D751A0075D0001245CC
:202C8700B175D010AC82AD83EC2479F582ED3402F583E0FDBD2205D20A753701740DB59915
:202CA700028003023790900277E4F075DB49023790300B43743BB599028021740DB5990291
:202CC700801A746025374014AD370537ED240CF582E43400F583E599F0023790E537240C08
:202CE700F582E43400F583E4F0F537C20B900277E4F0D20C023790BE2C028003022DF08F58
:202D0700147D00740C2CF582E43DF58375190D8D1AC015C01475D0001245B175D010AA82A6
:202D2700AB83D014D015EA2479F582EB3402F583E0FB90F003E493FAEBB512028003022DC9
:202D4700F0740B2CF582E43DF58375190D751A00C015C01475D0001245B175D010AA82AB75
:202D670083D014D015EA2479F582EB3402F583E0FB90F002E493FAEBB5126E740A2CF5825A
:202D8700E43DF58375190D751A00C015C01475D0001245B175D010AA82AB83D014D015EA11
:202DA7002479F582EB3402F583E0FB90F001E493FAEBB5123474092CF582E43DF583751965
:202DC7000D751A0075D0001245B175D010AC82AD83EC2479F582ED3402F583E0FD90F00058
:202DE700E493FCEDB5140280047D0080027D01ED24FF920B740DB59902800302379075372A
:202E070001900277E4F0023790743EB5990A900277E4F0D225023790BE52028003023790FF
:202E27008F147D00740C2CF582E43DF58375190D8D1AC015C01475D0001245B175D010AA78
:202E470082AB83D014D015EA2479F582EB3402F583E0FBBB52028003023790740B2CF58203
:202E6700E43DF58375190D751A0075D0001245B175D010AC82AD83EC2479F582ED3402F570
:202E870083E0FDBD45028003023790900274E4F0023790300E5B900272E0FDBD50028003CC
:202EA700BD66057420B5990FBD74028003BD6E297464B59902802274602537401C742EB53B
:202EC7009903023790AD370537ED240CF582E43400F583E599F0023790C20EC210E5372429
:202EE7000CF582E43400F583E4F0F537D225023790900272E0FDBD50028003023055BE3D03
:202F07000280030230558F137C00740C2BF582E43CF58375190D8C1AC017C016C015C0142F
:202F2700C01375D0001245B175D010A982AA83D013D014D015D016D017E92479F582EA3429
:202F470002F583E0FABA68028003023055740B2BF582E43CF58375190D751A00C017C01658
:202F6700C015C014C01375D0001245B175D010A982AA83D013D014D015D016D017E92479D5
:202F8700F582EA3402F583E0FABA6E028003023055740A2BF582E43CF58375190D751A002B
:202FA700C017C016C015C014C01375D0001245B175D010A982AA83D013D014D015D016D085
:202FC70017E92479F582EA3402F583E0FABA6902800302305574092BF582E43CF5837519F0
:202FE7000D751A00C017C016C015C014C01375D0001245B175D010A982AA83D013D014D074
:2030070015D016D017E92479F582EA3402F583E0FABA683A74082BF582E43CF58375190DAB
:20302700751A00C017C016C01575D0001245B175D010AB82AC83D015D016D017EB2479F54B
:2030470082EC3402F583E0FCBC63030233F0BD740280030231ADBE200280030231AD8F13AF
:203067007C00740C2BF582E43CF58375190D8C1AC017C016C015C014C01375D0001245B15C
:2030870075D010A982AA83D013D014D015D016D017E92479F582EA3402F583E0FABA3A029E
:2030A70080030231AD740B2BF582E43CF58375190D751A00C017C016C015C014C01375D055
:2030C700001245B175D010A982AA83D013D014D015D016D017E92479F582EA3402F583E046
:2030E700FABA470280030231AD740A2BF582E43CF58375190D751A00C017C016C015C01431
:20310700C01375D0001245B175D010A982AA83D013D014D015D016D017E92479F582EA3447
:2031270002F583E0FABA4B0280030231AD74092BF582E43CF58375190D751A00C017C0163C
:20314700C015C014C01375D0001245B175D010A982AA83D013D014D015D016D017E92479F3
:20316700F582EA3402F583E0FABA543A74082BF582E43CF58375190D751A00C017C016C0CA
:203187001575D0001245B175D010AB82AC83D015D016D017EB2479F582EC3402F583E0FCEE
:2031A700BC20030233F0BD66028003023305BE3A0280030233058F137C00740C2BF582E447
:2031C7003CF58375190D8C1AC017C016C015C014C01375D0001245B175D010A982AA83D000
:2031E70013D014D015D016D017E92479F582EA3402F583E0FABA43028003023305740B2B4A
:20320700F582E43CF58375190D751A00C017C016C015C014C01375D0001245B175D010A9FA
:2032270082AA83D013D014D015D016D017E92479F582EA3402F583E0FABA4B028003023331
:2032470005740A2BF582E43CF58375190D751A00C017C016C015C014C01375D0001245B10A
:2032670075D010A982AA83D013D014D015D016D017E92479F582EA3402F583E0FABA5402A2
:20328700800302330574092BF582E43CF58375190D751A00C017C016C015C014C01375D01B
:2032A700001245B175D010A982AA83D013D014D015D016D017E92479F582EA3402F583E064
:2032C700FABA203A74082BF582E43CF58375190D751A00C017C016C01575D0001245B175B5
:2032E700D010AB82AC83D015D016D017EB2479F582EC3402F583E0FCBC2E030233F0BD6E27
:20330700028003023790BE200280030237908F147D00740C2CF582E43DF58375190D8D1A0E
:20332700C015C01475D0001245B175D010AA82AB83D014D015EA2479F582EB3402F583E0A1
:20334700FBBB3A028003023790740B2CF582E43DF58375190D751A00C015C01475D0001243
:2033670045B175D010AA82AB83D014D015EA2479F582EB3402F583E0FBBB430280030237AA
:2033870090740A2CF582E43DF58375190D751A00C015C01475D0001245B175D010AA82AB90
:2033A70083D014D015EA2479F582EB3402F583E0FBBB4B02800302379074092CF582E43DB3
:2033C700F58375190D751A0075D0001245B175D010AC82AD83EC2479F582ED3402F583E0C9
:2033E700FDBD54028003023790D20E023790200E03023477900272E0FDBD50028003BD6E45
:2034070005740AB59912BD66057422B5990ABD7432742EB59902802B74F62537402574F716
:203427002537401AAD3705370DED3395E0FCED2401F582EC3400F583E599F002379005377D
:20344700023790C20EC21074F625374018D225AD370DED3395E0FCED2401F582EC3400F5C5
:2034670083E4F08005900274E4F0753700023790900272E0FDBD5040BE3A3D8F137C007425
:203487000C2BF582E43CF58375190D8C1AC017C016C01575D0001245B175D010AB82AC831E
:2034A700D015D016D017EB2479F582EC3402F583E0FCBC290302353EBD6E3FBE303C8F134B
:2034C7007C00740C2BF582E43CF58375190D8C1AC017C016C01575D0001245B175D010AB9F
:2034E70082AC83D015D016D017EB2479F582EC3402F583E0FCBC2002803DBD66028003BDED
:20350700743ABE34378F157E00740C2DF582E43EF58375190D8E1AC01775D0001245B17511
:20352700D010AD82AE83D017ED2479F582EE3402F583E0FEBE3805D20E0237907435B59947
:203547000280030235EF8F157E00740C2DF582E43EF58375190D8E1AC017C016C01575D0CF
:20356700001245B175D010AB82AC83D015D016D017EB2479F582EC3402F583E0FCBC31680F
:20358700740B2DF582E43EF58375190D751A00C017C016C01575D0001245B175D010AB82EC
:2035A700AC83D015D016D017EB2479F582EC3402F583E0FCBC2031740A2DF582E43EF583E5
:2035C70075190D751A00C01775D0001245B175D010AD82AE83D017ED2479F582EE3402F5E0
:2035E70083E0FEBE2C0280757452B5990280030237908F157E00740C2DF582E43EF58375CB
:20360700190D8E1AC016C01575D0001245B175D010AB82AC83D015D016EB2479F582EC3442
:2036270002F583E0FCBC52028003023790740B2DF582E43EF58375190D751A0075D0001293
:2036470045B175D010AD82AE83ED2479F582EE3402F583E0FEBE45028003023790D22802F0
:2036670037907422B5990280030236F3D2107E00740C2FF582E43EF58375190D8E1A75D040
:20368700001245B175D010AE82AF83EE2479F582EF3402F583E0FFBF2C21AE377F001EBE9A
:2036A700FF011FEE240CFEEF3400FF8E828F83E02411FD8E828F83F0023790AE377F001E15
:2036C700BEFF011FEE240CFEEF3400FF8E828F83E0241BFD8E828F83F09000ABE0FF0F90BF
:2036E70000ABEFF0900277E4F0023790E59924D0400302379020100FE53475F00AA4FFE5C6
:2037070099FE2F24D0F534AF370537EF240CF582E43400F583E599F0023790AF370537EF2F
:20372700240CF582E43400F583E599F07422B59936900278E0FF7E00740C2FF582E43EF51F
:203747008375190D8E1A75D0001245B175D010AE82AF83EE2479F582EF3402F583E0FFBF5B
:203767002C0585383780227422B5991DAE377F001EBEFF011FEE240CF582EF3400F583E407
:20378700F0F537900277F0D225900278E02401F0E0FF24F35005900278E4F0C298D0D0D024
:2037A70000D001D002D003D004D005D006D007D083D082D0F0D0E0D02632AD82AE83AFF0FA
:2037C7007C00754134754246754380753F0F7540019049C675F080C007C006C005C0041222
:2037E7000A81904BBB75F080120289D004D005D006D0073009067A6D7B0080047A757B003A
:203807008A82C007C006C005C00412023AD004D005D006D007740A2DF9E43EFA8F0389827E
:203827008A838BF0E41244E78D828E838FF0C004120289D0043009067E6D7F0080047E75E4
:203847007F008E82C00412023A9000AB7409F07537007541C575424B754380753F0F75403F
:20386700029048DA75F080120A81D0047F00EF240CF582E43400F583E0FEBE3A00501B8CC5
:2038870005ED75F00AA4FDEF240CF582E43400F5830FE0FB2D24D0FC80D4EC75F00AA42E71
:2038A70024BFFFC007120108D0079000B9E07D0025E0FEED33FDEE2EFEED33FD74082EFBC4
:2038C700E43DFCEB24B2F582EC3400F583EFF0E55C255C25E0FFAB3E7C00EB24ECFBEC34D4
:2038E700FFFCC3EB9403EC64809480500BE53E24ECFB3395E0FC80047B037C00EB2FFF7465
:20390700092EFBE43DFCEB24B2F582EC3400F583EFC454F0253DF0740A2EFCE43DFFEC2460
:20392700B2F582EF3400F583E53CC40354F8FFE53B0303543F2FF0740B2EFEE43DFDEE24D6
:20394700B2F582ED3400F583E53B5403030354C0253AF09000B9E0FFBF63079000B9E4F050
:2039670080060F9000B9EFF00201A0C20F7F00EF240CFDE43400FE0F8D828E83E0600543A7
:20398700C11080EBBFA000500FEF240CF582E43400F5830FE4F080EC90000CE0FFBF3F0236
:2039A700800890000DE0FEBE3F06200803021AECBF4203023E81BF4403023B46BF4703026E
:2039C7003EE2BF4802806BBF4B03023A82BF4C03023CAEBF5003023AC3BF5203023AB5BF32
:2039E7005302805ABF5503023E15BF5803023B52BF6203023E81BF6403023B46BF670302C3
:203A07003EE2BF6802802BBF6B02806FBF6C03023CAEBF7003023AC3BF7203023AB5BF73EE
:203A270002801BBF7503023E15BF7803023B52023EF2200903023EFB12116B023EFB90F0AB
:203A470005E4936006200903023EFB90F005E493600B1201089000B7E4F01201A0D212D210
:203A6700A2C2069000641202D9C2A2A2A29212904BD675F08012198B023EFB200903023EB5
:203A8700FB1201089000B77401F01201A0D2A2D20690000BE4F0755C0390000175F0001213
:203AA70037C1904BE575F08012198B023EFB904BF475F08012198BC2A0023EFB200903023C
:203AC7003EFB900010E0FFBF30005003023B3AEF24C6405F900011E0FFBF30004055EF24DF
:203AE700C64050900012E0FFBF30004046EF24C64041900013E0FFBF30004037EF24C64018
:203B070032120108900010E09000B2F0900011E09000B3F0900012E09000B4F0900013E0B2
:203B27009000B5F01201A0904C0675F08012198B023EFB904C1D75F08012198B023EFB20EF
:203B47000903023EFB121034023EFB90000DE0FFBF6F028008BF4F028003023C65200903F0
:203B6700023EFB900010E0FEBE30005003023C59EE24C65003023C59900011E0FDBD300080
:203B87004005ED24C65006ED6003023C59900012E0FCBC30004005EC24C65006EC60030299
:203BA7003C59BE3009758200120E1B023C4DED700D8E03EB24D0F582120E1B023C4DEC7042
:203BC700178E03EB24D075F00AA4FB8D02EA2B24D0F582120E1B806E8D027B00EA24D0F534
:203BE70019EB34FFF51A90000AC006C005C004124502AA82AB83D004D005D0068C00790058
:203C0700E82AFAE93BFBEA24D0FAEB34FFFBC374329A74808BF063F08095F05011EE24FE46
:203C2700500C904C1D75F08012198B023EFBEE24D075F064A4FEED24D075F00AA42E2C2493
:203C4700D0F582120E1B904C3075F08012198B023EFB904C1D75F08012198B023EFBBF75F6
:203C6700028008BF55028003023EFB30060C904C4875F08012198B023EFBD212D2A19000BC
:203C8700641202D9C2A1A2A1921290000BE4F0755C0290000175F0001237C1904C5C75F0A3
:203CA7008012198B023EFB90000DE0FFBF75028008BF55028003023DCC200903023EFB90B7
:203CC7000010E0FEBE30005003023DC0EE24C65003023DC0900011E0FEBE30005003023D86
:203CE700C0EE24C65003023DC0900012E0FEBE30005003023DC0EE24C65003023DC0900059
:203D070013E0FEBE30005003023DC0EE24C65003023DC0900014E0FEBE30005003023DC07F
:203D2700EE24C65003023DC0900015E0FEBE30005003023DC0EE24C65003023DC0900016BF
:203D4700E0FEBE30005003023DC0EE24C65003023DC0900017E0FEBE30005003023DC0EE61
:203D670024C64055900018E0FEBE3000404BEE24C64046900019E0FEBE3000403CEE24C697
:203D8700403790001AE4F090001BE0FEE4BE6D0104700BBE74010470057C75FD80048E045F
:203DA7007D008C4D90001075F000120DB3904C6C75F08012198B023EFB904C8575F0801259
:203DC700198B023EFBBF65028008BF45028003023EFB30060C904C4875F08012198B023E4A
:203DE700FBD212D2A39000641202D9C2A3A2A3921290000BE4F0755C0190000175F00012F0
:203E070037C1904C9975F08012198B023EFB200903023EFB900010E0FFBF42028012BF62BC
:203E270002800D900011E0FEBE6E028003BE4E1A1201089000B8740AF01201A0D2C2904CA2
:203E4700A675F08012198B023EFBBF54028012BF7402800DBE66028008BE46028003023EFF
:203E6700FB1201089000B8E4F01201A0C2C2904CAF75F08012198B023EFB200903023EFB0A
:203E870090000FE0FFBF42028012BF6202800D900010E0FEBE6E028003BE4E17120108905B
:203EA70000B67401F01201A0904CB875F08012198B8041BF5402800DBF74028008BE6602B8
:203EC7008003BE462F904CC575F08012198B1201089000B6E4F01201A0801990000BE4F0F9
:203EE70090000175F000120CED8009904C1D75F08012198B43C1107F00EF240CFDE43400D6
:203F0700FE8D828E83E0600FEF240CF582E43400F5830FE4F080E2227593007594FF759289
:203F2700007591007595007596FF75B20075B10075B30275B41C75CA0075C90075C000757D
:203F4700B0FF75A00075B881759700D2AF7535009000AD740AF09000AE7406F09000AF74AB
:203F670002F09000B0F09000B1F090026FF090026DF090026E7406F0900270E4F0C22712CC
:203F870001089000B9E0249C50059000B9E4F09000B6E024FE50059000B6E4F09000B7E0D8
:203FA70024FE50059000B7E4F09000B8E024F550059000B8E4F09000B2E0FFBF3000403234
:203FC700EF24C6402D9000B3E0FFBF30004023EF24C6401E9000B4E0FFBF30004014EF2470
:203FE700C6400F9000B5E0FFBF30004005EF24C650129000B57430F09000B4F09000B3F0D2
:204007009000B2F01201A01201549001DEE0249C50059001DEE4F01201DE90F005E4932495
:20402700FF920692A290F006E49324FF92C212022212076712048120270E121B18500912E8
:204047001B68121C62121CA9900271743CF075C1659000017430F090000BE4F030152590A3
:20406700F006E493601EC21590F006E493FFBF0102C2C21201089000B8E0FF1F9000B8EF9D
:20408700F01201A0900271E0700B900270E06005900270E4F0100D02802175413475424654
:2040A700754380753F0F7540019049C675F080120A81904CD275F080120289300C1D123953
:2040C700727541E175424C754380753F0F754001904B8275F080120A81C20C900270E0701D
:2040E7001A90026DE07014C2189002707401F0900271743CF07582801203F8900270E0FFF3
:20410700E0602710180280227E008F828E83A37519048E1A1245B1AE82900270EEF090023E
:2041270071743CF07582801203F890026EE0702FC21C758200120E1B9002001200F0751833
:204147000090032C1200D51201089000B57430F09000B4F09000B3F09000B2F01201A01062
:2041670005028006121C62121CA92012030243237F008F5F8F5E8F5D7E008E047D00751946
:20418700088D1A8C828D83C007C0061245E7AC82D006D007EC245DF9E727FDEE244CF5825F
:2041A700E43402F583E0FC2DF70EBE140040CB7E00EF706790F32CE493FDC3EE9D505CAD6D
:2041C7005D8E19751A00900003C006C005124502AB82AC83D005D0068B8274F22CF583E4CC
:2041E70093FAEDB5022A74012BFAE43CFD8A8274F22DF583E493FDB55E1674022BFBE43C36
:20420700FC8B8274F22CF583E493FDB55F0280047D0080027D018D070E8096900270E070EF
:20422700030242D9EF60030242D090F32CE493249C5012904CF075F0801204179007D01252
:2042470002D90242D01201549001DEE0FE8E19751A00900003124502AD82AE83ED24B2F57A
:2042670082EE3400F583E55DF09001DEE0FE8E19751A00900003124502E5828583F02401F6
:20428700FDE435F0FEED24B2F582EE3400F583E55EF09001DEE0FE8E19751A0090000312E4
:2042A7004502E5828583F02402FDE435F0FEED24B2F582EE3400F583E55FF09001DEE0FED2
:2042C7000E9001DEEEF01201DEC213900270E4F08048EF6045200642900262E0600A90024C
:2042E70060E060047F0080027F01EF24FF92A2900261E0700330A2047F0080027F01EF249C
:20430700FF92A3900263E0700620A30330A2047F0080027F01EF24FF92A1C212102002802F
:204327003D120CBC75828012039390000C75F00012041720200543C11080F8C220120C350C
:2043470075828412039390000BE4F090000175F00012041720200543C11080F8C2201029B5
:20436700030244297582801203F875828E120393900273E0FF7E0075190A8E1A8F828E834F
:204387001245E7AE8274302EF582120331900273E0FF7E0075190A8E1A8F828E831245B14D
:2043A700AE8274302EF582120331758280120393900270E0FFBF010B904D0175F080120493
:2043C700178034BF020B904D0875F0801204178026BF030B904D0F75F0801204178018300F
:2043E700A3067E167F4D80047E1B7F4D7D808E828F838DF0120417752B20752C4D752D802B
:20440700853B2E853A2F853930A21692007582C7120502853E31853D32853C337582C01205
:2044270006B31001030244E11007030244CA900270E06055754134754246754380753F0FDE
:204447007540019049C675F080120A8190000BE4F030082A900270E0FFBF01067D6D7E009E
:204467008011BF02067C757F0080047C747F008C058F068D4D90000175F000120DB3904DD5
:204487002175F08012198B803A20083730060B904C4875F08012198B8029D212D2A39000AE
:2044A700641202D9C2A3A2A3921290000BE4F0F55C90000175F0001237C1904D3975F0809B
:2044C70012198B90000BE4F075828412039390000175F00012041775DB4943C11002406318
:204634002043554143554F4E20302E332E30004D612050696E204D61632044696E68203A06
:2046540020303030300A436163206C656E6820636875207669657420484F412068617920DC
:204674007468756F6E67206465752064756F630A312E4C656E6820626174207468696574E3
:204694002062690A707070702C626174202D2076692064753A20303030302C6261740A32F0
:2046B4002E4C656E68207461742074686965742062690A707070702C746174202D20766914
:2046D4002064753A20303030302C7461740A332E4C656E68206B69656D2074726120747219
:2046F400616E6720746861692074686965742062690A707070702C6B74202D2076692064DC
:20471400753A20303030302C6B740A342E4C656E68207468617920646F69206D61207069DF
:204734006E3A20707070702C70696E2C787878780A7669206475203A20303030302C70693D
:204754006E2C31323334200A5468617920646F69206D612070696E20747520303030302067
:204774002D3E20313233340A352E4C656E682072657365742073696D2D67736D0A70707062
:20479400702C72732D2076692064753A20303030302C72730A362E4C656E68206C69657471
:2047B400206B652064616E682062610A707070702C64622D2076692064753A20303030305C
:2047D4002C64620A372E4C656E6820786F612064616E682062613A20707070702C786F6149
:2047F4002C7878780A76643A20303030302C786F612C31352020786F6120736F2064696531
:204814006E2074686F6169207468752031350A76643A20303030302C786F612C30202020BC
:20483400786F6120746F616E20626F2064616E682062610A382E4C656E68206C75752064CA
:20485400616E682062613A20707070702C6C75752C787878787878787878780A76643A2074
:20487400303030302C6C75752C303931323334353637380A6C757520736F206469656E2067
:2048940074686F616920303931323334353637382076616F2064616E68206261002020542A
:2048B4004D41202000412F0D001A00544B3C31303030204B2042414F43414F0041542B43B0
:2048D4004D47533D2200220D0020202053454E44494E472020200041542B435553443D312A
:2048F4002C222A31303123222C0D0020204B49454D20545241205344542020200041542B84
:20491400435553443D312C222A31313023222C0D0041542B435553443D312C222A30232214
:204934002C0D0020204B49454D2054524120544B20202000415444003B0D002020202043BA
:20495400414C4C494E472020202020000D002C0041542B435042573D2C2200222C31323952
:204974002C220020202053454E44494E4720435042572020200041542B435042573D002078
:2049940020202044454C4554494E47202020200020202E2E44454C4554494E472E2E202053
:2049B400002E2E2E2E44454C4554494E472E2E2E2E0041540D0041542B435042523D002C35
:2049D4003235300D00202053454E44494E47204350425220200041542B435042523D312CCF
:2049F4003235300D0044414E47204755492042414F2043414F004348554120434F204C4973
:204A14004348205355204E414F002C6C2C002C4C2C002C582C002C4B2C005472616E67205A
:204A34000031300020205441542042414F2043414F2020002052454C41593D004F4E004FED
:204A54004646000D544B204368696E683D000D546169206B686F616E20636F6E2064756F9F
:204A74006920313030303000204755492048554F4E472044414E20200041542B4353504EDB
:204A94003F0D002054454E204D414E47200041542B434C54533D310D0020424154204C4137
:204AB400592047494F200041542B434F50533D320D002020204E474154204D414E472020EC
:204AD40020200041542B434F50533D300D002020202054494D204D414E47202020200041A5
:204AF400542B43434C4B3F0D00204C41592047494F20475053200041542B434C49503D3135
:204B14000D00202053454E44494E4720434C495020200041542B4343414C523F0D002054BF
:204B340048494554204C415020474F49200041542B434D47463D310D00202053454E444910
:204B54004E4720434D474620200041542B434E4D493D312C312C302C302C310D00202053C8
:204B7400454E44494E4720434E4D4920200041542B434D4744413D2244454C20414C4C227A
:204B94000D0020205448494554204C415020544E20200041542B4353510D0020534F4E472C
:204BB40020004154480D0041542B435042463D220020534156494E4720484953544F525963
:204BD40020000D44756E67206375612063756F6E000D4B686F61206375612063756F6E001A
:204BF4000D72657365742067736D20736175313073000D446F69206D612070696E20746853
:204C1400616E6820636F6E67000D4C656E68206B686F6E6720686F70206C65000D586F612A
:204C34002064616E68206261207468616E6820636F6E67000D4375612063756F6E206461E8
:204C54006E67206B686F61000D58756F6E67206375612063756F6E000D7468656D206461BC
:204C74006E68206261207468616E6820636F6E67000D536F206474206B686F6E6720686F78
:204C940070206C65000D4D6F206375612063756F6E000D42617420555053000D5461742016
:204CB400555053000D4261742062616F2063616F000D5461742062616F2063616F004154AF
:204CD4002B434D474C3D22414C4C220D002044454C4554494E4720534D532000204845546B
:204CF40020424F204E484F20484F4320004348494E483A0050485520203A0054414D2020A3
:204D14003A004F4E203A004F46463A00000D4C75752064616E68206261207468616E682005
:134D3400636F6E67000D4D6F20637561206C656E00142808
:06007000E478FFF6D8FD64
:20004E007902E94400601B7A01904D45788875A002E493F2A308B8000205A0D9F4DAF2753A
:02006E00A0FFF1
:1B44E70020F71130F6138883A88220F509F6A8837583002280FEF280F5F022D4
:1D450200E5828519F0A4C582C0F0851AF0A4D0F025F0C5838519F0A42583F5832248
:20451F00E519451A60467A01E51925E0F519E51A334012F51AE5829519E583951A40030AE1
:20453F0080E6C3E51A13F51AE51913F519C3E5829519F5F0E583951A4005F58385F082C3A8
:0D455F00E51A13F51AE51913F519DAE12232
:200076007800E84400600A790175A000E4F309D8FC7887E84402600C7903900001E4F0A3FC
:04009600D8FCD9FABF
:20456C007A10E4FBFCE58225E0F582E58333F583EB33FBEC33FCEB9519F5F0EC951A400641
:09458C00FCABF0438201DADD22F0
:0D00410075815F12461FE582600302003EDC
:1C45950020F71430F6148883A88220F507E6A88375830022E280F7E49322E02235
:2045B100C2D5E58330E70DD2D5E4C39582F582E49583F583E51A30E70BE4C39519F519E40F
:1645D100951AF51A12451F30D50BE4C39582F582E49583F58322C5
:2045E700C2D5E58330E70DD2D5E4C39582F582E49583F583E51A30E70DB2D5E4C39519F54D
:1846070019E4951AF51A12456C30D50BE4C39582F582E49583F5832242
:04461F00758200227E
:00000001FF
