:20009F0075C70075C50075C60075C38075C40043C11022AE82AF8375C78375C5018EC48F2C
:2000BF00C375C65A75C6A500AFC2C00712009FD0078F8222AE82AF8375C78375C5028EC447
:2000DF008FC38518C275C65A75C6A50002009FAE82AF8375C78375C5038EC48FC375C65AA3
:2000FF0075C6A50002009F43C1107F04EF60101FEF24BAF582E43400F58374FFF080EDBFE8
:20011F0004005018EF24BAFDE43400FE8F827583F00FE493FC8D828E83F080E390000002F4
:20013F0000EE7F00BF0400502975C78375C5028FC475C300EF24BAF582E43400F5830FE0AE
:13015F00F5C275C65A75C6A500C00712009FD00780D2229E
:20017200759850438E40538EFE758BB2758DFFC2ABD28ED2ACD2A022E582FF700122C2993A
:200192008F9920990543C11080F8C29922AD82AE83AFF0C2998D828E838FF01229D5FC60F9
:2001B200218C9920990543C11080F8C2998D828E838FF01229D5FCBC1A01220DBD00D60EF0
:0301D20080D322B5
:2001D500AE82AF837C007D00C3EC9EED9F500A43C1100CBC00F20D80EF22AE82AF837C0032
:2001F5007D00C3EC9EED9F501D9003E8C007C006C005C0041201D5D004D005D006D0070C4C
:20021500BC00DF0D80DC22AF82E5264FF5821202A575820D0202A5AF82301D118F82120287
:20023500A58527828528838529F00203258F82020306AF82D285EFC4540124FF9283EFA269
:20025500E5E43324FF9282EF2323540124FF9281EF235401FE24FF9280D28400C28400EF71
:20027500540124FF9283EF03540124FF9282EF03035401FE24FF9281EFA2E3E433FF24FF33
:200295009280D28400C2849000641201D5C28522AF82C285EFC4540124FF9283EFA2E5E444
:2002B5003324FF9282EF2323540124FF9281EF235401FE24FF9280D28400C28400EF540185
:2002D50024FF9283EF03540124FF9282EF03035401FE24FF9281EFA2E3E433FF24FF928016
:2002F500D28400C2849000640201D575820C0202A5E582FF600E8F821202A5902A6375F0B5
:20031500800203257582011202A59006400201D5AD82AE83AFF07C008D828E838FF012296A
:20033500D5FB6055BC10005050BB80005025EB24E050200CEC601C0DBD00010E8B82C00787
:20035500C006C005C004120247D004D005D006D00780C58D828E838FF01229D5FBA3AD82C7
:20037500AE838B82C007C006C005C0041202A5D004D005D006D007809F22C286903A981208
:2003950001D575801C00C284900FA01201D5D28400C2849000A01201D5D28400C284900014
:2003B500A01201D575801400C2849003E81201D5D28400C2840075801100C284900028123C
:2003D50001D575801000C2840075801300C2849000281201D575801000C2840075801600A3
:2003F500C2849000281201D575801000C2840075801800C2849003E80201D5AF82E52D24AA
:20041500E8500122E52F240540030204CC8F821202A5852A82852B83852CF012032574F6A7
:20043500252D40067D207E00801DAB2D7C0075190A8C1A8B828C83122A27AB82AC83743046
:200455002BFBFD3395E0FE8D82120247AD2D7E0075190A8E1A8D828E831229F1AD8274309D
:200475002DF582120247E52F240350123000067D3A7E0080047D207E008D82120247AD2E7C
:200495007E0075190A8E1A8D828E83C006C005122A27AB8274302BF582120247D005D00602
:2004B50075190A751A008D828E831229F1AD8274302DF5820202478F821202A5852A828572
:2004D5002B83852CF012032574F6252D40067E207F00801DAC2D7D0075190A8D1A8C828D92
:2004F50083122A27AC82AD8374302CFCFE3395E0FF8E82120247AE2D7F0075190A8F1A8E9E
:20051500828F831229F1AE8274302EF5821202473000067E3A7F0080047E207F008E821202
:200535000247AE2E7F0075190A8F1A8E828F83C007C006122A27AC8274302CF582120247DF
:20055500D006D00775190A751A008E828F831229F1AE8274302EF5821202473000067E3AA2
:200575007F0080047E207F008E82120247AE2F7F0075190A8F1A8E828F83C007C006122A53
:2005950027AC8274302CF582120247D006D00775190A751A008E828F831229F1AE82743059
:0C05B5002EF582120247758220020247D8
:112A6300202020202020202020202020202020200062
:040000000200413287
:01000B0032C2
:0100130032BA
:01001B0032B2
:0300230002111FA8
:01002B0032A2
:01003300329A
:03003B0002067743
:05009A00C22402003E3B
:03003E000226098E
:2005C10075FA0075EA009000BE74A8F07461A3F075DA49D2DE2243C110B210A2109287304F
:2005E100A4069000B5E014F09000B5E07008C2A49000B57406F09000C6E0FFE06006EF14F7
:200601009000C6F09000C8E0FFE06006EF149000C8F09000C4E0600E9000C5E0FFE06006AF
:20062100EF149000C5F020A0139000ADE014F0E0700AD2A09000AD740AF0D2050534E534DD
:2006410024C45031753400E5316006D532037531000535E53524C4501C7535000536E536B3
:2006610024E850117536009000C0E0FFE06006EF149000C0F022C025C0E0C0F0C082C083CD
:20068100C007C006C005C004C003C002C001C000C0D075D00843C11010D80302083A90008D
:2006A100BEE0FEA3E0FF8EEA8FFA9000BE74A82EF074613FA3F030110930B5069000C174F1
:2006C10002F030110330B5047F0080027F01EF24FF921420130330B5047F0080027F01EF32
:2006E10024FF921120120A2014032011047F0080027F01EF24FF9212A2B5921330150930DA
:20070100B3069000C27402F030150330B3047F0080027F01EF24FF921820170330B3047F5B
:200721000080027F01EF24FF921520160A2018032015047F0080027F01EF24FF9216A2B3B9
:20074100921730190930B4069000C37402F030190330B4047F0080027F01EF24FF921C2065
:200761001B0330B4047F0080027F01EF24FF9219201A0A201C032019047F0080027F01EF04
:2007810024FF921AA2B4921B30B6169000B77450F09000B6E0FFE0601CEF149000B6F08055
:2007A100149000B67450F09000B7E0FFE06006EF149000B7F030B7169000B97450F09000FA
:2007C100B8E0FFE0601CEF149000B8F080149000B87450F09000B9E0FFE06006EF14900059
:2007E100B9F020200E9000B6E070089000B8E07002D22020220E9000B6E070089000B9E0C0
:200801007002D2229000B7E07004C222C2209000DAE014F0E0700AD2249000DA740AF0B2E8
:200821001D9000DBE014F0E0700F9000DB7428F075D0001205D775D008D0D0D000D001D064
:2008410002D003D004D005D006D007D083D082D0F0D0E0D0253285823C85833D85F03EAC49
:20086100389000C7ECF08537F0ECA4FB9000C8740A2BF0C21E853C82853D83853EF0C00405
:2008810012019FD0047403253CF9E4353DFAAB3EA837301E0302095B9000C8E0700302097B
:2008A1005B43C110758280C004C003C002C001C0001202A5853982853A83853BF012032562
:2008C100752AF2752B2C752C8085362D85352E85342FA21092007582C0120410D000D0011F
:2008E100D002D003D0049000C6E070A6880718EF60689000C6ECF09000C7ECF089828A8357
:200901008BF01229D57010853C82853D83853EF01229D5FFBF0D20902CFA75F080C004C076
:2009210003C002C001C00012019FD000D001D002D003D004020893853C82853D83853EF0CC
:20094100C004C003C002C001C00012019FD000D001D002D003D004020893758280120306D1
:200961009000C9E4F0A21E2290000CE0602090000FE0701A753900753A2D753B80753703F9
:20098100753801902CFE75F080120857C32290000BE4F0902D1175F08012019F90000175D9
:2009A100F00012019F9000C97409F075391E753A2D753B8075370575383D902D1B75F0809E
:2009C10002085790000CE4F0C20D9000C97407F0753940753A2D753B8075370375381E90AE
:2009E1002D2C75F0801208579000C9E4F090000CE024FF227F0A902D5175F080C007120103
:200A01009FD007BFA100400122EF240CF582E43400F583E0FE24AB500E8E05ED24DBF58275
:200A210012018A7FA18045EE24B550198E05ED24E5F582C00712018A902D5175F080120199
:200A41009FD0078027EE24BF50198E05ED24EFF582C00712018A902D5375F08012019FD059
:200A61000780098E82C00712018AD0078F060FEE240CF582E43400F583E4F0020A04AD82BE
:200A8100AE83AFF0902D5575F080C007C006C00512019FD005D006D0078D828E838FF01257
:200AA100019F902D6075F08012019F853F8212018A753968753A2D753B8075370F75380173
:200AC100902D1B75F080120857D322E582FF7003020BAA902D7B75F080C00712019FD007F5
:200AE100BF0A00500D8F0674302EF58212018A020B92BF6400503B8F057E0075190A8E1AB5
:200B01008D828E83C006C005122A27AB8274302BF58212018AD005D00675190A751A008D57
:200B2100828E831229F1AD8274302DF58212018A805F7E007519648E1A8F828E83C007C041
:200B410006122A27AC8274302CF58212018AD006D00775190A751A008F828E83C007C00696
:200B6100122A2775190A751A001229F1AC8274302CF58212018AD006D00775190A751A00D8
:200B81008F828E831229F1AE8274302EF58212018A753984753A2D753B8075370175381F39
:200BA100902D5175F0800208577F01BF0A005036902D7B75F080C00712019FD0078F06749B
:200BC100302EF582C00712018A753984753A2D753B8075370F753801902D5175F080120827
:200BE10057D0070F80C5BF64005065902D7B75F080C00712019FD0078F057E0075190A8EF5
:200C01001A8D828E83C007C006C005122A27AB8274302BF58212018AD005D00675190A751C
:200C21001A008D828E831229F1AD8274302DF58212018A753995753A2D753B8075370F75BA
:200C41003801902D5175F080120857D0070F8096BFFB00400122902D7B75F080C0071201E6
:200C61009FD0078F057E007519648E1A8D828E83C007C006C005122A27AB8274302BF58209
:200C810012018AD005D00675190A751A008D828E83C006C005122A2775190A751A00122974
:200CA100F1AB8274302BF58212018AD005D00675190A751A008D828E831229F1AD82743041
:200CC1002DF58212018A7539A6753A2D753B8075370F753801902D5175F080120857D007CE
:200CE1000F020C51753974753A2A753B8075370F753801902DB775F08012085775300090F2
:200D010000AB740BF09000ABE024F5400122740525305001221209C49000ABE4F075330A40
:200D2100E5307003020DE0902DBB75F08012019F0530749C25304036AE307F0075190A8F98
:200D41001A8E828F83122A27AE8274302EF58212018AAE307F0075190A8F1A8E828F83120B
:200D610029F1AE8274302EF58212018A8057AE307F007519648F1A8E828F83122A27AE82BE
:200D810074302EF58212018AAE307F0075190A8F1A8E828F83122A2775190A751A001229E7
:200DA100F1AE8274302EF58212018AAE307F0075190A8F1A8E828F831229F1AE8274302E3D
:200DC100F58212018A7539CA753A2D753B8075370175381F902DC475F0801208578018751D
:200DE10039CA753A2D753B8075370175381F902DDB75F0801208571209694001221209F585
:200E01007539EA753A2D753B80753732753801902CFE75F080120857020D0685824085832D
:200E21004185F042753974753A2A753B8075370F753801902DB775F0801208577401254081
:200E4100FAE43541FBAC428A828B838CF01229D5F9B92A028011C004C003C0021209C4D047
:200E610002D003D004800590000CE4F0C004C003C002120969D002D003D004400122902D6D
:200E8100FB75F080C004C003C00212019FD002D003D00430A3067803792E80047806792E59
:200EA1007F80888289838FF0C004C003C00212019FD002D003D0048A828B838CF01229D583
:200EC100FABA2A02803890000CE06032902E0A75F08012019F90000C75F00012019F9000C9
:200EE10010E07009902E1575F08012019F900010E4F090000FF090000EF090000DF085403B
:200F0100828541838542F012019F74012540FDE43541FEAF428D828E838FF01229D5FDBD13
:200F21002A09902CFE75F08002019F7539EA753A2D753B80753732753801902CFE75F0806D
:200F41000208577F008F057E007519028E1A8D828E83C007122A27AD82D007ED2443F9EFDA
:200F6100240CF582E43400F583E0F78F0674022EFF24F750D0753974753A2A753B80753718
:200F81000F753801902DB775F0801208571209C4120969400122902E0A75F08012019F9014
:200FA100000C75F00012019F900010E07009902E1575F08012019F900010E4F090000FF0A7
:200FC10090000EF090000DF0E5446045902E2F75F08012019F85438212018A902E4D75F04C
:200FE1008012019F85448212018A7F02EF2443F9E7602DEF24FB4028902E5975F080C00759
:20100100C00112019FD001878212018AD0070F80DB902E5C75F08012019F85438212018A0C
:201021007539EA753A2D753B80753732753801902CFE75F08002085790000CE4F01209698B
:20104100400122902A8475F08012019F75397B753A2E753B80753732753801902CFE75F076
:2010610080020857753974753A2A753B8075370F753801902DB775F0801208575032753900
:2010810096753A2E753B8075370F753801902E8C75F08012085750187539B2753A2E753B4E
:2010A1008075370F753801902EA775F08002085722753974753A2A753B8075370F753801E5
:2010C100902DB775F0801208574001227539CE753A2E753B8075370F753802902EC375F009
:2010E1008012085750367539F2753A2E753B8075370F753801902EDF75F080120857501C03
:20110100753917753A2F753B8075370F753801902F0375F0801208575002D322C322C02569
:20112100C0E0C0F0C082C083C007C006C005C004C003C002C001C000C0D075D0102098031D
:201141000220EF43C1109000C7E09000C6F09000CAE0FF24CBF582E43400F583E599F090BF
:2011610000C9E0FF24F550030220DBEF240A83F582EF240F83F583E47390DBDB8DDBF2DB57
:201181001A25808A11202019201B201E201D1F743EB59912902CFE75F08075D00012019F1E
:2011A10075D0100220DB9000CAE0FF24CBF582E43400F583E0FEBE470280030212828F140C
:2011C1007D00740C2CF582E43DF58375190D8D1AC017C016C015C01475D0001229F175D087
:2011E10010AA82AB83D014D015D016D017EA24CBF582EB3400F583E0FBBB4E02800302128A
:2012010082740B2CF582E43DF58375190D751A00C017C016C015C01475D0001229F175D05A
:2012210010AA82AB83D014D015D016D017EA24CBF582EB3400F583E0FBBB4945740A2CF503
:2012410082E43DF58375190D751A00C017C01675D0001229F175D010AC82AD83D016D017AA
:20126100EC24CBF582ED3400F583E0FDBD5212902F2975F08075D00012019F75D010022049
:20128100DBE4BE3A0104FD70030213F48F137C00740C2BF582E43CF58375190D8C1AC01728
:2012A100C016C015C014C01375D0001229F175D010A982AA83D013D014D015D016D017E95B
:2012C10024CBF582EA3400F583E0FABA520280030213F4740B2BF582E43CF58375190D75D4
:2012E1001A00C017C016C015C014C01375D0001229F175D010A982AA83D013D014D015D010
:2013010016D017E924CBF582EA3400F583E0FABA420280030213F4740A2BF582E43CF583CE
:2013210075190D751A00C017C016C015C014C01375D0001229F175D010A982AA83D013D088
:2013410014D015D016D017E924CBF582EA3400F583E0FABA500280030213F474092BF58250
:20136100E43CF58375190D751A00C017C016C015C014C01375D0001229F175D010A982AAE6
:2013810083D013D014D015D016D017E924CBF582EA3400F583E0FABA435974082BF582E439
:2013A1003CF58375190D751A00C017C016C01575D0001229F175D010AB82AC83D015D016DF
:2013C100D017EB24CBF582EC3400F583E0FCBC2B229000ABE0FC24F650099000AB740BF023
:2013E1000220DBD2029000C97408F0C20F7530000220DBED70030215308F147D00740C2C70
:20140100F582E43DF58375190D8D1AC017C016C015C01475D0001229F175D010AA82AB8303
:20142100D014D015D016D017EA24CBF582EB3400F583E0FBBB49028003021530740B2CF5E3
:2014410082E43DF58375190D751A00C017C016C015C01475D0001229F175D010AA82AB83D0
:20146100D014D015D016D017EA24CBF582EB3400F583E0FBBB54028003021530740A2CF599
:2014810082E43DF58375190D751A00C017C016C015C01475D0001229F175D010AA82AB8390
:2014A100D014D015D016D017EA24CBF582EB3400F583E0FBBB4D02800302153074092CF561
:2014C10082E43DF58375190D751A00C017C016C015C01475D0001229F175D010AA82AB8350
:2014E100D014D015D016D017EA24CBF582EB3400F583E0FBBB433874082CF582E43DF583A5
:2015010075190D751A00C017C01675D0001229F175D010AC82AD83D016D017EC24CBF582B0
:20152100ED3400F583E0FDBD2B05D20C0220DBE4BE200104FD70030216C78F137C00740CB8
:201541002BF582E43CF58375190D8C1AC017C016C015C014C01375D0001229F175D010A977
:2015610082AA83D013D014D015D016D017E924CBF582EA3400F583E0FABA3A0280030216F2
:20158100C7740B2BF582E43CF58375190D751A00C017C016C015C014C01375D0001229F106
:2015A10075D010A982AA83D013D014D015D016D017E924CBF582EA3400F583E0FABA4C023D
:2015C10080030216C7740A2BF582E43CF58375190D751A00C017C016C015C014C01375D058
:2015E100001229F175D010A982AA83D013D014D015D016D017E924CBF582EA3400F583E0D3
:20160100FABA470280030216C774092BF582E43CF58375190D751A00C017C016C015C01433
:20162100C01375D0001229F175D010A982AA83D013D014D015D016D017E924CBF582EA34D2
:2016410000F583E0FABA4D0280030216C774082BF582E43CF58375190D751A00C017C0163F
:20166100C015C014C01375D0001229F175D010A982AA83D013D014D015D016D017E924CB7E
:20168100F582EA3400F583E0FABA433A74072BF582E43CF58375190D751A00C017C016C0DF
:2016A1001575D0001229F175D010AB82AC83D015D016D017EB24CBF582EC3400F583E0FC7B
:2016C100BC2B03021843ED700302188E8F147D00740C2CF582E43DF58375190D8D1AC017C5
:2016E100C016C015C01475D0001229F175D010AA82AB83D014D015D016D017EA24CBF58264
:20170100EB3400F583E0FBBB3A02800302188E740B2CF582E43DF58375190D751A00C01778
:20172100C016C015C01475D0001229F175D010AA82AB83D014D015D016D017EA24CBF58223
:20174100EB3400F583E0FBBB5002800302188E740A2CF582E43DF58375190D751A00C01723
:20176100C016C015C01475D0001229F175D010AA82AB83D014D015D016D017EA24CBF582E3
:20178100EB3400F583E0FBBB4902800302188E74092CF582E43DF58375190D751A00C017EB
:2017A100C016C015C01475D0001229F175D010AA82AB83D014D015D016D017EA24CBF582A3
:2017C100EB3400F583E0FBBB4C02800302188E74082CF582E43DF58375190D751A00C017A9
:2017E100C016C015C01475D0001229F175D010AA82AB83D014D015D016D017EA24CBF58263
:20180100EB3400F583E0FBBB4302800302188E74072CF582E43DF58375190D751A00C01772
:20182100C01675D0001229F175D010AC82AD83D016D017EC24CBF582ED3400F583E0FDBD5B
:201841002B4B8F147D0074092CF582E43DF58375190D8D1A75D0001229F175D010AC82AD55
:2018610083EC24CBF582ED3400F583E0FDBD4C03D38001C392064006300B030220DBC20915
:20188100C207C2089000C97403F00220DBBE4B0280030219158F147D00740C2CF582E43DD5
:2018A100F58375190D8D1AC017C01675D0001229F175D010AC82AD83D016D017EC24CBF5FF
:2018C10082ED3400F583E0FDBD4F49A21FB3921EC21F300223AC337D001CBCFF011DEC24FF
:2018E1000CFCED3400FD8C828D83E0240AFB8C828D83F0C20F753300E53370030220DB7516
:201901003300902F0375F08075D00012019F75D0100220DBBE540280030220DB8F167F00EB
:20192100740C2EF582E43FF58375190D8F1AC017C01675D0001229F175D010AC82AD83D001
:2019410016D017EC24CBF582ED3400F583E0FDBD4F0280030220DB740B2EF582E43FF58374
:2019610075190D751A0075D0001229F175D010AE82AF83EE24CBF582EF3400F583E0FFBF87
:201981004E0280030220DBD21F0220DB200903021AEAE533706B740DB5990280030220DB12
:2019A1003006409000CAE0FF7E0074092FF582E43EF58375190D8E1A75D0001229F175D043
:2019C10010AE82AF83EE24CBF582EF3400F583E0FFBF2203D38001C39207BF6D03D38001AF
:2019E100C39208D2013007089000C9E4F00220DB30060575320205319000C97405F002204F
:201A0100DB740DB533028003021AC39000CAE0FF24CBF582E43400F583E0FEBE2203021A11
:201A2100C38F167F00740C2EF582E43FF58375190D8F1AC017C01675D0001229F175D01047
:201A4100AC82AD83D016D017EC24CBF582ED3400F583E0FDBD226B740B2EF582E43FF58389
:201A610075190D751A00C017C01675D0001229F175D010AC82AD83D016D017EC24CBF5824B
:201A8100ED3400F583E0FDBD2C38740A2EF582E43FF58375190D751A0075D0001229F175E0
:201AA100D010AE82AF83EE24CBF582EF3400F583E0FFBF220D746DB59902D2087533000272
:201AC10020DB74F62533400EE5332401F582E43400F583E599F0E53324F35008753300D247
:201AE100070220DB05330220DB3006429000CAE0FF24CBF582E43400F583E0FEBE302F7E8C
:201B010000740C2FF582E43EF58375190D8E1A75D0001229F175D010AE82AF83EE24CBF5C7
:201B210082EF3400F583E0FFBF2203021BDB9000CAE0FF24CBF582E43400F583E0FEBE34CD
:201B4100028003021BE08F167F00740C2EF582E43FF58375190D8F1AC017C01675D00012D6
:201B610029F175D010AC82AD83D016D017EC24CBF582ED3400F583E0FDBD3863740B2EF508
:201B810082E43FF58375190D751A00C017C01675D0001229F175D010AC82AD83D016D0175F
:201BA100EC24CBF582ED3400F583E0FDBD2B30740A2EF582E43FF58375190D751A0075D017
:201BC100001229F175D010AE82AF83EE24CBF582EF3400F583E0FFBF2205D2097533017475
:201BE1000DB5990280030220DB9000C9E4F00220DB300A49743BB599028021740DB59902E9
:201C0100801A746025334014AF330533EF240CF582E43400F583E599F00220DBE533240CB6
:201C2100F582E43400F583E4F0F533C20A9000C77401F09000C9E4F0D20B0220DB90F00091
:201C4100E493FFBF0A0050159000CAE024CBF582E43400F583E0FFBF0D03021D649000CA24
:201C6100E0FF24CBF582E43400F583E0FEBE2C028003021D608F167F00740C2EF582E43F56
:201C8100F58375190D8F1AC017C01675D0001229F175D010AC82AD83D016D017EC24CBF519
:201CA10082ED3400F583E0FD90F003E493FCEDB514028003021D60740B2EF582E43FF583BC
:201CC10075190D751A00C017C01675D0001229F175D010AC82AD83D016D017EC24CBF582E9
:201CE100ED3400F583E0FD90F002E493FCEDB5146E740A2EF582E43FF58375190D751A006C
:201D0100C017C01675D0001229F175D010AC82AD83D016D017EC24CBF582ED3400F583E059
:201D2100FD90F001E493FCEDB5143474092EF582E43FF58375190D751A0075D0001229F16F
:201D410075D010AE82AF83EE24CBF582EF3400F583E0FF90F000E493FEEFB5160280047F49
:201D61000080027F01EF24FF920A740DB5990280030220DB7533019000C9E4F00220DB741A
:201D81003EB5990A9000C9E4F0D21E0220DB9000CAE0FF24CBF582E43400F583E0FEBE5275
:201DA1000280030220DB8F167F00740C2EF582E43FF58375190D8F1AC017C01675D0001274
:201DC10029F175D010AC82AD83D016D017EC24CBF582ED3400F583E0FDBD520280030220EA
:201DE100DB740B2EF582E43FF58375190D751A0075D0001229F175D010AE82AF83EE24CB19
:201E0100F582EF3400F583E0FFBF450280030220DB9000C6E4F00220DB300D3D7420B599C7
:201E210002801A746025334014AF330533EF240CF582E43400F583E599F00220DBC20DC249
:201E41000FE533240CF582E43400F583E4F0F5339000C9F0D21E0220DB9000CAE0FF24CBC9
:201E6100F582E43400F583E0FEBE3D0280030220DB8F167F00740C2EF582E43FF58375198D
:201E81000D8F1AC017C01675D0001229F175D010AC82AD83D016D017EC24CBF582ED34007A
:201EA100F583E0FDBD680280030220DB740B2EF582E43FF58375190D751A00C017C016751A
:201EC100D0001229F175D010AC82AD83D016D017EC24CBF582ED3400F583E0FDBD6E028010
:201EE100030220DB740A2EF582E43FF58375190D751A00C017C01675D0001229F175D01086
:201F0100AC82AD83D016D017EC24CBF582ED3400F583E0FDBD690280030220DB74092EF585
:201F210082E43FF58375190D751A00C017C01675D0001229F175D010AC82AD83D016D017BB
:201F4100EC24CBF582ED3400F583E0FDBD680280030220DB74082EF582E43FF58375190DBA
:201F6100751A0075D0001229F175D010AE82AF83EE24CBF582EF3400F583E0FFBF63028037
:201F8100030220DBD20D0220DB300D4A744EB59902802074F72533401AAF3305330FEF33C3
:201FA10095E0FEEF2401F582EE3400F583E599F00220DBC20DC20FAF330FEF3395E0FEEF08
:201FC1002401F582EE3400F583E4F0F5339000C9F0D21E0220DB9000CAE0FF24CBF582E415
:201FE1003400F583E0FEBE3A0280030220DB7E00740C2FF582E43EF58375190D8E1A75D016
:20200100001229F175D010AE82AF83EE24CBF582EF3400F583E0FFBF290280030220DBD2D2
:202021000D0220DB7422B5990280030220B2D20F9000CAE0FF7E00740C2FF582E43EF58300
:2020410075190D8E1A75D0001229F175D010AE82AF83EE24CBF582EF3400F583E0FFBF2C5B
:2020610020AE337F001EBEFF011FEE240CFEEF3400FF8E828F83E02411FD8E828F83F080E0
:2020810059AE337F001EBEFF011FEE240CFEEF3400FF8E828F83E0241BFD8E828F83F0906D
:2020A10000ABE0FF0F9000ABEFF09000C9E4F08029E59924D05023200F0FE53075F00AA44B
:2020C100FFE599FE2F24D0F530AF330533EF240CF582E43400F583E599F09000CAE024012F
:2020E100F0E0FF24F350059000CAE4F0C298D0D0D000D001D002D003D004D005D006D007E0
:20210100D083D082D0F0D0E0D02532C20E7F00EF240CFDE43400FE0F8D828E83E06005434A
:20212100C11080EBBFA000500F0FEF240CF582E43400F583E4F080EC90000CE0FFBF3F02B4
:20214100800890000DE0FEBE3F06200703021039BF30030221D3BF31030221D3BF320280BF
:2021610071BF3302806CBF34028067BF44030223C5BF4702805CBF4C030224D2BF50030243
:20218100227EBF52028037BF5303022270BF58030223D1BF64030223C5BF67028034BF6C04
:2021A100030224D2BF700302227EBF7202800FBF7303022270BF78030223D10225DC200869
:2021C100030225E5D2A4902F2E75F080120E1C0225E57F00EF240CF582E43400F583E0FEDC
:2021E100BE67028008BE47028003BE3010D2A3900064C0071201EFD007C2A3804ABE311070
:20220100D2A2900064C0071201EFD007C2A28037BE3210D2A1900064C0071201EFD007C2D1
:20222100A18024BE3310D2C2900064C0071201EFD007C2C28011BE340ED2A7900064C007E6
:202241001201EFD007C2A78F0674022EFF900384C0071201EFD007EF240CFDE43400FE8D8D
:20226100828E83E060030221D5120F440225E5902F4475F080120E1CC2A00225E520080361
:202281000225E590F000E493FFBF0A005038900010E0FFBF42028012BF6202800D90001185
:2022A100E0FFBF4E028003BF6E1C1201069000BAE024309000BAF0120141902F5675F08044
:2022C100120E1C0225E590F000E493FF24D0504390F000E493FFBF3A005038900010E0FF42
:2022E100BF54028012BF7402800D900011E0FFBF66028003BF461C1201069000BAE024D0F2
:202301009000BAF0120141902F6D75F080120E1C0225E590F000E493FF24D040030223B9CA
:2023210090F000E493FFBF3A0040030223B9900010E0FFBF300050030223B9EF24C65003C1
:202341000223B9900011E0FFBF300050030223B9EF24C650030223B9900012E0FFBF300084
:202361004056EF24C64051900013E0FFBF30004047EF24C640429000001200EE900010E0F9
:20238100F5189000001200D3900011E0F5189000011200D3900012E0F5189000021200D3B0
:2023A100900013E0F5189000031200D3902F8475F080120E1C0225E5902F9B75F080120E45
:2023C1001C0225E52008030225E5120CE50225E52008030225E5900010E0FFBF3000500396
:2023E1000224C6EF24C650030224C6900011E0FEBE30004005EE24C65006EE60030224C6BB
:20240100900012E0FDBD30004005ED24C65006ED60030224C6BF3009758200120ACC0224A4
:20242100BAEE700D8F04EC24D0F582120ACC0224BAED70178F04EC24D075F00AA4FC8E033D
:20244100EB2C24D0F582120ACC806E8E037C00EB24D0F519EC34FFF51A90000AC007C006D4
:20246100C005122942AB82AC83D005D006D0078D017A00E92BFBEA3CFCEB24D0FBEC34FF09
:20248100FCC374329B74808CF063F08095F05011EF24FE500C902F9B75F080120E1C022503
:2024A100E5EF24D075F064A4FFEE24D075F00AA42F2D24D0F582120ACC902FAE75F08012DF
:2024C1000E1C0225E5902F9B75F080120E1C0225E52008030225E5900010E0FFBF30005049
:2024E100030225D1EF24C650030225D1900011E0FFBF300050030225D1EF24C650030225AF
:20250100D1900012E0FFBF300050030225D1EF24C650030225D1900013E0FFBF3000500346
:202521000225D1EF24C650030225D1900014E0FFBF300050030225D1EF24C650030225D19D
:20254100900015E0FFBF300050030225D1EF24C650030225D1900016E0FFBF3000500302CF
:2025610025D1EF24C650030225D1900017E0FFBF300050030225D1EF24C64054900018E08B
:20258100FFBF3000404AEF24C64045900019E0FFBF3000403BEF24C6403690001AE4F09015
:2025A100001BE0FFE4BF6D0104700BBF74010470057D75FE80048F057E008D3F900010757C
:2025C100F000120A7F902FC675F080120E1C8014902FDF75F080120E1C8009902F9B75F02E
:2025E10080120E1C43C1107F00EF240CFDE43400FE8D828E83E0600FEF240CF582E434003C
:20260100F5830FE4F080E2227593007594FF7592007591007595007596FF75B20075B1005C
:2026210075B30275B41C75CA0075C90075C00075B0FF75A00075B881759700D2AFC220C260
:2026410021C222C2237531009000AD740AF09000B57406F09000C37402F09000C2F0900004
:20266100C1F09000C4E4F01201069000BAE0FFBF30005005EF24F64032EF24C6402D9000A9
:20268100BBE0FFBF30004023EF24C6401E9000BCE0FFBF30004014EF24C6400F9000BDE053
:2026A100FFBF30004005EF24C650129000BD7430F09000BCF09000BBF09000BAF0120141C5
:2026C1001201721205C112038F1210651210B29000C5743CF075C1659000017430F0900058
:2026E1000BE4F09000C5E0700B9000C4E060059000C4E4F020210E30200BD221902FF375C5
:20270100F080120E1C30210E20200BC22190300175F080120E1C20230E30220BD22390303A
:202721001375F080120E1C30230E20220BC22390302E75F080120E1C100C028021753974E1
:20274100753A2A753B8075370F753801902DB775F08012085790305075F08012019F300B5A
:202761001D12210C75395F753A30753B8075370F753801902F0375F080120857C20B101270
:202781000280279000C4E0FF7E008F828E83A37519048E1A1229F1AE829000C4EEF09000C1
:2027A100C5743CF0758280120306101602801E758200120ACC1201069000BD7430F09000F2
:2027C100BCF09000BBF09000BAF012014110050280061210651210B2101A02804B9000C93B
:2027E100740AF0753982753A30753B8075370375381E90306E75F0801208577582801202A2
:20280100A590309375F0801203257582841202A590000BE4F090000175F000120325201A93
:202821000543C11080F8C21A1024030228987582801202A59000C4E0FFBF010B9030987536
:20284100F0801203258034BF020B90309D75F0801203258026BF030B9030A275F080120302
:2028610025801830A3067EA77F3080047EAC7F307D808E828F838DF0120325752AF2752B89
:202881002C752C8085362D85352E85342FA21092007582C012041010010302293C1006037D
:2028A1000229289000C4E0700302291A753974753A2A753B8075370F753801902DB775F06B
:2028C1008012085790000BE4F030072A9000C4E0FFBF01067D6D7E008011BF02067C757F0D
:2028E1000080047C747F008C058F068D3F90000175F000120A7F7539CA753A2D753B807568
:20290100370F7538019030B175F0801208579030BF75F080120E1C800E20070BD2A4903065
:20292100D775F080120E1C7582841202A590000BE4F090000175F00012032543C11002268F
:01294100E4B1
:202A7400205448414E474D415920302E322E31004D612050696E204D61632044696E6820D1
:202A94003A20303030300A436163206C656E6820636875207669657420484F41206861799E
:202AB400207468756F6E67206465752064756F630A312E4C656E6820626174207468696513
:202AD400742062690A707070702C626174202D2076692064753A20303030302C6261740A8A
:202AF400322E4C656E68207461742074686965742062690A707070702C746174202D207627
:202B1400692064753A20303030302C7461740A332E4C656E68206B69656D207472612074FD
:202B340072616E6720746861692074686965742062690A707070702C6B74202D20766920A9
:202B540064753A20303030302C6B740A342E4C656E68207468617920646F69206D612070C0
:202B7400696E3A20707070702C70696E2C787878780A7669206475203A20303030302C7019
:202B9400696E2C31323334200A5468617920646F69206D612070696E2074752030303030FA
:202BB400202D3E20313233340A352E4C656E682072657365742073696D2D67736D0A70708E
:202BD40070702C72732D2076692064753A20303030302C72730A362E4C656E68206C696551
:202BF40074206B652064616E682062610A707070702C64622D2076692064753A20303030F4
:202C1400302C64620A372E4C656E6820786F612064616E682062613A20707070702C786F55
:202C3400612C7878780A76643A20303030302C786F612C31352020786F6120736F20646910
:202C5400656E2074686F6169207468752031350A76643A20303030302C786F612C30202053
:202C740020786F6120746F616E20626F2064616E682062610A382E4C656E68206C757520EA
:202C940064616E682062613A20707070702C6C75752C787878787878787878780A76643A0C
:202CB40020303030302C6C75752C303931323334353637380A6C757520736F206469656E43
:202CD4002074686F616920303931323334353637382076616F2064616E682062610020203A
:202CF400544D41202000412F0D001A00544B3C31303030204B2042414F43414F0041542B7B
:202D1400434D47533D2200220D0020202053454E44494E472020200041542B435553443DF3
:202D3400312C222A31303123222C0D0020204B49454D2054524120544B202020000D002C01
:202D54000041542B435042573D2C2200222C3132392C220020202053454E44494E472043E5
:202D74005042572020200041542B435042573D002020202044454C4554494E472020202081
:202D94000020202E2E44454C4554494E472E2E2020002E2E2E2E44454C4554494E472E2E3B
:202DB4002E2E0041540D0041542B435042523D002C3235300D00202053454E44494E4720A5
:202DD4004350425220200041542B435042523D312C3235300D0044414E47204755492042D2
:202DF400414F2043414F002052454C41593D004F4E004F4646000D544B204368696E683DF7
:202E1400000D546169206B686F616E20636F6E2064756F69203130303030000D5468616E68
:202E340067206D61792064692063687579656E2074752074616E6720002C20746F692074F8
:202E5400616E6720002C20000D5468616E67206D61792064692063687579656E20746F6951
:202E74002074616E672000204755492048554F4E472044414E20200041542B4950523D3063
:202E94000D00202053454E44494E47204950522020200041542B434C49503D310D002020BB
:202EB40053454E44494E4720434C495020200041542B434D47463D310D00202053454E44AC
:202ED400494E4720434D474620200041542B434E4D493D312C312C302C302C310D0020206F
:202EF40053454E44494E4720434E4D4920200041542B434D4744413D2244454C20414C4CE6
:202F1400220D00202053454E44494E4720434D4744412020004154480D000D64616E6720B9
:202F34007265736574207468616E67206D6179000D72657365742067736D20736175313060
:202F540073000D426174206D612070696E207468616E6820636F6E67000D546174206D6153
:202F74002070696E207468616E6820636F6E67000D446F69206D612070696E207468616E93
:202F94006820636F6E67000D4C656E68206B686F6E6720686F70206C65000D586F61206412
:202FB400616E68206261207468616E6820636F6E67000D7468656D2064616E682062612070
:202FD4007468616E6820636F6E67000D536F206474206B686F6E6720686F70206C65000DA0
:202FF4004C6F69206269656E2074616E000D486574206C6F69206269656E2074616E000DB8
:203014005468616E67206D61792076616F2063686520646F2053544F50000D5468616E6735
:20303400206D61792074686F6174206B686F692063686520646F2053544F500041542B435E
:203054004D474C3D22414C4C220D002044454C4554494E4720534D53200041542B435553CB
:20307400443D312C222A31313023222C0D0020204B49454D205452412053445420200053F7
:2030940044543A004348493A005048553A0054414D3A004F4E203A004F46463A0041542B2D
:2030B400435042523D312C39390D000D4C75752064616E68206261207468616E6820636FB6
:1930D4006E67000D54415420424154203D2043554F4320474F490014283F
:06007000E478FFF6D8FD64
:20004E007902E94400601B7A019030EB78DA75A000E493F2A308B8000205A0D9F4DAF27561
:02006E00A0FFF1
:1D294200E5828519F0A4C582C0F0851AF0A4D0F025F0C5838519F0A42583F5832224
:20295F00E519451A60467A01E51925E0F519E51A334012F51AE5829519E583951A40030ABD
:20297F0080E6C3E51A13F51AE51913F519C3E5829519F5F0E583951A4005F58385F082C384
:0D299F00E51A13F51AE51913F519DAE1220E
:200076007800E84400600A790175A000E4F309D8FC78D9E84400600C7901900001E4F0A3AE
:04009600D8FCD9FABF
:2029AC007A10E4FBFCE58225E0F582E58333F583EB33FBEC33FCEB9519F5F0EC951A40061D
:0929CC00FCABF0438201DADD22CC
:0D004100758147122A5FE582600302003ED0
:1C29D50020F71430F6148883A88220F507E6A88375830022E280F7E49322E02211
:2029F100C2D5E58330E70DD2D5E4C39582F582E49583F583E51A30E70BE4C39519F519E4EB
:162A1100951AF51A12295F30D50BE4C39582F582E49583F583227C
:202A2700C2D5E58330E70DD2D5E4C39582F582E49583F583E51A30E70DB2D5E4C39519F528
:182A470019E4951AF51A1229AC30D50BE4C39582F582E49583F58322FA
:042A5F00758200225A
:00000001FF
