:20009F0075C70075C50075C60075C38075C40043C11022AE82AF8375C78375C5018EC48F2C
:2000BF00C375C65A75C6A500AFC2C00712009FD0078F8222AE82AF8375C78375C5028EC447
:2000DF008FC38518C275C65A75C6A50002009FAE82AF8375C78375C5038EC48FC375C65AA3
:2000FF0075C6A50002009F43C1107F04EF60101FEF24BAF582E43400F58374FFF080EDBFE8
:20011F0004005018EF24BAFDE43400FE8F827583F00FE493FC8D828E83F080E390000002F4
:20013F0000EE7F00BF0400502975C78375C5028FC475C300EF24BAF582E43400F5830FE0AE
:13015F00F5C275C65A75C6A500C00712009FD00780D2229E
:20017200759850438E40538EFE758BB2758DFFC2ABD28ED2ACD2A022E582FF700122C2993A
:200192008F9920990543C11080F8C29922AD82AE83AFF0C2998D828E838FF01229A1FC602D
:2001B200218C9920990543C11080F8C2998D828E838FF01229A1FCBC1A01220DBD00D60E24
:0301D20080D322B5
:2001D500AE82AF837C007D00C3EC9EED9F500A43C1100CBC00F20D80EF22AE82AF837C0032
:2001F5007D00C3EC9EED9F501D9003E8C007C006C005C0041201D5D004D005D006D0070C4C
:20021500BC00DF0D80DC22AF82E5264FF5821202A575820D0202A5AF82301D118F82120287
:20023500A58527828528838529F00203258F82020306AF82D285EFC4540124FF9283EFA269
:20025500E5E43324FF9282EF2323540124FF9281EF235401FE24FF9280D28400C28400EF71
:20027500540124FF9283EF03540124FF9282EF03035401FE24FF9281EFA2E3E433FF24FF33
:200295009280D28400C2849000641201D5C28522AF82C285EFC4540124FF9283EFA2E5E444
:2002B5003324FF9282EF2323540124FF9281EF235401FE24FF9280D28400C28400EF540185
:2002D50024FF9283EF03540124FF9282EF03035401FE24FF9281EFA2E3E433FF24FF928016
:2002F500D28400C2849000640201D575820C0202A5E582FF600E8F821202A5902A2F75F0E9
:20031500800203257582011202A59006400201D5AD82AE83AFF07C008D828E838FF012296A
:20033500A1FB6055BC10005050BB80005025EB24E050200CEC601C0DBD00010E8B82C007BB
:20035500C006C005C004120247D004D005D006D00780C58D828E838FF01229A1FBA3AD82FB
:20037500AE838B82C007C006C005C0041202A5D004D005D006D007809F22C286903A981208
:2003950001D575801C00C284900FA01201D5D28400C2849000A01201D5D28400C284900014
:2003B500A01201D575801400C2849003E81201D5D28400C2840075801100C284900028123C
:2003D50001D575801000C2840075801300C2849000281201D575801000C2840075801600A3
:2003F500C2849000281201D575801000C2840075801800C2849003E80201D5AF82E52D24AA
:20041500E8500122E52F240540030204CC8F821202A5852A82852B83852CF012032574F6A7
:20043500252D40067D207E00801DAB2D7C0075190A8C1A8B828C831229F3AB82AC8374307B
:200455002BFBFD3395E0FE8D82120247AD2D7E0075190A8E1A8D828E831229BDAD827430D1
:200475002DF582120247E52F240350123000067D3A7E0080047D207E008D82120247AD2E7C
:200495007E0075190A8E1A8D828E83C006C0051229F3AB8274302BF582120247D005D00637
:2004B50075190A751A008D828E831229BDAD8274302DF5820202478F821202A5852A8285A6
:2004D5002B83852CF012032574F6252D40067E207F00801DAC2D7D0075190A8D1A8C828D92
:2004F500831229F3AC82AD8374302CFCFE3395E0FF8E82120247AE2D7F0075190A8F1A8ED3
:20051500828F831229BDAE8274302EF5821202473000067E3A7F0080047E207F008E821236
:200535000247AE2E7F0075190A8F1A8E828F83C007C0061229F3AC8274302CF58212024714
:20055500D006D00775190A751A008E828F831229BDAE8274302EF5821202473000067E3AD6
:200575007F0080047E207F008E82120247AE2F7F0075190A8F1A8E828F83C007C006122954
:20059500F3AC8274302CF582120247D006D00775190A751A008E828F831229BDAE827430C1
:0C05B5002EF582120247758220020247D8
:112A2F00202020202020202020202020202020200096
:040000000200413287
:01000B0032C2
:0100130032BA
:01001B0032B2
:03002300021115B2
:01002B0032A2
:01003300329A
:03003B0002067743
:05009A00C22202003E3D
:03003E000225FF99
:2005C10075FA0075EA009000BE74A8F07461A3F075DA49D2DE2243C110B210A2109287304F
:2005E100A4069000B5E014F09000B5E07008C2A49000B57406F09000C6E0FFE06006EF14F7
:200601009000C6F09000C8E0FFE06006EF149000C8F09000C4E0600E9000C5E0FFE06006AF
:20062100EF149000C5F020A0139000ADE014F0E0700AD2A09000AD740AF0D2050534E534DD
:2006410024C45031753400E5316006D532037531000535E53524C4501C7535000536E536B3
:2006610024E850117536009000C0E0FFE06006EF149000C0F022C025C0E0C0F0C082C083CD
:20068100C007C006C005C004C003C002C001C000C0D075D00843C11010D803020830900097
:2006A100BEE0FEA3E0FF8EEA8FFA9000BE74A82EF074613FA3F030110930B5069000C174F1
:2006C10002F030110330B5047F0080027F01EF24FF921420130330B5047F0080027F01EF32
:2006E10024FF921120120A2014032011047F0080027F01EF24FF9212A2B5921330150930DA
:20070100B3069000C27402F030150330B3047F0080027F01EF24FF921820170330B3047F5B
:200721000080027F01EF24FF921520160A2018032015047F0080027F01EF24FF9216A2B3B9
:20074100921730190930B4069000C37402F030190330B4047F0080027F01EF24FF921C2065
:200761001B0330B4047F0080027F01EF24FF9219201A0A201C032019047F0080027F01EF04
:2007810024FF921AA2B4921B30B6169000B77450F09000B6E0FFE0601CEF149000B6F08055
:2007A100149000B67450F09000B7E0FFE06006EF149000B7F030B7169000B97450F09000FA
:2007C100B8E0FFE0601CEF149000B8F080149000B87450F09000B9E0FFE06006EF14900059
:2007E100B9F020200E9000B6E070089000B8E07002D22030200E9000B7E070089000B9E0B1
:200801007002C2209000DAE014F0E0700AD2229000DA740AF0B21D9000DBE014F0E0700F92
:200821009000DB7428F075D0001205D775D008D0D0D000D001D002D003D004D005D006D00B
:2008410007D083D082D0F0D0E0D0253285823C85833D85F03EAC389000C7ECF08537F0EC6A
:20086100A4FB9000C8740A2BF0C21E853C82853D83853EF0C00412019FD0047403253CF9B1
:20088100E4353DFAAB3EA837301E030209519000C8E0700302095143C110758280C004C07C
:2008A10003C002C001C0001202A5853982853A83853BF0120325752ABE752B2C752C8085FD
:2008C100362D85352E85342FA21092007582C0120410D000D001D002D003D0049000C6E073
:2008E10070A6880718EF60689000C6ECF09000C7ECF089828A838BF01229A17010853C82EC
:20090100853D83853EF01229A1FFBF0D20902CC675F080C004C003C002C001C00012019F34
:20092100D000D001D002D003D004020889853C82853D83853EF0C004C003C002C001C00004
:2009410012019FD000D001D002D003D0040208897582801203069000C9E4F0A21E22900006
:200961000CE0602090000FE0701A7539CC753A2C753B80753703753801902CCA75F08012A2
:20098100084DC32290000BE4F0902CDD75F08012019F90000175F00012019F9000C97409FF
:2009A100F07539EA753A2C753B8075370575383D902CE775F08002084D90000CE4F0C20DEA
:2009C1009000C97407F075390C753A2D753B8075370375381E902CF875F08012084D900082
:2009E100C9E4F090000CE024FF227F0A902D1D75F080C00712019FD007BFA100400122EF4E
:200A0100240CF582E43400F583E0FE24AB500E8E05ED24DBF58212018A7FA18045EE24B554
:200A210050198E05ED24E5F582C00712018A902D1D75F08012019FD0078027EE24BF5019BF
:200A41008E05ED24EFF582C00712018A902D1F75F08012019FD00780098E82C00712018AE0
:200A6100D0078F060FEE240CF582E43400F583E4F00209FAAD82AE83AFF0902D2175F0803A
:200A8100C007C006C00512019FD005D006D0078D828E838FF012019F902D2C75F08012019D
:200AA1009F853F8212018A753934753A2D753B8075370F753801902CE775F08012084DD39A
:200AC10022E582FF7003020BA0902D4775F080C00712019FD007BF0A00500D8F0674302EA7
:200AE100F58212018A020B88BF6400503B8F057E0075190A8E1A8D828E83C006C005122966
:200B0100F3AB8274302BF58212018AD005D00675190A751A008D828E831229BDAD82743014
:200B21002DF58212018A805F7E007519648E1A8F828E83C007C0061229F3AC8274302CF5AC
:200B41008212018AD006D00775190A751A008F828E83C007C0061229F375190A751A00128B
:200B610029BDAC8274302CF58212018AD006D00775190A751A008F828E831229BDAE8274EA
:200B8100302EF58212018A753950753A2D753B8075370175381F902D1D75F08002084D7FCA
:200BA10001BF0A005036902D4775F080C00712019FD0078F0674302EF582C00712018A75F4
:200BC1003950753A2D753B8075370F753801902D1D75F08012084DD0070F80C5BF64005052
:200BE10065902D4775F080C00712019FD0078F057E0075190A8E1A8D828E83C007C006C097
:200C0100051229F3AB8274302BF58212018AD005D00675190A751A008D828E831229BDADF9
:200C21008274302DF58212018A753961753A2D753B8075370F753801902D1D75F0801208EF
:200C41004DD0070F8096BFFB00400122902D4775F080C00712019FD0078F057E00751964F0
:200C61008E1A8D828E83C007C006C0051229F3AB8274302BF58212018AD005D00675190AD8
:200C8100751A008D828E83C006C0051229F375190A751A001229BDAB8274302BF582120146
:200CA1008AD005D00675190A751A008D828E831229BDAD8274302DF58212018A7539727516
:200CC1003A2D753B8075370F753801902D1D75F08012084DD0070F020C47753940753A2AEB
:200CE100753B8075370F753801902D8375F08012084D7530009000AB740BF09000ABE02440
:200D0100F5400122740525305001221209BA9000ABE4F075330AE5307003020DD6902D87F2
:200D210075F08012019F0530749C25304036AE307F0075190A8F1A8E828F831229F3AE82ED
:200D410074302EF58212018AAE307F0075190A8F1A8E828F831229BDAE8274302EF5821269
:200D6100018A8057AE307F007519648F1A8E828F831229F3AE8274302EF58212018AAE30D4
:200D81007F0075190A8F1A8E828F831229F375190A751A001229BDAE8274302EF582120197
:200DA1008AAE307F0075190A8F1A8E828F831229BDAE8274302EF58212018A753996753AE7
:200DC1002D753B8075370175381F902D9075F08012084D8018753996753A2D753B8075370F
:200DE1000175381F902DA775F08012084D12095F4001221209EB7539B6753A2D753B8075AD
:200E01003732753801902CCA75F08012084D020CFC85824085834185F042753940753A2AD0
:200E2100753B8075370F753801902D8375F08012084D74012540FAE43541FBAC428A828BDE
:200E4100838CF01229A1F9B92A028011C004C003C0021209BAD002D003D004800590000C8F
:200E6100E4F0C004C003C00212095FD002D003D004400122902DC775F080C004C003C0024C
:200E810012019FD002D003D00430A30678CF792D800478D2792D7F80888289838FF0C00494
:200EA100C003C00212019FD002D003D0048A828B838CF01229A1FABA2A02803890000CE0FB
:200EC1006032902DD675F08012019F90000C75F00012019F900010E07009902DE175F08026
:200EE10012019F900010E4F090000FF090000EF090000DF08540828541838542F012019F28
:200F010074012540FDE43541FEAF428D828E838FF01229A1FDBD2A09902CCA75F0800201DA
:200F21009F7539B6753A2D753B80753732753801902CCA75F08002084D7F008F057E00754D
:200F410019028E1A8D828E83C0071229F3AD82D007ED2443F9EF240CF582E43400F583E05F
:200F6100F78F0674022EFF24F750D0753940753A2A753B8075370F753801902D8375F08081
:200F810012084D1209BA12095F400122902DD675F08012019F90000C75F00012019F9000CA
:200FA10010E07009902DE175F08012019F900010E4F090000FF090000EF090000DF0E5444B
:200FC1006045902DFB75F08012019F85438212018A902E1975F08012019F85448212018ADF
:200FE1007F02EF2443F9E7602DEF24FB4028902E2575F080C007C00112019FD00187821248
:20100100018AD0070F80DB902E2875F08012019F85438212018A7539B6753A2D753B8075BA
:201021003732753801902CCA75F08002084D90000CE4F012095F400122902A5075F0801288
:20104100019F753947753A2E753B80753732753801902CCA75F08002084D753940753A2AD8
:20106100753B8075370F753801902D8375F08012084D5032753962753A2E753B8075370FF0
:20108100753801902E5875F08012084D501875397E753A2E753B8075370F753801902E7304
:2010A10075F08002084D22753940753A2A753B8075370F753801902D8375F08012084D40A5
:2010C100012275399A753A2E753B8075370F753802902E8F75F08012084D50367539BE752D
:2010E1003A2E753B8075370F753801902EAB75F08012084D501C7539E3753A2E753B8075BA
:20110100370F753801902ECF75F08012084D5002D322C322C025C0E0C0F0C082C083C00754
:20112100C006C005C004C003C002C001C000C0D075D0102098030220E543C1109000C7E067
:201141009000C6F09000CAE0FF24CBF582E43400F583E599F09000C9E0FF24F550030220E5
:20116100D1EF240A83F582EF240F83F583E47386D1D183D1E8D1101B768011202019201B17
:20118100201E201D1F743EB59912902CCA75F08075D00012019F75D0100220D19000CAE0BE
:2011A100FF24CBF582E43400F583E0FEBE470280030212788F147D00740C2CF582E43DF5EC
:2011C1008375190D8D1AC017C016C015C01475D0001229BD75D010AA82AB83D014D015D06E
:2011E10016D017EA24CBF582EB3400F583E0FBBB4E028003021278740B2CF582E43DF5835A
:2012010075190D751A00C017C016C015C01475D0001229BD75D010AA82AB83D014D015D0C8
:2012210016D017EA24CBF582EB3400F583E0FBBB4945740A2CF582E43DF58375190D751AC1
:2012410000C017C01675D0001229BD75D010AC82AD83D016D017EC24CBF582ED3400F58338
:20126100E0FDBD5212902EF575F08075D00012019F75D0100220D1E4BE3A0104FD70030245
:2012810013EA8F137C00740C2BF582E43CF58375190D8C1AC017C016C015C014C01375D0C9
:2012A100001229BD75D010A982AA83D013D014D015D016D017E924CBF582EA3400F583E04A
:2012C100FABA520280030213EA740B2BF582E43CF58375190D751A00C017C016C015C0144A
:2012E100C01375D0001229BD75D010A982AA83D013D014D015D016D017E924CBF582EA344A
:2013010000F583E0FABA420280030213EA740A2BF582E43CF58375190D751A00C017C0166B
:20132100C015C014C01375D0001229BD75D010A982AA83D013D014D015D016D017E924CBF5
:20134100F582EA3400F583E0FABA500280030213EA74092BF582E43CF58375190D751A0036
:20136100C017C016C015C014C01375D0001229BD75D010A982AA83D013D014D015D016D0F7
:2013810017E924CBF582EA3400F583E0FABA435974082BF582E43CF58375190D751A00C080
:2013A10017C016C01575D0001229BD75D010AB82AC83D015D016D017EB24CBF582EC340059
:2013C100F583E0FCBC2B229000ABE0FC24F650099000AB740BF00220D1D2029000C97408DF
:2013E100F0C20F7530000220D1ED70030215268F147D00740C2CF582E43DF58375190D8DF2
:201401001AC017C016C015C01475D0001229BD75D010AA82AB83D014D015D016D017EA24CB
:20142100CBF582EB3400F583E0FBBB49028003021526740B2CF582E43DF58375190D751A4C
:2014410000C017C016C015C01475D0001229BD75D010AA82AB83D014D015D016D017EA24A5
:20146100CBF582EB3400F583E0FBBB54028003021526740A2CF582E43DF58375190D751A02
:2014810000C017C016C015C01475D0001229BD75D010AA82AB83D014D015D016D017EA2465
:2014A100CBF582EB3400F583E0FBBB4D02800302152674092CF582E43DF58375190D751ACA
:2014C10000C017C016C015C01475D0001229BD75D010AA82AB83D014D015D016D017EA2425
:2014E100CBF582EB3400F583E0FBBB433874082CF582E43DF58375190D751A00C017C01672
:2015010075D0001229BD75D010AC82AD83D016D017EC24CBF582ED3400F583E0FDBD2B0558
:20152100D20C0220D1E4BE200104FD70030216BD8F137C00740C2BF582E43CF58375190D5A
:201541008C1AC017C016C015C014C01375D0001229BD75D010A982AA83D013D014D015D055
:2015610016D017E924CBF582EA3400F583E0FABA3A0280030216BD740B2BF582E43CF583A7
:2015810075190D751A00C017C016C015C014C01375D0001229BD75D010A982AA83D013D05A
:2015A10014D015D016D017E924CBF582EA3400F583E0FABA4C0280030216BD740A2BF58225
:2015C100E43CF58375190D751A00C017C016C015C014C01375D0001229BD75D010A982AAB8
:2015E10083D013D014D015D016D017E924CBF582EA3400F583E0FABA470280030216BD7460
:20160100092BF582E43CF58375190D751A00C017C016C015C014C01375D0001229BD75D0B1
:2016210010A982AA83D013D014D015D016D017E924CBF582EA3400F583E0FABA4D0280037D
:201641000216BD74082BF582E43CF58375190D751A00C017C016C015C014C01375D0001254
:2016610029BD75D010A982AA83D013D014D015D016D017E924CBF582EA3400F583E0FABAE4
:20168100433A74072BF582E43CF58375190D751A00C017C016C01575D0001229BD75D010D9
:2016A100AB82AC83D015D016D017EB24CBF582EC3400F583E0FCBC2B03021839ED700302B7
:2016C10018848F147D00740C2CF582E43DF58375190D8D1AC017C016C015C01475D00012A2
:2016E10029BD75D010AA82AB83D014D015D016D017EA24CBF582EB3400F583E0FBBB3A0205
:201701008003021884740B2CF582E43DF58375190D751A00C017C016C015C01475D0001215
:2017210029BD75D010AA82AB83D014D015D016D017EA24CBF582EB3400F583E0FBBB5002AE
:201741008003021884740A2CF582E43DF58375190D751A00C017C016C015C01475D00012D6
:2017610029BD75D010AA82AB83D014D015D016D017EA24CBF582EB3400F583E0FBBB490275
:20178100800302188474092CF582E43DF58375190D751A00C017C016C015C01475D0001297
:2017A10029BD75D010AA82AB83D014D015D016D017EA24CBF582EB3400F583E0FBBB4C0232
:2017C100800302188474082CF582E43DF58375190D751A00C017C016C015C01475D0001258
:2017E10029BD75D010AA82AB83D014D015D016D017EA24CBF582EB3400F583E0FBBB4302FB
:20180100800302188474072CF582E43DF58375190D751A00C017C01675D0001229BD75D096
:2018210010AC82AD83D016D017EC24CBF582ED3400F583E0FDBD2B4B8F147D0074092CF5B3
:2018410082E43DF58375190D8D1A75D0001229BD75D010AC82AD83EC24CBF582ED3400F5D2
:2018610083E0FDBD4C03D38001C392064006300B030220D1C209C207C2089000C97403F0B7
:201881000220D1BE4B02800302190B8F147D00740C2CF582E43DF58375190D8D1AC017C0EB
:2018A1001675D0001229BD75D010AC82AD83D016D017EC24CBF582ED3400F583E0FDBD4F80
:2018C10049A21FB3921EC21F300223AC337D001CBCFF011DEC240CFCED3400FD8C828D83BF
:2018E100E0240AFB8C828D83F0C20F753300E53370030220D1753300902ECF75F08075D07A
:201901000012019F75D0100220D1BE540280030220D18F167F00740C2EF582E43FF58375E9
:20192100190D8F1AC017C01675D0001229BD75D010AC82AD83D016D017EC24CBF582ED34FA
:2019410000F583E0FDBD4F0280030220D1740B2EF582E43FF58375190D751A0075D000126D
:2019610029BD75D010AE82AF83EE24CBF582EF3400F583E0FFBF4E0280030220D1D21F0283
:2019810020D1200903021AE0E533706B740DB5990280030220D13006409000CAE0FF7E00C6
:2019A10074092FF582E43EF58375190D8E1A75D0001229BD75D010AE82AF83EE24CBF582DE
:2019C100EF3400F583E0FFBF2203D38001C39207BF6D03D38001C39208D201300708900076
:2019E100C9E4F00220D130060575320205319000C97405F00220D1740DB533028003021A7D
:201A0100B99000CAE0FF24CBF582E43400F583E0FEBE2203021AB98F167F00740C2EF582FE
:201A2100E43FF58375190D8F1AC017C01675D0001229BD75D010AC82AD83D016D017EC244C
:201A4100CBF582ED3400F583E0FDBD226B740B2EF582E43FF58375190D751A00C017C016ED
:201A610075D0001229BD75D010AC82AD83D016D017EC24CBF582ED3400F583E0FDBD2C38BF
:201A8100740A2EF582E43FF58375190D751A0075D0001229BD75D010AE82AF83EE24CBF597
:201AA10082EF3400F583E0FFBF220D746DB59902D2087533000220D174F62533400EE5336D
:201AC1002401F582E43400F583E599F0E53324F35008753300D2070220D105330220D13015
:201AE10006429000CAE0FF24CBF582E43400F583E0FEBE302F7E00740C2FF582E43EF58335
:201B010075190D8E1A75D0001229BD75D010AE82AF83EE24CBF582EF3400F583E0FFBF22DE
:201B210003021BD19000CAE0FF24CBF582E43400F583E0FEBE34028003021BD68F167F0018
:201B4100740C2EF582E43FF58375190D8F1AC017C01675D0001229BD75D010AC82AD83D013
:201B610016D017EC24CBF582ED3400F583E0FDBD3863740B2EF582E43FF58375190D751A5E
:201B810000C017C01675D0001229BD75D010AC82AD83D016D017EC24CBF582ED3400F583EF
:201BA100E0FDBD2B30740A2EF582E43FF58375190D751A0075D0001229BD75D010AE82AFD6
:201BC10083EE24CBF582EF3400F583E0FFBF2205D209753301740DB5990280030220D19072
:201BE10000C9E4F00220D1300A49743BB599028021740DB59902801A746025334014AF3364
:201C01000533EF240CF582E43400F583E599F00220D1E533240CF582E43400F583E4F0F5EC
:201C210033C20A9000C77401F09000C9E4F0D20B0220D190F000E493FFBF0A005015900037
:201C4100CAE024CBF582E43400F583E0FFBF0D03021D5A9000CAE0FF24CBF582E43400F510
:201C610083E0FEBE2C028003021D568F167F00740C2EF582E43FF58375190D8F1AC017C05F
:201C81001675D0001229BD75D010AC82AD83D016D017EC24CBF582ED3400F583E0FD90F028
:201CA10003E493FCEDB514028003021D56740B2EF582E43FF58375190D751A00C017C01667
:201CC10075D0001229BD75D010AC82AD83D016D017EC24CBF582ED3400F583E0FD90F002FC
:201CE100E493FCEDB5146E740A2EF582E43FF58375190D751A00C017C01675D0001229BD7A
:201D010075D010AC82AD83D016D017EC24CBF582ED3400F583E0FD90F001E493FCEDB514D0
:201D21003474092EF582E43FF58375190D751A0075D0001229BD75D010AE82AF83EE24CBB6
:201D4100F582EF3400F583E0FF90F000E493FEEFB5160280047F0080027F01EF24FF920A2D
:201D6100740DB5990280030220D17533019000C9E4F00220D1743EB5990A9000C9E4F0D249
:201D81001E0220D19000CAE0FF24CBF582E43400F583E0FEBE520280030220D18F167F0078
:201DA100740C2EF582E43FF58375190D8F1AC017C01675D0001229BD75D010AC82AD83D0B1
:201DC10016D017EC24CBF582ED3400F583E0FDBD520280030220D1740B2EF582E43FF583F7
:201DE10075190D751A0075D0001229BD75D010AE82AF83EE24CBF582EF3400F583E0FFBF37
:201E0100450280030220D19000C6E4F00220D1300D3D7420B59902801A746025334014AFC0
:201E2100330533EF240CF582E43400F583E599F00220D1C20DC20FE533240CF582E4340038
:201E4100F583E4F0F5339000C9F0D21E0220D19000CAE0FF24CBF582E43400F583E0FEBE16
:201E61003D0280030220D18F167F00740C2EF582E43FF58375190D8F1AC017C01675D00092
:201E81001229BD75D010AC82AD83D016D017EC24CBF582ED3400F583E0FDBD680280030255
:201EA10020D1740B2EF582E43FF58375190D751A00C017C01675D0001229BD75D010AC82DA
:201EC100AD83D016D017EC24CBF582ED3400F583E0FDBD6E0280030220D1740A2EF582E492
:201EE1003FF58375190D751A00C017C01675D0001229BD75D010AC82AD83D016D017EC2486
:201F0100CBF582ED3400F583E0FDBD690280030220D174092EF582E43FF58375190D751A83
:201F210000C017C01675D0001229BD75D010AC82AD83D016D017EC24CBF582ED3400F5834B
:201F4100E0FDBD680280030220D174082EF582E43FF58375190D751A0075D0001229BD756E
:201F6100D010AE82AF83EE24CBF582EF3400F583E0FFBF630280030220D1D20D0220D130B4
:201F81000D4A744EB59902802074F72533401AAF3305330FEF3395E0FEEF2401F582EE34AF
:201FA10000F583E599F00220D1C20DC20FAF330FEF3395E0FEEF2401F582EE3400F583E418
:201FC100F0F5339000C9F0D21E0220D19000CAE0FF24CBF582E43400F583E0FEBE3A028035
:201FE100030220D17E00740C2FF582E43EF58375190D8E1A75D0001229BD75D010AE82AFF8
:2020010083EE24CBF582EF3400F583E0FFBF290280030220D1D20D0220D17422B5990280D6
:20202100030220A8D20F9000CAE0FF7E00740C2FF582E43EF58375190D8E1A75D0001229B7
:20204100BD75D010AE82AF83EE24CBF582EF3400F583E0FFBF2C20AE337F001EBEFF011FD7
:20206100EE240CFEEF3400FF8E828F83E02411FD8E828F83F08059AE337F001EBEFF011FA7
:20208100EE240CFEEF3400FF8E828F83E0241BFD8E828F83F09000ABE0FF0F9000ABEFF06E
:2020A1009000C9E4F08029E59924D05023200F0FE53075F00AA4FFE599FE2F24D0F530AF8C
:2020C100330533EF240CF582E43400F583E599F09000CAE02401F0E0FF24F350059000CA0C
:2020E100E4F0C298D0D0D000D001D002D003D004D005D006D007D083D082D0F0D0E0D0256B
:2021010032C20E7F00EF240CFDE43400FE0F8D828E83E0600543C11080EBBFA000500F0F4B
:20212100EF240CF582E43400F583E4F080EC90000CE0FFBF3F02800890000DE0FEBE3F06B7
:2021410020070302102FBF30030221C9BF31030221C9BF32028071BF3302806CBF3402801D
:2021610067BF44030223BBBF4702805CBF4C030224C8BF5003022274BF52028037BF5303A8
:20218100022266BF58030223C7BF64030223BBBF67028034BF6C030224C8BF7003022274E6
:2021A100BF7202800FBF7303022266BF78030223C70225D22008030225DBD2A4902EFA75AE
:2021C100F080120E120225DB7F00EF240CF582E43400F583E0FEBE67028008BE470280039E
:2021E100BE3010D2A3900064C0071201EFD007C2A3804ABE3110D2A2900064C0071201EF78
:20220100D007C2A28037BE3210D2A1900064C0071201EFD007C2A18024BE3310D2C2900098
:2022210064C0071201EFD007C2C28011BE340ED2A7900064C0071201EFD007C2A78F067405
:20224100022EFF900384C0071201EFD007EF240CFDE43400FE8D828E83E060030221CB1202
:202261000F3A0225DB902F1075F080120E12C2A00225DB2008030225DB90F000E493FFBFE6
:202281000A005038900010E0FFBF42028012BF6202800D900011E0FFBF4E028003BF6E1C8C
:2022A1001201069000BAE024309000BAF0120141902F2275F080120E120225DB90F000E49A
:2022C10093FF24D0504390F000E493FFBF3A005038900010E0FFBF54028012BF7402800D85
:2022E100900011E0FFBF66028003BF461C1201069000BAE024D09000BAF0120141902F39D5
:2023010075F080120E120225DB90F000E493FF24D040030223AF90F000E493FFBF3A004073
:20232100030223AF900010E0FFBF300050030223AFEF24C650030223AF900011E0FFBF30C1
:202341000050030223AFEF24C650030223AF900012E0FFBF30004056EF24C6405190001342
:20236100E0FFBF30004047EF24C640429000001200EE900010E0F5189000001200D390008A
:2023810011E0F5189000011200D3900012E0F5189000021200D3900013E0F518900003128D
:2023A10000D3902F5075F080120E120225DB902F6775F080120E120225DB2008030225DBB5
:2023C100120CDB0225DB2008030225DB900010E0FFBF300050030224BCEF24C650030224DF
:2023E100BC900011E0FEBE30004005EE24C65006EE60030224BC900012E0FDBD300040055C
:20240100ED24C65006ED60030224BCBF3009758200120AC20224B0EE700D8F04EC24D0F5E6
:2024210082120AC20224B0ED70178F04EC24D075F00AA4FC8E03EB2C24D0F582120AC280FE
:202441006E8E037C00EB24D0F519EC34FFF51A90000AC007C006C00512290EAB82AC83D084
:2024610005D006D0078D017A00E92BFBEA3CFCEB24D0FBEC34FFFCC374329B74808CF063A4
:20248100F08095F05011EF24FE500C902F6775F080120E120225DBEF24D075F064A4FFEEFC
:2024A10024D075F00AA42F2D24D0F582120AC2902F7A75F080120E120225DB902F6775F092
:2024C10080120E120225DB2008030225DB900010E0FFBF300050030225C7EF24C65003023D
:2024E10025C7900011E0FFBF300050030225C7EF24C650030225C7900012E0FFBF30005065
:20250100030225C7EF24C650030225C7900013E0FFBF300050030225C7EF24C650030225AA
:20252100C7900014E0FFBF300050030225C7EF24C650030225C7900015E0FFBF3000500340
:202541000225C7EF24C650030225C7900016E0FFBF300050030225C7EF24C650030225C7A3
:20256100900017E0FFBF300050030225C7EF24C64054900018E0FFBF3000404AEF24C6401E
:2025810045900019E0FFBF3000403BEF24C6403690001AE4F090001BE0FFE4BF6D01047027
:2025A1000BBF74010470057D75FE80048F057E008D3F90001075F000120A75902F9275F0C4
:2025C10080120E128014902FAB75F080120E128009902F6775F080120E1243C1107F00EFEB
:2025E100240CFDE43400FE8D828E83E0600FEF240CF582E43400F5830FE4F080E222759393
:20260100007594FF7592007591007595007596FF75B20075B10075B30275B41C75CA007520
:20262100C90075C00075B0FF75A00075B881759700D2AF7531009000AD740AF09000B5741D
:2026410006F09000C37402F09000C2F09000C1F09000C4E4F01201069000BAE0FFBF3000EE
:202661005005EF24F64032EF24C6402D9000BBE0FFBF30004023EF24C6401E9000BCE0FF65
:20268100BF30004014EF24C6400F9000BDE0FFBF30004005EF24C650129000BD7430F090C2
:2026A10000BCF09000BBF09000BAF01201411201721205C112038F12105B1210A89000C507
:2026C100743CF075C1659000017430F090000BE4F09000C5E0700B9000C4E060059000C48D
:2026E100E4F020210E30200BD221902FBF75F080120E1230210E20200BC221902FCD75F055
:2027010080120E12100C028021753940753A2A753B8075370F753801902D8375F0801208A8
:202721004D902FDF75F08012019F300B1D1221027539EE753A2F753B8075370F75380190E6
:202741002ECF75F08012084DC20B10120280279000C4E0FF7E008F828E83A37519048E1AE7
:202761001229BDAE829000C4EEF09000C5743CF0758280120306101602801E758200120A9E
:20278100C21201069000BD7430F09000BCF09000BBF09000BAF012014110050280061210B8
:2027A1005B1210A8101A02804B9000C9740AF0753911753A30753B8075370375381E902F2E
:2027C100FD75F08012084D7582801202A590302275F0801203257582841202A590000BE4CB
:2027E100F090000175F000120325201A0543C11080F8C21A1022030228647582801202A51E
:202801009000C4E0FFBF010B90302775F0801203258034BF020B90302C75F08012032580A8
:2028210026BF030B90303175F080120325801830A3067E367F3080047E3B7F307D808E82C7
:202841008F838DF0120325752ABE752B2C752C8085362D85352E85342FA21092007582C0B1
:202861001204101001030229081006030228F49000C4E070030228E6753940753A2A753B85
:202881008075370F753801902D8375F08012084D90000BE4F030072A9000C4E0FFBF0106F9
:2028A1007D6D7E008011BF02067C757F0080047C747F008C058F068D3F90000175F00012FA
:2028C1000A75753996753A2D753B8075370F75380190304075F08012084D90304E75F08080
:2028E100120E12800E20070BD2A490306675F080120E127582841202A590000BE4F09000FF
:0D2901000175F00012032543C1100226D21B
:202A4000205448414E474D415920302E322E31004D612050696E204D61632044696E682005
:202A60003A20303030300A436163206C656E6820636875207669657420484F4120686179D2
:202A8000207468756F6E67206465752064756F630A312E4C656E6820626174207468696547
:202AA000742062690A707070702C626174202D2076692064753A20303030302C6261740ABE
:202AC000322E4C656E68207461742074686965742062690A707070702C746174202D20765B
:202AE000692064753A20303030302C7461740A332E4C656E68206B69656D20747261207432
:202B000072616E6720746861692074686965742062690A707070702C6B74202D20766920DD
:202B200064753A20303030302C6B740A342E4C656E68207468617920646F69206D612070F4
:202B4000696E3A20707070702C70696E2C787878780A7669206475203A20303030302C704D
:202B6000696E2C31323334200A5468617920646F69206D612070696E20747520303030302E
:202B8000202D3E20313233340A352E4C656E682072657365742073696D2D67736D0A7070C2
:202BA00070702C72732D2076692064753A20303030302C72730A362E4C656E68206C696585
:202BC00074206B652064616E682062610A707070702C64622D2076692064753A2030303028
:202BE000302C64620A372E4C656E6820786F612064616E682062613A20707070702C786F8A
:202C0000612C7878780A76643A20303030302C786F612C31352020786F6120736F20646944
:202C2000656E2074686F6169207468752031350A76643A20303030302C786F612C30202087
:202C400020786F6120746F616E20626F2064616E682062610A382E4C656E68206C7575201E
:202C600064616E682062613A20707070702C6C75752C787878787878787878780A76643A40
:202C800020303030302C6C75752C303931323334353637380A6C757520736F206469656E77
:202CA0002074686F616920303931323334353637382076616F2064616E682062610020206E
:202CC000544D41202000412F0D001A00544B3C31303030204B2042414F43414F0041542BAF
:202CE000434D47533D2200220D0020202053454E44494E472020200041542B435553443D28
:202D0000312C222A31303123222C0D0020204B49454D2054524120544B202020000D002C35
:202D20000041542B435042573D2C2200222C3132392C220020202053454E44494E47204319
:202D40005042572020200041542B435042573D002020202044454C4554494E4720202020B5
:202D60000020202E2E44454C4554494E472E2E2020002E2E2E2E44454C4554494E472E2E6F
:202D80002E2E0041540D0041542B435042523D002C3235300D00202053454E44494E4720D9
:202DA0004350425220200041542B435042523D312C3235300D0044414E4720475549204206
:202DC000414F2043414F002052454C41593D004F4E004F4646000D544B204368696E683D2B
:202DE000000D546169206B686F616E20636F6E2064756F69203130303030000D5468616E9D
:202E000067206D61792064692063687579656E2074752074616E6720002C20746F6920742C
:202E2000616E6720002C20000D5468616E67206D61792064692063687579656E20746F6985
:202E40002074616E672000204755492048554F4E472044414E20200041542B4950523D3097
:202E60000D00202053454E44494E47204950522020200041542B434C49503D310D002020EF
:202E800053454E44494E4720434C495020200041542B434D47463D310D00202053454E44E0
:202EA000494E4720434D474620200041542B434E4D493D312C312C302C302C310D002020A3
:202EC00053454E44494E4720434E4D4920200041542B434D4744413D2244454C20414C4C1A
:202EE000220D00202053454E44494E4720434D4744412020004154480D000D64616E6720EE
:202F00007265736574207468616E67206D6179000D72657365742067736D20736175313094
:202F200073000D426174206D612070696E207468616E6820636F6E67000D546174206D6187
:202F40002070696E207468616E6820636F6E67000D446F69206D612070696E207468616EC7
:202F60006820636F6E67000D4C656E68206B686F6E6720686F70206C65000D586F61206446
:202F8000616E68206261207468616E6820636F6E67000D7468656D2064616E6820626120A4
:202FA0007468616E6820636F6E67000D536F206474206B686F6E6720686F70206C65000DD4
:202FC0004C6F69206269656E2074616E000D486574206C6F69206269656E2074616E0041B8
:202FE000542B434D474C3D22414C4C220D002044454C4554494E4720534D53200041542B69
:20300000435553443D312C222A31313023222C0D0020204B49454D205452412053445420F3
:2030200020005344543A004348493A005048553A0054414D3A004F4E203A004F46463A00EE
:2030400041542B435042523D312C39390D000D4C75752064616E68206261207468616E685C
:1C30600020636F6E67000D54415420424154203D2043554F4320474F49001428BE
:06007000E478FFF6D8FD64
:20004E007902E94400601B7A0190307A78DA75A000E493F2A308B8000205A0D9F4DAF275D2
:02006E00A0FFF1
:1D290E00E5828519F0A4C582C0F0851AF0A4D0F025F0C5838519F0A42583F5832258
:20292B00E519451A60467A01E51925E0F519E51A334012F51AE5829519E583951A40030AF1
:20294B0080E6C3E51A13F51AE51913F519C3E5829519F5F0E583951A4005F58385F082C3B8
:0D296B00E51A13F51AE51913F519DAE12242
:200076007800E84400600A790175A000E4F309D8FC78D9E84400600C7901900001E4F0A3AE
:04009600D8FCD9FABF
:202978007A10E4FBFCE58225E0F582E58333F583EB33FBEC33FCEB9519F5F0EC951A400651
:09299800FCABF0438201DADD2200
:0D004100758147122A2BE582600302003E04
:1C29A10020F71430F6148883A88220F507E6A88375830022E280F7E49322E02245
:2029BD00C2D5E58330E70DD2D5E4C39582F582E49583F583E51A30E70BE4C39519F519E41F
:1629DD00951AF51A12292B30D50BE4C39582F582E49583F58322E5
:2029F300C2D5E58330E70DD2D5E4C39582F582E49583F583E51A30E70DB2D5E4C39519F55D
:182A130019E4951AF51A12297830D50BE4C39582F582E49583F5832262
:042A2B00758200228E
:00000001FF
