:20009F0075C70075C50075C60075C38075C40043C11022AE82AF8375C78375C5018EC48F2C
:2000BF00C375C65A75C6A500AFC2C00712009FD0078F8222AE82AF8375C78375C5028EC447
:2000DF008FC38518C275C65A75C6A50002009FAE82AF8375C78375C5038EC48FC375C65AA3
:2000FF0075C6A50002009F43C1107ED17F00EE4F60141EBEFF011FEE24C5F582EF3400F56C
:20011F008374FFF080E8C3EE94D1EF9400501EEE24C5FCEF3400FD8E8274F02FF5830EBE91
:20013F0000010FE493FB8C828D83F080D99000000200EE43C1107ED17F00EE4F60141EBEC8
:20015F00FF011FEE24C5F582EF3400F58374FFF080E8C3EE942EEF9401501EEE24C5FCEF86
:20017F003400FD8E8274F22FF5830EBE00010FE493FB8C828D83F080D99002000200EE7E5D
:20019F00007F00C3EE94D1EF9400503075C78375C5028EC48FC3EE24C5F582EF3400F58320
:2001BF000EBE00010FE0F5C275C65A75C6A500C007C00612009FD006D00780C7227E007FE7
:2001DF0000C3EE942EEF9401503675C78375C5028EC48E0474022FFD8DC3EE24C5F582EF75
:2001FF003400F5830EBE00010FE0F5C275C65A75C6A500C007C00612009FD006D00780C120
:01021F0022BC
:20022000759850438E40538EFE758BB2758DFFC2ABD28ED2ACD2A022E582FF700122C2998B
:200240008F9920990543C11080F8C29922E582FFC4540FFE53070FBE0A0050067C307D0074
:2002600080047C577D00EC2EF582C007120238D007BF0A0050067D307E0080047D577E000F
:20028000ED2FF582020238AD82AE83AFF0C2998D828E838FF0124A93FC60218C9920990547
:1D02A00043C11080F8C2998D828E838FF0124A93FCBC1A01220DBD00D60E80D322B4
:2002BD00AE82AF837C007D00C3EC9EED9F500A43C1100CBC00F20D80EF22AE82AF837C0049
:2002DD007D00C3EC9EED9F501D9003E8C007C006C005C0041202BDD004D005D006D0070C7A
:2002FD00BC00DF0D80DC22AF82E5294FF58212039175820D020391AF82302D118F821203B1
:20031D0091852A82852B83852CF00204158F820203F6E582FF700122D285EFC4540124FF88
:20033D009283EFA2E5E43324FF9282EF2323540124FF9281EF235401FE24FF9280D2840017
:20035D00C28400EF540124FF9283EF03540124FF9282EF03035401FE24FF9281EFA2E3E46A
:20037D0033FF24FF9280D28400C2849000641202BDC28522E582FF700122C285EFC45401E7
:20039D0024FF9283EFA2E5E43324FF9282EF2323540124FF9281EF235401FE24FF9280D218
:2003BD008400C28400EF540124FF9283EF03540124FF9282EF03035401FE24FF9281EFA24D
:2003DD00E3E433FF24FF9280D28400C2849000640202BD75820C020391E582FF600E8F8203
:2003FD00120391904B2175F0800204157582011203919006400202BDAD82AE83AFF07C008E
:20041D008D828E838FF0124A93FB6055BC10005050BB80005025EB24E050200CEC601C0D85
:20043D00BD00010E8B82C007C006C005C00412032FD004D005D006D00780C58D828E838F22
:20045D00F0124A93FBA3AD82AE838B82C007C006C005C004120391D004D005D006D0078003
:20047D009F22C286903A981202BD75801C00C284900FA01202BDD28400C2849000A01202DC
:20049D00BDD28400C2849000A01202BD75801400C2849003E81202BDD28400C284007580B9
:2004BD001100C2849000281202BD75801000C2840075801300C2849000281202BD75801018
:2004DD0000C2840075801600C2849000281202BD75801000C2840075801800C2849003E8C6
:2004FD000202BDAF82E53024E8500122E532240540030205BC8F82120391852D82852E83F2
:20051D00852FF012041574F6253040067D207E00801DAB307C0075190A8C1A8B828C83126F
:20053D004AE5AB82AC8374302BFBFD3395E0FE8D8212032FAD307E0075190A8E1A8D828E1B
:20055D0083124AAFAD8274302DF58212032FE532240350123000067D3A7E0080047D207E8B
:20057D00008D8212032FAD317E0075190A8E1A8D828E83C006C005124AE5AB8274302BF592
:20059D008212032FD005D00675190A751A008D828E83124AAFAD8274302DF58202032F8F41
:2005BD0082120391852D82852E83852FF012041574F6253040067E207F00801DAC307D00A5
:2005DD0075190A8D1A8C828D83124AE5AC82AD8374302CFCFE3395E0FF8E8212032FAE305F
:2005FD007F0075190A8F1A8E828F83124AAFAE8274302EF58212032F3000067E3A7F008047
:20061D00047E207F008E8212032FAE317F0075190A8F1A8E828F83C007C006124AE5AC828B
:20063D0074302CF58212032FD006D00775190A751A008E828F83124AAFAE8274302EF58298
:20065D0012032F3000067E3A7F0080047E207F008E8212032FAE327F0075190A8F1A8E8227
:20067D008F83C007C006124AE5AC8274302CF58212032FD006D00775190A751A008E828F51
:20069D0083124AAFAE8274302EF58212032F75822002032F120391AE357F0075190A8F1A5E
:2006BD008E828F83C007C006124AE5AC8274302CF58212032FD006D00775190A751A008E12
:2006DD00828F83124AAFAE8274302EF58212032FAE347F0075190A8F1A8E828F83C007C056
:2006FD0006124AE5AC8274302CF58212032FD006D00775190A751A008E828F83124AAFAE2E
:20071D008274302EF58212032FAE337F0075190A8F1A8E828F83C007C006124AE5AC82747A
:20073D00302CF58212032FD006D00775190A751A008E828F83124AAFAE8274302EF58212F9
:08075D00032F75822002032F17
:114B2100202020202020202020202020202020200083
:040000000200413287
:01000B0032C2
:0100130032BA
:01001B0032B2
:0300230002164181
:01002B0032A2
:01003300329A
:03003B000208F1C7
:05009A00C23302003E2C
:03003E000238EB9A
:2007650075FA0075EA0090021374A8F07461A3F090021574FAF0E4A3F075DA4975DB49D20E
:20078500DE22E582FF540124FF92A3EF03540124FF92A2EF0303540124FF92A1EFA2E3E4AB
:2007A5003324FF92C22212010630A3067E017F0080047E007F0030A2067C027D0080047C24
:2007C500007D00EC4EFF30A1067D047E0080047D007E00ED420730C2067D087E0080047DD7
:2007E500007E00ED42079000CCEFF002019E43C110B220A220928720051990001BE0FFE0FB
:200805006011EF1490001BF0E07008D20690001B74B4F0900212E0FFE06012EF1490021255
:20082500F0E07009900212E4F0900211F0900218E0FFE06009302406EF14900218F0900204
:2008450019E0FFE06009302806EF14900219F090021AE0FFE06009302C06EF1490021AF081
:2008650090021AE07002D22E900229E0FFE06006EF14900229F090022BE0FFE06006EF1402
:2008850090022BF090021BE0600E90021DE0FFE06006EF1490021DF020A0139000BFE0141F
:2008A500F0E0700AD2A09000BF740AF0D209053BE53B24C45035D21E753B00E5376006D51B
:2008C5003803753700053CE53C24C4501E753C00D21F053DE53D24E85011753D00900217A6
:2008E500E0FFE06006EF14900217F022C028C0E0C0F0C082C083C007C006C005C004C0037A
:20090500C002C001C000C0D075D00843C11010D803020A25900213E0FEA3E0FF8EEA8FFA7C
:2009250090021374A82EF074613FA3F030210930B5069002187402F030210330B504C234A4
:200945008002D234A234922420230330B504C2348002D234A234922120220A202403202174
:2009650004C2348002D234A2349222A2B5922330250930B3069002197406F030250330B3C3
:2009850004C2348002D234A234922820270330B304C2348002D234A234922520260A20286C
:2009A50003202504C2348002D234A2349226A2B3922730290930B40690021A7402F0302915
:2009C5000330B404C2348002D234A234922C202B0330B404C2348002D234A2349229202A86
:2009E5000A202C03202904C2348002D234A234922AA2B4922B90023DE014F0E0700AD23317
:200A050090023D740AF0B22D90023EE014F0E0700F90023E7428F075D0001207F375D008A8
:200A250010D903020B29900215E0FEA3E0FF8EEB8FFB90021574FA2EF0E43FA3F030180351
:200A4500020B299001F3E0FF04F0EF7006D219C204C21830B63990020FE0702430172190E8
:200A65000210E0FF24FD5018BF070050139001F4E0FF04F0EF24F5F582E43401F583E4F092
:200A850090020FE02401F0900210E4F0020B0A900210E0706430174690020FE0FF24FD505A
:200AA5003DBF07005038201C1F9001F4E0FF30E0171FEF3395E0FEEF24F5FFEE3401FE8F55
:200AC500828E83E07002D21C9001F4E0FF04F0EF24F5F582E43401F5837401F0801B900244
:200AE5000FE0FF24E350129001F37401F0301909D2179001F4E4F0C21C900210E02401F0A8
:200B050090020FE4F030170C9001F4E0FFBF1804D21880109001F4E0FF24E750079001F404
:200B2500E4F0C217D0D0D000D001D002D003D004D005D006D007D083D082D0F0D0E0D028BA
:200B45003285824285834385F0447C007B0090F008E493FAC3EB9A4003020C137545017941
:200B6500008B19751A0090000AC004C003C001124A00A882AA83D001D003D00489067F0022
:200B8500EE28F8EF3AFAE82409F582EA34F0F583E493FFE92542FAE43543FDAE448A828D69
:200BA500838EF0124A93FAEFB502028005754500800609B9090040A9E545604C8B19751A1C
:200BC5000090000AC004C003124A00AE82AF83D003D00474092EFAE43FFDEA2409FAED3493
:200BE500F0FD8A828D83E493601E74092EFEE43FFFEE2409F582EF34F0F583E49390000CF7
:200C0500F08C07EF04F582220B8B04020B537582002285824785834885F04990F008E49352
:200C2500F54A7B00C3EB954A502E8B19751A0090000AC003124A00E5828583F0D00324099F
:200C4500F9E435F0FAE92409F9EA34F0FA89828A83E49360030B80CCEBFAB54A0474018056
:200C650001E4FB600874EC254A5002C322C003C002120106D002D00379008A19751A0090A3
:200C8500000AC003C002C001124A0085824B85834CD001D002D0037409254BF8E4354CFF3E
:200CA50089057E00ED28F8EE3FFFE824C5F8EF3400FFE92547FCE43548FDAE498C828D833B
:200CC5008EF0124A9388828F83F009B9090040AA7412254BFEE4354CFFEE24C5F582EF3418
:200CE50000F583E546F0EB6008AC4A0C9000CDECF012019ED322AF82C007120106D007EF51
:200D0500702AFDFE74092DFBE43EFCEB24C5F582EC3400F583E4F00DBD00010EC3ED94C8DA
:200D2500EE940040DF9000CDE4F080599000CDE0FEC39F40507D007E008F037C00EB24FFBF
:200D4500F519EC34FFF51A90000AC007C006C005124A00E5828583F0D005D006D0072409FC
:200D6500FBE435F0FCED2BFBEE3CFCEB24C5F582EC3400F583E4F00DBD00010EC3ED940A57
:200D8500EE940040B402019EAF82C007120152D0078F4DAD4D7E000DBD00010E9001F1E074
:200DA500FCFA7B00C3ED9AEE64808BF063F08095F04003020E467E008E037D00A94D7A0039
:200DC500740229F519E43AF51A900003C006C005C003C002C001124A00A882AF83D001D077
:200DE50002D003D005D006E82BF8EF3DFFE824C5F8EF3400FF740329F519E43AF51A9000E2
:200E050003C007C006C005C003C000124A00A982AA83D000D003D005D006D007E92BFBEA23
:200E25003DFDEB24C5F582ED3400F583E0FD88828F83F00EBE03005003020DBD054D020D57
:200E450098EC604F7F008F057E009001F1E0FC7B0074012CF519E43BF51A900003C007C0F9
:200E650006C005124A00AB82AC83D005D006D007EB2DFDEC3EFEED24C5F582EE3400F58344
:200E8500E4F00FBF030040BE9001F1E0FF1F9001F1EFF00201DC7F007E0090F008E493FDF1
:200EA500C3EE9D4003020F458E19751A0090000AC007C006124A00E5828583F0D006D00781
:200EC5002409FCE435F0FDEC2409F582ED34F0F583E493FDBD6D028003BD4D5E9000017435
:200EE50030F0754E00AC4E0CEC3395E0FBEC2401FCEB3400FB8F19751A0090000AC007C0F6
:200F050004C003124A00A982AA83D003D004D007A84E7D00E829F9ED3AFAE92409F582EABE
:200F250034F0F583E4938C828B83F0054E74F7254E50B290000BE4F0D3220E8E07020E9FA4
:200F4500C322AD82AE83AFF0AC5090022AECF0854FF0ECA4FB90022B740A2BF0C22F8D826F
:200F65008E838FF0C007C006C005C004120287D004D005D006D007AB4F302F0302101C90BB
:200F8500022BE0700302101C30310302101C43C110C233758280C007C006C005C004C003B3
:200FA5001203918551828552838553F0120415752DAC752E4D752F80853D30853C31853BDB
:200FC50032A22092007582C0120500D003D004D005D006D007102E028002C322900229E04D
:200FE5006003303294C2328B021BEA602A900229ECF090022AECF08D828E838FF0C007C02E
:2010050006C005C004C003120287D003D004D005D006D007020F7E7582801203F690022CE6
:20102500E4F0A22F2290001EE06020900021E0701A7551B675524D755380754F0375500156
:20104500904DB475F080120F47C32290000BE4F0904DC775F08012028790000175F000122D
:20106500028790022C7409F07551D475524D755380754F0575503D904DD175F080020F470B
:20108500AD82AE83AFF0904DE275F080C007C006C005120287D005D006D0078D828E838F8A
:2010A500F01202877551E975524D755380754F0175503C904DE675F080020F47AF82BF0AD5
:2010C50000500A8F0674302EF582020238BF640050398F057E0075190A8E1A8D828E83C0B9
:2010E50006C005124AE5AB8274302BF582120238D005D00675190A751A008D828E83124AD2
:20110500AFAD8274302DF5820202387E007519648E1A8F828E83C007C006124AE5AC8274BE
:20112500302CF582120238D006D00775190A751A008F828E83C007C006124AE575190A75BA
:201145001A00124AAFAC8274302CF582120238D006D00775190A751A008F828E83124AAFA3
:20116500AE8274302EF58202023890001EE4F012102A4001227F0090F008E493FEC3EF9EB8
:20118500400302124B8F19751A0090000AC007124A00E5828583F0D0072409FDE435F0FE4D
:2011A500ED2409FDEE34F0FE8D828E83E49370030212478F06EE04F582C0071210C17582FF
:2011C5002E120238758230120238D0077E008F19751A0090000AC007C006124A00AC82AD33
:2011E50083D0068E027B00EA2CFAEB3DFBEA2409F582EB34F0F583E493F582C006C005C005
:2012050004120238D004D005D006D0070EBE090040BC75822CC007C005C004120238D004BF
:20122500D00574092CFCE43DFDEC2409F582ED34F0F583E493F58212023875820D1202386E
:20124500D0070F02117C7551FA75524D755380754F32755001904DB475F080020F47AD823F
:20126500AE83AFF075513275524B755380754F0F755001904E0B75F080C007C006C005127C
:201285000F4790001EE4F012102AD005D006D007400122904E0F75F080C007C006C005120A
:2012A5000287D005D006D00790F006E49360067B167C4E80047B197C4E7A808B828C838ADE
:2012C500F0C007C006C005120287D005D006D0078D828E838FF0C007C006C005120287D04E
:2012E50005D006D0070DBD00010E8D828E838FF0124A93FDBD2A09904DB475F080020287E2
:201305007551FA75524D755380754F78755001904DB475F080020F47AF82753900BFA1009D
:20132500500FEF241EF582E43400F5830FE4F080EC2290001EE4F012102A400122904B3E56
:2013450075F08012028775511D75524E755380754F32755001904DB475F080020F47755178
:201365003275524B755380754F0F755001904E0B75F080120F47503475820012131D7539A2
:201385000090022C740AF075513875524E755380754F0F755001904E2E75F080120F47507F
:2013A50009900022E0FF900227F0D322C32275514E75524E755380754F19755002904E43D5
:2013C50075F080120F4740012275516775524E755380754F0F755001904E5C75F080120FF5
:2013E5004740012290022C740CF075518375524E755380754F0A75503C904E7875F080124E
:201405000F474001229003E81202D775820012131D75390090022C7402F075519E75524E24
:20142500755380754F0F755001904E9475F080120F47400122900021E024D075F00AA4FF0D
:20144500900022E02F24D0F541900024E024D075F00AA4FF900025E02F24D0F5409000275E
:20146500E024D075F00AA4FF900028E02F24D0F53F90002AE024D075F00AA4FF90002BE057
:201485002F24D0F53D90002DE024D075F00AA4FF90002EE02F24D0F53C900030E024D07554
:2014A500F00AA4FF900031E02F24D0F53B854019751A00900017124A00751909751A0012EE
:2014C5004AE5AE82AF83AC3F7D00EC2EFEED3FFFE54024FD5013740355417D004DB4010096
:2014E5009235E433FC7D0080047C027D00EC2EFEED3FFFAC417D00EC2EFEED3FFF8C828D86
:2015050083A3A3A37519048D1AC007C006124AE5AC82AD83D006D007EC2EFEED3FFF8E82F5
:201525008F83A3751907751A00124A1DE58204F53EC3E54194189235402AE541249C923543
:201545004022C3E540940192354019E54024F392354011C3E53F940192354008E53F24E080
:2015650092355004C2358002D235A2359205227551B775524E755380754F0F755001904EEA
:20158500AC75F080020F477551D375524E755380754F0F755001904EC875F080120F47409B
:2015A5000302163F7551F775524E755380754F0F755001904EE475F080120F4740030216AF
:2015C5003F75511575524F755380754F0F755001904F0875F080120F47505F90022C740ED2
:2015E500F075820012131D75390075512E75524F755380754F0F755001904F2675F0801228
:201605000F475034900228E4F07F00EF241EF582E43400F583E0FEBE2C02801CEF241EF51A
:2016250082E43400F5830FE024D0FE900228E0FD75F00AA42EF080D3D322C322C028C0E035
:20164500C0F0C082C083C007C006C005C004C003C002C001C000C0D075D01020980302286A
:201665005E43C11090022AE0900229F090022DE0242EF582E43402F583E599F090022DE0A5
:20168500FF242EF582E43402F583E0FEBE4E0280030217C78F147D00740C2CF582E43DF543
:2016A5008375190D8D1AC017C016C015C01475D000124AAF75D010AA82AB83D014D015D072
:2016C50016D017EA242EF582EB3402F583E0FBBB490280030217C7740B2CF582E43DF583BD
:2016E50075190D751A00C017C016C015C01475D000124AAF75D010AA82AB83D014D015D0CD
:2017050016D017EA242EF582EB3402F583E0FBBB200280030217C7740A2CF582E43DF583A6
:2017250075190D751A00C017C016C015C01475D000124AAF75D010AA82AB83D014D015D08C
:2017450016D017EA242EF582EB3402F583E0FBBB547074092CF582E43DF58375190D751AFE
:2017650000C017C016C015C01475D000124AAF75D010AA82AB83D014D015D016D017EA246B
:201785002EF582EB3402F583E0FBBB4F3574082CF582E43DF58375190D751A00C017C0165D
:2017A50075D000124AAF75D010AC82AD83D016D017EC242EF582ED3402F583E0FDBD4E021A
:2017C500D23190022CE0FD24F0500302284AED240A83F582ED241483F583E473B94AF25EAC
:2017E5004A364A4A23994FE35F4A01DC1A281923282528282726191918281827AC39053920
:20180500EC241EF582E43400F583E599F07420B5993490022DE0FC7B00740C2CF582E43BB2
:20182500F58375190D8B1A75D000124AAF75D010AB82AC83EB242EF582EC3402F583E0FCC0
:20184500BC3A03753900742CB59902800302284A90022CE4F0F53902284A7456B5996E8FAC
:20186500137C00740C2BF582E43CF58375190D8C1AC017C014C01375D000124AAF75D010B6
:20188500A982AA83D013D014D017E9242EF582EA3402F583E0FABA4534740B2BF582E43CA5
:2018A500F58375190D751A00C01775D000124AAF75D010AB82AC83D017EB242EF582EC34EE
:2018C50002F583E0FCBC4705D22F02284A7452B59902800302284A8F137C00740C2BF582E3
:2018E500E43CF58375190D8C1AC014C01375D000124AAF75D010A982AA83D013D014E92492
:201905002EF582EA3402F583E0FABA4F02800302284A740B2BF582E43CF58375190D751AC6
:201925000075D000124AAF75D010AB82AC83EB242EF582EC3402F583E0FCBC5202800302E2
:20194500284A900229E4F002284AAC390539EC241EF582E43400F583E599F07422B599342F
:2019650090022DE0FC7B00740C2CF582E43BF58375190D8B1A75D000124AAF75D010AB8280
:20198500AC83EB242EF582EC3402F583E0FCBC2003753900742CB59902800302284A9002E3
:2019A5002DE0FC7B00740C2CF582E43BF58375190D8B1A75D000124AAF75D010AB82AC83A3
:2019C500EB242EF582EC3402F583E0FCBC2202800302284A90022CE4F0F53902284A743128
:2019E500B59902800302284AD22F02284AAC390539EC241EF582E43400F583E599F0744BA1
:201A0500B5996790022DE0FB7C00740C2BF582E43CF58375190D8C1AC014C01375D00012FD
:201A25004AAF75D010A982AA83D013D014E9242EF582EA3402F583E0FABA4C2E740B2BF53D
:201A450082E43CF58375190D751A0075D000124AAF75D010AB82AC83EB242EF582EC340266
:201A6500F583E0FCBC4303753900740DB59902800302284A90022DE0FC7B00740C2CF5825C
:201A8500E43BF58375190D8B1A75D000124AAF75D010AB82AC83EB242EF582EC3402F5831B
:201AA500E0FCBC2202800302284A90022CE4F0F53902284A743EB59912904DB475F080753D
:201AC500D00012028775D01002284ABE47028003021BAA8F137C00740C2BF582E43CF583A4
:201AE50075190D8C1AC017C016C015C014C01375D000124AAF75D010A982AA83D013D014B3
:201B0500D015D016D017E9242EF582EA3402F583E0FABA4E028003021BAA740B2BF582E491
:201B25003CF58375190D751A00C017C016C015C014C01375D000124AAF75D010A982AA839C
:201B4500D013D014D015D016D017E9242EF582EA3402F583E0FABA494C740A2BF582E43C54
:201B6500F58375190D751A00C017C016C01575D000124AAF75D010AB82AC83D015D016D0A0
:201B850017EB242EF582EC3402F583E0FCBC521575DB00904F3575F08075D000120287753E
:201BA500D01002284AE4BE3A0104FC7003021D758F127B00740C2AF582E43BF58375190D79
:201BC5008B1AC017C016C015C014C013C01275D000124AAF75D010A882A983D012D013D0D0
:201BE50014D015D016D017E8242EF582E93402F583E0F9B952028048740C2AF582E43BF5EF
:201C05008375190D751A00C017C016C015C014C013C01275D000124AAF75D010A882A9831C
:201C2500D012D013D014D015D016D017E8242EF582E93402F583E0F9B946028003021D750B
:201C4500740B2AF582E43BF58375190D751A00C017C016C015C014C013C01275D000124A02
:201C6500AF75D010A882A983D012D013D014D015D016D017E8242EF582E93402F583E0F989
:201C8500B942028003021D75740A2AF582E43BF58375190D751A00C017C016C015C014C035
:201CA50013C01275D000124AAF75D010A882A983D012D013D014D015D016D017E8242EF5B5
:201CC50082E93402F583E0F9B950028003021D7574092AF582E43BF58375190D751A00C04C
:201CE50017C016C015C014C013C01275D000124AAF75D010A882A983D012D013D014D0151B
:201D0500D016D017E8242EF582E93402F583E0F9B9435D74082AF582E43BF58375190D75B3
:201D25001A00C017C016C015C01475D000124AAF75D010AA82AB83D014D015D016D017EAAF
:201D4500242EF582EB3402F583E0FBBB2B229000BDE0FB24F650099000BD740BF002284A6E
:201D6500D20390022C7408F0C21575360002284AEC7003021EC58F137C00740C2BF582E401
:201D85003CF58375190D8C1AC017C016C015C014C01375D000124AAF75D010A982AA83D053
:201DA50013D014D015D016D017E9242EF582EA3402F583E0FABA49028003021EC5740B2B3A
:201DC500F582E43CF58375190D751A00C017C016C015C014C01375D000124AAF75D010A94E
:201DE50082AA83D013D014D015D016D017E9242EF582EA3402F583E0FABA54028003021EDF
:201E0500C5740A2BF582E43CF58375190D751A00C017C016C015C014C01375D000124AAF9D
:201E250075D010A982AA83D013D014D015D016D017E9242EF582EA3402F583E0FABA4D024A
:201E45008003021EC574092BF582E43CF58375190D751A00C017C016C015C014C01375D0C6
:201E650000124AAF75D010A982AA83D013D014D015D016D017E9242EF582EA3402F583E002
:201E8500FABA433C74082BF582E43CF58375190D751A00C017C016C01575D000124AAF75E3
:201EA500D010AB82AC83D015D016D017EB242EF582EC3402F583E0FCBC2B05D21302284AC0
:201EC500E4BE200104FC70030220748F127B00740C2AF582E43BF58375190D8B1AC017C086
:201EE50016C015C014C013C01275D000124AAF75D010A882A983D012D013D014D015D0160A
:201F0500D017E8242EF582E93402F583E0F9B93A028003022074740B2AF582E43BF583757A
:201F2500190D751A00C017C016C015C014C013C01275D000124AAF75D010A882A983D0120F
:201F4500D013D014D015D016D017E8242EF582E93402F583E0F9B94C028003022074740A44
:201F65002AF582E43BF58375190D751A00C017C016C015C014C013C01275D000124AAF753A
:201F8500D010A882A983D012D013D014D015D016D017E8242EF582E93402F583E0F9B9478A
:201FA50002800302207474092AF582E43BF58375190D751A00C017C016C015C014C013C039
:201FC5001275D000124AAF75D010A882A983D012D013D014D015D016D017E8242EF582E9FA
:201FE5003402F583E0F9B94D02800302207474082AF582E43BF58375190D751A00C017C0BF
:2020050016C015C014C013C01275D000124AAF75D010A882A983D012D013D014D015D016E8
:20202500D017E8242EF582E93402F583E0F9B9433E74072AF582E43BF58375190D751A007C
:20204500C017C016C015C01475D000124AAF75D010AA82AB83D014D015D016D017EA242E54
:20206500F582EB3402F583E0FBBB2B03022208EC70030222558F137C00740C2BF582E43C23
:20208500F58375190D8C1AC017C016C015C014C01375D000124AAF75D010A982AA83D01379
:2020A500D014D015D016D017E9242EF582EA3402F583E0FABA3A028003022255740B2BF5D0
:2020C50082E43CF58375190D751A00C017C016C015C014C01375D000124AAF75D010A982BE
:2020E500AA83D013D014D015D016D017E9242EF582EA3402F583E0FABA5002800302225509
:20210500740A2BF582E43CF58375190D751A00C017C016C015C014C01375D000124AAF75EA
:20212500D010A982AA83D013D014D015D016D017E9242EF582EA3402F583E0FABA49028040
:202145000302225574092BF582E43CF58375190D751A00C017C016C015C014C01375D000AF
:20216500124AAF75D010A982AA83D013D014D015D016D017E9242EF582EA3402F583E0FA05
:20218500BA4C02800302225574082BF582E43CF58375190D751A00C017C016C015C014C040
:2021A5001375D000124AAF75D010A982AA83D013D014D015D016D017E9242EF582EA3402BF
:2021C500F583E0FABA4302800302225574072BF582E43CF58375190D751A00C017C016C061
:2021E5001575D000124AAF75D010AB82AC83D015D016D017EB242EF582EC3402F583E0FCE8
:20220500BC2B4D8F137C0074092BF582E43CF58375190D8C1A75D000124AAF75D010AB829D
:20222500AC83EB242EF582EC3402F583E0FCBC4C03D38001C3920B400630110302284AC2C1
:202245000FC20CC20DC20E90022C7403F002284ABE4B0280030222E68F137C00740C2BF50E
:2022650082E43CF58375190D8C1AC017C016C01575D000124AAF75D010AB82AC83D015D0C6
:2022850016D017EB242EF582EC3402F583E0FCBC4F4FBD0203753900A230B3922FC23030E0
:2022A5000323AC397D001CBCFF011DEC241EFCED3400FD8C828D83E0240AFB8C828D83F01F
:2022C500C215753900E539700302284A753900904F0875F08075D00012028775D010022896
:2022E5004ABE5402800302284A8F147D00740C2CF582E43DF58375190D8D1AC015C0147548
:20230500D000124AAF75D010AA82AB83D014D015EA242EF582EB3402F583E0FBBB4F0280B2
:202325000302284A740B2CF582E43DF58375190D751A0075D000124AAF75D010AC82AD8339
:20234500EC242EF582ED3402F583E0FDBD4E02800302284AD23002284A200F03022441E553
:2023650039704D740DB59902800302284A300B07D2027538020537200B1290021BE0FDBD15
:20238500020A90021CE0FDBD02004004C2368002D236A2369212200B06300C0B201208905E
:2023A500022CE4F002284A90022C7405F002284A740AB539607422B5995B9000017430F0D7
:2023C50090000BE4F090000275F00075D000120B4675D010E582FDB40100920CED600A90F7
:2023E500000CE0FCBC4D028004C2368002D236A236920EED600F90000CE0FDBD6D028009DD
:20240500BD4D028004C2368002D236A236920D75390002284A74F62539400EE5392401F5BE
:2024250082E43400F583E599F0E53924F55008753900D20C02284A053902284A300B3CBEA1
:2024450030398F147D00740C2CF582E43DF58375190D8D1AC017C01675D000124AAF75D0AE
:2024650010AC82AD83D016D017EC242EF582ED3402F583E0FDBD220302251CBE3402800353
:202485000225218F147D00740C2CF582E43DF58375190D8D1AC015C01475D000124AAF7563
:2024A500D010AA82AB83D014D015EA242EF582EB3402F583E0FBBB3863740B2CF582E43D54
:2024C500F58375190D751A00C015C01475D000124AAF75D010AA82AB83D014D015EA242EA8
:2024E500F582EB3402F583E0FBBB2B30740A2CF582E43DF58375190D751A0075D000124A51
:20250500AF75D010AC82AD83EC242EF582ED3402F583E0FDBD2205D20F753901740DB599E4
:2025250002800302284A90022CE4F075DB4902284A301043743BB599028021740DB599020A
:20254500801A746025394014AD390539ED241EF582E43400F583E599F002284AE539241EBA
:20256500F582E43400F583E4F0F539C21090022CE4F0D21102284A300E0302267E30120366
:2025850002267EBE2C02800302267A8F147D00740C2CF582E43DF58375190D8D1AC015C0CC
:2025A5001475D000124AAF75D010AA82AB83D014D015EA242EF582EB3402F583E0FB90F093
:2025C50003E493FAEBB51202800302267A740B2CF582E43DF58375190D751A00C015C0141B
:2025E50075D000124AAF75D010AA82AB83D014D015EA242EF582EB3402F583E0FB90F00265
:20260500E493FAEBB5126E740A2CF582E43DF58375190D751A00C015C01475D000124AAF47
:2026250075D010AA82AB83D014D015EA242EF582EB3402F583E0FB90F001E493FAEBB51252
:202645003474092CF582E43DF58375190D751A0075D000124AAF75D010AC82AD83EC242E1D
:20266500F582ED3402F583E0FD90F000E493FCEDB514028004C2368002D236A236921074C7
:202685000DB59902800302284A75390190022CE4F002284A743EB5990A90022CE4F0D22F8F
:2026A50002284ABE5202800302284A8F157E00740C2DF582E43EF58375190D8E1AC016C0DF
:2026C5001575D000124AAF75D010AB82AC83D015D016EB242EF582EC3402F583E0FCBC52DC
:2026E50002800302284A740B2DF582E43EF58375190D751A0075D000124AAF75D010AD8221
:20270500AE83ED242EF582EE3402F583E0FEBE4502800302284A900229E4F002284A7422BE
:20272500B5990280030227ADD2157E00740C2FF582E43EF58375190D8E1A75D000124AAF33
:2027450075D010AE82AF83EE242EF582EF3402F583E0FFBF2C21AE397F001EBEFF011FEE2F
:20276500241EFEEF3400FF8E828F83E02411FD8E828F83F002284AAE397F001EBEFF011FD7
:20278500EE241EFEEF3400FF8E828F83E0241BFD8E828F83F09000BDE0FF0F9000BDEFF02D
:2027A50090022CE4F002284AE59924D0400302284A20150FE53675F00AA4FFE599FE2F24A5
:2027C500D0F536AF390539EF241EF582E43400F583E599F002284AAF390539EF241EF582EB
:2027E500E43400F583E599F07422B5993690022DE0FF7E00740C2FF582E43EF58375190D45
:202805008E1A75D000124AAF75D010AE82AF83EE242EF582EF3402F583E0FFBF2C05853A22
:202825003980227422B5991DAE397F001EBEFF011FEE241EF582EF3400F583E4F0F5399082
:20284500022CF0D22F90022DE02401F0E0FF24F3500590022DE4F0C298D0D0D000D001D057
:2028650002D003D004D005D006D007D083D082D0F0D0E0D0283275513275524B7553807522
:202885004F0F755001904E0B75F080120F4790001EE4F012102A400122904F3E75F0801294
:2028A500028730A3067E317F0080047E307F008E82120238904F4975F08012028730A206F6
:2028C5007E317F0080047E307F008E82120238904F4E75F08012028730A1067E317F008086
:2028E500047E307F008E82120238904F5375F08012028730C2067E317F0080047E307F00BD
:202905008E821202387551FA75524D755380754F78755001904DB475F080020F47C2147F15
:2029250000EF241EFDE43400FE0F8D828E83E0600543C11080EBBFA000500FEF241EF582F5
:20294500E43400F5830FE4F080EC90001EE0FFBF3F02800890001FE0FEBE3F06200C0302BD
:202965001337BF4103022B0FBF4203022EFCBF4303022F96BF4403022C2BBF4703022F7FB5
:20298500BF4B03022B54BF4C03022DD6BF5003022BABBF52028044BF5803022C37BF61032E
:2029A500022B0FBF6203022EFCBF6303022F96BF6403022C2BBF6703022F7FBF6B03022BE8
:2029C50054BF6C03022DD6BF7003022BABBF72028009BF7803022C3702319B90001FE0FFAA
:2029E500BF31005003022A93EF24CB5003022A93300C030231A4EF24CFFF30A3067D017E14
:202A05000080047D007E0030A2067B027C0080047B007C00EB4DFE30A1067C047D00800458
:202A25007C007D00EC420630C2067C087D0080047C007D00EC4206900022E0FDBD460280A6
:202A450003BD66168F048CF005F07401800225E0D5F0FBF4FCEE52048026BD4E028003BD4E
:202A65006E128FF005F07401800225E0D5F0FBFF4EFC800C904F5875F0801212630231A452
:202A85008C821207871207AB12287B0231A4200D030231A4900020E0FF900022E0FEEFB569
:202AA500065ABF72028003BF5252300E4F904F6B75F080121263758200120CFB90020012A1
:202AC50000EE75180090032C1200D31201069000C87430F09000C7F09000C6F09000C5F0FB
:202AE5009000CBE4F09000CCF09000C904F012019E758200120787C2160231A4904F82753C
:202B0500F080121263C2A00231A4300C030231A4900023E0FFBF4E028003BF6E0F75820F04
:202B25001207871207AB12287B0231A4BF46028003BF660F7582001207871207AB12287BD2
:202B45000231A4904F5875F0801212630231A4200D030231A490001FE0FFBF50028003BF37
:202B65007038120106900022E0FFBF4E028003BF6E129000CBE04402F0904F9575F0801251
:202B8500126380109000CBE05401F0904FA475F08012126312019E0231A4904F5875F08018
:202BA5001212630231A4200D030231A4900022E0FFBF30004064EF24C6405F900023E0FF7D
:202BC500BF30004055EF24C64050900024E0FFBF30004046EF24C64041900025E0FFBF301E
:202BE500004037EF24C64032120106900022E09000C5F0900023E09000C6F0900024E09021
:202C050000C7F0900025E09000C8F012019E904FB175F0801212630231A4904F5875F0807B
:202C25001212630231A4200D030231A412116F0231A490001FE0FFBF6F028008BF4F0280EB
:202C450003022DCA200D030231A4900022E0FFBF30005003022DBEEF24C65003022DBE9003
:202C65000023E0FEBE30004005EE24C65006EE6003022DBE900024E0FDBD30004005ED24DB
:202C8500C65006ED6003022DBEBF30057C00022D23EE70098F03EB24D0FC022D23ED70137E
:202CA5008F03EB24D075F00AA4FB8E02EA2B24D0FC806B8E027B00EA24D0F519EB34FFF506
:202CC5001A90000AC007C006C005124A00AA82AB83D005D006D0078D007900E82AFAE93B7B
:202CE500FBEA24D0FAEB34FFFBC374329A74808BF063F08095F05011EF24FE500C904F5814
:202D050075F0801212630231A4EF24D075F064A4FFEE24D075F00AA42FFF2D24D0FCEC7080
:202D250003022DAD90F008E493FFC39C407A8C067F00EE24FFF519EF34FFF51A90000AC0DD
:202D450007C006C004124A00E5828583F0D004D006D0072409FBE435F0FDEB2409F582EDF7
:202D650034F0F583E493FDBD4D028030EE24FFF519EF34FFF51A90000AC004124A00E58211
:202D85008583F0D0042409FEE435F0FFEE2409F582EF34F0F583E493FFBF6D0C904FC87548
:202DA500F0801212630231A48C82120CFB904FE975F0801212630231A4904F5875F08012E0
:202DC50012630231A490500175F0801212630231A490001FE0FFBF75028008BF5502800399
:202DE500022EF0200D030231A4900022E0FFBF30005003022EE4EF24C65003022EE49000F0
:202E050023E0FFBF30005003022EE4EF24C65003022EE4900024E0FFBF30005003022EE42C
:202E2500EF24C65003022EE4900025E0FFBF30005003022EE4EF24C65003022EE49000266D
:202E4500E0FFBF30005003022EE4EF24C65003022EE4900027E0FFBF30005003022EE4EF1D
:202E650024C65003022EE4900028E0FFBF3000406EEF24C64069900029E0FFBF3000405F20
:202E8500EF24C6405A90002AE0FFBF30004050EF24C6404B90002BE0FFBF30004041EF2421
:202EA500C6403C90002CE4F090002DE0FFBF6D067E6D7F0080047E757F008E469000237511
:202EC500F000120C17500C90501475F0801212630231A490502D75F0801212630231A49055
:202EE500503D75F0801212630231A490500175F0801212630231A4900021E0FF6006900053
:202F050020E0700C300C030231A412287B0231A4200D030231A4BF42028012BF6202800D42
:202F2500900022E0FEBE6E028003BE4E181201069000C97401F012019E90505175F0801277
:202F450012630231A4BF5402800DBF74028008BE66028003BE461790505E75F08012126353
:202F65001201069000C9E4F012019E0231A490500175F0801212630231A4200D030231A453
:202F850090000BE4F090000175F0001210850231A490001FE0FFBF67028008BF4702800380
:202FA500023190200D030231A4900021E0FFBF30005003023185EF24C65003023185900044
:202FC50022E0FEBE30005003023185EE24C65003023185900023E0FDBD3000500302318588
:202FE500ED24C65003023185900024E0FCBC30005003023185EC24C65003023185900025CD
:20300500E0FBBB30005003023185EB24C65003023185900026E0FABA30005003023185EA8B
:2030250024C65003023185900027E0F9B930005003023185E924C65003023185900028E09C
:20304500F8B830005003023185E824C65003023185900029E0F554C394305003023185E54A
:203065005424C6500302318590002AE0F555C394305003023185E55524C65003023185EF6E
:2030850024D075F00AA42E24D0FFED24D075F00AA42C24D0FEEB24D075F00AA42A24D0FDE4
:2030A500E924D075F00AA42824D0FCE55424D075F00AA4255524D0FBEF24E84019EE24C430
:2030C5004014BD0100400FED24E0400ABC01004005EC24F3500C90506B75F0801212630235
:2030E50031A48F3D8E3C753B008D3F8C408B41854019751A00900017124A00751909751AB6
:2031050000124AE5AE82AF83AC3F7D00EC2EFEED3FFFE54024FD5013740355417D004DB428
:2031250001009237E433FC7D0080047C027D00EC2EFEED3FFFAC417D00EC2EFEED3FFF8C35
:20314500828D83A3A3A37519048D1AC007C006124AE5AC82AD83D006D007EC2EFEED3FFF9A
:203165008E828F83A3751907751A00124A1DE58204F53ED20590507D75F080121263801F0B
:2031850090506B75F080121263801490500175F0801212638009904F5875F0801212634323
:2031A500C1107F00EF241EFDE43400FE8D828E83E0600FEF241EF582E43400F5830FE4F0EC
:2031C50080E22290021EE0FF90F000E4937D0024D0FEED34FFFD7C00EFB5065DECB50559D2
:2031E50090021FE0FF90F001E4937D0024D0FEED34FFFD7C00EFB50640ECB5053C900220BC
:20320500E0FF90F002E4937D0024D0FEED34FFFD7C00EFB50623ECB5051F900221E0FF9015
:20322500F003E4937D0024D0FEED34FFFD7C00EFB50606ECB505028004C2388002D238A213
:203245003822AF8290F008E4937003F582227E0090F008E493FDC3EE9D50668F047D008EB7
:20326500027B00EA2CFCEB3DFD90F008E493FB8B19751A008C828D83C007C006124AAFAC06
:20328500828C19751A0090000AC004124A00E5828583F0D004D006D0072409FBE435F0FDAB
:2032A500EB2409F582ED34F0F583E493FD600FBD4D02800ABD6D028005EC04F582220E80B0
:2032C5008F75820022201801227F009001F5E0035480FE9001F6E0030354C02EFE9001F7F7
:2032E500E0C42354E02EFE9001F8E0C454F02EF5569001F9E0C40354F8FE9001FAE025E0CD
:2033050025E02EFE9001FBE025E02EFE9001FCE02EAD562DF5569001FDE0035480FE9001F0
:20332500FEE0030354C02EFE9001FFE0C42354E02EFE900200E0C454F02EF557900201E046
:20334500C40354F8FE900202E025E025E02EFE900203E025E02EFE900204E02EAD572DF53D
:2033650057301C3A900205E0C40354F8FE900206E025E025E02EFE900207E025E02EFE90FB
:203385000208E0FD2EF55890020AE0FE8E5A90020BE0FE8E5B90020CE0FE8E5C8018755835
:2033A5000090020BE0FE8E5A900207E0FE8E5B900205E0FE8E5C900209E0FE8E597582503F
:2033C500C007120238A21CE4332430F58212023875822D12023885568212024D855782124B
:2033E500024D85588212024D75822D120238AE5974302EF582120238AE5A74302EF582124A
:203405000238AE5B74302EF582120238AE5C74302EF58212023875822D1202389001F4E05B
:20342500FE7D0075190A8D1A8E828D83124AE5AD8274302DF5821202389001F4E0FE7D00C9
:2034450075190A8D1A8E828D83124AAFAD8274302DF58212023875822D120238D0077E0075
:20346500EF60030235EE90F32CE493FD7C0074022DFDE43CFC8E027B00C3EA9DEB64808CC5
:20348500F063F08095F040030235EEBE020040030235308A198B1A900003C007C006124A49
:2034A50000AC82AD83D006D0078C0274F22DFB8A828B83E493702574012CFAE43D24F2FBED
:2034C5008A828B83E493701474022CFCE43D24F2FD8C828D83E49370030235EA8E19751AA1
:2034E50000900003C007C006124A00AC82AD83D006D0078C8274F22DF583E493FBBBFF2BD0
:2035050074012CFAE43DFB8A8274F22BF583E493FBBBFF1774022CFCE43DFD8C8274F22D3A
:20352500F583E493FDBDFF030235EAAD568E037C008B198C1A900003C006C005C004C003BB
:20354500124A0085825D85835ED003D004D005D006855D8274F2255EF583E493FAEDB50214
:203565002E7401255DFAE4355EFD8A8274F22DF583E493FDB557187402255DFAE4355EFD9E
:203585008A8274F22DF583E493FDB558028004C23A8002D23AA23AE433FF6049BE020050D3
:2035A500068E0574022DFF75190A751A008B828C83C007C006C004C003124AE5AA82743063
:2035C5002AF582120238D003D00475190A751A008B828C83124AAFAC8274302CF58212027B
:2035E50038D006D0070E02346575822DC007120238D0078F0674302EF582C00712023875C4
:20360500822D120238D00790021BE0FEBE02028003023771EF600302376C20163612015291
:203625009000C5E556F09000C6E557F09000C7E558F01201DC7582801203F6758280120302
:203645009190508B75F0801204159005DC1202D702376C90021CE0FDE0600302373C90F392
:203665002CE493249E501290509C75F0801204159007D01202D702376C1201529001F1E034
:20368500FC8C19751A00900003124A00E5828583F02406FBE435F0FCEB24C5F582EC340012
:2036A500F583E556F09001F1E0FC8C19751A00900003124A00E5828583F02407FBE435F053
:2036C500FCEB24C5F582EC3400F583E557F09001F1E0FC8C19751A00900003124A00E582F2
:2036E5008583F02408FBE435F0FCEB24C5F582EC3400F583E558F09001F1E0FC0C9001F1A5
:20370500ECF01201DC7582801203F675828012039190508B75F0801204159005DC1202D763
:20372500120E9B504290F004E493603B9050AD75F0801212638030BD012D1201529000C850
:20374500E556F09000C9E557F09000CAE558F01201DC120E9B501090F004E49360099050DF
:20376500BC75F080121263C2190238E6BE06028003023869900019E060030238E690F32C7A
:20378500E49370030238E690001DE0FE90F32CE493FDC3EE9D40030238E6AD568E047E00A8
:2037A50074022CF519E43EF51A900003C006C005C004124A00AA82AB83D004D005D0068A82
:2037C5008274F22BF583E493FBEDB50368AD5774022CF519E43EF51A900003C006C005C017
:2037E50004124A00E5828583F0D004D005D0062401FAE435F0FB8A8274F22BF583E493FBDC
:20380500EDB50331AD5874022CF519E43EF51A900003C005124A00E5828583F0D0052402D9
:20382500FCE435F0FE8C8274F22EF583E493FEEDB506028004C2398002D2397582C012036F
:20384500913039067DD67E5080047DE77E507C808D828E838CF01204159003E81202D7D291
:20386500330238E6EF607A20047730A3067E017F0080047E007F0030A2067C027D008004DD
:203885007C007D00EC4EFF30A1067D047E0080047D007E00ED420730C2067D087E008004E7
:2038A5007D007E00ED4207D204E55A70088F05FE6305018D07E55C70088F05FE6305028D74
:2038C50007E55970088F05FE6305048D07E55B70088F05FE6305088D078F8212078712077C
:2038E500ABC217C218227593007594FF7592007591007595007596FF75B20075B10075B39D
:203905000275B41C75CA0075C90075C00075B0FF75A00075B881759700D2AF9000C4741E4F
:20392500F07537009000BF740AF09000C07402F09000C1F09000C2F09000C3F090021AF011
:20394500900218F09002197406F090021BE4F0C231900212E4F0900211F090021704F01285
:2039650001069000C9E024FE50069000C97401F09000CBE024FC50059000CBE4F09000CC91
:20398500E024F050059000CCE4F09000CDE024EB50059000CDE4F09000C5E0FFBF30004074
:2039A50032EF24C6402D9000C6E0FFBF30004023EF24C6401E9000C7E0FFBF30004014EF64
:2039C50024C6400F9000C8E0FFBF30004005EF24C650129000C87430F09000C7F09000C67A
:2039E500F09000C5F012019E9000CCE0F5821207871201529001F1E0249C50059001F1E447
:203A0500F01201DC90001B741EF09013881202D712022012076512047F20310E1213635001
:203A2500091213B312157412158C90021D743CF09000017430F090000BE4F0120E9B92160C
:203A450050099050F875F080121263101F0280031213B310060280031213B390021DE070C6
:203A65003B90021BE0603590021CE4F090021BF0900019F090001AF01203F0900221E4F006
:203A8500900220F090021FF090021EF0900225F0900224F0900223F0900222F01013028003
:203AA5002175513275524B755380754F0F755001904E0B75F080120F4790510D75F08012DA
:203AC5000287201103023B93201203023B93C211C21290021BE0FFBF02028003023B7B908E
:203AE500021CE0FFBF02004003023B7B90001EE0FFBF6C028003BF4C0F90001FE0FFBF75EF
:203B050002801FBF5502801A90001EE0FFBF73028003BF536190001FE0FFBF61028003BFA6
:203B2500415490000BE4F07F00EF240DFDE43400FEEF2401F582E43400F583E0FC8D828E36
:203B450083F00FBF0B0040E130161290021CE060067E757F00800A7E6D7F0080047E4D7F73
:203B650000900018EEF0A20C92019000197401F090021D743CF075511C7552517553807565
:203B85004F0F755001904F0875F080120F4730112990021BE0702312292275511C755251E7
:203BA500755380754F0F755001904F0875F080120F47C211758253120238900217E0700D7C
:203BC500E53D7009E53C24FA500375C76090021BE0FF24F9401CEF2F2F903BE273023BF771
:203BE500023D3A023E710245F20241A80247ED024416103303023C8575828012039130A3E7
:203C0500067E317F0080047E2D7F008E8212032F30A2067E327F0080047E2D7F008E821292
:203C2500032F30A1067E337F0080047E2D7F008E8212032F30C2067E347F0080047E2D7F6D
:203C4500008E8212032F75822012032F904B3275F080120415752D2D752E51752F80853DEA
:203C650030853C31853B32A22092007582C7120500854133854034853F357582C01206B197
:203C850090F006E49320E165900218E0705FC22290021D743CF090021CE4F030164990028D
:203CA5001B7401F07582801203F675828012039190512E75F08012041590021EE02430F5E8
:203CC5008212032F90021FE02430F58212032F900220E02430F58212032F900221E02430F1
:203CE500F58212032F800690021B7402F0102A02801D30A31130A20E30A10B30C208758201
:203D050000120787800675820F1207871207AB10260302493B90001AE4F090021B7405F0BB
:203D250090021D740FF07582801203F67582C01203F602493B90021CE02404F52975828047
:203D4500120304102203023DCE90021CE02401F0E0FFBF047490021CE4F01231C8502690B7
:203D6500021B7402F0900226E4F0900221F0900220F090021FF090021EF01203F07582802D
:203D85001203F68044900226E02401F0E0FF24FB502090021BE4F01201069000CBE0440219
:203DA500F012019E120E9B500990513375F08012126375828812039175825812032F90027F
:203DC50026E02430F58212032F102A02805090021CE0241EFFE43402FE8F828E83E0FD7C5B
:203DE500008D828C83A375190A8C1AC007C006124AAFAC82D006D0078F828E83ECF09002BC
:203E05001CE02484F58212039190021CE0241EF582E43402F583E02430F58212032F1026DE
:203E250002801590021CE0FFE06008EF1490021CF0800590021BE4F010330302493B752DFC
:203E45002D752E51752F80853D30853C31853B32A22092007582C712050085413385403427
:203E6500853F357582C01206B102493B900019E07003023F75758280120391900019E0FFE7
:203E8500BF01067E427F5180047E537F517D808E828F838DF01204157582C01203919000EE
:203EA5000D75F00012041590516475F080120415900019E0FFBF01028003023F49302264FE
:203EC500C226C22290021D743CF030010F900018E0F54690000E75F000120C177F00EF24F5
:203EE50001FDE43400FEEF240DF582E43400F583E08D828E83F00FBF0B0040E230160B90B6
:203F0500516B75F080121263800990517B75F080121263D2169000197402F07582C0120360
:203F2500F602493B10260302493B90021D743CF0900019E4F07582801203F67582C0120327
:203F4500F602493B202209202606202A0302493BC22AC226C22290021D743CF0900019E4E2
:203F6500F07582801203F67582C01203F602493B752D2D752E51752F80853D30853C318532
:203F85003B32A22092007582C7120500854133854034853F357582C01206B175828012038F
:203FA5009190021CE0FF24FA4061EF2F903FB573800A8022802B8034803D80463016067E32
:203FC500877F5180047E987F517D808E828F838DF012041580359051AA75F0801204158084
:203FE5002A9051BB75F080120415801F9051CC75F08012041580149051DD75F08012041528
:2040050080099051EE75F080120415102202801FC22690021CE0FF7E008F828E83A375191A
:20402500068E1A124AAFAE82AF8390021CEEF0102A02802490021CE0FFBF020050089002BC
:204045001D743CF08012BF050F90021CE4F090021BF07582801203F6202603024147900233
:204065001CE0FF24FE4003024147BF05004003024147C2267582801203F675828012039139
:2040850090021CE0FFBF0202800DBF0302801FBF0402802A02414790021B7404F0758200D6
:2040A500123247E58290001CF0D23302414790021B7406F090001DE4F0D233024147900225
:2040C5001B7403F090512E75F08012041590021EE02430F58212032F90021FE02430F5823F
:2040E50012032F900220E02430F58212032F900221E02430F58212032F75822012032F7564
:20410500822012032F75822012032F900222E02430F58212032F900223E02430F582120341
:204125002F900224E02430F58212032F900225E02430F58212032F75822012032F90021CF7
:20414500E4F0900219E0600302493B90021CE0FFBF0200400302493BC226120E9B5009906F
:2041650051FF75F080121263758200120CFB9002001200EE75180090032C1200D312010692
:204185009000C87430F09000C7F09000C6F09000C5F012019EC21690021CE4F090021BF0B4
:2041A50002493B900019E0700302424F758280120391900019E0FFBF01067E3A7F5280046D
:2041C5007E4B7F527D808E828F838DF01204157582C012039190000D75F00012041590520D
:2041E5005C75F080120415900019E0FFBF0102800302493B302233C226C22290021D743C4B
:20420500F090001CE0F582120CFB900019E4F0758200123247E58290001CF07582801203FF
:20422500F67582C01203F602493B10260302493B90021D743CF0900019E4F0758280120324
:20424500F67582C01203F602493B10330302435975828012039190001CE0701B9052657547
:20426500F0801204157582C012039190527675F08012041502435990528775F080120415C2
:2042850090001CE0FF7E0075190A8E1A8F828E83124AE5AE8274302EF58212032F90001C04
:2042A500E0FF7E0075190A8E1A8F828E83124AAFAE8274302EF58212032F75822012032F17
:2042C50090001CE07E0024FFF519EE34FFF51A90000A124A00E5828583F02409FEE435F0E5
:2042E500FFEE2409F582EF34F0F583E493F58212032F90528C75F0801204157582C0120321
:204305009175823012032F7F0090001CE07D0024FFF519ED34FFF51A90000AC007124A00F7
:20432500AD82AE83D0078F037C00EB2DFDEC3EFEED2409F582EE34F0F583E493F582C00726
:2043450012032FD0070FBF090040BE90516475F080120415102602801790021D743CF09065
:20436500001CE0F582123247E58290001CF0D233202A030243FD90001CE0607CC22A9002BD
:204385001D743CF090000D7430F07F008F060EEE3395E0FDEE240DFEED3400FD90001CE0AE
:2043A5007B0024FFF519EB34FFF51A90000AC007C006C005124A00AB82AC83D005D006D000
:2043C500078F017A00E92BFBEA3CFCEB2409F582EC34F0F583E4938E828D83F00FBF090021
:2043E50040AA900017E4F090001904F07582801203F67582C01203F610220302493B900225
:204405001B7402F090021CF07582801203F602493B900019E070030244AC75828012039165
:20442500900019E0FFBF01067E9B7F5280047EAC7F527D808E828F838DF01204157582C042
:204445001203919052BD75F080120415900019E0FFBF0102800302493B30222BC226C22266
:2044650090021D743CF090001DE0F582120D8D900019E4F090001DF07582801203F67582A5
:20448500C01203F602493B10260302493B90021D743CF0900019E4F07582801203F67582C2
:2044A500C01203F602493B10330302457975828012039190F32CE493701B9052CE75F0803D
:2044C5001204157582C012039190527675F0801204150245799052E075F0801204159000C5
:2044E5001DE0FF7E008F828E83A375190A8E1A124AE5AE8274302EF58212032F90001DE0AD
:20450500FF7E008F828E83A375190A8E1A124AAFAE8274302EF58212032F75822F12032FE2
:2045250090F32CE493FF7E0075190A8E1A8F828E83124AE5AE8274302EF58212032F90F3F0
:204545002CE493FF7E0075190A8E1A8F828E83124AAFAE8274302EF58212032F90525C7559
:20456500F0801204157582C01203919052E875F08012041530263890F32CE4936031C22637
:2045850090021D743CF090001DE0FF7E000FBF00010E90F32CE493FD8D19751A008F828EE9
:2045A50083124AAFAE82AF8390001DEEF0D233302A2190F32CE493601AC22A90021D743C10
:2045C500F09000197401F07582801203F67582C01203F610220302493B90021B7402F09036
:2045E500021C04F07582801203F602493B10220302468A90021CE02401F0E0FFBF04261218
:2046050031C8401390021CE4F075828812039175825812032F806E758288120391758220E5
:2046250012032F8060BF085D90021B7402F090021C23F0120106900222E024309000C5F013
:20464500900223E024309000C6F0900224E024309000C7F0900225E024309000C8F01201AF
:204665009E900221E4F0900220F090021FF090021EF0900225F0900224F0900223F09002A9
:2046850022F01203F0102A0302475B90021CE0FF2484FE7D007519048D1A8F828D83C0064D
:2046A500124AE5AD82D006ED75F003A42EF58212039190021CE0FFBF04005044EF241EFD59
:2046C500E43402FE8D828E83E0FC7B008C828B83A375190A8B1AC006C005124AAFAB82D0B7
:2046E50005D0068D828E83EBF090021CE0241EF582E43402F583E02430F58212032F805641
:204705001F1F1F1FEF3395E0FEEF2422FFEE3402FE8F828E83E0FD7C008D828C83A3751963
:204725000A8C1AC007C006124AAFAC82D006D0078F828E83ECF090021CE0FF1F1F1F1FEF5B
:204745003395E0FEEF2422F582EE3402F583E02430F58212032F102602802F90021B74026D
:20476500F090021C23F0900221E4F0900220F090021FF090021EF0900225F0900224F0903C
:204785000223F0900222F01203F090021CE0FF2404FE7D007519048D1A8F828D83C00612F4
:2047A5004AE5AD82D006ED75F003A42EF52975828012030410330302493B752D2D752E515C
:2047C500752F80853D30853C31853B32A22092007582C7120500854133854034853F357551
:2047E50082C01206B102493B1033030248987582801203919052F975F0801204157582C03C
:2048050012039175823112032F75823A12032F30A3067E317F0080047E307F008E8212032F
:204825002F75822012032F75823212032F75823A12032F30A2067E317F0080047E307F0050
:204845008E8212032F75822012032F75823312032F75823A12032F30A1067E317F00800438
:204865007E307F008E8212032F75822012032F75823412032F75823A12032F30C2067E31CC
:204885007F0080047E307F008E8212032F75822012032F90001AE025E025E02402F52975E7
:2048A50082C0120304102602801090001AE0FF0F74035FF090021D740FF0102A02805E90A6
:2048C500021D740FF030A3067E017F0080047E007F0030A2067C027D0080047C007D00ECAD
:2048E5004EFF30A1067D047E0080047D007E00ED420730C2067D087E0080047D007E00ED74
:20490500420790001AE0FE8EF005F07401800225E0D5F0FB6FF5821207871207AB10220214
:20492500801490021BE4F01203F07582801203F67582C01203F61232CA1002030249FA109C
:204945000B030249F790021BE0FFBF02028008BF030280030249F775513275524B75538050
:20496500754F0F755001904E0B75F080120F4790000BE4F0300C2430161290021CE0600648
:204985007E757F00800A7E6D7F0080047E4D7F008E4690000275F000120C177F00EF240D3F
:2049A500FDE43400FEEF2401F582E43400F583E08D828E83F00FBF0B0040E29000197402BA
:2049C500F030160B90516B75F080121263800990517B75F080121263301615120E9B501012
:1B49E50090F004E493600990530A75F080121263D21675DB4943C110023A50D9
:204B320052454C4159342076312E36004D612050696E204D61632044696E68203A203030E4
:204B520030300A436163206C656E6820636875207669657420484F41206861792074687508
:204B72006F6E67206465752064756F630A312E4C656E682062617420746869657420626946
:204B92000A707070702C626174202D2076692064753A20303030302C6261740A322E4C65F9
:204BB2006E68207461742074686965742062690A707070702C746174202D207669206475F7
:204BD2003A20303030302C7461740A332E4C656E68206B69656D20747261207472616E67D9
:204BF20020746861692074686965742062690A707070702C6B74202D2076692064753A2040
:204C1200303030302C6B740A342E4C656E68207468617920646F69206D612070696E3A20E3
:204C3200707070702C70696E2C787878780A7669206475203A20303030302C70696E2C3137
:204C5200323334200A5468617920646F69206D612070696E2074752030303030202D3E20A4
:204C7200313233340A352E4C656E682072657365742073696D2D67736D0A707070702C72DC
:204C9200732D2076692064753A20303030302C72730A362E4C656E68206C696574206B658C
:204CB2002064616E682062610A707070702C64622D2076692064753A20303030302C646257
:204CD2000A372E4C656E6820786F612064616E682062613A20707070702C786F612C78781C
:204CF200780A76643A20303030302C786F612C31352020786F6120736F206469656E207448
:204D1200686F6169207468752031350A76643A20303030302C786F612C30202020786F6173
:204D320020746F616E20626F2064616E682062610A382E4C656E68206C75752064616E68D8
:204D52002062613A20707070702C6C75752C787878787878787878780A76643A2030303018
:204D7200302C6C75752C303931323334353637380A6C757520736F206469656E2074686FA9
:204D9200616920303931323334353637382076616F2064616E6820626100202043434120DF
:204DB20020001A00544B3C31303030204B2042414F43414F0041542B434D47533D22002270
:204DD2000D0020202053454E44494E4720202000415444003B0D002020202043414C4C49E6
:204DF2004E4720202020200044414E47204755492042414F2043414F0041540D00204B4813
:204E12004F413D004F4E004F464600204755492048554F4E472044414E20200041542B435F
:204E320053504E3F0D002054454E204D414E47200041542B43545A553D310D002042415441
:204E5200204C41592047494F200041542B434F50533D320D002020204E474154204D414E24
:204E720047202020200041542B434F50533D300D002020202054494D204D414E47202020DD
:204E9200200041542B43434C4B3F0D00204C41592047494F20475053200041542B434C49F0
:204EB200503D310D00202053454E44494E4720434C495020200041542B434D47463D310DED
:204ED20000202053454E44494E4720434D474620200041542B434E4D493D312C312C302CC1
:204EF200302C310D00202053454E44494E4720434E4D4920200041542B434D47443D312CC2
:204F1200340D0020205448494554204C415020544E20200041542B4353510D0020534F4EBD
:204F320047200041542B434855500D000D52454C41592052313A002052323A002052333AD7
:204F5200002052343A000D4C656E68206B686F6E6720686F70206C65000D4B686F69207410
:204F7200616F206C6169207468696574206269000D72657365742067736D2073617520317F
:204F92003073000D4B686F612062616E207068696D000D4D6F2062616E207068696D000DB8
:204FB200446F69206D612070696E207468616E6820636F6E67000D4B686F6E67207468650F
:204FD20020786F6120736F204D61737465722071756120534D53000D586F612064616E685F
:204FF200206261207468616E6820636F6E67000D4C656E68204B686F6E6720486F70204C64
:2050120065000D7468656D2064616E68206261207468616E6820636F6E67000D42616E6741
:2050320020736F20646120646179000D536F206474206B686F6E6720686F70204C65000DD6
:205052004261742062616F2063616F000D5461742062616F2063616F000D47696F206B6888
:205072006F6E6720686F70206C65000D4461206368696E682067696F0020444120484F43A8
:205092002052454D4F54452120002048455420424F204E484F20484F4320000D72656D6F40
:2050B200746520646320686F63000D6D6F64756C652062616F20646F6E672064756F63202C
:2050D200686F63004F4B202D2044554E472052454D4F54450058202D204B484143205245D0
:2050F2004D4F544520000D486F702072656C6179206B686F6920646F6E670041542B434DF5
:20511200474C3D22414C4C220D00202044454C4554494E4720534D532020000050494E3A83
:20513200000D5361692070696E2035206C616E004C555520534F3F204D3A4F4B20423A58F0
:20515200004441204C555520534F3A20202020202000202020202020000D4C7575207468E7
:20517200616E6820636F6E67000D4C7575204D6173746572004348494E483A20202020200C
:205192002020202020004D41535445523A20202020202020202020005048553A2020202070
:2051B20020202020202020200020202020584F4120534F20202020202000202020584F41AB
:2051D2002052454D4F54452020200020202020444F49202050494E202020200020202020EE
:2051F200202045584954202020202020000D43414E482042414F3A207468696574206269E7
:20521200207675612052455345542028786F6120736F2B72656D6F7465292062616E672023
:205232006E75742062616D00584F4120534F204E41593F204D3A4F4B00444120584F4120D6
:20525200534F2020202020202000202020202020202000284B484F4E4720434F20534F297E
:20527200202020004D3A74686F617420202020202020202000534F2023002020423A746977
:205292006570202B3A786F6100584F412052454D4F5445204E41593F2000444120584F4192
:2052B2002052454D4F5445202020004D3A4F4B20423A48757920202020202000284B484FD3
:2052D2004E4720434F2052454D4F5445290052454D4F54452000423A74696570202B3A7849
:2052F2006F612020202000423A63686F6E202B3A6261742F746174000D4454206D6F6920CA
:0B53120064756F63206C757500142833
:06007000E478FFF6D8FD64
:20004E007902E94400601B7A0190531B783D75A002E493F2A308B8000205A0D9F4DAF275A9
:02006E00A0FFF1
:1D4A0000E5828519F0A4C582C0F0851AF0A4D0F025F0C5838519F0A42583F5832245
:204A1D00E519451A60467A01E51925E0F519E51A334012F51AE5829519E583951A40030ADE
:204A3D0080E6C3E51A13F51AE51913F519C3E5829519F5F0E583951A4005F58385F082C3A5
:0D4A5D00E51A13F51AE51913F519DAE1222F
:200076007800E84400600A790175A000E4F309D8FC783CE84402600C7903900001E4F0A347
:04009600D8FCD9FABF
:204A6A007A10E4FBFCE58225E0F582E58333F583EB33FBEC33FCEB9519F5F0EC951A40063E
:094A8A00FCABF0438201DADD22ED
:0D00410075815E124B1DE582600302003EDA
:1C4A930020F71430F6148883A88220F507E6A88375830022E280F7E49322E02232
:204AAF00C2D5E58330E70DD2D5E4C39582F582E49583F583E51A30E70BE4C39519F519E40C
:164ACF00951AF51A124A1D30D50BE4C39582F582E49583F58322BF
:204AE500C2D5E58330E70DD2D5E4C39582F582E49583F583E51A30E70DB2D5E4C39519F54A
:184B050019E4951AF51A124A6A30D50BE4C39582F582E49583F583223C
:044B1D00758200227B
:00000001FF
