:20009F0075C70075C50075C60075C38075C40043C11022AE82AF8375C78375C5018EC48F2C
:2000BF00C375C65A75C6A500AFC2C00712009FD0078F8222AE82AF8375C78375C5028EC447
:2000DF008FC38518C275C65A75C6A50002009FAE82AF8375C78375C5038EC48FC375C65AA3
:2000FF0075C6A50002009F43C1107ED17F00EE4F60141EBEFF011FEE24C5F582EF3400F56C
:20011F008374FFF080E8C3EE94D1EF9400501EEE24C5FCEF3400FD8E8274F02FF5830EBE91
:20013F0000010FE493FB8C828D83F080D99000000200EE43C1107ED17F00EE4F60141EBEC8
:20015F00FF011FEE24C5F582EF3400F58374FFF080E8C3EE942EEF9401501EEE24C5FCEF86
:20017F003400FD8E8274F22FF5830EBE00010FE493FB8C828D83F080D99002000200EE7E5D
:20019F00007F00C3EE94D1EF9400503075C78375C5028EC48FC3EE24C5F582EF3400F58320
:2001BF000EBE00010FE0F5C275C65A75C6A500C007C00612009FD006D00780C7227E007FE7
:2001DF0000C3EE942EEF9401503675C78375C5028EC48E0474022FFD8DC3EE24C5F582EF75
:2001FF003400F5830EBE00010FE0F5C275C65A75C6A500C007C00612009FD006D00780C120
:01021F0022BC
:20022000759850438E40538EFE758BB2758DFFC2ABD28ED2ACD2A022E582FF700122C2998B
:200240008F9920990543C11080F8C29922E582FFC4540FFE53070FBE0A0050067C307D0074
:2002600080047C577D00EC2EF582C007120238D007BF0A0050067D307E0080047D577E000F
:20028000ED2FF582020238AD82AE83AFF0C2998D828E838FF0124DA8FC60218C992099052F
:1D02A00043C11080F8C2998D828E838FF0124DA8FCBC1A01220DBD00D60E80D3229C
:2002BD00AE82AF837C007D00C3EC9EED9F500A43C1100CBC00F20D80EF22AE82AF837C0049
:2002DD007D00C3EC9EED9F501D9003E8C007C006C005C0041202BDD004D005D006D0070C7A
:2002FD00BC00DF0D80DC22AF82E5294FF5821203CB75820D0203CBAF82302D118F8212033D
:20031D00CB852A82852B83852CF002044F8F82020430E582FF700122D285EFC4540124FFD9
:20033D009283EFA2E5E43324FF9282EF2323540124FF9281EF235401FE24FF9280D2840017
:20035D00C28400EF540124FF9283EF03540124FF9282EF03035401FE24FF9281EFA2E3E46A
:20037D0033FF24FF9280D28400C2849000641202BDC28522E582FFC4540FFE53070FBE0A73
:20039D000050067C307D0080047C577D00EC2EF582C00712032FD007BF0A0050067D307E30
:2003BD000080047D577E00ED2FF58202032FE582FF700122C285EFC4540124FF9283EFA272
:2003DD00E5E43324FF9282EF2323540124FF9281EF235401FE24FF9280D28400C28400EFE8
:2003FD00540124FF9283EF03540124FF9282EF03035401FE24FF9281EFA2E3E433FF24FFAA
:20041D009280D28400C2849000640202BD75820C0203CBE582FF600E8F821203CB904E36B0
:20043D0075F08002044F7582011203CB9006400202BDAD82AE83AFF07C008D828E838FF0DC
:20045D00124DA8FB6055BC10005050BB80005025EB24E050200CEC601C0DBD00010E8B82F3
:20047D00C007C006C005C00412032FD004D005D006D00780C58D828E838FF0124DA8FBA326
:20049D00AD82AE838B82C007C006C005C0041203CBD004D005D006D007809F22C286903A33
:2004BD00981202BD75801C00C284900FA01202BDD28400C2849000A01202BDD28400C28416
:2004DD009000A01202BD75801400C2849003E81202BDD28400C2840075801100C2849000EB
:2004FD00281202BD75801000C2840075801300C2849000281202BD75801000C28400758084
:20051D001600C2849000281202BD75801000C2840075801800C2849003E80202BDAF82E5E9
:20053D003024E8500122E532240540030205F68F821203CB852D82852E83852FF012044F0B
:20055D0074F6253040067D207E00801DAB307C0075190A8C1A8B828C83124DFAAB82AC835B
:20057D0074302BFBFD3395E0FE8D8212032FAD307E0075190A8E1A8D828E83124DC4AD8291
:20059D0074302DF58212032FE532240350123000067D3A7E0080047D207E008D8212032FB5
:2005BD00AD317E0075190A8E1A8D828E83C006C005124DFAAB8274302BF58212032FD005F2
:2005DD00D00675190A751A008D828E83124DC4AD8274302DF58202032F8F821203CB852D70
:2005FD0082852E83852FF012044F74F6253040067E207F00801DAC307D0075190A8D1A8C3A
:20061D00828D83124DFAAC82AD8374302CFCFE3395E0FF8E8212032FAE307F0075190A8F2B
:20063D001A8E828F83124DC4AE8274302EF58212032F3000067E3A7F0080047E207F008EE5
:20065D008212032FAE317F0075190A8F1A8E828F83C007C006124DFAAC8274302CF5821289
:20067D00032FD006D00775190A751A008E828F83124DC4AE8274302EF58212032F3000061F
:20069D007E3A7F0080047E207F008E8212032FAE327F0075190A8F1A8E828F83C007C006C2
:2006BD00124DFAAC8274302CF58212032FD006D00775190A751A008E828F83124DC4AE82C2
:2006DD0074302EF58212032F75822002032F1203CBAE357F0075190A8F1A8E828F83C007B9
:2006FD00C006124DFAAC8274302CF58212032FD006D00775190A751A008E828F83124DC4EC
:20071D00AE8274302EF58212032FAE347F0075190A8F1A8E828F83C007C006124DFAAC8227
:20073D0074302CF58212032FD006D00775190A751A008E828F83124DC4AE8274302EF5827F
:20075D0012032FAE337F0075190A8F1A8E828F83C007C006124DFAAC8274302CF582120305
:20077D002FD006D00775190A751A008E828F83124DC4AE8274302EF58212032F758220023E
:02079D00032F28
:114E360020202020202020202020202020202020006B
:040000000200413287
:01000B0032C2
:0100130032BA
:01001B0032B2
:03002300021916A9
:01002B0032A2
:01003300329A
:03003B0002092B8C
:05009A00C23302003E2C
:03003E00023BF78B
:20079F0075FA0075EA0090021374A8F07461A3F090021574FAF0E4A3F075DA4975DB49D2D4
:2007BF00DE22E582FF540124FF92A3EF03540124FF92A2EF0303540124FF92A1EFA2E3E471
:2007DF003324FF92C22212010630A3067E017F0080047E007F0030A2067C027D0080047CEA
:2007FF00007D00EC4EFF30A1067D047E0080047D007E00ED420730C2067D087E0080047D9D
:20081F00007E00ED42079000CCEFF002019E43C110B220A220928720051990001BE0FFE0C0
:20083F006011EF1490001BF0E07008D20690001B74B4F0900212E0FFE06012EF149002121B
:20085F00F0E07009900212E4F0900211F0900218E0FFE06009302406EF14900218F09002CA
:20087F0019E0FFE06009302806EF14900219F090021AE0FFE06009302C06EF1490021AF047
:20089F0090021AE07002D22E900229E0FFE06006EF14900229F090022BE0FFE06006EF14C8
:2008BF0090022BF090021BE0600E90021DE0FFE06006EF1490021DF020A0139000BFE014E5
:2008DF00F0E0700AD2A09000BF740AF0D209053BE53B24C45035D21E753B00E5376006D5E1
:2008FF003803753700053CE53C24C4501E753C00D21F053DE53D24E85011753D009002176C
:20091F00E0FFE06006EF14900217F022C028C0E0C0F0C082C083C007C006C005C004C0033F
:20093F00C002C001C000C0D075D00843C11010D803020A5F900213E0FEA3E0FF8EEA8FFA08
:20095F0090021374A82EF074613FA3F030210930B5069002187402F030210330B504C2346A
:20097F008002D234A234922420230330B504C2348002D234A234922120220A20240320213A
:20099F0004C2348002D234A2349222A2B5922330250930B3069002197406F030250330B389
:2009BF0004C2348002D234A234922820270330B304C2348002D234A234922520260A202832
:2009DF0003202504C2348002D234A2349226A2B3922730290930B40690021A7402F03029DB
:2009FF000330B404C2348002D234A234922C202B0330B404C2348002D234A2349229202A4C
:200A1F000A202C03202904C2348002D234A234922AA2B4922B90023DE014F0E0700AD233DC
:200A3F0090023D740AF0B22D90023EE014F0E0700F90023E7428F075D00012082D75D00833
:200A5F0010D903020B63900215E0FEA3E0FF8EEB8FFB90021574FA2EF0E43FA3F0301803DD
:200A7F00020B639001F3E0FF04F0EF7006D219C204C21830B63990020FE070243017219074
:200A9F000210E0FF24FD5018BF070050139001F4E0FF04F0EF24F5F582E43401F583E4F058
:200ABF0090020FE02401F0900210E4F0020B44900210E0706430174690020FE0FF24FD50E6
:200ADF003DBF07005038201C1F9001F4E0FF30E0171FEF3395E0FEEF24F5FFEE3401FE8F1B
:200AFF00828E83E07002D21C9001F4E0FF04F0EF24F5F582E43401F5837401F0801B90020A
:200B1F000FE0FF24E350129001F37401F0301909D2179001F4E4F0C21C900210E02401F06D
:200B3F0090020FE4F030170C9001F4E0FFBF1804D21880109001F4E0FF24E750079001F4CA
:200B5F00E4F0C217D0D0D000D001D002D003D004D005D006D007D083D082D0F0D0E0D02880
:200B7F003285824285834385F0447C007B0090F008E493FAC3EB9A4003020C4D75450179CD
:200B9F00008B19751A0090000AC004C003C001124D15A882AA83D001D003D00489067F00D0
:200BBF00EE28F8EF3AFAE82409F582EA34F0F583E493FFE92542FAE43543FDAE448A828D2F
:200BDF00838EF0124DA8FAEFB502028005754500800609B9090040A9E545604C8B19751ACA
:200BFF000090000AC004C003124D15AE82AF83D003D00474092EFAE43FFDEA2409FAED3441
:200C1F00F0FD8A828D83E493601E74092EFEE43FFFEE2409F582EF34F0F583E49390000CBC
:200C3F00F08C07EF04F582220B8B04020B8D7582002285824785834885F04990F008E493DE
:200C5F00F54A7B00C3EB954A502E8B19751A0090000AC003124D15E5828583F0D00324094D
:200C7F00F9E435F0FAE92409F9EA34F0FA89828A83E49360030B80CCEBFAB54A047401801C
:200C9F0001E4FB600874EC254A5002C322C003C002120106D002D00379008A19751A009069
:200CBF00000AC003C002C001124D1585824B85834CD001D002D0037409254BF8E4354CFFEC
:200CDF0089057E00ED28F8EE3FFFE824C5F8EF3400FFE92547FCE43548FDAE498C828D8301
:200CFF008EF0124DA888828F83F009B9090040AA7412254BFEE4354CFFEE24C5F582EF34C6
:200D1F0000F583E546F0EB6008AC4A0C9000CDECF012019ED322AF82C007120106D007EF16
:200D3F00702AFDFE74092DFBE43EFCEB24C5F582EC3400F583E4F00DBD00010EC3ED94C8A0
:200D5F00EE940040DF9000CDE4F080599000CDE0FEC39F40507D007E008F037C00EB24FF85
:200D7F00F519EC34FFF51A90000AC007C006C005124D15E5828583F0D005D006D0072409AA
:200D9F00FBE435F0FCED2BFBEE3CFCEB24C5F582EC3400F583E4F00DBD00010EC3ED940A1D
:200DBF00EE940040B402019EAF82C007120152D0078F4DAD4D7E000DBD00010E9001F1E03A
:200DDF00FCFA7B00C3ED9AEE64808BF063F08095F04003020E807E008E037D00A94D7A00C5
:200DFF00740229F519E43AF51A900003C006C005C003C002C001124D15A882AF83D001D025
:200E1F0002D003D005D006E82BF8EF3DFFE824C5F8EF3400FF740329F519E43AF51A9000A7
:200E3F0003C007C006C005C003C000124D15A982AA83D000D003D005D006D007E92BFBEAD1
:200E5F003DFDEB24C5F582ED3400F583E0FD88828F83F00EBE03005003020DF7054D020DE3
:200E7F00D2EC604F7F008F057E009001F1E0FC7B0074012CF519E43BF51A900003C007C085
:200E9F0006C005124D15AB82AC83D005D006D007EB2DFDEC3EFEED24C5F582EE3400F583F2
:200EBF00E4F00FBF030040BE9001F1E0FF1F9001F1EFF00201DC7F007E0090F008E493FDB7
:200EDF00C3EE9D4003020F7F8E19751A0090000AC007C006124D15E5828583F0D006D007F5
:200EFF002409FCE435F0FDEC2409F582ED34F0F583E493FDBD6D028003BD4D5E90000174FB
:200F1F0030F0754E00AC4E0CEC3395E0FBEC2401FCEB3400FB8F19751A0090000AC007C0BB
:200F3F0004C003124D15A982AA83D003D004D007A84E7D00E829F9ED3AFAE92409F582EA6C
:200F5F0034F0F583E4938C828B83F0054E74F7254E50B290000BE4F0D3220E8E07020ED930
:200F7F00C322AD82AE83AFF0AC5090022AECF0854FF0ECA4FB90022B740A2BF0C22F8D8235
:200F9F008E838FF0C007C006C005C004120287D004D005D006D007AB4F302F030210569047
:200FBF00022BE0700302105630310302105643C110C233758280C007C006C005C004C00305
:200FDF001203CB8551828552838553F012044F752DC1752E50752F80853D30853C31853B15
:200FFF0032A22092007582C012053AD003D004D005D006D007102E028002C322900229E0D9
:20101F006003303294C2328B021BEA602A900229ECF090022AECF08D828E838FF0C007C0F3
:20103F0006C005C004C003120287D003D004D005D006D007020FB875828012043090022C37
:20105F00E4F0A22F2290001EE06020900021E0701A7551CB755250755380754F0375500104
:20107F009050C975F080120F81C32290000BE4F09050DC75F08012028790000175F0001289
:20109F00028790022C7409F07551E9755250755380754F0575503D9050E675F080020F8167
:2010BF00AD82AE83AFF09050F775F080C007C006C005120287D005D006D0078D828E838F38
:2010DF00F01202877551FE755250755380754F0175503C9050FB75F080020F81AF82BF0A31
:2010FF0000500A8F0674302EF582020238BF640050398F057E0075190A8E1A8D828E83C07F
:20111F0006C005124DFAAB8274302BF582120238D005D00675190A751A008D828E83124D7C
:20113F00C4AD8274302DF5820202387E007519648E1A8F828E83C007C006124DFAAC827457
:20115F00302CF582120238D006D00775190A751A008F828E83C007C006124DFA75190A7568
:20117F001A00124DC4AC8274302CF582120238D006D00775190A751A008F828E83124DC439
:20119F00AE8274302EF58202023890001EE4F01210644001227F0090F008E493FEC3EF9E44
:2011BF0040030212858F19751A0090000AC007124D15E5828583F0D0072409FDE435F0FEC1
:2011DF00ED2409FDEE34F0FE8D828E83E49370030212818F06EE04F582C0071210FB758251
:2011FF002E120238758230120238D0077E008F19751A0090000AC007C006124D15AC82ADE1
:20121F0083D0068E027B00EA2CFAEB3DFBEA2409F582EB34F0F583E493F582C006C005C0CA
:20123F0004120238D004D005D006D0070EBE090040BC75822CC007C005C004120238D00485
:20125F00D00574092CFCE43DFDEC2409F582ED34F0F583E493F58212023875820D12023834
:20127F00D0070F0211B675510F755251755380754F327550019050C975F080020F81AD8260
:20129F00AE83AFF075514775524E755380754F0F75500190512075F080C007C006C0051212
:2012BF000F8190001EE4F0121064D005D006D00740012290512475F080C007C006C0051244
:2012DF000287D005D006D00790F006E49360067B2B7C5180047B2E7C517A808B828C838A74
:2012FF00F0C007C006C005120287D005D006D0078D828E838FF0C007C006C005120287D014
:20131F0005D006D0070DBD00010E8D828E838FF0124DA8FDBD2A099050C975F08002028777
:20133F0075510F755251755380754F787550019050C975F080020F8185825585835685F008
:20135F00577582801204307582801203CB3035067B327C5180047B437C517A808B828C83F9
:20137F008AF012044F7582C01203CBE554700B90515475F08012044F804F74FFB5540B90BF
:20139F00515875F08012044F803F75822312032FAB547C0075190A8C1A8B828C83C004C0C5
:2013BF0003124DFAA982743029F58212032FD003D00475190A751A008B828C83124DC4AB47
:2013DF008274302BF58212032F75822012032F90515C75F08012044F85558285568385576A
:2013FF00F0124DA8F58212039174012555FAE43556FBAC578A828B838CF0124DA8F582C090
:20141F0004C003C00212039174022555F558E43556F55985575A855882855983855AF012AD
:20143F004DA8F58212039190516075F08012044F9007081202D77582801204307582C012E0
:20145F000430D002D003D00430350122C004C003C002120ED5D002D003D00440012290F09E
:20147F0004E49370012275514775524E755380754F0F75500190512075F080C004C003C00F
:20149F0002120F8190001EE4F0121064D002D003D00440012290512475F080C004C003C074
:2014BF0002120287D002D003D00490F006E4936006782B79518004782E79517F80888289A1
:2014DF00838FF0C004C003C00212028790516475F080120287D002D003D004E55470189078
:2014FF00517475F080C004C003C002120287D002D003D00402159574FFB5541790517D75B4
:20151F00F080C004C003C002120287D002D003D0048063758223C004C003C002120238D07D
:20153F0002D003D004AE547F0075190A8F1A8E828F83C007C006C004C003C002124DFAA927
:20155F0082743029F582120238D002D003D004D006D00775190A751A008E828F83C004C067
:20157F0003C002124DC4AE8274302EF582120238D002D003D00490518675F080C004C00353
:20159F00C0021202878555828556838557F0124DA8F58212024DD002D003D0048A828B83D7
:2015BF008CF0124DA8F58212024D855882855983855AF0124DA8F58212024D75510F7552A7
:2015DF0051755380754F787550019050C975F080020F81AF82753900BFA100500FEF241E62
:2015FF00F582E43400F5830FE4F080EC2290001EE4F0121064400122904E5375F0801202BF
:20161F008775518B755251755380754F327550019050C975F080020F8175514775524E7500
:20163F005380754F0F75500190512075F080120F8150347582001215F275390090022C7423
:20165F000AF07551A6755251755380754F0F75500190519C75F080120F815009900022E01D
:20167F00FF900227F0D322C3227551BC755251755380754F197550029051B175F080120FAB
:20169F00814001227551D5755251755380754F0F7550019051CA75F080120F81400122908E
:2016BF00022C740CF07551F1755251755380754F0A75503C9051E675F080120F81400122D6
:2016DF009003E81202D77582001215F275390090022C7402F075510C755252755380754FAC
:2016FF000F75500190520275F080120F81400122900021E024D075F00AA4FF900022E02FD0
:20171F0024D0F541900024E024D075F00AA4FF900025E02F24D0F540900027E024D075F009
:20173F000AA4FF900028E02F24D0F53F90002AE024D075F00AA4FF90002BE02F24D0F53D5E
:20175F0090002DE024D075F00AA4FF90002EE02F24D0F53C900030E024D075F00AA4FF909F
:20177F000031E02F24D0F53B854019751A00900017124D15751909751A00124DFAAE82AF00
:20179F0083AC3F7D00EC2EFEED3FFFE54024FD5013740355417D004DB401009236E433FCEC
:2017BF007D0080047C027D00EC2EFEED3FFFAC417D00EC2EFEED3FFF8C828D83A3A3A375A2
:2017DF0019048D1AC007C006124DFAAC82AD83D006D007EC2EFEED3FFF8E828F83A375199F
:2017FF0007751A00124D32E58204F53EC3E54194189236402AE541249C92364022C3E54046
:20181F00940192364019E54024F392364011C3E53F940192364008E53F24E092365004C20C
:20183F00368002D236A236920522755125755252755380754F0F75500190521A75F0800270
:20185F000F81755141755252755380754F0F75500190523675F080120F8140030219147552
:20187F005165755252755380754F0F75500190525275F080120F81400302191475518375AE
:20189F005252755380754F0F75500190527675F080120F81505F90022C740EF075820012DD
:2018BF0015F275390075519C755252755380754F0F75500190529475F080120F81503490E7
:2018DF000228E4F07F00EF241EF582E43400F583E0FEBE2C02801CEF241EF582E43400F519
:2018FF00830FE024D0FE900228E0FD75F00AA42EF080D3D322C322C028C0E0C0F0C082C036
:20191F0083C007C006C005C004C003C002C001C000C0D075D010209803022B3343C1109065
:20193F00022AE0900229F090022DE0242EF582E43402F583E599F090022DE0FF242EF58202
:20195F00E43402F583E0FEBE4E028003021A9C8F147D00740C2CF582E43DF58375190D8DAB
:20197F001AC017C016C015C01475D000124DC475D010AA82AB83D014D015D016D017EA241D
:20199F002EF582EB3402F583E0FBBB49028003021A9C740B2CF582E43DF58375190D751AE9
:2019BF0000C017C016C015C01475D000124DC475D010AA82AB83D014D015D016D017EA24F7
:2019DF002EF582EB3402F583E0FBBB20028003021A9C740A2CF582E43DF58375190D751AD3
:2019FF0000C017C016C015C01475D000124DC475D010AA82AB83D014D015D016D017EA24B7
:201A1F002EF582EB3402F583E0FBBB547074092CF582E43DF58375190D751A00C017C0167F
:201A3F00C015C01475D000124DC475D010AA82AB83D014D015D016D017EA242EF582EB345F
:201A5F0002F583E0FBBB4F3574082CF582E43DF58375190D751A00C017C01675D000124DA0
:201A7F00C475D010AC82AD83D016D017EC242EF582ED3402F583E0FDBD4E02D23190022C08
:201A9F00E0FD24F05003022B1FED240A83F582ED241483F583E4738E1FC7331F0B1F1FF804
:201ABF006E24B8341FD6B11D2B1C262B282B2B29291C1C1B2B1A2AAC390539EC241EF582D4
:201ADF00E43400F583E599F07420B5993490022DE0FC7B00740C2CF582E43BF58375190D68
:201AFF008B1A75D000124DC475D010AB82AC83EB242EF582EC3402F583E0FCBC3A03753938
:201B1F0000742CB599028003022B1F90022CE4F0F539022B1F7456B5996E8F137C00740CB7
:201B3F002BF582E43CF58375190D8C1AC017C014C01375D000124DC475D010A982AA83D0A8
:201B5F0013D014D017E9242EF582EA3402F583E0FABA4534740B2BF582E43CF58375190DDD
:201B7F00751A00C01775D000124DC475D010AB82AC83D017EB242EF582EC3402F583E0FCB6
:201B9F00BC4705D22F022B1F7452B599028003022B1F8F137C00740C2BF582E43CF583759F
:201BBF00190D8C1AC014C01375D000124DC475D010A982AA83D013D014E9242EF582EA34E7
:201BDF0002F583E0FABA4F028003022B1F740B2BF582E43CF58375190D751A0075D000127E
:201BFF004DC475D010AB82AC83EB242EF582EC3402F583E0FCBC52028003022B1F90022940
:201C1F00E4F0022B1FAC390539EC241EF582E43400F583E599F07422B5993490022DE0FC0C
:201C3F007B00740C2CF582E43BF58375190D8B1A75D000124DC475D010AB82AC83EB242EBA
:201C5F00F582EC3402F583E0FCBC2003753900742CB599028003022B1F90022DE0FC7B0016
:201C7F00740C2CF582E43BF58375190D8B1A75D000124DC475D010AB82AC83EB242EF5827E
:201C9F00EC3402F583E0FCBC22028003022B1F90022CE4F0F539022B1F7431B5990280037C
:201CBF00022B1FD22F022B1FAC390539EC241EF582E43400F583E599F0744BB599679002A0
:201CDF002DE0FB7C00740C2BF582E43CF58375190D8C1AC014C01375D000124DC475D01002
:201CFF00A982AA83D013D014E9242EF582EA3402F583E0FABA4C2E740B2BF582E43CF58395
:201D1F0075190D751A0075D000124DC475D010AB82AC83EB242EF582EC3402F583E0FCBC7B
:201D3F004303753900740DB599028003022B1F90022DE0FC7B00740C2CF582E43BF58375AB
:201D5F00190D8B1A75D000124DC475D010AB82AC83EB242EF582EC3402F583E0FCBC220276
:201D7F008003022B1F90022CE4F0F539022B1F743EB599129050C975F08075D000120287E9
:201D9F0075D010022B1FBE47028003021E7F8F137C00740C2BF582E43CF58375190D8C1A41
:201DBF00C017C016C015C014C01375D000124DC475D010A982AA83D013D014D015D016D064
:201DDF0017E9242EF582EA3402F583E0FABA4E028003021E7F740B2BF582E43CF583751936
:201DFF000D751A00C017C016C015C014C01375D000124DC475D010A982AA83D013D014D053
:201E1F0015D016D017E9242EF582EA3402F583E0FABA494C740A2BF582E43CF58375190DFB
:201E3F00751A00C017C016C01575D000124DC475D010AB82AC83D015D016D017EB242EF575
:201E5F0082EC3402F583E0FCBC521575DB009052A375F08075D00012028775D010022B1F0D
:201E7F00E4BE3A0104FC700302204A8F127B00740C2AF582E43BF58375190D8B1AC017C0DC
:201E9F0016C015C014C013C01275D000124DC475D010A882A983D012D013D014D015D01638
:201EBF00D017E8242EF582E93402F583E0F9B952028048740C2AF582E43BF58375190D755E
:201EDF001A00C017C016C015C014C013C01275D000124DC475D010A882A983D012D013D026
:201EFF0014D015D016D017E8242EF582E93402F583E0F9B94602800302204A740B2AF582CC
:201F1F00E43BF58375190D751A00C017C016C015C014C013C01275D000124DC475D010A881
:201F3F0082A983D012D013D014D015D016D017E8242EF582E93402F583E0F9B942028003D8
:201F5F0002204A740A2AF582E43BF58375190D751A00C017C016C015C014C013C01275D0D6
:201F7F0000124DC475D010A882A983D012D013D014D015D016D017E8242EF582E93402F554
:201F9F0083E0F9B95002800302204A74092AF582E43BF58375190D751A00C017C016C0156B
:201FBF00C014C013C01275D000124DC475D010A882A983D012D013D014D015D016D017E833
:201FDF00242EF582E93402F583E0F9B9435D74082AF582E43BF58375190D751A00C017C0DB
:201FFF0016C015C01475D000124DC475D010AA82AB83D014D015D016D017EA242EF582EBB8
:20201F003402F583E0FBBB2B229000BDE0FB24F650099000BD740BF0022B1FD20390022CDA
:20203F007408F0C215753600022B1FEC700302219A8F137C00740C2BF582E43CF5837519C5
:20205F000D8C1AC017C016C015C014C01375D000124DC475D010A982AA83D013D014D015C4
:20207F00D016D017E9242EF582EA3402F583E0FABA4902800302219A740B2BF582E43CF5D5
:20209F008375190D751A00C017C016C015C014C01375D000124DC475D010A982AA83D01353
:2020BF00D014D015D016D017E9242EF582EA3402F583E0FABA5402800302219A740A2BF559
:2020DF0082E43CF58375190D751A00C017C016C015C014C01375D000124DC475D010A9828C
:2020FF00AA83D013D014D015D016D017E9242EF582EA3402F583E0FABA4D02800302219AAE
:20211F0074092BF582E43CF58375190D751A00C017C016C015C014C01375D000124DC475B9
:20213F00D010A982AA83D013D014D015D016D017E9242EF582EA3402F583E0FABA433C74FE
:20215F00082BF582E43CF58375190D751A00C017C016C01575D000124DC475D010AB82ACDC
:20217F0083D015D016D017EB242EF582EC3402F583E0FCBC2B05D213022B1FE4BE200104FD
:20219F00FC70030223498F127B00740C2AF582E43BF58375190D8B1AC017C016C015C014D9
:2021BF00C013C01275D000124DC475D010A882A983D012D013D014D015D016D017E8242EB3
:2021DF00F582E93402F583E0F9B93A028003022349740B2AF582E43BF58375190D751A0032
:2021FF00C017C016C015C014C013C01275D000124DC475D010A882A983D012D013D014D039
:20221F0015D016D017E8242EF582E93402F583E0F9B94C028003022349740A2AF582E43B66
:20223F00F58375190D751A00C017C016C015C014C013C01275D000124DC475D010A882A952
:20225F0083D012D013D014D015D016D017E8242EF582E93402F583E0F9B9470280030223B6
:20227F004974092AF582E43BF58375190D751A00C017C016C015C014C013C01275D00012C5
:20229F004DC475D010A882A983D012D013D014D015D016D017E8242EF582E93402F583E0E0
:2022BF00F9B94D02800302234974082AF582E43BF58375190D751A00C017C016C015C014D9
:2022DF00C013C01275D000124DC475D010A882A983D012D013D014D015D016D017E8242E92
:2022FF00F582E93402F583E0F9B9433E74072AF582E43BF58375190D751A00C017C016C054
:20231F0015C01475D000124DC475D010AA82AB83D014D015D016D017EA242EF582EB340234
:20233F00F583E0FBBB2B030224DDEC700302252A8F137C00740C2BF582E43CF58375190D1C
:20235F008C1AC017C016C015C014C01375D000124DC475D010A982AA83D013D014D015D0FE
:20237F0016D017E9242EF582EA3402F583E0FABA3A02800302252A740B2BF582E43CF5839A
:20239F0075190D751A00C017C016C015C014C01375D000124DC475D010A982AA83D013D003
:2023BF0014D015D016D017E9242EF582EA3402F583E0FABA5002800302252A740A2BF58214
:2023DF00E43CF58375190D751A00C017C016C015C014C01375D000124DC475D010A982AA61
:2023FF0083D013D014D015D016D017E9242EF582EA3402F583E0FABA4902800302252A7451
:20241F00092BF582E43CF58375190D751A00C017C016C015C014C01375D000124DC475D05A
:20243F0010A982AA83D013D014D015D016D017E9242EF582EA3402F583E0FABA4C028003ED
:20245F0002252A74082BF582E43CF58375190D751A00C017C016C015C014C01375D00012AC
:20247F004DC475D010A982AA83D013D014D015D016D017E9242EF582EA3402F583E0FABA28
:20249F004302800302252A74072BF582E43CF58375190D751A00C017C016C01575D000124C
:2024BF004DC475D010AB82AC83D015D016D017EB242EF582EC3402F583E0FCBC2B4D8F1389
:2024DF007C0074092BF582E43CF58375190D8C1A75D000124DC475D010AB82AC83EB242E13
:2024FF00F582EC3402F583E0FCBC4C03D38001C3920B4006301103022B1FC20FC20CC20DCD
:20251F00C20E90022C7403F0022B1FBE4B0280030225BB8F137C00740C2BF582E43CF58313
:20253F0075190D8C1AC017C016C01575D000124DC475D010AB82AC83D015D016D017EB24DF
:20255F002EF582EC3402F583E0FCBC4F4FBD0203753900A230B3922FC230300323AC397D87
:20257F00001CBCFF011DEC241EFCED3400FD8C828D83E0240AFB8C828D83F0C21575390045
:20259F00E5397003022B1F75390090527675F08075D00012028775D010022B1FBE5402803F
:2025BF0003022B1F8F147D00740C2CF582E43DF58375190D8D1AC015C01475D000124DC47E
:2025DF0075D010AA82AB83D014D015EA242EF582EB3402F583E0FBBB4F028003022B1F74EE
:2025FF000B2CF582E43DF58375190D751A0075D000124DC475D010AC82AD83EC242EF5827B
:20261F00ED3402F583E0FDBD4E028003022B1FD230022B1F200F03022716E539704D740D2C
:20263F00B599028003022B1F300B07D2027538020537200B1290021BE0FDBD020A90021C1D
:20265F00E0FDBD02004004C2378002D237A2379212200B06300C0B20120890022CE4F00234
:20267F002B1F90022C7405F0022B1F740AB539607422B5995B9000017430F090000BE4F0DF
:20269F0090000275F00075D000120B8075D010E582FDB40100920CED600A90000CE0FCBCAB
:2026BF004D028004C2378002D237A237920EED600F90000CE0FDBD6D028009BD4D02800411
:2026DF00C2378002D237A237920D753900022B1F74F62539400EE5392401F582E43400F508
:2026FF0083E599F0E53924F55008753900D20C022B1F0539022B1F300B3CBE30398F147D1B
:20271F0000740C2CF582E43DF58375190D8D1AC017C01675D000124DC475D010AC82AD83D4
:20273F00D016D017EC242EF582ED3402F583E0FDBD22030227F1BE340280030227F68F144B
:20275F007D00740C2CF582E43DF58375190D8D1AC015C01475D000124DC475D010AA82ABA2
:20277F0083D014D015EA242EF582EB3402F583E0FBBB3863740B2CF582E43DF58375190D1B
:20279F00751A00C015C01475D000124DC475D010AA82AB83D014D015EA242EF582EB34022E
:2027BF00F583E0FBBB2B30740A2CF582E43DF58375190D751A0075D000124DC475D010AC44
:2027DF0082AD83EC242EF582ED3402F583E0FDBD2205D20F753901740DB599028003022B06
:2027FF001F90022CE4F075DB49022B1F301043743BB599028021740DB59902801A7460259D
:20281F00394014AD390539ED241EF582E43400F583E599F0022B1FE539241EF582E4340009
:20283F00F583E4F0F539C21090022CE4F0D211022B1F300E03022953301203022953BE2C00
:20285F0002800302294F8F147D00740C2CF582E43DF58375190D8D1AC015C01475D000123C
:20287F004DC475D010AA82AB83D014D015EA242EF582EB3402F583E0FB90F003E493FAEBAA
:20289F00B51202800302294F740B2CF582E43DF58375190D751A00C015C01475D000124D21
:2028BF00C475D010AA82AB83D014D015EA242EF582EB3402F583E0FB90F002E493FAEBB503
:2028DF00126E740A2CF582E43DF58375190D751A00C015C01475D000124DC475D010AA82E3
:2028FF00AB83D014D015EA242EF582EB3402F583E0FB90F001E493FAEBB5123474092CF525
:20291F0082E43DF58375190D751A0075D000124DC475D010AC82AD83EC242EF582ED340260
:20293F00F583E0FD90F000E493FCEDB514028004C2378002D237A2379210740DB5990280A4
:20295F0003022B1F75390190022CE4F0022B1F743EB5990A90022CE4F0D22F022B1FBE5283
:20297F00028003022B1F8F157E00740C2DF582E43EF58375190D8E1AC016C01575D0001242
:20299F004DC475D010AB82AC83D015D016EB242EF582EC3402F583E0FCBC52028003022BA1
:2029BF001F740B2DF582E43EF58375190D751A0075D000124DC475D010AD82AE83ED242E96
:2029DF00F582EE3402F583E0FEBE45028003022B1F900229E4F0022B1F7422B599028003CF
:2029FF00022A82D2157E00740C2FF582E43EF58375190D8E1A75D000124DC475D010AE82B5
:202A1F00AF83EE242EF582EF3402F583E0FFBF2C21AE397F001EBEFF011FEE241EFEEF3474
:202A3F0000FF8E828F83E02411FD8E828F83F0022B1FAE397F001EBEFF011FEE241EFEEF68
:202A5F003400FF8E828F83E0241BFD8E828F83F09000BDE0FF0F9000BDEFF090022CE4F0DB
:202A7F00022B1FE59924D04003022B1F20150FE53675F00AA4FFE599FE2F24D0F536AF39C7
:202A9F000539EF241EF582E43400F583E599F0022B1FAF390539EF241EF582E43400F58389
:202ABF00E599F07422B5993690022DE0FF7E00740C2FF582E43EF58375190D8E1A75D0000B
:202ADF00124DC475D010AE82AF83EE242EF582EF3402F583E0FFBF2C05853A3980227422AA
:202AFF00B5991DAE397F001EBEFF011FEE241EF582EF3400F583E4F0F53990022CF0D22FF8
:202B1F0090022DE02401F0E0FF24F3500590022DE4F0C298D0D0D000D001D002D003D004F0
:202B3F00D005D006D007D083D082D0F0D0E0D0283275514775524E755380754F0F755001B2
:202B5F0090512075F080120F8190001EE4F01210644001229052AC75F08012028730A3067C
:202B7F007E317F0080047E307F008E821202389052B775F08012028730A2067E317F00805C
:202B9F00047E307F008E821202389052BC75F08012028730A1067E317F0080047E307F00B5
:202BBF008E821202389052C175F08012028730C2067E317F0080047E307F008E8212023844
:202BDF0075510F755251755380754F787550019050C975F080020F81C2147F00EF241EFDFC
:202BFF00E43400FE0F8D828E83E0600543C11080EBBFA000500FEF241EF582E43400F583B7
:202C1F000FE4F080EC90001EE0FFBF3F02800890001FE0FEBE3F06200C0302160CBF41034B
:202C3F00022DE4BF42030231F3BF430302328DBF4403022F00BF4703023276BF4B03022E4B
:202C5F0029BF4C030230ABBF5003022E80BF52028044BF5803022F0CBF6103022DE4BF62FA
:202C7F00030231F3BF630302328DBF6403022F00BF6703023276BF6B03022E29BF6C030246
:202C9F0030ABBF7003022E80BF72028009BF7803022F0C02349290001FE0FFBF310050038C
:202CBF00022D68EF24CB5003022D68300C0302349BEF24CFFF30A3067D017E0080047D00CF
:202CDF007E0030A2067B027C0080047B007C00EB4DFE30A1067C047D0080047C007D00EC98
:202CFF00420630C2067C087D0080047C007D00EC4206900022E0FDBD46028003BD66168FE4
:202D1F00048CF005F07401800225E0D5F0FBF4FCEE52048026BD4E028003BD6E128FF00538
:202D3F00F07401800225E0D5F0FBFF4EFC800C9052C675F08012129D02349B8C821207C1EC
:202D5F001207E5122B5002349B200D0302349B900020E0FF900022E0FEEFB5065ABF7202A1
:202D7F008003BF5252300E4F9052D975F08012129D758200120D359002001200EE751800F6
:202D9F0090032C1200D31201069000C87430F09000C7F09000C6F09000C5F09000CBE4F06A
:202DBF009000CCF09000C904F012019E7582001207C1C21602349B9052F075F08012129DB8
:202DDF00C2A002349B300C0302349B900023E0FFBF4E028003BF6E0F75820F1207C1120738
:202DFF00E5122B5002349BBF46028003BF660F7582001207C11207E5122B5002349B9052A4
:202E1F00C675F08012129D02349B200D0302349B90001FE0FFBF50028003BF7038120106B3
:202E3F00900022E0FFBF4E028003BF6E129000CBE04402F090530375F08012129D801090F4
:202E5F0000CBE05401F090531275F08012129D12019E02349B9052C675F08012129D0234C2
:202E7F009B200D0302349B900022E0FFBF30004064EF24C6405F900023E0FFBF30004055E5
:202E9F00EF24C64050900024E0FFBF30004046EF24C64041900025E0FFBF30004037EF243B
:202EBF00C64032120106900022E09000C5F0900023E09000C6F0900024E09000C7F0900087
:202EDF0025E09000C8F012019E90531F75F08012129D02349B9052C675F08012129D0234D8
:202EFF009B200D0302349B1211A902349B90001FE0FFBF6F028008BF4F02800302309F20B0
:202F1F000D0302349B900022E0FFBF30005003023093EF24C65003023093900023E0FEBED9
:202F3F0030004005EE24C65006EE6003023093900024E0FDBD30004005ED24C65006ED607C
:202F5F0003023093BF30057C00022FF8EE70098F03EB24D0FC022FF8ED70138F03EB24D013
:202F7F0075F00AA4FB8E02EA2B24D0FC806B8E027B00EA24D0F519EB34FFF51A90000AC026
:202F9F0007C006C005124D15AA82AB83D005D006D0078D007900E82AFAE93BFBEA24D0FA27
:202FBF00EB34FFFBC374329A74808BF063F08095F05011EF24FE500C9052C675F080121290
:202FDF009D02349BEF24D075F064A4FFEE24D075F00AA42FFF2D24D0FCEC70030230829032
:202FFF00F008E493FFC39C407A8C067F00EE24FFF519EF34FFF51A90000AC007C006C004DF
:20301F00124D15E5828583F0D004D006D0072409FBE435F0FDEB2409F582ED34F0F583E413
:20303F0093FDBD4D028030EE24FFF519EF34FFF51A90000AC004124D15E5828583F0D004D0
:20305F002409FEE435F0FFEE2409F582EF34F0F583E493FFBF6D0C90533675F08012129D94
:20307F0002349B8C82120D3590535775F08012129D02349B9052C675F08012129D02349B2E
:20309F0090536F75F08012129D02349B90001FE0FFBF75028008BF550280030231E7200D1C
:2030BF000302349B900022E0FFBF300050030231DBEF24C650030231DB900023E0FFBF3081
:2030DF000050030231DBEF24C650030231DB900024E0FFBF300050030231DBEF24C6500327
:2030FF000231DB900025E0FFBF300050030231DBEF24C650030231DB900026E0FFBF300001
:20311F0050030231DBEF24C650030231DB900027E0FFBF300050030231DBEF24C6500302E1
:20313F0031DB900028E0FFBF300050030231DBEF24C650030231DB900029E0FFBF3000506C
:20315F00030231DBEF24C6407390002AE0FFBF30004069EF24C6406490002BE0FFBF30007C
:20317F00405AEF24C6405590002CE4F090002375F000120B80E582600C90538275F08012B4
:20319F00129D02349B90002DE0FFBF6D067E6D7F0080047E757F008E4690002375F0001264
:2031BF000C51500C90539E75F08012129D02349B9053B775F08012129D02349B9053C7750F
:2031DF00F08012129D02349B90536F75F08012129D02349B900021E0FF6006900020E0700F
:2031FF000C300C0302349B122B5002349B200D0302349BBF42028012BF6202800D9000223E
:20321F00E0FEBE6E028003BE4E181201069000C97401F012019E9053DB75F08012129D02EE
:20323F00349BBF5402800DBF74028008BE66028003BE46179053E875F08012129D120106F3
:20325F009000C9E4F012019E02349B90536F75F08012129D02349B200D0302349B90000B3B
:20327F00E4F090000175F0001210BF02349B90001FE0FFBF67028008BF470280030234872D
:20329F00200D0302349B900021E0FFBF3000500302347CEF24C6500302347C900022E0FE1C
:2032BF00BE3000500302347CEE24C6500302347C900023E0FDBD3000500302347CED24C6C6
:2032DF00500302347C900024E0FCBC3000500302347CEC24C6500302347C900025E0FBBB23
:2032FF003000500302347CEB24C6500302347C900026E0FABA3000500302347CEA24C650FD
:20331F000302347C900027E0F9B93000500302347CE924C6500302347C900028E0F8B8300B
:20333F0000500302347CE824C6500302347C900029E0F55BC39430500302347CE55B24C6F3
:20335F00500302347C90002AE0F55CC39430500302347CE55C24C6500302347CEF24D0754A
:20337F00F00AA42E24D0FFED24D075F00AA42C24D0FEEB24D075F00AA42A24D0FDE924D073
:20339F0075F00AA42824D0FCE55B24D075F00AA4255C24D0FBEF24E84019EE24C44014BDF1
:2033BF000100400FED24E0400ABC01004005EC24F3500C9053F575F08012129D02349B8F24
:2033DF003D8E3C753B008D3F8C408B41854019751A00900017124D15751909751A00124DA6
:2033FF00FAAE82AF83AC3F7D00EC2EFEED3FFFE54024FD5013740355417D004DB4010092E0
:20341F0038E433FC7D0080047C027D00EC2EFEED3FFFAC417D00EC2EFEED3FFF8C828D8338
:20343F00A3A3A37519048D1AC007C006124DFAAC82AD83D006D007EC2EFEED3FFF8E828F78
:20345F0083A3751907751A00124D32E58204F53ED20590540775F08012129D801F9053F5F5
:20347F0075F08012129D801490536F75F08012129D80099052C675F08012129D43C1107F91
:20349F0000EF241EFDE43400FE8D828E83E0600FEF241EF582E43400F5830FE4F080E222BB
:2034BF0090021EE0FF90F000E4937D0024D0FEED34FFFD7C00EFB5065DECB5055990021FA8
:2034DF00E0FF90F001E4937D0024D0FEED34FFFD7C00EFB50640ECB5053C900220E0FF9001
:2034FF00F002E4937D0024D0FEED34FFFD7C00EFB50623ECB5051F900221E0FF90F003E4B1
:20351F00937D0024D0FEED34FFFD7C00EFB50606ECB505028004C2398002D239A23922AFE1
:20353F008290F008E4937003F582227E0090F008E493FDC3EE9D50668F047D008E027B0046
:20355F00EA2CFCEB3DFD90F008E493FB8B19751A008C828D83C007C006124DC4AC828C1947
:20357F00751A0090000AC004124D15E5828583F0D004D006D0072409FBE435F0FDEB2409A5
:20359F00F582ED34F0F583E493FD600FBD4D02800ABD6D028005EC04F582220E808F758245
:2035BF000022201801227564007E009001F5E0035480FD9001F6E0030354C02DFD9001F7AB
:2035DF00E0C42354E02DFD9001F8E0C454F02DF55D9001F9E0C40354F8FD9001FAE025E0CD
:2035FF0025E02DFD9001FBE025E02DFD9001FCE02DAC5D2CF55D9001FDE0035480FD9001EE
:20361F00FEE0030354C02DFD9001FFE0C42354E02DFD900200E0C454F02DF55E900201E047
:20363F00C40354F8FD900202E025E025E02DFD900203E025E02DFD900204E02DAC5E2CF541
:20365F005E301C3A900205E0C40354F8FD900206E025E025E02DFD900207E025E02DFD90FC
:20367F000208E0FC2DF55F90020AE0FD8D6190020BE0FD8D6290020CE0FD8D638018755F1D
:20369F000090020BE0FD8D61900207E0FD8D62900205E0FD8D63900209E0FD8D607582502E
:2036BF00C006120238A21CE4332430F58212023875822D120238855D8212024D855E821241
:2036DF00024D855F8212024D75822D120238AD6074302DF582120238AD6174302DF582123C
:2036FF000238AD6274302DF582120238AD6374302DF58212023875822D1202389001F4E055
:20371F00FD7C0075190A8C1A8D828C83124DFAAC8274302CF5821202389001F4E0FD7C00BD
:20373F0075190A8C1A8D828C83124DC4AC8274302CF58212023875822D120238D0067D0067
:20375F00E56460030238FB90F32CE493FC7B0074022CFCE43BFB8D65756600C3E5659CE5B9
:20377F006664808BF063F08095F040030238FBBD0200400302383085651985661A9000038E
:20379F00C006C005124D15AB82AC83D005D0068B0274F22CFF8A828F83E493702574012B1C
:2037BF00FAE43C24F2FF8A828F83E493701474022BFBE43C24F2FC8B828C83E493700302CC
:2037DF0038F78D19751A00900003C006C005124D15AC82AF83D005D0068C8274F22FF583AE
:2037FF00E493FBBBFF2B74012CFAE43FFB8A8274F22BF583E493FBBBFF1774022CFCE43F81
:20381F00FF8C8274F22FF583E493FFBFFF030238F7AF5D8D037C008B198C1A900003C0074B
:20383F00C006C005C004C003124D15858265858366D003D004D005D006D00785658274F20E
:20385F002566F583E493FAEFB5022E74012565FAE43566FF8A8274F22FF583E493FFB55EE8
:20387F001874022565FAE43566FF8A8274F22FF583E493FFB55F028004C23B8002D23BA242
:20389F003BE433F5646051BD020050098D0774022FF56480058D07EF14FE75190A751A00C2
:2038BF008B828C83C006C005C004C003124DFAAA8274302AF582120238D003D00475190A66
:2038DF00751A008B828C83124DC4AC8274302CF582120238D005D0060D02375F75822DC006
:2038FF0006120238AF6474302FF58212023875822D120238D00690021BE0FFBF0202800396
:20391F00023A7CE5646003023A4C2016291201529000C5E55DF09000C6E55EF09000C7E58C
:20393F005FF01201DC755400C23590005D75F040121357023A7790021CE0FDE06003023A9F
:20395F001A90F32CE493249E501290541575F08012044F9007D01202D7023A7712015290A7
:20397F0001F1E0FC8C19751A00900003124D15E5828583F02406FBE435F0FCEB24C5F5824B
:20399F00EC3400F583E55DF09001F1E0FC8C19751A00900003124D15E5828583F02407FB20
:2039BF00E435F0FCEB24C5F582EC3400F583E55EF09001F1E0FC8C19751A00900003124D49
:2039DF0015E5828583F02408FBE435F0FCEB24C5F582EC3400F583E55FF09001F1E0FC0CA7
:2039FF009001F1ECF01201DC9001F1E0F554C23590005D75F040121357805DBD015A1201A3
:203A1F00529000C8E55DF09000C9E55EF09000CAE55FF01201DC120ED5503D90F004E49325
:203A3F00603690542675F08012129D802B7402B564067C007D0080137403B564067AFF7BCB
:203A5F000080048E027B008A048B058C54D23590005D75F040121357C219023BF2BF0602D4
:203A7F008003023B74900019E06003023BF290F32CE4937003023BF290001DE0FF90F32CD5
:203A9F00E493FEC3EF9E4003023BF2AE5D8F057F0074022DF519E43FF51A900003C007C0B5
:203ABF0006C005124D15AB82AC83D005D006D0078B8274F22CF583E493FCEEB50468AE5E25
:203ADF0074022DF519E43FF51A900003C007C006C005124D15E5828583F0D005D006D007AA
:203AFF002401FBE435F0FC8B8274F22CF583E493FCEEB50431AE5F74022DF519E43FF51A30
:203B1F00900003C006124D15E5828583F0D0062402FDE435F0FF8D8274F22FF583E493FFC7
:203B3F00EEB507028004C23A8002D23A7582C01203CB303A067E407F5480047E517F547D71
:203B5F00808E828F838DF012044F9003E81202D7D233023BF2E564607A20047730A3067E13
:203B7F00017F0080047E007F0030A2067C027D0080047C007D00EC4EFF30A1067D047E00C6
:203B9F0080047D007E00ED420730C2067D087E0080047D007E00ED4207D204E56170088F7E
:203BBF0005FE6305018D07E56370088F05FE6305028D07E56070088F05FE6305048D07E562
:203BDF006270088F05FE6305088D078F821207C11207E5C217C218227593007594FF759281
:203BFF00007591007595007596FF75B20075B10075B30275B41C75CA0075C90075C00075A9
:203C1F00B0FF75A00075B881759700D2AF9000C4741EF07537009000BF740AF09000C07483
:203C3F0002F09000C1F09000C2F09000C3F090021AF0900218F09002197406F090021BE4D1
:203C5F00F0C231900212E4F0900211F090021704F01201069000C9E024FE50069000C97423
:203C7F0001F09000CBE024FC50059000CBE4F09000CCE024F050059000CCE4F09000CDE043
:203C9F0024EB50059000CDE4F09000C5E0FFBF30004032EF24C6402D9000C6E0FFBF300071
:203CBF004023EF24C6401E9000C7E0FFBF30004014EF24C6400F9000C8E0FFBF300040053F
:203CDF00EF24C650129000C87430F09000C7F09000C6F09000C5F012019E9000CCE0F58268
:203CFF001207C11201529001F1E0249C50059001F1E4F01201DC90001B741EF09013881240
:203D1F0002D712022012079F1204B920310E121638500912168812184912186190021D7407
:203D3F003CF09000017430F090000BE4F0120ED59216500990546275F08012129D101F0291
:203D5F008003121688100602800312168890021DE0703B90021BE0603590021CE4F0900256
:203D7F001BF0900019F090001AF012042A900221E4F0900220F090021FF090021EF09002AA
:203D9F0025F0900224F0900223F0900222F0101302802175514775524E755380754F0F7588
:203DBF00500190512075F080120F8190547775F080120287201103023E9F201203023E9F09
:203DDF00C211C21290021BE0FFBF02028003023E8790021CE0FFBF02004003023E8790009C
:203DFF001EE0FFBF6C028003BF4C0F90001FE0FFBF7502801FBF5502801A90001EE0FFBF7E
:203E1F0073028003BF536190001FE0FFBF61028003BF415490000BE4F07F00EF240DFDE4A2
:203E3F003400FEEF2401F582E43400F583E0FC8D828E83F00FBF0B0040E130161290021C2A
:203E5F00E060067E757F00800A7E6D7F0080047E4D7F00900018EEF0A20C920190001974E5
:203E7F0001F090021D743CF0755186755254755380754F0F75500190527675F080120F81BC
:203E9F0030112990021BE07023122BF7755186755254755380754F0F75500190527675F040
:203EBF0080120F81C211758253120238900217E0700DE53D7009E53C24FA500375C76090F9
:203EDF00021BE0FF24F9401CEF2F2F903EEE73023F0302404602417D0249070244BD024BA4
:203EFF000202472B103303023F917582801203CB30A3067E317F0080047E2D7F008E8212E7
:203F1F00032F30A2067E327F0080047E2D7F008E8212032F30A1067E337F0080047E2D7F92
:203F3F00008E8212032F30C2067E347F0080047E2D7F008E8212032F75822012032F904EAA
:203F5F004775F08012044F752D97752E54752F80853D30853C31853B32A22092007582C775
:203F7F0012053A854133854034853F357582C01206EB90F006E49320E165900218E0705F70
:203F9F00C22290021D743CF090021CE4F030164990021B7401F07582801204307582801266
:203FBF0003CB90549875F08012044F90021EE02430F58212032F90021FE02430F58212033E
:203FDF002F900220E02430F58212032F900221E02430F58212032F800690021B7402F010A7
:203FFF002A02801D30A31130A20E30A10B30C2087582001207C1800675820F1207C11207EF
:20401F00E5102603024C5090001AE4F090021B7405F090021D740FF075828012043075825B
:20403F00C0120430024C5090021CE02404F5297582801203041022030240DA90021CE02456
:20405F0001F0E0FFBF047490021CE4F01234BF502690021B7402F0900226E4F0900221F0FB
:20407F00900220F090021FF090021EF012042A7582801204308044900226E02401F0E0FFF1
:20409F0024FB502090021BE4F01201069000CBE04402F012019E120ED5500990549D75F082
:2040BF008012129D7582881203CB75825812032F900226E02430F58212032F102A028050FB
:2040DF0090021CE0241EFFE43402FE8F828E83E0FD7C008D828C83A375190A8C1AC007C0D9
:2040FF0006124DC4AC82D006D0078F828E83ECF090021CE02484F5821203CB90021CE02460
:20411F001EF582E43402F583E02430F58212032F102602801590021CE0FFE06008EF149035
:20413F00021CF0800590021BE4F0103303024C50752D97752E54752F80853D30853C3185AB
:20415F003B32A22092007582C712053A854133854034853F357582C01206EB024C5090009D
:20417F0019E070030242817582801203CB900019E0FFBF01067EAC7F5480047EBD7F547D3E
:20419F00808E828F838DF012044F7582C01203CB90000D75F00012044F9054CE75F08012D5
:2041BF00044F900019E0FFBF01028003024255302264C226C22290021D743CF030010F9086
:2041DF000018E0F54690000E75F000120C517F00EF2401FDE43400FEEF240DF582E43400C6
:2041FF00F583E08D828E83F00FBF0B0040E230160B9054D575F08012129D80099054E575C6
:20421F00F08012129DD2169000197402F07582C0120430024C50102603024C5090021D74C2
:20423F003CF0900019E4F07582801204307582C0120430024C50202209202606202A030278
:20425F004C50C22AC226C22290021D743CF0900019E4F07582801204307582C01204300263
:20427F004C50752D97752E54752F80853D30853C31853B32A22092007582C712053A854130
:20429F0033854034853F357582C01206EB7582801203CB90021CE0FF24FA4061EF2F90428D
:2042BF00C173800A8022802B8034803D80463016067EF17F5480047E027F557D808E828F9B
:2042DF00838DF012044F803590551475F08012044F802A90552575F08012044F801F9055E0
:2042FF003675F08012044F801490554775F08012044F800990555875F08012044F102202D1
:20431F00801FC22690021CE0FF7E008F828E83A37519068E1A124DC4AE82AF8390021CEECA
:20433F00F0102A02802490021CE0FFBF0200500890021D743CF08012BF050F90021CE4F0B2
:20435F0090021BF075828012043020260302445C90021CE0FF24FE400302445CC226758286
:20437F00801204307582801203CB90021CE0FFBF0202801EBF03028030BF0402803BBF055B
:20439F0002800302445C90021CE4F090021BF002445C90021B7404F075820012353EE5821E
:2043BF0090001CF0D23302445C90021B7406F090001DE4F0D23302445C90021B7403F090B8
:2043DF00549875F08012044F90021EE02430F58212032F90021FE02430F58212032F9002B7
:2043FF0020E02430F58212032F900221E02430F58212032F75822012032F75822012032F37
:20441F0075822012032F900222E02430F58212032F900223E02430F58212032F900224E045
:20443F002430F58212032F900225E02430F58212032F75822012032F90021CE4F090021920
:20445F00E06003024C5090021CE0FFBF02004003024C50C226120ED5500990556975F080C4
:20447F0012129D758200120D359002001200EE75180090032C1200D31201069000C8743039
:20449F00F09000C7F09000C6F09000C5F012019EC21690021CE4F090021BF0024C50900065
:2044BF0019E070030245647582801203CB900019E0FFBF01067EA47F5580047EB57F557D23
:2044DF00808E828F838DF012044F7582C01203CB90000D75F00012044F9055C675F0801299
:2044FF00044F900019E0FFBF01028003024C50302233C226C22290021D743CF090001CE0B3
:20451F00F582120D35900019E4F075820012353EE58290001CF07582801204307582C0122F
:20453F000430024C50102603024C5090021D743CF0900019E4F07582801204307582C01261
:20455F000430024C5010330302466E7582801203CB90001CE0701B9055CF75F08012044F02
:20457F007582C01203CB9055E075F08012044F02466E9055F175F08012044F90001CE0FF15
:20459F007E0075190A8E1A8F828E83124DFAAE8274302EF58212032F90001CE0FF7E007588
:2045BF00190A8E1A8F828E83124DC4AE8274302EF58212032F75822012032F90001CE07EAA
:2045DF000024FFF519EE34FFF51A90000A124D15E5828583F02409FEE435F0FFEE2409F5AB
:2045FF0082EF34F0F583E493F58212032F9055F675F08012044F7582C01203CB7582301268
:20461F00032F7F0090001CE07D0024FFF519ED34FFF51A90000AC007124D15AD82AE83D05C
:20463F00078F037C00EB2DFDEC3EFEED2409F582EE34F0F583E493F582C00712032FD0071E
:20465F000FBF090040BE9054CE75F08012044F102602801790021D743CF090001CE0F58249
:20467F0012353EE58290001CF0D233202A0302471290001CE0607CC22A90021D743CF090B3
:20469F00000D7430F07F008F060EEE3395E0FDEE240DFEED3400FD90001CE07B0024FFF54B
:2046BF0019EB34FFF51A90000AC007C006C005124D15AB82AC83D005D006D0078F017A004D
:2046DF00E92BFBEA3CFCEB2409F582EC34F0F583E4938E828D83F00FBF090040AA90001784
:2046FF00E4F090001904F07582801204307582C0120430102203024C5090021B7402F090FA
:20471F00021CF0758280120430024C50900019E070030247C17582801203CB900019E0FF2C
:20473F00BF01067E057F5680047E167F567D808E828F838DF012044F7582C01203CB9056D1
:20475F002775F08012044F900019E0FFBF01028003024C5030222BC226C22290021D743CB6
:20477F00F090001DE0F582120DC7900019E4F090001DF07582801204307582C0120430026A
:20479F004C50102603024C5090021D743CF0900019E4F07582801204307582C012043002FF
:2047BF004C5010330302488E7582801203CB90F32CE493701B90563875F08012044F7582B9
:2047DF00C01203CB9055E075F08012044F02488E90564A75F08012044F90001DE0FF7E00AF
:2047FF008F828E83A375190A8E1A124DFAAE8274302EF58212032F90001DE0FF7E008F8264
:20481F008E83A375190A8E1A124DC4AE8274302EF58212032F75822F12032F90F32CE49315
:20483F00FF7E0075190A8E1A8F828E83124DFAAE8274302EF58212032F90F32CE493FF7EC1
:20485F000075190A8E1A8F828E83124DC4AE8274302EF58212032F9055C675F08012044F02
:20487F007582C01203CB90565275F08012044F30263890F32CE4936031C22690021D743C74
:20489F00F090001DE0FF7E000FBF00010E90F32CE493FD8D19751A008F828E83124DC4AED7
:2048BF0082AF8390001DEEF0D233302A2190F32CE493601AC22A90021D743CF09000197422
:2048DF0001F07582801204307582C0120430102203024C5090021B7402F090021C04F07511
:2048FF008280120430024C5010220302499F90021CE02401F0E0FFBF04261234BF40139041
:20491F00021CE4F07582881203CB75825812032F806E7582881203CB75822012032F80600C
:20493F00BF085D90021B7402F090021C23F0120106900222E024309000C5F0900223E02461
:20495F00309000C6F0900224E024309000C7F0900225E024309000C8F012019E900221E416
:20497F00F0900220F090021FF090021EF0900225F0900224F0900223F0900222F012042A6F
:20499F00102A03024A7090021CE0FF2484FE7D007519048D1A8F828D83C006124DFAAD82A7
:2049BF00D006ED75F003A42EF5821203CB90021CE0FFBF04005044EF241EFDE43402FE8DCD
:2049DF00828E83E0FC7B008C828B83A375190A8B1AC006C005124DC4AB82D005D0068D823D
:2049FF008E83EBF090021CE0241EF582E43402F583E02430F58212032F80561F1F1F1FEFA3
:204A1F003395E0FEEF2422FFEE3402FE8F828E83E0FD7C008D828C83A375190A8C1AC0073A
:204A3F00C006124DC4AC82D006D0078F828E83ECF090021CE0FF1F1F1F1FEF3395E0FEEF08
:204A5F002422F582EE3402F583E02430F58212032F102602802F90021B7402F090021C2324
:204A7F00F0900221E4F0900220F090021FF090021EF0900225F0900224F0900223F0900239
:204A9F0022F012042A90021CE0FF2404FE7D007519048D1A8F828D83C006124DFAAD82D0FD
:204ABF0006ED75F003A42EF529758280120304103303024C50752D97752E54752F80853D02
:204ADF0030853C31853B32A22092007582C712053A854133854034853F357582C01206EB9B
:204AFF00024C50103303024BAD7582801203CB90566375F08012044F7582C01203CB758241
:204B1F003112032F75823A12032F30A3067E317F0080047E307F008E8212032F7582201257
:204B3F00032F75823212032F75823A12032F30A2067E317F0080047E307F008E8212032F37
:204B5F0075822012032F75823312032F75823A12032F30A1067E317F0080047E307F008EB4
:204B7F008212032F75822012032F75823412032F75823A12032F30C2067E317F0080047EE9
:204B9F00307F008E8212032F75822012032F90001AE025E025E02402F5297582C0120304F0
:204BBF00102602801090001AE0FF0F74035FF090021D740FF0102A02805E90021D740FF052
:204BDF0030A3067E017F0080047E007F0030A2067C027D0080047C007D00EC4EFF30A106FE
:204BFF007D047E0080047D007E00ED420730C2067D087E0080047D007E00ED420790001A88
:204C1F00E0FE8EF005F07401800225E0D5F0FB6FF5821207C11207E5102202801490021B35
:204C3F00E4F012042A7582801204307582C01204301235C1100203024D0F100B03024D0C93
:204C5F0090021BE0FFBF02028008BF03028003024D0C75514775524E755380754F0F7550BA
:204C7F000190512075F080120F8190000BE4F0300C2430161290021CE060067E757F00807F
:204C9F000A7E6D7F0080047E4D7F008E4690000275F000120C517F00EF240DFDE43400FEC7
:204CBF00EF2401F582E43400F583E08D828E83F00FBF0B0040E29000197402F030160B90DF
:204CDF0054D575F08012129D80099054E575F08012129D301615120ED5501090F004E49343
:164CFF00600990567475F08012129DD21675DB4943C110023D5C06
:204E470052454C41593420312E3136004D612050696E204D61632044696E68203A20303011
:204E670030300A436163206C656E6820636875207669657420484F412068617920746875F0
:204E87006F6E67206465752064756F630A312E4C656E68206261742074686965742062692E
:204EA7000A707070702C626174202D2076692064753A20303030302C6261740A322E4C65E1
:204EC7006E68207461742074686965742062690A707070702C746174202D207669206475DF
:204EE7003A20303030302C7461740A332E4C656E68206B69656D20747261207472616E67C1
:204F070020746861692074686965742062690A707070702C6B74202D2076692064753A2027
:204F2700303030302C6B740A342E4C656E68207468617920646F69206D612070696E3A20CB
:204F4700707070702C70696E2C787878780A7669206475203A20303030302C70696E2C311F
:204F6700323334200A5468617920646F69206D612070696E2074752030303030202D3E208C
:204F8700313233340A352E4C656E682072657365742073696D2D67736D0A707070702C72C4
:204FA700732D2076692064753A20303030302C72730A362E4C656E68206C696574206B6574
:204FC7002064616E682062610A707070702C64622D2076692064753A20303030302C64623F
:204FE7000A372E4C656E6820786F612064616E682062613A20707070702C786F612C787804
:20500700780A76643A20303030302C786F612C31352020786F6120736F206469656E20742F
:20502700686F6169207468752031350A76643A20303030302C786F612C30202020786F615B
:2050470020746F616E20626F2064616E682062610A382E4C656E68206C75752064616E68C0
:205067002062613A20707070702C6C75752C787878787878787878780A76643A2030303000
:20508700302C6C75752C303931323334353637380A6C757520736F206469656E2074686F91
:2050A700616920303931323334353637382076616F2064616E6820626100202043434120C7
:2050C70020001A00544B3C31303030204B2042414F43414F0041542B434D47533D22002258
:2050E7000D0020202053454E44494E4720202000415444003B0D002020202043414C4C49CE
:205107004E4720202020200044414E47204755492042414F2043414F0041540D00204B48FA
:205127004F413D004F4E004F4646002052454D4F544520444120434F2120200020444120BA
:20514700484F432052454D4F54452120004B432000424420004D413A00202020000D7265E1
:205167006D6F746520646320686F6320004B48414E204341500042414F20444F4E470020C2
:205187004D413A00204755492048554F4E472044414E20200041542B4353504E3F0D002007
:2051A70054454E204D414E47200041542B43545A553D310D0020424154204C415920474970
:2051C7004F200041542B434F50533D320D002020204E474154204D414E472020202000415A
:2051E700542B434F50533D300D002020202054494D204D414E47202020200041542B434307
:205207004C4B3F0D00204C41592047494F20475053200041542B434C49503D310D002020D2
:2052270053454E44494E4720434C495020200041542B434D47463D310D00202053454E4415
:20524700494E4720434D474620200041542B434E4D493D312C312C302C302C310D002020D8
:2052670053454E44494E4720434E4D4920200041542B434D47443D312C340D002020544806
:20528700494554204C415020544E20200041542B4353510D0020534F4E47200041542B43F8
:2052A7004855500D000D52454C41592052313A002052323A002052333A002052343A000DDC
:2052C7004C656E68206B686F6E6720686F70206C65000D4B686F692074616F206C6169203F
:2052E7007468696574206269000D72657365742067736D2073617520313073000D4B686F7B
:20530700612062616E207068696D000D4D6F2062616E207068696D000D446F69206D6120E7
:2053270070696E207468616E6820636F6E67000D4B686F6E672074686520786F6120736F56
:20534700204D61737465722071756120534D53000D586F612064616E682062612074686110
:205367006E6820636F6E67000D4C656E68204B686F6E6720486F70204C65000D536F206E69
:20538700617920646120636F2074726F6E672064616E68206261000D7468656D2064616E5F
:2053A70068206261207468616E6820636F6E67000D42616E6720736F2064612064617900D7
:2053C7000D536F206474206B686F6E6720686F70204C65000D4261742062616F2063616FC7
:2053E700000D5461742062616F2063616F000D47696F206B686F6E6720686F70206C650010
:205407000D4461206368696E682067696F002048455420424F204E484F20484F4320000D6C
:205427006D6F64756C652062616F20646F6E672064756F6320686F63004F4B202D20445500
:205447004E472052454D4F54450058202D204B4841432052454D4F544520000D486F702088
:2054670072656C6179206B686F6920646F6E670041542B434D474C3D22414C4C220D00200B
:205487002044454C4554494E4720534D532020000050494E3A000D5361692070696E20353F
:2054A700206C616E004C555520534F3F204D3A4F4B20423A58004441204C555520534F3AC7
:2054C70020202020202000202020202020000D4C7575207468616E6820636F6E67000D4CAF
:2054E7007575204D6173746572004348494E483A20202020202020202020004D41535445D1
:20550700523A20202020202020202020005048553A202020202020202020202020002020D1
:205527002020584F4120534F20202020202000202020584F412052454D4F54452020200026
:2055470020202020444F49202050494E2020202000202020202020455849542020202020A7
:2055670020000D43414E482042414F3A207468696574206269207675612052455345542059
:2055870028786F6120736F2B72656D6F7465292062616E67206E75742062616D00584F414B
:2055A70020534F204E41593F204D3A4F4B00444120584F4120534F2020202020202000204B
:2055C7002020202020202000284B484F4E4720434F20534F29202020004D3A74686F6174A1
:2055E70020202020202020202000534F2023002020423A74696570202B3A786F6100584FBD
:20560700412052454D4F5445204E41593F2000444120584F412052454D4F54452020200016
:205627004D3A4F4B20423A48757920202020202000284B484F4E4720434F2052454D4F54B8
:2056470045290052454D4F54452000423A74696570202B3A786F612020202000423A636827
:205667006F6E202B3A6261742F746174000D4454206D6F692064756F63206C75750014288B
:06007000E478FFF6D8FD64
:20004E007902E94400601B7A01905685783D75A002E493F2A308B8000205A0D9F4DAF2753C
:02006E00A0FFF1
:1D4D1500E5828519F0A4C582C0F0851AF0A4D0F025F0C5838519F0A42583F583222D
:204D3200E519451A60467A01E51925E0F519E51A334012F51AE5829519E583951A40030AC6
:204D520080E6C3E51A13F51AE51913F519C3E5829519F5F0E583951A4005F58385F082C38D
:0D4D7200E51A13F51AE51913F519DAE12217
:200076007800E84400600A790175A000E4F309D8FC783CE84402600C7903900001E4F0A347
:04009600D8FCD9FABF
:204D7F007A10E4FBFCE58225E0F582E58333F583EB33FBEC33FCEB9519F5F0EC951A400626
:094D9F00FCABF0438201DADD22D5
:0D004100758166124E32E582600302003EBA
:1C4DA80020F71430F6148883A88220F507E6A88375830022E280F7E49322E0221A
:204DC400C2D5E58330E70DD2D5E4C39582F582E49583F583E51A30E70BE4C39519F519E4F4
:164DE400951AF51A124D3230D50BE4C39582F582E49583F583228F
:204DFA00C2D5E58330E70DD2D5E4C39582F582E49583F583E51A30E70DB2D5E4C39519F532
:184E1A0019E4951AF51A124D7F30D50BE4C39582F582E49583F583220C
:044E32007582002263
:00000001FF
